:100000000C942B010C9402160C94DB150C94B41573
:100010000C948D150C9453010C9453010C9466159B
:100020000C9453010C9453010C9429160C949B16B8
:100030000C9453010C9453010C9453010C945301F0
:100040000C9453010C9401220C9453010C94530111
:100050000C9453010C9453010C9453010C94AD1E59
:100060000C9453010C94401A0C941A1A0C945301DA
:100070000C9453010C9453010C9453010C945301B0
:100080000C9453010C9453010C9453010C945301A0
:100090000C94911F0C9453010C9453010C94530134
:1000A0000C9453010C9453010C945301AF0A5E0B52
:1000B0000F0C040D220E170F0C102E11E11DE41D64
:1000C000D31DD71DDD1D051E051E051EE81DEC1DDB
:1000D000F01DF61DFA1D051E001E1B262D263026BE
:1000E00037263E266C26732680268D26992699264D
:1000F0009926992699269926992699269926992608
:1001000099269926992699269926992699269926F7
:10011000992699269926992699261B2628262D2642
:10012000302637263E26452652265F26070605043A
:100130000100080A0B0C0D09080B00020202010065
:10014000090400000102020000052400100105243A
:1001500001010104240206052406000107058103AC
:1001600010004009040100020A0000000705020215
:100170004000000705830240000004030904120147
:100180000002EF0201404123368000010102030119
:1001900041726475696E6F204C4C43004172647506
:1001A000696E6F204C656F6E6172646F00000000B5
:1001B00000250028002B002E003100000000002345
:1001C00000260029002C002F00040404040403046A
:1001D00005020202020403020202020606060606E5
:1001E00006040402020204040408020110408040D4
:1001F000102040804080080204018040201002014D
:10020000108010204040200000000200090F000074
:10021000030401000C0000000000000000000000CA
:1002200000000000000000000000240027002A0059
:100230002D003000005EBCE2613FDD83C29C7E2069
:10024000A3FD1F41009D23BE46DB65F88C11AF3234
:10025000CA57E9749E2811241FBECFEFDAE0DEBF33
:10026000CDBF14E0A0E0B1E0E4ECF6E602C00590FA
:100270000D92A839B107D9F727E0A8E9B4E001C089
:100280001D92A23FB207E1F711E0CBE2D1E004C03A
:100290002197FE010E942233CA32D107C9F70E947A
:1002A0006B2B0C9460330C9400002F923F924F9272
:1002B0005F926F927F928F929F92AF92BF92CF92F6
:1002C000DF92EF92FF920F931F93CF93DF93CDB7FF
:1002D000DEB76F970FB6F894DEBF0FBECDBF80912B
:1002E000CB04882339F060E08DE00E94721D1092EB
:1002F000CB0407C061E08DE00E94721D81E0809315
:10030000CB040E945424809106018823A1F00E940E
:10031000801A64E670E080E090E00E94671EE09042
:100320006407F09065078EEA91E00E94721AC70197
:1003300099270E94181B80916B068823E1F1109287
:100340006C066091710670917206809173069091AF
:1003500074060E94CB312EEB3CE443E95FE30E943C
:10036000803220E030E048EC52E40E94213120E06D
:1003700030E048EC52E40E9480320E949331709346
:1003800067076093660710927A0660917F06709106
:10039000800680918106909182060E94CB3120E0F8
:1003A00030E048EC52E40E9421310E949331709376
:1003B000CA046093C9040E94A11EC090C504D090D5
:1003C000C604E090C704F090C804C616D706E80635
:1003D000F90608F0AAC00E94A11EDC01CB018857D3
:1003E0009C4EAF4FBF4F8093C5049093C604A0931B
:1003F000C704B093C80481E080939804ECE2EE2E29
:10040000E1E0FE2E809198048330C8F5F7018491D5
:1004100090917B0083FB002700F910E0980175E0C4
:10042000220F331F7A95E1F79F7D292B20937B00C4
:100430008770806480937C0080917A0080648093D0
:100440007A0080917A0086FDFCCF609178008091DF
:10045000790070E0782B072E000C880B990B0E9416
:10046000CB316093A1047093A2048093A304909372
:10047000A404809198048F5F80939804C3CF2DECDF
:100480003CEC4CE052E46091A1047091A204809194
:10049000A3049091A4040E9421316093A10470935D
:1004A000A2048093A3049093A40481EF95E00E949A
:1004B000912181EF95E00E94861B0E949A31609302
:1004C0009F04613819F410929F040FC080912B0192
:1004D00081110BC0F9E06F9FC001112465E070E04D
:1004E0000E940E33605E60939F0485E096E00E9458
:1004F000912185E096E00E94861B0E949A316093CC
:10050000A004613819F41092A0040FC080912B014F
:1005100081110BC029E0629FC001112465E070E0E9
:100520000E940E33605E6093A0040E94A11E0091A1
:10053000C1041091C2042091C3043091C404061771
:1005400017072807390708F066C00E94A11EDC01C2
:10055000CB0188519C4FAF4FBF4F8093C104909304
:10056000C204A093C304B093C4048091C9049091C1
:10057000CA049C01275131092D32310530F42EE493
:100580002093B90425E42093BA049C012454310932
:100590002D32310530F425E42093B90420E2209374
:1005A000BA049C01215731092D32310530F423E57D
:1005B0002093B90425E42093BA049C012E593109F3
:1005C0002D32310530F423E52093B90420E2209345
:1005D000BA049C012B5C31092D32310530F423E53E
:1005E0002093B90427E52093BA049C01285F3109C0
:1005F0002D32310530F427E52093B90420E2209311
:10060000BA04855291408D9730F48EE48093B904FA
:1006100087E58093BA042091E6053091E705809143
:100620002C0190912D012817390709F075C00E94FF
:10063000A11E0091B4041091B5042091B60430912C
:10064000B704061717072807390708F065C00E9486
:10065000A11EDC01CB018053984FAF4FBF4F809359
:10066000B4049093B504A093B604B093B70482E1A8
:100670000E94411B60E070E080E090E00E942D1B32
:1006800081EB91E00E94841A61E070E080E090E0EC
:100690000E942D1B84EC91E00E94841A0E94542435
:1006A00080916B06882321F110926C06609171068F
:1006B0007091720680917306909174060E94CB31FE
:1006C0002EEB3CE443E95FE30E94803220E030E01F
:1006D00048EC52E40E94213120E030E048EC52E442
:1006E0000E9480320E94933170936707609366077F
:1006F00060E070E080E090E00E942D1B87ED91E0CB
:100700000E94841A61E070E080E090E00E942D1B5E
:1007100087ED91E00E94841A8091B304811109C091
:1007200080911301909114019093E7058093E60561
:1007300076C3813019F41092B20403C081E0809333
:10074000B2042091E2063091E3064091E406509114
:10075000E5066091DA067091DB068091DC069091E7
:10076000DD060E94AF30AB01BC0140939B04509367
:100770009C0460939D0470939E0422E081E795E0C1
:100780000E943E198091B204882309F483C1C0906D
:100790009B04D0909C04E0909D04F0909E0420E087
:1007A00030E04AEF53E4C701B6010E947B3287FD77
:1007B0003CC08091AF0481117DC081E08093AF0483
:1007C00080911D0190911E01A0911F01B091200107
:1007D00080932A0790932B07A0932C07B0932D07A3
:1007E0008091190190911A01A0911B01B0911C01F7
:1007F0008093260790932707A0932807B093290793
:100800008091150190911601A0911701B0911801E6
:100810008093220790932307A0932407B093250782
:1008200010929A041092990445C020E030E0A9018A
:10083000C701B6010E941C311816E4F18091AF0483
:100840008823C1F11092AF048091390190913A014F
:10085000A0913B01B0913C0180932A0790932B0714
:10086000A0932C07B0932D0780913501909136010C
:10087000A0913701B0913801809326079093270704
:10088000A0932807B09329078091310190913201FC
:10089000A0913301B09134018093220790932307F4
:1008A000A0932407B093250781E090E090939A04E9
:1008B0008093990440902A0750902B0760902C0752
:1008C00070902D0720E030E0A901C301B2010E9421
:1008D0001C3187FDBAC08090260790902707A09012
:1008E0002807B090290720E030E0A901C501B40134
:1008F0000E941C3187FDA9C0C0902207D090230719
:10090000E0902407F090250720E030E0A901C7011E
:10091000B6010E941C3187FD98C020919904309146
:100920009A04309301072093000781E021303105BC
:1009300009F080E0809321074092E6065092E70696
:100940006092E8067092E9068092EA069092EB06C1
:10095000A092EC06B092ED06C092EE06D092EF06A1
:10096000E092F006F092F10660911407709115077D
:1009700080911607909117070E94C93120E030E05E
:100980004AE754E40E9421316B8B7C8B8D8B9E8BCC
:100990004092F2065092F3066092F4067092F506C9
:1009A0009B01AC01C501B4010E9480324B015C0186
:1009B0006093F6067093F7068093F8069093F90615
:1009C0002B893C894D895E89C701B6010E9421317E
:1009D0006B017C016093FA067093FB068093FC0622
:1009E0009093FD068091FE069091FF06019769F5B0
:1009F000A301920160E070E0CB010E94AF306093F0
:100A0000F2067093F3068093F4069093F506A50121
:100A1000940160E070E0CB010E94AF306093F60675
:100A20007093F7068093F8069093F906A701960154
:100A300060E070E0CB010E94AF306093FA067093E3
:100A4000FB068093FC069093FD066091660770910B
:100A50006707072E000C880B990B0E94CB3160931F
:100A6000E2067093E3068093E4069093E5066091B6
:100A70003E0170913F01072E000C880B990B0E94DC
:100A8000CB316093DA067093DB068093DC0690939B
:100A9000DD0650C00E94B927BC01990F880B990B45
:100AA0000E94CB316093E2067093E3068093E406E4
:100AB0009093E5066091040170910501072E000CEA
:100AC000880B990B0E94CB316093DA067093DB069A
:100AD0008093DC069093DD068091390190913A0174
:100AE000A0913B01B0913C0180932A0790932B0782
:100AF000A0932C07B0932D0780913501909136017A
:100B0000A0913701B0913801809326079093270771
:100B1000A0932807B0932907109222071092230769
:100B2000109224071092250781E090E090939A0498
:100B30008093990480912007882309F443C10E947F
:100B4000A11E6F8B788F898F9A8F80910807909163
:100B50000907A0910A07B0910B074F89588D698D3D
:100B60007A8D481B590B6A0B7B0B8091140790916F
:100B70001507A0911607B0911707481759076A077C
:100B80007B0708F41FC1E0910207F0910307808101
:100B90009181A281B3818B8B9C8BAD8BBE8BE091BD
:100BA0000607F09107079C01AD0160817181828188
:100BB00093810E94AF304B015C012091100730916E
:100BC000110740911207509113076B897C898D8919
:100BD0009E890E94AF306B017C012091F606309116
:100BE000F7064091F8065091F906C501B4010E943C
:100BF000803220910C0730910D0740910E075091E3
:100C00000F070E94B0302B013C0160930C077093DA
:100C10000D0780930E0790930F07909121079B8FEC
:100C200091111AC02091F2063091F3064091F4061A
:100C30005091F506C701B6010E9480329B01AC01BC
:100C4000C301B2010E94AF3060930C0770930D078F
:100C500080930E0790930F0740900C0750900D075C
:100C600060900E0770900F0710911C0700911D07F0
:100C700030901E0720901F07212F302F432D522D1B
:100C8000C301B2010E947B3218162CF4812F902FE1
:100C9000A32DB22D18C08091180790911907A0912B
:100CA0001A07B0911B078C8F9D8FAE8FBF8F9C0151
:100CB000AD01C301B2010E941C3187FF0CC08C8DB5
:100CC0009D8DAE8DBF8D80930C0790930D07A093E3
:100CD0000E07B0930F079B8D992379F02091F206B0
:100CE0003091F3064091F4065091F506C501B40128
:100CF0000E9480324B015C0103C0812C912C540175
:100D00002091FA063091FB064091FC065091FD06B9
:100D1000C701B6010E9480329B01AC0160910C07B3
:100D200070910D0780910E0790910F070E94AF30D0
:100D3000A50194010E94B0306B017C019B01AC01C4
:100D4000612F702F832D922D0E941C3187FD16C0BC
:100D5000109118070091190730901A0720901B076F
:100D6000212F302F432D522DB601C7010E941C3177
:100D700087FD04C01C2D0D2D3E2C2F2CE091040767
:100D8000F0910507812F902FA32DB22D80839183A1
:100D9000A283B3838B899C89AD89BE898093100718
:100DA00090931107A0931207B09313078F89988D22
:100DB000A98DBA8D8093080790930907A0930A071D
:100DC000B0930B07C090DE06D090DF06E090E006FF
:100DD000F090E106C701B6010E9493317093E705D8
:100DE0006093E60522E0B701A60181E795E00E9445
:100DF0003E196AEE71E081E795E00E94E0184091AB
:100E0000200750E060E070E02AE081E795E00E9472
:100E1000F5186EEE71E081E795E00E94E018809190
:100E2000E6059091E7050E944D1B80913E0190914F
:100E30003F012AE030E0B9010E940E337093F005C3
:100E40006093EF058091660790916707B9010E9452
:100E50000E337093B1046093B0048091300181111E
:100E600012C0072E000C880B990B0E94CB312BE788
:100E700034E14EEC5FE30E9480320E949331709324
:100E8000B1046093B00410925E06C0905F06D090EB
:100E90006006E0906106F0906206C701B60120E4AA
:100EA00032E44FE050E00E947E3080912E0190911C
:100EB0002F01820F911D9C012C50310937FD05C077
:100EC0003093AE042093AD0405C00C969093AE040D
:100ED0008093AD048091AD049091AE048931910569
:100EE0002CF048979093AE048093AD04C701B601EF
:100EF00020E137E240E050E00E947E3064E6862E3A
:100F0000912CA12CB12CCA01B901A50194010E9418
:100F10007E307093AC046093AB04C701B601A501A9
:100F200094010E947E30CA01B901A50194010E947A
:100F30007E307093AA046093A9040E94A11E0091C0
:100F4000A5041091A6042091A7043091A8040617C7
:100F500017072807390708F044C00E94A11EDC01CA
:100F6000CB018C509E4FAF4FBF4F8093A504909301
:100F7000A604A093A704B093A80400912C0110919B
:100F80002D018091E6059091E705B801681B790B6A
:100F9000072E000C880B990B0E94CB316B017C0152
:100FA0008091130190911401B801681B790B072EF1
:100FB000000C880B990B0E94CB319B01AC01C7013F
:100FC000B6010E94213120E030E048EC52E40E945A
:100FD000803260930001709301018093020190932D
:100FE00003018091300160913E0170913F018111B8
:100FF0000EC0072E000C880B990B0E94CB312BE7FB
:1010000034E14EEC5FE30E9480320E949331CB01C9
:101010006AE070E00E940E337093F0056093EF0574
:101020008091EF059091F0056AE070E00E940E3328
:101030007B018C017093EE056093ED059093EC05B8
:101040008093EB058AE00E94411B61E070E080E044
:1010500090E00E942D1B8091AD049091AE040E94FF
:10106000BD1A82E092E00E94841A8091AB049091B4
:10107000AC040A9724F48BE593E00E94841A8091D3
:10108000AB049091AC040E94BD1A82E092E00E94F1
:10109000841A8091A9049091AA040A9724F48BE5FC
:1010A00093E00E94841A8091A9049091AA040E945E
:1010B000BD1A87EE91E00E94841A8AE00E94411BCB
:1010C00063E070E082E190E00E942D1B6EEF82E011
:1010D0000E94041B85EF91E00E94841A64E070E096
:1010E00082E190E00E942D1B6DEF82E00E94041BC4
:1010F00080913001882319F089EF91E002C08DEFD3
:1011000091E00E94841A60E070E080E090E00E942C
:101110002D1B81E092E00E94841A60910001709181
:10112000010180910201909103010E949331CB0152
:101130000E94BD1A84E694E00E94841A8091AF0454
:10114000882319F08BEF93E002C084E092E00E94C4
:10115000841A82E10E94411B60E070E086E090E02A
:101160000E942D1B8091B304811104C088E092E09D
:101170000E94841A8091B304813071F488EE91E06A
:101180000E94841A80910401909105010E94BD1A69
:1011900081E192E00E94841A8091B304823009F0C8
:1011A00049C00E0D1F1D17FF03C085E192E00BC063
:1011B0008091ED059091EE050A971CF487EE91E081
:1011C00002C088EE91E00E94841A8091ED05909112
:1011D000EE0597FF07C09195819591099093EE05D3
:1011E0008093ED058091ED059091EE050E94BD1A6A
:1011F00088E192E00E94841A8091EB059091EC05C1
:1012000097FF07C09195819591099093EC05809384
:10121000EB058091EB059091EC050E94BD1A809141
:101220003001882319F08AE192E002C08FE192E058
:101230000E94841A8AE00E94411B62E070E080E014
:1012400090E00E942D1B84E292E00E94841A60913B
:10125000A1047091A2048091A3049091A4040E941F
:10126000EA1A87EE91E00E94841A8AE00E94411BEC
:1012700063E070E080E090E00E942D1B87E292E046
:101280000E94841A8091B9040E94971A8091BA042E
:101290000E94971A64E070E080E090E00E942D1BAD
:1012A0008CE292E00E94841A8091A0040E94A81A05
:1012B00080912B01882319F081E392E002C08DE038
:1012C00092E00E94841A65E070E080E090E00E9465
:1012D0002D1B85E392E00E94841A80919F040E9456
:1012E000A81A80912B01882319F081E392E002C0B3
:1012F0008DE092E00E94841A66E070E080E090E069
:101300000E942D1B8AE392E00E94841A0E94B92752
:101310000E94BD1A85EE91E00E94841A8BEC0E9417
:10132000411B60E070E080E090E00E942D1B66E1D0
:101330008EE20E94041B8091B0049091B104843627
:1013400091051CF480E30E94971A8091B00490915B
:10135000B1040AE010E0B8010E940E33CB010E94F4
:10136000BD1A89EC0E94411B60E070E080E090E0D3
:101370000E942D1B6BE28FE60E94041B8091B0043B
:101380009091B104B8010E940E330E94BD1A809161
:10139000E1078823E9F18091B3048230B9F4209108
:1013A000DD073091DE074091DF075091E007AAE0AA
:1013B000B0E00E946B3020913E0130913F01620FFE
:1013C000731F70933F0160933E0118C08130B1F4E8
:1013D0002091DD073091DE074091DF075091E00753
:1013E000AAE0B0E00E946B30209104013091050129
:1013F000620F731F70930501609304011092DD0763
:101400001092DE071092DF071092E0071092E107BA
:1014100084E00E94491D2091E307892B21F42F5F6E
:101420002093E3070EC0222351F08091B3048F5F15
:10143000833018F48093B30402C01092B304109266
:10144000E3078091E307883010F40C94AB120E94FC
:10145000801A84E10E94411B60E070E080E090E02F
:101460000E942D1B64EF71E080E090E00E94671EF7
:1014700096EB292E93E0392E2EE9422E27E0522EAC
:101480008091E307883010F40C94AB128FE392E064
:101490000E94841A64EF71E080E090E00E94671E71
:1014A00084E00E94491D892BD9F382E1E1E4F1E057
:1014B000DE01119601900D928A95E1F700E0FE01A0
:1014C0003196E00FF11DE00FF11D8081918184566E
:1014D000944011F00F5FF3CF01500B8B0E94801AE4
:1014E00081E08093400102E010E0712CBB89CB2E9B
:1014F000D12C0E94332782309105A1F01CF4019772
:1015000051F0A1C784309105F1F0089709F09BC70D
:101510000E942D2798C7111199C7772009F4C8C7D1
:101520007A94CBC7872D90E005968C159D0524F401
:10153000153011F4739402E0812F90E005970CF0C0
:1015400082C71F5F84C7E12FF0E0E70DF11DE8308F
:10155000F10508F078C7EA5AFF4F0C9422338091C6
:101560002C0190912D019093E7058093E6050E9450
:10157000801A8AE00E94411B60E070E080E090E009
:101580000E942D1B89E492E00E94841A61E070E0C1
:1015900080E090E00E942D1B87E592E00E94841A73
:1015A00062E070E080E090E00E942D1B8BE692E00C
:1015B0000E94841A64E070E080E090E00E942D1B9D
:1015C00081E892E00E94841A80912C0190912D0173
:1015D0000E94BD1A85EE91E00E94841A66E070E0D8
:1015E00080E090E00E942D1B8CE892E00E94841A1B
:1015F0008091E6059091E7050E944D1B0E943327DC
:1016000082309105E1F01CF4019751F0F1CF843064
:10161000910509F448C0089759F70E942D27E8CF93
:1016200080912C0190912D018E39E7E09E072CF0DE
:1016300050922D0140922C0119C00A9613C080913E
:101640002C0190912D012091130130911401281744
:1016500039073CF0265F3F4F30932D0120932C013A
:1016600005C00A9790932D0180932C0164E070E0EF
:1016700080E090E00E942D1B81E892E00E94841A95
:1016800080912C0190912D010E94BD1A85EE91E070
:101690000E94841A80912C0190912D019093E7056E
:1016A0008093E605A5CF80912C0190912D016AE0F1
:1016B00070E00E940E3384E190E0AEC0809113018F
:1016C000909114019093E7058093E6050E94801A9B
:1016D0008AE00E94411B60E070E080E090E00E94A0
:1016E0002D1B82EA92E00E94841A61E070E080E0A3
:1016F00090E00E942D1B80EB92E00E94841A62E031
:1017000070E080E090E00E942D1B83EC92E00E944C
:10171000841A64E070E080E090E00E942D1B81E874
:1017200092E00E94841A80911301909114010E940A
:10173000BD1A85EE91E00E94841A66E070E080E0B8
:1017400090E00E942D1B8CE892E00E94841A809108
:10175000E6059091E7050E944D1B0E9433278230D9
:10176000910509F11CF4019751F0F1CF84309105F6
:1017700009F448C0089759F70E942D27E8CF8091B7
:1017800013019091140120912C0130912D018217A9
:1017900093073CF02A503109309314012093130130
:1017A00014C00A960EC08091130190911401873BDA
:1017B000F3E09F072CF4309214012092130105C02E
:1017C0000A97909314018093130164E070E080E025
:1017D00090E00E942D1B81E892E00E94841A809183
:1017E0001301909114010E94BD1A85EE91E00E94B0
:1017F000841A80911301909114019093E7058093CE
:10180000E605A5CF80911301909114016AE070E084
:101810000E940E3385E190E00E9405274EC60E948B
:10182000801A8AE00E94411B60E070E080E090E056
:101830000E942D1B88ED92E00E94841A61E070E006
:1018400080E090E00E942D1B8AEE92E00E94841AB4
:1018500063E070E080E090E00E942D1B8DEF92E04D
:101860000E94841A60911D0170911E0180911F01D8
:10187000909120010E94EA1A66E070E080E090E01A
:101880000E942D1B8CE892E00E94841A20E030E038
:1018900048EC52E460911D0170911E0180911F017E
:1018A000909120010E9480320E9493317B010E941E
:1018B00033278230910509F445C01CF4019751F09B
:1018C000F6CF8430910509F49BC0089781F70E94F8
:1018D0002D27EDCF63E070E080E090E00E942D1BAB
:1018E0008DEF92E00E94841A20E030E048EC52E450
:1018F00060911D0170911E0180911F019091200146
:101900000E9480324B015C0120E030E048EC52E460
:101910000E947B3287FD0DC080E090E0A8ECB2E42D
:1019200080931D0190931E01A0931F01B09320018D
:1019300043C020E030E040E85FE3C501B4010E940D
:10194000B03032C063E070E080E090E00E942D1B78
:101950008DEF92E00E94841A20E030E048EC52E4DF
:1019600060911D0170911E0180911F0190912001D5
:101970000E9480324B015C0120E030E0A9010E940E
:101980001C3118164CF010921D0110921E0110927D
:101990001F011092200110C020E030E040E85FE31A
:1019A000C501B4010E94AF3060931D0170931E0108
:1019B00080931F019093200180901D0190901E0143
:1019C000A0901F01B0902001C501B4010E94933185
:1019D0007B0120E030E048EC52E4C501B4010E94F4
:1019E000213160931D0170931E0180931F0190931C
:1019F00020010E94EA1A87EE91E00E94841A57CFD4
:101A0000B7018CE090E025C40E94801A8AE00E9411
:101A1000411B60E070E080E090E00E942D1B84E0BC
:101A200093E00E94841A61E070E080E090E00E9400
:101A30002D1B82E193E00E94841A63E070E080E055
:101A400090E00E942D1B8DEF92E00E94841A60911D
:101A5000190170911A0180911B0190911C010E9443
:101A6000EA1A66E070E080E090E00E942D1B8CE8AE
:101A700092E00E94841A20E030E048EC52E4609149
:101A8000190170911A0180911B0190911C010E9413
:101A900080320E9493317B010E943327823091056E
:101AA00009F46EC01CF4019751F0F6CF8430910513
:101AB00009F4C4C0089781F70E942D27EDCF63E099
:101AC00070E080E090E00E942D1B8DEF92E00E947C
:101AD000841A20E030E048EC52E4609119017091E2
:101AE0001A0180911B0190911C010E9480324B01D0
:101AF0005C0120E030E048EC52E40E947B3287FD3C
:101B00000DC080E090E0A8ECB2E4809319019093BE
:101B10001A01A0931B01B0931C0110C020E030E01B
:101B200040E85FE3C501B4010E94B0306093190141
:101B300070931A0180931B0190931C0180901901EE
:101B400090901A01A0901B01B0901C01C501B40136
:101B50000E9493317B0120E030E048EC52E4C50163
:101B6000B4010E9421316093190170931A0180938E
:101B70001B0190931C010E94EA1A86EE91E05BC063
:101B800063E070E080E090E00E942D1B8DEF92E01A
:101B90000E94841A20E030E048EC52E46091190180
:101BA00070911A0180911B0190911C010E9480325A
:101BB0004B015C0120E030E0A9010E941C311816A5
:101BC0004CF01092190110921A0110921B01109200
:101BD0001C0110C020E030E040E85FE3C501B40123
:101BE0000E94AF306093190170931A0180931B011A
:101BF00090931C018090190190901A01A0901B01F4
:101C0000B0901C01C501B4010E9493317B0120E01A
:101C100030E048EC52E4C501B4010E9421316093E8
:101C2000190170931A0180931B0190931C010E946B
:101C3000EA1A84EE91E00E94841A2ECFB7018EE05A
:101C400090E007C30E94801A8AE00E94411B60E076
:101C500070E080E090E00E942D1B80E293E00E9403
:101C6000841A61E070E080E090E00E942D1B80E328
:101C700093E00E94841A63E070E080E090E00E94AC
:101C80002D1B8DEF92E00E94841A609115017091D6
:101C9000160180911701909118010E94EA1A66E0DE
:101CA00070E080E090E00E942D1B8CE892E00E94A2
:101CB000841A20E030E048EC52E460911501709104
:101CC000160180911701909118010E9480320E94A4
:101CD00093317B010E9433278230910509F445C07E
:101CE0001CF4019751F0F6CF8430910509F49BC0A4
:101CF000089781F70E942D27EDCF63E070E080E028
:101D000090E00E942D1B8DEF92E00E94841A20E04B
:101D100030E048EC52E46091150170911601809119
:101D20001701909118010E9480324B015C0120E064
:101D300030E048EC52E40E947B3287FD0DC080E029
:101D400090E0A8ECB2E48093150190931601A09363
:101D50001701B093180143C020E030E040E85FE392
:101D6000C501B4010E94B03032C063E070E080E091
:101D700090E00E942D1B8DEF92E00E94841A20E0DB
:101D800030E048EC52E460911501709116018091A9
:101D90001701909118010E9480324B015C0120E0F4
:101DA00030E0A9010E941C3118164CF01092150168
:101DB00010921601109217011092180110C020E025
:101DC00030E040E85FE3C501B4010E94AF306093AA
:101DD000150170931601809317019093180180905C
:101DE000150190901601A0901701B0901801C5013F
:101DF000B4010E9493317B0120E030E048EC52E4D2
:101E0000C501B4010E942131609315017093160140
:101E100080931701909318010E94EA1A87EE91E0CF
:101E20000E94841A57CFB70180E190E012C20E944D
:101E3000801A8AE00E94411B60E070E080E090E040
:101E40000E942D1B8EE393E00E94841A61E070E0F3
:101E500080E090E00E942D1B8AE493E00E94841AA7
:101E600063E070E080E090E00E942D1B8DEF92E037
:101E70000E94841A6091390170913A0180913B016E
:101E800090913C010E94EA1A66E070E080E090E0E8
:101E90000E942D1B8CE892E00E94841A20E030E022
:101EA00048EC52E46091390170913A0180913B0114
:101EB00090913C010E9480320E9493317B010E94EC
:101EC00033278230910509F445C01CF4019751F085
:101ED000F6CF8430910509F49BC0089781F70E94E2
:101EE0002D27EDCF63E070E080E090E00E942D1B95
:101EF0008DEF92E00E94841A20E030E048EC52E43A
:101F00006091390170913A0180913B0190913C01BF
:101F10000E9480324B015C0120E030E048EC52E44A
:101F20000E947B3287FD0DC080E090E0A8ECB2E417
:101F30008093390190933A01A0933B01B0933C0107
:101F400043C020E030E040E85FE3C501B4010E94F7
:101F5000B03032C063E070E080E090E00E942D1B62
:101F60008DEF92E00E94841A20E030E048EC52E4C9
:101F70006091390170913A0180913B0190913C014F
:101F80000E9480324B015C0120E030E0A9010E94F8
:101F90001C3118164CF01092390110923A0110922F
:101FA0003B0110923C0110C020E030E040E85FE3CC
:101FB000C501B4010E94AF306093390170933A01BA
:101FC00080933B0190933C018090390190903A01BD
:101FD000A0903B01B0903C01C501B4010E94933137
:101FE0007B0120E030E048EC52E4C501B4010E94DE
:101FF00021316093390170933A0180933B019093B2
:102000003C010E94EA1A87EE91E00E94841A57CFA1
:10201000B70182E390E01DC10E94801A8AE00E940D
:10202000411B60E070E080E090E00E942D1B84E0A6
:1020300093E00E94841A61E070E080E090E00E94EA
:102040002D1B82E193E00E94841A63E070E080E03F
:1020500090E00E942D1B8DEF92E00E94841A609107
:1020600035017091360180913701909138010E94BD
:10207000EA1A66E070E080E090E00E942D1B8CE898
:1020800092E00E94841A20E030E048EC52E4609133
:1020900035017091360180913701909138010E948D
:1020A00080320E9493317B010E9433278230910558
:1020B00009F46EC01CF4019751F0F6CF84309105FD
:1020C00009F4C4C0089781F70E942D27EDCF63E083
:1020D00070E080E090E00E942D1B8DEF92E00E9466
:1020E000841A20E030E048EC52E4609135017091B0
:1020F000360180913701909138010E9480324B0166
:102100005C0120E030E048EC52E40E947B3287FD25
:102110000DC080E090E0A8ECB2E48093350190938C
:102120003601A0933701B093380110C020E030E0B1
:1021300040E85FE3C501B4010E94B030609335010F
:102140007093360180933701909338018090350168
:1021500090903601A0903701B0903801C501B401CC
:102160000E9493317B0120E030E048EC52E4C5014D
:10217000B4010E9421316093350170933601809340
:102180003701909338010E94EA1A86EE91E05BC015
:1021900063E070E080E090E00E942D1B8DEF92E004
:1021A0000E94841A20E030E048EC52E4609135014E
:1021B0007091360180913701909138010E948032F0
:1021C0004B015C0120E030E0A9010E941C3118168F
:1021D0004CF0109235011092360110923701109296
:1021E000380110C020E030E040E85FE3C501B401F1
:1021F0000E94AF30609335017093360180933701B0
:10220000909338018090350190903601A09037016D
:10221000B0903801C501B4010E9493317B0120E0E8
:1022200030E048EC52E4C501B4010E9421316093D2
:1022300035017093360180933701909338010E94E5
:10224000EA1A84EE91E00E94841A2ECFB70184E34B
:1022500090E00E941D271092AF042FC10E94801AA7
:102260008AE00E94411B60E070E080E090E00E9404
:102270002D1B80E293E00E94841A61E070E080E010
:1022800090E00E942D1B80E393E00E94841A63E09B
:1022900070E080E090E00E942D1B8DEF92E00E94A4
:1022A000841A6091310170913201809133019091D3
:1022B00034010E94EA1A66E070E080E090E00E943B
:1022C0002D1B8CE892E00E94841A20E030E048EC5C
:1022D00052E460913101709132018091330190910B
:1022E00034010E9480320E9493317B010E94332787
:1022F0008230910509F445C01CF4019751F0F6CFE6
:102300008430910509F49BC0089781F70E942D271E
:10231000EDCF63E070E080E090E00E942D1B8DEF38
:1023200092E00E94841A20E030E048EC52E4609190
:1023300031017091320180913301909134010E94FA
:1023400080324B015C0120E030E048EC52E40E9416
:102350007B3287FD0DC080E090E0A8ECB2E4809372
:10236000310190933201A0933301B093340143C003
:1023700020E030E040E85FE3C501B4010E94B030E6
:1023800032C063E070E080E090E00E942D1B8DEF92
:1023900092E00E94841A20E030E048EC52E4609120
:1023A00031017091320180913301909134010E948A
:1023B00080324B015C0120E030E0A9010E941C3119
:1023C00018164CF010923101109232011092330124
:1023D0001092340110C020E030E040E85FE3C50116
:1023E000B4010E94AF306093310170933201809349
:1023F0003301909334018090310190903201A0908C
:102400003301B0903401C501B4010E9493317B01C6
:1024100020E030E048EC52E4C501B4010E942131D3
:1024200060933101709332018093330190933401B2
:102430000E94EA1A87EE91E00E94841A57CFB701F2
:1024400086E390E006CF0130A9F501C011502B8939
:10245000211708F4122FE12CF12C8AE00E94411B75
:10246000B70180E090E00E942D1B88EE91E00E9471
:10247000841AB70180E090E00E942D1B88EE91E065
:102480000E94841A8FEFE81AF80A96E0E916F10420
:1024900021F78AE00E94411B612F70E080E090E00C
:1024A0000E942D1B8DE593E00E94841A00E04CC031
:1024B000013089F2023009F047C00E94801AAB89CE
:1024C000A63020F4612C872C912C1FC0FE01319680
:1024D0007F01E70CF11CE70CF11C812C912C8AE0A8
:1024E0000E94411BB40181E090E00E942D1BD701A6
:1024F0008D919D917D010E94841ABFEF8B1A9B0ADA
:10250000E6E08E16910459F71EC0E62CF12CCE148D
:10251000DF04CCF08AE00E94411BB70181E090E02B
:102520000E942D1BF401EE0DFF1DEE0FFF1F81E039
:1025300090E08C0F9D1FE80FF91F808191810E9410
:10254000841A6394E2CF01E08091400181110C94E0
:10255000790A0C94400A80910601811110920601BB
:102560006F960FB6F894DEBF0FBECDBFDF91CF914F
:102570001F910F91FF90EF90DF90CF90BF90AF90A1
:102580009F908F907F906F905F904F903F902F9093
:10259000089508954091CE045091CF042091CC0429
:1025A0003091CD0442175307B4F49091E800957030
:1025B000E1F39091E80092FD19C08093F1008091C1
:1025C000CE049091CF0401968F739927892B19F42B
:1025D0008EEF8093E8008091CE049091CF04019615
:1025E0009093CF048093CE0481E0089580E0089515
:1025F000DF92EF92FF920F931F93CF93DF93D82E2A
:10260000F92EE42E062F10E0C8010196880F0E94D3
:10261000CA1283E00E94CA12CD2DDF2D0C0F1D1FA0
:10262000C017D10789F0E7FE03C0FE01849101C005
:1026300088810E94CA12F82E80E00E94CA128F215F
:1026400021968111EDCF01C081E0DF91CF911F91E3
:102650000F91FF90EF90DF900895DF92EF92FF923D
:102660000F931F93CF93DF93D82E8A017B01E40E43
:10267000F51EEB01CE15DF0571F0D7FE03C0FE019C
:10268000849101C088810E94CA1221968111F2CFE3
:102690008FEF9FEF01C0C801DF91CF911F910F9184
:1026A000FF90EF90DF900895615030F02091F1009D
:1026B000FC0120830196F8CF289884E68093D20409
:1026C0000895CF92DF92EF92FF920F931F93CF93D3
:1026D000DF936C017A018B01C0E0D0E0CE15DF05FD
:1026E00081F0D8016D918D01D601ED91FC910190A1
:1026F000F081E02DC6010995892B11F02196EECFCE
:102700007E01C701DF91CF911F910F91FF90EF9054
:10271000DF90CF900895FC01538D448D252F30E03C
:10272000842F90E0821B930B541710F0CF960895DE
:1027300001970895FC01918D828D981761F0828D2B
:10274000DF01A80FB11D5D968C91928D9F5F9F73E5
:10275000928F90E008958FEF9FEF0895FC01918D87
:10276000828D981731F0828DE80FF11D858D90E0F4
:1027700008958FEF9FEF0895FC01918D228D892F91
:1027800090E0805C9F4F821B91098F739927089579
:1027900084ED94E00E94BC1321E0892B09F420E031
:1027A000822F0895FC01848DDF01A80FB11DA35A6B
:1027B000BF4F2C91848D90E001968F739927848F61
:1027C000A689B7892C93A089B1898C9182748C9346
:1027D000938D848D981306C00288F389E02D808143
:1027E0008F7D80830895EF92FF920F931F93CF9375
:1027F000DF93EC0181E0888F9B8D8C8D981305C051
:10280000E889F989808185FD26C0F62E0B8D10E0C0
:102810000F5F1F4F0F731127E02E8C8DE8120CC035
:102820000FB607FCFACFE889F989808185FFF5CFDB
:10283000CE010E94D213F1CF8B8DFE01E80FF11D66
:10284000E35AFF4FF0829FB7F8940B8FEA89FB8918
:102850008081806209C09FB7F894EE89FF89608308
:10286000E889F9898081827480839FBF81E090E04C
:10287000DF91CF911F910F91FF90EF900895CF932B
:10288000DF93EC01888D8823C9F0EA89FB89808178
:1028900085FD05C0A889B9898C9186FD0FC00FB64A
:1028A00007FCF5CF808185FFF2CFA889B9898C918B
:1028B00085FFEDCFCE010E94D213E7CFDF91CF91FC
:1028C000089580E090E0892B29F00E94C8138111BF
:1028D0000C9400000895CF93DF931F92CDB7DEB71D
:1028E0006983DC01ED91FC910280F381E02D41E0F0
:1028F00050E0BE016F5F7F4F09950F90DF91CF9140
:10290000089583E08093E9008091F200882319F014
:102910008AE38093E80008950F931F93CF93DF938A
:102920001F92CDB7DEB782E0898342E450E068E3CE
:1029300071E080E80E942D130E94351DDC01129683
:102940000D911C9113970115110589F0D801ED9196
:10295000FC910280F381E02DBE016F5F7F4FC801C3
:10296000099597FD04C0F80100851185ECCF898198
:102970000F90DF91CF911F910F9108958F929F92A9
:10298000AF92BF92CF92DF92EF92FF920F931F937D
:10299000CF93DF936C017B018A0180911201882320
:1029A00009F45CC08091D304882309F457C0809156
:1029B000620780FF05C08091E00082608093E000A4
:1029C000E801B12C8AEFA82E93E0892E2AE3922EFB
:1029D000209711F4BB20D9F10E94241D81110AC057
:1029E000AA94AA20D9F161E070E080E090E00E9412
:1029F000671EEECF282F30E0C217D3070CF48C2FC0
:102A00009FB7F8948092E9002091E80025FF1DC04F
:102A1000282F30E0C21BD30BF701815020F04191E9
:102A20004093F100FACFE20EF31EBB2019F0909212
:102A3000E8000AC08091E80085FD07C09092E80098
:102A4000BB24B394209709F0B12C9FBFC1CF5D98F0
:102A500084E68093D1041016110644F081E090E0E2
:102A6000F6019383828380E090E001C0C801DF918A
:102A7000CF911F910F91FF90EF90DF90CF90BF907B
:102A8000AF909F908F9008950E94241D90E008952C
:102A9000CF93DF931F92CDB7DEB7FC018485958578
:102AA00097FD05C02FEF3FEF358724870BC0CE0180
:102AB00001960E94F61C019719F4898190E002C0EA
:102AC0008FEF9FEF0F90DF91CF9108951F920F929C
:102AD0000FB60F9211242F933F934F935F936F93F1
:102AE0007F938F939F93AF93BF93EF93FF93E09167
:102AF0002901F0912A010995FF91EF91BF91AF91C2
:102B00009F918F917F916F915F914F913F912F9105
:102B10000F900FBE0F901F9018951F920F920FB637
:102B20000F9211242F933F934F935F936F937F9353
:102B30008F939F93AF93BF93EF93FF93E091270100
:102B4000F09128010995FF91EF91BF91AF919F916D
:102B50008F917F916F915F914F913F912F910F9046
:102B60000FBE0F901F9018951F920F920FB60F92E5
:102B700011242F933F934F935F936F937F938F9382
:102B80009F93AF93BF93EF93FF93E0912501F09153
:102B900026010995FF91EF91BF91AF919F918F9180
:102BA0007F916F915F914F913F912F910F900FBE49
:102BB0000F901F9018951F920F920FB60F9211242D
:102BC0002F933F934F935F936F937F938F939F9335
:102BD000AF93BF93EF93FF93E0912301F091240112
:102BE0000995FF91EF91BF91AF919F918F917F9147
:102BF0006F915F914F913F912F910F900FBE0F906A
:102C00001F9018951F920F920FB60F9211242F93B9
:102C10003F934F935F936F937F938F939F93AF9364
:102C2000BF93EF93FF93E0912101F0912201099569
:102C3000FF91EF91BF91AF919F918F917F916F9194
:102C40005F914F913F912F910F900FBE0F901F906A
:102C500018951F920F920FB60F9211248F939F9386
:102C60008091E1009091E100937F9093E10083FFD8
:102C70000FC01092E90091E09093EB001092EC00ED
:102C800092E39093ED001092D30498E09093F000BB
:102C900082FF20C093E09093E9009091F200992385
:102CA00019F09AE39093E8009091D104992339F0B8
:102CB0009091D10491509093D104992389F19091EE
:102CC000D204992339F09091D20491509093D20478
:102CD000992341F184FF10C08091E2008E7E8160D3
:102CE0008093E2008091E1008F7E8093E1008091EB
:102CF00062078E7E806111C080FF16C08091E20065
:102D00008E7E80618093E2008091E1008E7E8093D0
:102D1000E100809162078E7E81608093620704C02B
:102D20005D9ACDCF289AD6CF9F918F910F900FBEED
:102D30000F901F9018951F920F920FB60F921124AB
:102D4000CF92DF92EF92FF920F931F932F933F93B7
:102D50004F935F936F937F938F939F93AF93BF93A3
:102D6000EF93FF93CF93DF93CDB7DEB76C97DEBFC2
:102D7000CDBF1092E9008091E80083FFFBC168E0BD
:102D8000CE0145960E94541382EF8093E8008D890E
:102D900087FF05C09091E80090FFFCCF03C09EEF35
:102DA0009093E800982F907609F0C6C09E894F89CD
:102DB000588D2F89F88C91110CC0803829F480919E
:102DC00063078093F10002C01092F1001092F100AD
:102DD00045C1913051F4811141C14130510509F093
:102DE0003DC1809163078D7F0BC0933061F48111E9
:102DF00035C14130510509F031C1809163078260CE
:102E0000809363072BC1953049F48091E80080FFDF
:102E1000FCCF822F80688093E30020C1963009F0B8
:102E20005EC00B8D1C8D22E01092E9001092CF0441
:102E30001092CE04F21232C01092CD041092CC0443
:102E40000E948C1499E0BE016F5F7F4FDB01E92F78
:102E50001D92EA95E9F79983FA8291E09E8390EAC0
:102E600098879AEF99872091CE043091CF04275FFD
:102E70003F4F3C832B838D831092E9001092CF0447
:102E80001092CE041093CD040093CC0449E050E09E
:102E900080E00E942D130E948C14E0C01093CD049A
:102EA0000093CC040E94351DDC0112960D911C91FB
:102EB00013970115110509F4BBC0D801ED91FC91E0
:102EC0000480F581E02DBE016B5E7F4FC80109953E
:102ED000009709F0C7C0F80100851185EACF973047
:102EE00009F445C1983021F481E08093F100B6C027
:102EF000993009F0B3C0837009F039C1E4E5F1E01D
:102F000081E031E096E32081211109C08EE78093B2
:102F1000EA001092EA008F898093D3049FC08093C7
:102F2000E9003093EB0021912093EC009093ED00A9
:102F30008F5F873041F7EACF8B8D9C8D1092E9002F
:102F40001092CF041092CE049093CD048093CC04C1
:102F5000898D811153C08E899D89913A49F48132BE
:102F600009F005C147E050E06BE071E080E0BBC0D4
:102F7000913209F0FCC0833269F48F89988DA0E00A
:102F8000B0E08093070190930801A0930901B093EA
:102F90000A0164C0803269F48091E80082FFFCCFAE
:102FA00067E08BE091E00E9454138BEF8093E80080
:102FB00055C0823209F052C08F8980931201EEEF22
:102FC000FFE7859194918B3F9C4D19F0E0E0F8E08C
:102FD00002C0EEEFFAE080910B0190910C01A091FC
:102FE0000D01B0910E01803B9440A105B10509F09F
:102FF0009EC08091120180FF79C099C00E94351D4A
:10300000FC01028113810115110509F4B0C0D8013A
:10301000ED91FC910190F081E02DBE016B5E7F4F40
:10302000C801099581111AC0F80100851185EBCFFF
:10303000F1E0FF1609F44EC0F3E0FF1298C08F894B
:10304000882309F44AC0823089F440E860E18CE9C1
:1030500091E00E94F812882309F489C08EEF8093D2
:10306000E80088C018161906CCF381C0813029F415
:1030700040E86BE080E991E0ECCF833009F077C065
:103080000E94351DDC011296ED90FC9013978E0185
:103090000F5F1F4F6801E114F10479F0D701ED9142
:1030A000FC910680F781E02DB801C7010995080F52
:1030B000111DF701E084F184EECFD8011C92F601D6
:1030C00001900020E9F73197BF016C197D0940E0BC
:1030D000C601BFCF6EE771E002C06AE771E0FB0195
:1030E000449150E080E80E942D13B8CFEE3F2AE0D3
:1030F000F20751F0808191818737A7E79A0721F085
:103100009093FF0A8093FE0A87E797E79183808375
:10311000809160008093D0049BE088E10FB6F89422
:10312000A895809360000FBE9093600097CF808138
:1031300091818737974709F091CFA89580916000DA
:103140008861809360008091D00480936000EE3F9E
:10315000BAE0FB0739F08091FE0A9091FF0A918353
:1031600080837CCF1092FF0A1092FE0A77CF81E213
:103170008093EB006C960FB6F894DEBF0FBECDBF08
:10318000DF91CF91FF91EF91BF91AF919F918F917F
:103190007F916F915F914F913F912F911F910F916F
:1031A000FF90EF90DF90CF900F900FBE0F901F9089
:1031B0001895DC01ED91FC910190F081E02D0994CE
:1031C0006115710579F0FB0101900020E9F7319755
:1031D000AF01461B570BDC01ED91FC910280F3819E
:1031E000E02D099480E090E008958F929F92AF9235
:1031F000BF92EF92FF920F931F93CF93DF93CDB7C0
:10320000DEB7A1970FB6F894DEBF0FBECDBF7C012D
:10321000FA01CB0119A2223008F42AE08E010F5DD9
:103220001F4F822E912CA12CB12CBF01A50194011E
:103230000E947E30F901CA01015011096A3014F46C
:10324000605D01C0695CD8016C93232B242B252B76
:1032500061F7B801C7010E94E018A1960FB6F89473
:10326000DEBF0FBECDBFDF91CF911F910F91FF90B9
:10327000EF90BF90AF909F908F9008957F928F9224
:103280009F92AF92BF92CF92DF92EF92FF920F93F5
:103290001F93CF93DF938C016A017B01722E9A01F9
:1032A000AB01C701B6010E94ED32882319F065EB2E
:1032B00073E027C046015701E894B7F82FEF3FEFBE
:1032C0004FE75FE7C501B4010E94ED3281110DC0E7
:1032D0002FEF3FEF4FE75FE7C501B4010E941C31BC
:1032E00018161CF469EB73E00CC02FEF3FEF4FE7AB
:1032F0005FE4C701B6010E947B32181694F46DEBAF
:1033000073E0C801DF91CF911F910F91FF90EF9073
:10331000DF90CF90BF90AF909F908F907F900C9454
:10332000E0182FEF3FEF4FE75FECC701B6010E94B7
:103330001C3187FDE4CF20E030E0A901C701B601D0
:103340000E941C3187FF0AC06DE2C8010E94D91893
:10335000EC01F7FAF094F7F8F09402C0C0E0D0E086
:10336000B12C60E070E080E09FE37B1441F020E04E
:1033700030E040E251E40E942131B394F6CFA7013E
:1033800096010E94B0306B017C010E949A314B0182
:103390005C012AE0AB01BC01C8010E94F518C80F0E
:1033A000D91F7720C1F1C501B4010E94C9319B0129
:1033B000AC01C701B6010E94AF306B017C016EE227
:1033C000C8010E94D918C80FD91F20E030E040E2A0
:1033D00051E4C701B6010E9480324B015C010E949A
:1033E0009A316B01E12CF12C2AE0B701A601C8014A
:1033F0000E94F518C80FD91FC701B6010E94C93134
:103400009B01AC01C501B4010E94AF306B017C018E
:103410007A947110DACFCE01DF91CF911F910F9185
:10342000FF90EF90DF90CF90BF90AF909F908F90E4
:103430007F9008951F920F920FB60F9211242F9331
:103440003F934F935F936F937F938F939F93AF932C
:10345000BF93EF93FF9384ED94E00E94D213FF910A
:10346000EF91BF91AF919F918F917F916F915F91FC
:103470004F913F912F910F900FBE0F901F90189575
:103480001F920F920FB60F9211242F938F939F9339
:10349000EF93FF93E091E404F091E5048081E091E3
:1034A000EA04F091EB0482FD12C090818091ED045A
:1034B0008F5F8F732091EE04821751F0E091ED043D
:1034C000F0E0EC52FB4F958F8093ED0401C08081BA
:1034D000FF91EF919F918F912F910F900FBE0F90C1
:1034E0001F901895CF93DF93EC016991662329F023
:1034F00089E196E00E945E28F8CFDF91CF91089590
:1035000081EC93E00C94721ACF93DF93EC0184EC7E
:1035100093E00E94721ABE0189E196E00E94E018D1
:1035200060E089E196E0DF91CF910C945E28CF9323
:10353000C82F84EC93E00E94721A6C2F89E196E008
:103540000E94D91860E089E196E0CF910C945E2842
:10355000CF93C82F84EC93E00E94721A4C2F50E056
:1035600060E070E02AE089E196E00E94F51860E0F2
:1035700089E196E0CF910C945E28CF92DF92EF9292
:10358000FF926C0184EC93E00E94721A0D2C000CE7
:10359000EE08FF08F7FE0EC06DE289E196E00E949A
:1035A000D91844275527BA014C195D096E097F09BE
:1035B0002AE003C02AE0B701A60189E196E00E9453
:1035C000F51860E089E196E0FF90EF90DF90CF90F2
:1035D0000C945E28CF92DF92EF92FF926B017C01F8
:1035E00084EC93E00E94721A22E0B701A60189E1FF
:1035F00096E00E943E1960E089E196E0FF90EF902E
:10360000DF90CF900C945E28CF93DF93D82FC62FF6
:1036100087EC93E00E94721A6D2F89E196E00E9478
:103620005E286C2F89E196E0DF91CF910C945E28A3
:10363000CF93DF938F3F910510F4682F08C0EC0102
:103640006FEF89E196E00E945E286C2F6F5F89E141
:1036500096E0DF91CF910C945E280F931F93CF9348
:10366000DF938C01EB018BEC93E00E94721AC8018E
:103670000E94181BCE01DF91CF911F910F910C94E6
:10368000181BCF93C82F8EEC93E00E94721A6C2FF8
:1036900089E196E0CF910C945E28BC019091E805F9
:1036A0009C3098F58091E90528E830E0281B310925
:1036B00087FD3395220F331F220F331F62177307C5
:1036C0008CF08091EA0548E552E0481B510987FDDE
:1036D0005395440F551F440F551F9B01461757071D
:1036E0000CF49A0122503109220F331F4FB7F8947E
:1036F000892F90E0FC01EE0FFF1F8E0F9F1FFC0132
:10370000EF53FA4F328321834FBF08954F925F9258
:103710006F927F928F929F92AF92BF92CF92DF92E1
:10372000EF92FF920F931F93CF93DF93CDB7DEB746
:1037300061970FB6F894DEBF0FBECDBFDC011696C1
:10374000ED91FC911797138615861486DF011B9661
:1037500033961E92EA17FB07E1F7FC0106811781F9
:10376000D8011D962C91211169C07C01C8010E94CD
:103770005A21811105C0F80113861586148681C06F
:1037800040E060EFC8010E942621BB24B394A12C25
:10379000912CCC24C394C8010E94D320D82EC801F8
:1037A0000E94D320F1E0DF1203C08130D1F439C090
:1037B0002A2D30E0D8121FC0D8011B968C91C81654
:1037C00038F4F801E20FF31F83818B2151F402C01A
:1037D0008C1539F0D12CB8E0BC1560F0F801C48626
:1037E00009C0F801EA0DF11D83818B298383DD2453
:1037F000D39409C09C2CF801E20FF31F93818B2D09
:103800008095892383836D2DC8010E94F720C3947E
:10381000BB0C19F4A394BB24B394F7E0FA1508F099
:10382000BACF20E42C1550F4D8011B969C921B971C
:1038300091100EC081E01D968C930AC0D8011B9692
:103840001C921B971D961C921D971C961C9219C0CA
:10385000F8018381882391F333966E012AE0C20E2A
:10386000D11C055F1F4FD601560181918D93E01742
:10387000F107D9F767E0C6010E94BB209989891733
:1038800029F060E070E08EEF92EC99C0D7011696B7
:103890008D919C9117970E945A21882309F48CC01E
:1038A000F7010681178140E065E5C8010E942621E5
:1038B0004E01F2E18F0E911CD6016D916D0140E039
:1038C000C8010E9426218C149D04B1F740E06EEBE4
:1038D000F701868197810E9426218E010F5F1F4F7D
:1038E0002801D70116968D909C90179778E0672E47
:1038F000712CD12CCC24C394C4010E94D3208111FB
:10390000DC28CC0CB1E06B1A7108B1F7F801D19248
:103910008F01AE16BF0629F7D70116968D919C919F
:1039200017970E945A21813009F046C068E0C20111
:103930000E94BB20998589133FC02A8130E0C901CC
:10394000982F8827990F990F990F6981B8E06B9F7D
:10395000B00111249C01262B372B8A858031C9F4B4
:10396000688570E08F81FB01E81BF109CF01969516
:10397000982F8827979587950E940E33605171097B
:10398000207F53E0220F331F5A95E1F7620F731F18
:1039900001C0B9016138F4EE7F070CF472CF072E35
:1039A000000C880B990B0E94CB3120E030E040E006
:1039B0005CE30E94803203C060E874EEEBCF619656
:1039C0000FB6F894DEBF0FBECDBFDF91CF911F9130
:1039D0000F91FF90EF90DF90CF90BF90AF909F90AE
:1039E0008F907F906F905F904F9008952091D304B7
:1039F000211103C08FEF9FEF08955FB7F89422E085
:103A00002093E9002091F20030E01216130614F41E
:103A100021E030E0422FFC0184E6415038F0289844
:103A20008093D2049091F1009193F7CF2115310545
:103A300021F08091F200882319F05FBFC901089539
:103A40008BE68093E800F9CF2FB7F89483E080935A
:103A5000E9009091E800892F807295FF04C0909151
:103A6000F20080E4891B2FBF0895809132078111F5
:103A70000DC082E080932E0784E080932F07109280
:103A800031071092300781E0809332078EE297E091
:103A90000895CF93DF93282F30E0F901E95FFD4FC0
:103AA0008491F901E851FE4FD491F901E753FE4F9B
:103AB000C491CC2391F081110E94C91DEC2FF0E03C
:103AC000EE0FFF1FE554FE4FA591B491EC91ED234D
:103AD00081E090E021F480E002C080E090E0DF919E
:103AE000CF9108951F93CF93DF93282F30E0F901F2
:103AF000E95FFD4F8491F901E851FE4FD491F9013E
:103B0000E753FE4FC491CC23C1F0162F81110E94C0
:103B1000C91DEC2FF0E0EE0FFF1FE355FE4FA591FE
:103B2000B4919FB7F894111104C08C91D095D8230B
:103B300002C0EC91DE2BDC939FBFDF91CF911F91F0
:103B4000089561E0809128060E94061E61E0809140
:103B500029060E94061E61E080912A060E94061E28
:103B600061E080912A060E94721D60E08091280623
:103B70000E94721D60E0809129060E94721D809152
:103B80002B06882319F060E00C94061E08950E940D
:103B90003C3390E0FC013197EF30F105B0F5E25A8B
:103BA000FF4F0C942233809180008F7703C0809167
:103BB00080008F7D80938000089580918000877FB2
:103BC000F9CF84B58F7702C084B58F7D84BD089509
:103BD000809190008F7707C0809190008F7D03C007
:103BE00080919000877F8093900008958091C0001D
:103BF0008F7703C08091C0008F7D8093C0000895AF
:103C00008091C200877F8093C2000895CF93DF9395
:103C100090E0FC01E851FE4F2491FC01E753FE4F78
:103C20008491882361F190E0880F991FFC01EA5D7F
:103C3000FD4FC591D491FC01E355FE4FA591B49180
:103C4000611109C09FB7F8948881209582238883E9
:103C5000EC912E230BC0623061F49FB7F8948881F9
:103C6000322F309583238883EC912E2B2C939FBF8A
:103C700006C08FB7F894E8812E2B28838FBFDF9181
:103C8000CF9108953FB7F89480916D0790916E079A
:103C9000A0916F07B091700726B5A89B05C02F3F74
:103CA00019F00196A11DB11D3FBFBA2FA92F982F62
:103CB0008827820F911DA11DB11DBC01CD0142E0DD
:103CC000660F771F881F991F4A95D1F708958F9225
:103CD0009F92AF92BF92CF92DF92EF92FF926B01D1
:103CE0007C010E94421E4B015C01C114D104E1041D
:103CF000F104F1F00E94421EDC01CB018819990900
:103D0000AA09BB09883E9340A105B10570F321E0E3
:103D1000C21AD108E108F10888EE880E83E0981EE7
:103D2000A11CB11CC114D104E104F10419F7DDCFC9
:103D3000FF90EF90DF90CF90BF90AF909F908F90CB
:103D400008952FB7F8946091690770916A07809180
:103D50006B0790916C072FBF08951F920F920FB6BB
:103D60000F9211242F933F938F939F93AF93BF9301
:103D70008091690790916A07A0916B07B0916C07D9
:103D80003091680723E0230F2D3720F40196A11D01
:103D9000B11D05C026E8230F0296A11DB11D209379
:103DA00068078093690790936A07A0936B07B093A5
:103DB0006C0780916D0790916E07A0916F07B0918D
:103DC00070070196A11DB11D80936D0790936E073A
:103DD000A0936F07B0937007BF91AF919F918F91A0
:103DE0003F912F910F900FBE0F901F901895FC01DF
:103DF0008485958597FD0BC09FB7F89482E08093EA
:103E0000E9008091F2009FBF90E0019608959FB76E
:103E1000F89482E08093E9008091F2009FBF90E0E7
:103E2000089585ED8093BC008091BC0084FDFCCF9B
:103E30001092B707089540919307262F30E0240F82
:103E4000311D21323105DCF42091B7072430C9F44B
:103E5000FC0180E090E0861758F43091930721919F
:103E6000DC01AD58B84FA30FB11D2C930196F3CFD1
:103E700080919307680F6093930780E0089581E035
:103E8000089582E0089508958FEF9FEF08958FEFD2
:103E90009FEF08958091720790E091958195910927
:103EA0000895CF93DF93CB01EA01642F0E941B1F7B
:103EB000CE01DF91CF910895CF93DF931F92CDB7BD
:103EC000DEB7698361E0CE0101960E941B1F81E08D
:103ED00090E00F90DF91CF9108950F931F93CF93B0
:103EE000DF931F92CDB7DEB78C01FC0184859585E9
:103EF00097FF0EC0CE0101960E94F61C019719F49F
:103F0000898190E002C08FEF9FEFF8019587848749
:103F1000F801848595850F90DF91CF911F910F91C6
:103F200008951F920F920FB60F9211242F933F9373
:103F30004F935F936F937F938F939F93AF93BF93B1
:103F4000EF93FF938091B900887F803609F49CC07D
:103F500068F5883209F45BC090F4803109F454C0EC
:103F600038F4882309F4F2C0883009F44DC0F2C057
:103F7000883109F44CC0803209F45DC0EBC0803454
:103F800009F468C048F4803309F455C0883309F057
:103F9000E1C08093B607D4C0803509F44FC088359E
:103FA00009F45DC0883409F0D5C0D2C0883909F45D
:103FB000C3C0A8F4883709F467C038F4883609F418
:103FC00063C0803709F460C0C5C0883809F4B4C044
:103FD000803909F45FC0803809F0BCC05BC0803B09
:103FE00009F484C038F4803A09F466C0883A09F4C8
:103FF0007DC0B0C0803C09F4A3C0883C09F4A0C0D7
:10400000883B09F486C0A6C08091DC0710C090915F
:10401000DB078091DA07981770F5E091DB0781E004
:104020008E0F8093DB07F0E0E654F84F8081809399
:10403000BB0085EC82C08093B6078AC0E091DB07A5
:1040400081E08E0F8093DB078091BB00F0E0E654A7
:10405000F84F80839091DB078091DA076AC0E09186
:10406000DB0781E08E0F8093DB078091BB00F0E0DF
:10407000E654F84F80838091B907811169C081E0CF
:104080008093B80784EA5DC083E08093B7071092FD
:10409000B507CFCF8091B507803208F04DC0E091D1
:1040A000B50781E08E0F8093B5078091BB00F0E0EB
:1040B000EB56F84F8083BDCF85EC8093BC00109207
:1040C000B7078091B507803230F4E091B507F0E092
:1040D000EB56F84F10826091B50770E085E997E0E4
:1040E000E0E0F0E009951092B50734C084E08093D9
:1040F000B7071092940710929307E0E0F0E009955B
:1041000080919307811105C081E0809393071092FD
:104110007307E091940781E08E0F80939407F0E09D
:10412000ED58F84F80818093BB0090919407809167
:104130009307981708F47DCF85E88093BC000AC0E8
:1041400085EC8093BC001092B70704C01092B607AC
:104150000E94111FFF91EF91BF91AF919F918F919D
:104160007F916F915F914F913F912F910F900FBE73
:104170000F901F901895DC0180E0615098F02D9110
:10418000982F9227E92FEF70F0E0EC5CFD4F24911F
:1041900092959F70E92FF0E0EC5BFD4FE491822F48
:1041A0008E27EBCF0895FC0190810180F281E02DF4
:1041B000F8948181892B81832281892F80952823FE
:1041C0002283A7E0B0E01197F1F721818223818358
:1041D000A3E2B0E01197F1F780817894EFECF0E082
:1041E0003197F1F7982381E009F480E00895FC010C
:1041F00090810180F281E02D892F809560FF12C0AF
:10420000F8942281822382838181892B8183A3E296
:10421000B0E01197F1F78281982B9283789487ED23
:1042200090E011C0F8942281822382838181892BBE
:104230008183AFEFB0E01197F1F78281982B9283E1
:1042400078948FE090E00197F1F70895DF92EF9274
:10425000FF920F931F93CF93DF93EC01D62EE42EA2
:1042600008E010E0FF24F39461E08D2D8F2109F424
:1042700060E0CE010E94F720FF0C01501109A1F768
:10428000E11010C0F894E981FA81918188818095CC
:1042900089238183E981FA819281888180958923AC
:1042A00082837894DF91CF911F910F91FF90EF90CF
:1042B000DF900895DC012C911196ED91FC911297FD
:1042C000F8948181922F90958923818378948DE74A
:1042D00043E050E0815021F1DA011197F1F730818C
:1042E0003223C1F3F8948281892382838181822BD6
:1042F00081837894ABE7B7E01197F1F7F894818167
:104300009823918383E191E00197F1F7808128233D
:1043100081E009F080E07894E3E6F6E03197F1F788
:1043200008958F929F92AF92BF92CF92DF92EF92B9
:10433000FF920F931F93CF93DF93EC018E819F81A8
:104340000E945A2140E06CEC8E819F810E942621C0
:10435000488164E48E819F810E9426218A8188237E
:1043600009F442C0E981E950E33040F4F0E0EE0F97
:10437000FF1FE855FE4F0081118102C00EEE12E0D2
:104380008B818823F9F0888181111CC00E94A11EB5
:104390004B015C016801110FEE08FF088E819F81BF
:1043A0000E94D320813001F10E94A11EDC01CB01CB
:1043B0008C199D09AE09BF0988159905AA05BB0589
:1043C00068F312C0B801110F880B990BDF91CF91E0
:1043D0001F910F91FF90EF90DF90CF90BF90AF9023
:1043E0009F908F900C94671EDF91CF911F910F913A
:1043F000FF90EF90DF90CF90BF90AF909F908F9005
:1044000008951F920F920FB60F9211242F933F938E
:104410004F935F936F937F938F939F93AF93BF93CC
:10442000EF93FF938091710787FF05C0109285007D
:10443000109284001BC020917107022E000C330BD8
:104440008091E50590E02817390784F48091710781
:10445000082E000C990BFC01EE0FFF1F8E0F9F1F03
:10446000FC01EF53FA4F808186FD15C080917107E2
:104470008F5F8093710720917107022E000C330B20
:104480008091E50590E028173907C4F48091710701
:104490008C3064F113C080917107082E000C990BC9
:1044A000FC01EE0FFF1F8E0F9F1FFC01EF53FA4F11
:1044B000808160E08F730E94721DD8CF809184004C
:1044C00090918500049680349C4918F480E49CE91E
:1044D00005C0809184009091850004969093890096
:1044E000809388008FEF809371073BC020918400F8
:1044F0003091850080917107082E000C990BFC010A
:10450000EE0FFF1F8E0F9F1FFC01EF53FA4F8181AB
:104510009281820F931F90938900809388008091ED
:104520007107082E000C990BFC01EE0FFF1F8E0F78
:104530009F1FFC01EF53FA4F808186FF12C08091CC
:104540007107082E000C990BFC01EE0FFF1F8E0F58
:104550009F1FFC01EF53FA4F808161E08F730E942F
:10456000721DFF91EF91BF91AF919F918F917F91BC
:104570006F915F914F913F912F910F900FBE0F90D0
:104580001F901895CF93DF93EC018A859B85AC85AE
:10459000BD858E839F83A887B9870E94A11E6A83E9
:1045A0007B838C839D8381E089838883DF91CF9196
:1045B0000895CF93DF93EC018E819F81A885B98503
:1045C0008A839B83AC83BD830E94A11E6A877B87FD
:1045D0008C879D8781E089838883DF91CF910895BF
:1045E0002F923F924F925F926F927F928F929F9203
:1045F000AF92BF92CF92DF92EF92FF920F931F93F1
:10460000CF93DF93D82FC92F8B010E94193024E656
:1046100030E040E050E00E947E3049015A019B01A9
:10462000AC0160E876E988E990E00E94F2326B0123
:104630007C01F80191828082ED2FFC2F2191822F45
:10464000022E000C990BC0970A97C0F32E3239F551
:104650001F0180E8882E86E9982E88E9A82EB12CC3
:104660009AE0492E512C612C712CF101C1911F014E
:104670000C2E000CDD0BE097CA30D10580F4C5018B
:10468000B401A30192010E947E3049015A01DE016A
:104690000E947630C60ED71EE81EF91EE6CFA5E0B2
:1046A000B0E0A70196010E946B306F5F7F4F8F4F84
:1046B0009F4F23E030E040E050E00E947E30F80160
:1046C00022833383448355831682DF91CF911F91D8
:1046D0000F91FF90EF90DF90CF90BF90AF909F90A1
:1046E0008F907F906F905F904F903F902F900895A4
:1046F000FF920F931F93CF93DF93EC01F8802DE28D
:10470000F21201C02196CE010E9419309B01AC012A
:10471000A4E6B0E00E946B30FE014991242F042EE4
:10472000000C330B205331092A303105A8F34E32E7
:1047300041F52181022E000C330B205331092A3020
:104740003105F8F44AE0429F8001439F100D112487
:10475000012E000C220B330B600F711F821F931F61
:104760000281002E000C110B005311090A301105B3
:1047700040F4012E000C220B330B600F711F821FBF
:10478000931F2DE2F21207C0909580957095619568
:104790007F4F8F4F9F4FDF91CF911F910F91FF90D0
:1047A000089582E00E94491D019779F481E0809389
:1047B000F0078091DD079091DE07A091DF07B091AF
:1047C000E0070197A109B1090DC01092F00780918F
:1047D000DD079091DE07A091DF07B091E007019619
:1047E000A11DB11D8093DD079093DE07A093DF0725
:1047F000B093E00781E08093E10708958F929F9244
:10480000AF92BF92CF92DF92EF92FF920F931F93DE
:104810000E94421E0091EC071091ED072091EE07D7
:104820003091EF07C090E807D090E907E090EA07E1
:10483000F090EB0746015701801A910AA20AB30AC9
:1048400095018401060F171F281F391F0093E807E1
:104850001093E9072093EA073093EB076093EC0786
:104860007093ED078093EE079093EF078091E40734
:104870009091E507A091E607B091E7070196A11D89
:10488000B11D8093E4079093E507A093E607B093EA
:10489000E7071F910F91FF90EF90DF90CF90BF90AF
:1048A000AF909F908F900895EF92FF920F931F9378
:1048B000CF93DF9312E0D1E084ED94E00E94BC132B
:1048C000892B09F496C284ED94E00E949A13C82FB4
:1048D0008091CA069091CB06A091CC06B091CD06EE
:1048E0000196A11DB11D8093CA069093CB06A0939B
:1048F000CC06B093CD06C43209F45AC2E091C40686
:10490000C53234F4CA3071F0CD3009F05EC20AC04D
:10491000CA3241F0CC3209F058C28091B1068C27DE
:104920008093B106EF3008F035C2F0E0ED54F94F56
:1049300010828091B206882309F41CC12091B3062D
:104940003FEB320F822F022E000C990B363010F401
:10495000C79707C02156263018F48755910901C022
:10496000C097282F2295207F3091B4064FEB430F3C
:10497000832F032E000C990B463010F4C79707C005
:104980003156363018F48755910901C0C097820F0F
:104990009091B1068913DAC08091D6069091D7061E
:1049A000A091D806B091D9060196A11DB11D8093A2
:1049B000D6069093D706A093D806B093D9068091D7
:1049C000C506882399F08091CE069091CF06A091DC
:1049D000D006B091D1060196A11DB11D8093CE06DF
:1049E0009093CF06A093D006B093D1060091C20653
:1049F0000023B9F1013009F082C08FE496E00E94F3
:104A0000D9228DE596E00E94D9228091C50688239F
:104A100009F475C087E0EDE3F6E0AFE2B6E001909F
:104A20000D928A95E1F787E0E4E4F6E0A6E3B6E0CC
:104A300001900D928A95E1F70E94A11E60934B06AA
:104A400070934C0680934D0690934E0600932E066D
:104A500000932D068BE696E00E94C22289E796E03D
:104A60004CC08DE596E00E94D9228091C50688232E
:104A700021F187E0EDE3F6E0AFE2B6E001900D92C0
:104A80008A95E1F787E0E4E4F6E0A6E3B6E001907A
:104A90000D928A95E1F70E94A11E60934B067093D8
:104AA0004C0680934D0690934E06D0932E06D093DD
:104AB0002D0687E896E00E94C22280919F06909181
:104AC000A006A091A106B091A20680939B069093A8
:104AD0009C06A0939D06B0939E060E94A11E609323
:104AE0009706709398068093990690939A06D093B0
:104AF0009606D093950683EA96E00E94C222E09043
:104B0000C806F090C906E114F10409F443C1E0912C
:104B1000C806F091C90666A177A1F70186A197A101
:104B20000E944133892B09F035C1B701C701409676
:104B30000E944A330E94A11EF70160A371A382A3C1
:104B400093A3D5A3D4A3E2A4F3A4DDCF8091D2068E
:104B50009091D306A091D406B091D5060196A11DDF
:104B6000B11D8093D2069093D306A093D406B09340
:104B7000D50610C19091C306911145C065E774E058
:104B800083EB96E00E944133892B41F06BE774E0A0
:104B900083EB96E00E944133892B19F4D093C2062F
:104BA00015C061E874E083EB96E00E944133892BE5
:104BB00041F067E874E083EB96E00E944133892B73
:104BC00019F41092C20602C01093C2068091C60664
:104BD0009091C7069093C9068093C806E090C806D6
:104BE000F090C906E114F10409F4D4C063EB76E057
:104BF000F70186A197A10E94413397FFC5C0F70135
:104C000082A593A5E7CFE091C206E23009F491C0F6
:104C10008091B306882309F48CC020E2E29FF00162
:104C20001124E92B3197E932F10508F082C0E359EC
:104C3000FF4F0C94223383EB96E00E94782360931D
:104C4000630670936406809365069093660671C050
:104C500091E0813409F043C043C06DE376E009C0C0
:104C600091E0833509F090E09093430662C064E4DC
:104C700076E083EB96E00E94F0225BC091E08735FE
:104C800009F090E090934A0654C083EB96E00E94AE
:104C900078236093750670937606809377069093D9
:104CA000780647C083EB96E00E94782360938306E2
:104CB0007093840680938506909386063AC083EBB2
:104CC00096E00E94193060935506709356068093C3
:104CD0005706909358062DC091E081330CF490E074
:104CE0009093C50626C083EB96E00E94193060932E
:104CF0009F067093A0068093A1069093A20619C008
:104D000083EB96E00E9478236093AD067093AE0625
:104D10008093AF069093B0060CC083EB96E00E94A0
:104D200078236093910670939206809393069093F4
:104D30009406E090C806F090C906E114F10451F120
:104D4000E091C806F091C90666A177A1F70186A196
:104D500097A10E944133892BE9F4F70120A531A5E1
:104D60008091C30690E082179307A4F028173907B3
:104D700039F440E150E063EB76E0C7010E94513323
:104D8000F701E2A4F3A4D9CF892B21F01092C90630
:104D90001092C8068091C3068F5F8093C30610925D
:104DA000C40681E0CA3209F080E08093B20684CD67
:104DB0001092C4061092C3061092B1061093C20658
:104DC0001092B2061092C50677CDEE3040F481E025
:104DD0008E0F8093C406F0E0ED54F94FC0838091AC
:104DE000B206811169CD8091B106C827C093B10682
:104DF00063CD80916C06882309F45ECDDF91CF915D
:104E00001F910F91FF90EF9008950C945D300C94DA
:104E100055300F931F93CF938C0101960E94072763
:104E2000C82FC8010E9407272C2F30E0A901582B5A
:104E3000CA01CF911F910F9108951F93CF93DF93D4
:104E4000EC01162F672F0E940527612FCE010196D6
:104E5000DF91CF911F910C94052710924001109281
:104E6000E3070C945501CF938091E107882391F1DA
:104E70008091DD079091DE07A091DF07B091E007F8
:104E8000181619061A061B0664F41092DD07109214
:104E9000DE071092DF071092E0071092E10781E031
:104EA00065C08091DD079091DE07A091DF07B0918A
:104EB000E007B7FF0CC01092DD071092DE071092DA
:104EC000DF071092E0071092E10782E04FC01092D6
:104ED000E1074BC084E00E94491DC091F107892B76
:104EE000E9F4CF5FC093F10768EC70E080E090E0F8
:104EF0000E94671EC830C0F11092F1070E94801A0C
:104F000084E10E94411B60E070E080E090E00E943C
:104F10002D1B83E994E00E94841A1DC0CC2329F143
:104F20001092F1070E94801A84E10E94411B60E008
:104F300070E080E090E00E942D1B8DE894E00E94DC
:104F4000841A64EF71E080E090E00E94671E0E9486
:104F5000801A84E00BC084E00E94491D892BD9F39C
:104F60000E94801A88E002C002C080E190E0CF91E8
:104F700008958F929F92AF92BF92CF92DF92EF925D
:104F8000FF928090E8079090E907A090EA07B09020
:104F9000EB076091E4077091E5078091E607909137
:104FA000E7071092E8071092E9071092EA071092BB
:104FB000EB071092E4071092E5071092E6071092B3
:104FC000E7070E94C93120E03BE147EB5AE40E9429
:104FD00080326B017C01C501B4010E94C9319B0183
:104FE000AC01C701B6010E9421316B017C016091C7
:104FF0003D0170E080E090E00E94CB319B01AC016C
:10500000C701B6010E9421310E9493319B01AC017E
:10501000AAE0B0E00E946B30CB01FF90EF90DF90F0
:10502000CF90BF90AF909F908F900895089580E0AB
:1050300090E00895FF920F931F93CF93DF93EC01BD
:1050400061E089890E94721D61E089890E94721D58
:105050008A890E94491D892BD9F360E089890E94C1
:10506000721D60E089890E94721D60E089890E943A
:10507000721D98E0F92E00E010E0000F111F61E0B2
:105080008F850E94721D8A890E94491D892B09F013
:10509000016060E08F850E94721DFA94F110EDCFDF
:1050A00061E089890E94721DC801DF91CF911F9133
:1050B0000F91FF90089504970C941A28CF92DF92D5
:1050C000EF92FF920F931F93CF93DF93EC01E62EA5
:1050D00060E089890E94721D60E089890E94721DCA
:1050E00060E089890E94721DDF84C88807E010E0B3
:1050F000F12CB701002E02C0759567950A94E2F76E
:1051000061708C2D0E94721D61E08D2D0E94721DB8
:1051100060E08D2D0E94721D0150110950F761E071
:1051200089890E94721D81E090E0DF91CF911F91EB
:105130000F91FF90EF90DF90CF9008954F925F9284
:105140006F927F928F929F92AF92BF92CF92DF9297
:10515000EF92FF92CF931092D7041092D60488EE6C
:1051600093E0A0E0B0E08093D8049093D904A0939A
:10517000DA04B093DB042EE531E03093D5042093BC
:10518000D4042DEC30E03093E1042093E0042CECC7
:1051900030E03093E3042093E20428EC30E03093D5
:1051A000E5042093E40429EC30E03093E7042093F5
:1051B000E6042AEC30E03093E9042093E8042EEC76
:1051C00030E03093EB042093EA041092ED04109247
:1051D000EE041092EF041092F004109274051092F5
:1051E00073058093750590937605A0937705B0932A
:1051F000780520E731E030937205209371052FEF99
:105200003FEF30937E0520937D0510923D0710926D
:105210003C0780933E0790933F07A0934007B093CD
:10522000410782E891E090933B0780933A074090D2
:105230001D0150901E0160901F017090200140924E
:105240002A0750922B0760922C0770922D078090AE
:10525000190190901A01A0901B01B0901C0180923E
:10526000260790922707A0922807B0922907C0909E
:105270001501D0901601E0901701F0901801C0922E
:105280002207D0922307E0922407F09225078EEDA3
:1052900096E0909305078093040782EE96E0909342
:1052A0000307809302078AED96E0909307078093A7
:1052B00006071092200710921807109219071092F3
:1052C0001A0710921B0780E090E0AFE7B3E48093E9
:1052D0001C0790931D07A0931E07B0931F0784E639
:1052E00090E0A0E0B0E08093140790931507A0939E
:1052F0001607B093170781E090E09093FF06809324
:10530000FE0620E030E0A901C301B2010E941C3179
:1053100087FD6DC020E030E0A901C501B4010E9405
:105320001C3187FD64C020E030E0A901C701B6014F
:105330000E941C3187FD5BC010920107109200078C
:10534000109221074092E6065092E7066092E80626
:105350007092E9068092EA069092EB06A092EC0623
:10536000B092ED06C092EE06D092EF06E092F00603
:10537000F092F106A301920160E070E0CB010E947F
:10538000AF306093F2067093F3068093F406909327
:10539000F5062DEC3CEC4CEC5DE3C501B4010E943C
:1053A00080329B01AC0160E070E0CB010E94AF3025
:1053B0006093F6067093F7068093F8069093F906CB
:1053C0002DEC3CEC4CEC5DE3C701B6010E942131B1
:1053D0009B01AC0160E070E0CB010E94AF306093B4
:1053E000FA067093FB068093FC069093FD060E94DC
:1053F000A11EC0901407D0901507E0901607F090FA
:105400001707DC01CB018C199D09AE09BF098093F8
:10541000080790930907A0930A07B0930B0710920F
:105420002D0610922E061092300610922F06109222
:105430003106109232061092330610923406109202
:1054400035061092370610923606109238061092E2
:10545000390610923A0610923B0610923C061092C2
:105460003E0610923D0610923F06109240061092A2
:105470004106109242061092430610924506109281
:105480004406109246061092470610924806109263
:10549000490610924A0610924F061092500610923A
:1054A0005106109252061092530610925406109212
:1054B0005D0610925E0610925F06109260061092D2
:1054C00061061092620610926B0610926C061092A2
:1054D0007106109272061092730610927406109262
:1054E000790610927A0610927F061092800610922A
:1054F00081061092820610928706109288061092FA
:105500008D0610928E0610928F06109290061092C1
:1055100095061092960610929B0610929C06109289
:105520009D0610929E061092A3061092A406109259
:10553000A9061092AA061092AB061092AC06109221
:10554000B1061092B20682E08093C2061092C306A2
:105550001092C4061092C5061092C7061092C60695
:105560001092C9061092C8061092CA061092CB0675
:105570001092CC061092CD061092CE061092CF0655
:105580001092D0061092D1061092D2061092D30635
:105590001092D4061092D5061092D6061092D70615
:1055A0001092D8061092D9061092B30610921C06DB
:1055B00010921B0684E991E090931A0680931906D5
:1055C00084EA91E090931E0680931D0688E0809304
:1055D0002806C9E0C09329068AE080932A06109223
:1055E0002B060E94A11D6BE084E597E00E94EE2F40
:1055F0006CE086E497E00E94EE2F84E597E09093BC
:105600000C0680930B061092090610920A0610925F
:105610000506C093060681E080930706809308067E
:10562000109218061092170626E437E03093F8051A
:105630002093F7051092F5051092F6051092F105EA
:10564000C093F2058093F3058093F405109204064D
:10565000109203068091EF059091F0056AE070E0EA
:105660000E940E337093EE056093ED059093EC0568
:105670008093EB058091E5058C30A0F491E0980FC4
:105680009093E5058093E80590E0FC01EE0FFF1F85
:105690008E0F9F1FFC01EF53FA4F88EB9BE0928324
:1056A000818303C08FEF8093E8058091130190916F
:1056B00014019093E7058093E605CF91FF90EF905A
:1056C000DF90CF90BF90AF909F908F907F906F9022
:1056D0005F904F900895789484B5826084BD84B5BE
:1056E000816084BD85B5826085BD85B5816085BDDD
:1056F00080916E00816080936E0010928100809195
:10570000810082608093810080918100816080931C
:105710008100809180008160809380008091910061
:1057200082608093910080919100816080939100CC
:10573000809190008160809390008091C10084608E
:105740008093C1008091C10082608093C1008091EC
:10575000C10081608093C1008091C300816080930B
:10576000C3008091C00082608093C0008091C2001D
:1057700081608093C20080917A00846080937A0077
:1057800080917A00826080937A0080917A008160B3
:1057900080937A0080917A00806880937A001092DA
:1057A000D30410926307109262078091D700816042
:1057B0008093D70080EA8093D80089B5806189BD45
:1057C00089B5826089BD09B400FEFDCF61E070E05B
:1057D00080E090E00E94671E8091D8008F7C8061FD
:1057E0008093D8008091E000807F8093E0008091DA
:1057F000E1008E7E8093E1008DE08093E200559A77
:10580000209A8FEF9FEF90937E0580937D0564E64D
:1058100070E080E090E00E94671EE091E404F09167
:10582000E50482E08083E091E004F091E1041082DD
:10583000E091E204F091E3048FEC80831092EC0499
:10584000E091E804F091E90486E08083E091E604C9
:10585000F091E704808180618083E091E604F0911B
:10586000E704808188608083E091E604F091E7049A
:10587000808180688083E091E604F091E704808174
:105880008F7D808368EB7BE080E090E00E94671E64
:105890000E94A11D0E94801A64E670E080E090E002
:1058A0000E94671E8EE10E94411B61E070E080E073
:1058B00090E00E942D1B86EE91E00E94841A64E61F
:1058C00070E080E090E00E94671E81ED93E00E940E
:1058D000841A62E070E080E090E00E942D1B83EE6D
:1058E00091E00E94841A64E670E080E090E00E94FB
:1058F000671E8CED93E00E94841A63E070E080E004
:1059000090E00E942D1B82EE93E00E94841A66EFC5
:1059100078E280EA91E40E94EA1A68EB7BE080E09A
:1059200090E00E94671E0E94801A64EF71E080E0A0
:1059300090E00E94671E88EC90E00E94072781306B
:1059400009F461C08EE10E94411B62E070E080E0DA
:1059500090E00E942D1B8DEE93E00E94841A60ED72
:1059600077E080E090E00E94671E66E08BE090E0C8
:105970000E94052761E082E190E00E9405276CE02B
:1059800083E190E00E94052763EC84E190E00E94AF
:1059900005276FE585E190E00E94052760E086E13C
:1059A00090E00E94052768E087E190E00E940527CB
:1059B00060E088E190E00E94052760E089E190E0E6
:1059C0000E94052761E08DE190E00E9405276AE0D2
:1059D0008EE190E00E94052761E08FE190E00E9457
:1059E00005276EE181E290E00E94052761E088ECE6
:1059F00090E00E9405270E94801A64EF71E080E029
:105A000090E00E94671E89EC90E00E940727813099
:105A100009F45CC08EE10E94411B62E070E080E00E
:105A200090E00E942D1B8FEF93E00E94841A68E89B
:105A300073E180E090E00E94671E60E08CE090E0FF
:105A40000E94052762E38DE090E00E94052760E058
:105A50008EE090E00E94052769E18FE090E00E94CF
:105A6000052760E080E190E00E94052765E081E184
:105A700090E00E94052760E082E390E00E94052705
:105A80006EE183E390E00E94052760E084E390E00C
:105A90000E94052769E185E390E00E94052760E008
:105AA00086E390E00E94052765E087E390E00E948E
:105AB000052763E089EC90E00E9405270E94801A88
:105AC00064EF71E080E090E00E94671E8EE10E942A
:105AD000411B61E070E080E090E00E942D1B80E1BE
