:100000000C941B010C9403150C94DC140C94B51483
:100010000C948E140C9443010C9443010C946714BB
:100020000C9443010C9443010C94061D0C94781D10
:100030000C9443010C9443010C9443010C94430130
:100040000C9443010C94D8160C9443010C94430176
:100050000C9443010C9443010C9443010C941D1423
:100060000C9443010C94E91A0C94C31A0C944301A8
:100070000C9443010C9443010C9443010C944301F0
:100080000C9443010C9443010C9443010C944301E0
:100090000C94AA150C9443010C9443010C94430155
:1000A0000C9443010C9443010C9443013D023B0327
:1000B0003C04C7042D05A105AC07EE0741089408D0
:1000C000E7085609410A570BDA10EC10EF10F6104A
:1000D000FD102B1132113F114C11581158115811AC
:1000E00058115811581158115811581158115811C8
:1000F00058115811581158115811581158115811B8
:100100005811581158115811DA10E710EC10EF106F
:10011000F610FD10041111111E11EE11F111E01174
:10012000E411EA11121212121212F511F911FD1155
:100130000312071212120D12000000002400270003
:100140002A002D00300000000000250028002B00B0
:100150002E003100000000002300260029002C00A2
:100160002F00040404040403040502020202040331
:100170000202020206060606060604040202020441
:100180000404080201104080401020408040800894
:100190000204018040201002011080102040402005
:1001A0000000000200090F0000030401000C000021
:1001B0000000000000000000000000000000000837
:1001C0000B0002020201000904000001020200000B
:1001D0000524001001052401010104240206052460
:1001E0000600010705810310004009040100020A0E
:1001F00000000007050202400000070583024000DE
:10020000000403090412010002EF020140412336F9
:100210008000010102030141726475696E6F204C18
:100220004C430041726475696E6F204C656F6E615E
:1002300072646F00942011241FBECFEFDAE0DEBF9E
:10024000CDBF15E0A0E0B1E0ECE7F4E502C0059019
:100250000D92AE34B107D9F728E0AEE4B5E001C0A5
:100260001D92A637B207E1F711E0CBE1D1E004C05F
:100270002197FE010E94FE29CA31D107C9F70E94C9
:100280004B230C943C2A0C9400002F923F924F92E7
:100290005F926F927F928F929F92AF92BF92CF9216
:1002A000DF92EF92FF920F931F93CF93DF93CDB71F
:1002B000DEB7A0970FB6F894DEBF0FBECDBF80911A
:1002C0005605882339F060E08DE00E946B13109290
:1002D000560507C061E08DE00E946B1381E08093BA
:1002E000560500915A0810915B0884EA91E00E943B
:1002F000330DC80199270E944B0E0E9493180E944B
:10030000410D64E670E080E090E00E94D713809198
:100310007606882321F11092770660917C06709111
:100320007D0680917E0690917F060E94A7282EEB85
:100330003CE443E95FE30E945C2920E030E048ECC4
:1003400052E40E94FD2720E030E048EC52E40E9495
:100350005C290E946F2870935E0860935D0880910D
:1003600084068823C1F01092850660918A067091F8
:100370008B0680918C0690918D060E94A72820E024
:1003800030E048EC52E40E94FD270E946F287093F1
:100390005505609354050E94931884E00E9415133C
:1003A000892BD9F38EE1E1E3F1E0DE0111960190B2
:1003B0000D928A95E1F7C12CFE013196EC0DF11DED
:1003C000EC0DF11D808191818D53954011F0C39406
:1003D000F3CFCA940E94410D81E08093090112E09D
:1003E000F12CD12C4C2D50E058A34F8F44E6842E95
:1003F000912CA12CB12C0E944B1982309105D1F087
:1004000024F4019769F00C94420C8430910541F179
:10041000089711F00C94420C0E94CD180C94420CD9
:10042000F1100C94450CDD2011F40C94740CDA944A
:100430000C94790C8D2D90E005962F8D38A18217A4
:1004400093072CF435E0F31202C0D39412E08F2D01
:1004500090E0059714F00C94420CF3940C94460C25
:10046000EF2DF0E0ED0DF11DEE30F10510F00C94E4
:10047000420CEA5AFF4F0C94FE298091150190918D
:10048000160190931A06809319060E94410D8AE086
:100490000E94800E60E070E080E090E00E946C0EB0
:1004A00087EA91E00E94450D61E070E080E090E015
:1004B0000E946C0E85EB91E00E94450D62E070E0B9
:1004C00080E090E00E946C0E89EC91E00E94450D66
:1004D00064E070E080E090E00E946C0E8FED91E0AF
:1004E0000E94450D80915C08882329F080910201CB
:1004F0009091030104C080911501909116010E9412
:100500006B0D8BE892E00E94450D80911906909149
:100510001A060E94990E0E944B198230910519F11A
:100520001CF4019751F0F1CF8430910509F46BC0B0
:10053000089759F70E94CD18E8CF20915C08809168
:100540001501909116012223E9F0209102013091CA
:100550000301281739071CF5265F3F4F309303012D
:100560002093020121C020915C08809102019091AA
:100570000301211114C02091150130911601821739
:10058000930734F00A9690931601809315010CC0DE
:100590002A503109309316012093150105C00A979E
:1005A000909303018093020164E070E080E090E0AA
:1005B0000E946C0E8FED91E00E94450D80915C08C9
:1005C000882329F0809102019091030104C0809159
:1005D0001501909116010E946B0D8BE892E00E942C
:1005E000450D80915C08882329F08091020190914B
:1005F000030104C0809115019091160190931A0691
:100600008093190682CF6091150170911601072E13
:10061000000C880B990B0E94A7282B013C016091CC
:10062000020170910301072E000C880B990B0E94A8
:10063000A728AB01BC01930182018DEE96E00E94D8
:100640002A1580915C08882359F0809102019091CD
:1006500003016AE070E00E94EA2985E190E023C688
:1006600080911501909116016AE070E00E94EA29DC
:1006700084E190E018C6809102019091030190936B
:100680001A06809319060E94410D8AE00E94800E8E
:1006900060E070E080E090E00E946C0E8AEE91E0F5
:1006A0000E94450D61E070E080E090E00E946C0ED9
:1006B00088EF91E00E94450D62E070E080E090E0FC
:1006C0000E946C0E8BE092E00E94450D64E070E0A9
:1006D00080E090E00E946C0E8FED91E00E94450D4D
:1006E00080915C08882329F0809115019091160172
:1006F00004C080910201909103010E946B0D8BE870
:1007000092E00E94450D8091190690911A060E9470
:10071000990E0E944B198230910519F11CF4019732
:1007200051F0F1CF8430910509F46BC0089759F767
:100730000E94CD18E8CF20915C088091150190911E
:10074000160121111DC020910201309103012817CB
:1007500039071CF5265F3F4F3093030120930201B8
:1007600021C020915C088091020190910301222315
:10077000A1F020911501309116018217930734F0F2
:100780000A9690931601809315010CC02A503109E6
:10079000309316012093150105C00A979093030129
:1007A0008093020164E070E080E090E00E946C0EB3
:1007B0008FED91E00E94450D80915C08882329F01F
:1007C000809115019091160104C0809102019091D1
:1007D00003010E946B0D8BE892E00E94450D809111
:1007E0005C08882329F0809115019091160104C0BE
:1007F000809102019091030190931A06809319064B
:1008000082CF80915C08882359F0809115019091E6
:1008100016016AE070E00E94EA2984E190E00AC0D3
:1008200080910201909103016AE070E00E94EA2940
:1008300085E190E00E94A518609115017091160164
:10084000072E000C880B990B0E94A7282B013C0156
:100850006091020170910301072E000C880B990B27
:100860000E94A728AB01BC01930182018DEE96E0A6
:100870000E942A150C94790C809102019091030139
:1008800090931A06809319060E94410D8AE00E94F7
:10089000800E60E070E080E090E00E946C0E80E2EC
:1008A00092E00E94450D0FEF1FEF3AE0E32E61E06A
:1008B00070E080E090E00E946C0E82E392E00E9483
:1008C000450D20915C088091190690911A0622230B
:1008D00071F0409102015091030120911501309176
:1008E0001601240F351FA901481B590BCA010E948C
:1008F0006B0D84E392E00E94450D64E670E080E0B9
:1009000090E00E94D7136091190670911A06E09149
:100910000201F0910301E617F70734F081E090E05F
:1009200090930101809300014091150150911601AF
:100930006417750724F01093010100930001809162
:10094000000190910101E89E9001E99E300D112473
:10095000260F371F30931A062093190680915C08E2
:10096000882331F0CF01840F951F821B930B01C0A8
:10097000C9010E94990E0E944B198430910509F417
:10098000B8C7089709F093CF0E94CD1890CF0E9466
:10099000410D8AE00E94800E60E070E080E090E00F
:1009A0000E946C0E8BE392E00E94450D61E070E0C6
:1009B00080E090E00E946C0E80915C08882321F01A
:1009C00086E492E00E94450D80915C08811104C08C
:1009D00083E592E00E94450D11E00E944B198230A0
:1009E000910501F11CF4019749F0F7CF843091058E
:1009F00051F1089791F70E94CD18EFCF61E070E0B8
:100A000080E090E00E946C0E80915C08882319F0D1
:100A10008FE592E013C086E492E00E94450D1093AA
:100A20005C08DBCF61E070E080E090E00E946C0E3B
:100A300080915C08882379F383E592E00E94450D5C
:100A400010925C08CACF80915C08882311F061E0A5
:100A500001C060E08FE190E026C40E94410D8AE071
:100A60000E94800E60E070E080E090E00E946C0EDA
:100A70008DE692E00E94450D61E070E080E090E03C
:100A80000E946C0E809122010E94580D14E008E033
:100A90000E944B198230910539F11CF4019751F0F5
:100AA000F7CF8430910509F447C0089789F70E9471
:100AB000CD18EECF61E070E080E090E00E946C0E17
:100AC00080912201883010F48E5F19C000932201BA
:100AD00088E00E94580D62E070E080E090E00E94A3
:100AE0006C0E80E992E025C061E070E080E090E06B
:100AF0000E946C0E80912201853070F082508093AC
:100B000022010E94580D62E070E080E090E00E94B7
:100B10006C0E8FE792E00DC01093220184E00E94DA
:100B2000580D62E070E080E090E00E946C0E8EE96B
:100B300092E00E94450DACCF609122018BE090E0E5
:100B4000B2C387E595E00E940B1A0E94D10E109265
:100B5000690640906A0650906B0660906C06709033
:100B60006D06C301B20120E432E44FE050E00E9480
:100B70005A278091170190911801820F911D0C97AF
:100B80009093530580935205C301B20120E137E2EF
:100B900040E050E00E945A27CA01B901A501940122
:100BA0000E945A277093510560935005C301B2010A
:100BB000A50194010E945A27CA01B901A501940117
:100BC0000E945A2770934F0560934E050E94410D75
:100BD0008AE00E94800E60E070E080E090E00E9479
:100BE0006C0E8CEA92E00E94450D61E070E080E0BE
:100BF00090E00E946C0E80915205909153050E94E6
:100C00006B0D8EEB92E00E94450D80915005909106
:100C100051050A9724F480EC92E00E94450D8091E2
:100C20005005909151050E946B0D8EEB92E00E9451
:100C3000450D80914E0590914F050A9724F480EC64
:100C400092E00E94450D80914E0590914F050E94C3
:100C50006B0D8CE892E00E94450D63E070E080E04F
:100C600090E00E946C0E80911701909118010C97F2
:100C70000E946B0D8CE892E00E94450D87E595E09F
:100C80000E940B1A0E94D10E1092690640906A06CB
:100C900050906B0660906C0670906D06C301B201B7
:100CA00020E432E44FE050E00E945A27809117017F
:100CB00090911801820F911D0C979093530580938A
:100CC0005205C301B20120E137E240E050E00E944A
:100CD0005A27CA01B901A50194010E945A277093AD
:100CE000510560935005C301B201A50194010E9412
:100CF0005A27CA01B901A50194010E945A2770938D
:100D00004F0560934E0561E070E080E090E00E9446
:100D10006C0E62E370E080E090E00E94D7130E94C6
:100D20004B198230910509F468C01CF4019759F001
:100D3000C0C08430910509F4B4C0089709F0B9C067
:100D40000E94CD18B6C0809117019091180188318A
:100D5000910514F4019602C088E190E09093180187
:100D6000809317011092690620906A0630906B06F6
:100D700040906C0650906D06C201B10120E432E44F
:100D80004FE050E00E945A276090170170901801C0
:100D9000620E711C83010C501109109353050093CE
:100DA0005205C201B10120E137E240E050E00E946B
:100DB0005A27CA01B901A50194010E945A277093CC
:100DC000510560935005C201B101A50194010E9433
:100DD0005A27CA01B901A50194010E945A277093AC
:100DE0004F0560934E0517FF3EC09CE0690E711CD5
:100DF000709253056092520536C080911701909110
:100E000018011816190634F401979093180180936D
:100E1000170104C010921801109217011092690670
:100E200060916A0670916B0680916C0690916D06D8
:100E300020E432E44FE050E00E945A2780911701ED
:100E400090911801820F911D9C012C50310937FDA2
:100E500005C0309353052093520505C00C9690931E
:100E60005305809352058091520590915305893125
:100E700091052CF04897909353058093520563E0B9
:100E800070E080E090E00E946C0E809117019091DC
:100E900018010C970E946B0D8CE892E00E94450DA2
:100EA00008C06091170183E190E00E94A51810E04E
:100EB00001C011E0809152059091530597FF05C044
:100EC00048969093530580935205809152059091D6
:100ED0005305893191052CF04897909353058093E1
:100EE000520561E070E080E090E00E946C0E80911D
:100EF0005205909153050E946B0D8EEB92E00E947B
:100F0000450D80915005909151050A9724F480EC8D
:100F100092E00E94450D80915005909151050E94EC
:100F20006B0D8EEB92E00E94450D80914E059091E5
:100F30004F050A9724F480EC92E00E94450D8091C1
:100F40004E0590914F050E946B0D8CE892E00E9437
:100F5000450D111193CECDC40E94410D8AE00E942F
:100F6000800E60E070E080E090E00E946C0E82EC09
:100F700092E00E94450D61E070E080E090E00E9408
:100F80006C0E0E94D6180E944B198230910589F090
:100F900044F40197C1F780912301909124010A96AE
:100FA0000DC08430910579F0089769F70E94CD183B
:100FB000EACF80912301909124010A979093240114
:100FC00080932301D8CF809123019091240164E67E
:100FD00070E00E94EA298EE190E065C10E94410D17
:100FE0008AE00E94800E60E070E080E090E00E9465
:100FF0006C0E87ED92E00E94450D61E070E080E0AC
:1010000090E00E946C0E80911901882319F087EE00
:1010100092E002C08CEE92E00E94450D11E00E9429
:101020004B198230910561F01CF4019749F0F7CF1C
:1010300084309105E1F0089791F70E94CD18EFCF29
:101040008091190181278093190161E070E080E0AF
:1010500090E00E946C0E80911901882319F087EEB0
:1010600092E002C08CEE92E00E94450DD8CF8091B4
:101070001901882311F061E001C060E082E190E095
:1010800012C10E94410D8AE00E94800E60E070E073
:1010900080E090E00E946C0E81EF92E00E94450D8E
:1010A00061E070E080E090E00E946C0E809114019D
:1010B000882319F084E093E002C081E193E00E946C
:1010C000450D11E00E944B198230910561F01CF42E
:1010D000019749F0F7CF84309105E1F0089791F737
:1010E0000E94CD18EFCF80911401812780931401C5
:1010F00061E070E080E090E00E946C0E809114014D
:10110000882319F08CE193E002C081E193E00E9412
:10111000450DD8CF80911401882311F061E001C002
:1011200060E08DE190E0BFC00E94410D8AE00E9426
:10113000800E60E070E080E090E00E946C0E88E23B
:1011400093E00E94450D61E070E080E090E00E9435
:101150006C0E80915F08882319F087E393E002C04A
:1011600084E493E00E94450D11E00E944B19823007
:10117000910561F01CF4019749F0F7CF8430910597
:10118000E1F0089791F70E94CD18EFCF80915F08AA
:10119000812780935F0861E070E080E090E00E942A
:1011A0006C0E80915F08882319F08CE493E002C0F4
:1011B00084E493E00E94450DD8CF80915F08882396
:1011C00011F061E001C060E080E290E06CC00E943C
:1011D000410D8AE00E94800E60E070E080E090E0C7
:1011E0000E946C0E88E593E00E94450D61E070E07E
:1011F00080E090E00E946C0E84E693E00E94450D32
:1012000064E070E080E090E00E946C0E87E793E07D
:101210000E94450D80915A0890915B080E946B0DC9
:1012200000915A0810915B0884EA91E00E94330D06
:10123000C80199270E944B0E0E944B1982309105DC
:10124000E1F01CF4019749F0EBCF8430910539F1BE
:10125000089731F70E94CD18E3CF80915A089091FA
:101260005B088F3391053CF02FE330E030935B084F
:1012700020935A08C5CF01960DC080915A089091CD
:101280005B08181619062CF010925B0810925A0889
:10129000B7CF019790935B0880935A08B1CF6091C4
:1012A0005A0881E290E00E94A51823C30E94410DD4
:1012B0008AE00E94800E60E070E080E090E00E9492
:1012C0006C0E82E893E00E94450D61E070E080E0E2
:1012D00090E00E946C0E84E993E00E94450D63E06B
:1012E00070E080E090E00E946C0E87EA93E00E943C
:1012F000450D609104017091050180910601909166
:1013000007010E94940D20E030E048EC52E4609127
:1013100004017091050180910601909107010E94DE
:101320005C290E946F288B010E944B198230910525
:1013300009F445C01CF4019751F0F6CF84309105B3
:1013400009F49BC0089781F70E94CD18EDCF63E0A8
:1013500070E080E090E00E946C0E87EA93E00E94CB
:10136000450D20E030E048EC52E4609104017091BA
:10137000050180910601909107010E945C292B01D3
:101380003C0120E030E048EC52E40E94572987FD00
:101390000DC080E090E0A8ECB2E48093040190934B
:1013A0000501A0930601B093070143C020E030E09F
:1013B00040E85FE3C301B2010E948C2732C063E0C2
:1013C00070E080E090E00E946C0E87EA93E00E945B
:1013D000450D20E030E048EC52E46091040170914A
:1013E000050180910601909107010E945C292B0163
:1013F0003C0120E030E0A9010E94F82718164CF0CB
:10140000109204011092050110920601109207013A
:1014100010C020E030E040E85FE3C301B2010E9469
:101420008B276093040170930501809306019093CC
:1014300007014090040150900501609006017090F2
:101440000701C301B2010E946F288B0120E030E048
:1014500048EC52E4C301B2010E94FD2760930401ED
:101460007093050180930601909307010E94940DEB
:101470008DE892E00E94450D57CFB8018CE090E0D6
:1014800013C10E94410D8AE00E94800E60E070E06E
:1014900080E090E00E946C0E8EEA93E00E94450D81
:1014A00061E070E080E090E00E946C0E8CEB93E0D5
:1014B0000E94450D63E070E080E090E00E946C0EB9
:1014C0008AEC93E00E94450D60911E0170911F010E
:1014D00080912001909121010E94940D20E030E044
:1014E00048EC52E460911E0170911F01809120012F
:1014F000909121010E945C290E946F288B010E941B
:101500004B198230910509F46EC01CF4019751F01B
:10151000F6CF8430910509F4C4C0089781F70E9482
:10152000CD18EDCF63E070E080E090E00E946C0E9B
:101530008AEC93E00E94450D20E030E048EC52E454
:1015400060911E0170911F018091200190912101F5
:101550000E945C292B013C0120E030E048EC52E481
:101560000E94572987FD0DC080E090E0A8ECB2E40E
:1015700080931E0190931F01A0932001B09321013D
:1015800010C020E030E040E85FE3C301B2010E94F8
:101590008C2760931E0170931F018093200190930C
:1015A000210140901E0150901F0160902001709019
:1015B0002101C301B2010E946F288B0120E030E0BD
:1015C00048EC52E4C301B2010E94FD2760931E0162
:1015D00070931F0180932001909321010E94940D2C
:1015E0008CE892E05BC063E070E080E090E00E94F5
:1015F0006C0E8AEC93E00E94450D20E030E048EC50
:1016000052E460911E0170911F0180912001909120
:1016100021010E945C292B013C0120E030E0A9015E
:101620000E94F82718164CF010921E0110921F010C
:10163000109220011092210110C020E030E040E81B
:101640005FE3C301B2010E948B2760931E01709378
:101650001F01809320019093210140901E01509022
:101660001F016090200170902101C301B2010E940E
:101670006F288B0120E030E048EC52E4C301B20156
:101680000E94FD2760931E0170931F01809320012B
:10169000909321010E94940D8AE892E00E94450DEA
:1016A0002ECFB8018EE090E00E94BD1822C10E94AA
:1016B000410D8AE00E94800E60E070E080E090E0E2
:1016C0000E946C0E82ED93E00E94450D61E070E097
:1016D00080E090E00E946C0E82EE93E00E94450D47
:1016E00063E070E080E090E00E946C0E87EA93E097
:1016F0000E94450D60911A0170911B0180911C019F
:1017000090911D010E94940D20E030E048EC52E4DD
:1017100060911A0170911B0180911C0190911D0133
:101720000E945C290E946F288B010E944B19823015
:10173000910509F445C01CF4019751F0F6CF8430AF
:10174000910509F49BC0089781F70E94CD18EDCF51
:1017500063E070E080E090E00E946C0E87EA93E026
:101760000E94450D20E030E048EC52E460911A01FF
:1017700070911B0180911C0190911D010E945C29B8
:101780002B013C0120E030E048EC52E40E94572954
:1017900087FD0DC080E090E0A8ECB2E480931A01D0
:1017A00090931B01A0931C01B0931D0143C020E046
:1017B00030E040E85FE3C301B2010E948C2732C0F1
:1017C00063E070E080E090E00E946C0E87EA93E0B6
:1017D0000E94450D20E030E048EC52E460911A018F
:1017E00070911B0180911C0190911D010E945C2948
:1017F0002B013C0120E030E0A9010E94F8271816D7
:101800004CF010921A0110921B0110921C011092C0
:101810001D0110C020E030E040E85FE3C301B201E9
:101820000E948B2760931A0170931B0180931C0107
:1018300090931D0140901A0150901B0160901C0173
:1018400070901D01C301B2010E946F288B0120E03E
:1018500030E048EC52E4C301B2010E94FD276093DE
:101860001A0170931B0180931C0190931D010E942B
:10187000940D8DE892E00E94450D57CFB80180E1AC
:1018800090E012CF113091F501C0FA94CF1408F412
:10189000FC2C00E010E08AE00E94800EB80180E09D
:1018A00090E00E946C0E8EE892E00E94450DB80117
:1018B00080E090E00E946C0E8EE892E00E94450D60
:1018C0000F5F1F4F0630110531F78AE00E94800E2E
:1018D0006F2D70E080E090E00E946C0E80EF93E04E
:1018E0000E94450D10E053C0113099F2123009F0FA
:1018F0004EC00E94410D35E03C1528F50D2D10E03D
:10190000000F111F612C712C8AE00E94800EB30120
:1019100081E090E00E946C0EF301EE0FFF1FE00FDC
:10192000F11F41E050E04C0F5D1FE40FF51F808177
:1019300091810E94450D5FEF651A750A86E0681671
:10194000710411F723C0E12C0D2D10E06E2C712CC9
:101950004F8D58A146155705CCF08AE00E94800EA5
:10196000B30181E090E00E946C0EF801E60DF71DD6
:10197000EE0FFF1F21E030E02C0F3D1FE20FF31FA1
:10198000808191810E94450DE394E0CF11E0809128
:10199000090181110C94FB01A0960FB6F894DEBFEB
:1019A0000FBECDBFDF91CF911F910F91FF90EF90B0
:1019B000DF90CF90BF90AF909F908F907F906F906F
:1019C0005F904F903F902F900895E0912406F09102
:1019D00025060190F081E02D682F84E296E00994BD
:1019E0008F929F92AF92BF920F931F93CF93DF93EB
:1019F000CDB7DEB7A1970FB6F894DEBF0FBECDBF4F
:101A000019A2423008F44AE08E010F5D1F4F842E68
:101A1000912CA12CB12CA50194010E945A27E62FEC
:101A2000B901CA0101501109EA3014F4E05D01C0A6
:101A3000E95CD801EC93232B242B252B61F7B8010B
:101A400084E296E00E94AE1AA1960FB6F894DEBF2B
:101A50000FBECDBFDF91CF911F910F91BF90AF907F
:101A60009F908F900895CF93DF93EC016991662347
:101A700029F084E296E00E94F21FF8CFDF91CF9127
:101A800008958AE594E00C94330DCF93DF93EC0135
:101A90008DE594E00E94330DBE0184E296E00E9441
:101AA000AE1A60E084E296E0DF91CF910C94F21FD1
:101AB000CF93C82F8DE594E00E94330D6C2F70E01A
:101AC00080E090E04AE00E94F00C60E084E296E062
:101AD000CF910C94F21FCF92DF92EF92FF926C01A4
:101AE0008DE594E00E94330D0D2C000CEE08FF08EC
:101AF000F7FE0CC08DE20E94E50C66277727CB012C
:101B00006C197D098E099F094AE003C04AE0C701AC
:101B1000B6010E94F00C60E084E296E0FF90EF9046
:101B2000DF90CF900C94F21F8F929F92AF92BF9252
:101B3000CF92DF92EF92FF926B017C018DE594E0F2
:101B40000E94330DA7019601C701B6010E94C92961
:101B5000882319F060E674E01AC046015701E89442
:101B6000B7F82FEF3FEF4FE75FE7C501B4010E94E1
:101B7000C929811111C02FEF3FEF4FE75FE7C50182
:101B8000B4010E94F82718163CF464E674E084E27D
:101B900096E00E94AE1A72C02FEF3FEF4FE75FE46E
:101BA000C701B6010E94572918161CF468E674E0B4
:101BB000EECF2FEF3FEF4FE75FECC701B6010E947A
:101BC000F82787FDF3CF20E030E0A901C701B60177
:101BD0000E94F82787FF07C08DE20E94E50CF7FA04
:101BE000F094F7F8F0942AE037ED43EA5BE3C7019D
:101BF000B6010E948C274B015C010E9476286B0184
:101C00007C010E94A5289B01AC01C501B4010E9482
:101C10008B274B015C014AE0C701B6010E94F00C22
:101C20008EE20E94E50C20E030E040E251E4C50184
:101C3000B4010E945C294B015C010E9476286B0173
:101C4000E12CF12C4AE0C701B6010E94F00CC7015B
:101C5000B6010E94A5289B01AC01C501B4010E94F8
:101C60008B2720E030E040E251E40E945C290E9492
:101C7000762880E090E04AE00E94F00C60E084E288
:101C800096E0FF90EF90DF90CF90BF90AF909F9045
:101C90008F900C94F21FCF93DF93EC01E091240618
:101CA000F09125060190F081E02D8F3F910510F411
:101CB000682F0DC06FEF84E296E00995E09124064D
:101CC000F09125066C2F6F5F0190F081E02D84E28A
:101CD00096E0DF91CF9109940F931F93CF93DF93F9
:101CE0008C01EB018CE694E00E94330DC8010E9448
:101CF0004B0ECE01DF91CF911F910F910C944B0EA3
:101D0000CF93DF931F92CDB7DEB7682F8FE694E0B5
:101D100069830E94330DE0912406F091250601901D
:101D2000F081E02D698184E296E00F90DF91CF9100
:101D30000994AC0190911B069C3090F580911C0693
:101D400028E830E0281B310987FD3395220F331F27
:101D5000220F331F4217530784F080911D0628E598
:101D600032E0281B310987FD3395220F331F220FE4
:101D7000331F421753070CF49A0122503109220FE6
:101D8000331F4FB7F894892F90E0FC01EE0FFF1F2F
:101D90008E0F9F1FFC01EC50FA4F328321834FBFFF
:101DA0000895EF92FF920F931F93CF93DF9340918B
:101DB000D5065091D6066091D7067091D8064F5F30
:101DC0005F4F6F4F7F4F4093D5065093D606609379
:101DD000D7067093D806843209F4A4C2E091CF06E6
:101DE000853234F48A3071F08D3009F0A9C20AC00E
:101DF0008A3241F08C3209F0A3C29091BC06982738
:101E00009093BC06082FEF3008F074C1F0E0E25464
:101E1000F94F10828091BD06882309F46DC120918D
:101E2000BE063FEB320F822F022E000C990B36308C
:101E300010F4C79707C02156263018F4875591092A
:101E400001C0C097282F2295207F3091BF064FEB0D
:101E5000430F832F032E000C990B463010F4C797C5
:101E600007C03156363018F48755910901C0C09724
:101E7000820F9091BC0689132AC18091E10690914E
:101E8000E206A091E306B091E4060196A11DB11D02
:101E90008093E1069093E206A093E306B093E406F4
:101EA0008091D006882399F08091D9069091DA0626
:101EB000A091DB06B091DC060196A11DB11D8093B7
:101EC000D9069093DA06A093DB06B093DC06109156
:101ED000CD06112309F46BC0113009F0D2C08091F6
:101EE000600690916106A0916206B09163068093AE
:101EF0005C0690935D06A0935E06B0935F060E9419
:101F0000111460936406709365068093660690933F
:101F1000670610935B0610935A0680916E069091A7
:101F20006F06A0917006B091710680936A06909337
:101F30006B06A0936C06B0936D060E94111460931B
:101F400072067093730680937406909375061093CF
:101F50006906109368068091D006882309F491C021
:101F600087E0E8E4F6E0AAE3B6E001900D928A95F6
:101F7000E1F787E0EFE4F6E0A1E4B6E001900D922E
:101F80008A95E1F70E9411146093560670935706E4
:101F9000809358069093590610933906109338068B
:101FA00086E796E00E94991784E896E068C08091E1
:101FB0006E0690916F06A0917006B09171068093A5
:101FC0006A0690936B06A0936C06B0936D060E9410
:101FD0001114609372067093730680937406909345
:101FE000750611E010936906109368068091D0067B
:101FF000882321F187E0E8E4F6E0AAE3B6E0019067
:102000000D928A95E1F787E0EFE4F6E0A1E4B6E00F
:1020100001900D928A95E1F70E9411146093560683
:10202000709357068093580690935906109339067B
:102030001093380682E996E00E9499178091AA06CB
:102040009091AB06A091AC06B091AD068093A60628
:102050009093A706A093A806B093A9060E94111416
:102060006093A2067093A3068093A4069093A5069E
:1020700081E08093A1068093A0068EEA96E00E94FC
:102080009917C091D306D091D40611E0209709F496
:102090003AC1E091D306F091D40666A177A18EA152
:1020A0009FA10E941D2A892B09F02DC1BE01CE01DE
:1020B00040960E94262A0E94111468A379A38AA33D
:1020C0009BA31DA31CA30AA4DBA5C02DDFCF809179
:1020D000DD069091DE06A091DF06B091E006019644
:1020E000A11DB11D8093DD069093DE06A093DF064F
:1020F000B093E00690E008C19091CE06911142C0E5
:1021000062E774E08EEB96E00E941D2A892B41F075
:1021100068E774E08EEB96E00E941D2A892B11F48B
:1021200081E014C06EE774E08EEB96E00E941D2AF9
:10213000892B41F064E874E08EEB96E00E941D2A42
:10214000892B19F41092CD0603C082E08093CD064E
:102150008091D1069091D2069093D4068093D306B5
:10216000C091D306D091D406209721F2EEA0FFA013
:102170006EEB76E0C7010E941D2A97FFF7C08AA583
:102180009BA5EACFE091CD06E23009F491C08091A1
:10219000BE06882309F48CC020E2E29FF0011124DE
:1021A000E92B3197E932F10508F082C0EC59FF4F75
:1021B0000C94FE298EEB96E00E94381860936E0610
:1021C00070936F06809370069093710671C091E0D2
:1021D000813409F043C043C068E476E009C091E06F
:1021E000833509F090E090934E0662C06FE476E08C
:1021F0008EEB96E00E94B0175BC091E0873509F046
:1022000090E09093550654C08EEB96E00E943818EB
:102210006093800670938106809382069093830674
:1022200047C08EEB96E00E94381860938E0670933C
:102230008F0680939006909391063AC08EEB96E0BD
:102240000E94F52660936006709361068093620693
:10225000909363062DC091E081330CF490E090934D
:10226000D00626C08EEB96E00E94F5266093AA0663
:102270007093AB068093AC069093AD0619C08EEBBD
:1022800096E00E9438186093B8067093B906809360
:10229000BA069093BB060CC08EEB96E00E943818ED
:1022A00060939C0670939D0680939E0690939F0674
:1022B000C091D306D091D406209709F41BCFE091AA
:1022C000D306F091D40666A177A18EA19FA10E94AA
:1022D0001D2A892B09F00ECF28A539A58091CE069D
:1022E00090E0821793070CF405CF2817390739F4CB
:1022F00040E150E06EEB76E0CE010E942D2A0AA468
:10230000DBA5C02DD9CF91E08091CE068F5F809361
:10231000CE061092CF0681E00A3209F080E0809369
:10232000BD0632C01092CF061092CE061092BC06A7
:1023300082E08093CD061092BD061092D00614C0A4
:10234000EE3040F491E09E0F9093CF06F0E0E2541F
:10235000F94F80839091BD06911106C02091BC0673
:1023600082278093BC0610C090E00EC06EEB76E032
:10237000C7010E941D2A181619060CF0BBCE109238
:10238000D4061092D306B6CE892FDF91CF911F913C
:102390000F91FF90EF90089580E090E0892B29F055
:1023A0000E94391A81110C940000089590E0FC01FC
:1023B0003197EF30F105B0F5E357FF4F0C94FE294C
:1023C000809180008F7703C0809180008F7D809303
:1023D0008000089580918000877FF9CF84B58F7742
:1023E00002C084B58F7D84BD0895809190008F7761
:1023F00007C0809190008F7D03C080919000877FFF
:102400008093900008958091C0008F7703C08091E1
:10241000C0008F7D8093C00008958091C200877FA7
:102420008093C20008953FB7F89480915608909128
:102430005708A0915808B091590826B5A89B05C027
:102440002F3F19F00196A11DB11D3FBFBA2FA92F33
:10245000982F8827820F911DA11DB11DBC01CD01B0
:1024600042E0660F771F881F991F4A95D1F708959C
:10247000089585ED8093BC008091BC0084FDFCCF65
:1024800010922B08089540910508262F30E0240F64
:10249000311D21323105DCF420912B082430C9F4A0
:1024A000FC0180E090E0861758F4309105082191F6
:1024B000DC01AD51B84FA30FB11D2C930196F3CFA2
:1024C00080910508680F6093050880E0089581E019
:1024D000089582E0089508958FEF9FEF08958FEF9C
:1024E0009FEF08958091E20790E091958195910981
:1024F0000895CF93DF9300D0CDB7DEB7CB01642F23
:1025000049835A830E9443124981842F5A81952F0F
:102510000F900F90DF91CF910895CF93DF931F928B
:10252000CDB7DEB7698361E0CE0101960E94431208
:1025300081E090E00F90DF91CF9108958F929F926C
:10254000AF92BF92CF92DF92EF92FF920F931F93C1
:102550000E9413120091D5071091D6072091D7073A
:102560003091D807C090D107D090D207E090D30720
:10257000F090D40746015701801A910AA20AB30AC3
:1025800095018401060F171F281F391F0093D107DB
:102590001093D2072093D3073093D4076093D507C5
:1025A0007093D6078093D7079093D8078091CD0773
:1025B0009091CE07A091CF07B091D0070196A11DB1
:1025C000B11D8093CD079093CE07A093CF07B09312
:1025D000D0071F910F91FF90EF90DF90CF90BF90A9
:1025E000AF909F908F900895FC01848DDF01A80F1C
:1025F000B11DA35ABF4F2C91848D90E001968F732B
:102600009927848FA689B7892C93A089B1898C9149
:1026100080648C93938D848D981306C00288F3890F
:10262000E02D80818F7D80830895CF93DF93282FC5
:1026300030E0F901E056FE4F8491F901EF57FE4F6B
:10264000D491F901EE59FE4FC491CC2391F0811140
:102650000E94D611EC2FF0E0EE0FFF1FEC5AFE4F58
:10266000A591B491EC91ED2381E090E021F480E01C
:1026700002C080E090E0DF91CF91089582E00E9457
:102680001513019779F481E08093D9078091DB07D6
:102690009091DC07A091DD07B091DE070197A109B9
:1026A000B1090DC01092D9078091DB079091DC072A
:1026B000A091DD07B091DE070196A11DB11D8093A9
:1026C000DB079093DC07A093DD07B093DE0781E082
:1026D0008093DF0708951F93CF93DF93282F30E077
:1026E000F901E056FE4F8491F901EF57FE4FD49166
:1026F000F901EE59FE4FC491CC23C9F0162F811178
:102700000E94D611EC2FF0E0EE0FFF1FEA5BFE4FA8
:10271000A591B4918FB7F894111105C09C91ED2F3C
:10272000E095E92302C0EC91ED2BEC938FBFDF9194
:10273000CF911F910895CF93DF9390E0FC01EF5765
:10274000FE4F2491FC01EE59FE4F8491882361F1E4
:1027500090E0880F991FFC01E85CFE4FC591D49171
:10276000FC01EA5BFE4FA591B491611109C09FB7CE
:10277000F8948881209582238883EC912E230BC0C6
:10278000623061F49FB7F8943881822F809583235B
:102790008883EC912E2B2C939FBF06C08FB7F894A3
:1027A000E8812E2B28838FBFDF91CF9108958F92E0
:1027B0009F92AF92BF92CF92DF92EF92FF926B0106
:1027C0007C010E9413124B015C01C114D104E1048D
:1027D000F104F1F00E941312DC01CB018819990970
:1027E000AA09BB09883E9340A105B10570F321E019
:1027F000C21AD108E108F10888EE880E83E0981E1D
:10280000A11CB11CC114D104E104F10419F7DDCFFE
:10281000FF90EF90DF90CF90BF90AF909F908F9000
:1028200008952FB7F89460915208709153088091E1
:102830005408909155082FBF08951F920F920FB61C
:102840000F9211242F933F938F939F93AF93BF9336
:102850008091520890915308A0915408B091550866
:102860003091510823E0230F2D3720F40196A11D4C
:10287000B11D05C026E8230F0296A11DB11D2093AE
:1028800051088093520890935308A0935408B09332
:1028900055088091560890915708A0915808B0911A
:1028A00059080196A11DB11D8093560890935708B1
:1028B000A0935808B0935908BF91AF919F918F9101
:1028C0003F912F910F900FBE0F901F9018951F9260
:1028D0000F920FB60F9211242F933F934F935F9354
:1028E0006F937F938F939F93AF93BF93EF93FF93D8
:1028F000E0911201F09113010995FF91EF91BF91C1
:10290000AF919F918F917F916F915F914F913F9187
:102910002F910F900FBE0F901F9018951F920F923E
:102920000FB60F9211242F933F934F935F936F93A2
:102930007F938F939F93AF93BF93EF93FF93E09118
:102940001001F09111010995FF91EF91BF91AF91A5
:102950009F918F917F916F915F914F913F912F91B7
:102960000F900FBE0F901F9018951F920F920FB6E9
:102970000F9211242F933F934F935F936F937F9305
:102980008F939F93AF93BF93EF93FF93E0910E01CB
:10299000F0910F010995FF91EF91BF91AF919F9138
:1029A0008F917F916F915F914F913F912F910F90F8
:1029B0000FBE0F901F9018951F920F920FB60F9297
:1029C00011242F933F934F935F936F937F938F9334
:1029D0009F93AF93BF93EF93FF93E0910C01F0911E
:1029E0000D010995FF91EF91BF91AF919F918F914B
:1029F0007F916F915F914F913F912F910F900FBEFB
:102A00000F901F9018951F920F920FB60F921124DE
:102A10002F933F934F935F936F937F938F939F93E6
:102A2000AF93BF93EF93FF93E0910A01F0910B01F5
:102A30000995FF91EF91BF91AF919F918F917F91F8
:102A40006F915F914F913F912F910F900FBE0F901B
:102A50001F9018952F923F924F925F926F927F92A4
:102A60008F929F92AF92BF92CF92DF92EF92FF929E
:102A70000F931F93CF93DF93EC016A017B01480111
:102A80005901A9019801C701B6010E94572987FF82
:102A90004EC0CAAADBAAECAAFDAA8EAA9FAAA8AE1B
:102AA000B9AE8AAD882309F442C02E8C3F8CF10167
:102AB0004080518062807380A5019401C301B201FE
:102AC0000E945729181634F4F10180829182A28263
:102AD000B3820DC0A7019601C301B2010E94F8277D
:102AE00087FF05C0F101C082D182E282F3828EA00D
:102AF0009FA0A8A4B9A4CEA8DFA8E8ACF9ACA70110
:102B00009601C501B4010E945729181664F0CAA89D
:102B1000DBA8ECA8FDA8A7019601C501B4010E949D
:102B2000F82787FF04C0CEA2DFA2E8A6F9A6DF91AE
:102B3000CF911F910F91FF90EF90DF90CF90BF90BA
:102B4000AF909F908F907F906F905F904F903F904D
:102B50002F9008951F920F920FB60F9211242F936A
:102B60003F934F935F936F937F938F939F93AF9315
:102B7000BF93EF93FF938091B900887F803609F46B
:102B80009CC068F5883209F45BC090F4803109F488
:102B900054C038F4882309F4F6C0883009F44DC0D5
:102BA000F6C0883109F44CC0803209F45DC0EFC032
:102BB000803409F468C048F4803309F455C0883380
:102BC00009F0E5C080932A08D8C0803509F44FC0C9
:102BD000883509F45DC0883409F0D9C0D6C0883979
:102BE00009F4C7C0A8F4883709F467C038F48836F8
:102BF00009F463C0803709F460C0C9C0883809F49B
:102C0000B8C0803909F45FC0803809F0C0C05BC02B
:102C1000803B09F486C038F4803A09F466C0883AEB
:102C200009F47FC0B4C0803C09F4A7C0883C09F413
:102C3000A4C0883B09F48AC0AAC08091500810C083
:102C400090914F0880914E08981770F5E0914F08C9
:102C500081E08E0F80934F08F0E0E25DF74F8081B6
:102C60008093BB0085EC86C080932A088EC0E091DB
:102C70004F0881E08E0F80934F088091BB00F0E0F9
:102C8000E25DF74F808390914F0880914E086EC0AF
:102C9000E0914F0881E08E0F80934F088091BB0038
:102CA000F0E0E25DF74F808380912D0881116DC0C7
:102CB00081E080932C0884EA61C083E080932B0834
:102CC00010922908CFCF80912908803208F051C096
:102CD000E091290881E08E0F809329088091BB0044
:102CE000F0E0E75FF74F8083BDCF85EC8093BC00B9
:102CF00010922B0880912908803230F4E091290845
:102D0000F0E0E75FF74F10826091290870E0E091F2
:102D10000708F091080889E098E0099510922908C1
:102D200036C084E080932B081092060810920508A4
:102D3000E0910308F091040809958091050881113C
:102D400005C081E0809305081092E307E091060832
:102D500081E08E0F80930608F0E0ED51F84F8081FE
:102D60008093BB009091060880910508981708F49D
:102D700079CF85E88093BC000AC085EC8093BC00C5
:102D800010922B0804C010922A080E943912FF9159
:102D9000EF91BF91AF919F918F917F916F915F91D3
:102DA0004F913F912F910F900FBE0F901F9018954C
:102DB0001F920F920FB60F9211242F933F934F93B0
:102DC0005F936F937F938F939F93AF93BF93EF9393
:102DD000FF938091E10787FF05C010928500109254
:102DE00084001BC02091E107022E000C330B809160
:102DF000180690E02817390784F48091E107082E1F
:102E0000000C990BFC01EE0FFF1F8E0F9F1FFC01A2
:102E1000EC50FA4F808186FD15C08091E1078F5FED
:102E20008093E1072091E107022E000C330B809183
:102E3000180690E028173907C4F48091E1078C3018
:102E400064F113C08091E107082E000C990BFC017E
:102E5000EE0FFF1F8E0F9F1FFC01EC50FA4F808179
:102E600060E08F730E946B13D8CF809184009091A3
:102E70008500049680349C4918F480E49CE905C0E0
:102E800080918400909185000496909389008093AE
:102E900088008FEF8093E1073BC020918400309140
:102EA00085008091E107082E000C990BFC01EE0FC4
:102EB000FF1F8E0F9F1FFC01EC50FA4F8181928102
:102EC000820F931F90938900809388008091E1077F
:102ED000082E000C990BFC01EE0FFF1F8E0F9F1F99
:102EE000FC01EC50FA4F808186FF12C08091E1070F
:102EF000082E000C990BFC01EE0FFF1F8E0F9F1F79
:102F0000FC01EC50FA4F808161E08F730E946B13DB
:102F1000FF91EF91BF91AF919F918F917F916F91B1
:102F20005F914F913F912F910F900FBE0F901F9087
:102F30001895CF93DF93EC018A859B85AC85BD8581
:102F40008E839F83A887B9870E9411146A837B832D
:102F50008C839D8381E089838883DF91CF9108955D
:102F60002F923F924F925F926F927F928F929F9299
:102F7000AF92BF92CF92DF92EF92FF920F931F9387
:102F8000CF93DF93D82FC92F8B010E94F52624E61B
:102F900030E040E050E00E945A2749015A019B016D
:102FA000AC0160E876E988E990E00E94CE296B01E7
:102FB0007C01F80191828082ED2FFC2F2191822FDC
:102FC000022E000C990BC0970A97C0F32E3239F5E8
:102FD0001F0180E8882E86E9982E88E9A82EB12C5A
:102FE0009AE0492E512C612C712CF101C1911F01E5
:102FF0000C2E000CDD0BE097CA30D10580F4C50122
:10300000B401A30192010E945A2749015A01DE012D
:103010000E945227C60ED71EE81EF91EE6CFA5E075
:10302000B0E0A70196010E9447276F5F7F4F8F4F47
:103030009F4F23E030E040E050E00E945A27F80123
:1030400022833383448355831682DF91CF911F916E
:103050000F91FF90EF90DF90CF90BF90AF909F9037
:103060008F907F906F905F904F903F902F9008953A
:10307000FF920F931F93CF93DF93EC01FF24F39400
:1030800088818D3211F0F12C01C02196CE010E9471
:10309000F5269B01AC01A4E6B0E00E944727FE01A3
:1030A0004991242F042E000C330B205331092A3070
:1030B0003105A8F34E3241F52181022E000C330B6D
:1030C000205331092A303105F8F44AE0429F80014B
:1030D000439F100D1124012E000C220B330B600FA7
:1030E000711F821F931F0281002E000C110B0053D1
:1030F00011090A30110540F4012E000C220B330B8C
:10310000600F711F821F931FFF2039F090958095EB
:10311000709561957F4F8F4F9F4FDF91CF911F919A
:103120000F91FF90089587E595E00E942D1A892B55
:1031300039F087E595E00E940B1A0E94D10EF3CF7B
:1031400080916906882379F308950C9439270C94AB
:1031500031270F931F93CF938C0101960E94A718DC
:10316000C82FC8010E94A7182C2F30E0A901582BA6
:10317000CA01CF911F910F9108951F93CF93DF93B1
:10318000EC01162F672F0E94A518612FCE01019622
:10319000DF91CF911F910C94A51810920901109204
:1031A000E00781E0809308010C94450180911901AA
:1031B000609123017091240181110EC0072E000C33
:1031C000880B990B0E94A7282BE734E14EEC5FE3B4
:1031D0000E945C290E946F28CB016AE070E00E9487
:1031E000EA2970932306609322068091220690912B
:1031F00023066AE070E00E94EA297093210660933A
:10320000200690931F0680931E06860F971F97FF38
:1032100003C08AE894E008C06A3071051CF48DE8A8
:1032200092E002C08EE892E00E94450D8091200657
:103230009091210697FF07C09195819591099093F0
:1032400021068093200680912006909121060E94FD
:103250006B0D8DE894E00E94450D80911E069091C3
:103260001F0697FF07C091958195910990931F06BE
:1032700080931E0680911E0690911F060E946B0D82
:1032800080911901882319F087EE92E002C08CEE3C
:1032900092E00C94450DCF938091DF07882391F144
:1032A0008091DB079091DC07A091DD07B091DE07EC
:1032B000181619061A061B0664F41092DB07109202
:1032C000DC071092DD071092DE071092DF0781E025
:1032D00065C08091DB079091DC07A091DD07B0917C
:1032E000DE07B7FF0CC01092DB071092DC071092CC
:1032F000DD071092DE071092DF0782E04FC01092C8
:10330000DF074BC084E00E941513C091DA07892BB8
:10331000E9F4CF5FC093DA0768EC70E080E090E0FA
:103320000E94D713C830C0F11092DA070E94410DF5
:1033300084E10E94800E60E070E080E090E00E94F6
:103340006C0E85E994E00E94450D1DC0CC2329F147
:103350001092DA070E94410D84E10E94800E60E025
:1033600070E080E090E00E946C0E8FE894E00E9494
:10337000450D64EF71E080E090E00E94D7130E9459
:10338000410D84E00BC084E00E941513892BD9F312
:103390000E94410D88E002C002C080E190E0CF9120
:1033A0000895CF92DF92EF92FF920F931F93CF93E6
:1033B000DF936C017A018B01C0E0D0E0CE15DF0510
:1033C00089F0D8016D918D01D601ED91FC910190AC
:1033D000F081E02DC6010995892B11F47E0102C010
:1033E0002196ECCFC701DF91CF911F910F91FF90F4
:1033F000EF90DF90CF900895FC01538D448D252FE1
:1034000030E0842F90E0821B930B541710F0CF967E
:10341000089501970895FC01918D828D981761F0B0
:10342000828DDF01A80FB11D5D968C91928D9F5FFB
:103430009F73928F90E008958FEF9FEF0895FC01A6
:10344000918D828D981731F0828DE80FF11D858D59
:1034500090E008958FEF9FEF0895FC01918D228DEC
:10346000892F90E0805C9F4F821B91098F73992771
:10347000089587E595E00E942D1A21E0892B09F433
:1034800020E0822F08950E94182AEF92FF920F9356
:103490001F93CF93DF93EC0181E0888F9B8D8C8D00
:1034A000981305C0E889F989808185FD24C0F62E2E
:1034B0000B8D10E00F5F1F4F0F731127E02E8C8DC7
:1034C000E8120CC00FB607FCFACFE889F9898081B1
:1034D00085FFF5CFCE010E94F412F1CF8B8DFE0156
:1034E000E80FF11DE35AFF4FF0820B8FEA89FB8949
:1034F0008081806207C0EE89FF896083E889F9894D
:1035000080818064808381E090E0DF91CF911F9182
:103510000F91FF90EF900895CF93DF93EC01888D8A
:103520008823C9F0EA89FB89808185FD05C0A889C7
:10353000B9898C9186FD0FC00FB607FCF5CF80814D
:1035400085FFF2CFA889B9898C9185FFEDCFCE0197
:103550000E94F412E7CFDF91CF91089561157105B4
:1035600079F0FB0101900020E9F73197AF01461B8C
:10357000570BDC01ED91FC910280F381E02D099461
:1035800080E090E008951F920F920FB60F921124E1
:103590002F933F934F935F936F937F938F939F935B
:1035A000AF93BF93EF93FF9387E595E00E94F412EA
:1035B000FF91EF91BF91AF919F918F917F916F910B
:1035C0005F914F913F912F910F900FBE0F901F90E1
:1035D00018951F920F920FB60F9211242F938F936D
:1035E0009F93EF93FF93E0916705F09168058081C9
:1035F000E0916D05F0916E0582FD12C09081809181
:1036000070058F5F8F7320917105821751F0E091E3
:103610007005F0E0E95AFA4F958F8093700501C06C
:103620008081FF91EF919F918F912F910F900FBE0D
:103630000F901F901895FC0180916808811103C0BC
:103640008FEF9FEF08959FB7F89482E08093E90091
:103650002091F20030E01216130614F421E030E05D
:103660002115310559F0289884E6809367088091E8
:10367000F10080838091F200882319F09FBFC90177
:1036800008958BE68093E800F9CF2FB7F89483E094
:103690008093E9009091E800892F807295FF04C023
:1036A0009091F20080E4891B2FBF089580916E08ED
:1036B00081110DC082E080936A0884E080936B08DA
:1036C00010926D0810926C0881E080936E088AE673
:1036D00098E00895CF93DF931F92CDB7DEB769834B
:1036E000DC01ED91FC910280F381E02D41E050E09E
:1036F000BE016F5F7F4F09950F90DF91CF910895C5
:1037000083E08093E9008091F200882319F08AE336
:103710008093E80008950E94451B90E00895CF93A0
:10372000DF931F92CDB7DEB7FC018485958597FDA9
:1037300005C02FEF3FEF358724870BC0CE010196E0
:103740000E941B1B019719F4898190E002C08FEF42
:103750009FEF0F90DF91CF9108950F931F93CF9319
:10376000DF931F92CDB7DEB78C01FC018485958570
:1037700097FF0EC0CE0101960E941B1B019719F402
:10378000298130E002C02FEF3FEFF8013587248711
:10379000F801848595850F90DF91CF911F910F914E
:1037A0000895FC018485958597FD0BC09FB7F8941B
:1037B00082E08093E9008091F2009FBF90E0019643
:1037C00008959FB7F89482E08093E9008091F20019
:1037D0009FBF90E008958F929F92AF92BF92CF9239
:1037E000DF92EF92FF920F931F93CF93DF935C01D1
:1037F0006B017A0180913001882309F45BC08091CC
:103800006808882309F456C08091660880FF05C0C7
:103810008091E00082608093E000E70110E00AEF11
:1038200083E0882E9AE3992E2097D9F10E94451BB8
:1038300081110AC0015009F43DC061E070E080E0F0
:1038400090E00E94D713F0CF282F30E0C217D307A3
:103850000CF48C2F4FB7F8948092E9009091E80017
:1038600095FF1DC0282F30E0C21BD30BF601982F07
:10387000915020F081918093F100FACFC20ED31EB7
:10388000112319F09092E80009C08091E80085FDAD
:1038900006C09092E80011E0209709F010E04FBFB9
:1038A000C3CF1111C3CF5D9884E6809369081E14BD
:1038B0001F0444F081E090E0F5019383828380E06F
:1038C00090E001C0C701DF91CF911F910F91FF9050
:1038D000EF90DF90CF90BF90AF909F908F90089522
:1038E000CF92DF92EF92FF920F931F93CF93DF93CC
:1038F0001F92CDB7DEB7182F062FE42E862F880F24
:103900008E5F99830E94592083E00E945920F12EF6
:10391000C12E9981D92E8C2D8F19801798F4F6011C
:10392000E7FE02C0849101C080810E945920182FB7
:1039300080E00E9459208123FFEFCF1ADF0A811116
:10394000EACF01C081E00F90DF91CF911F910F91DD
:10395000FF90EF90DF90CF900895DF92EF92FF926B
:103960000F931F93CF93DF93D82E8A017B01E40E30
:10397000F51EEB01CE15DF0571F0D7FE03C0FE0189
:10398000849101C088810E94592021968111F2CF33
:103990008FEF9FEF01C0C801DF91CF911F910F9171
:1039A000FF90EF90DF9008950F931F93CF93DF93D5
:1039B0001F92CDB7DEB782E0898342E450E06FEB1F
:1039C00071E080E80E94AD1C0E94561BDC0112963B
:1039D0000D911C9113970115110569F0D801ED9116
:1039E000FC910280F381E02DBE016F5F7F4FC80123
:1039F000099597FF07C089810F90DF91CF911F91A3
:103A00000F910895F80100851185E5CF1F920F925F
:103A10000FB60F9211248F939F938091E1009091A4
:103A2000E100937F9093E10083FF0FC01092E900C3
:103A300091E09093EB001092EC0092E39093ED00F4
:103A40001092680898E09093F00082FF20C093E005
:103A50009093E9009091F200992319F09AE39093E2
:103A6000E80090916908992339F090916908915084
:103A700090936908992389F190916708992339F007
:103A800090916708915090936708992341F184FFC2
:103A900010C08091E2008E7E81608093E200809170
:103AA000E1008F7E8093E100809166088E7E8061C8
:103AB00011C080FF16C08091E2008E7E80618093ED
:103AC000E2008091E1008E7E8093E10080916608A3
:103AD0008E7E81608093660804C05D9ACDCF289A5F
:103AE000D6CF9F918F910F900FBE0F901F9018957A
:103AF0001F920F920FB60F921124CF92DF92EF9286
:103B0000FF920F931F932F933F934F935F936F9366
:103B10007F938F939F93AF93BF93EF93FF93CF9335
:103B2000DF93CDB7DEB76C97DEBFCDBF1092E90053
:103B30008091E80083FFEDC168E0CE0145960E94C8
:103B4000872082EF8093E8008D8987FF05C09091E0
:103B5000E80090FFFCCF03C09EEF9093E800982F01
:103B6000907609F0C6C09E892F89188D91110CC0DE
:103B7000803829F4809165088093F10002C010928A
:103B8000F1001092F10048C1422F50E0512B9130CA
:103B900051F4811141C14130510509F03DC180917D
:103BA00065088D7F0BC0933061F4811135C14130C0
:103BB000510509F031C180916508826080936508E4
:103BC0002BC1953041F48091E80080FFFCCF206844
:103BD0002093E30021C1963009F05FC0EB8CFC8C90
:103BE0001092E9001092630810926208123091F569
:103BF00010926108109260080E94D41C99E0BE01E6
:103C00006F5F7F4FDB01E92F1D92EA95E9F79983FA
:103C10001A8391E09E8390EA98879AEF9987209182
:103C2000620830916308275F3F4F3C832B838D836D
:103C30001092E9001092630810926208F0926108F5
:103C4000E092600849E050E080E00E94AD1C0E94D4
:103C5000D41CE2C0F0926108E09260080E94561BFA
:103C6000DC011296ED90FC901397E114F10409F435
:103C7000C0C0D701ED91FC910480F581E02DBE011B
:103C80006B5E7F4FC7010995009719F00CF0C4C017
:103C9000C7C0F701E084F184E8CF973009F4C0C0D1
:103CA000983021F481E08093F100B6C0993009F09A
:103CB000B3C0837009F0B4C0EEE9F1E081E021E027
:103CC00036E39081992361F08093E9002093EB0023
:103CD00091919093EC003093ED008F5F873089F7DE
:103CE0008EE78093EA001092EA008F89809368083B
:103CF00093C08B8D9C8D1092E900109263081092F6
:103D000062089093610880936008898D811156C084
:103D10008E899D89913A59F4813209F081C047E03A
:103D200050E069E271E080E00E94AD1C75C0913204
:103D300009F076C0833289F4888D90E0982F882727
:103D40002F89822BA0E0B0E080932501909326017B
:103D5000A0932701B09328015FC0803269F480915D
:103D6000E80082FFFCCF67E089E291E00E948720B3
:103D70008BEF8093E80006C0823209F04DC08F8936
:103D80008093300180916408882319F0EEEFFAE007
:103D900002C0E0E0F8E08091290190912A01A09111
:103DA0002B01B0912C01803B9440A105B10509F095
:103DB0007BC08091300180FF93C076C00E94561B6B
:103DC000DC0112960D911C9113970115110541F11B
:103DD000D801ED91FC910190F081E02DBE016B5E68
:103DE0007F4FC8010995811117C0F8010085118521
:103DF000ECCF113009F44EC0133091F48F89882331
:103E000009F445C0823081F440E860E183E292E049
:103E10000E94701C882321F08EEF8093E80079C007
:103E200081E28093EB0075C0813029F440E86BE0BB
:103E300087E192E0EDCF833099F70E94561BDC01B9
:103E40001296ED90FC9013978E010F5F1F4F680143
:103E5000E114F10479F0D701ED91FC910680F7812E
:103E6000E02DB801C7010995080F111DF701E08485
:103E7000F184EECFD8011C92F60101900020E9F701
:103E80003197BF016C197D0940E0C601C1CF61E0E7
:103E900072E002C065E072E06115710509F2FB0194
:103EA000449150E080E840CF0FB6F894A8958091F7
:103EB0006000886180936000109260000FBEA8953A
:103EC000EE3F2AE0F20739F08091FE0A9091FF0A56
:103ED00091838083A1CF1092FF0A1092FE0A9CCF9B
:103EE000EE3F8AE0F80731F0808191819093FF0ADC
:103EF0008093FE0A87E797E7918380839BE088E1C0
:103F00000FB6F894A895809360000FBE9093600060
:103F100083CF6C960FB6F894DEBF0FBECDBFDF9196
:103F2000CF91FF91EF91BF91AF919F918F917F9131
:103F30006F915F914F913F912F911F910F91FF9042
:103F4000EF90DF90CF900F900FBE0F901F901895BD
:103F500008950895089580E090E00895FF920F93EA
:103F60001F93CF93DF93EC0161E089890E946B136B
:103F700061E089890E946B138A890E941513892B3D
:103F8000D9F360E089890E946B1360E089890E94FF
:103F90006B1360E089890E946B1398E0F92E00E0B2
:103FA00010E0000F111F61E08F850E946B138A895A
:103FB0000E941513892B09F0016060E08F850E9433
:103FC0006B13FA94F110EDCF61E089890E946B13B5
:103FD000C801DF91CF911F910F91FF900895049731
:103FE0000C94AE1FCF92DF92EF92FF920F931F932C
:103FF000CF93DF93EC01E62E60E089890E946B137A
:1040000060E089890E946B1360E089890E946B13CC
:10401000DF84C88807E010E0F12CB701002E02C051
:10402000759567950A94E2F7617077278C2D0E9449
:104030006B1361E08D2D0E946B1360E08D2D0E944B
:104040006B130150110948F761E089890E946B13D5
:1040500081E090E0DF91CF911F910F91FF90EF9061
:10406000DF90CF900895CF93DF93EC0161E08F85CF
:104070000E949B1361E088890E949B1361E08989FB
:104080000E949B1361E089890E946B1360E08F8519
:104090000E946B1360E088890E946B138A898823D1
:1040A00029F060E0DF91CF910C949B13DF91CF91C9
:1040B0000895409162085091630820916008309102
:1040C000610842175307B4F49091E8009570E1F34A
:1040D0009091E80092FD19C08093F10080916208F0
:1040E0009091630801968F739927892B19F48EEFAD
:1040F0008093E80080916208909163080196909304
:1041000063088093620881E0089580E0089561501B
:1041100030F02091F100FC0120830196F8CF28981F
:1041200084E6809367080895CF92DF92EF92FF9222
:10413000CF93DF9310922C0710922B0788EE93E019
:10414000A0E0B0E080932D0790932E07A0932F0757
:10415000B093300723E531E030932A0720932907F5
:104160002FEF3FEF309336072093350710925A0513
:104170001092590580935B0590935C05A0935D05B3
:10418000B0935E0525E631E030935805209357053E
:104190002DEC30E030936405209363052CEC30E087
:1041A000309366052093650528EC30E03093680570
:1041B0002093670529EC30E030936A052093690568
:1041C0002AEC30E030936C0520936B052EEC30E048
:1041D00030936E0520936D05109270051092710555
:1041E000109272051092730510927C0710927B0753
:1041F00080937D0790937E07A0937F07B0938007FD
:1042000087E791E090937A0780937907C090040143
:10421000D0900501E0900601F090070189EC97E04D
:1042200090930C0780930B0789EE96E090930A0712
:104230008093090785EE96E090930E0780930D0713
:104240001092270710921F07109220071092210743
:104250001092220780E090E0AFE7B3E48093230759
:1042600090932407A0932507B093260784E690E057
:10427000A0E0B0E080931B0790931C07A0931D075C
:10428000B0931E07C1E0D0E0D0930607C0930507A6
:1042900020E030E0A901C701B6010E94F82787FDA0
:1042A0005CC0D0930807C093070781E0809328077C
:1042B000C092ED06D092EE06E092EF06F092F00684
:1042C000C092F106D092F206E092F306F092F40664
:1042D000C092F506D092F606E092F706F092F80644
:1042E000A701960160E070E0CB010E948B276093EC
:1042F000F9067093FA068093FB069093FC062DEC6A
:104300003CEC4CEC5DE3C701B6010E945C299B01CB
:10431000AC0160E070E0CB010E948B276093FD064A
:104320007093FE068093FF06909300072DEC3CEC03
:104330004CEC5DE3C701B6010E94FD279B01AC0177
:1043400060E070E0CB010E948B27609301077093BF
:10435000020780930307909304070E941114C090F2
:104360001B07D0901C07E0901D07F0901E07DC0192
:10437000CB018C199D09AE09BF0980930F0790935B
:104380001007A0931107B0931207109238061092ED
:10439000390610923B0610923A0610923C06109293
:1043A0003D0610923E0610923F0610924006109273
:1043B0004206109241061092430610924406109253
:1043C0004506109246061092470610924906109232
:1043D000480610924A0610924B0610924C06109214
:1043E0004D0610924E061092500610924F061092F3
:1043F00051061092520610925306109254061092D3
:10440000550610925A0610925B0610925C061092A6
:104410005D0610925E0610925F061092680610927A
:10442000690610926A0610926B0610926C06109242
:104430006D06109276061092770610927C06109206
:104440007D0610927E0610927F06109284061092CE
:10445000850610928A0610928B0610928C06109296
:104460008D06109292061092930610929806109262
:10447000990610929A0610929B061092A00610922E
:10448000A1061092A6061092A7061092A8061092F6
:10449000A9061092AE061092AF061092B4061092C2
:1044A000B5061092B6061092B7061092BC0610928E
:1044B000BD0682E08093CD061092CE061092CF0604
:1044C0001092D0061092D2061092D1061092D40605
:1044D0001092D3061092D5061092D6061092D706E7
:1044E0001092D8061092D9061092DA061092DB06C6
:1044F0001092DC061092DD061092DE061092DF06A6
:104500001092E0061092E1061092E2061092E30685
:104510001092E4061092BE0610922706109226060C
:1045200089E891E0909325068093240689E991E03B
:10453000909329068093280688E080933306C9E08B
:10454000C09334068AE0809335061092360684E2E2
:1045500096E00E9433206BE08BEB97E00E941C23D7
:104560006CE08DEA97E00E941C238BEB97E0909320
:10457000A00780939F0710929D0710929E071092AC
:104580009907C0939A0781E080939B0780939C07CB
:104590001092AC071092AB072DEA37E030938C07EE
:1045A00020938B071092890710928A071092850733
:1045B000C093860780938707809388071092980797
:1045C0001092970780912206909123066AE070E08E
:1045D0000E94EA29709321066093200690931F069B
:1045E00080931E06809118068C30A0F491E0980FFD
:1045F0009093180680931B0690E0FC01EE0FFF1FBE
:104600008E0F9F1FFC01EC50FA4F88EB9BE09283CA
:10461000818303C08FEF80931B06809102019091EC
:10462000030190931A0680931906DF91CF91FF90B2
:10463000EF90DF90CF9008950F931F93CF93DF9368
:10464000EC01162F60E0812F0E949B13612F70E018
:10465000FB01EF57FE4FE491E883FB01EE59FE4F5B
:10466000E491F0E0EE0FFF1FEC5AFE4F859194911C
:104670009A8389831B861D861C86FE013B968E01CC
:104680000D5F1F4F1292E017F107E1F7DF91CF9115
:104690001F910F910895789484B5826084BD84B58C
:1046A000816084BD85B5826085BD85B5816085BD2D
:1046B00080916E00816080936E00109281008091E5
:1046C000810082608093810080918100816080936D
:1046D00081008091800081608093800080919100B2
:1046E000826080939100809191008160809391001D
:1046F000809190008160809390008091C1008460DF
:104700008093C1008091C10082608093C10080913C
:10471000C10081608093C1008091C300816080935B
:10472000C3008091C00082608093C0008091C2006D
:1047300081608093C20080917A00846080937A00C7
:1047400080917A00826080937A0080917A00816003
:1047500080937A0080917A00806880937A0010922A
:10476000680810926508109266088091D7008160F1
:104770008093D70080EA8093D80089B5806189BD95
:1047800089B5826089BD09B400FEFDCF61E070E0AB
:1047900080E090E00E94D7138091D8008F7C8061E8
:1047A0008093D8008091E000807F8093E00080912A
:1047B000E1008E7E8093E1008DE08093E200559AC7
:1047C000209AEEEFFFE7859194918B3F9C4D19F471
:1047D00081E08093640880E290E00E94A71891E055
:1047E000811101C090E090935F08E0916705F0911E
:1047F000680582E08083E0916305F0916405108292
:10480000E0916505F09166058FEC808310926F054D
:10481000E0916B05F0916C0586E08083E09169057D
:10482000F0916A05808180618083E0916905F09153
:104830006A05808188608083E0916905F0916A054E
:10484000808180688083E0916905F0916A058081AC
:104850008F7D808368EB7BE080E090E00E94D7133F
:1048600084E296E00E94332080915F08882341F023
:104870008AE994E00E94330D82E090E00E944B0EA2
:104880000E94410D64E670E080E090E00E94D71342
:104890008EE10E94800E61E070E080E090E00E9476
:1048A0006C0E8CE892E00E94450D64E670E080E0BA
:1048B00090E00E94D7138DE994E00E94450D62E0DC
:1048C00070E080E090E00E946C0E8CE892E00E9424
:1048D000450D64E670E080E090E00E94D71388EA1E
:1048E00094E00E94450D63E070E080E090E00E945B
:1048F0006C0E8AE00E94800E84EB94E00E94450DCD
:1049000068E873E180E090E00E94D7130E94410DB7
:1049100064EF71E080E090E00E94D7138EE10E9486
:10492000800E61E070E080E090E00E946C0E85E413
:1049300090E00E94A718853409F474C08EE10E94AB
:10494000800E61E070E080E090E00E946C0E88ECE8
:1049500094E00E94450D63E070E080E090E00E94EA
:104960006C0E87ED94E00E94450D60ED77E080E0ED
:1049700090E00E94D71366E08BE090E00E94A518BB
:1049800060E08CE090E00E94A51865E28DE090E088
:104990000E94A51860E08EE090E00E94A51869E1F1
:1049A0008FE090E00E94A51860E080E190E00E9416
:1049B000A51868E081E190E00E94A51861E082E11D
:1049C00090E00E94A5186CE083E190E00E94A51899
:1049D0006FEF84E190E00E94A51860E085E190E02F
:1049E0000E94A51861E08DE190E00E94A5186AE0A0
:1049F0008EE190E00E94A51860E08FE190E00E94B7
:104A0000A51860E080E290E00E94A5186EE181E2C6
:104A100090E00E94A51865E485E490E00E94A51846
:104A20000E94410D8EE10E94800E61E070E080E006
:104A300090E00E946C0E89EE94E00E94450D63E0C8
:104A400070E080E090E00E946C0E8AEF94E00E949B
:104A5000450D68EE73E080E090E00E94D71360E0BF
:104A600082E00E949B1360E083E00E949B1362E05F
:104A700084E00E949B138EE393E190930B0180935B
:104A80000A0180916900836080936900E89A8EE949
:104A900092E1909313018093120180916A008F7CC0
:104AA000806180936A00EE9A80911B068C3008F03A
:104AB00051C061E085E00E949B1380911B06E82FA6
:104AC000F0E09F01220F331FE20FF31FEC50FA4F6B
:104AD0009081907C9560908310921C0610921D0628
:104AE0006CE00E94DE299CE0899FB001112440E027
:104AF00050E09A01260F371FF901EE0FFF1F2E0F0E
:104B00003F1FF901EC50FA4F908196FD16C04F5FA0
:104B10005F4F4C30510569F781110FC01092800032
:104B200082E0809381001092850010928400B19AF7
:104B300080916F00826080936F00E0911B06F0E02F
:104B4000CF01880F991FE80FF91FEC50FA4F8081B1
:104B5000806480838091190690911A060E94990EB4
:104B600060915D0870915E08072E000C880B990B10
:104B70000E94A7286093E9067093EA068093EB06EB
:104B80009093EC066091230170912401072E000C94
:104B9000880B990B0E94A7286093E5067093E606A0
:104BA0008093E7069093E80680912707811148C01B
:104BB000E0910B07F0910C07C080D180E280F38078
:104BC000C0921307D0921407E0921507F0921607CF
:104BD000E0910907F0910A0780819181A281B38158
:104BE0008093170790931807A0931907B0931A079B
:104BF0008090230790902407A0902507B090260767
:104C0000A5019401C701B6010E945729181684F026
:104C100080901F0790902007A0902107B090220756
:104C2000A5019401C701B6010E94F82787FF08C0BB
:104C30008092130790921407A0921507B09216075E
:104C400081E0809327078BE090E00E94A718809373
:104C500022018CE090E00E94A918BC0180E090E065
:104C60000E94A52820E030E048EC52E40E94FD2795
:104C700060930401709305018093060190930701EE
:104C80008EE090E00E94A918BC0180E090E00E94B4
:104C9000A52820E030E048EC52E40E94FD27609314
:104CA0001E0170931F01809320019093210180E1E8
:104CB00090E00E94A918BC0180E090E00E94A52825
:104CC00020E030E048EC52E40E94FD2760931A0196
:104CD00070931B0180931C0190931D0182E190E071
:104CE0000E94A71891E0811101C090E090931901F2
:104CF00083E190E00E94A71890E0909318018093C0
:104D0000170184E190E00E94A7182AE0829FC00169
:104D10001124909316018093150185E190E00E9483
:104D2000A7182AE0829FC001112490930301809369
:104D300002018DE190E00E94A71891E0811101C06D
:104D400090E0909314018EE190E00E94A71824E671
:104D5000829FC001112490932401809323018FE14D
:104D600090E00E94A71891E0811101C090E090931B
:104D70005C0880E290E00E94A71891E0811101C0D8
:104D800090E090935F0881E290E00E94A71890E085
:104D900090935B0880935A0869E075E087E595E099
:104DA0000E94AE1A6BE375E087E595E00E94AE1AAB
:104DB00064E670E080E090E00E94D7136EE375E057
:104DC00087E595E00E94AE1A6BE375E087E595E014
:104DD0000E94AE1A64E670E080E090E00E94D71373
:104DE0000E9445010E94CC11FBCF1F93FC01992723
:104DF0008827BC01E89411911032E9F3193010F0C2
:104E00001E30C8F31B3251F01D3249F4689406C0BD
:104E10000E941C27610F711D811D911D119110535E
:104E20001A30B0F33EF490958095709561957F4F60
:104E30008F4F9F4F1F910895592F482F372F262F9F
:104E4000660F771F881F991F660F771F881F991F8E
:104E5000620F731F841F951F660F771F881F991F8E
:104E60000895F999FECF92BD81BDF89A992780B532
:104E70000895262FF999FECF1FBA92BD81BD20BD9E
:104E80000FB6F894FA9AF99A0FBE019608950E9407
:104E90007C27A59F900DB49F900DA49F800D911D20
:104EA00011240895B7FF0C9447270E944727821BBF
:104EB000930B0895A1E21A2EAA1BBB1BFD010DC086
:104EC000AA1FBB1FEE1FFF1FA217B307E407F507BA
:104ED00020F0A21BB30BE40BF50B661F771F881F96
:104EE000991F1A9469F760957095809590959B012C
:104EF000AC01BD01CF010895A29FB001B39FC001D5
:104F0000A39F700D811D1124911DB29F700D811DF5
:104F10001124911D08955058BB27AA270E94A3274A
:104F20000C941D290E940F2938F00E94162920F0A8
:104F300039F49F3F19F426F40C940C290EF4E095F3
:104F4000E7FB0C940629E92F0E942E2958F3BA1783
:104F5000620773078407950720F079F4A6F50C948F
:104F600050290EF4E0950B2EBA2FA02D0B01B9019C
:104F700090010C01CA01A0011124FF27591B99F0CF
:104F8000593F50F4503E68F11A16F040A22F232FDB
:104F9000342F4427585FF3CF469537952795A7952B
:104FA000F0405395C9F77EF41F16BA0B620B730BD2
:104FB000840BBAF09150A1F0FF0FBB1F661F771F43
:104FC000881FC2F70EC0BA0F621F731F841F48F4F8
:104FD000879577956795B795F7959E3F08F0B0CF81
:104FE0009395880F08F09927EE0F97958795089568
:104FF0000E94E22808F481E008950E9411280C9490
:105000001D290E94162958F00E940F2940F029F40A
:105010005F3F29F00C94062951110C9451290C94EE
:105020000C290E942E2968F39923B1F3552391F39B
:10503000951B550BBB27AA2762177307840738F007
:105040009F5F5F4F220F331F441FAA1FA9F335D064
:105050000E2E3AF0E0E832D091505040E695001C18
:10506000CAF72BD0FE2F29D0660F771F881FBB1FD2
:10507000261737074807AB07B0E809F0BB0B802DB0
:10508000BF01FF2793585F4F3AF09E3F510578F0DC
:105090000C9406290C9451295F3FE4F3983ED4F315
:1050A000869577956795B795F7959F5FC9F7880FB0
:1050B000911D9695879597F90895E1E0660F771F02
:1050C000881FBB1F621773078407BA0720F0621B93
:1050D000730B840BBA0BEE1F88F7E09508950E94BE
:1050E00076286894B1110C94512908950E943629AC
:1050F00088F09F5798F0B92F9927B751B0F0E1F099
:10510000660F771F881F991F1AF0BA95C9F714C048
:10511000B13091F00E945029B1E008950C945029CB
:10512000672F782F8827B85F39F0B93FCCF3869581
:1051300077956795B395D9F73EF4909580957095DE
:1051400061957F4F8F4F9F4F0895E89409C097FB5B
:105150003EF490958095709561957F4F8F4F9F4F4E
:105160009923A9F0F92F96E9BB279395F695879592
:1051700077956795B795F111F8CFFAF4BB0F11F455
:1051800060FF1BC06F5F7F4F8F4F9F4F16C08823FC
:1051900011F096E911C0772321F09EE8872F762F32
:1051A00005C0662371F096E8862F70E060E02AF073
:1051B0009A95660F771F881FDAF7880F969587955F
:1051C00097F90895990F0008550FAA0BE0E8FEEF34
:1051D00016161706E807F907C0F012161306E407BB
:1051E000F50798F0621B730B840B950B39F40A26B4
:1051F00061F0232B242B252B21F408950A2609F492
:10520000A140A6958FEF811D811D089597F99F6795
:1052100080E870E060E008959FEF80EC089500243E
:105220000A941616170618060906089500240A940B
:1052300012161306140605060895092E0394000C91
:1052400011F4882352F0BB0F40F4BF2B11F460FF20
:1052500004C06F5F7F4F8F4F9F4F089557FD905849
:10526000440F551F59F05F3F71F04795880F97FB2A
:10527000991F61F09F3F79F08795089512161306E4
:105280001406551FF2CF4695F1DF08C01616170613
:105290001806991FF1CF8695710561050894089548
:1052A000E894BB2766277727CB0197F908950E94DA
:1052B000E22808F48FEF08950E946F290C941D29AD
:1052C0000E940F2938F00E94162920F0952311F032
:1052D0000C9406290C940C2911240C9451290E9439
:1052E0002E2970F3959FC1F3950F50E0551F629FD3
:1052F000F001729FBB27F00DB11D639FAA27F00D2F
:10530000B11DAA1F649F6627B00DA11D661F829F55
:105310002227B00DA11D621F739FB00DA11D621F3A
:10532000839FA00D611D221F749F3327A00D611D57
:10533000231F849F600D211D822F762F6A2F112439
:105340009F5750409AF0F1F088234AF0EE0FFF1F6C
:10535000BB1F661F771F881F91505040A9F79E3FC3
:10536000510580F00C9406290C9451295F3FE4F319
:10537000983ED4F3869577956795B795F795E79519
:105380009F5FC1F7FE2B880F911D9695879597F922
:1053900008950E94E228880B990B0895DB018F93F2
:1053A0009F930E944727BF91AF91A29F800D911DAF
:1053B000A39F900DB29F900D11240895991B79E041
:1053C00004C0991F961708F0961B881F7A95C9F795
:1053D0008095089597FB072E16F4009407D077FD6B
:1053E00009D00E94042A07FC05D03EF490958195CF
:1053F0009F4F0895709561957F4F0895EE0FFF1FA1
:105400000590F491E02D0994AA1BBB1B51E107C044
:10541000AA1FBB1FA617B70710F0A61BB70B881F44
:10542000991F5A95A9F780959095BC01CD010895D3
:1054300081E090E0F8940C943C2AFB01DC018D9112
:10544000019080190110D9F3990B0895FB01DC013B
:1054500001900D920020E1F70895FB01DC0141501D
:10546000504048F001900D920020C9F701C01D92F4
:0C54700041505040E0F70895F894FFCF41
:10547C000A006004A470BD3E0101381238123812C3
:10548C0038123812017C060C00010AD7A33D00002B
:10549C00803E06F401FFFFFFFF00E100000000006A
:1054AC0000F203FF030C043B0217042804C202D7CA
:1054BC00023904450451048203AE03D2033D0500B6
:1054CC000000006A1BEB1B8B1B801BD11B8F1BADC1
:1054DC001B00000000451AD119FC198C1A2D1A0B4F
:1054EC001A1F1A000000008D127912AB1F6B12727A
:1054FC00126F126C1200000000F21FD119AB1FAA20
:10550C001FAE1FA91FFCFF0000EF1FA81F00C180CA
:10551C00810000004354004D696E205468726F7412
:10552C00746C652000536572766F2068696768201B
:10553C00706F736974696F6E004769766573206D5F
:10554C006178206361626C6520736C61636B0050E1
:10555C006F736974696F6E3A20004D6178205468DE
:10556C00726F74746C652000536572766F206C6F6B
:10557C007720706F736974696F6E00476976657315
:10558C00204E4F206361626C6520736C61636B000D
:10559C005465737420536572766F2052616E676523
:1055AC002000280029202020202000536572766FCF
:1055BC00204D6F64650052657665727365204D6F82
:1055CC006465004E6F726D616C204D6F6465004EAA
:1055DC006F726D616C204D6F6465202000456E67A5
:1055EC00696E652043796C696E6465727320002066
:1055FC0020202020202020202020202020202000BF
:10560C004D61782043796C696E64657273004D69E5
:10561C006E2043796C696E646572730054696D65B4
:10562C00205A6F6E65204F666673657420003A00D1
:10563C0030005374617274757020546172676574B4
:10564C0020537065656400556E6974206F66204D3B
:10565C00656173757265004D504820004B504820B1
:10566C000054656D707475726174757265204D6F40
:10567C006465200043656C736975732020202020BD
:10568C0000466172656E68656974200043656C73D1
:10569C00697573202020200053637265656E20525B
:1056AC006F746174652000466C69707065642020AD
:1056BC00202020004E6F726D616C2000466C69706A
:1056CC007065642020202000436F6E7472617374C7
:1056DC002020200053657420746F20796F75722020
:1056EC006C696B696E6700436F6E74726173743AA8
:1056FC00200050726F706F7274696F6E616C20470E
:10570C0061696E0044656661756C742072617465C4
:10571C00203D202E333700526174653A2000496ECB
:10572C0074656772616C204761696E0064656661BF
:10573C00756C74203D202E32350053706565643ACB
:10574C0020004465726976617469766520476169E9
:10575C006E0044656661756C74203D202E303800F7
:10576C003E004D696E205468726F74746C65004D08
:10577C006178205468726F74746C6500546573742E
:10578C0020536572766F00456E67696E65204379AC
:10579C006C696E646572730054696D65205A6F6E26
:1057AC0065204F66667365740054656D7020536593
:1057BC006E736F720053637265656E20466C697010
:1057CC0000436F6E747261737400434C0054540048
:1057DC006E616E00696E66006F7666005450005301
:1057EC0046004750524D4300474E524D43004750E0
:1057FC0047474100474E47474100202D002E0045AA
:10580C004E544552004241434B00534400535445BF
:10581C004144595041535300494E495449414C4914
:10582C005A4520002020202053656C65637420505D
:10583C0072657365747320002020204649525354BE
:10584C0020424F4F54200020494E495449414C4965
:10585C005A45204D454D2020004143515549524950
:10586C004E47205349474E414C002020504C454157
:10587C0053452057414954200024504D544B33314B
:10588C00342C302C312C302C302C302C302C302C27
:10589C00302C302C302C302C302C302C302C302C1C
:1058AC00302C302C302C302A3239000D0A00245088
:0E58BC004D544B3232302C3230302A32430001
:00000001FF
