:100000000C9418010C94ED050C94C6050C949F05F6
:100010000C9478050C9440010C9440010C9451050B
:100020000C9440010C9440010C94E10E0C94530F7D
:100030000C9440010C9440010C9440010C9440013C
:100040000C9440010C9442070C9440010C94400124
:100050000C9440010C9440010C9440010C94070551
:100060000C9440010C9404130C94DE120C94400187
:100070000C9440010C9440010C9440010C944001FC
:100080000C9440010C9440010C9440010C944001EC
:100090000C9414060C9440010C9440010C94400103
:1000A0000C9440010C9440010C9440013020332109
:1000B0001C22B7224623E4237D25E92545260C276B
:1000C000E6277401770166016A01700198019801C1
:1000D00098017B017F01830189018D0198019301C2
:1000E000200A320A350A3C0A430A710A780A850A4C
:1000F000920A9E0A9E0A9E0A9E0A9E0A9E0A9E0ACC
:100100009E0A9E0A9E0A9E0A9E0A9E0A9E0A9E0AAF
:100110009E0A9E0A9E0A9E0A9E0A9E0A9E0A9E0A9F
:10012000200A2D0A320A350A3C0A430A4A0A570AAB
:10013000640A00000000240027002A002D0030007F
:1001400000000000250028002B002E0031000000D8
:1001500000002300260029002C002F0004040404C2
:10016000040304050202020204030202020206065C
:100170000606060604040202020404040802011032
:1001800040804010204080408008020401804020D0
:1001900010020110801020404020000000020009E1
:1001A0000F0000030401000C00000000000000002C
:1001B000000000000000000000080B000202020125
:1001C00000090400000102020000052400100105DE
:1001D000240101010424020605240600010705810B
:1001E0000310004009040100020A00000007050294
:1001F00002400000070583024000000403090412C6
:10020000010002EF02014041233680000101020398
:100210000141726475696E6F204C4C4300417264F9
:1002200075696E6F204C656F6E6172646F007C291A
:1002300011241FBECFEFDAE0DEBFCDBF14E0A0E097
:10024000B1E0ECEEFDE502C005900D92A83DB107CE
:10025000D9F728E0A8EDB4E001C01D92A431B2079F
:10026000E1F711E0C8E1D1E004C02197FE010E944E
:10027000B62EC731D107C9F70E9486150C94F42E0B
:100280000C940000FC018485958597FD0BC09FB7F9
:10029000F89482E08093E9008091F2009FBF90E0A3
:1002A000019608959FB7F89482E08093E9008091C9
:1002B000F2009FBF90E0089590E0FC013197EF308D
:1002C000F105B0F5EF59FF4F0C94B62E80918000E8
:1002D0008F7703C0809180008F7D80938000089588
:1002E00080918000877FF9CF84B58F7702C084B575
:1002F0008F7D84BD0895809190008F7707C0809195
:1003000090008F7D03C080919000877F8093900044
:1003100008958091C0008F7703C08091C0008F7DC9
:100320008093C00008958091C200877F8093C200AF
:1003300008953FB7F8948091A1059091A205A091EE
:10034000A305B091A40526B5A89B05C02F3F19F0C1
:100350000196A11DB11D3FBFBA2FA92F982F882745
:10036000820F911DA11DB11DBC01CD0142E0660FA0
:10037000771F881F991F4A95D1F70895089585ED35
:100380008093BC008091BC0084FDFCCF1092760568
:10039000089540915005262F30E0240F311D213261
:1003A0003105DCF4209176052430C9F4FC0180E0AD
:1003B00090E0861758F4309150052191DC01A25D40
:1003C000BA4FA30FB11D2C930196F3CF8091500526
:1003D000680F6093500580E0089581E0089582E001
:1003E000089508958FEF9FEF08958FEF9FEF089581
:1003F00080912D0590E09195819591090895CF9375
:10040000DF9300D0CDB7DEB7CB01642F49835A8389
:100410000E94C9014981842F5A81952F0F900F9016
:10042000DF91CF910895CF93DF931F92CDB7DEB7C1
:10043000698361E0CE0101960E94C90181E090E0EC
:100440000F90DF91CF9108958F929F92AF92BF92BC
:10045000CF92DF92EF92FF920F931F930E94990128
:100460000091260510912705209128053091290536
:10047000C090DF04D090E004E090E104F090E2044A
:1004800046015701801A910AA20AB30A9501840114
:10049000060F171F281F391F0093DF041093E00475
:1004A0002093E1043093E2046093260570932705BE
:1004B00080932805909329058091DB049091DC04BA
:1004C000A091DD04B091DE040196A11DB11D8093C1
:1004D000DB049093DC04A093DD04B093DE041F9151
:1004E0000F91FF90EF90DF90CF90BF90AF909F90D3
:1004F0008F90089508950895089580E090E00895FC
:100500002F923F924F925F926F927F928F929F9223
:10051000AF92BF92CF92DF92EF92FF920F931F9311
:10052000CF93DF93D82FC92F8B010E94AD2B24E6E8
:1005300030E040E050E00E94122C49015A019B013A
:10054000AC0160E876E988E990E00E94862E6B01B4
:100550007C01F80191828082ED2FFC2F2191822F66
:10056000022E000C990BC0970A97C0F32E3239F572
:100570001F0180E8882E86E9982E88E9A82EB12CE4
:100580009AE0492E512C612C712CF101C1911F016F
:100590000C2E000CDD0BE097CA30D10580F4C501AC
:1005A000B401A30192010E94122C49015A01DE01FB
:1005B0000E940A2CC60ED71EE81EF91EE6CFA5E043
:1005C000B0E0A70196010E94FF2B6F5F7F4F8F4F16
:1005D0009F4F23E030E040E050E00E94122CF801F1
:1005E00022833383448355831682DF91CF911F91F9
:1005F0000F91FF90EF90DF90CF90BF90AF909F90C2
:100600008F907F906F905F904F903F902F900895C4
:10061000FF920F931F93CF93DF93EC01FF24F3948A
:1006200088818D3211F0F12C01C02196CE010E94FB
:10063000AD2B9B01AC01A4E6B0E00E94FF2BFE01B4
:100640004991242F042E000C330B205331092A30FA
:100650003105A8F34E3241F52181022E000C330BF7
:10066000205331092A303105F8F44AE0429F8001D5
:10067000439F100D1124012E000C220B330B600F31
:10068000711F821F931F0281002E000C110B00535B
:1006900011090A30110540F4012E000C220B330B16
:1006A000600F711F821F931FFF2039F09095809576
:1006B000709561957F4F8F4F9F4FDF91CF911F9125
:1006C0000F91FF900895CF93DF93282F30E0F90129
:1006D000E656FE4F8491F901E558FE4FD491F90199
:1006E000E45AFE4FC491CC2391F081110E945C0129
:1006F000EC2FF0E0EE0FFF1FE25BFE4FA591B491EF
:10070000EC91ED2381E090E021F480E002C080E0F4
:1007100090E0DF91CF91089582E00E9463030197FA
:1007200079F481E080932A058091E3049091E404B8
:10073000A091E504B091E6040197A109B1090DC0AB
:1007400010922A058091E3049091E404A091E504BD
:10075000B091E6040196A11DB11D8093E30490932E
:10076000E404A093E504B093E60481E08093E704F9
:1007700008951F93CF93DF93282F30E0F901E656B9
:10078000FE4F8491F901E558FE4FD491F901E45AE6
:10079000FE4FC491CC23C9F0162F81110E945C0139
:1007A000EC2FF0E0EE0FFF1FE05CFE4FA591B4913F
:1007B0008FB7F894111105C09C91ED2FE095E923B6
:1007C00002C0EC91ED2BEC938FBFDF91CF911F9185
:1007D0000895FF920F931F93CF93DF93EC0161E095
:1007E00089890E94B90361E089890E94B9038A89D5
:1007F0000E946303892BD9F360E089890E94B903C1
:1008000060E089890E94B90360E089890E94B90388
:1008100098E0F92E00E010E0000F111F61E08F85D5
:100820000E94B9038A890E946303892B09F0016041
:1008300060E08F850E94B903FA94F110EDCF61E07A
:1008400089890E94B903C801DF91CF911F910F914F
:10085000FF90089504970C94E903CF92DF92EF92F2
:10086000FF920F931F93CF93DF93EC01E62E60E08E
:1008700089890E94B90360E089890E94B90360E018
:1008800089890E94B903DF84C88807E010E0F12C51
:10089000B701002E02C0759567950A94E2F7617062
:1008A00077278C2D0E94B90361E08D2D0E94B9033A
:1008B00060E08D2D0E94B9030150110948F761E0F5
:1008C00089890E94B90381E090E0DF91CF911F9167
:1008D0000F91FF90EF90DF90CF900895CF93DF932B
:1008E00090E0FC01E558FE4F2491FC01E45AFE4FD4
:1008F0008491882361F190E0880F991FFC01EE5CE0
:10090000FE4FC591D491FC01E05CFE4FA591B491DE
:10091000611109C09FB7F89488812095822388834C
:10092000EC912E230BC0623061F49FB7F8943881AC
:10093000822F809583238883EC912E2B2C939FBF4D
:1009400006C08FB7F894E8812E2B28838FBFDF91E4
:10095000CF9108958F929F92AF92BF92CF92DF92E4
:10096000EF92FF926B017C010E9499014B015C01A7
:10097000C114D104E104F104F1F00E949901DC01F9
:10098000CB0188199909AA09BB09883E9340A105A2
:10099000B10570F321E0C21AD108E108F10888EE30
:1009A000880E83E0981EA11CB11CC114D104E1047F
:1009B000F10419F7DDCFFF90EF90DF90CF90BF905B
:1009C000AF909F908F9008952FB7F89460919D05F8
:1009D00070919E0580919F059091A0052FBF08956D
:1009E000CF93DF93EC018A859B85AC85BD858E8393
:1009F0009F83A887B9870E94E4046A837B838C83E2
:100A00009D8381E089838883DF91CF9108951F9230
:100A10000F920FB60F9211242F933F938F939F93B2
:100A2000AF93BF9380919D0590919E05A0919F05E6
:100A3000B091A00530919C0523E0230F2D3720F4C1
:100A40000196A11DB11D05C026E8230F0296A11D28
:100A5000B11D20939C0580939D0590939E05A093C6
:100A60009F05B093A0058091A1059091A205A0914A
:100A7000A305B091A4050196A11DB11D8093A10508
:100A80009093A205A093A305B093A405BF91AF9145
:100A90009F918F913F912F910F900FBE0F901F90BC
:100AA00018951F920F920FB60F9211242F933F9318
:100AB0004F935F936F937F938F939F93AF93BF9366
:100AC000EF93FF93E0910801F09109010995FF91DF
:100AD000EF91BF91AF919F918F917F916F915F91B6
:100AE0004F913F912F910F900FBE0F901F9018952F
:100AF0001F920F920FB60F9211242F933F934F9393
:100B00005F936F937F938F939F93AF93BF93EF9375
:100B1000FF93E0910601F09107010995FF91EF9194
:100B2000BF91AF919F918F917F916F915F914F9105
:100B30003F912F910F900FBE0F901F9018951F920D
:100B40000F920FB60F9211242F933F934F935F9301
:100B50006F937F938F939F93AF93BF93EF93FF9385
:100B6000E0910401F09105010995FF91EF91BF918A
:100B7000AF919F918F917F916F915F914F913F9135
:100B80002F910F900FBE0F901F9018951F920F92EC
:100B90000FB60F9211242F933F934F935F936F9350
:100BA0007F938F939F93AF93BF93EF93FF93E091C6
:100BB0000201F09103010995FF91EF91BF91AF916F
:100BC0009F918F917F916F915F914F913F912F9165
:100BD0000F900FBE0F901F9018951F920F920FB697
:100BE0000F9211242F933F934F935F936F937F93B3
:100BF0008F939F93AF93BF93EF93FF93E091000187
:100C0000F09101010995FF91EF91BF91AF919F91F3
:100C10008F917F916F915F914F913F912F910F90A5
:100C20000FBE0F901F9018951F920F920FB60F9244
:100C300011242F933F934F935F936F937F938F93E1
:100C40009F93AF93BF93EF93FF938091B900887FF9
:100C5000803609F49CC068F5883209F45BC090F4D2
:100C6000803109F454C038F4882309F4F6C0883080
:100C700009F44DC0F6C0883109F44CC0803209F443
:100C80005DC0EFC0803409F468C048F4803309F4D3
:100C900055C0883309F0E5C080937505D8C080350C
:100CA00009F44FC0883509F45DC0883409F0D9C013
:100CB000D6C0883909F4C7C0A8F4883709F467C0DA
:100CC00038F4883609F463C0803709F460C0C9C0BD
:100CD000883809F4B8C0803909F45FC0803809F059
:100CE000C0C05BC0803B09F486C038F4803A09F488
:100CF00066C0883A09F47FC0B4C0803C09F4A7C03C
:100D0000883C09F4A4C0883B09F48AC0AAC0809139
:100D10009B0510C090919A0580919905981770F5E0
:100D2000E0919A0581E08E0F80939A05F0E0E758F4
:100D3000FA4F80818093BB0085EC86C08093750557
:100D40008EC0E0919A0581E08E0F80939A05809184
:100D5000BB00F0E0E758FA4F808390919A058091AC
:100D600099056EC0E0919A0581E08E0F80939A05F7
:100D70008091BB00F0E0E758FA4F808380917805BE
:100D800081116DC081E08093770584EA61C083E0C2
:100D90008093760510927405CFCF809174058032D0
:100DA00008F051C0E091740581E08E0F80937405C6
:100DB0008091BB00F0E0EC5AFA4F8083BDCF85EC08
:100DC0008093BC001092760580917405803230F4D7
:100DD000E0917405F0E0EC5AFA4F108260917405CE
:100DE00070E0E0915205F091530584E595E0099596
:100DF0001092740536C084E08093760510925105F8
:100E000010925005E0914E05F0914F0509958091A3
:100E10005005811105C081E08093500510922E0588
:100E2000E091510581E08E0F80935105F0E0E25D85
:100E3000FA4F80818093BB009091510580915005BD
:100E4000981708F479CF85E88093BC000AC085EC38
:100E50008093BC001092760504C0109275050E9424
:100E6000BF01FF91EF91BF91AF919F918F917F91C2
:100E70006F915F914F913F912F910F900FBE0F9007
:100E80001F9018951F920F920FB60F9211242F9357
:100E90003F934F935F936F937F938F939F93AF9302
:100EA000BF93EF93FF9380912C0587FF05C01092AD
:100EB0008500109284001BC020912C05022E000C8E
:100EC000330B8091BD0690E02817390784F4809198
:100ED0002C05082E000C990BFC01EE0FFF1F8E0F46
:100EE0009F1FFC01E756F94F808186FD15C0809158
:100EF0002C058F5F80932C0520912C05022E000C71
:100F0000330B8091BD0690E028173907C4F4809117
:100F10002C058C3064F113C080912C05082E000C38
:100F2000990BFC01EE0FFF1F8E0F9F1FFC01E75670
:100F3000F94F808160E08F730E94B903D8CF809110
:100F4000840090918500049680349C4918F480E4D4
:100F50009CE905C08091840090918500049690934F
:100F60008900809388008FEF80932C053BC02091EF
:100F700084003091850080912C05082E000C990B7F
:100F8000FC01EE0FFF1F8E0F9F1FFC01E756F94F6C
:100F900081819281820F931F9093890080938800B2
:100FA00080912C05082E000C990BFC01EE0FFF1F01
:100FB0008E0F9F1FFC01E756F94F808186FF12C0FC
:100FC00080912C05082E000C990BFC01EE0FFF1FE1
:100FD0008E0F9F1FFC01E756F94F808161E08F73F0
:100FE0000E94B903FF91EF91BF91AF919F918F91B3
:100FF0007F916F915F914F913F912F910F900FBE15
:101000000F901F901895AF92BF92CF92DF92FF92F0
:101010000F931F93CF93DF9301E017E082E0F82E48
:10102000D1E08CEA95E00E94170D892B09F4ECC2FF
:101030008CEA95E00E94F50CC82F80917A07909178
:101040007B07A0917C07B0917D070196A11DB11D82
:1010500080937A0790937B07A0937C07B0937D07DA
:10106000C43209F4B0C2E0917407C53234F4CA3016
:1010700071F0CD3009F0B4C20AC0CA3241F0CC32AE
:1010800009F0AEC2809161078C2780936107EF3031
:1010900008F08BC2F0E0ED59F84F108280916207A2
:1010A000882309F46BC1209163073FEB320F822F35
:1010B000022E000C990B363010F4C79707C021564A
:1010C000263018F48755910901C0C097282F229522
:1010D000207F309164074FEB430F832F032E000CCA
:1010E000990B463010F4C79707C03156363018F4C4
:1010F0008755910901C0C097820F909161078913AC
:1011000029C18091860790918707A0918807B091A7
:1011100089070196A11DB11D8093860790938707CB
:10112000A0938807B093890780917507882399F069
:1011300080917E0790917F07A0918007B0918107F1
:101140000196A11DB11D80937E0790937F07A09308
:101150008007B0938107D0907207DD2009F46BC03F
:1011600021E0D212D0C08091050790910607A0918E
:101170000707B09108078093010790930207A09397
:101180000307B09304070E94E40460930907709377
:101190000A0780930B0790930C07D0920007D09218
:1011A000FF068091130790911407A0911507B09145
:1011B000160780930F0790931007A0931107B09321
:1011C00012070E94E4046093170770931807809336
:1011D000190790931A07D0920E07D0920D078091AD
:1011E0007507882309F48FC0EDEEF6E0AFEDB6E0A9
:1011F000812F01900D928A95E1F7E4EFF6E0A6EEDB
:10120000B6E0812F01900D928A95E1F70E94E404E7
:101210006093FB067093FC068093FD069093FE0698
:10122000D092DE06D092DD068BE197E00E94F004BA
:1012300089E297E066C08091130790911407A0910E
:101240001507B091160780930F0790931007A0938E
:101250001107B09312070E94E4046093170770937C
:1012600018078093190790931A07D0930E07D0930D
:101270000D0780917507882321F1EDEEF6E0AFEDC3
:10128000B6E0812F01900D928A95E1F7E4EFF6E048
:10129000A6EEB6E0812F01900D928A95E1F70E94AB
:1012A000E4046093FB067093FC068093FD06909324
:1012B000FE06D093DE06D093DD0687E397E00E941A
:1012C000F00480914F0790915007A0915107B09181
:1012D000520780934B0790934C07A0934D07B09310
:1012E0004E070E94E4046093470770934807809379
:1012F000490790934A07D0934607D093450783E563
:1013000097E00E94F004C0907807D0907907C1144C
:10131000D10409F44AC1E0917807F091790766A1F8
:1013200077A1F60186A197A10E94D52E892B09F0FD
:101330003CC1B601C60140960E94DE2E0E94E40424
:10134000F60160A371A382A393A305A304A3C2A47F
:10135000D3A4DDCF8091820790918307A091840769
:10136000B09185070196A11DB11D809382079093CE
:101370008307A0938407B093850717C190917307E3
:10138000911146C067E974E083E697E00E94D52E8C
:10139000892B41F06DE974E083E697E00E94D52E39
:1013A000892B19F4D093720715C063EA74E083E6C1
:1013B00097E00E94D52E892B41F069EA74E083E61C
:1013C00097E00E94D52E892B19F41092720702C063
:1013D000F092720780917607909177079093790742
:1013E00080937807C0907807D0907907C114D10412
:1013F00009F4DBC0F601A6A0B7A063E677E0C5015B
:101400000E94D52E97FFC5C0F60182A593A5E6CF11
:10141000E0917207E23009F491C08091630788235C
:1014200009F48CC020E2E29FF0011124E92B3197EE
:10143000E932F10508F082C0E059FF4F0C94B62E56
:1014400083E697E00E9408036093130770931407E4
:10145000809315079093160771C091E0813409F0CD
:1014600043C043C06DEE76E009C091E0833509F0DA
:1014700090E09093F30662C064EF76E083E697E035
:101480000E9480025BC091E0873509F090E0909364
:10149000FA0654C083E697E00E940803609325078C
:1014A00070932607809327079093280747C083E609
:1014B00097E00E940803609333077093340780938A
:1014C0003507909336073AC083E697E00E94AD2B2C
:1014D00060930507709306078093070790930807AA
:1014E0002DC091E081330CF490E09093750726C0F5
:1014F00083E697E00E94AD2B60934F0770935007EF
:10150000809351079093520719C083E697E00E9499
:10151000080360935D0770935E0780935F07909365
:1015200060070CC083E697E00E94080360934107C0
:10153000709342078093430790934407C0907807C5
:10154000D0907907C114D10481F1E0917807F0912E
:10155000790766A177A1F60186A197A10E94D52EF1
:10156000892B19F5F60120A531A58091730790E02C
:1015700082179307D4F02817390739F440E150E077
:1015800063E677E0C6010E94E52EF601C2A4D3A46B
:10159000D9CF63E677E0C5010E94D52E181619064B
:1015A00024F41092790710927807809173078F5F67
:1015B000809373071092740781E0CA3209F080E0CB
:1015C000809362072ECD10927407109273071092C9
:1015D0006107F0927207109262071092750721CD91
:1015E000EE3040F481E08E0F80937407F0E0ED5907
:1015F000F84FC08380916207811113CD80916107FC
:10160000C827C09361070DCD80911C07882309F47A
:1016100008CDDF91CF911F910F91FF90DF90CF9078
:10162000BF90AF9008950C94F12B0C94E92B80910E
:101630002301909124012AE030E0B9010E94A22EFA
:10164000CB017093C8066093C706B9010E94A22E11
:101650007093C6066093C5069093C4068093C30634
:10166000680F791F77FF03C086E793E002C085E526
:1016700092E00E9469138091C5069091C60697FF7B
:1016800007C09195819591099093C6068093C506F0
:101690008091C5069091C6060E9491138FEA94E04E
:1016A0000E9469138091C3069091C40697FF07C0FA
:1016B0009195819591099093C4068093C30680917A
:1016C000C3069091C4060E9491138091140188234F
:1016D00019F08DE993E002C082EA93E00C9469135B
:1016E000CF938091E704882391F18091E304909156
:1016F000E404A091E504B091E604181619061A0650
:101700001B0664F41092E3041092E4041092E504C2
:101710001092E6041092E70481E065C08091E30432
:101720009091E404A091E504B091E604B7FF0CC0E9
:101730001092E3041092E4041092E5041092E6047F
:101740001092E70482E04FC01092E7044BC084E09F
:101750000E946303C0912B05892BE9F4CF5FC093EE
:101760002B056CE271E080E090E00E94AA04C83092
:10177000C0F110922B050E94651384E10E9442146F
:1017800060E070E080E090E00E942E1487EB94E02F
:101790000E9469131DC0CC2329F110922B050E94D1
:1017A000651384E10E94421460E070E080E090E004
:1017B0000E942E1481EB94E00E94691368EE73E09E
:1017C00080E090E00E94AA040E94651384E00BC0B0
:1017D00084E00E946303892BD9F30E94651388E09B
:1017E00002C002C080E190E0CF910895CF93DF93D3
:1017F000EC0161E08F850E946E0461E088890E949F
:101800006E0461E089890E946E0461E089890E940A
:10181000B90360E08F850E94B90360E088890E9467
:10182000B9038A89882329F060E0DF91CF910C9475
:101830006E04DF91CF9108954091A7055091A805BE
:101840002091A5053091A60542175307B4F4909155
:10185000E8009570E1F39091E80092FD19C0809343
:10186000F1008091A7059091A80501968F739927A3
:10187000892B19F48EEF8093E8008091A705909151
:10188000A80501969093A8058093A70581E0089587
:1018900080E00895CF92DF92EF92FF920F931F9313
:1018A000CF93DF931F92CDB7DEB7182F062FE42E0C
:1018B000862F880F8E5F99830E941C0C83E00E9404
:1018C0001C0CF12EC12E9981D92E8C2D8F198017C9
:1018D00098F4F601E7FE02C0849101C080810E9465
:1018E0001C0C182F80E00E941C0C8123FFEFCF1AE4
:1018F000DF0A8111EACF01C081E00F90DF91CF9123
:101900001F910F91FF90EF90DF90CF900895DF929D
:10191000EF92FF920F931F93CF93DF93D82E8A01FC
:101920007B01E40EF51EEB01CE15DF0571F0D7FE4D
:1019300003C0FE01849101C088810E941C0C219685
:101940008111F2CF8FEF9FEF01C0C801DF91CF91DE
:101950001F910F91FF90EF90DF900895615030F04C
:101960002091F100FC0120830196F8CF289884E6AD
:101970008093AA050895CF92DF92EF92FF920F9382
:101980001F93CF93DF936C017A018B01C0E0D0E00D
:10199000CE15DF0589F0D8016D918D01D601ED914D
:1019A000FC910190F081E02DC6010995892B11F47D
:1019B0007E0102C02196ECCFC701DF91CF911F912C
:1019C0000F91FF90EF90DF90CF900895FC01538D21
:1019D000448D252F30E0842F90E0821B930B541709
:1019E00010F0CF96089501970895FC01918D828D96
:1019F000981761F0828DDF01A80FB11D5D968C9163
:101A0000928D9F5F9F73928F90E008958FEF9FEF6D
:101A10000895FC01918D828D981731F0828DE80F29
:101A2000F11D858D90E008958FEF9FEF0895FC01E3
:101A3000918D228D892F90E0805C9F4F821B9109B0
:101A40008F73992708958CEA95E00E94170D21E085
:101A5000892B09F420E0822F0895FC01848DDF0199
:101A6000A80FB11DA35ABF4F2C91848D90E0019611
:101A70008F739927848FA689B7892C93A089B18900
:101A80008C9180648C93938D848D981306C002880A
:101A9000F389E02D80818F7D80830895EF92FF92FE
:101AA0000F931F93CF93DF93EC0181E0888F9B8D81
:101AB0008C8D981305C0E889F989808185FD24C043
:101AC000F62E0B8D10E00F5F1F4F0F731127E02EC6
:101AD0008C8DE8120CC00FB607FCFACFE889F989A3
:101AE000808185FFF5CFCE010E942D0DF1CF8B8D2A
:101AF000FE01E80FF11DE35AFF4FF0820B8FEA89D8
:101B0000FB898081806207C0EE89FF896083E88954
:101B1000F98980818064808381E090E0DF91CF91BA
:101B20001F910F91FF90EF900895CF93DF93EC01F9
:101B3000888D8823C9F0EA89FB89808185FD05C0ED
:101B4000A889B9898C9186FD0FC00FB607FCF5CF27
:101B5000808185FFF2CFA889B9898C9185FFEDCF6F
:101B6000CE010E942D0DE7CFDF91CF91089580E047
:101B700090E0892B29F00E94230D81110C94000024
:101B80000895CF93DF931F92CDB7DEB76983DC0151
:101B9000ED91FC910280F381E02D41E050E0BE0127
:101BA0006F5F7F4F09950F90DF91CF91089583E08C
:101BB0008093E9008091F200882319F08AE38093F2
:101BC000E80008950E94D02E0F931F93CF93DF93C8
:101BD0001F92CDB7DEB782E0898342E450E069EB23
:101BE00071E080E80E94870C0E947215DC01129659
:101BF0000D911C9113970115110569F0D801ED9114
:101C0000FC910280F381E02DBE016F5F7F4FC80120
:101C1000099597FF07C089810F90DF91CF911F91A0
:101C20000F910895F80100851185E5CF8F929F925D
:101C3000AF92BF92CF92DF92EF92FF920F931F93DA
:101C4000CF93DF935C016B017A018091340188238B
:101C500009F45BC08091AB05882309F456C08091DC
:101C6000D90480FF05C08091E00082608093E0008D
:101C7000E70110E00AEF83E0882E9AE3992E20977F
:101C8000D9F10E94611581110AC0015009F43DC0CB
:101C900061E070E080E090E00E94AA04F0CF282F7D
:101CA00030E0C217D3070CF48C2F4FB7F894809212
:101CB000E9009091E80095FF1DC0282F30E0C21B7D
:101CC000D30BF601982F915020F081918093F10071
:101CD000FACFC20ED31E112319F09092E80009C06A
:101CE0008091E80085FD06C09092E80011E0209701
:101CF00009F010E04FBFC3CF1111C3CF5D9884E648
:101D00008093A9051E141F0444F081E090E0F501C2
:101D10009383828380E090E001C0C701DF91CF917F
:101D20001F910F91FF90EF90DF90CF90BF90AF90F9
:101D30009F908F9008950E94611590E00895CF9331
:101D4000DF931F92CDB7DEB7FC018485958597FDA3
:101D500005C02FEF3FEF358724870BC0CE010196DA
:101D60000E943715019719F4898190E002C08FEF26
:101D70009FEF0F90DF91CF9108950F931F93CF9313
:101D8000DF931F92CDB7DEB78C01FC01848595856A
:101D900097FF0EC0CE0101960E943715019719F4E6
:101DA000298130E002C02FEF3FEFF801358724870B
:101DB000F801848595850F90DF91CF911F910F9148
:101DC00008951F920F920FB60F9211248F939F9335
:101DD0008091E1009091E100937F9093E10083FF77
:101DE0000FC01092E90091E09093EB001092EC008C
:101DF00092E39093ED001092AB0598E09093F00081
:101E000082FF20C093E09093E9009091F200992323
:101E100019F09AE39093E8009091A905992339F07D
:101E20009091A90591509093A905992389F19091DA
:101E3000AA05992339F09091AA0591509093AA058B
:101E4000992341F184FF10C08091E2008E7E816071
:101E50008093E2008091E1008F7E8093E100809189
:101E6000D9048E7E806111C080FF16C08091E2008F
:101E70008E7E80618093E2008091E1008E7E80936F
:101E8000E1008091D9048E7E81608093D90404C0E2
:101E90005D9ACDCF289AD6CF9F918F910F900FBE8C
:101EA0000F901F9018951F920F920FB60F9211244A
:101EB000CF92DF92EF92FF920F931F932F933F9356
:101EC0004F935F936F937F938F939F93AF93BF9342
:101ED000EF93FF93CF93DF93CDB7DEB76C97DEBF61
:101EE000CDBF1092E9008091E80083FFEDC168E06A
:101EF000CE0145960E94AE0C82EF8093E8008D895A
:101F000087FF05C09091E80090FFFCCF03C09EEFD3
:101F10009093E800982F907609F0C6C09E892F898B
:101F2000188D91110CC0803829F48091DA048093C7
:101F3000F10002C01092F1001092F10048C1422F4E
:101F400050E0512B913051F4811141C14130510584
:101F500009F03DC18091DA048D7F0BC0933061F4AC
:101F6000811135C14130510509F031C18091DA0448
:101F700082608093DA042BC1953041F48091E800AF
:101F800080FFFCCF20682093E30021C1963009F048
:101F90005FC0EB8CFC8C1092E9001092A8051092A7
:101FA000A705123091F51092A6051092A5050E9482
:101FB000E40D99E0BE016F5F7F4FDB01E92F1D92B9
:101FC000EA95E9F799831A8391E09E8390EA9887CE
:101FD0009AEF99872091A7053091A805275F3F4F79
:101FE0003C832B838D831092E9001092A8051092F8
:101FF000A705F092A605E092A50549E050E080E033
:102000000E94870C0E94E40DE2C0F092A605E092C7
:10201000A5050E947215DC011296ED90FC901397B5
:10202000E114F10409F4C0C0D701ED91FC910480E2
:10203000F581E02DBE016B5E7F4FC70109950097CA
:1020400019F00CF0C4C0C7C0F701E084F184E8CFF8
:10205000973009F4C0C0983021F481E08093F100FA
:10206000B6C0993009F0B3C0837009F0B4C0E1E59F
:10207000F1E081E021E036E39081992361F08093E3
:10208000E9002093EB0091919093EC003093ED00E8
:102090008F5F873089F78EE78093EA001092EA001D
:1020A0008F898093AB0593C08B8D9C8D1092E90036
:1020B0001092A8051092A7059093A6058093A505F8
:1020C000898D811156C08E899D89913A59F481324A
:1020D00009F081C047E050E06DE271E080E00E94CD
:1020E000870C75C0913209F076C0833289F4888DEF
:1020F00090E0982F88272F89822BA0E0B0E0809372
:10210000290190932A01A0932B01B0932C015FC069
:10211000803269F48091E80082FFFCCF67E08DE2B5
:1021200091E00E94AE0C8BEF8093E80006C08232F3
:1021300009F04DC08F89809334018091D8048823A1
:1021400019F0EEEFFAE002C0E0E0F8E080912D0136
:1021500090912E01A0912F01B0913001803B9440CD
:10216000A105B10509F07BC08091340180FF93C0C7
:1021700076C00E947215DC0112960D911C91139786
:102180000115110541F1D801ED91FC910190F0810B
:10219000E02DBE016B5E7F4FC8010995811117C00C
:1021A000F80100851185ECCF113009F44EC01330D1
:1021B00091F48F89882309F445C0823081F440E886
:1021C00060E18DE192E00E944A0C882321F08EEFBD
:1021D0008093E80079C081E28093EB0075C0813084
:1021E00029F440E86BE081E192E0EDCF833099F78C
:1021F0000E947215DC011296ED90FC9013978E01EF
:102200000F5F1F4F6801E114F10479F0D701ED91E0
:10221000FC910680F781E02DB801C7010995080FF0
:10222000111DF701E084F184EECFD8011C92F60174
:1022300001900020E9F73197BF016C197D0940E05A
:10224000C601C1CF6BEF71E002C06FEF71E06115A5
:10225000710509F2FB01449150E080E840CF0FB6D0
:10226000F894A89580916000886180936000109236
:1022700060000FBEA895EE3F2AE0F20739F080918A
:10228000FE0A9091FF0A91838083A1CF1092FF0AEA
:102290001092FE0A9CCFEE3F8AE0F80731F0808171
:1022A00091819093FF0A8093FE0A87E797E79183D5
:1022B00080839BE088E10FB6F894A8958093600036
:1022C0000FBE9093600083CF6C960FB6F894DEBF7C
:1022D0000FBECDBFDF91CF91FF91EF91BF91AF9135
:1022E0009F918F917F916F915F914F913F912F912E
:1022F0001F910F91FF90EF90DF90CF900F900FBE46
:102300000F901F901895DC01ED91FC910190F081E8
:10231000E02D09946115710579F0FB010190002011
:10232000E9F73197AF01461B570BDC01ED91FC91AA
:102330000280F381E02D099480E090E008954F92AF
:102340005F926F927F92EF92FF920F931F93CF93C2
:10235000DF93CDB7DEB7A1970FB6F894DEBF0FBEFF
:10236000CDBF7C01FA01CB0119A2223008F42AE08A
:102370008E010F5D1F4F422E512C612C712CBF011D
:10238000A30192010E94122CF901CA010150110906
:102390006A3014F4605D01C0695CD8016C93232B32
:1023A000242B252B61F7B801C7010E948A11A19641
:1023B0000FB6F894DEBF0FBECDBFDF91CF911F9156
:1023C0000F91FF90EF907F906F905F904F900895E6
:1023D0004F925F926F927F928F929F92AF92BF9235
:1023E000CF92DF92EF92FF92CF93DF93EC016A01DD
:1023F0007B01B22E9A01AB01C701B6010E94812E6A
:10240000882319F06CEB74E027C026013701E894AB
:1024100077F82FEF3FEF4FE75FE7C301B2010E946C
:10242000812E81110DC02FEF3FEF4FE75FE7C30112
:10243000B2010E94B02C18161CF460EC74E00CC0C1
:102440002FEF3FEF4FE75FE4C701B6010E940F2E69
:1024500018169CF464EC74E0CE01DF91CF91FF90EC
:10246000EF90DF90CF90BF90AF909F908F907F9034
:102470006F905F904F900C948A112FEF3FEF4FE7D2
:102480005FECC701B6010E94B02C87FDE3CF20E0CE
:1024900030E0A901C701B6010E94B02C87FF0AC035
:1024A0006DE2CE010E9483114C01F7FAF094F7F827
:1024B000F09402C0812C912CA12C60E070E080E0AF
:1024C0009FE3AB1441F020E030E040E251E40E9491
:1024D000B52CA394F6CF9B01AC01C701B6010E94B5
:1024E000442C2B013C010E942E2D6B017C010E948B
:1024F0005D2D9B01AC01C301B2010E94432C2B0155
:102500003C012AE0B701A601CE010E949F117C0187
:10251000E80CF91CBB2031F06EE2CE010E94831161
:10252000E80EF91EDB2CDD2029F120E030E040E24E
:1025300051E4C301B2010E94142E2B013C010E9400
:102540002E2D4B01A12CB12C2AE0B501A401CE0106
:102550000E949F11E80EF91EC501B4010E945D2D75
:102560009B01AC01C301B2010E94432C2B013C0131
:10257000DA94D9CFC701DF91CF91FF90EF90DF9030
:10258000CF90BF90AF909F908F907F906F905F9013
:102590004F9008950F931F93CF93DF93EC010E9408
:1025A0008A118C0168EC74E0CE010E948A11800FC0
:1025B000911FDF91CF911F910F9108951F920F925C
:1025C0000FB60F9211242F933F934F935F936F9306
:1025D0007F938F939F93AF93BF93EF93FF938CEA77
:1025E00095E00E942D0DFF91EF91BF91AF919F91CA
:1025F0008F917F916F915F914F913F912F910F90AC
:102600000FBE0F901F9018951F920F920FB60F924A
:1026100011242F938F939F93EF93FF93E091BC0529
:10262000F091BD058081E091C205F091C30582FD66
:1026300012C090818091C5058F5F8F732091C60570
:10264000821751F0E091C505F0E0E455FA4F958FFF
:102650008093C50501C08081FF91EF919F918F917B
:102660002F910F900FBE0F901F901895CF93DF936F
:10267000EC01E091C906F091CA060190F081E02DCD
:102680008F3F910510F4682F0DC06FEF89EC96E035
:102690000995E091C906F091CA066C2F6F5F019011
:1026A000F081E02D89EC96E0DF91CF910994CF93F2
:1026B000DF93EC016991662329F089EC96E00E9492
:1026C0002D04F8CFDF91CF9108958BEC94E00C941A
:1026D0005713CF93DF93EC0183EB92E00E945713E3
:1026E000BE0189EC96E00E948A1160E089EC96E0D8
:1026F000DF91CF910C942D04CF93C82F83EB92E000
:102700000E9457134C2F50E060E070E02AE089EC03
:1027100096E00E949F1160E089EC96E0CF910C94C6
:102720002D04CF92DF92EF92FF926C0183EB92E047
:102730000E9457130D2C000CEE08FF08F7FE0EC088
:102740006DE289EC96E00E94831144275527BA0177
:102750004C195D096E097F092AE003C02AE0B70120
:10276000A60189EC96E00E949F1160E089EC96E05A
:10277000FF90EF90DF90CF900C942D04CF93DF93D8
:1027800000D000D0CDB7DEB7AB01BC0183EB92E047
:1027900049835A836B837C830E94571322E04981CB
:1027A0005A816B817C8189EC96E00E94E81160E09F
:1027B00089EC96E00F900F900F900F90DF91CF91E2
:1027C0000C942D04CF93DF93D82FC62F8EEC94E07A
:1027D0000E9457136D2F89EC96E00E942D046C2FF8
:1027E00089EC96E0DF91CF910C942D04AC0190918F
:1027F000C0069C3090F58091C10628E830E0281B87
:10280000310987FD3395220F331F220F331F4217E3
:10281000530784F08091C20628E532E0281B310975
:1028200087FD3395220F331F220F331F42175307A3
:102830000CF49A0122503109220F331F4FB7F8943C
:10284000892F90E0FC01EE0FFF1F8E0F9F1FFC01F0
:10285000E756F94F328321834FBF08950F931F939B
:10286000CF93DF938C01EB0182ED94E00E9457132C
:10287000C8010E943613CE01DF91CF911F910F91B5
:102880000C943613CF93DF931F92CDB7DEB7682F2A
:1028900085ED94E069830E945713E091C906F09199
:1028A000CA060190F081E02D698189EC96E00F90D5
:1028B000DF91CF9109944F925F926F927F928F92A6
:1028C0009F92AF92BF92CF92DF92EF92FF920F93BF
:1028D0001F93CF93DF9300D000D0CDB7DEB74B016D
:1028E0005C0129013A01670178010091B00710915C
:1028F000B10720E030E0A9010E94B02C87FDA2C002
:1029000020E030E0A901C301B2010E94B02C87FD94
:1029100099C020E030E0A901C701B6010E94B02CA7
:1029200087FD90C081E00130110509F080E08093BF
:10293000D1078092960790929707A0929807B0923D
:10294000990740929A0750929B0760929C07709259
:102950009D07C0929E07D0929F07E092A007F09239
:10296000A1076091C4077091C5078091C607909137
:10297000C7070E945D2D20E030E04AE754E40E9442
:10298000B52C69837A838B839C838092A207909273
:10299000A307A092A407B092A5079B01AC01C301B5
:1029A000B2010E94142E2B013C016093A607709384
:1029B000A7078093A8079093A90729813A814B81A3
:1029C0005C81C701B6010E94B52C6B017C0160934C
:1029D000AA077093AB078093AC079093AD078091E3
:1029E000AE079091AF07019769F5A501940160E0EA
:1029F00070E0CB010E94432C6093A2077093A30761
:102A00008093A4079093A507A301920160E070E072
:102A1000CB010E94432C6093A6077093A707809375
:102A2000A8079093A907A701960160E070E0CB0189
:102A30000E94432C6093AA077093AB078093AC0766
:102A40009093AD070F900F900F900F90DF91CF9163
:102A50001F910F91FF90EF90DF90CF90BF90AF90BC
:102A60009F908F907F906F905F904F900895FC01A2
:102A70008091AB05811103C08FEF9FEF08959FB741
:102A8000F89482E08093E9002091F20030E0121681
:102A9000130614F421E030E02115310559F028988F
:102AA00084E68093AA058091F10080838091F200F2
:102AB000882319F09FBFC90108958BE68093E80031
:102AC000F9CF2FB7F89483E08093E9009091E80064
:102AD000892F807295FF04C09091F20080E4891BD9
:102AE0002FBF08958091D60781110DC082E0809399
:102AF000D20784E08093D3071092D5071092D407B1
:102B000081E08093D60782ED97E00895CF93DF931D
:102B1000CDB7DEB7A5970FB6F894DEBF0FBECDBF19
:102B2000789484B5826084BD84B5816084BD85B5A8
:102B3000826085BD85B5816085BD80916E008160B4
:102B400080936E001092810080918100826080935A
:102B5000810080918100816080938100809180005C
:102B600081608093800080919100826080939100C9
:102B700080919100816080939100809190008160AC
:102B8000809390008091C10084608093C100809107
:102B9000C10082608093C1008091C10081608093F8
:102BA000C1008091C30081608093C3008091C00008
:102BB00082608093C0008091C20081608093C200D7
:102BC00080917A00846080937A0080917A0082609C
:102BD00080937A0080917A00816080937A0080915E
:102BE0007A00806880937A001092AB051092DA0424
:102BF0001092D9048091D70081608093D70080EA39
:102C00008093D80089B5806189BD89B5826089BD0E
:102C100009B400FEFDCF61E070E080E090E00E942A
:102C2000AA048091D8008F7C80618093D800809125
:102C3000E000807F8093E0008091E1008E7E8093B1
:102C4000E1008DE08093E200559A209AEEEFFFE7D5
:102C5000859194918B3F9C4D19F481E08093D80429
:102C60008FEF9FEF909356068093550668EE73E0C2
:102C700080E090E00E94AA04E091BC05F091BD05BF
:102C800082E08083E091B805F091B9051082E0916F
:102C9000BA05F091BB058FEC80831092C405E091DA
:102CA000C005F091C10586E08083E091BE05F091FA
:102CB000BF05808180618083E091BE05F091BF05F2
:102CC000808188608083E091BE05F091BF0580819E
:102CD00080688083E091BE05F091BF0580818F7D83
:102CE000808368EE73E080E090E00E94AA0489ECA3
:102CF00096E00E94F60B0E94651364E670E080E0A7
:102D000090E00E94AA048EE10E94421461E070E00B
:102D100080E090E00E942E1483E592E00E94691307
:102D200064E670E080E090E00E94AA0485EA91E009
:102D30000E94691368EE73E080E090E00E94AA04AC
:102D400063E070E080E090E00E942E1480EB91E060
:102D50000E94691382E10E947C1368E873E180E0BD
:102D600090E00E94AA040E94651364EF71E080E085
:102D700090E00E94AA0462E070E080E090E00E948F
:102D80002E148EE10E9442148CEB91E00E94691394
:102D900063E070E080E090E00E942E148DEC91E002
:102DA0000E94691368EE73E080E090E00E94AA043C
:102DB00060E082E00E946E0460E083E00E946E04A6
:102DC00062E084E00E946E048CE893E0909301013D
:102DD0008093000180916900836080936900E89A84
:102DE00084E292E0909309018093080180916A0047
:102DF0008F7C806180936A00EE9A8091C0068C304F
:102E000008F051C061E085E00E946E048091C00628
:102E1000E82FF0E09F01220F331FE20FF31FE75668
:102E2000F94F9081907C956090831092C10610922A
:102E3000C2066CE00E94962E3CE0839FB0011124F4
:102E400040E050E09A01260F371FF901EE0FFF1FF7
:102E50002E0F3F1FF901E756F94F908196FD16C0DE
:102E60004F5F5F4F4C30510569F781110FC01092D1
:102E7000800082E08093810010928500109284008F
:102E8000B19A80916F00826080936F00E091C006DC
:102E9000F0E0CF01880F991FE80FF91FE756F94FAF
:102EA0008081806480838091BE069091BF060E94DD
:102EB000F6136091010570910205072E000C880B36
:102EC000990B0E945F2D60939207709393078093F4
:102ED0009407909395076091230170912401072E28
:102EE000000C880B990B0E945F2D60938A077093EA
:102EF0008B0780938C0790938D078091D007811169
:102F000048C0E091B407F091B507C080D180E2805D
:102F1000F380C092BC07D092BD07E092BE07F0924A
:102F2000BF07E091B207F091B30780819181A28140
:102F3000B3818093C0079093C107A093C207B09359
:102F4000C3078090CC079090CD07A090CE07B0909B
:102F5000CF07A5019401C701B6010E940F2E1816D4
:102F600084F08090C8079090C907A090CA07B090DD
:102F7000CB07A5019401C701B6010E94B02C87FFC1
:102F800008C08092BC079092BD07A092BE07B09285
:102F9000BF0781E08093D007E3E0F5E01192119242
:102FA00045E0E731F407D1F78BE090E00E94150B84
:102FB0008F3F11F0809311018CE090E00E94150B7F
:102FC0008F3F71F0682F70E080E090E00E945D2DEF
:102FD0006093150170931601809317019093180167
:102FE0008DE090E00E94150B8F3F71F0682F70E02C
:102FF00080E090E00E945D2D60931D0170931E01A2
:1030000080931F01909320018EE090E00E94150BA9
:103010008F3F71F0682F70E080E090E00E945D2D9E
:103020006093190170931A0180931B0190931C0106
:1030300080E190E00E94150B8F3F41F05AE0859FA0
:10304000C0011124909327018093260181E190E033
:103050000E94150B8F3F41F0AAE08A9FC001112406
:10306000909336018093350182E190E00E94150B28
:103070008F3F31F091E0811101C090E090931401F5
:103080008DE190E00E94150B8F3F31F091E08111AE
:1030900001C090E090930A018EE190E00E94150B30
:1030A0008F3F41F0B4E68B9FC0011124909324011F
:1030B000809323018FE190E00E94150B8F3F31F048
:1030C00091E0811101C090E09093FB046091260192
:1030D00070912701072E000C880B990B0E945F2D21
:1030E0004B015C016091350170913601072E000C97
:1030F000880B990B0E945F2D6B017C01A501940147
:103100000E940F2E87FF65C0C092C807D092C907E2
:10311000E092CA07F092CB078092CC079092CD073D
:10312000A092CE07B092CF070091B4071091B507D7
:10313000F8014080518062807380A5019401C30131
:10314000B2010E940F2E18163CF4D8018D929D9268
:10315000AD92BC9213970DC0A7019601C301B201B5
:103160000E94B02C87FF05C0F801C082D182E282A4
:10317000F3828090BC079090BD07A090BE07B090EE
:10318000BF07C090CC07D090CD07E090CE07F0905D
:10319000CF07A7019601C501B4010E940F2E181692
:1031A00084F0C090C807D090C907E090CA07F0909B
:1031B000CB07A7019601C501B4010E94B02C87FF7F
:1031C00008C0C092BC07D092BD07E092BE07F09243
:1031D000BF076CED71E08CEA95E00E94CA1264E6CC
:1031E00070E080E090E00E94AA046EE072E08CEA59
:1031F00095E00E94CA1264E670E080E090E00E94D0
:10320000AA0480912801882341F00E94651364E696
:1032100070E080E090E00E94AA0480912505882358
:1032200039F060E08DE00E94B9031092250507C0D7
:1032300061E08DE00E94B90381E0809325050E9442
:10324000030880911B07882301F110921C076091ED
:1032500021077091220780912307909124070E94F3
:103260005F2D2EEB3CE443E95FE30E94142E20E047
:1032700030E048EC52E40E94B52C60932105709335
:103280002205809323059093240520E030E048EC4C
:1032900052E460912105709122058091230590915F
:1032A00024050E94142E0E94272D6B017C0170932F
:1032B000200560931F054090DF045090E00460906B
:1032C000E1047090E2046091DB047091DC04809171
:1032D000DD049091DE041092DF041092E00410925D
:1032E000E1041092E2041092DB041092DC041092CC
:1032F000DD041092DE040E945D2D20E03BE147EBEF
:103300005AE40E94142E4B015C01C301B2010E94D9
:103310005D2D9B01AC01C501B4010E94B52C4B0190
:103320005C016091110170E080E090E00E945F2DEF
:103330009B01AC01C501B4010E94B52C0E94272D50
:103340009B01AC01AAE0B0E00E94FF2BCB01770FFC
:10335000AA0BBB0B80931B0590931C05A0931D0526
:10336000B0931E058091170590911805FC01EE0F92
:10337000FF1FED5FFA4F2091190530911A0540812A
:103380005181241B350BD182C082C20ED31ED09234
:103390001A05C092190501968A3091052CF4909374
:1033A00018058093170504C0109218051092170590
:1033B000C6016AE070E00E94A22E7093020560933D
:1033C00001052091BE063091BF06809126019091A3
:1033D00027012817390709F085C0C090FD04D09057
:1033E000FE04E090FF04F09000050E94E404C6167D
:1033F000D706E806F90608F075C00E94E404DC016F
:10340000CB018053984FAF4FBF4F8093FD049093F3
:10341000FE04A093FF04B093000582E10E944214D1
:1034200060E070E080E090E00E942E148EE192E077
:103430000E94691361E070E080E090E00E942E1429
:1034400081E392E00E9469130E94030880911B07A8
:10345000882301F110921C076091210770912207C7
:1034600080912307909124070E945F2D2EEB3CE46E
:1034700043E95FE30E94142E20E030E048EC52E480
:103480000E94B52C6093210570932205809323053B
:103490009093240520E030E048EC52E4609121054F
:1034A0007091220580912305909124050E94142E8D
:1034B0000E94272D7093200560931F0560E070E047
:1034C00080E090E00E942E1484E492E00E94691350
:1034D00061E070E080E090E00E942E1484E492E0CD
:1034E0000E9469138091FC04811109C0809135010B
:1034F000909136019093BF068093BE0627C281301B
:1035000019F41092250103C081E080932501809178
:1035100025010091230110912401882349F0609135
:103520001F0570912005072E000C880B990B08C011
:1035300060911B0570911C0580911D0590911E05E1
:103540000E945F2D60939207709393078093940776
:1035500090939507B801110F880B990B0E945F2D6E
:1035600060938A0770938B0780938C0790938D07E5
:10357000409192075091930760919407709195073D
:1035800022E089E496E00E94E81167E572E089E4B0
:1035900096E00E948A1140918A0750918B076091B2
:1035A0008C0770918D0722E089E496E00E94E81173
:1035B0006FE572E089E496E00E948A1120919207FB
:1035C00030919307409194075091950760918A0735
:1035D00070918B0780918C0790918D070E94432CEE
:1035E0006B017C0120E030E0A9010E940F2E18162B
:1035F00024F0F7FAF094F7F8F09420E030E040E29D
:1036000051E4C701B6010E94B52C6B017C0122E098
:10361000AB01BC0189E496E00E94E81168E672E023
:1036200089E496E00E948A1120E030E048E452E408
:10363000C701B6010E94B02C809015019090160130
:10364000A0901701B090180187FF05C08501740193
:10365000A501940110C0E0901D01F0901E010091A1
:103660001F01109120012091190130911A01409100
:103670001B0150911C01C501B4010E945B14809193
:10368000D007882309F441C10E94E404698F7A8F2E
:103690008B8F9C8F8091B8079091B907A091BA0742
:1036A000B091BB07498D5A8D6B8D7C8D481B590B92
:1036B0006A0B7B0B8091C4079091C507A091C60748
:1036C000B091C707481759076A077B0708F41DC15F
:1036D000E091B207F091B30740805180628073801F
:1036E000E091B607F091B707A30192016081718163
:1036F000828193810E94432C6B017C012091C00741
:103700003091C1074091C2075091C307C301B20174
:103710000E94432C6D8F7E8F8F8F98A32091A607D8
:103720003091A7074091A8075091A907C701B6019A
:103730000E94142E2091BC073091BD074091BE0716
:103740005091BF070E94442C4B015C016093BC0761
:103750007093BD078093BE079093BF07F091D10788
:10376000F9A3F1111CC02091A2073091A307409149
:10377000A4075091A5076D8D7E8D8F8D98A10E9415
:10378000142E9B01AC01C501B4010E94432C60932F
:10379000BC077093BD078093BE079093BF0720912D
:1037A000BC073091BD074091BE075091BF072AA3C7
:1037B0003BA34CA35DA33090CC072090CD07009194
:1037C000CE071091CF07232D322DA8016AA17BA12E
:1037D0008CA19DA10E940F2E181664F4832D922DAA
:1037E000D8018093BC079093BD07A093BE07B09308
:1037F000BF071AC08090C8079090C907A090CA0759
:10380000B090CB07A50194016AA17BA18CA19DA1D9
:103810000E94B02C87FF08C08092BC079092BD0721
:10382000A092BE07B092BF0739A1332379F020914F
:10383000A2073091A3074091A4075091A507C701A3
:10384000B6010E94142E6B017C0103C0C12CD12C47
:1038500076012091AA073091AB074091AC075091B7
:10386000AD076D8D7E8D8F8D98A10E94142E9B01CA
:10387000AC016091BC077091BD078091BE0790912B
:10388000BF070E94432C9B01AC01C701B6010E94F7
:10389000442C6B017C01232D322DA8010E940F2E98
:1038A0001816A4F03090C8072090C9070091CA07E5
:1038B0001091CB07232D322DA801B601C7010E941C
:1038C000B02C87FD03C03C2C2D2C8701E091B40760
:1038D000F091B507832D922DD80180839183A28327
:1038E000B3834092C0075092C1076092C2077092A2
:1038F000C307898D9A8DAB8DBC8D8093B80790934B
:10390000B907A093BA07B093BB0740918E075091B7
:103910008F07609190077091910722E089E496E00B
:103920000E94E8116EE672E089E496E00E948A1136
:1039300060918E0770918F07809190079091910709
:103940000E94272D7093BF066093BE062091FB0452
:103950008091BE069091BF06222371F040913501FF
:10396000509136012091260130912701240F351FF7
:10397000D901A81BB90BCD010E94F6138091230138
:10398000909124012AE030E0B9010E94A22E7093A8
:10399000C8066093C70680911F0590912005B90164
:1039A0000E94A22E7093FA046093F90410920E07FD
:1039B000C0900F07D0901007E0901107F090120709
:1039C000C701B60120E432E44FE050E00E94122C1F
:1039D0008091120190911301820F911D97FD4896DD
:1039E0009093F3048093F204C701B60120E137E21B
:1039F00040E050E00E94122CCA01B90124E630E0F8
:103A000040E050E00E94122C7093F1046093F004A7
:103A1000C701B60124E630E040E050E00E94122CDD
:103A2000CA01B90124E630E040E050E00E94122CC7
:103A30007093EF046093EE048AE00E94421461E008
:103A400070E080E090E00E942E148091F20490914A
:103A5000F3040E94911387E792E00E94691380911A
:103A6000F0049091F1040A9724F489E792E00E940F
:103A700069138091F0049091F1040E94911387E7FB
:103A800092E00E9469138091EE049091EF040A97EE
:103A900024F489E792E00E9469138091EE049091EA
:103AA000EF040E94911382E592E00E9469138AE07C
:103AB0000E94421463E070E082E190E00E942E14C4
:103AC0006EEF82E00E94E2138BE792E00E9469139E
:103AD00064E070E082E190E00E942E146DEF82E0DD
:103AE0000E94E21380911401882319F08FE792E07D
:103AF00002C083E892E00E94691360E070E080E019
:103B000090E00E942E1487E892E00E946913C09012
:103B1000EA04D090EB04E090EC04F090ED040E94F5
:103B2000E404C616D706E806F90608F051C00E945C
:103B3000E404DC01CB018C509E4FAF4FBF4F80930C
:103B4000EA049093EB04A093EC04B093ED0400918D
:103B50002601109127018091BE069091BF06B80101
:103B6000681B790B072E000C880B990B0E945F2DA8
:103B70006B017C018091350190913601B801681B81
:103B8000790B072E000C880B990B0E945F2D9B016F
:103B9000AC01C701B6010E94B52C20E030E048EC32
:103BA00052E40E94142E60930B0170930C018093D9
:103BB0000D0190930E010E94272D7093E9046093EC
:103BC000E804CB010E94911384E592E00E946913FE
:103BD00082E10E94421460E070E087E090E00E9481
:103BE0002E148091FC04811104C08EE892E00E94A2
:103BF00069138091FC04813051F4809121019091EE
:103C000022010E94911386E992E00E94691380913B
:103C1000FC04823091F48091C7069091C8066AE056
:103C200070E00E94A22E7093C6066093C506909322
:103C3000C4068093C3060E94170B8AE00E944214B8
:103C400062E070E080E090E00E942E148AE992E049
:103C50000E94691360E070E0CB010E94BE1384E50E
:103C600092E00E94691364E070E080E090E00E94BE
:103C70002E148DE992E00E94691380E00E947C136B
:103C800080910A01882319F082EA92E002C086EA54
:103C900092E00E94691365E070E080E090E00E948D
:103CA0002E1489EA92E00E94691380E00E947C133E
:103CB00080910A01882319F082EA92E002C086EA24
:103CC00092E00E94691366E070E080E090E00E945C
:103CD0002E148EEA92E00E946913C0901B05D090CA
:103CE0001C05E0901D05F0901E0583EB92E00E94FC
:103CF0005713F7FE0EC06DE289EC96E00E94831127
:103D000044275527BA014C195D096E097F092AE03D
:103D100003C02AE0B701A60189EC96E00E949F113A
:103D200060E089EC96E00E942D0482E592E00E941A
:103D300069138BEC0E94421460E070E080E090E038
:103D40000E942E1466E18EE20E94E2138091F90433
:103D50009091FA048436910574F483EB92E00E940A
:103D6000571360E389EC96E00E94831160E089ECD0
:103D700096E00E942D048091F9049091FA040AE0E3
:103D800010E0B8010E94A22ECB010E94911389EC91
:103D90000E94421460E070E080E090E00E942E14E7
:103DA0006BE28FE60E94E2138091F9049091FA048D
:103DB000B8010E94A22E0E9491138091E7048823EB
:103DC00009F44DC08091FC048230F9F42091E304A1
:103DD0003091E4044091E5045091E60460912301A0
:103DE000709124016B01770FEE08FF08AAE0B0E0A4
:103DF0000E94FF2BDC01CB018C0D9D1DAE1DBF1D54
:103E0000909324018093230120C08130F1F420910C
:103E1000E3043091E4044091E5045091E60460919C
:103E20002101709122016B01770FEE08FF08AAE0D3
:103E3000B0E00E94FF2BDC01CB018C0D9D1DAE1D5F
:103E4000BF1D90932201809321011092E3041092F0
:103E5000E4041092E5041092E6041092E70484E072
:103E60000E9463032091F804892B21F42F5F209393
:103E7000F8040EC0222351F08091FC048F5F833040
:103E800018F48093FC0402C01092FC041092F80411
:103E90008091F804883008F45DC00E9465138AE0C0
:103EA0000E94421464EF71E080E090E00E94AA0456
:103EB00051C0FA940E9465130E94E404DC01CB0116
:103EC000805F984DAF4FBF4F8093F4049093F504FB
:103ED000A093F604B093F70462E0D62E10E0E12C34
:103EE000992493942F2C312C882483940E94700B56
:103EF0008230910509F473C00CF453C084309105ED
:103F000009F491C0089711F00C94AD281092F804B0
:103F100068E174E089E496E00E94CA1200E0F1E0F2
:103F2000DF1611F40C94B22822E0D21611F40C948E
:103F3000E4284090F4045090F5046090F6047090EA
:103F4000F7040E94E404461657066806790610F046
:103F50000C9433298091F804883010F40C9438299B
:103F600086EB92E00E94691384E00E946303892B30
:103F7000D9F388E1E7E3F1E0DE01119601900D92BB
:103F80008A95E1F7F12CFE013196EF0DF11DEF0D51
:103F9000F11D808191818A5C944009F48ACFF39469
:103FA000F2CF019711F00C94AD280E94E404DC01DB
:103FB000CB01805F984DAF4FBF4F8093F404909337
:103FC000F504A093F604B093F70411110C94B028F3
:103FD000EE2011F40C944129EA940C94E3280E94F9
:103FE000E404DC01CB01805F984DAF4FBF4F80935D
:103FF000F4049093F504A093F604B093F7048E2D87
:1040000090E00596821593052CF4153019F4E3948D
:1040100052E0D52E812F90E0059714F00C94AD2836
:104020001F5F0C94B1280E94E404DC01CB01805F87
:10403000984DAF4FBF4F8093F4049093F504A09335
:10404000F604B093F704E12FF0E0EE0DF11DEB3034
:10405000F10510F00C94AD28EA5AFF4F0C94B62EDF
:1040600080912601909127019093BF068093BE0610
:104070000E9465138AE00E94421460E070E080E0D4
:1040800090E00E942E1480EC92E00E94691361E09F
:1040900070E080E090E00E942E148091FB04882361
:1040A00029F0809135019091360104C0809126015C
:1040B000909127010E94911382E592E00E9469137A
:1040C0000E94700B8230910509F45EC08430910526
:1040D00009F4B3C00197A1F70E94E404DC01CB010D
:1040E000805F984DAF4FBF4F8093F4049093F504D9
:1040F000A093F604B093F7048091FB04882351F059
:1041000080913501909136010A9690933601809303
:10411000350109C080912601909127010A9690935C
:1041200027018093260161E070E080E090E00E942A
:104130002E148091FB04882329F080913501909101
:10414000360104C080912601909127010E949113AD
:1041500082E592E00E9469132091FB048091BE06E3
:104160009091BF06222309F465C04091350150911A
:1041700036012091260130912701240F351FF901C6
:10418000E81BF90BCF0156C00E94E404DC01CB010F
:10419000805F984DAF4FBF4F8093F4049093F50428
:1041A000A093F604B093F7048091FB04882351F0A8
:1041B00080913501909136010A9790933601809352
:1041C000350109C080912601909127010A979093AB
:1041D00027018093260161E070E080E090E00E947A
:1041E0002E148091FB04882329F080913501909151
:1041F000360104C080912601909127010E949113FD
:1042000082E592E00E9469132091FB048091BE0632
:104210009091BF06222371F04091350150913601F3
:104220002091260130912701240F351FA901481B39
:10423000590BCA010E94F61343CF0E94E404DC012B
:10424000CB01805F984DAF4FBF4F8093F4049093A4
:10425000F504A093F604B093F7048091FB0488233F
:1042600009F4D4C0DEC0809135019091360190935D
:10427000BF068093BE060E9465138AE00E94421426
:1042800060E070E080E090E00E942E148EEC92E0FE
:104290000E94691361E070E080E090E00E942E14BB
:1042A0008091FB04882329F08091260190912701B9
:1042B00004C080913501909136010E94911382E5EE
:1042C00092E00E9469130E94700B8230910509F4FC
:1042D00047C08430910509F485C00197A1F70E9479
:1042E000E404DC01CB01805F984DAF4FBF4F80935A
:1042F000F4049093F504A093F604B093F70480912E
:104300003501909136010A969093360180933501DC
:1043100061E070E080E090E00E942E148091350111
:10432000909136010E94911382E592E00E946913F8
:104330002091FB048091BE069091BF06222309F4D0
:104340004EC04091350150913601209126013091A7
:104350002701240F351FD901A81BB90BCD013FC080
:104360000E94E404DC01CB01805F984DAF4FBF4F4A
:104370008093F4049093F504A093F604B093F704AB
:1043800080913501909136010A9790933601809380
:10439000350161E070E080E090E00E942E14809191
:1043A0003501909136010E94911382E592E00E94BE
:1043B00069132091FB048091BE069091BF062223D1
:1043C00071F04091350150913601209126013091D4
:1043D0002701240F351FF901E81BF90BCF010E94BB
:1043E000F61371CF0E94E404DC01CB01805F984D8D
:1043F000AF4FBF4F8093F4049093F504A093F6045D
:10440000B093F7048091FB04882359F08091260132
:10441000909127016AE070E00E94A22E80E190E076
:104420002FC480913501909136016AE070E00E94BE
:10443000A22E81E190E024C4809135019091360153
:104440009093BF068093BE060E9465138AE00E9487
:10445000421460E070E080E090E00E942E148CED49
:1044600092E00E9469130AE061E070E080E090E071
:104470000E942E1481EF92E00E9469132091FB04A8
:104480008091BE069091BF06222371F040913501C4
:10449000509136012091260130912701240F351FBC
:1044A000A901481B590BCA010E94911383EF92E0A6
:1044B0000E94691362E370E080E090E00E94AA0429
:1044C0006091BE067091BF06E0913501F091360112
:1044D000E617F70734F081E090E0909310018093A5
:1044E0000F0140912601509127016417750734F0A0
:1044F0008FEF9FEF9093100180930F0180910F0138
:1045000090911001089F9001099F300D1124CB015B
:10451000820F931F9093BF068093BE062091FB04E9
:10452000222331F04E0F5F1FDA01A81BB90BCD011A
:104530000E94F6130E94700B8230910539F084308E
:10454000910509F4C9C2019709F08ECF0E94E404D5
:10455000DC01CB01805F984DAF4FBF4F8093F404D7
:104560009093F504A093F604B093F7047DCF0E94D6
:1045700065138AE00E94421460E070E080E090E001
:104580000E942E148AEF92E00E94691361E070E0AD
:1045900080E090E00E942E148091FB04882321F09B
:1045A0008DE093E00E9469138091FB04811104C0A7
:1045B0008AE193E00E9469130E94700B823091059A
:1045C00051F18430910509F447C00197A9F70E9481
:1045D000E404DC01CB01805F984DAF4FBF4F809367
:1045E000F4049093F504A093F604B093F70461E00B
:1045F00070E080E090E00E942E148091FB048823FC
:1046000019F086E293E023C08DE093E00E946913E5
:104610008092FB04D1CF0E94E404DC01CB01805FD7
:10462000984DAF4FBF4F8093F4049093F504A0933F
:10463000F604B093F70461E070E080E090E00E943F
:104640002E148091FB048823F9F28AE193E00E9402
:1046500069131092FB04B0CF0E94E404DC01CB018B
:10466000805F984DAF4FBF4F8093F4049093F50453
:10467000A093F604B093F7048091FB04882311F013
:1046800061E001C060E08FE190E0FAC20E94651332
:104690008AE00E94421460E070E080E090E00E94B6
:1046A0002E1484E393E00E94691361E070E080E0DF
:1046B00090E00E942E14809111010E947C1304E06E
:1046C00048E0D42E0E94700B8230910581F1843035
:1046D000910509F464C00197A9F70E94E404DC0184
:1046E000CB01805F984DAF4FBF4F8093F404909300
:1046F000F504A093F604B093F70461E070E080E065
:1047000090E00E942E1480911101883010F48E5F89
:1047100029C0D092110188E00E947C1362E070E011
:1047200080E090E00E942E1486E493E035C00E9461
:10473000E404DC01CB01805F984DAF4FBF4F809305
:10474000F4049093F504A093F604B093F70461E0A9
:1047500070E080E090E00E942E148091110185307D
:1047600070F08250809311010E947C1362E070E02F
:1047700080E090E00E942E1486E492E00DC0009349
:10478000110184E00E947C1362E070E080E090E020
:104790000E942E1484E593E00E94691393CF0E9437
:1047A000E404DC01CB01805F984DAF4FBF4F809395
:1047B000F4049093F504A093F604B093F704609189
:1047C00011018BE090E05CC210920E0740900F0741
:1047D000509010076090110770901207C301B2014A
:1047E00020E432E44FE050E00E94122C30E030939D
:1047F000F3042093F204C301B20120E137E240E068
:1048000050E00E94122CCA01B90124E630E040E0D9
:1048100050E00E94122C7093F1046093F004C301E5
:10482000B20124E630E040E050E00E94122CCA01C0
:10483000B90124E630E040E050E00E94122C709371
:10484000EF046093EE040E9465138AE00E94421414
:1048500060E070E080E090E00E942E1482E693E039
:104860000E94691361E070E080E090E00E942E14E5
:1048700080911201909113010E94911362E070E007
:1048800080E090E00E942E148091F2049091F30455
:104890000E94911387E792E00E9469138091F004CF
:1048A0009091F1040A9724F489E792E00E94691339
:1048B0008091F0049091F1040E94911387E792E0B7
:1048C0000E9469138091EE049091EF040A9724F4FA
:1048D00089E792E00E9469138091EE049091EF04C1
:1048E0000E94911383E592E00E9469133CE0C32E7D
:1048F000D12C0E94700B8230910509F459C084308C
:10490000910509F4E9C00197A1F710920E07609193
:104910000F0770911007809111079091120720E402
:1049200032E44FE050E00E94122C30E03093F30468
:104930002093F2040E94E404DC01CB01805F984DD7
:10494000AF4FBF4F8093F4049093F504A093F60407
:10495000B093F70480911201909113018C3091056E
:1049600034F40196909313018093120104C0D09205
:104970001301C092120161E070E080E090E00E94BB
:104980002E148091120190911301181619060CF43F
:1049900055C0109213011092120186E793E00E9415
:1049A000691380911201909113010E9491135BC0D1
:1049B00010920E0760910F077091100780911107F8
:1049C0009091120720E432E44FE050E00E94122C54
:1049D00030E03093F3042093F2040E94E404DC01FD
:1049E000CB01805F984DAF4FBF4F8093F4049093FD
:1049F000F504A093F604B093F7048091120190910E
:104A00001301853FBFEF9B0734F00197909313018B
:104A10008093120106C0E4EFFFEFF0931301E093DF
:104A2000120161E070E080E090E00E942E1480911D
:104A3000120190911301181619061CF484E793E0F3
:104A400006C0109213011092120186E793E00E94B3
:104A5000691380911201909113010E94911383E5D3
:104A600092E00E94691362E070E080E090E00E94B2
:104A70002E148091F2049091F3040E94911387E721
:104A800092E00E9469138091F0049091F1040A97DA
:104A900024F489E792E00E9469138091F0049091D8
:104AA000F1040E94911387E792E00E9469138091BC
:104AB000EE049091EF040A9724F489E792E00E94B3
:104AC00069138091EE049091EF040E94911383E5A5
:104AD00092E00E9469130DCF0E94E404DC01CB0137
:104AE000805F984DAF4FBF4F8093F4049093F504CF
:104AF000A093F604B093F70466C30E9465138AE09E
:104B00000E94421460E070E080E090E00E942E1469
:104B100088E793E00E94691361E070E080E090E034
:104B20000E942E140E94170B0E94700B8230910578
:104B3000D9F08430910591F10197B1F70E94E40416
:104B4000DC01CB01805F984DAF4FBF4F8093F404E1
:104B50009093F504A093F604B093F7048091230199
:104B6000909124010A9615C00E94E404DC01CB0157
:104B7000805F984DAF4FBF4F8093F4049093F5043E
:104B8000A093F604B093F70480912301909124013F
:104B90000A979093240180932301BECF0E94E404DE
:104BA000DC01CB01805F984DAF4FBF4F8093F40481
:104BB0009093F504A093F604B093F7048091230139
:104BC0009091240164E670E00E94A22E8EE190E0B4
:104BD00057C00E9465138AE00E94421460E070E0B2
:104BE00080E090E00E942E148DE893E00E9469130B
:104BF00061E070E080E090E00E942E14809114014A
:104C0000811124C082EA93E00E9469130E94700B14
:104C10008230910529F084309105D9F00197B1F7E0
:104C20000E94E404DC01CB01805F984DAF4FBF4F81
:104C30008093F4049093F504A093F604B093F704E2
:104C400080911401892580931401D2CF8DE993E0DE
:104C5000DBCF0E94E404DC01CB01805F984DAF4FB5
:104C6000BF4F8093F4049093F504A093F604B0939F
:104C7000F70480911401882331F061E082E190E033
:104C80000E94130BA0C260E0F9CF0E9465138AE076
:104C90000E94421460E070E080E090E00E942E14D8
:104CA00087EA93E00E94691361E070E080E090E0A1
:104CB0000E942E148AEB93E00E94691363E070E077
:104CC00080E090E00E942E148BEC93E00E94691328
:104CD0006091150170911601809117019091180152
:104CE0000E94BE130E94700B82309105A9F184309E
:104CF000910509F474C00197A9F70E94E404DC014E
:104D0000CB01805F984DAF4FBF4F8093F4049093D9
:104D1000F504A093F604B093F70463E070E080E03C
:104D200090E00E942E148BEC93E00E94691320E027
:104D300030E048EC52E460911501709116018091C9
:104D40001701909118010E94142E20E030E040E8F5
:104D50005FE30E94442C2EC00E94E404DC01CB01DE
:104D6000805F984DAF4FBF4F8093F4049093F5044C
:104D7000A093F604B093F70463E070E080E090E065
:104D80000E942E148BEC93E00E94691320E030E027
:104D900048EC52E460911501709116018091170161
:104DA000909118010E94142E20E030E040E85FE36B
:104DB0000E94432C20E030E048EC52E40E94B52CE5
:104DC0006093150170931601809317019093180159
:104DD0000E94BE1384E592E00E94691383CF0E9473
:104DE000E404DC01CB01805F984DAF4FBF4F80934F
:104DF000F4049093F504A093F604B093F704609143
:104E000015017091160180911701909118010E946F
:104E10002E2D8CE090E034CF0E9465138AE00E9432
:104E2000421460E070E080E090E00E942E1482ED79
:104E300093E00E94691361E070E080E090E00E94DE
:104E40002E1486EE93E00E94691363E070E080E028
:104E500090E00E942E1482EF93E00E94691360910B
:104E6000190170911A0180911B0190911C010E94FF
:104E7000BE130E94700B8230910509F447C0843044
:104E8000910509F486C00197A1F70E94E404DC01B2
:104E9000CB01805F984DAF4FBF4F8093F404909348
:104EA000F504A093F604B093F70463E070E080E0AB
:104EB00090E00E942E1482EF93E00E94691320E09C
:104EC00030E048EC52E46091190170911A01809130
:104ED0001B0190911C010E94142E20E030E040E85C
:104EE0005FE30E94442C20E030E048EC52E40E9452
:104EF000B52C6093190170931A0180931B01909354
:104F00001C010E94BE1383E592E040C00E94E404AD
:104F1000DC01CB01805F984DAF4FBF4F8093F4040D
:104F20009093F504A093F604B093F70463E070E067
:104F300080E090E00E942E1482EF93E00E946913BB
:104F400020E030E048EC52E46091190170911A01C0
:104F500080911B0190911C010E94142E20E030E0F2
:104F600040E85FE30E94432C20E030E048EC52E44C
:104F70000E94B52C6093190170931A0180931B0154
:104F800090931C010E94BE1381E592E00E94691378
:104F900070CF0E94E404DC01CB01805F984DAF4FDD
:104FA000BF4F8093F4049093F504A093F604B0935C
:104FB000F7046091190170911A0180911B01909181
:104FC0001C010E942E2D8DE090E05ACE0E946513A8
:104FD0008AE00E94421460E070E080E090E00E946D
:104FE0002E148AEF93E00E94691361E070E080E084
:104FF00090E00E942E148CE094E00E94691363E01C
:1050000070E080E090E00E942E148BEC93E00E9410
:10501000691360911D0170911E0180911F01909193
:1050200020010E94BE130E94700B82309105A9F1ED
:105030008430910509F474C00197A9F70E94E40433
:10504000DC01CB01805F984DAF4FBF4F8093F404DC
:105050009093F504A093F604B093F70463E070E036
:1050600080E090E00E942E148BEC93E00E94691384
:1050700020E030E048EC52E460911D0170911E0187
:1050800080911F01909120010E94142E20E030E0B9
:1050900040E85FE30E94442C2EC00E94E404DC013F
:1050A000CB01805F984DAF4FBF4F8093F404909336
:1050B000F504A093F604B093F70463E070E080E099
:1050C00090E00E942E148BEC93E00E94691320E084
:1050D00030E048EC52E460911D0170911E01809116
:1050E0001F01909120010E94142E20E030E040E842
:1050F0005FE30E94432C20E030E048EC52E40E9441
:10510000B52C60931D0170931E0180931F01909335
:1051100020010E94BE1384E592E00E94691383CFB0
:105120000E94E404DC01CB01805F984DAF4FBF4F7C
:105130008093F4049093F504A093F604B093F704DD
:1051400060911D0170911E0180911F0190912001BD
:105150000E942E2D8EE090E093CD01E00C948F1FE5
:10516000115001E0F11608F41F2DC12CD12C8AE05A
:105170000E944214B60180E090E00E942E1485E562
:1051800092E00E946913B60180E090E00E942E1424
:1051900085E592E00E9469133FEFC31AD30A46E007
:1051A000C416D10421F78AE00E944214612F70E0F6
:1051B00080E090E00E942E1484E394E00E94691342
:1051C000D12C0C94991F01E00E94651355E05F15E6
:1051D00028F5AE2CB12CAA0CBB1CC12CD12C8AE01A
:1051E0000E944214B60181E090E00E942E14F60164
:1051F000EE0FFF1FEA0DFB1D81E090E08C0F9D1F5D
:10520000E80FF91F808191810E9469139FEFC91AED
:10521000D90AA6E0CA16D10411F721C0712CAE2C10
:10522000B12CC72CD12C2C143D04CCF08AE00E9468
:105230004214B60181E090E00E942E14F501EC0DBD
:10524000FD1DEE0FFF1F21E030E02C0F3D1FE20F90
:10525000F31F808191810E9469137394E2CFDD2452
:10526000D3940C94991F01110C94761F0C94AA1FCF
:10527000809128018111109228010E94B70D0C9491
:10528000011931E0D31202C001E06FCF42E0D41621
:1052900009F499CF01E00C94991F0F931F93CF93BA
:1052A000DF93EC01162F60E0812F0E946E04612FC6
:1052B00070E0FB01E558FE4FE491E883FB01E45AFE
:1052C000FE4FE491F0E0EE0FFF1FE25BFE4F859191
:1052D00094919A8389831B861D861C86FE013B96CA
:1052E0008E010D5F1F4F1292E017F107E1F7DF917A
:1052F000CF911F910F9108950F931F931092AF05B7
:105300001092AE0588EE93E0A0E0B0E08093B00587
:105310009093B105A093B205B093B3052BE531E0AE
:105320003093AD052093AC052DEC30E03093B905FA
:105330002093B8052CEC30E03093BB052093BA05E0
:1053400028EC30E03093BD052093BC0529EC30E01B
:105350003093BF052093BE052AEC30E03093C105A1
:105360002093C0052EEC30E03093C3052093C20596
:105370001092C5051092C6051092C7051092C80577
:1053800010924C0610924B0680934D0690934E0659
:10539000A0934F06B09350062DE631E030934A06B5
:1053A000209349062FEF3FEF309356062093550682
:1053B0001092E1071092E0078093E2079093E307D1
:1053C000A093E407B093E5078FE791E09093DF07A0
:1053D0008093DE078EE897E09093B5078093B4073B
:1053E00082E997E09093B3078093B2078AE897E049
:1053F0009093B7078093B6071092D0071092C80712
:105400001092C9071092CA071092CB0780E090E073
:10541000AFE7B3E48093CC079093CD07A093CE077A
:10542000B093CF0784E690E0A0E0B0E08093C4079B
:105430009093C507A093C607B093C70781E090E09B
:105440009093AF078093AE079093B1078093B00716
:105450008093D10780E090E0A0E8BFE380939607B7
:1054600090939707A0939807B093990780939A0712
:1054700090939B07A0939C07B0939D0780939E07F2
:1054800090939F07A093A007B093A10780E090E0BE
:10549000A0E8BFEB8093A2079093A307A093A40773
:1054A000B093A5078DEC9CECACECBDEB8093A6070C
:1054B0009093A707A093A807B093A90780E090E076
:1054C000A0E2B1EC8093AA079093AB07A093AC073E
:1054D000B093AD070E94E4040091C4071091C50782
:1054E0002091C6073091C707DC01CB01801B910BCF
:1054F000A20BB30B8093B8079093B907A093BA0798
:10550000B093BB071092DD061092DE061092E00603
:105510001092DF061092E1061092E2061092E30666
:105520001092E4061092E5061092E7061092E60645
:105530001092E8061092E9061092EA061092EB0625
:105540001092EC061092EE061092ED061092EF0605
:105550001092F0061092F1061092F2061092F306E5
:105560001092F5061092F4061092F6061092F706C5
:105570001092F8061092F9061092FA061092FF06A1
:105580001092000710920107109202071092030771
:105590001092040710920D0710920E0710920F0739
:1055A00010921007109211071092120710921B0709
:1055B00010921C07109221071092220710922307C5
:1055C000109224071092290710922A0710922F0791
:1055D000109230071092310710923207109237075D
:1055E0001092380710923D0710923E0710923F0725
:1055F00010924007109245071092460710924B07F1
:1056000010924C0710924D0710924E0710925307BC
:10561000109254071092590710925A0710925B0784
:1056200010925C07109261071092620782E08093EB
:1056300072071092730710927407109275071092F8
:1056400077071092760710927907109278071092D8
:105650007A0710927B0710927C0710927D071092B8
:105660007E0710927F071092800710928107109298
:105670008207109283071092840710928507109278
:105680008607109287071092880710928907109258
:1056900063071092CC061092CB0681E991E09093BB
:1056A000CA068093C90681EA91E09093CE06809362
:1056B000CD0688E08093D80689E08093D9068AE0F9
:1056C0008093DA061092DB0689EC96E00E94F60BD6
:1056D00066E186E098E00E944D296BE088EF97E054
:1056E0000E944D296CE08AEE97E00E944D2980913E
:1056F000C7069091C8066AE070E00E94A22E7093DF
:10570000C6066093C5069093C4068093C306809135
:10571000BD068C30A0F491E0980F9093BD06809365
:10572000C00690E0FC01EE0FFF1F8E0F9F1FFC01D3
:10573000E756F94F88EB9BE09283818303C08FEF9C
:105740008093C00680913501909136019093BF06F9
:105750008093BE061F910F9108951F93FC01992716
:105760008827BC01E89411911032E9F3193010F048
:105770001E30C8F31B3251F01D3249F4689406C044
:105780000E94D42B610F711D811D911D1191105329
:105790001A30B0F33EF490958095709561957F4FE7
:1057A0008F4F9F4F1F910895592F482F372F262F26
:1057B000660F771F881F991F660F771F881F991F15
:1057C000620F731F841F951F660F771F881F991F15
:1057D0000895F999FECF92BD81BDF89A992780B5B9
:1057E0000895262FF999FECF1FBA92BD81BD20BD25
:1057F0000FB6F894FA9AF99A0FBE019608950E948E
:10580000342CA59F900DB49F900DA49F800D911DE9
:1058100011240895B7FF0C94FF2B0E94FF2B821BCD
:10582000930B0895A1E21A2EAA1BBB1BFD010DC00C
:10583000AA1FBB1FEE1FFF1FA217B307E407F50740
:1058400020F0A21BB30BE40BF50B661F771F881F1C
:10585000991F1A9469F760957095809590959B01B2
:10586000AC01BD01CF010895A29FB001B39FC0015B
:10587000A39F700D811D1124911DB29F700D811D7C
:105880001124911D08955058BB27AA270E945B2C14
:105890000C94D52D0E94C72D38F00E94CE2D20F0FB
:1058A00039F49F3F19F426F40C94C42D0EF4E095BE
:1058B000E7FB0C94BE2DE92F0E94E62D58F3BA1792
:1058C000620773078407950720F079F4A6F50C9416
:1058D000082E0EF4E0950B2EBA2FA02D0B01B90166
:1058E00090010C01CA01A0011124FF27591B99F056
:1058F000593F50F4503E68F11A16F040A22F232F62
:10590000342F4427585FF3CF469537952795A795B1
:10591000F0405395C9F77EF41F16BA0B620B730B58
:10592000840BBAF09150A1F0FF0FBB1F661F771FC9
:10593000881FC2F70EC0BA0F621F731F841F48F47E
:10594000879577956795B795F7959E3F08F0B0CF07
:105950009395880F08F09927EE0F979587950895EE
:105960000E949A2D08F481E008950E94C92C0C949D
:10597000D52D0E94CE2D58F00E94C72D40F029F45D
:105980005F3F29F00C94BE2D51110C94092E0C94FC
:10599000C42D0E94E62D68F39923B1F3552391F3AA
:1059A000951B550BBB27AA2762177307840738F08E
:1059B0009F5F5F4F220F331F441FAA1FA9F335D0EB
:1059C0000E2E3AF0E0E832D091505040E695001C9F
:1059D000CAF72BD0FE2F29D0660F771F881FBB1F59
:1059E000261737074807AB07B0E809F0BB0B802D37
:1059F000BF01FF2793585F4F3AF09E3F510578F063
:105A00000C94BE2D0C94092E5F3FE4F3983ED4F322
:105A1000869577956795B795F7959F5FC9F7880F36
:105A2000911D9695879597F90895E1E0660F771F88
:105A3000881FBB1F621773078407BA0720F0621B19
:105A4000730B840BBA0BEE1F88F7E09508950E9444
:105A50002E2D6894B1110C94092E08950E94EE2DFC
:105A600088F09F5798F0B92F9927B751B0F0E1F01F
:105A7000660F771F881F991F1AF0BA95C9F714C0CF
:105A8000B13091F00E94082EB1E008950C94082ED8
:105A9000672F782F8827B85F39F0B93FCCF3869508
:105AA00077956795B395D9F73EF490958095709565
:105AB00061957F4F8F4F9F4F0895E89409C097FBE2
:105AC0003EF490958095709561957F4F8F4F9F4FD5
:105AD0009923A9F0F92F96E9BB279395F695879519
