:100000000C9419010C945C050C9435050C940E05A8
:100010000C94E7040C9441010C9441010C94C0042D
:100020000C9441010C9441010C946C0F0C94DE0F64
:100030000C9441010C9441010C9441010C94410138
:100040000C9441010C94B1060C9441010C944101B3
:100050000C9441010C9441010C9441010C947604E0
:100060000C9441010C947B130C9455130C94410196
:100070000C9441010C9441010C9441010C944101F8
:100080000C9441010C9441010C9441010C944101E8
:100090000C9483050C9441010C9441010C94410192
:1000A0000C9441010C9441010C94410102208920DF
:1000B0000E219921FE21742246238823C9230C2472
:1000C000BF248825DD01E001CF01D301D901010260
:1000D00001020102E401E801EC01F201F601010272
:1000E000FC01970BA90BAC0BB30BBA0BE80BEF0B96
:1000F000FC0B090C150C150C150C150C150C150C1E
:10010000150C150C150C150C150C150C150C150CE7
:10011000150C150C150C150C150C150C150C150CD7
:10012000150C970BA40BA90BAC0BB30BBA0BC10BA3
:10013000CE0BDB0B00000000240027002A002D005E
:10014000300000000000250028002B002E003100A8
:10015000000000002300260029002C002F000404CA
:100160000404040304050202020204030202020260
:100170000606060606060404020202040404080237
:10018000011040804010204080408008020401801F
:10019000402010020110801020404020000000028A
:1001A00000090F0000030401000C00000000000023
:1001B0000000000000000000000000080B00020228
:1001C00002010009040000010202000005240010E1
:1001D000010524010101042402060524060001078B
:1001E00005810310004009040100020A0000000715
:1001F00005020240000007058302400000040309D5
:100200000412010002EF0201404123368000010187
:1002100002030141726475696E6F204C4C430041CA
:10022000726475696E6F204C656F6E6172646F00E9
:10023000CA2611241FBECFEFDAE0DEBFCDBF14E027
:10024000A0E0B1E0E8E8F8E502C005900D92AC3E10
:10025000B107D9F728E0ACEEB4E001C01D92A0319F
:10026000B207E1F711E0C9E1D1E004C02197FE0136
:100270000E94042CC831D107C9F70E94FD150C94C7
:10028000422C0C940000FC01538D448D252F30E04E
:10029000842F90E0821B930B541710F0CF96089593
:1002A00001970895FC01918D828D981761F0828DE0
:1002B000DF01A80FB11D5D968C91928D9F5F9F739A
:1002C000928F90E008958FEF9FEF0895FC01918D3C
:1002D000828D981731F0828DE80FF11D858D90E0A9
:1002E00008958FEF9FEF0895FC01918D228D892F46
:1002F00090E0805C9F4F821B91098F73992708952E
:1003000080E090E0892B29F00E941B0F81110C9452
:1003100000000895CF93DF931F92CDB7DEB76983B6
:10032000DC01ED91FC910280F381E02D41E050E091
:10033000BE016F5F7F4F09950F90DF91CF910895B8
:1003400083E08093E9008091F200882319F08AE32A
:100350008093E8000895FC018485958597FD0BC086
:100360009FB7F89482E08093E9008091F2009FBFEC
:1003700090E0019608959FB7F89482E08093E90099
:100380008091F2009FBF90E0089590E0FC013197CA
:10039000EF30F105B0F5EE59FF4F0C94042C80912D
:1003A00080008F7703C0809180008F7D80938000D4
:1003B000089580918000877FF9CF84B58F7702C040
:1003C00084B58F7D84BD0895809190008F7707C09C
:1003D000809190008F7D03C080919000877F8093F3
:1003E000900008958091C0008F7703C08091C00075
:1003F0008F7D8093C00008958091C200877F809395
:10040000C2000895089585ED8093BC008091BC00E2
:1004100084FDFCCF10926405089540913E05262F7F
:1004200030E0240F311D21323105DCF420916405C8
:100430002430C9F4FC0180E090E0861758F4309134
:100440003E052191DC01A45EBA4FA30FB11D2C9390
:100450000196F3CF80913E05680F60933E0580E0E2
:10046000089581E0089582E0089508958FEF9FEF49
:1004700008958FEF9FEF089580911B0590E091956F
:10048000819591090895CF93DF9300D0CDB7DEB762
:10049000CB01642F49835A830E940D024981842F26
:1004A0005A81952F0F900F90DF91CF910895CF93A0
:1004B000DF931F92CDB7DEB7698361E0CE0101966D
:1004C0000E940D0281E090E00F90DF91CF9108959E
:1004D0000E94D81590E00895CF93DF931F92CDB777
:1004E000DEB7FC018485958597FD05C02FEF3FEFB2
:1004F000358724870BC0CE0101960E94AE15019767
:1005000019F4898190E002C08FEF9FEF0F90DF9187
:10051000CF9108950F931F93CF93DF931F92CDB781
:10052000DEB78C01FC018485958597FF0EC0CE0156
:1005300001960E94AE15019719F4298130E002C09E
:100540002FEF3FEFF80135872487F80184859585E3
:100550000F90DF91CF911F910F910895FC01848D31
:10056000DF01A80FB11DA35ABF4F2C91848D90E0DD
:1005700001968F739927848FA689B7892C93A089B8
:10058000B1898C9180648C93938D848D981306C06F
:100590000288F389E02D80818F7D80830895CF9339
:1005A000DF93EC01888D8823C9F0EA89FB8980817B
:1005B00085FD05C0A889B9898C9186FD0FC00FB64D
:1005C00007FCF5CF808185FFF2CFA889B9898C918E
:1005D00085FFEDCFCE010E94AE02E7CFDF91CF9134
:1005E0000895CF93DF93282F30E0F901E456FE4FB2
:1005F0008491F901E358FE4FD491F901E25AFE4F7C
:10060000C491CC2391F081110E94C501EC2FF0E040
:10061000EE0FFF1FE05BFE4FA591B491EC91ED232F
:1006200081E090E021F480E002C080E090E0DF9182
:10063000CF9108951F93CF93DF93282F30E0F901D6
:10064000E456FE4F8491F901E358FE4FD491F9012D
:10065000E25AFE4FC491CC23C9F0162F81110E949B
:10066000C501EC2FF0E0EE0FFF1FEE5BFE4FA591F2
:10067000B4918FB7F894111105C09C91ED2FE095BE
:10068000E92302C0EC91ED2BEC938FBFDF91CF916A
:100690001F910895CF93DF9390E0FC01E358FE4F44
:1006A0002491FC01E25AFE4F8491882361F190E08D
:1006B000880F991FFC01EC5CFE4FC591D491FC01A1
:1006C000EE5BFE4FA591B491611109C09FB7F894FC
:1006D0008881209582238883EC912E230BC0623081
:1006E00061F49FB7F8943881822F809583238883A3
:1006F000EC912E2B2C939FBF06C08FB7F894E88106
:100700002E2B28838FBFDF91CF9108953FB7F894A8
:1007100080918F0590919005A0919105B0919205DF
:1007200026B5A89B05C02F3F19F00196A11DB11D4C
:100730003FBFBA2FA92F982F8827820F911DA11D87
:10074000B11DBC01CD0142E0660F771F881F991FC4
:100750004A95D1F708958F929F92AF92BF92CF9210
:10076000DF92EF92FF926B017C010E9486034B01A6
:100770005C01C114D104E104F104F1F00E9486038C
:10078000DC01CB0188199909AA09BB09883E93406D
:10079000A105B10570F321E0C21AD108E108F10802
:1007A00088EE880E83E0981EA11CB11CC114D104F0
:1007B000E104F10419F7DDCFFF90EF90DF90CF90C7
:1007C000BF90AF909F908F9008958F929F92AF921D
:1007D000BF92CF92DF92EF92FF920F931F93CF932E
:1007E000DF935C016B017A0180913601882309F463
:1007F0005BC08091A705882309F456C08091ED0461
:1008000080FF05C08091E00082608093E000E701F6
:1008100010E00AEF83E0882E9AE3992E2097D9F111
:100820000E94D81581110AC0015009F43DC061E051
:1008300070E080E090E00E94AB03F0CF282F30E022
:10084000C217D3070CF48C2F4FB7F8948092E900AD
:100850009091E80095FF1DC0282F30E0C21BD30BFC
:10086000F601982F915020F081918093F100FACFFA
:10087000C20ED31E112319F09092E80009C0809196
:10088000E80085FD06C09092E80011E0209709F08D
:1008900010E04FBFC3CF1111C3CF5D9884E68093A2
:1008A000A1051E141F0444F081E090E0F50193833C
:1008B000828380E090E001C0C701DF91CF911F915A
:1008C0000F91FF90EF90DF90CF90BF90AF909F90EF
:1008D0008F9008952FB7F89460918B0570918C05D7
:1008E00080918D0590918E052FBF08951F920F92D4
:1008F0000FB60F9211242F933F938F939F93AF9333
:10090000BF9380918B0590918C05A0918D05B0913E
:100910008E0530918A0523E0230F2D3720F40196B0
:10092000A11DB11D05C026E8230F0296A11DB11D12
:1009300020938A0580938B0590938C05A0938D0559
:10094000B0938E0580918F0590919005A0919105AF
:10095000B09192050196A11DB11D80938F059093D2
:100960009005A0939105B0939205BF91AF919F918F
:100970008F913F912F910F900FBE0F901F90189560
:100980001F920F920FB60F9211242F933F934F9304
:100990005F936F937F938F939F93AF93BF93EF93E7
:1009A000FF93E0910801F09109010995FF91EF9102
:1009B000BF91AF919F918F917F916F915F914F9177
:1009C0003F912F910F900FBE0F901F9018951F927F
:1009D0000F920FB60F9211242F933F934F935F9373
:1009E0006F937F938F939F93AF93BF93EF93FF93F7
:1009F000E0910601F09107010995FF91EF91BF91F8
:100A0000AF919F918F917F916F915F914F913F91A6
:100A10002F910F900FBE0F901F9018951F920F925D
:100A20000FB60F9211242F933F934F935F936F93C1
:100A30007F938F939F93AF93BF93EF93FF93E09137
:100A40000401F09105010995FF91EF91BF91AF91DC
:100A50009F918F917F916F915F914F913F912F91D6
:100A60000F900FBE0F901F9018951F920F920FB608
:100A70000F9211242F933F934F935F936F937F9324
:100A80008F939F93AF93BF93EF93FF93E0910201F6
:100A9000F09103010995FF91EF91BF91AF919F9163
:100AA0008F917F916F915F914F913F912F910F9017
:100AB0000FBE0F901F9018951F920F920FB60F92B6
:100AC00011242F933F934F935F936F937F938F9353
:100AD0009F93AF93BF93EF93FF93E0910001F09149
:100AE00001010995FF91EF91BF91AF919F918F9176
:100AF0007F916F915F914F913F912F910F900FBE1A
:100B00000F901F9018951F920F920FB60F921124FD
:100B10002F933F934F935F936F937F938F939F9305
:100B2000AF93BF93EF93FF938091B900887F803696
:100B300009F49CC068F5883209F45BC090F48031F8
:100B400009F454C038F4882309F4F6C0883009F455
:100B50004DC0F6C0883109F44CC0803209F45DC044
:100B6000EFC0803409F468C048F4803309F455C0FC
:100B7000883309F0E5C080936305D8C0803509F457
:100B80004FC0883509F45DC0883409F0D9C0D6C09B
:100B9000883909F4C7C0A8F4883709F467C038F465
:100BA000883609F463C0803709F460C0C9C088384A
:100BB00009F4B8C0803909F45FC0803809F0C0C0BA
:100BC0005BC0803B09F486C038F4803A09F466C003
:100BD000883A09F47FC0B4C0803C09F4A7C0883CBF
:100BE00009F4A4C0883B09F48AC0AAC08091890591
:100BF00010C09091880580918705981770F5E09155
:100C0000880581E08E0F80938805F0E0E959FA4F5E
:100C100080818093BB0085EC86C0809363058EC085
:100C2000E091880581E08E0F809388058091BB005C
:100C3000F0E0E959FA4F808390918805809187050B
:100C40006EC0E091880581E08E0F809388058091C9
:100C5000BB00F0E0E959FA4F80838091660581116D
:100C60006DC081E08093650584EA61C083E0809374
:100C7000640510926205CFCF80916205803208F042
:100C800051C0E091620581E08E0F809362058091F2
:100C9000BB00F0E0EE5BFA4F8083BDCF85EC809324
:100CA000BC001092640580916205803230F4E091BE
:100CB0006205F0E0EE5BFA4F10826091620570E031
:100CC000E0914005F091410582E495E0099510928C
:100CD000620536C084E08093640510923F0510924F
:100CE0003E05E0913C05F0913D05099580913E055A
:100CF000811105C081E080933E0510921C05E091B2
:100D00003F0581E08E0F80933F05F0E0E45EFA4FEF
:100D100080818093BB0090913F0580913E0598179C
:100D200008F479CF85E88093BC000AC085EC8093F5
:100D3000BC001092640504C0109263050E94030277
:100D4000FF91EF91BF91AF919F918F917F916F91A3
:100D50005F914F913F912F910F900FBE0F901F9079
:100D600018951F920F920FB60F9211242F933F9355
:100D70004F935F936F937F938F939F93AF93BF93A3
:100D8000EF93FF9380911A0587FF05C010928500AD
:100D9000109284001BC020911A05022E000C330B08
:100DA0008091B90690E02817390784F480911A05DC
:100DB000082E000C990BFC01EE0FFF1F8E0F9F1FDA
:100DC000FC01EB56F94F808186FD15C080911A0514
:100DD0008F5F80931A0520911A05022E000C330BA9
:100DE0008091B90690E028173907C4F480911A055C
:100DF0008C3064F113C080911A05082E000C990BF9
:100E0000FC01EE0FFF1F8E0F9F1FFC01EB56F94FE9
:100E1000808160E08F730E941A03D8CF8091840094
:100E200090918500049680349C4918F480E49CE9F4
:100E300005C080918400909185000496909389006C
:100E4000809388008FEF80931A053BC02091840027
:100E50003091850080911A05082E000C990BFC0139
:100E6000EE0FFF1F8E0F9F1FFC01EB56F94F818184
:100E70009281820F931F90938900809388008091C4
:100E80001A05082E000C990BFC01EE0FFF1F8E0FA8
:100E90009F1FFC01EB56F94F808186FF12C08091A5
:100EA0001A05082E000C990BFC01EE0FFF1F8E0F88
:100EB0009F1FFC01EB56F94F808161E08F730E9408
:100EC0001A03FF91EF91BF91AF919F918F917F9105
:100ED0006F915F914F913F912F910F900FBE0F90A7
:100EE0001F901895CF93DF93EC018A859B85AC8585
:100EF000BD858E839F83A887B9870E946A046A8311
:100F00007B838C839D8381E089838883DF91CF916C
:100F100008952F923F924F925F926F927F928F929D
:100F20009F92AF92BF92CF92DF92EF92FF920F9378
:100F30001F93CF93DF93D82FC92F8B010E94FB28DB
:100F400024E630E040E050E00E94602949015A0167
:100F50009B01AC0160E876E988E990E00E94D42B1F
:100F60006B017C01F80191828082ED2FFC2F219191
:100F7000822F022E000C990BC0970A97C0F32E32D5
:100F800039F51F0180E8882E86E9982E88E9A82E79
:100F9000B12C9AE0492E512C612C712CF101C19198
:100FA0001F010C2E000CDD0BE097CA30D10580F438
:100FB000C501B401A30192010E94602949015A01AF
:100FC000DE010E945829C60ED71EE81EF91EE6CF84
:100FD000A5E0B0E0A70196010E944D296F5F7F4F09
:100FE0008F4F9F4F23E030E040E050E00E946029A7
:100FF000F80122833383448355831682DF91CF9196
:101000001F910F91FF90EF90DF90CF90BF90AF9026
:101010009F908F907F906F905F904F903F902F9018
:10102000089508950895089580E090E00895FF924E
:101030000F931F93CF93DF93EC01FF24F3948881E8
:101040008D3211F0F12C01C02196CE010E94FB28B7
:101050009B01AC01A4E6B0E00E944D29FE0149913C
:10106000242F042E000C330B205331092A30310574
:10107000A8F34E3241F52181022E000C330B205390
:1010800031092A303105F8F44AE0429F8001439F3C
:10109000100D1124012E000C220B330B600F711F59
:1010A000821F931F0281002E000C110B00531109A7
:1010B0000A30110540F4012E000C220B330B600F97
:1010C000711F821F931FFF2039F0909580957095B6
:1010D00061957F4F8F4F9F4FDF91CF911F910F9160
:1010E000FF90089582E00E94F102019779F481E077
:1010F00080939F058091F0049091F104A091F204F7
:10110000B091F3040197A109B1090DC010929F0598
:101110008091F0049091F104A091F204B091F30455
:101120000196A11DB11D8093F0049093F104A0934A
:10113000F204B093F30481E08093F40408958F9255
:101140009F92AF92BF92CF92DF92EF92FF920F9356
:101150001F930E94860300919B0510919C0520918E
:101160009D0530919E05C0909705D0909805E09020
:101170009905F0909A0546015701801A910AA20A32
:10118000B30A95018401060F171F281F391F00930A
:101190009705109398052093990530939A056093CD
:1011A0009B0570939C0580939D0590939E0580916F
:1011B000930590919405A0919505B091960501969F
:1011C000A11DB11D8093930590939405A09395055F
:1011D000B09396051F910F91FF90EF90DF90CF9005
:1011E000BF90AF909F908F900895FF920F931F93A1
:1011F000CF93DF93EC0161E089890E941A0361E0DB
:1012000089890E941A038A890E94F102892BD9F3E5
:1012100060E089890E941A0360E089890E941A03AC
:1012200060E089890E941A0398E0F92E00E010E03E
:10123000000F111F61E08F850E941A038A890E94A6
:10124000F102892B09F0016060E08F850E941A038A
:10125000FA94F110EDCF61E089890E941A03C80168
:10126000DF91CF911F910F91FF90089504970C94F7
:10127000F508CF92DF92EF92FF920F931F93CF93D7
:10128000DF93EC01E62E60E089890E941A0360E09A
:1012900089890E941A0360E089890E941A03DF8409
:1012A000C88807E010E0F12CB701002E02C0759548
:1012B00067950A94E2F7617077278C2D0E941A03D4
:1012C00061E08D2D0E941A0360E08D2D0E941A03AB
:1012D0000150110948F761E089890E941A0381E0F1
:1012E00090E0DF91CF911F910F91FF90EF90DF90F1
:1012F000CF900895AF92BF92CF92DF92FF920F935B
:101300001F93CF93DF9301E017E082E0F82ED1E046
:1013100088EA95E00E947401892B09F4ECC288EAFE
:1013200095E00E945201C82F80917607909177072F
:10133000A0917807B09179070196A11DB11D809306
:10134000760790937707A0937807B0937907C43214
:1013500009F4B0C2E0917007C53234F4CA3071F0BC
:10136000CD3009F0B4C20AC0CA3241F0CC3209F023
:10137000AEC280915D078C2780935D07EF3008F047
:101380008BC2F0E0E15AF84F108280915E0788230B
:1013900009F46BC120915F073FEB320F822F022EC1
:1013A000000C990B363010F4C79707C02156263031
:1013B00018F48755910901C0C097282F2295207FE6
:1013C000309160074FEB430F832F032E000C990BD6
:1013D000463010F4C79707C03156363018F4875599
:1013E000910901C0C097820F90915D07891329C1AF
:1013F0008091820790918307A0918407B09185071F
:101400000196A11DB11D8093820790938307A0933D
:101410008407B093850780917107882399F08091A4
:101420007A0790917B07A0917C07B0917D07019688
:10143000A11DB11D80937A0790937B07A0937C0731
:10144000B0937D07D0906E07DD2009F46BC021E0DA
:10145000D212D0C08091010790910207A09103079A
:10146000B09104078093FD069093FE06A093FF06BB
:10147000B09300070E946A04609305077093060703
:101480008093070790930807D092FC06D092FB0642
:1014900080910F0790911007A0911107B09112074A
:1014A00080930B0790930C07A0930D07B0930E0742
:1014B0000E946A04609313077093140780931507C2
:1014C00090931607D0920A07D0920907809171076E
:1014D000882309F48FC0E9EEF6E0ABEDB6E0812F8A
:1014E00001900D928A95E1F7E0EFF6E0A2EEB6E00A
:1014F000812F01900D928A95E1F70E946A04609312
:10150000F7067093F8068093F9069093FA06D09246
:10151000DA06D092D90687E197E00E94720785E249
:1015200097E066C080910F0790911007A091110776
:10153000B091120780930B0790930C07A0930D07AF
:10154000B0930E070E946A04609313077093140708
:101550008093150790931607D0930A07D093090735
:1015600080917107882321F1E9EEF6E0ABEDB6E05A
:10157000812F01900D928A95E1F7E0EFF6E0A2EE5F
:10158000B6E0812F01900D928A95E1F70E946A04DE
:101590006093F7067093F8068093F9069093FA0625
:1015A000D093DA06D093D90683E397E00E947207BE
:1015B00080914B0790914C07A0914D07B0914E0739
:1015C0008093470790934807A0934907B0934A0731
:1015D0000E946A0460934307709344078093450711
:1015E00090934607D0934207D09341078FE497E04A
:1015F0000E947207C0907407D0907507C114D1047F
:1016000009F44AC1E0917407F091750766A177A1CA
:10161000F60186A197A10E94232C892B09F03CC1D9
:10162000B601C60140960E942C2C0E946A04F60165
:1016300060A371A382A393A305A304A3C2A4D3A40C
:10164000DDCF80917E0790917F07A0918007B091B8
:1016500081070196A11DB11D80937E0790937F079E
:10166000A0938007B093810717C190916F079111E4
:1016700046C06CEA74E08FE597E00E94232C892B2A
:1016800041F062EB74E08FE597E00E94232C892BF8
:1016900019F4D0936E0715C068EB74E08FE597E0FE
:1016A0000E94232C892B41F06EEB74E08FE597E0CC
:1016B0000E94232C892B19F410926E0702C0F0921D
:1016C0006E078091720790917307909375078093CE
:1016D0007407C0907407D0907507C114D10409F441
:1016E000DBC0F601A6A0B7A06FE577E0C5010E94B8
:1016F000232C97FFC5C0F60182A593A5E6CFE09104
:101700006E07E23009F491C080915F07882309F4E5
:101710008CC020E2E29FF0011124E92B3197E932DD
:10172000F10508F082C0EF58FF4F0C94042C8FE5B0
:1017300097E00E94170860930F077093100780933B
:1017400011079093120771C091E0813409F043C0F2
:1017500043C069EE76E009C091E0833509F090E07E
:101760009093EF0662C060EF76E08FE597E00E940D
:1017700089075BC091E0873509F090E09093F60609
:1017800054C08FE597E00E9417086093210770937B
:101790002207809323079093240747C08FE597E0A3
:1017A0000E94170860932F077093300780933107CA
:1017B000909332073AC08FE597E00E94FB28609330
:1017C00001077093020780930307909304072DC0CD
:1017D00091E081330CF490E09093710726C08FE57F
:1017E00097E00E94FB2860934B0770934C0780930F
:1017F0004D0790934E0719C08FE597E00E94170898
:101800006093590770935A0780935B0790935C0726
:101810000CC08FE597E00E94170860933D07709316
:101820003E0780933F0790934007C0907407D09085
:101830007507C114D10481F1E0917407F091750727
:1018400066A177A1F60186A197A10E94232C892B7E
:1018500019F5F60120A531A580916F0790E0821758
:101860009307D4F02817390739F440E150E06FE5C9
:1018700077E0C6010E94332CF601C2A4D3A4D9CFCD
:101880006FE577E0C5010E94232C1816190624F491
:10189000109275071092740780916F078F5F809385
:1018A0006F071092700781E0CA3209F080E08093E0
:1018B0005E072ECD1092700710926F0710925D0791
:1018C000F0926E0710925E071092710721CDEE30F4
:1018D00040F481E08E0F80937007F0E0E15AF84FFA
:1018E000C08380915E07811113CD80915D07C82769
:1018F000C0935D070DCD80911807882309F408CDAA
:10190000DF91CF911F910F91FF90DF90CF90BF900B
:10191000AF9008950C943F290C9437290F931F938F
:10192000CF938C0101960E948C0CC82FC8010E9495
:101930008C0C2C2F30E0A901582BCA01CF911F919C
:101940000F9108951F93CF93DF93EC01162F672F0C
:101950000E948A0C612FCE010196DF91CF911F91D9
:101960000C948A0C109221011092EF0481E0809374
:101970000E01089580912501909126012AE030E022
:10198000B9010E94F02BCB017093C4066093C3068B
:10199000B9010E94F02B7093C2066093C106909328
:1019A000C0068093BF06680F791F77FF03C084ECE1
:1019B00094E002C08CE592E00E94E0138091C106A1
:1019C0009091C20697FF07C09195819591099093D8
:1019D000C2068093C1068091C1069091C2060E9402
:1019E000081486EC94E00E94E0138091BF06909169
:1019F000C00697FF07C09195819591099093C00605
:101A00008093BF068091BF069091C0060E94081483
:101A100080912401882319F082EA93E002C087EACA
:101A200093E00C94E013CF938091F404882391F118
:101A30008091F0049091F104A091F204B091F3042C
:101A4000181619061A061B0664F41092F004109278
:101A5000F1041092F2041092F3041092F40481E065
:101A600065C08091F0049091F104A091F204B091CE
:101A7000F304B7FF0CC01092F0041092F10410921E
:101A8000F2041092F3041092F40482E04FC010921A
:101A9000F4044BC084E00E94F102C091A005892BA0
:101AA000E9F4CF5FC093A0056CE271E080E090E0C4
:101AB0000E94AB03C830C0F11092A0050E94DC1355
:101AC00084E10E945D1560E070E080E090E00E949B
:101AD00049158EEC94E00E94E0131DC0CC2329F13F
:101AE0001092A0050E94DC1384E10E945D1560E065
:101AF00070E080E090E00E94491588EC94E00E943C
:101B0000E01368EE73E080E090E00E94AB030E9477
:101B1000DC1384E00BC084E00E94F102892BD9F32E
:101B20000E94DC1388E002C002C080E190E0CF9107
:101B300008958F929F92AF92BF92CF92DF92EF92D1
:101B4000FF928090970590909805A0909905B0908D
:101B50009A056091930570919405809195059091F7
:101B6000960510929705109298051092990510927B
:101B70009A05109293051092940510929505109273
:101B800096050E94AB2A20E03BE147EB5AE40E9415
:101B9000622B6B017C01C501B4010E94AB2A9B0141
:101BA000AC01C701B6010E94032A6B017C01809140
:101BB0001101682F70E080E090E00E94AD2A9B0147
:101BC000AC01C701B6010E94032A0E94752A9B013D
:101BD000AC01AAE0B0E00E944D29CB01FF90EF904C
:101BE000DF90CF90BF90AF909F908F900895CF934C
:101BF000DF93EC0161E08F850E944A0361E08889F0
:101C00000E944A0361E089890E944A0361E0898950
:101C10000E941A0360E08F850E941A0360E08889A1
:101C20000E941A038A89882329F060E0DF91CF910E
:101C30000C944A03DF91CF9108954091A4055091EF
:101C4000A5052091A2053091A30542175307B4F4CE
:101C50009091E8009570E1F39091E80092FD19C031
:101C60008093F1008091A4059091A50501968F7352
:101C70009927892B19F48EEF8093E8008091A405B1
:101C80009091A50501969093A5058093A40581E008
:101C9000089580E00895CF92DF92EF92FF920F9324
:101CA0001F93CF93DF931F92CDB7DEB7182F062F68
:101CB000E42E862F880F8E5F99830E941D0E83E08D
:101CC0000E941D0EF12EC12E9981D92E8C2D8F19B7
:101CD000801798F4F601E7FE02C0849101C080816C
:101CE0000E941D0E182F80E00E941D0E8123FFEF21
:101CF000CF1ADF0A8111EACF01C081E00F90DF9196
:101D0000CF911F910F91FF90EF90DF90CF900895AA
:101D1000DF92EF92FF920F931F93CF93DF93D82E12
:101D20008A017B01E40EF51EEB01CE15DF0571F093
:101D3000D7FE03C0FE01849101C088810E941D0E60
:101D400021968111F2CF8FEF9FEF01C0C801DF9183
:101D5000CF911F910F91FF90EF90DF900895615008
:101D600030F02091F100FC0120830196F8CF2898F3
:101D700084E68093A6050895CF92DF92EF92FF92BA
:101D80000F931F93CF93DF936C017A018B01C0E017
:101D9000D0E0CE15DF0589F0D8016D918D01D60117
:101DA000ED91FC910190F081E02DC6010995892B00
:101DB00011F47E0102C02196ECCFC701DF91CF91D3
:101DC0001F910F91FF90EF90DF90CF9008950E94A8
:101DD0001E2C0F931F93CF93DF931F92CDB7DEB7C7
:101DE00082E0898342E450E06BEB71E080E80E947E
:101DF000880E0E94E915DC0112960D911C91139733
:101E00000115110569F0D801ED91FC910280F38173
:101E1000E02DBE016F5F7F4FC801099597FF07C096
:101E200089810F90DF91CF911F910F910895F80153
:101E300000851185E5CF88EA95E00E94740121E0D4
:101E4000892B09F420E0822F0895EF92FF920F93DF
:101E50001F93CF93DF93EC0181E0888F9B8D8C8D56
:101E6000981305C0E889F989808185FD24C0F62E84
:101E70000B8D10E00F5F1F4F0F731127E02E8C8D1D
:101E8000E8120CC00FB607FCFACFE889F989808107
:101E900085FFF5CFCE010E94AE02F1CF8B8DFE0102
:101EA000E80FF11DE35AFF4FF0820B8FEA89FB899F
:101EB0008081806207C0EE89FF896083E889F989A3
:101EC00080818064808381E090E0DF91CF911F91D9
:101ED0000F91FF90EF9008951F920F920FB60F92FF
:101EE00011248F939F938091E1009091E100937F63
:101EF0009093E10083FF0FC01092E90091E090936E
:101F0000EB001092EC0092E39093ED001092A70585
:101F100098E09093F00082FF20C093E09093E90056
:101F20009091F200992319F09AE39093E800909130
:101F3000A105992339F09091A10591509093A105A5
:101F4000992389F19091A605992339F09091A605DE
:101F500091509093A605992341F184FF10C0809180
:101F6000E2008E7E81608093E2008091E1008F7EAE
:101F70008093E1008091ED048E7E806111C080FF2E
:101F800016C08091E2008E7E80618093E200809195
:101F9000E1008E7E8093E1008091ED048E7E816071
:101FA0008093ED0404C05D9ACDCF289AD6CF9F913F
:101FB0008F910F900FBE0F901F9018951F920F9248
:101FC0000FB60F921124CF92DF92EF92FF920F93F0
:101FD0001F932F933F934F935F936F937F938F93B1
:101FE0009F93AF93BF93EF93FF93CF93DF93CDB7BF
:101FF000DEB76C97DEBFCDBF1092E9008091E8009C
:1020000083FFEDC168E0CE0145960E94AF0E82EFDE
:102010008093E8008D8987FF05C09091E80090FFCC
:10202000FCCF03C09EEF9093E800982F907609F0C4
:10203000C6C09E892F89188D91110CC0803829F453
:102040008091EE048093F10002C01092F100109292
:10205000F10048C1422F50E0512B913051F48111D1
:1020600041C14130510509F03DC18091EE048D7FA1
:102070000BC0933061F4811135C14130510509F035
:1020800031C18091EE0482608093EE042BC19530C3
:1020900041F48091E80080FFFCCF20682093E300AA
:1020A00021C1963009F05FC0EB8CFC8C1092E900E6
:1020B0001092A5051092A405123091F51092A30577
:1020C0001092A2050E94E90E99E0BE016F5F7F4F5A
:1020D000DB01E92F1D92EA95E9F799831A8391E0D4
:1020E0009E8390EA98879AEF99872091A405309172
:1020F000A505275F3F4F3C832B838D831092E9001A
:102100001092A5051092A405F092A305E092A205F5
:1021100049E050E080E00E94880E0E94E90EE2C093
:10212000F092A305E092A2050E94E915DC01129647
:10213000ED90FC901397E114F10409F4C0C0D701AD
:10214000ED91FC910480F581E02DBE016B5E7F4F27
:10215000C7010995009719F00CF0C4C0C7C0F7017A
:10216000E084F184E8CF973009F4C0C0983021F4BE
:1021700081E08093F100B6C0993009F0B3C083705C
:1021800009F0B4C0E5E5F1E081E021E036E39081BB
:10219000992361F08093E9002093EB009191909353
:1021A000EC003093ED008F5F873089F78EE78093E6
:1021B000EA001092EA008F898093A70593C08B8D67
:1021C0009C8D1092E9001092A5051092A4059093A1
:1021D000A3058093A205898D811156C08E899D89A2
:1021E000913A59F4813209F081C047E050E06FE242
:1021F00071E080E00E94880E75C0913209F076C0CF
:10220000833289F4888D90E0982F88272F89822B3C
:10221000A0E0B0E080932B0190932C01A0932D01BE
:10222000B0932E015FC0803269F48091E80082FF94
:10223000FCCF67E08FE291E00E94AF0E8BEF8093BE
:10224000E80006C0823209F04DC08F8980933601C4
:102250008091EC04882319F0EEEFFAE002C0E0E090
:10226000F8E080912F0190913001A0913101B0915F
:102270003201803B9440A105B10509F07BC08091FB
:10228000360180FF93C076C00E94E915DC011296EA
:102290000D911C9113970115110541F1D801ED9194
:1022A000FC910190F081E02DBE016B5E7F4FC80173
:1022B0000995811117C0F80100851185ECCF113007
:1022C00009F44EC0133091F48F89882309F445C076
:1022D000823081F440E860E18FE192E00E944B0E91
:1022E000882321F08EEF8093E80079C081E280930B
:1022F000EB0075C0813029F440E86BE083E192E0A7
:10230000EDCF833099F70E94E915DC011296ED902C
:10231000FC9013978E010F5F1F4F6801E114F104C9
:1023200079F0D701ED91FC910680F781E02DB8019D
:10233000C7010995080F111DF701E084F184EECF64
:10234000D8011C92F60101900020E9F73197BF01F6
:102350006C197D0940E0C601C1CF6DEF71E002C08C
:1023600061E072E06115710509F2FB01449150E0F2
:1023700080E840CF0FB6F894A895809160008861FE
:1023800080936000109260000FBEA895EE3F2AE097
:10239000F20739F08091FE0A9091FF0A91838083C1
:1023A000A1CF1092FF0A1092FE0A9CCFEE3F8AE066
:1023B000F80731F0808191819093FF0A8093FE0AA3
:1023C00087E797E7918380839BE088E10FB6F894D5
:1023D000A895809360000FBE9093600083CF6C96A9
:1023E0000FB6F894DEBF0FBECDBFDF91CF91FF9146
:1023F000EF91BF91AF919F918F917F916F915F917D
:102400004F913F912F911F910F91FF90EF90DF908F
:10241000CF900F900FBE0F901F901895DC01ED919B
:10242000FC910190F081E02D09946115710579F01E
:10243000FB0101900020E9F73197AF01461B570BD4
:10244000DC01ED91FC910280F381E02D099480E0A4
:1024500090E008954F925F926F927F92EF92FF9279
:102460000F931F93CF93DF93CDB7DEB7A1970FB62E
:10247000F894DEBF0FBECDBF7C01FA01CB0119A2DB
:10248000223008F42AE08E010F5D1F4F422E512C9E
:10249000612C712CBF01A30192010E946029F901F6
:1024A000CA01015011096A3014F4605D01C0695C11
:1024B000D8016C93232B242B252B61F7B801C7017E
:1024C0000E941512A1960FB6F894DEBF0FBECDBFC5
:1024D000DF91CF911F910F91FF90EF907F906F90C0
:1024E0005F904F9008954F925F926F927F928F927C
:1024F0009F92AF92BF92CF92DF92EF92FF92CF93D3
:10250000DF93EC016A017B01B22E9A01AB01C70196
:10251000B6010E94CF2B882319F063ED74E027C029
:1025200026013701E89477F82FEF3FEF4FE75FE799
:10253000C301B2010E94CF2B81110DC02FEF3FEFDD
:102540004FE75FE7C301B2010E94FE2918161CF491
:1025500067ED74E00CC02FEF3FEF4FE75FE4C7017A
:10256000B6010E945D2B18169CF46BED74E0CE0151
:10257000DF91CF91FF90EF90DF90CF90BF90AF9021
:102580009F908F907F906F905F904F900C9415125A
:102590002FEF3FEF4FE75FECC701B6010E94FE2926
:1025A00087FDE3CF20E030E0A901C701B6010E941A
:1025B000FE2987FF0AC06DE2CE010E940E124C0177
:1025C000F7FAF094F7F8F09402C0812C912CA12C2A
:1025D00060E070E080E09FE3AB1441F020E030E089
:1025E00040E251E40E94032AA394F6CF9B01AC0180
:1025F000C701B6010E9492292B013C010E947C2A4E
:102600006B017C010E94AB2A9B01AC01C301B201AA
:102610000E9491292B013C012AE0B701A601CE01BD
:102620000E942A127C01E80CF91CBB2031F06EE2FA
:10263000CE010E940E12E80EF91EDB2CDD2029F1DE
:1026400020E030E040E251E4C301B2010E94622B7D
:102650002B013C010E947C2A4B01A12CB12C2AE0C9
:10266000B501A401CE010E942A12E80EF91EC5018F
:10267000B4010E94AB2A9B01AC01C301B2010E94CC
:1026800091292B013C01DA94D9CFC701DF91CF9179
:10269000FF90EF90DF90CF90BF90AF909F908F9082
:1026A0007F906F905F904F9008951F920F920FB69A
:1026B0000F9211242F933F934F935F936F937F93C8
:1026C0008F939F93AF93BF93EF93FF9388EA95E027
:1026D0000E94AE02FF91EF91BF91AF919F918F91B8
:1026E0007F916F915F914F913F912F910F900FBE0E
:1026F0000F901F9018951F920F920FB60F921124F2
:102700002F938F939F93EF93FF93E091B805F091F0
:10271000B9058081E091BE05F091BF0582FD12C030
:1027200090818091C1058F5F8F732091C2058217C0
:1027300051F0E091C105F0E0E855FA4F958F809394
:10274000C10501C08081FF91EF919F918F912F91E1
:102750000F900FBE0F901F901895CF93DF93EC0151
:10276000E091C506F091C6060190F081E02D8F3F03
:10277000910510F4682F0DC06FEF85EC96E0099578
:10278000E091C506F091C6066C2F6F5F0190F08155
:10279000E02D85EC96E0DF91CF910994CF93DF9304
:1027A000EC016991662329F085EC96E00E943909D5
:1027B000F8CFDF91CF9108958FED94E00C94CE1374
:1027C000CF93DF93EC018CEB92E00E94CE13BE011D
:1027D00085EC96E00E94151260E085EC96E0DF91B2
:1027E000CF910C943909CF93C82F8CEB92E00E94C3
:1027F000CE134C2F50E060E070E02AE085EC96E0CC
:102800000E942A1260E085EC96E0CF910C94390981
:10281000CF92DF92EF92FF926C018CEB92E00E94DC
:10282000CE130D2C000CEE08FF08F7FE0EC06DE273
:1028300085EC96E00E940E1244275527BA014C19E8
:102840005D096E097F092AE003C02AE0B701A601ED
:1028500085EC96E00E942A1260E085EC96E0FF90FD
:10286000EF90DF90CF900C943909CF93DF9300D095
:1028700000D0CDB7DEB7AB01BC018CEB92E0498351
:102880005A836B837C830E94CE1322E049815A8154
:102890006B817C8185EC96E00E94731260E085EC90
:1028A00096E00F900F900F900F90DF91CF910C94C6
:1028B0003909CF93DF93D82FC62F82EE94E00E9480
:1028C000CE136D2F85EC96E00E9439096C2F85ECB4
:1028D00096E0DF91CF910C9439094F925F926F92FD
:1028E0007F928F929F92AF92BF92CF92DF92EF92A0
:1028F000FF920F931F93CF93DF9300D000D0CDB7FB
:10290000DEB74B015C0129013A01670178010091B2
:10291000AC071091AD0720E030E0A9010E94FE292C
:1029200087FDA2C020E030E0A901C301B2010E94EE
:10293000FE2987FD99C020E030E0A901C701B6015A
:102940000E94FE2987FD90C081E00130110509F049
:1029500080E08093CD078092920790929307A09297
:102960009407B0929507409296075092970760920D
:10297000980770929907C0929A07D0929B07E092AD
:102980009C07F0929D076091C0077091C1078091EC
:10299000C2079091C3070E94AB2A20E030E04AE7CB
:1029A00054E40E94032A69837A838B839C838092F8
:1029B0009E0790929F07A092A007B092A1079B014B
:1029C000AC01C301B2010E94622B2B013C01609358
:1029D000A2077093A3078093A4079093A50729816A
:1029E0003A814B815C81C701B6010E94032A6B01C9
:1029F0007C016093A6077093A7078093A807909324
:102A0000A9078091AA079091AB07019769F5A501E5
:102A1000940160E070E0CB010E94912960939E07D1
:102A200070939F078093A0079093A107A301920141
:102A300060E070E0CB010E9491296093A20770933F
:102A4000A3078093A4079093A507A701960160E0D0
:102A500070E0CB010E9491296093A6077093A707AD
:102A60008093A8079093A9070F900F900F900F9055
:102A7000DF91CF911F910F91FF90EF90DF90CF905A
:102A8000BF90AF909F908F907F906F905F904F908E
:102A900008950F931F93CF93DF938C01EB0186EE84
:102AA00094E00E94CE13C8010E94AD13CE01DF91C5
:102AB000CF911F910F910C94AD13CF93DF931F9281
:102AC000CDB7DEB7682F89EE94E069830E94CE13FC
:102AD000E091C506F091C6060190F081E02D698174
:102AE00085EC96E00F90DF91CF910994AC01909125
:102AF000BC069C3090F58091BD0628E830E0281B8C
:102B0000310987FD3395220F331F220F331F4217E0
:102B1000530784F08091BE0628E532E0281B310976
:102B200087FD3395220F331F220F331F42175307A0
:102B30000CF49A0122503109220F331F4FB7F89439
:102B4000892F90E0FC01EE0FFF1F8E0F9F1FFC01ED
:102B5000EB56F94F328321834FBF0895FC018091DA
:102B6000A705811103C08FEF9FEF08959FB7F894D9
:102B700082E08093E9002091F20030E01216130603
:102B800014F421E030E02115310559F0289884E64D
:102B90008093A6058091F10080838091F2008823C4
:102BA00019F09FBFC90108958BE68093E800F9CF23
:102BB0002FB7F89483E08093E9009091E800892F83
:102BC000807295FF04C09091F20080E4891B2FBFB2
:102BD00008958091D20781110DC082E08093CE07C5
:102BE00084E08093CF071092D1071092D00781E044
:102BF0008093D2078EEC97E00895CF93DF93CDB703
:102C0000DEB7A8970FB6F894DEBF0FBECDBF78949D
:102C100084B5826084BD84B5816084BD85B58260E1
:102C200085BD85B5816085BD80916E008160809392
:102C30006E001092810080918100826080938100FB
:102C4000809181008160809381008091800081600B
:102C500080938000809191008260809391008091A8
:102C600091008160809391008091900081608093B9
:102C700090008091C10084608093C1008091C10068
:102C800082608093C1008091C10081608093C10007
:102C90008091C30081608093C3008091C0008260F6
:102CA0008093C0008091C20081608093C2008091B7
:102CB0007A00846080937A0080917A0082608093A9
:102CC0007A0080917A00816080937A0080917A0006
:102CD000806880937A001092A7051092EE041092FB
:102CE000ED048091D70081608093D70080EA8093C3
:102CF000D80089B5806189BD89B5826089BD09B474
:102D000000FEFDCF61E070E080E090E00E94AB0348
:102D10008091D8008F7C80618093D8008091E00002
:102D2000807F8093E0008091E1008E7E8093E100BF
:102D30008DE08093E200559A209AEEEFFFE78591AF
:102D400094918B3F9C4D19F481E08093EC048FEFBC
:102D50009FEF909352068093510664E670E080E006
:102D600090E00E94AB03E091B805F091B90582E0D4
:102D70008083E091B405F091B5051082E091B6052D
:102D8000F091B7058FEC80831092C005E091BC05EF
:102D9000F091BD0586E08083E091BA05F091BB0516
:102DA000808180618083E091BA05F091BB058081CC
:102DB00088608083E091BA05F091BB0580818068CE
:102DC0008083E091BA05F091BB0580818F7D80837F
:102DD00064E670E080E090E00E94AB0385EC96E052
:102DE0000E94F70D68EB7BE080E090E00E94AB036F
:102DF0000E94DC1364E670E080E090E00E94AB0388
:102E00008EE10E945D1561E070E080E090E00E943C
:102E100049158AE592E00E94E01364E670E080E0E4
:102E200090E00E94AB0389EA91E00E94E01368EE13
:102E300073E080E090E00E94AB0363E070E080E02C
:102E400090E00E94491584EB91E00E94E01382E13A
:102E50000E94F31368E873E180E090E00E94AB0306
:102E60000E94DC1364EF71E080E090E00E94AB030D
:102E700061E070E080E090E00E9449158EE10E94E0
:102E80005D1580EC91E00E94E01363E070E080E06B
:102E900090E00E94491581ED91E00E94E01368EEF8
:102EA00073E080E090E00E94AB0360E082E00E946B
:102EB0004A0360E083E00E944A0362E084E00E94EB
:102EC0004A0382E798E0909301018093000180918A
:102ED0006900836080936900E89A8FE998E0909395
:102EE00009018093080180916A008F7C8061809342
:102EF0006A00EE9A8091BC068C3008F051C061E007
:102F000085E00E944A038091BC06E82FF0E09F0113
:102F1000220F331FE20FF31FEB56F94F9081907C85
:102F2000956090831092BD061092BE066CE00E94E0
:102F3000E42B3CE0839FB001112440E050E09A0173
:102F4000260F371FF901EE0FFF1F2E0F3F1FF9014C
:102F5000EB56F94F908196FD16C04F5F5F4F4C3096
:102F6000510569F781110FC01092800082E08093B3
:102F700081001092850010928400B19A80916F00B8
:102F8000826080936F00E091BC06F0E0CF01880F73
:102F9000991FE80FF91FEB56F94F808180648083F9
:102FA0008091BA069091BB060E9476156091070544
:102FB00070910805072E000C880B990B0E94AD2A12
:102FC00060938E0770938F0780939007909391077B
:102FD0006091250170912601072E000C880B990B3A
:102FE0000E94AD2A609386077093870780938807B5
:102FF000909389078091CC07811148C0E091B00778
:10300000F091B107C080D180E280F380C092B80710
:10301000D092B907E092BA07F092BB07E091AE07F1
:10302000F091AF0780819181A281B3818093BC0729
:103030009093BD07A093BE07B093BF078090C807C9
:103040009090C907A090CA07B090CB07A501940142
:10305000C701B6010E945D2B181684F08090C4074A
:103060009090C507A090C607B090C707A50194012E
:10307000C701B6010E94FE2987FF08C08092B807E9
:103080009092B907A092BA07B092BB0781E08093F3
:10309000CC0710920A051092090510920C051092A7
:1030A0000B0510920E0510920D051092100510924E
:1030B0000F0510921205109211058BE090E00E940E
:1030C0008C0C809311018CE090E00E948E0CBC016E
:1030D00080E090E00E94AB2A20E030E048EC52E42F
:1030E0000E94032A609315017093160180931701C3
:1030F000909318018EE090E00E948E0CBC0180E05D
:1031000090E00E94AB2A20E030E048EC52E40E94BC
:10311000032A6093190170931A0180931B01909305
:103120001C0180E190E00E948E0CBC0180E090E0E8
:103130000E94AB2A20E030E048EC52E40E94032ACF
:1031400060931D0170931E0180931F0190932001D5
:1031500083E190E00E948C0C90E0909313018093A7
:10316000120184E190E00E948C0C4AE0849F70017F
:103170001124F0922901E092280185E190E00E945B
:103180008C0C5AE0859F8001112410933801009324
:10319000370182E190E00E948C0C91E0811101C026
:1031A00090E0909324018DE190E00E948C0C91E0DE
:1031B000811101C090E0909314018EE190E00E9493
:1031C0008C0CA4E68A9FC001112490932601809361
:1031D00025018FE190E00E948C0C91E0811101C0EB
:1031E00090E090930105B701FF0C880B990B0E94AA
:1031F000AD2A4B015C01B801110F880B990B0E949D
:10320000AD2A6B017C01A50194010E945D2B87FF13
:1032100065C0C092C407D092C507E092C607F0927D
:10322000C7078092C8079092C907A092CA07B092B8
:10323000CB070091B0071091B107F8014080518091
:1032400062807380A5019401C301B2010E945D2BCD
:1032500018163CF4D8018D929D92AD92BC921397B2
:103260000DC0A7019601C301B2010E94FE2987FF8C
:1032700005C0F801C082D182E282F3828090B80753
:103280009090B907A090BA07B090BB07C090C8074C
:10329000D090C907E090CA07F090CB07A70196012C
:1032A000C501B4010E945D2B181684F0C090C407BC
:1032B000D090C507E090C607F090C707A701960118
:1032C000C501B4010E94FE2987FF08C0C092B8075B
:1032D000D092B907E092BA07F092BB0760EE71E0B6
:1032E00088EA95E00E94151262E172E088EA95E0B2
:1032F0000E94151264E670E080E090E00E94AB034B
:1033000065E172E088EA95E00E94151262E172E0E0
:1033100088EA95E00E94151264E670E080E090E093
:103320000E94AB0380911905882339F060E08DE09D
:103330000E941A031092190507C061E08DE00E94F7
:103340001A0381E0809319050E947A0980912A016D
:10335000882341F00E94DC1364E670E080E090E096
:103360000E94AB0380911707882321F11092180760
:1033700060911D0770911E0780911F079091200793
:103380000E94AD2A2EEB3CE443E95FE30E94622BEE
:1033900020E030E048EC52E40E94032A20E030E0D4
:1033A00048EC52E40E94622B0E94752A7093180523
:1033B000609317054091130550911405FA01EE0F23
:1033C000FF1FE75FFA4F8091150590911605208148
:1033D0003181821B930B20911705309118053183A1
:1033E0002083820F931F90931605809315059A01F1
:1033F0002F5F3F4F253031052CF430931405209377
:10340000130504C0109214051092130565E070E0D6
:103410000E94F02B70930805609307052091BA066F
:103420003091BB0680912801909129012817390716
:1034300009F075C0C0900305D0900405E090050523
:10344000F09006050E946A04C616D706E806F9063B
:1034500008F065C00E946A04DC01CB018053984FDC
:10346000AF4FBF4F8093030590930405A0930505CC
:10347000B093060582E10E945D1560E070E080E097
:1034800090E00E94491585E292E00E94E01361E01D
:1034900070E080E090E00E94491588E392E00E948D
:1034A000E0130E947A0980911707882321F1109276
:1034B000180760911D0770911E0780911F0790915A
:1034C00020070E94AD2A2EEB3CE443E95FE30E9413
:1034D000622B20E030E048EC52E40E94032A20E016
:1034E00030E048EC52E40E94622B0E94752A7093EF
:1034F00018056093170560E070E080E090E00E949E
:1035000049158BE492E00E94E01361E070E080E0F6
:1035100090E00E9449158BE492E00E94E0138091B4
:103520000205811109C08091370190913801909373
:10353000BB068093BA061AC2813019F41092270193
:1035400003C081E080932701809127018823B9F08F
:103550006091170570911805072E000C880B990BC8
:103560000E94AD2A60938E0770938F078093900717
:1035700090939107609125017091260114C00E94DB
:10358000990DBC01990F880B990B0E94AD2A60938D
:103590008E0770938F0780939007909391076091A7
:1035A000220170912301072E000C880B990B0E94B9
:1035B000AD2A60938607709387078093880790935E
:1035C000890740918E0750918F0760919007709105
:1035D000910722E085E496E00E9473126EE572E0A6
:1035E00085E496E00E941512409186075091870766
:1035F000609188077091890722E085E496E00E9437
:10360000731266E672E085E496E00E94151220913E
:103610008E0730918F0740919007509191076091EC
:1036200086077091870780918807909189070E948B
:1036300091296B017C0120E030E0A9010E945D2B03
:10364000181624F0F7FAF094F7F8F09420E030E040
:1036500040E251E4C701B6010E94032AAB01BC015C
:1036600022E085E496E00E9473126FE672E085E442
:1036700096E00E941512E0901D01F0901E0100914D
:103680001F01109120012091190130911A014091E0
:103690001B0150911C0160911501709116018091E0
:1036A0001701909118010E946D148091CC07882316
:1036B00009F43BC10E946A046B8F7C8F8D8F9E8FB3
:1036C0008091B4079091B507A091B607B091B70764
:1036D0004B8D5C8D6D8D7E8D481B590B6A0B7B0B62
:1036E0008091C0079091C107A091C207B091C30714
:1036F000481759076A077B0708F417C1E091AE071E
:10370000F091AF074080518062807380E091B207F2
:10371000F091B307A301920160817181828193814D
:103720000E9491296B017C012091BC073091BD075B
:103730004091BE075091BF07C301B2010E94912979
:103740006F8F78A389A39AA32091A2073091A30732
:103750004091A4075091A507C701B6010E94622BB2
:103760002091B8073091B9074091BA075091BB0733
:103770000E9492294B015C016093B8077093B907CE
:103780008093BA079093BB07F091CD07FBA3F1118B
:103790001CC020919E0730919F074091A007509137
:1037A000A1076F8D78A189A19AA10E94622B9B012C
:1037B000AC01C501B4010E9491296093B8077093D0
:1037C000B9078093BA079093BB072091B80730914F
:1037D000B9074091BA075091BB072CA33DA34EA354
:1037E0005FA32090C8073090C9070091CA071091C5
:1037F000CB079101A8016CA17DA18EA19FA10E9480
:103800005D2B18165CF4C101D8018093B807909322
:10381000B907A093BA07B093BB071AC08090C4073A
:103820009090C507A090C607B090C707A501940166
:103830006CA17DA18EA19FA10E94FE2987FF08C0D7
:103840008092B8079092B907A092BA07B092BB07CE
:103850003BA1332379F020919E0730919F0740913F
:10386000A0075091A107C701B6010E94622B6B010E
:103870007C0103C0C12CD12C76012091A607309188
:10388000A7074091A8075091A9076F8D78A189A13A
:103890009AA10E94622B9B01AC016091B8077091C4
:1038A000B9078091BA079091BB070E9491299B01AB
:1038B000AC01C701B6010E9492296B017C01910104
:1038C000A8010E945D2B181694F02090C407309038
:1038D000C5070091C6071091C7079101A801B6015D
:1038E000C7010E94FE2987FD02C016018701E091F1
:1038F000B007F091B107C101D80180839183A28301
:10390000B3834092BC075092BD076092BE0770928D
:10391000BF078B8D9C8DAD8DBE8D8093B40790932A
:10392000B507A093B607B093B70740918A075091A7
:103930008B0760918C0770918D0722E085E496E0FB
:103940000E94731265E772E085E496E00E9415120A
:1039500060918A0770918B0780918C0790918D07F9
:103960000E94752A7093BB066093BA0620910105E8
:103970008091BA069091BB06222371F040913701E5
:10398000509138012091280130912901240F351FD1
:10399000D901A81BB90BCD010E9476158091250194
:1039A000909126012AE030E0B9010E94F02B70933B
:1039B000C4066093C3068091170590911805B9015C
:1039C0000E94F02B709300056093FF048091240106
:1039D000811112C0072E000C880B990B0E94AD2A92
:1039E0002BE734E14EEC5FE30E94622B0E94752AC4
:1039F000709300056093FF0410920A0780900B07F4
:103A000090900C07A0900D07B0900E07C501B4016F
:103A100020E432E44FE050E00E94602980911201DE
:103A200090911301820F911D97FD48969093FE048B
:103A30008093FD048091FD049091FE0418161906F0
:103A40002CF448979093FE048093FD04C501B401C3
:103A500020E137E240E050E00E94602974E6C72E82
:103A6000D12CE12CF12CCA01B901A70196010E94C9
:103A700060297093FC046093FB04C501B401A701A5
:103A800096010E946029CA01B901A70196010E940E
:103A900060297093FA046093F9048AE00E945D152E
:103AA00061E070E080E090E00E9449158091FD04A3
:103AB0009091FE040E94081480E892E00E94E013B6
:103AC0008091FB049091FC040A9724F482E892E030
:103AD0000E94E0138091FB049091FC040E94081462
:103AE00080E892E00E94E0138091F9049091FA043A
:103AF0000A9724F482E892E00E94E0138091F9048E
:103B00009091FA040E94081489E592E00E94E01363
:103B100080910E01882331F18AE00E945D1563E0F7
:103B200070E082E190E00E9449156EEF82E00E9411
:103B3000591484E892E00E94E01364E070E082E1AE
:103B400090E00E9449156DEF82E00E945914809127
:103B50002401882319F088E892E002C08CE892E002
:103B60000E94E01360E070E080E090E00E94491560
:103B700080E992E00E94E013C090F504D090F60432
:103B8000E090F704F090F8040E946A04C616D70685
:103B9000E806F90608F04DC00E946A04DC01CB017A
:103BA0008C509E4FAF4FBF4F8093F5049093F60417
:103BB000A093F704B093F804009128011091290113
:103BC0008091BA069091BB06B801681B790B072E4D
:103BD000000C880B990B0E94AD2A6B017C0180912F
:103BE000370190913801B801681B790B072E000C42
:103BF000880B990B0E94AD2A9B01AC01C701B6014D
:103C00000E94032A20E030E048EC52E40E94622B3C
:103C100060930A0170930B0180930C0190930D0146
:103C20000E94752ACB010E9408148BE592E00E9445
:103C3000E01382E10E945D1560E070E087E090E0B3
:103C40000E94491580910205811104C087E992E024
:103C50000E94E01380910205813051F4809122018D
:103C6000909123010E9408148FE992E00E94E013D2
:103C700080910205823011F40E94BA0C8AE00E9401
:103C80005D1562E070E080E090E00E94491583EAF3
:103C900092E00E94E01360E070E0CB010E943514D6
:103CA0008BE592E00E94E01364E070E080E090E039
:103CB0000E94491586EA92E00E94E01380E00E948B
:103CC000F31380911401882319F08BEA92E002C06B
:103CD0008FEA92E00E94E01365E070E080E090E0FF
:103CE0000E94491582EB92E00E94E01380E00E945E
:103CF000F31380911401882319F08BEA92E002C03B
:103D00008FEA92E00E94E01366E070E080E090E0CD
:103D10000E94491587EB92E00E94E0130E94990DE2
:103D20000E94081489E592E00E94E0138BEC0E9447
:103D30005D1560E070E080E090E00E94491566E16A
:103D40008EE20E9459148091FF0490910005843600
:103D5000910574F48CEB92E00E94CE1360E385EC45
:103D600096E00E940E1260E085EC96E00E94390910
:103D70008091FF04909100050AE010E0B8010E94D4
:103D8000F02BCB010E94081489EC0E945D1560E0C5
:103D900070E080E090E00E9449156BE28FE60E949F
:103DA00059148091FF0490910005B8010E94F02BF6
:103DB0000E94081410920E018091F404882309F4E3
:103DC0004DC0809102058230F9F42091F0043091C9
:103DD000F1044091F2045091F30460912501709137
:103DE00026016B01770FEE08FF08AAE0B0E00E9401
:103DF0004D29DC01CB018C0D9D1DAE1DBF1D909387
:103E000026018093250120C08130F1F42091F00437
:103E10003091F1044091F2045091F3046091220139
:103E2000709123016B01770FEE08FF08AAE0B0E064
:103E30000E944D29DC01CB018C0D9D1DAE1DBF1DC7
:103E400090932301809322011092F0041092F104C8
:103E50001092F2041092F3041092F40484E00E9491
:103E6000F1022091EF04892B21F42F5F2093EF04BE
:103E70000EC0222351F0809102058F5F833018F429
:103E80008093020502C0109202051092EF04809107
:103E9000EF04883008F466C00E94DC138AE00E94B8
:103EA0005D1564EF71E080E090E00E94AB035AC0C2
:103EB00001500E94DC1381E08093210122E010E098
:103EC000F12C202E312CEE24E394AA24A3946AE052
:103ED000C62ED12C28A70E94130D28A5823091054B
:103EE00009F066C08F2D90E00596821593050CF4BD
:103EF00077C0812F90E005970CF0BDC61F5F0117BA
:103F000008F4102F812C912C8AE00E945D15B401D9
:103F100080E090E00E9449158CE592E00E94E01359
:103F2000B40180E090E00E9449158CE592E00E9487
:103F3000E013FFEF8F1A9F0A26E08216910421F703
:103F40008AE00E945D15612F70E080E090E00E94A1
:103F5000491584E494E00E94E01320E0809121015F
:103F60008111B8CF8091EF04883008F4D9C68FEB67
:103F700092E00E94E01384E00E94F102892BD9F3C1
:103F80008AE1E9E3F1E0DE01119601900D928A9554
:103F9000E1F700E0FE013196E00FF11DE00FF11DA9
:103FA000808191818451924009F482CF0F5FF2CFDA
:103FB000833091051CF4019761F05DC68430910552
:103FC000A9F0089709F057C628A70E94B20C28A5A7
:103FD00052C61111AEC6FF2009F450C6FA9454C659
:103FE000153009F086CFF39422E083CFE12FF0E083
:103FF000EF0DF11DEC30F10508F03DC6EA5AFF4F18
:104000000C94042C80912801909129019093BB0677
:104010008093BA060E94DC138AE00E945D1560E07E
:1040200070E080E090E00E94491589EC92E00E94E7
:10403000E01361E070E080E090E00E94491580911B
:10404000010581115BC080912801909129010E9496
:10405000081489E592E00E94E01320910105809107
:10406000BA069091BB06222371F04091370150911E
:1040700038012091280130912901240F351FF901C1
:10408000E81BF90BCF010E9476150E94130D8230B8
:104090009105E1F01CF4019749F0DFCF84309105E0
:1040A00091F10897D1F60E94B20CD7CF809101050B
:1040B000882331F080913701909138010A960FC022
:1040C00080912801909129010A9613C080910105E1
:1040D000882351F080913701909138010A9790938D
:1040E000380180933701A5CF809128019091290153
:1040F0000A9790932901809328019BCF80913701E3
:1041000090913801A4CF80910105882309F472C0F1
:104110007BC080913701909138019093BB068093CA
:10412000BA060E94DC138AE00E945D1560E070E030
:1041300080E090E00E94491587ED92E00E94E01334
:1041400061E070E080E090E00E94491580910105F7
:104150008823C9F180912801909129010E940814B7
:1041600089E592E00E94E013209101058091BA0652
:104170009091BB06222371F0409137015091380194
:104180002091280130912901240F351FA901481BD6
:10419000590BCA010E9476150E94130D82309105B9
:1041A000F9F0B4F4019701F780913701909138014B
:1041B0000A96909338018093370161E070E080E0C7
:1041C00090E00E9449158091370190913801C6CF47
:1041D0008430910559F0089739F60E94B20CC4CF8B
:1041E00080913701909138010A97E3CF80910105C2
:1041F000882351F08091280190912901B6010E94F5
:10420000F02B84E190E005C3809137019091380153
:10421000B6010E94F02B85E190E0FBC2809137014E
:10422000909138019093BB068093BA060E94DC13EC
:104230008AE00E945D1560E070E080E090E00E94FE
:10424000491585EE92E00E94E0135AE0B52E61E038
:1042500070E080E090E00E9449158AEF92E00E94B1
:10426000E013209101058091BA069091BB062223AC
:1042700071F040913701509138012091280130911F
:104280002901240F351FD901A81BB90BCD010E94AC
:1042900008148CEF92E00E94E01364E670E080E086
:1042A00090E00E94AB036091BA067091BB06E0916A
:1042B0003701F0913801E617F70734F081E090E01C
:1042C0009093100180930F01409128015091290192
:1042D0006417750734F02FEF3FEF309310012093F0
:1042E0000F0180910F0190911001B89E9001B99E2D
:1042F000300D1124CB01820F931F9093BB06809346
:10430000BA0620910105222331F04E0F5F1FDA011A
:10431000A81BB90BCD010E9476150E94130D8430A5
:10432000910509F4B1C4089709F091CF0E94B20C2D
:104330008ECF0E94DC138AE00E945D1560E070E081
:1043400080E090E00E94491583E093E00E94E01332
:1043500061E070E080E090E00E94491580910105E5
:10436000882321F086E193E00E94E013809101050B
:10437000811104C083E293E00E94E0130E94130DB8
:104380008230910501F11CF4019749F0F7CF843098
:10439000910551F1089791F70E94B20CEFCF61E0BF
:1043A00070E080E090E00E9449158091010588232B
:1043B00019F08FE293E013C086E193E00E94E013CE
:1043C000A0920105DBCF61E070E080E090E00E9408
:1043D000491580910105882379F383E293E00E94D7
:1043E000E01310920105CACF80910105882311F0D6
:1043F00061E001C060E08FE190E00BC20E94DC133D
:104400008AE00E945D1560E070E080E090E00E942C
:1044100049158DE393E00E94E01361E070E080E0D5
:1044200090E00E944915809111010E94F31334E03D
:10443000B32E48E0942E0E94130D8230910539F17D
:104440001CF4019751F0F7CF8430910509F447C06F
:10445000089789F70E94B20CEECF61E070E080E02F
:1044600090E00E94491580911101883010F48E5F10
:1044700019C09092110188E00E94F31362E070E08D
:1044800080E090E00E9449158FE493E025C061E050
:1044900070E080E090E00E94491580911101853024
:1044A00070F08250809311010E94F31362E070E07B
:1044B00080E090E00E9449158DE492E00DC0B0923A
:1044C000110184E00E94F31362E070E080E090E06C
:1044D0000E9449158DE593E00E94E013ACCF6091F6
:1044E00011018BE090E095C10E94DC138AE00E94EC
:1044F0005D1560E070E080E090E00E9449158BE679
:1045000093E00E94E01361E070E080E090E00E94A0
:1045100049158091FD049091FE040E94081480E8E2
:1045200092E00E94E0138091FB049091FC040A97B2
:1045300024F482E892E00E94E0138091FB049091C1
:10454000FC040E94081480E892E00E94E01380912D
:10455000F9049091FA040A9724F482E892E00E9408
:10456000E0138091F9049091FA040E9408148AE5FE
:1045700092E00E94E01363E070E080E090E00E942F
:10458000491580911201909113010C970E94081413
:104590008AE592E00E94E0130E94130D823091059B
:1045A00091F11CF4019751F0F7CF8430910509F493
:1045B00068C0089789F70E94B20CEECF10920A07E4
:1045C00060910B0770910C0780910D0790910E0779
:1045D00020E432E44FE050E00E94602930E0309364
:1045E000FE042093FD048091120190911301883103
:1045F000910514F4019624C0E8E1F0E0F093130172
:10460000E093120126C010920A0760910B07709187
:104610000C0780910D0790910E0720E432E44FE0E3
:1046200050E00E94602930E03093FE042093FD04A6
:1046300080911201909113011816190634F4019714
:10464000909313018093120104C0109213011092F1
:10465000120163E070E080E090E00E9449158091D3
:104660001201909113010C970E9408148AE592E0C0
:104670000E94E01361E070E080E090E00E94491544
:104680008BCF6091120183E190E0C3C00E94DC13E4
:104690008AE00E945D1560E070E080E090E00E949A
:1046A00049158DE793E00E94E01361E070E080E03F
:1046B00090E00E9449150E94BA0C0E94130D8230AE
:1046C000910589F044F40197C1F7809125019091FB
:1046D00026010A960DC08430910579F0089769F794
:1046E0000E94B20CEACF80912501909126010A9791
:1046F0009093260180932501D8CF80912501909138
:10470000260164E670E00E94F02B8EE190E081C00B
:104710000E94DC138AE00E945D1560E070E080E09A
:1047200090E00E94491582E993E00E94E01361E065
:1047300070E080E090E00E94491580912401811191
:104740001BC087EA93E00E94E0130E94130D8230A1
:10475000910561F01CF4019749F0F7CF8430910581
:1047600071F0089791F70E94B20CEFCF809124016D
:104770008E2580932401DBCF82EA93E0E4CF809101
:104780002401882311F061E001C060E082E190E043
:1047900040C00E94DC138AE00E945D1560E070E07A
:1047A00080E090E00E9449158CEA93E00E94E013BB
:1047B00061E070E080E090E00E9449158091140172
:1047C00081111BC088EC93E00E94E0130E94130D3E
:1047D0008230910561F01CF4019749F0F7CF8430E5
:1047E000910571F0089791F70E94B20CEFCF80917C
:1047F00014018E2580931401DBCF8FEB93E0E4CF7F
:1048000080911401882311F061E001C060E08DE126
:1048100090E00E948A0C38C20E94DC138AE00E9459
:104820005D1560E070E080E090E00E94491583ED46
:1048300093E00E94E01361E070E080E090E00E946D
:10484000491586EE93E00E94E01363E070E080E09B
:1048500090E00E94491587EF93E00E94E013609179
:1048600015017091160180911701909118010E9415
:10487000351420E030E048EC52E46091150170916D
:10488000160180911701909118010E94622B0E94DD
:10489000752A4B010E94130D8230910591F144F568
:1048A0000197C1F763E070E080E090E00E94491555
:1048B00087EF93E00E94E01320E030E048EC52E400
:1048C0006091150170911601809117019091180166
:1048D0000E94622B2B013C010E94752A4B0120E0B3
:1048E00030E040E85FE3C301B2010E9492292EC08C
:1048F0008430910509F43FC0089761F60E94B20C1C
:10490000C9CF63E070E080E090E00E94491587EF36
:1049100093E00E94E01320E030E048EC52E4609124
:1049200015017091160180911701909118010E9454
:10493000622B2B013C010E94752A4B0120E030E0E4
:1049400040E85FE3C301B2010E94912920E030E01A
:1049500048EC52E40E94032A6093150170931601FB
:1049600080931701909318010E9435148BE592E013
:104970000E94E0138FCFB4018CE090E0C6C00E948B
:10498000DC138AE00E945D1560E070E080E090E05A
:104990000E9449158EEF93E00E94E01361E070E001
:1049A00080E090E00E94491582E194E00E94E013CB
:1049B00063E070E080E090E00E9449158EE194E0B1
:1049C0000E94E0136091190170911A0180911B01FE
:1049D00090911C010E94351420E030E048EC52E434
:1049E0006091190170911A0180911B0190911C0135
:1049F0000E94622B0E94752A4B010E94130D823087
:104A0000910509F445C0D4F50197B9F763E070E06A
:104A100080E090E00E9449158EE194E00E94E0134E
:104A200020E030E048EC52E46091190170911A01E5
:104A300080911B0190911C010E94622B2B013C0173
:104A40000E94752A4B0120E030E040E85FE3C3019B
:104A5000B2010E94922920E030E048EC52E40E942A
:104A6000032A6093190170931A0180931B0190939C
:104A70001C010E9435148AE592E041C08430910502
:104A800009F440C0089709F0B8CF0E94B20CB5CF26
:104A900063E070E080E090E00E9449158EE194E0D0
:104AA0000E94E01320E030E048EC52E460911901EC
:104AB00070911A0180911B0190911C010E94622B40
:104AC0002B013C010E94752A4B0120E030E040E8B8
:104AD0005FE3C301B2010E94912920E030E048EC7D
:104AE00052E40E94032A6093190170931A01809383
:104AF0001B0190931C010E94351488E592E00E94EE
:104B0000E0137BCFB4018EE090E00E94A20CBCC009
:104B10000E94DC138AE00E945D1560E070E080E096
:104B200090E00E94491586E294E00E94E01361E063
:104B300070E080E090E00E94491588E394E00E94D4
:104B4000E01363E070E080E090E00E94491587EF99
:104B500093E00E94E01360911D0170911E0180910D
:104B60001F01909120010E94351420E030E048ECB4
:104B700052E460911D0170911E0180911F0190917E
:104B800020010E94622B0E94752A4B010E94130D86
:104B90008230910591F144F50197C1F763E070E02F
:104BA00080E090E00E94491587EF93E00E94E013B7
:104BB00020E030E048EC52E460911D0170911E014C
:104BC00080911F01909120010E94622B2B013C01DA
:104BD0000E94752A4B0120E030E040E85FE3C3010A
:104BE000B2010E9492292EC08430910509F43FC081
:104BF000089761F60E94B20CC9CF63E070E080E0D4
:104C000090E00E94491587EF93E00E94E01320E0B6
:104C100030E048EC52E460911D0170911E018091DA
:104C20001F01909120010E94622B2B013C010E94E8
:104C3000752A4B0120E030E040E85FE3C301B20198
:104C40000E94912920E030E048EC52E40E94032ABF
:104C500060931D0170931E0180931F0190932001AA
:104C60000E9435148BE592E00E94E0138FCFB401CF
:104C700080E190E04ACF213021F441C9213009F48C
:104C800041C9223009F06AC90E94DC13063028F1BC
:104C90008F2C912C880C991C612C712C8AE00E941D
:104CA0005D15B30181E090E00E944915F301EE0F1C
:104CB000FF1FE80DF91D41E050E04C0F5D1FE40FB0
:104CC000F51F808191810E94E0135FEF651A750ADC
:104CD00086E06816710411F721C0B12C8F2C912C3D
:104CE0006B2C712C26143704CCF08AE00E945D15E1
:104CF000B30181E090E00E944915F401E60DF71D33
:104D0000EE0FFF1FA1E0B0E0AC0FBD1FEA0FFB1FCD
:104D1000808191810E94E013B394E2CF21E01EC90B
:104D200080912A01811110922A010E9480010C9425
:104D300092191150E4C80F931F93CF93DF93EC01A6
:104D4000162F60E0812F0E944A03612F70E0FB0163
:104D5000E358FE4FE491E883FB01E25AFE4FE491F1
:104D6000F0E0EE0FFF1FE05BFE4F859194919A8378
:104D700089831B861D861C86FE013B968E010D5F76
:104D80001F4F1292E017F107E1F7DF91CF911F91CA
:104D90000F9108950F931F931092AB051092AA05DF
:104DA00088EE93E0A0E0B0E08093AC059093AD0571
:104DB000A093AE05B093AF052FE531E03093A90580
:104DC0002093A8052DEC30E03093B5052093B40571
:104DD0002CEC30E03093B7052093B60528EC30E09A
:104DE0003093B9052093B80529EC30E03093BB052A
:104DF0002093BA052AEC30E03093BD052093BC0522
:104E00002EEC30E03093BF052093BE051092C10513
:104E10001092C2051092C3051092C4051092480664
:104E2000109247068093490690934A06A0934B063A
:104E3000B0934C0621E731E03093460620934506B7
:104E40002FEF3FEF30935206209351061092DD076B
:104E50001092DC078093DE079093DF07A093E007B2
:104E6000B093E10783E891E09093DB078093DA0742
:104E70008AE897E09093B1078093B0078EE897E0B7
:104E80009093AF078093AE0786E897E09093B307BF
:104E90008093B2071092CC071092C4071092C507F6
:104EA0001092C6071092C70780E090E0AFE7B3E426
:104EB0008093C8079093C907A093CA07B093CB0704
:104EC00084E690E0A0E0B0E08093C0079093C10733
:104ED000A093C207B093C30781E090E09093AB0723
:104EE0008093AA079093AD078093AC078093CD077A
:104EF00080E090E0A0E8BFE380939207909393074F
:104F0000A0939407B0939507809396079093970783
:104F1000A0939807B093990780939A0790939B0763
:104F2000A0939C07B0939D0780E090E0A0E8BFEBC2
:104F300080939E0790939F07A093A007B093A1072B
:104F40008DEC9CECACECBDEB8093A2079093A30797
:104F5000A093A407B093A50780E090E0A0E2B1EC95
:104F60008093A6079093A707A093A807B093A907DB
:104F70000E946A040091C0071091C1072091C207E6
:104F80003091C307DC01CB01801B910BA20BB30B4B
:104F90008093B4079093B507A093B607B093B70773
:104FA0001092D9061092DA061092DC061092DB06F7
:104FB0001092DD061092DE061092DF061092E006D7
:104FC0001092E1061092E3061092E2061092E406B7
:104FD0001092E5061092E6061092E7061092E80697
:104FE0001092EA061092E9061092EB061092EC0677
:104FF0001092ED061092EE061092EF061092F10656
:105000001092F0061092F2061092F3061092F40637
:105010001092F5061092F6061092FB061092FC060E
:105020001092FD061092FE061092FF0610920007E5
:105030001092090710920A0710920B0710920C07A2
:1050400010920D0710920E07109217071092180772
:1050500010921D0710921E0710921F071092200732
:10506000109225071092260710922B0710922C07FA
:1050700010922D0710922E071092330710923407CA
:105080001092390710923A0710923B0710923C0792
:10509000109241071092420710924707109248075A
:1050A0001092490710924A0710924F07109250072A
:1050B00010925507109256071092570710925807F2
:1050C00010925D0710925E0782E080936E07109247
:1050D0006F07109270071092710710927307109269
:1050E000720710927507109274071092760710924B
:1050F0007707109278071092790710927A0710922A
:105100007B0710927C0710927D0710927E07109209
:105110007F071092800710928107109282071092E9
:105120008307109284071092850710925F071092F0
:10513000C8061092C70685E991E09093C606809351
:10514000C50685EA91E09093CA068093C90688E077
:105150008093D40689E08093D5068AE08093D606B2
:105160001092D70685EC96E00E94F70D66E182E08A
:1051700098E00E949B266BE084EF97E00E949B26BC
:105180006CE086EE97E00E949B268091C30690918A
:10519000C4066AE070E00E94F02B7093C206609330
:1051A000C1069093C0068093BF068091B9068C30EB
:1051B000A0F491E0980F9093B9068093BC0690E01C
:1051C000FC01EE0FFF1F8E0F9F1FFC01EB56F94FE6
:1051D00088EB9BE09283818303C08FEF8093BC06B2
:1051E00080913701909138019093BB068093BA0665
:1051F0001F910F9108951F93FC0199278827BC01E7
:10520000E89411911032E9F3193010F01E30C8F310
:105210001B3251F01D3249F4689406C00E942229C5
:10522000610F711D811D911D119110531A30B0F342
:105230003EF490958095709561957F4F8F4F9F4F6D
:105240001F910895592F482F372F262F660F771F4C
:10525000881F991F660F771F881F991F620F731F82
:10526000841F951F660F771F881F991F0895F9994E
:10527000FECF92BD81BDF89A992780B50895262F5B
:10528000F999FECF1FBA92BD81BD20BD0FB6F8942B
:10529000FA9AF99A0FBE019608950E948229A59F55
:1052A000900DB49F900DA49F800D911D1124089521
:1052B000B7FF0C944D290E944D29821B930B089532
:1052C000A1E21A2EAA1BBB1BFD010DC0AA1FBB1F0A
:1052D000EE1FFF1FA217B307E407F50720F0A21B7C
:1052E000B30BE40BF50B661F771F881F991F1A94E9
:1052F00069F760957095809590959B01AC01BD0113
:10530000CF010895A29FB001B39FC001A39F700D6C
:10531000811D1124911DB29F700D811D1124911DBD
:1053200008955058BB27AA270E94A9290C94232B23
:105330000E94152B38F00E941C2B20F039F49F3F5F
:1053400019F426F40C94122B0EF4E095E7FB0C9460
:105350000C2BE92F0E94342B58F3BA1762077307FE
:105360008407950720F079F4A6F50C94562B0EF4DB
:10537000E0950B2EBA2FA02D0B01B90190010C0165
:10538000CA01A0011124FF27591B99F0593F50F47D
:10539000503E68F11A16F040A22F232F342F4427D5
:1053A000585FF3CF469537952795A795F0405395CD
:1053B000C9F77EF41F16BA0B620B730B840BBAF09D
:1053C0009150A1F0FF0FBB1F661F771F881FC2F708
:1053D0000EC0BA0F621F731F841F48F4879577951C
:1053E0006795B795F7959E3F08F0B0CF9395880FD6
:1053F00008F09927EE0F9795879508950E94E82A5F
:1054000008F481E008950E94172A0C94232B0E942F
:105410001C2B58F00E94152B40F029F45F3F29F017
:105420000C940C2B51110C94572B0C94122B0E94A2
:10543000342B68F39923B1F3552391F3951B550B46
:10544000BB27AA2762177307840738F09F5F5F4F57
:10545000220F331F441FAA1FA9F335D00E2E3AF096
:10546000E0E832D091505040E695001CCAF72BD0AE
:10547000FE2F29D0660F771F881FBB1F26173707FF
:105480004807AB07B0E809F0BB0B802DBF01FF2731
:1054900093585F4F3AF09E3F510578F00C940C2BD7
:1054A0000C94572B5F3FE4F3983ED4F386957795A1
:1054B0006795B795F7959F5FC9F7880F911D9695EA
:1054C000879597F90895E1E0660F771F881FBB1F46
:1054D000621773078407BA0720F0621B730B840BF3
:1054E000BA0BEE1F88F7E09508950E947C2A689415
:1054F000B1110C94572B08950E943C2B88F09F57B4
:1055000098F0B92F9927B751B0F0E1F0660F771FE7
:10551000881F991F1AF0BA95C9F714C0B13091F0DD
:105520000E94562BB1E008950C94562B672F782FCC
:105530008827B85F39F0B93FCCF3869577956795A2
:10554000B395D9F73EF490958095709561957F4F0E
:105550008F4F9F4F0895E89409C097FB3EF49095B4
:105560008095709561957F4F8F4F9F4F9923A9F03C
:10557000F92F96E9BB279395F695879577956795CB
:10558000B795F111F8CFFAF4BB0F11F460FF1BC00F
:105590006F5F7F4F8F4F9F4F16C0882311F096E9A2
:1055A00011C0772321F09EE8872F762F05C0662350
:1055B00071F096E8862F70E060E02AF09A95660F09
:1055C000771F881FDAF7880F9695879597F90895C2
:1055D000990F0008550FAA0BE0E8FEEF1616170604
:1055E000E807F907C0F012161306E407F50798F06C
:1055F000621B730B840B950B39F40A2661F0232B85
:10560000242B252B21F408950A2609F4A140A69500
:105610008FEF811D811D089597F99F6780E870E0E5
:1056200060E008959FEF80EC089500240A94161618
:10563000170618060906089500240A941216130680
:10564000140605060895092E0394000C11F488230E
:1056500052F0BB0F40F4BF2B11F460FF04C06F5F2A
:105660007F4F8F4F9F4F089557FD9058440F551F00
:1056700059F05F3F71F04795880F97FB991F61F0D4
:105680009F3F79F087950895121613061406551F4B
:10569000F2CF4695F1DF08C0161617061806991FB7
:1056A000F1CF86957105610508940895E894BB27AC
:1056B00066277727CB0197F908950E94E82A08F416
:1056C0008FEF08950E94752B0C94232B0E94152BAD
:1056D00038F00E941C2B20F0952311F00C940C2B19
:1056E0000C94122B11240C94572B0E94342B70F322
:1056F000959FC1F3950F50E0551F629FF001729F77
:10570000BB27F00DB11D639FAA27F00DB11DAA1F85
:10571000649F6627B00DA11D661F829F2227B00DD2
:10572000A11D621F739FB00DA11D621F839FA00D5D
:10573000611D221F749F3327A00D611D231F849FAD
:10574000600D211D822F762F6A2F11249F57504004
:105750009AF0F1F088234AF0EE0FFF1FBB1F661F7F
:10576000771F881F91505040A9F79E3F510580F048
:105770000C940C2B0C94572B5F3FE4F3983ED4F31E
:10578000869577956795B795F795E7959F5FC1F7EC
:10579000FE2B880F911D9695879597F908950E9485
:1057A000E82A880B990B0895DB018F939F930E9441
:1057B0004D29BF91AF91A29F800D911DA39F900D88
:1057C000B29F900D11240895991B79E004C0991F90
:1057D000961708F0961B881F7A95C9F7809508954B
:1057E00097FB072E16F4009407D077FD09D00E948E
:1057F0000A2C07FC05D03EF4909581959F4F0895A3
:10580000709561957F4F0895EE0FFF1F0590F491FD
:10581000E02D0994AA1BBB1B51E107C0AA1FBB1FA7
:10582000A617B70710F0A61BB70B881F991F5A952C
:10583000A9F780959095BC01CD01089581E090E095
:10584000F8940C94422CFB01DC018D91019080199D
:105850000110D9F3990B0895FB01DC0101900D9221
:105860000020E1F70895FB01DC014150504048F071
:1058700001900D920020C9F701C01D924150504087
:08588000E0F70895F894FFCF52
:10588800020202020202020202020000C842010AE7
:1058980000060C00010000803F0000803F000080EF
:1058A8003F01B80B01F401017C0601FFFFFFFF0077
:1058B800E100000000000060044604530460040393
:1058C80003710482047D0392039304D3039804268E
:1058D8000414020700C180810000000000000025B8
:1058E8000FBC0E4301CF0274015201660100000093
:1058F800008A01E5036802A001AB016C028A02007C
:1059080000000057024302140835023C02390236EF
:1059180002000000003909BC0E14081308F508122B
:1059280008FCFF00003609110853544541445950FA
:1059380041535300202056657273696F6E3A2000F8
:10594800414351554952494E47205349474E414CCE
:10595800002020504C4541534520574149542000D0
:1059680024504D544B3331342C302C312C302C30C6
:105978002C302C302C302C302C302C302C302C303F
:105988002C302C302C302C302C302C302C302A322F
:1059980039000D0A0024504D544B3232302C32302D
:1059A800302A324300202120444543524541534583
:1059B80020212020202020002021205448524F540C
:1059C800544C452021202020202000202020202069
:1059D80020202020202020202020202020003C7370
:1059E800706565647C003C7461726765747C003C1A
:1059F8006761707C003C536572766F506F737C00F2
:105A08003A003000475053004D5048004B50480072
:105A1800504F574552200020204F46462020005224
:105A2800504D005620005754522000632020004655
:105A38002000414952200052504D20005454004D3E
:105A480061696E204D656E75004D696E20546872EF
:105A58006F74746C6520004D6178205468726F749F
:105A6800746C65200054657374205468726F747484
:105A78006C652052616E676520002800292020206F
:105A88002020005265766572736520536572766FC3
:105A9800204D6F64650052657665727365204D6FA1
:105AA8006465004E6F726D616C204D6F6465004EC9
:105AB8006F726D616C204D6F6465202000456E67C4
:105AC800696E652043796C696E6465727320004D58
