:100000000C9423010C9426170C94FF160C94D8160C
:100010000C94B1160C944B010C944B010C948A1661
:100020000C944B010C944B010C94A41D0C94161EC3
:100030000C944B010C944B010C944B010C944B0110
:100040000C944B010C944D1A0C944B010C944B01E5
:100050000C944B010C944B010C944B010C944016E6
:100060000C944B010C94F5100C94CF100C944B0194
:100070000C944B010C944B010C944B010C944B01D0
:100080000C944B010C944B010C944B010C944B01C0
:100090000C94CD170C944B010C944B010C944B0118
:1000A0000C944B010C944B010C944B019310961043
:1000B000851089108F10B710B710B7109A109E10C6
:1000C000A210A810AC10B710B210E622F822FB2242
:1000D0000223092337233E234B235823642364231D
:1000E00064236423642364236423642364236423D8
:1000F00064236423642364236423642364236423C8
:1001000064236423642364236423E622F322F82215
:10011000FB220223092310231D232A23070605049B
:100120000100080A0B0C0D09000000002400270044
:100130002A002D00300000000000250028002B00C0
:100140002E003100000000002300260029002C00B2
:100150002F00040404040403040502020202040341
:100160000202020206060606060604040202020451
:1001700004040802011040804010204080408008A4
:100180000204018040201002011080102040402015
:100190000000000200090F0000030401000C000031
:1001A000000000000000000000000000000000004F
:1001B0005EBCE2613FDD83C29C7E20A3FD1F410047
:1001C0009D23BE46DB65F88C11AF32CA57E974082F
:1001D0000B000202020100090400000102020000FB
:1001E0000524001001052401010104240206052450
:1001F0000600010705810310004009040100020AFE
:1002000000000007050202400000070583024000CD
:10021000000403090412010002EF020140412336E9
:100220008000010102030141726475696E6F204C08
:100230004C430041726475696E6F204C656F6E614E
:1002400072646F00202911241FBECFEFDAE0DEBFF9
:10025000CDBF14E0A0E0B1E0E0E4FEE502C005900F
:100260000D92A832B107D9F727E0A8E2B4E001C0A7
:100270001D92AC36B207E1F711E0C3E2D1E004C051
:100280002197FE010E94E02EC232D107C9F70E94D9
:10029000DA250C941E2F0C9400002F923F924F925F
:1002A0005F926F927F928F929F92AF92BF92CF9206
:1002B000DF92EF92FF920F931F93CF93DF93CDB70F
:1002C000DEB76B970FB6F894DEBF0FBECDBF80913F
:1002D0004C04882339F060E08DE00E9450111092A8
:1002E0004C0407C061E08DE00E94501181E08093D2
:1002F0004C04E0905504F090560482EA91E00E948C
:100300006A12C70199270E94A1130E94C9208091F7
:100310000901882341F00E94781264E670E080E0D1
:1003200090E00E94E1118091A405882321F11092B0
:10033000A5056091AA057091AB058091AC059091DF
:10034000AD050E94892D2EEB3CE443E95FE30E945A
:100350003E2E20E030E048EC52E40E94DF2C20E00A
:1003600030E048EC52E40E943E2E0E94512D7093E2
:100370005904609358048091B2058823C1F010920B
:10038000B3056091B8057091B9058091BA05909157
:10039000BB050E94892D20E030E048EC52E40E9429
:1003A000DF2C0E94512D70934B0460934A04C0903F
:1003B0004604D0904704E0904804F09049040E941D
:1003C0001B12C616D706E806F90608F0BAC00E9446
:1003D0001B12DC01CB0188579C4EAF4FBF4F80935F
:1003E000460490934704A0934804B0934904809135
:1003F0002F0490913004A0913104B0913204809385
:10040000290490932A04A0932B04B0932C0481E038
:1004100080932804ECE1EE2EE1E0FE2E809128048A
:100420008330C8F5F701849190917B0083FB00270E
:1004300000F910E0980175E0220F331F7A95E1F77B
:100440009F7D292B20937B008770806480937C00A4
:1004500080917A00806480937A0080917A0086FD92
:10046000FCCF609178008091790070E0782B072EA6
:10047000000C880B990B0E94892D60932F047093B8
:1004800030048093310490933204809128048F5F6C
:1004900080932804C3CF2DEC3CEC4CE052E46091F7
:1004A0002F047091300480913104909132040E94A5
:1004B000DF2C60932F047093300480933104909369
:1004C00032048AE295E00E94DD198AE295E00E94FA
:1004D00027140E94582D60932D04613819F410924E
:1004E0002D040FC08091140181110BC0F9E06F9FA2
:1004F000C001112465E070E00E94CC2E605E609324
:100500002D048EE395E00E94DD198EE395E00E94B4
:1005100027140E94582D60932E04613819F410920C
:100520002E040FC08091140181110BC029E0629F3D
:10053000C001112465E070E00E94CC2E605E6093E3
:100540002E0485EA91E09093450480934404209121
:100550001F053091200580911501909116012817F3
:10056000390709F075C0C0904004D0904104E09074
:100570004204F09043040E941B12C616D706E806F8
:10058000F90608F065C00E941B12DC01CB01805304
:10059000984FAF4FBF4F8093400490934104A09376
:1005A0004204B093430482E10E94D61360E070E0FD
:1005B00080E090E00E94C2138FEA91E00E947C12DA
:1005C00061E070E080E090E00E94C21382EC91E074
:1005D0000E947C120E94C9208091A405882321F1E9
:1005E0001092A5056091AA057091AB058091AC05AC
:1005F0009091AD050E94892D2EEB3CE443E95FE329
:100600000E943E2E20E030E048EC52E40E94DF2CB5
:1006100020E030E048EC52E40E943E2E0E94512D32
:10062000709359046093580460E070E080E090E0BB
:100630000E94C21385ED91E00E947C1261E070E09F
:1006400080E090E00E94C21385ED91E00E947C1250
:1006500080913F04811109C080912501909126016C
:100660009093200580931F0581C2813019F4109268
:10067000080103C081E0809308018091080188236C
:10068000E9F16091580470915904072E000C880B11
:10069000990B0E94892D60931B0670931C06809312
:1006A0001D0690931E066091230170912401072E70
:1006B000000C880B990B0E94892D60931306709390
:1006C00014068093150690931606409027015090CB
:1006D00028016090290170902A0180901E0190905D
:1006E0001F01A0902001B0902101C0901A01D0906C
:1006F0001B01E0901C01F0901D0135C00E94902468
:10070000BC01990F880B990B0E94892D60931B06E1
:1007100070931C0680931D0690931E06609106013F
:1007200070910701072E000C880B990B0E94892DF0
:100730006093130670931406809315069093160623
:1007400040902701509028016090290170902A0163
:1007500080901E0190901F01A0902001B090210177
:10076000C12CD12C76010091390610913A0620E077
:1007700030E0A901C301B2010E94DA2C87FDA2C0BA
:1007800020E030E0A901C501B4010E94DA2C87FD08
:1007900099C020E030E0A901C701B6010E94DA2C1F
:1007A00087FD90C081E00130110509F080E0809361
:1007B0005A0640921F0650922006609221067092BF
:1007C00022068092230690922406A0922506B092DB
:1007D0002606C0922706D0922806E0922906F092BB
:1007E0002A0660914D0670914E0680914F069091B9
:1007F00050060E94872D20E030E04AE754E40E9432
:10080000DF2C6F87788B898B9A8B40922B065092C6
:100810002C0660922D0670922E069B01AC01C5013C
:10082000B4010E943E2E4B015C0160932F06709331
:10083000300680933106909332062F853889498996
:100840005A89C701B6010E94DF2C6B017C016093BD
:100850003306709334068093350690933606809164
:10086000370690913806019769F5A301920160E07F
:1008700070E0CB010E946D2C60932B0670932C06C8
:1008800080932D0690932E06A501940160E070E000
:10089000CB010E946D2C60932F06709330068093DD
:1008A000310690933206A701960160E070E0CB011B
:1008B0000E946D2C60933306709334068093350646
:1008C0009093360680915906882309F441C10E940D
:1008D0001B126B8B7C8B8D8B9E8B80914106909134
:1008E0004206A0914306B09144064B895C896D890C
:1008F0007E89481B590B6A0B7B0B80914D069091AA
:100900004E06A0914F06B0915006481759076A0746
:100910007B0708F41DC1E0913B06F0913C06808105
:100920009181A281B3818F87988BA98BBA8BE0913B
:100930003F06F09140069C01AD016081718182818A
:1009400093810E946D2C4B015C01209149063091EE
:100950004A0640914B0650914C066F8578898989EB
:100960009A890E946D2C6B017C0120912F06309199
:1009700030064091310650913206C501B4010E9403
:100980003E2E2091450630914606409147065091F3
:1009900048060E946E2C2B013C0160934506709323
:1009A0004606809347069093480690915A069F8B7F
:1009B00091111AC020912B0630912C0640912D06E2
:1009C00050912E06C701B6010E943E2E9B01AC013C
:1009D000C301B2010E946D2C6093450670934606D8
:1009E00080934706909348064090450650904606EF
:1009F0006090470670904806109155060091560683
:100A00003090570620905806212F302F432D522D1D
:100A1000C301B2010E94392E18162CF4812F902F99
:100A2000A32DB22D16C0209151063091520640914F
:100A3000530650915406288F398F4A8F5B8FC3011C
:100A4000B2010E94DA2C87FF0CC0888D998DAA8D87
:100A5000BB8D8093450690934606A0934706B093BE
:100A600048069F89992379F020912B0630912C0616
:100A700040912D0650912E06C501B4010E943E2ED4
:100A80004B015C0103C0812C912C54012091330651
:100A9000309134064091350650913606C701B601B3
:100AA0000E943E2E9B01AC01609145067091460666
:100AB00080914706909148060E946D2C9B01AC01E5
:100AC000C501B4010E946E2C6B017C01212F302FD7
:100AD000432D522D0E94392E1816B4F01091510654
:100AE000009152063090530620905406212F302F4B
:100AF000432D522DB601C7010E94DA2C87FD04C098
:100B00001C2D0D2D3E2C2F2CE0913D06F0913E0624
:100B1000812F902FA32DB22D80839183A283B38345
:100B20002F85388949895A892093490630934A0686
:100B300040934B0650934C068B899C89AD89BE89A6
:100B40008093410690934206A0934306B0934406D7
:100B500060911706709118068091190690911A06F7
:100B60000E94512D7093200560931F05209157041A
:100B700080911F0590912005222371F0409125015D
:100B8000509126012091150130911601240F351F37
:100B9000D901A81BB90BCD010E94EF13809123014D
:100BA000909124012AE030E0B9010E94CC2E70938C
:100BB0002905609328058091580490915904B90142
:100BC0000E94CC2E70933E0460933D0480911901E5
:100BD000811112C0072E000C880B990B0E94892DE1
:100BE0002BE734E14EEC5FE30E943E2E0E94512D34
:100BF00070933E0460933D0410929705C090980551
:100C0000D0909905E0909A05F0909B05C701B60138
:100C100020E432E44FE050E00E943C2C8091170128
:100C200090911801820F911D9C012C50310937FDC4
:100C300005C030933C0420933B0405C00C96909370
:100C40003C0480933B0480913B0490913C048931A7
:100C500091052CF0489790933C0480933B04C70186
:100C6000B60120E137E240E050E00E943C2C64E60F
:100C7000862E912CA12CB12CCA01B901A501940199
:100C80000E943C2C70933A0460933904C701B6016A
:100C9000A50194010E943C2CCA01B901A50194014F
:100CA0000E943C2C70933804609337048AE00E94C1
:100CB000D61361E070E080E090E00E94C213809162
:100CC0003B0490913C040E94AD1288EE91E00E949A
:100CD0007C128091390490913A040A9724F48AEEA8
:100CE00091E00E947C128091390490913A040E9414
:100CF000AD1288EE91E00E947C12809137049091B1
:100D000038040A9724F48AEE91E00E947C128091C4
:100D10003704909138040E94AD1285EE91E00E9454
:100D20007C128AE00E94D61363E070E082E190E0DA
:100D30000E94C2136EEF82E00E948D138CEE91E050
:100D40000E947C1264E070E082E190E00E94C21395
:100D50006DEF82E00E948D1380911901882319F0B4
:100D600080EF91E002C084EF91E00E947C1260E08D
:100D700070E080E090E00E94C21388EF91E00E9452
:100D80007C12C0903304D0903404E0903504F0908D
:100D900036040E941B12C616D706E806F90608F0AC
:100DA0004DC00E941B12DC01CB018C509E4FAF4FF7
:100DB000BF4F8093330490933404A0933504B093D1
:100DC0003604009115011091160180911F05909134
:100DD0002005B801681B790B072E000C880B990BB6
:100DE0000E94892D6B017C01809125019091260143
:100DF000F801E81BF90BBF01FF0F880B990B0E944C
:100E0000892D9B01AC01C701B6010E94DF2C20E0B7
:100E100030E048EC52E40E943E2E60930001709353
:100E2000010180930201909303010E94512DCB0197
:100E30000E94AD1285EE91E00E947C1282E10E9438
:100E4000D61360E070E086E090E00E94C2138091CB
:100E50003F04811104C08FEF91E00E947C128091C9
:100E60003F04813071F486EE91E00E947C12809103
:100E70000601909107010E94AD1288E092E00E9465
:100E80007C1280913F04823009F075C08091190175
:100E9000609123017091240181110EC0072E000C76
:100EA000880B990B0E94892D2BE734E14EEC5FE310
:100EB0000E943E2E0E94512DCB016AE070E00E94FC
:100EC000CC2E709329056093280580912805909178
:100ED00029056AE070E00E94CC2E7093270560938C
:100EE00026059093250580932405860F971F97FF6D
:100EF00003C08CE092E008C06A3071051CF485EEF6
:100F000091E002C086EE91E00E947C12809126055D
:100F10009091270597FF07C091958195910990932E
:100F200027058093260580912605909127050E942C
:100F3000AD128FE092E00E947C1280912405909186
:100F4000250597FF07C091958195910990932505F7
:100F50008093240580912405909125050E94AD126F
:100F600080911901882319F081E192E002C086E1A5
:100F700092E00E947C128AE00E94D61362E070E048
:100F800080E090E00E94C2138BE192E00E947C120C
:100F900060912F047091300480913104909132045B
:100FA0000E94D61285EE91E00E947C1264E070E00F
:100FB00080E090E00E94C2138EE192E00E947C12D9
:100FC00080912E040E949A1280911401882319F0B6
:100FD00083E292E002C084E092E00E947C1265E02D
:100FE00070E080E090E00E94C21387E292E00E94ED
:100FF0007C1280912D040E949A1280911401882302
:1010000019F083E292E002C084E092E00E947C1238
:1010100066E070E080E090E00E94C2138CE292E013
:101020000E947C120E9490240E94AD1283EE91E0F7
:101030000E947C128BEC0E94D61360E070E080E08E
:1010400090E00E94C21366E18EE20E948D138091AF
:101050003D0490913E048436910564F481E392E06E
:101060000E946A1280E30E948F1260E082E595E0A0
:101070000E94382580913D0490913E040AE010E0E2
:10108000B8010E94CC2ECB010E94AD1289EC0E94C7
:10109000D61360E070E080E090E00E94C2136BE243
:1010A0008FE60E948D1380913D0490913E04B8011B
:1010B0000E94CC2E0E94AD121092370180915C07E5
:1010C000882309F44DC080913F048230F9F42091C7
:1010D00058073091590740915A0750915B0760912A
:1010E0002301709124016B01770FEE08FF08AAE03D
:1010F000B0E00E94292CDC01CB018C0D9D1DAE1DA2
:10110000BF1D909324018093230120C08130F1F40E
:10111000209158073091590740915A0750915B0729
:1011200060910601709107016B01770FEE08FF08CF
:10113000AAE0B0E00E94292CDC01CB018C0D9D1DA2
:10114000AE1DBF1D909307018093060110925807B2
:101150001092590710925A0710925B0710925C0781
:1011600084E00E94271120915D07892B21F42F5FD5
:1011700020935D070EC0222351F080913F048F5FC2
:10118000833018F480933F0402C010923F04109201
:101190005D0780915D07883088F00E94781284E1B5
:1011A0000E94D61360E070E080E090E00E94C213DD
:1011B00064EF71E080E090E00E94E1113AE0C32E1C
:1011C0004AE0A42EB12C80915D07883008F46FC6E8
:1011D00084E392E00E947C1264EF71E080E090E092
:1011E0000E94E11184E00E942711892BD9F38EE03F
:1011F000E9E3F1E0DE01119601900D928A95E1F7A5
:10120000E12CFE013196EE0DF11DEE0DF11D8081F8
:1012100091818A5D934011F0E394F3CFEA940E94A8
:10122000781281E08093380112E0F12CD12C8E2CC1
:10123000912C0E940A2482309105A1F01CF40197A0
:1012400051F0ADC584309105F9F0089709F0A7C5B4
:101250000E940124A4C5F110A5C5DD2009F4D1C563
:10126000DA94D4C58D2D90E00596881599052CF457
:1012700025E0F21202C0D39412E08F2D90E0059782
:101280000CF08DC5F3948FC58F2D90E08D0D911DC1
:101290008230910509F44CC23CF4009709F44CC02B
:1012A000019709F447C17BC58430910509F4B3C3A4
:1012B0000CF4C6C2059709F072C50E9478128AE044
:1012C0000E94D61360E070E080E090E00E94C213BC
:1012D00082E293E00E947C1261E070E080E090E0A6
:1012E0000E94C21382E393E00E947C1263E070E0EC
:1012F00080E090E00E94C21387EF92E00E947C128F
:1013000060911A0170911B0180911C0190911D0147
:101310000E94D61220E030E048EC52E460911A01BD
:1013200070911B0180911C0190911D010E943E2E25
:101330000E94512D8B018AC4809115019091160154
:101340009093200580931F050E9478128AE00E94E6
:10135000D61360E070E080E090E00E94C2138EE35C
:1013600092E00E947C1261E070E080E090E00E94D8
:10137000C2138CE492E00E947C1262E070E080E094
:1013800090E00E94C21380E692E00E947C1264E02A
:1013900070E080E090E00E94C21386E792E00E9435
:1013A0007C1280915704882329F080912501909127
:1013B000260104C080911501909116010E94AD1282
:1013C00083EE91E00E947C1280911F059091200590
:1013D0000E94EF130E940A248230910519F11CF437
:1013E000019751F0F1CF8430910509F46BC0089753
:1013F00059F70E940124E8CF2091570480911501EC
:10140000909116012223E9F02091250130912601C7
:10141000281739071CF5265F3F4F3093260120938C
:10142000250121C02091570480912501909126012A
:10143000211114C0209115013091160182179307D4
:1014400034F00A9690931601809315010CC02A502F
:101450003109309316012093150105C00A97909326
:1014600026018093250164E070E080E090E00E9416
:10147000C21386E792E00E947C1280915704882371
:1014800029F0809125019091260104C080911501D9
:10149000909116010E94AD1283EE91E00E947C12A1
:1014A00080915704882329F080912501909126018D
:1014B00004C08091150190911601909320058093AE
:1014C0001F0582CF6091150170911601072E000C47
:1014D000880B990B0E94892D2B013C0160912501FD
:1014E00070912601072E000C880B990B0E94892D04
:1014F000AB01BC01930182018FE196E00E944D1780
:1015000080915704882351F0809125019091260104
:10151000B5010E94CC2E85E190E009C080911501B3
:1015200090911601B5010E94CC2E84E190E00E94BA
:10153000D9236CC4809125019091260190932005B8
:1015400080931F050E9478128AE00E94D61360E003
:1015500070E080E090E00E94C21381E892E00E9477
:101560007C1261E070E080E090E00E94C2138FE89E
:1015700092E00E947C1262E070E080E090E00E94C5
:10158000C21382EA92E00E947C1264E070E080E084
:1015900090E00E94C21386E792E00E947C12809144
:1015A0005704882329F0809115019091160104C0F9
:1015B00080912501909126010E94AD1283EE91E069
:1015C0000E947C1280911F05909120050E94EF13CC
:1015D0000E940A248230910519F11CF4019751F000
:1015E000F1CF8430910509F46BC0089759F70E9438
:1015F0000124E8CF209157048091150190911601A4
:1016000021111DC02091250130912601281739078D
:101610001CF5265F3F4F309326012093250121C002
:101620002091570480912501909126012223A1F059
:1016300020911501309116018217930734F00A9614
:1016400090931601809315010CC02A5031093093F4
:1016500016012093150105C00A97909326018093E7
:10166000250164E070E080E090E00E94C21386E70C
:1016700092E00E947C1280915704882329F0809187
:1016800015019091160104C08091250190912601C9
:101690000E94AD1283EE91E00E947C12809157046B
:1016A000882329F0809115019091160104C0809142
:1016B0002501909126019093200580931F0582CFEC
:1016C00080915704882351F0809115019091160163
:1016D000B5010E94CC2E84E190E009C080912501E3
:1016E00090912601B5010E94CC2E85E190E00E94E8
:1016F000D9236091150170911601072E000C880BFB
:10170000990B0E94892D2B013C016091250170915C
:101710002601072E000C880B990B0E94892DAB0126
:10172000BC01930182018FE196E00E944D176EC3C8
:1017300080912501909126019093200580931F05AB
:101740000E9478128AE00E94D61360E070E080E088
:1017500090E00E94C21387EB92E00E947C1261E04D
:1017600070E080E090E00E94C21389EC92E00E9459
:101770007C122091570480911F059091200522230F
:1017800071F0409125015091260120911501309171
:101790001601240F351FA901481B590BCA010E94CD
:1017A000AD128BEC92E00E947C1264E670E080E067
:1017B00090E00E94E11180911F05909120056091B9
:1017C0002501709126016817790734F021E030E097
:1017D00030930501209304014091150150911601A9
:1017E0008417950734F0AFEFBFEFB0930501A093D6
:1017F0000401E0910401F0910501CE9E9001CF9E7D
:10180000300D1124820F931F9093200580931F05A4
:1018100020915704222331F0460F571FFA01E81B8D
:10182000F90BCF010E94EF130E940A248430910526
:1018300009F4ECC2089709F092CF0E9401248FCFDF
:101840000E9478128AE00E94D61360E070E080E087
:1018500090E00E94C21382ED92E00E947C1261E04F
:1018600070E080E090E00E94C21384EE92E00E945B
:101870007C1263E070E080E090E00E94C21387EF8A
:1018800092E00E947C126091270170912801809162
:10189000290190912A010E94D61220E030E048EC04
:1018A00052E4609127017091280180912901909163
:1018B0002A010E943E2E0E94512D8B010E940A2473
:1018C0008230910509F445C01CF4019751F0F6CF20
:1018D0008430910509F49BC0089781F70E94012488
:1018E000EDCF63E070E080E090E00E94C21387EFEC
:1018F00092E00E947C1220E030E048EC52E46091DB
:101900002701709128018091290190912A010E945C
:101910003E2E2B013C0120E030E048EC52E40E94D6
:10192000392E87FD0DC080E090E0A8ECB2E48093F2
:10193000270190932801A0932901B0932A0143C065
:1019400020E030E040E85FE3C301B2010E946E2C6A
:1019500032C063E070E080E090E00E94C21387EF45
:1019600092E00E947C1220E030E048EC52E460916A
:101970002701709128018091290190912A010E94EC
:101980003E2E2B013C0120E030E0A9010E94DA2C20
:1019900018164CF01092270110922801109229017C
:1019A00010922A0110C020E030E040E85FE3C3015C
:1019B000B2010E946D2C60932701709328018093DF
:1019C000290190932A0140902701509028016090AE
:1019D000290170902A01C301B2010E94512D8B018F
:1019E00020E030E048EC52E4C301B2010E94DF2C59
:1019F00060932701709328018093290190932A0115
:101A00000E94D61285EE91E00E947C1257CFB80159
:101A10008CE090E013C10E9478128AE00E94D613F5
:101A200060E070E080E090E00E94C2138EEF92E0F0
:101A30000E947C1261E070E080E090E00E94C2139E
:101A40008CE093E00E947C1263E070E080E090E024
:101A50000E94C2138AE193E00E947C1260911E01F1
:101A600070911F0180912001909121010E94D61256
:101A700020E030E048EC52E460911E0170911F01BB
:101A800080912001909121010E943E2E0E94512DB3
:101A90008B010E940A248230910509F46EC01CF467
:101AA000019751F0F6CF8430910509F4C4C008972E
:101AB00081F70E940124EDCF63E070E080E090E0C8
:101AC0000E94C2138AE193E00E947C1220E030E081
:101AD00048EC52E460911E0170911F018091200139
:101AE000909121010E943E2E2B013C0120E030E02C
:101AF00048EC52E40E94392E87FD0DC080E090E052
:101B0000A8ECB2E480931E0190931F01A0932001E2
:101B1000B093210110C020E030E040E85FE3C30152
:101B2000B2010E946E2C60931E0170931F0180937E
:101B300020019093210140901E0150901F01609060
:101B4000200170902101C301B2010E94512D8B012F
:101B500020E030E048EC52E4C301B2010E94DF2CE7
:101B600060931E0170931F018093200190932101C7
:101B70000E94D61284EE91E05BC063E070E080E0EA
:101B800090E00E94C2138AE193E00E947C1220E060
:101B900030E048EC52E460911E0170911F01809189
:101BA0002001909121010E943E2E2B013C0120E05A
:101BB00030E0A9010E94DA2C18164CF010921E0198
:101BC00010921F01109220011092210110C020E0FC
:101BD00030E040E85FE3C301B2010E946D2C6093E6
:101BE0001E0170931F01809320019093210140906A
:101BF0001E0150901F016090200170902101C301CF
:101C0000B2010E94512D8B0120E030E048EC52E4FB
:101C1000C301B2010E94DF2C60931E0170931F016B
:101C200080932001909321010E94D61282EE91E0D0
:101C30000E947C122ECFB8018EE090E00E94F1232A
:101C4000E5C08330910544F4019779F00E940A249D
:101C500082309105B1F741C08430910509F49BC0F1
:101C60000897A1F70E940124F1CF63E070E080E0C3
:101C700090E00E94C21387EF92E00E947C1220E065
:101C800030E048EC52E460911A0170911B018091A0
:101C90001C0190911D010E943E2E2B013C0120E071
:101CA00030E048EC52E40E94392E87FD0DC080E000
:101CB00090E0A8ECB2E480931A0190931B01A093EA
:101CC0001C01B0931D0143C020E030E040E85FE319
:101CD000C301B2010E946E2C32C063E070E080E06C
:101CE00090E00E94C21387EF92E00E947C1220E0F5
:101CF00030E048EC52E460911A0170911B01809130
:101D00001C0190911D010E943E2E2B013C0120E000
:101D100030E0A9010E94DA2C18164CF010921A013A
:101D200010921B0110921C0110921D0110C020E0A6
:101D300030E040E85FE3C301B2010E946D2C609384
:101D40001A0170931B0180931C0190931D01409018
:101D50001A0150901B0160901C0170901D01C3017D
:101D6000B2010E94512D8B0120E030E048EC52E49A
:101D7000C301B2010E94DF2C60931A0170931B0112
:101D800080931C0190931D010E94D61285EE91E074
:101D90000E947C125BCFB80180E190E04FCF113000
:101DA00091F501C0FA94EF1408F4FE2C00E010E065
:101DB0008AE00E94D613B80180E090E00E94C2132E
:101DC00086EE91E00E947C12B80180E090E00E94D3
:101DD000C21386EE91E00E947C120F5F1F4F063007
:101DE000110531F78AE00E94D6136F2D70E080E074
:101DF00090E00E94C21380E493E00E947C1210E005
:101E000051C0113099F2123009F04CC00E94781282
:101E1000F5E0FE1528F50D2D10E0000F111F612CC7
:101E2000712C8AE00E94D613B30181E090E00E94F9
:101E3000C213F301EE0FFF1FE00FF11F21E030E0AE
:101E40002C0F3D1FE20FF31F808191810E947C12B5
:101E50003FEF631A730A46E06416710411F721C05C
:101E6000312C0D2D10E0632C712C86149704CCF0CE
:101E70008AE00E94D613B30181E090E00E94C21371
:101E8000F801E60DF71DEE0FFF1F81E090E08C0FCB
:101E90009D1FE80FF91F808191810E947C1233946D
:101EA000E2CF11E0809138018111C3C98CC98091C2
:101EB00009018111109209016B960FB6F894DEBFEB
:101EC0000FBECDBFDF91CF911F910F91FF90EF908B
:101ED000DF90CF90BF90AF909F908F907F906F904A
:101EE0005F904F903F902F900895CF92DF92EF92A6
:101EF000FF920F931F93CF93DF936C017A018B01B5
:101F0000C0E0D0E0CE15DF0589F0D8016D918D01DC
:101F1000D601ED91FC910190F081E02DC60109956B
:101F2000892B11F47E0102C02196ECCFC701DF910D
:101F3000CF911F910F91FF90EF90DF90CF90089578
:101F4000FC01538D448D252F30E0842F90E0821BBF
:101F5000930B541710F0CF96089501970895FC0144
:101F6000918D828D981761F0828DDF01A80FB11DD0
:101F70005D968C91928D9F5F9F73928F90E00895F4
:101F80008FEF9FEF0895FC01918D828D981731F0AE
:101F9000828DE80FF11D858D90E008958FEF9FEF02
:101FA0000895FC01918D228D892F90E0805C9F4FD8
:101FB000821B91098F73992708958DE594E00E9403
:101FC000D10F21E0892B09F420E0822F0895FC0134
:101FD000848DDF01A80FB11DA35ABF4F2C91848DB2
:101FE00090E001968F739927848FA689B7892C93E7
:101FF000A089B1898C9180648C93938D848D981382
:1020000006C00288F389E02D80818F7D808308954A
:10201000EF92FF920F931F93CF93DF93EC0181E038
:10202000888F9B8D8C8D981305C0E889F9898081F4
:1020300085FD24C0F62E0B8D10E00F5F1F4F0F7330
:102040001127E02E8C8DE8120CC00FB607FCFACFDA
:10205000E889F989808185FFF5CFCE010E94E70FDD
:10206000F1CF8B8DFE01E80FF11DE35AFF4FF08297
:102070000B8FEA89FB898081806207C0EE89FF8926
:102080006083E889F98980818064808381E090E0C1
:10209000DF91CF911F910F91FF90EF900895CF9313
:1020A000DF93EC01888D8823C9F0EA89FB89808160
:1020B00085FD05C0A889B9898C9186FD0FC00FB632
:1020C00007FCF5CF808185FFF2CFA889B9898C9173
:1020D00085FFEDCFCE010E94E70FE7CFDF91CF91D3
:1020E000089580E090E0892B29F00E94DD0F811196
:1020F0000C940000089590E0FC013197EF30F10559
:10210000B0F5EA5AFF4F0C94E02E809180008F7753
:1021100003C0809180008F7D80938000089580911E
:102120008000877FF9CF84B58F7702C084B58F7D1B
:1021300084BD0895809190008F7707C080919000B2
:102140008F7D03C080919000877F809390000895D9
:102150008091C0008F7703C08091C0008F7D8093F5
:10216000C00008958091C200877F8093C2000895C7
:102170000E94FA2E6115710579F0FB010190002093
:10218000E9F73197AF01461B570BDC01ED91FC914C
:102190000280F381E02D099480E090E008951F9281
:1021A0000F920FB60F9211242F933F934F935F938B
:1021B0006F937F938F939F93AF93BF93EF93FF930F
:1021C0008DE594E00E94E70FFF91EF91BF91AF91F1
:1021D0009F918F917F916F915F914F913F912F913F
:1021E0000F900FBE0F901F9018951F920F920FB671
:1021F0000F9211242F938F939F93EF93FF93E0916E
:102200006D04F0916E048081E0917304F091740488
:1022100082FD12C09081809176048F5F8F73209130
:102220007704821751F0E0917604F0E0E35AFB4F17
:10223000958F8093760401C08081FF91EF919F91EB
:102240008F912F910F900FBE0F901F901895CF93E5
:10225000DF93282F30E0F901E057FE4F8491F90118
:10226000EF58FE4FD491F901EE5AFE4FC491CC23A2
:1022700091F081110E947B10EC2FF0E0EE0FFF1F18
:10228000EC5BFE4FA591B491EC91ED2381E090E0E1
:1022900021F480E002C080E090E0DF91CF910895CA
:1022A0001F93CF93DF93282F30E0F901E057FE4FC3
:1022B0008491F901EF58FE4FD491F901EE5AFE4F87
:1022C000C491CC23C9F0162F81110E947B10EC2FF2
:1022D000F0E0EE0FFF1FEA5CFE4FA591B4918FB7BF
:1022E000F894111105C09C91ED2FE095E92302C0EF
:1022F000EC91ED2BEC938FBFDF91CF911F9108955F
:10230000CF93DF9390E0FC01EF58FE4F2491FC0146
:10231000EE5AFE4F8491882361F190E0880F991F57
:10232000FC01E85DFE4FC591D491FC01EA5CFE4FD3
:10233000A591B491611109C09FB7F8948881209547
:1023400082238883EC912E230BC0623061F49FB707
:10235000F8943881822F809583238883EC912E2BEB
:102360002C939FBF06C08FB7F894E8812E2B28834B
:102370008FBFDF91CF9108953FB7F89480915104BA
:1023800090915204A0915304B091540426B5A89B97
:1023900005C02F3F19F00196A11DB11D3FBFBA2FF7
:1023A000A92F982F8827820F911DA11DB11DBC0157
:1023B000CD0142E0660F771F881F991F4A95D1F71C
:1023C00008958F929F92AF92BF92CF92DF92EF9239
:1023D000FF926B017C010E94BC114B015C01C11496
:1023E000D104E104F104F1F00E94BC11DC01CB0145
:1023F00088199909AA09BB09883E9340A105B1052E
:1024000070F321E0C21AD108E108F10888EE880EC5
:1024100083E0981EA11CB11CC114D104E104F10495
:1024200019F7DDCFFF90EF90DF90CF90BF90AF9086
:102430009F908F9008952FB7F89460914D047091FC
:102440004E0480914F04909150042FBF08958F92B5
:102450009F92AF92BF920F931F93CF93DF93CDB70D
:10246000DEB7A1970FB6F894DEBF0FBECDBF19A29D
:10247000423008F44AE08E010F5D1F4F842E912CEC
:10248000A12CB12CA50194010E943C2CE62FB9018E
:10249000CA0101501109EA3014F4E05D01C0E95CA1
:1024A000D801EC93232B242B252B61F7B80182E56F
:1024B00095E00E94BA10A1960FB6F894DEBF0FBE49
:1024C000CDBFDF91CF911F910F91BF90AF909F90A3
:1024D0008F900895CF93DF93EC016991662329F0E3
:1024E00082E595E00E943825F8CFDF91CF910895DD
:1024F0008BEE93E00C946A12CF93DF93EC0181E3AF
:1025000092E00E946A12BE0182E595E00E94BA1034
:1025100060E082E595E0DF91CF910C943825E09161
:102520005205F09153050190F081E02D682F82E56E
:1025300095E00994CF93C82F81E392E00E946A123C
:102540006C2F70E080E090E04AE00E94271260E08B
:1025500082E595E0CF910C943825CF92DF92EF92EF
:10256000FF926C0181E392E00E946A120D2C000C34
:10257000EE08FF08F7FE0CC08DE20E948F1266275E
:102580007727CB016C197D098E099F094AE003C0AA
:102590004AE0C701B6010E94271260E082E595E09B
:1025A000FF90EF90DF90CF900C9438258F929F9200
:1025B000AF92BF92CF92DF92EF92FF926B017C01BC
:1025C00081E392E00E946A12A7019601C701B60159
:1025D0000E94AB2E882319F06EEE73E01AC04601FC
:1025E0005701E894B7F82FEF3FEF4FE75FE7C501DA
:1025F000B4010E94AB2E811111C02FEF3FEF4FE7C6
:102600005FE7C501B4010E94DA2C18163CF462EFB2
:1026100073E082E595E00E94BA1072C02FEF3FEFA1
:102620004FE75FE4C701B6010E94392E18161CF46B
:1026300066EF73E0EECF2FEF3FEF4FE75FECC701A0
:10264000B6010E94DA2C87FDF3CF20E030E0A9012B
:10265000C701B6010E94DA2C87FF07C08DE20E94F5
:102660008F12F7FAF094F7F8F0942AE037ED43EA86
:102670005BE3C701B6010E946E2C4B015C010E9416
:10268000582D6B017C010E94872D9B01AC01C50177
:10269000B4010E946D2C4B015C014AE0C701B601F8
:1026A0000E9427128EE20E948F1220E030E040E26A
:1026B00051E4C501B4010E943E2E4B015C010E9411
:1026C000582D6B01E12CF12C4AE0C701B6010E94A4
:1026D0002712C701B6010E94872D9B01AC01C501DD
:1026E000B4010E946D2C20E030E040E251E40E94F1
:1026F0003E2E0E94582D80E090E04AE00E94271272
:1027000060E082E595E0FF90EF90DF90CF90BF9082
:10271000AF909F908F900C943825CF93DF93D82F54
:10272000C62F8AEF93E00E946A126D2F82E595E032
:102730000E9438256C2F82E595E0DF91CF910C94B3
:102740003825CF93DF93EC01E0915205F0915305CA
:102750000190F081E02D8F3F910510F4682F0DC09E
:102760006FEF82E595E00995E0915205F0915305F0
:102770006C2F6F5F0190F081E02D82E595E0DF9195
:10278000CF9109940F931F93CF93DF938C01EB01AB
:102790008EEF93E00E946A12C8010E94A113CE013D
:1027A000DF91CF911F910F910C94A113CF93DF93E1
:1027B0001F92CDB7DEB7682F81E094E069830E9455
:1027C0006A12E0915205F09153050190F081E02DDD
:1027D000698182E595E00F90DF91CF910994AC017A
:1027E000909121059C3090F58091220528E830E0F9
:1027F000281B310987FD3395220F331F220F331F0A
:102800004217530784F08091230528E532E0281B06
:10281000310987FD3395220F331F220F331F4217D3
:1028200053070CF49A0122503109220F331F4FB77E
:10283000F894892F90E0FC01EE0FFF1F8E0F9F1F71
:10284000FC01E650FB4F328321834FBF08955F9216
:102850006F927F928F929F92AF92BF92CF92DF92B0
:10286000EF92FF920F931F93CF93DF93CDB7DEB715
:1028700062970FB6F894DEBF0FBECDBFDC0116968F
:10288000ED91FC911797138615861486DF011B9630
:1028900033961E92AE17BF07E1F7FC010681178140
:1028A000D8011D962C91211164C07C01C8010E94A1
:1028B000A719882309F45DC040E060EFC8010E94B9
:1028C0006519CC24C394B12CA12CDD24D394C80168
:1028D0000E941219682FC8016A8B0E9412196A8916
:1028E000613019F48130D1F437C02B2D30E06813FA
:1028F0001EC0D8011B968C91D81638F4F801E20F4F
:10290000F31F83818C2151F402C0D81639F060E0A6
:10291000B8E0BD1558F0F801D48608C0F801EB0DF9
:10292000F11D83818C29838361E009C0AD2CF801FE
:10293000E20FF31F93818C2D809589238383C80137
:102940000E943619D394CC0C19F4B394CC24C394BC
:10295000F7E0FB1508F0BBCF40E44D1550F4D8016B
:102960001B96AC921B97A11009C081E01D968C9319
:1029700005C0F80113861586148618C0D801139671
:102980008C918823B1F3F8013396CE014296DE0193
:102990001A9621912D93A817B907D9F767E0CE01B0
:1029A0000A960E94FB189989891729F060E070E067
:1029B0008EEF92EC9AC0F701868197810E94A71949
:1029C000882309F47FC0D7011696CD90DC90179725
:1029D00040E065E5C6010E9465198E01065F1F4F44
:1029E000B8E0BB2EB00EF80161918F0140E0C60146
:1029F0000E946519B012F7CF40E06EEBD701169632
:102A00008D919C9117970E946519FE0131965F0187
:102A10004F01A9E05A2E5E0ED70116966D907C905C
:102A20001797F8E0CF2ED12C01E010E0C3010E94EF
:102A300012198111102B000FB1E0CB1AD108B1F798
:102A4000F40111934F015E12E7CFD70116968D91D5
:102A50009C9117970E94A7198130A1F568E0C501E4
:102A60000E94FB18998589132DC06981B8E06B9F7E
:102A7000B00111248A81282F30E0322F2227330F12
:102A8000330F330F262B372B8A858031C9F46885A5
:102A900070E08F81FB01E81BF109CF019695982F1B
:102AA0008827979587950E94CC2E60517109207FC9
:102AB00053E0220F331F5A95E1F7620F731F04C0D2
:102AC000B90102C060E874EE6138F4EE7F070CF4DF
:102AD0006DCF072E000C880B990B0E94892D20E0EA
:102AE00030E040E05CE30E943E2E62960FB6F89420
:102AF000DEBF0FBECDBFDF91CF911F910F91FF9031
:102B0000EF90DF90CF90BF90AF909F908F907F908D
:102B10006F905F900895FC0180915C04811103C067
:102B20008FEF9FEF08959FB7F89482E08093E900BC
:102B30002091F20030E01216130614F421E030E088
:102B40002115310559F0289884E680935B04809123
:102B5000F10080838091F200882319F09FBFC901A2
:102B600008958BE68093E800F9CF2FB7F89483E0BF
:102B70008093E9009091E800892F807295FF04C04E
:102B80009091F20080E4891B2FBF089580915F0629
:102B900081110DC082E080935B0684E080935C0627
:102BA00010925E0610925D0681E080935F068BE5D1
:102BB00096E00895089585ED8093BC008091BC0057
:102BC00084FDFCCF10922907089540910307262F1A
:102BD00030E0240F311D21323105DCF4209129072A
:102BE0002430C9F4FC0180E090E0861758F430915D
:102BF00003072191DC01AF51B94FA30FB11D2C93F5
:102C00000196F3CF80910307680F6093030780E07C
:102C1000089581E0089582E0089508958FEF9FEF71
:102C200008958FEF9FEF08958091E00690E09195D1
:102C3000819591090895CF93DF9300D0CDB7DEB78A
:102C4000CB01642F49835A830E94E5154981842F63
:102C50005A81952F0F900F90DF91CF910895CF93C8
:102C6000DF931F92CDB7DEB7698361E0CE01019695
:102C70000E94E51581E090E00F90DF91CF910895DB
:102C80001F920F920FB60F9211242F933F938F93A1
:102C90009F93AF93BF9380914D0490914E04A09168
:102CA0004F04B091500430914F0723E0230F2D378C
:102CB00020F40196A11DB11D05C026E8230F029640
:102CC000A11DB11D20934F0780934D0490934E0496
:102CD000A0934F04B09350048091510490915204FA
:102CE000A0915304B09154040196A11DB11D80938D
:102CF000510490935204A0935304B0935404BF9191
:102D0000AF919F918F913F912F910F900FBE0F9098
:102D10001F9018951F920F920FB60F9211242F93A8
:102D20003F934F935F936F937F938F939F93AF9353
:102D3000BF93EF93FF93E0911201F0911301099576
:102D4000FF91EF91BF91AF919F918F917F916F9183
:102D50005F914F913F912F910F900FBE0F901F9059
:102D600018951F920F920FB60F9211242F933F9335
:102D70004F935F936F937F938F939F93AF93BF9383
:102D8000EF93FF93E0911001F09111010995FF91EC
:102D9000EF91BF91AF919F918F917F916F915F91D3
:102DA0004F913F912F910F900FBE0F901F9018954C
:102DB0001F920F920FB60F9211242F933F934F93B0
:102DC0005F936F937F938F939F93AF93BF93EF9393
:102DD000FF93E0910E01F0910F010995FF91EF91A2
:102DE000BF91AF919F918F917F916F915F914F9123
:102DF0003F912F910F900FBE0F901F9018951F922B
:102E00000F920FB60F9211242F933F934F935F931E
:102E10006F937F938F939F93AF93BF93EF93FF93A2
:102E2000E0910C01F0910D010995FF91EF91BF9197
:102E3000AF919F918F917F916F915F914F913F9152
:102E40002F910F900FBE0F901F9018951F920F9209
:102E50000FB60F9211242F933F934F935F936F936D
:102E60007F938F939F93AF93BF93EF93FF93E091E3
:102E70000A01F0910B010995FF91EF91BF91AF917C
:102E80009F918F917F916F915F914F913F912F9182
:102E90000F900FBE0F901F9018952F923F924F9258
:102EA0005F926F927F928F929F92AF92BF92CF92DA
:102EB000DF92EF92FF920F931F93CF93DF93EC017A
:102EC0006A017B0148015901A9019801C701B601B6
:102ED0000E94392E87FF4EC0CAAADBAAECAAFDAA1F
:102EE0008EAA9FAAA8AEB9AE8AAD882309F442C0C3
:102EF0002E8C3F8CF1014080518062807380A5014F
:102F00009401C301B2010E94392E181634F4F10164
:102F100080829182A282B3820DC0A7019601C30173
:102F2000B2010E94DA2C87FF05C0F101C082D18274
:102F3000E282F3828EA09FA0A8A4B9A4CEA8DFA8A5
:102F4000E8ACF9ACA7019601C501B4010E94392E85
:102F5000181664F0CAA8DBA8ECA8FDA8A701960182
:102F6000C501B4010E94DA2C87FF04C0CEA2DFA203
:102F7000E8A6F9A6DF91CF911F910F91FF90EF90F6
:102F8000DF90CF90BF90AF909F908F907F906F9089
:102F90005F904F903F902F9008951F920F920FB621
:102FA0000F9211242F933F934F935F936F937F93CF
:102FB0008F939F93AF93BF93EF93FF938091B9004B
:102FC000887F803609F49CC068F5883209F45BC0BC
:102FD00090F4803109F454C038F4882309F4F6C021
:102FE000883009F44DC0F6C0883109F44CC08032F5
:102FF00009F45DC0EFC0803409F468C048F4803340
:1030000009F455C0883309F0E5C080932807D8C07B
:10301000803509F44FC0883509F45DC0883409F063
:10302000D9C0D6C0883909F4C7C0A8F4883709F4D4
:1030300067C038F4883609F463C0803709F460C08B
:10304000C9C0883809F4B8C0803909F45FC0803835
:1030500009F0C0C05BC0803B09F486C038F4803AF8
:1030600009F466C0883A09F47FC0B4C0803C09F412
:10307000A7C0883C09F4A4C0883B09F48AC0AAC050
:1030800080914E0710C090914D0780914C07981782
:1030900070F5E0914D0781E08E0F80934D07F0E0D1
:1030A000E45DF84F80818093BB0085EC86C08093FF
:1030B00028078EC0E0914D0781E08E0F80934D0769
:1030C0008091BB00F0E0E45DF84F808390914D0764
:1030D00080914C076EC0E0914D0781E08E0F809388
:1030E0004D078091BB00F0E0E45DF84F8083809154
:1030F0002B0781116DC081E080932A0784EA61C0AB
:1031000083E08093290710922707CFCF809127076C
:10311000803208F051C0E091270781E08E0F809344
:1031200027078091BB00F0E0E95FF84F8083BDCFB7
:1031300085EC8093BC00109229078091270780328C
:1031400030F4E0912707F0E0E95FF84F10826091DA
:10315000270770E0E0910507F091060787E097E008
:1031600009951092270736C084E0809329071092B2
:10317000040710920307E0910107F09102070995F7
:1031800080910307811105C081E0809303071092AD
:10319000E106E091040781E08E0F80930407F0E0E0
:1031A000EF51F94F80818093BB009091040780918B
:1031B0000307981708F479CF85E88093BC000AC00C
:1031C00085EC8093BC001092290704C01092280758
:1031D0000E94DB15FF91EF91BF91AF919F918F916D
:1031E0007F916F915F914F913F912F910F900FBE03
:1031F0000F901F901895DC0180E0615090F09D9138
:103200009827E92FEF70F0E0E155FE4F2491929559
:103210009F70E92FF0E0E154FE4FE4918E2F82275A
:10322000ECCF0895FC0190810180F281E02DF894AB
:103230008181892B81832281892F80952823228374
:10324000A7E0B0E01197F1F7218182238183A3E207
:10325000B0E01197F1F780817894EFECF0E03197CE
:10326000F1F7982381E009F480E00895FC01908152
:103270000180F281E02D892F809560FF12C0F894C3
:103280002281822382838181892B8183A3E2B0E022
:103290001197F1F78281982B9283789487ED90E0D3
:1032A00011C0F8942281822382838181892B8183BA
:1032B000AFEFB0E01197F1F78281982B9283789469
:1032C0008FE090E00197F1F70895CF92DF92EF92AF
:1032D000FF920F931F93CF93DF931F92CDB7DEB76B
:1032E0006C01E62E08E010E0FF24F39461E08F2DDE
:1032F0008E2109F460E0C60149830E943619FF0C53
:103300000150110949810115110581F7411115C0BD
:10331000F894D6011196ED91FC91129791818C91C0
:103320008095892381831196ED91FC91129792816A
:103330008C9180958923828378940F90DF91CF912F
:103340001F910F91FF90EF90DF90CF900895FC01B7
:1033500090810180F281E02DF8948181292F2095C0
:103360008223818378948DE743E050E0815021F1FE
:10337000DA011197F1F730813923C1F3F894828192
:10338000822382838181892B81837894ABE7B7E0A4
:103390001197F1F7F894818128232183A3E1B1E00B
:1033A0001197F1F78081982381E009F080E078940B
:1033B000E3E6F6E03197F1F708958F929F92AF928E
:1033C000BF92CF92DF92EF92FF920F931F93CF9312
:1033D000DF93EC018E819F810E94A71940E06CEC85
:1033E0008E819F810E946519488164E48E819F814E
:1033F0000E9465198A81882309F442C0E981E95055
:10340000E33040F4F0E0EE0FFF1FEB56FE4F00817B
:10341000118102C00EEE12E08B818823F9F08881C1
:1034200081111CC00E941B124B015C016801110F2D
:10343000EE08FF088E819F810E941219813001F1F0
:103440000E941B12DC01CB018C199D09AE09BF093A
:1034500088159905AA05BB0568F312C0B801110FBC
:10346000880B990BDF91CF911F910F91FF90EF90F7
:10347000DF90CF90BF90AF909F908F900C94E11110
:10348000DF91CF911F910F91FF90EF90DF90CF9040
:10349000BF90AF909F908F9008951F920F920FB69C
:1034A0000F9211242F933F934F935F936F937F93CA
:1034B0008F939F93AF93BF93EF93FF938091DF061A
:1034C00087FF05C010928500109284001BC02091D8
:1034D000DF06022E000C330B80911E0590E02817AA
:1034E000390784F48091DF06082E000C990BFC014B
:1034F000EE0FFF1F8E0F9F1FFC01E650FB4F8081D8
:1035000086FD15C08091DF068F5F8093DF062091D6
:10351000DF06022E000C330B80911E0590E0281769
:103520003907C4F48091DF068C3064F113C08091B8
:10353000DF06082E000C990BFC01EE0FFF1F8E0F0B
:103540009F1FFC01E650FB4F808160E08F730E945B
:103550005011D8CF809184009091850004968034DA
:103560009C4918F480E49CE905C080918400909106
:103570008500049690938900809388008FEF809354
:10358000DF063BC020918400309185008091DF06EA
:10359000082E000C990BFC01EE0FFF1F8E0F9F1FD2
:1035A000FC01E650FB4F81819281820F931F909323
:1035B0008900809388008091DF06082E000C990B0B
:1035C000FC01EE0FFF1F8E0F9F1FFC01E650FB4F0B
:1035D000808186FF12C08091DF06082E000C990BB7
:1035E000FC01EE0FFF1F8E0F9F1FFC01E650FB4FEB
:1035F000808161E08F730E945011FF91EF91BF9124
:10360000AF919F918F917F916F915F914F913F917A
:103610002F910F900FBE0F901F901895CF93DF93AF
:10362000EC018A859B85AC85BD858E839F83A887A9
:10363000B9870E941B126A837B838C839D8381E000
:1036400089838883DF91CF9108952F923F924F9283
:103650005F926F927F928F929F92AF92BF92CF9222
:10366000DF92EF92FF920F931F93CF93DF93D82FA8
:10367000C92F8B010E94D72B24E630E040E050E0B8
:103680000E943C2C49015A019B01AC0160E876E99B
:1036900088E990E00E94B02E6B017C01F8019182D4
:1036A0008082ED2FFC2F2191822F022E000C990B8E
:1036B000C0970A97C0F32E3239F51F0180E8882E93
:1036C00086E9982E88E9A82EB12C9AE0492E512C33
:1036D000612C712CF101C1911F010C2E000CDD0B2E
:1036E000E097CA30D10580F4C501B401A30192016D
:1036F0000E943C2C49015A01DE010E94342CC60E66
:10370000D71EE81EF91EE6CFA5E0B0E0A70196019E
:103710000E94292C6F5F7F4F8F4F9F4F23E030E037
:1037200040E050E00E943C2CF80122833383448324
:1037300055831682DF91CF911F910F91FF90EF90EB
:10374000DF90CF90BF90AF909F908F907F906F90C1
:103750005F904F903F902F900895FF920F931F938B
:10376000CF93DF93EC01FF24F39488818D3211F025
:10377000F12C01C02196CE010E94D72B9B01AC01F8
:10378000A4E6B0E00E94292CFE014991242F042ECA
:10379000000C330B205331092A303105A8F34E3287
:1037A00041F52181022E000C330B205331092A30C0
:1037B0003105F8F44AE0429F8001439F100D112427
:1037C000012E000C220B330B600F711F821F931F01
:1037D0000281002E000C110B005311090A30110553
:1037E00040F4012E000C220B330B600F711F821F5F
:1037F000931FFF2039F090958095709561957F4FCC
:103800008F4F9F4FDF91CF911F910F91FF900895A0
:10381000CF93DF931F92CDB7DEB76983DC01ED91C3
:10382000FC910280F381E02D41E050E0BE016F5F2A
:103830007F4F09950F90DF91CF91089583E080939A
:10384000E9008091F200882319F08AE38093E80070
:103850000895FC018485958597FD0BC09FB7F8946A
:1038600082E08093E9008091F2009FBF90E0019692
:1038700008959FB7F89482E08093E9008091F20068
:103880009FBF90E008958F929F92AF92BF92CF9288
:10389000DF92EF92FF920F931F93CF93DF935C0120
:1038A0006B017A0180913601882309F45BC0809115
:1038B0005C04882309F456C08091560780FF05C038
:1038C0008091E00082608093E000E70110E00AEF61
:1038D00083E0882E9AE3992E2097D9F10E94B5159E
:1038E00081110AC0015009F43DC061E070E080E040
:1038F00090E00E94E111F0CF282F30E0C217D307EB
:103900000CF48C2F4FB7F8948092E9009091E80066
:1039100095FF1DC0282F30E0C21BD30BF601982F56
:10392000915020F081918093F100FACFC20ED31E06
:10393000112319F09092E80009C08091E80085FDFC
:1039400006C09092E80011E0209709F010E04FBF08
:10395000C3CF1111C3CF5D9884E6809357071E141F
:103960001F0444F081E090E0F5019383828380E0BE
:1039700090E001C0C701DF91CF911F910F91FF909F
:10398000EF90DF90CF90BF90AF909F908F90089571
:103990000E94B51590E00895CF93DF931F92CDB7A5
:1039A000DEB7FC018485958597FD05C02FEF3FEFBD
:1039B000358724870BC0CE0101960E948B15019795
:1039C00019F4898190E002C08FEF9FEF0F90DF9193
:1039D000CF9108950F931F93CF93DF931F92CDB78D
:1039E000DEB78C01FC018485958597FF0EC0CE0162
:1039F00001960E948B15019719F4298130E002C0CD
:103A00002FEF3FEFF80135872487F80184859585EE
:103A10000F90DF91CF911F910F910895CF92DF9278
:103A2000EF92FF920F931F93CF93DF931F92CDB727
:103A3000DEB7182F062FE42E862F880F8E5F99830E
:103A40000E949F2583E00E949F25F12EC12E99811F
:103A5000D92E8C2D8F19801798F4F601E7FE02C03D
:103A6000849101C080810E949F25182F80E00E94D0
:103A70009F258123FFEFCF1ADF0A8111EACF01C012
:103A800081E00F90DF91CF911F910F91FF90EF9008
:103A9000DF90CF900895DF92EF92FF920F931F93E4
:103AA000CF93DF93D82E8A017B01E40EF51EEB0144
:103AB000CE15DF0571F0D7FE03C0FE01849101C071
:103AC00088810E949F2521968111F2CF8FEF9FEF71
:103AD00001C0C801DF91CF911F910F91FF90EF902E
:103AE000DF9008950F931F93CF93DF931F92CDB76D
:103AF000DEB782E0898342E450E06FEC71E080E859
:103B00000E944B1D0E94C615DC0112960D911C915E
:103B100013970115110569F0D801ED91FC91028010
:103B2000F381E02DBE016F5F7F4FC801099597FFBC
:103B300007C089810F90DF91CF911F910F91089558
:103B4000F80100851185E5CF1F920F920FB60F92F5
:103B500011248F939F938091E1009091E100937FD6
:103B60009093E10083FF0FC01092E90091E09093E1
:103B7000EB001092EC0092E39093ED0010925C0445
:103B800098E09093F00082FF20C093E09093E900CA
:103B90009091F200992319F09AE39093E8009091A4
:103BA0005707992339F090915707915090935707F1
:103BB000992389F190915B04992339F090915B04EA
:103BC000915090935B04992341F184FF10C0809140
:103BD000E2008E7E81608093E2008091E1008F7E22
:103BE0008093E100809156078E7E806111C080FF36
:103BF00016C08091E2008E7E80618093E200809109
:103C0000E1008E7E8093E100809156078E7E816078
:103C10008093560704C05D9ACDCF289AD6CF9F9146
:103C20008F910F900FBE0F901F9018951F920F92BB
:103C30000FB60F921124CF92DF92EF92FF920F9363
:103C40001F932F933F934F935F936F937F938F9324
:103C50009F93AF93BF93EF93FF93CF93DF93CDB732
:103C6000DEB76C97DEBFCDBF1092E9008091E8000F
:103C700083FFEDC168E0CE0145960E94CD2582EF1D
:103C80008093E8008D8987FF05C09091E80090FF40
:103C9000FCCF03C09EEF9093E800982F907609F038
:103CA000C6C09E892F89188D91110CC0803829F4C7
:103CB000809155078093F10002C01092F10010929C
:103CC000F10048C1422F50E0512B913051F4811145
:103CD00041C14130510509F03DC1809155078D7FAB
:103CE0000BC0933061F4811135C14130510509F0A9
:103CF00031C1809155078260809355072BC1953063
:103D000041F48091E80080FFFCCF20682093E3001D
:103D100021C1963009F05FC0EB8CFC8C1092E90059
:103D20001092530710925207123091F510925107DA
:103D3000109250070E94721D99E0BE016F5F7F4F85
:103D4000DB01E92F1D92EA95E9F799831A8391E047
:103D50009E8390EA98879AEF998720915207309135
:103D60005307275F3F4F3C832B838D831092E900DD
:103D70001092530710925207F0925107E0925007A9
:103D800049E050E080E00E944B1D0E94721DE2C09D
:103D9000F0925107E09250070E94C615DC0112967E
:103DA000ED90FC901397E114F10409F4C0C0D70121
:103DB000ED91FC910480F581E02DBE016B5E7F4F9B
:103DC000C7010995009719F00CF0C4C0C7C0F701EE
:103DD000E084F184E8CF973009F4C0C0983021F432
:103DE00081E08093F100B6C0993009F0B3C08370D0
:103DF00009F0B4C0ECE9F1E081E021E036E3908124
:103E0000992361F08093E9002093EB0091919093C6
:103E1000EC003093ED008F5F873089F78EE7809359
:103E2000EA001092EA008F8980935C0493C08B8D26
:103E30009C8D1092E90010925307109252079093B4
:103E4000510780935007898D811156C08E899D89B5
:103E5000913A59F4813209F081C047E050E06FE2B5
:103E600071E080E00E944B1D75C0913209F076C070
:103E7000833289F4888D90E0982F88272F89822BB0
:103E8000A0E0B0E080932B0190932C01A0932D0132
:103E9000B0932E015FC0803269F48091E80082FF08
:103EA000FCCF67E08FE291E00E94CD258BEF8093FD
:103EB000E80006C0823209F04DC08F898093360138
:103EC00080915407882319F0EEEFFAE002C0E0E099
:103ED000F8E080912F0190913001A0913101B091D3
:103EE0003201803B9440A105B10509F07BC080916F
:103EF000360180FF93C076C00E94C615DC01129681
:103F00000D911C9113970115110541F1D801ED9107
:103F1000FC910190F081E02DBE016B5E7F4FC801E6
:103F20000995811117C0F80100851185ECCF11307A
:103F300009F44EC0133091F48F89882309F445C0E9
:103F4000823081F440E860E183E392E00E940E1D3C
:103F5000882321F08EEF8093E80079C081E280937E
:103F6000EB0075C0813029F440E86BE087E292E015
:103F7000EDCF833099F70E94C615DC011296ED90C3
:103F8000FC9013978E010F5F1F4F6801E114F1043D
:103F900079F0D701ED91FC910680F781E02DB80111
:103FA000C7010995080F111DF701E084F184EECFD8
:103FB000D8011C92F60101900020E9F73197BF016A
:103FC0006C197D0940E0C601C1CF61E172E002C019
:103FD00065E172E06115710509F2FB01449150E061
:103FE00080E840CF0FB6F894A89580916000886172
:103FF00080936000109260000FBEA895EE3F2AE00B
:10400000F20739F08091FE0A9091FF0A9183808334
:10401000A1CF1092FF0A1092FE0A9CCFEE3F8AE0D9
:10402000F80731F0808191819093FF0A8093FE0A16
:1040300087E797E7918380839BE088E10FB6F89448
:10404000A895809360000FBE9093600083CF6C961C
:104050000FB6F894DEBF0FBECDBFDF91CF91FF91B9
:10406000EF91BF91AF919F918F917F916F915F91F0
:104070004F913F912F911F910F91FF90EF90DF9003
:10408000CF900F900FBE0F901F90189582E00E9466
:104090002711019779F481E080936A07809158078E
:1040A00090915907A0915A07B0915B070197A10918
:1040B000B1090DC010926A07809158079091590775
:1040C000A0915A07B0915B070196A11DB11D809385
:1040D000580790935907A0935A07B0935B0781E064
:1040E00080935C0708958F929F92AF92BF92CF9278
:1040F000DF92EF92FF920F931F930E94BC110091E9
:104100006607109167072091680730916907C09092
:104110006207D0906307E0906407F090650746015E
:104120005701801A910AA20AB30A95018401060F69
:10413000171F281F391F00936207109363072093EE
:1041400064073093650760936607709367078093F1
:1041500068079093690780915E0790915F07A0912F
:104160006007B09161070196A11DB11D80935E07A4
:1041700090935F07A0936007B09361071F910F9121
:10418000FF90EF90DF90CF90BF90AF909F908F9077
:104190000895AF92BF92CF92DF92FF920F931F9339
:1041A000CF93DF9301E017E082E0F82ED1E08DE5B8
:1041B00094E00E94D10F892B09F4ECC28DE594E0C4
:1041C0000E94AF0FC82F8091030690910406A09122
:1041D0000506B09106060196A11DB11D8093030648
:1041E00090930406A0930506B0930606C43209F422
:1041F000B0C2E091FD05C53234F4CA3071F0CD3063
:1042000009F0B4C20AC0CA3241F0CC3209F0AEC2E1
:104210008091EA058C278093EA05EF3008F08BC285
:10422000F0E0E451FA4F10828091EB05882309F405
:104230006BC12091EC053FEB320F822F022E000C58
:10424000990B363010F4C79707C02156263018F462
:104250008755910901C0C097282F2295207F309162
:10426000ED054FEB430F832F032E000C990B4630C7
:1042700010F4C79707C03156363018F487559109A6
:1042800001C0C097820F9091EA05891329C18091DE
:104290000F0690911006A0911106B091120601969A
:1042A000A11DB11D80930F0690931006A0931106D7
:1042B000B09312068091FE05882399F0809107063D
:1042C00090910806A0910906B0910A060196A11DD9
:1042D000B11D8093070690930806A0930906B0933A
:1042E0000A06D090FB05DD2009F46BC021E0D21254
:1042F000D0C080918E0590918F05A0919005B091CE
:10430000910580938A0590938B05A0938C05B093BB
:104310008D050E941B126093920570939305809304
:10432000940590939505D0928905D0928805809147
:104330009C0590919D05A0919E05B0919F0580934D
:10434000980590939905A0939A05B0939B050E94B8
:104350001B126093A0057093A1058093A205909312
:10436000A305D0929705D09296058091FE058823EB
:1043700009F48FC0E6E7F5E0A8E6B5E0812F0190EB
:104380000D928A95E1F7EDE7F5E0AFE6B5E0812F14
:1043900001900D928A95E1F70E941B1260938405AB
:1043A000709385058093860590938705D092670565
:1043B000D092660584EA95E00E940E1B82EB95E0A0
:1043C00066C080919C0590919D05A0919E05B0913D
:1043D0009F058093980590939905A0939A05B093B3
:1043E0009B050E941B126093A0057093A10580930A
:1043F000A2059093A305D0939705D093960580913D
:10440000FE05882321F1E6E7F5E0A8E6B5E0812F77
:1044100001900D928A95E1F7EDE7F5E0AFE6B5E0A2
:10442000812F01900D928A95E1F70E941B126093F3
:104430008405709385058093860590938705D093B6
:104440006705D093660580EC95E00E940E1B809175
:10445000D8059091D905A091DA05B091DB0580933C
:10446000D4059093D505A093D605B093D7050E94A7
:104470001B126093D0057093D1058093D205909361
:10448000D305D093CF05D093CE058CED95E00E9457
:104490000E1BC0900106D0900206C114D10409F48D
:1044A0004AC1E0910106F091020666A177A1F601EA
:1044B00086A197A10E94FF2E892B09F03CC1B6016D
:1044C000C60140960E94082F0E941B12F60160A3AD
:1044D00071A382A393A305A304A3C2A4D3A4DDCF95
:1044E00080910B0690910C06A0910D06B0910E06DE
:1044F0000196A11DB11D80930B0690930C06A0930D
:104500000D06B0930E0617C19091FC05911146C09F
:1045100064E074E08CEE95E00E94FF2E892B41F060
:104520006AE074E08CEE95E00E94FF2E892B19F46E
:10453000D093FB0515C060E174E08CEE95E00E941D
:10454000FF2E892B41F066E174E08CEE95E00E942D
:10455000FF2E892B19F41092FB0502C0F092FB0587
:104560008091FF05909100069093020680930106CA
:10457000C0900106D0900206C114D10409F4DBC03A
:10458000F601A6A0B7A06CEE75E0C5010E94FF2E53
:1045900097FFC5C0F60182A593A5E6CFE091FB0584
:1045A000E23009F491C08091EC05882309F48CC0B5
:1045B00020E2E29FF0011124E92B3197E932F10565
:1045C00008F082C0EB59FF4F0C94E02E8CEE95E082
:1045D0000E94AD1B60939C0570939D0580939E0582
:1045E00090939F0571C091E0813409F043C043C0AE
:1045F00066E775E009C091E0833509F090E090939B
:104600007C0562C06DE775E08CEE95E00E94251B8D
:104610005BC091E0873509F090E09093830554C02A
:104620008CEE95E00E94AD1B6093AE057093AF05D4
:104630008093B0059093B10547C08CEE95E00E9441
:10464000AD1B6093BC057093BD058093BE05909330
:10465000BF053AC08CEE95E00E94D72B60938E0583
:1046600070938F0580939005909391052DC091E0F4
:1046700081330CF490E09093FE0526C08CEE95E01B
:104680000E94D72B6093D8057093D9058093DA05E3
:104690009093DB0519C08CEE95E00E94AD1B6093F2
:1046A000E6057093E7058093E8059093E9050CC053
:1046B0008CEE95E00E94AD1B6093CA057093CB050C
:1046C0008093CC059093CD05C0900106D090020652
:1046D000C114D10481F1E0910106F091020666A1B6
:1046E00077A1F60186A197A10E94FF2E892B19F5CB
:1046F000F60120A531A58091FC0590E08217930773
:10470000D4F02817390739F440E150E06CEE75E039
:10471000C6010E940F2FF601C2A4D3A4D9CF6CEE1C
:1047200075E0C5010E94FF2E1816190624F4109298
:104730000206109201068091FC058F5F8093FC05B4
:104740001092FD0581E0CA3209F080E08093EB050C
:104750002ECD1092FD051092FC051092EA05F09204
:10476000FB051092EB051092FE0521CDEE3040F4D2
:1047700081E08E0F8093FD05F0E0E451FA4FC08395
:104780008091EB05811113CD8091EA05C827C09374
:10479000EA050DCD8091A505882309F408CDDF91A8
:1047A000CF911F910F91FF90DF90CF90BF90AF906E
:1047B00008950C941B2C0C94132C0F931F93CF93E0
:1047C0008C0101960E94DB23C82FC8010E94DB23C5
:1047D0002C2F30E0A901582BCA01CF911F910F91C6
:1047E00008951F93CF93DF93EC01162F672F0E943C
:1047F000D923612FCE010196DF91CF911F910C94A7
:10480000D9231092380110925D0781E0809337011F
:104810000C944D01CF9380915C07882391F1809196
:10482000580790915907A0915A07B0915B07181645
:1048300019061A061B0664F41092580710925907BD
:1048400010925A0710925B0710925C0781E065C0D6
:104850008091580790915907A0915A07B0915B0732
:10486000B7FF0CC0109258071092590710925A07C0
:1048700010925B0710925C0782E04FC010925C07B9
:104880004BC084E00E942711C0916B07892BE9F48B
:10489000CF5FC0936B0768EC70E080E090E00E940F
:1048A000E111C830C0F110926B070E94781284E1C8
:1048B0000E94D61360E070E080E090E00E94C21396
:1048C00082E294E00E947C121DC0CC2329F1109258
:1048D0006B070E94781284E10E94D61360E070E0BA
:1048E00080E090E00E94C2138CE194E00E947C1270
:1048F00064EF71E080E090E00E94E1110E94781284
:1049000084E00BC084E00E942711892BD9F30E9418
:10491000781288E002C002C080E190E0CF91089553
:104920008F929F92AF92BF92CF92DF92EF92FF92BF
:104930008090620790906307A0906407B09065072D
:1049400060915E0770915F078091600790916107A9
:104950001092620710926307109264071092650725
:1049600010925E0710925F07109260071092610725
:104970000E94872D20E03BE147EB5AE40E943E2E47
:104980006B017C01C501B4010E94872D9B01AC0124
:10499000C701B6010E94DF2C6B017C0180912201CE
:1049A000682F70E080E090E00E94892D9B01AC01AF
:1049B000C701B6010E94DF2C0E94512D9B01AC0162
:1049C000AAE0B0E00E94292CCB01FF90EF90DF908D
:1049D000CF90BF90AF909F908F90089508950895C5
:1049E000089580E090E00895FF920F931F93CF9376
:1049F000DF93EC0161E089890E94501161E08989AF
:104A00000E9450118A890E942711892BD9F360E0F6
:104A100089890E94501160E089890E94501160E0EC
:104A200089890E94501198E0F92E00E010E0000FF3
:104A3000111F61E08F850E9450118A890E94271101
:104A4000892B09F0016060E08F850E945011FA9473
:104A5000F110EDCF61E089890E945011C801DF910A
:104A6000CF911F910F91FF90089504970C94F42417
:104A7000CF92DF92EF92FF920F931F93CF93DF932A
:104A8000EC01E62E60E089890E94501160E089897E
:104A90000E94501160E089890E945011DF84C8880B
:104AA00007E010E0F12CB701002E02C07595679564
:104AB0000A94E2F7617077278C2D0E94501161E013
:104AC0008D2D0E94501160E08D2D0E9450110150DB
:104AD000110948F761E089890E94501181E090E056
:104AE000DF91CF911F910F91FF90EF90DF90CF90CA
:104AF0000895CF93DF93EC0161E08F850E948011D0
:104B000061E088890E94801161E089890E9480119A
:104B100061E089890E94501160E08F850E945011E8
:104B200060E088890E9450118A89882329F060E01A
:104B3000DF91CF910C948011DF91CF910895409136
:104B40005207509153072091500730915107421757
:104B50005307B4F49091E8009570E1F39091E80068
:104B600092FD19C08093F1008091520790915307F4
:104B700001968F739927892B19F48EEF8093E800A3
:104B80008091520790915307019690935307809319
:104B9000520781E0089580E00895615030F020913F
:104BA000F100FC0120830196F8CF289884E68093D9
:104BB0005B040895789484B5826084BD84B5816077
:104BC00084BD85B5826085BD85B5816085BD8091D8
:104BD0006E00816080936E00109281008091810050
:104BE0008260809381008091810081608093810048
:104BF000809180008160809380008091910082602C
:104C000080939100809191008160809391008091C8
:104C100090008160809390008091C10084608093B7
:104C2000C1008091C10082608093C1008091C10069
:104C300081608093C1008091C30081608093C30034
:104C40008091C00082608093C0008091C20081602A
:104C50008093C20080917A00846080937A00809172
:104C60007A00826080937A0080917A0081608093DC
:104C70007A0080917A00806880937A0010925C04B8
:104C800010925507109256078091D700816080934B
:104C9000D70080EA8093D80089B5806189BD89B545
:104CA000826089BD09B400FEFDCF61E070E080E064
:104CB00090E00E94E1118091D8008F7C8061809308
:104CC000D8008091E000807F8093E0008091E10037
:104CD0008E7E8093E1008DE08093E200559A209AC9
:104CE000EEEFFFE7859194918B3F9C4D19F481E0A5
:104CF0008093540780E290E00E94DB23C1E08111A1
:104D000001C0C0E0C0935A04E0916D04F0916E04BC
:104D100082E08083E0916904F0916A041082E0915E
:104D20006B04F0916C048FEC808310927504E09119
:104D30007104F091720486E08083E0916F04F09139
:104D40007004808180618083E0916F04F091700431
:104D5000808188608083E0916F04F091700480818D
:104D600080688083E0916F04F091700480818F7D72
:104D7000808368EB7BE080E090E00E94E11182E5B7
:104D800095E00E947925CC2341F087E693E00E94CC
:104D90006A1282E090E00E94A1130E94781264E6F9
:104DA00070E080E090E00E94E1118EE10E94D61355
:104DB00061E070E080E090E00E94C21384EE91E038
:104DC0000E947C1264E670E080E090E00E94E111B5
:104DD0008AE693E00E947C1262E070E080E090E05E
:104DE0000E94C21381EE91E00E947C1264E670E0A2
:104DF00080E090E00E94E11185E793E00E947C1240
:104E000063E070E080E090E00E94C2138BE793E0E3
:104E10000E947C126DEC7CEC80E991E40E94D61239
:104E200068EB7BE080E090E00E94E1110E94781244
:104E300064EF71E080E090E00E94E1118EE10E9459
:104E4000D61361E070E080E090E00E94C2138EE132
:104E50000E94D61361E070E080E090E00E94C213EF
:104E600086E893E00E947C1263E070E080E090E0CE
:104E70000E94C21387E993E00E947C1268EE73E0FF
:104E800080E090E00E94E11160E082E00E948011E9
:104E900060E083E00E94801162E084E00E94801163
:104EA00086E490E290930B0180930A01809169005F
:104EB000836080936900E89A83E790E290931301FE
:104EC0008093120180916A008F7C806180936A00D8
:104ED000EE9A809121058C3008F051C061E085E0A8
:104EE0000E94801180912105E82FF0E09F01220FA0
:104EF000331FE20FF31FE650FB4F9081907C9560CB
:104F0000908310922205109223056CE00E94C02E1F
:104F10009CE0899FB001112440E050E09A01260FE7
:104F2000371FF901EE0FFF1F2E0F3F1FF901E6504B
:104F3000FB4F908196FD16C04F5F5F4F4C3051057F
:104F400069F781110FC01092800082E08093810088
:104F50001092850010928400B19A80916F00826057
:104F600080936F00E0912105F0E0CF01880F991F39
:104F7000E80FF91FE650FB4F8081806480838091A9
:104F80001F05909120050E94EF13609158047091C5
:104F90005904072E000C880B990B0E94892D6093F1
:104FA0001B0670931C0680931D0690931E0660914D
:104FB000230170912401072E000C880B990B0E948D
:104FC000892D6093130670931406809315069093B1
:104FD000160680915906811148C0E0913D06F09176
:104FE0003E06C080D180E280F380C0924506D09218
:104FF0004606E0924706F0924806E0913B06F091A3
:105000003C0680819181A281B3818093490690936F
:105010004A06A0934B06B0934C068090550690909C
:105020005606A0905706B0905806A5019401C701F6
:10503000B6010E94392E181684F080905106909087
:105040005206A0905306B0905406A5019401C701E2
:10505000B6010E94DA2C87FF08C080924506909224
:105060004606A0924706B092480681E08093590612
:105070008BE090E00E94DB23809322018CE090E0A3
:105080000E94DD23BC0180E090E00E94872D20E09B
:1050900030E048EC52E40E94DF2C609327017093CB
:1050A00028018093290190932A018EE090E00E94CC
:1050B000DD23BC0180E090E00E94872D20E030E0FD
:1050C00048EC52E40E94DF2C60931E0170931F0194
:1050D000809320019093210180E190E00E94DD23E4
:1050E000BC0180E090E00E94872D20E030E048EC99
:1050F00052E40E94DF2C60931A0170931B0180938D
:105100001C0190931D0182E190E00E94DB2391E05D
:10511000811101C090E09093190183E190E00E9419
:10512000DB2390E0909318018093170184E190E0D5
:105130000E94DB232AE0829F800111241093160134
:105140000093150185E190E00E94DB239AE0899F9E
:10515000E0011124D0932601C09325018DE190E058
:105160000E94DB2391E0811101C090E09093140133
:105170008EE190E00E94DB2324E6829FC00111248F
:1051800090932401809323018FE190E00E94DB2320
:1051900091E0811101C090E09093570480E290E08B
:1051A0000E94DB2391E0811101C090E090935A04AA
:1051B00081E290E00E94DB2390E09093560480937C
:1051C0005504B801110F880B990B0E94892D6B01B2
:1051D0007C01BE01DD0F880B990B0E94892DAB016C
:1051E000BC01970186018FE196E00E944D1766EAA7
:1051F00073E08DE594E00E94BA1068ED73E08DE5F0
:1052000094E00E94BA1064E670E080E090E00E94B2
:10521000E1116BED73E08DE594E00E94BA1068ED4A
:1052200073E08DE594E00E94BA1064E670E080E0DF
:1052300090E00E94E1110E944D010E947110FBCF8D
:10524000CF92DF92EF92FF92CF93DF9310926A0694
:105250001092690688EE93E0A0E0B0E080936B06C0
:1052600090936C06A0936D06B0936E062BE431E02C
:1052700030936806209367062FEF3FEF3093740654
:10528000209373061092600410925F04809361046F
:1052900090936204A0936304B09364042DE531E01D
:1052A00030935E0420935D042DEC30E030936A046B
:1052B000209369042CEC30E030936C0420936B0451
:1052C00028EC30E030936E0420936D0429EC30E03C
:1052D0003093700420936F042AEC30E03093720412
:1052E000209371042EEC30E0309374042093730407
:1052F0001092760410927704109278041092790438
:105300001092BA061092B9068093BB069093BC0621
:10531000A093BD06B093BE068FE691E09093B806C9
:105320008093B706C0902701D0902801E090290112
:10533000F0902A0187E196E090933E0680933D0627
:105340008BE196E090933C0680933B0683E196E0E8
:105350009093400680933F06109259061092510692
:1053600010925206109253061092540680E090E07C
:10537000AFE7B3E48093550690935606A093570683
:10538000B093580684E690E0A0E0B0E080934D062C
:1053900090934E06A0934F06B0935006C1E0D0E024
:1053A000D0933806C093370620E030E0A901C7014A
:1053B000B6010E94DA2C87FD5CC0D0933A06C093F8
:1053C000390681E080935A06C0921F06D0922006CB
:1053D000E0922106F0922206C0922306D092240683
:1053E000E0922506F0922606C0922706D092280663
:1053F000E0922906F0922A06A701960160E070E08B
:10540000CB010E946D2C60932B0670932C06809329
:105410002D0690932E062DEC3CEC4CEC5DE3C70181
:10542000B6010E943E2E9B01AC0160E070E0CB0112
:105430000E946D2C60932F06709330068093310686
:10544000909332062DEC3CEC4CEC5DE3C701B601C9
:105450000E94DF2C9B01AC0160E070E0CB010E9458
:105460006D2C6093330670933406809335069093C9
:1054700036060E941B12C0904D06D0904E06E0905A
:105480004F06F0905006DC01CB018C199D09AE0946
:10549000BF098093410690934206A0934306B093C0
:1054A00044061092660510926705109269051092E5
:1054B000680510926A0510926B0510926C051092A7
:1054C0006D0510926E051092700510926F05109286
:1054D0007105109272051092730510927405109266
:1054E0007505109277051092760510927805109246
:1054F000790510927A0510927B0510927C05109226
:105500007E0510927D0510927F0510928005109205
:1055100081051092820510928305109288051092E1
:10552000890510928A0510928B0510928C051092B5
:105530008D0510929605109297051092980510927D
:10554000990510929A0510929B051092A40510924D
:10555000A5051092AA051092AB051092AC05109209
:10556000AD051092B2051092B3051092B8051092D5
:10557000B9051092BA051092BB051092C0051092A1
:10558000C1051092C6051092C7051092C805109269
:10559000C9051092CE051092CF051092D405109235
:1055A000D5051092D6051092D7051092DC05109201
:1055B000DD051092E2051092E3051092E4051092C9
:1055C000E5051092EA051092EB0582E08093FB0559
:1055D0001092FC051092FD051092FE051092000637
:1055E0001092FF0510920206109201061092030617
:1055F00010920406109205061092060610920706F5
:10560000109208061092090610920A0610920B06D4
:1056100010920C0610920D0610920E0610920F06B4
:105620001092100610921106109212061092EC05BC
:10563000109255051092540581E891E0909353051E
:105640008093520581E991E0909357058093560528
:1056500088E080936105C9E0C09362058AE0809389
:1056600063051092640582E595E00E9479256BE060
:1056700081ED96E00E94A82B6CE083EC96E00E94FE
:10568000A82B81ED96E090934505809344051092F8
:1056900042051092430510923E05C0933F0581E0FC
:1056A000809340058093410510925105109250055A
:1056B00023EC36E0309331052093300510922E050F
:1056C00010922F0510922A05C0932B0580932C056C
:1056D00080932D0510923D0510923C058091280580
:1056E000909129056AE070E00E94CC2E7093270506
:1056F00060932605909325058093240580911E05CF
:105700008C30A0F491E0980F90931E0580932105B2
:1057100090E0FC01EE0FFF1F8E0F9F1FFC01E65073
:10572000FB4F88EB9BE09283818303C08FEF8093D4
:105730002105809125019091260190932005809369
:105740001F05DF91CF91FF90EF90DF90CF900895EC
:105750000F931F93CF93DF93EC01162F60E0812FFF
:105760000E948011612F70E0FB01EF58FE4FE49121
:10577000E883FB01EE5AFE4FE491F0E0EE0FFF1FCD
:10578000EC5BFE4F859194919A8389831B861D86DD
:105790001C86FE013B968E010D5F1F4F1292E01793
:1057A000F107E1F7DF91CF911F910F9108951F93BA
:1057B000FC0199278827BC01E89411911032E9F384
:1057C000193010F01E30C8F31B3251F01D3249F46D
:1057D000689406C00E94FE2B610F711D811D911DF2
:1057E000119110531A30B0F33EF490958095709556
:1057F00061957F4F8F4F9F4F1F910895592F482FCD
:10580000372F262F660F771F881F991F660F771F68
:10581000881F991F620F731F841F951F660F771FC4
:10582000881F991F0895F999FECF92BD81BDF89AFE
:10583000992780B50895262FF999FECF1FBA92BDFA
:1058400081BD20BD0FB6F894FA9AF99A0FBE019661
:1058500008950E945E2CA59F900DB49F900DA49F6B
:10586000800D911D11240895B7FF0C94292C0E94DE
:10587000292C821B930B0895A1E21A2EAA1BBB1B95
:10588000FD010DC0AA1FBB1FEE1FFF1FA217B3070C
:10589000E407F50720F0A21BB30BE40BF50B661F22
:1058A000771F881F991F1A9469F7609570958095E6
:1058B00090959B01AC01BD01CF010895A29FB0015D
:1058C000B39FC001A39F700D811D1124911DB29F34
:1058D000700D811D1124911D08955058BB27AA27D2
:1058E0000E94852C0C94FF2D0E94F12D38F00E940F
:1058F000F82D20F039F49F3F19F426F40C94EE2D86
:105900000EF4E095E7FB0C94E82DE92F0E94102E91
:1059100058F3BA17620773078407950720F079F4E4
:10592000A6F50C94322E0EF4E0950B2EBA2FA02D76
:105930000B01B90190010C01CA01A0011124FF273C
:10594000591B99F0593F50F4503E68F11A16F04037
:10595000A22F232F342F4427585FF3CF4695379536
:105960002795A795F0405395C9F77EF41F16BA0BFB
:10597000620B730B840BBAF09150A1F0FF0FBB1FA9
:10598000661F771F881FC2F70EC0BA0F621F731FF2
:10599000841F48F4879577956795B795F7959E3F4F
:1059A00008F0B0CF9395880F08F09927EE0F9795E0
:1059B000879508950E94C42D08F481E008950E94FF
:1059C000F32C0C94FF2D0E94F82D58F00E94F12D1D
:1059D00040F029F45F3F29F00C94E82D51110C940C
:1059E000332E0C94EE2D0E94102E68F39923B1F300
:1059F000552391F3951B550BBB27AA2762177307F5
:105A0000840738F09F5F5F4F220F331F441FAA1F88
:105A1000A9F335D00E2E3AF0E0E832D09150504044
:105A2000E695001CCAF72BD0FE2F29D0660F771FF2
:105A3000881FBB1F261737074807AB07B0E809F0D8
:105A4000BB0B802DBF01FF2793585F4F3AF09E3F5D
:105A5000510578F00C94E82D0C94332E5F3FE4F35D
:105A6000983ED4F3869577956795B795F7959F5FA0
:105A7000C9F7880F911D9695879597F90895E1E0EC
:105A8000660F771F881FBB1F621773078407BA074B
:105A900020F0621B730B840BBA0BEE1F88F7E095A6
:105AA00008950E94582D6894B1110C94332E0895D6
:105AB0000E94182E88F09F5798F0B92F9927B75158
:105AC000B0F0E1F0660F771F881F991F1AF0BA95A2
:105AD000C9F714C0B13091F00E94322EB1E00895A0
