:100000000C941B010C94D4150C94AD150C9486150E
:100010000C945F150C9443010C9443010C94381517
:100020000C9443010C9443010C94021B0C94741B1C
:100030000C9443010C9443010C9443010C94430130
:100040000C9443010C9429170C9443010C94430124
:100050000C9443010C9443010C9443010C94EE1452
:100060000C9443010C9456130C9430130C944301DC
:100070000C9443010C9443010C9443010C944301F0
:100080000C9443010C9443010C9443010C944301E0
:100090000C94FB150C9443010C9443010C94430104
:1000A0000C9443010C9443010C944301ED01B30201
:1000B0008D030C047304090516075807AC070008E4
:1000C0005408C308AE09C40A1010221025102C10C1
:1000D000331061106810751082108E108E108E1003
:1000E0008E108E108E108E108E108E108E108E1020
:1000F0008E108E108E108E108E108E108E108E1010
:100100008E108E108E108E1010101D1022102510C3
:100110002C1033103A1047105410F412F712E61254
:10012000EA12F012181318131813FB12FF1203131C
:1001300009130D13181313130000000024002700E7
:100140002A002D00300000000000250028002B00B0
:100150002E003100000000002300260029002C00A2
:100160002F00040404040403040502020202040331
:100170000202020206060606060604040202020441
:100180000404080201104080401020408040800894
:100190000204018040201002011080102040402005
:1001A0000000000200090F0000030401000C000021
:1001B0000000000000000000000000000000000837
:1001C0000B0002020201000904000001020200000B
:1001D0000524001001052401010104240206052460
:1001E0000600010705810310004009040100020A0E
:1001F00000000007050202400000070583024000DE
:10020000000403090412010002EF020140412336F9
:100210008000010102030141726475696E6F204C18
:100220004C430041726475696E6F204C656F6E615E
:1002300072646F00821E11241FBECFEFDAE0DEBFB2
:10024000CDBF15E0A0E0B1E0EAE1FBE402C005901B
:100250000D92AA34B107D9F727E0AAE4B5E001C0AE
:100260001D92A13DB207E1F711E0CBE1D1E004C05E
:100270002197FE010E944D25CA31D107C9F70E947E
:10028000981F0C948B250C9400002F923F924F9254
:100290005F926F927F928F929F92AF92BF92CF9216
:1002A000DF92EF92FF920F931F93CF93DF93CDB71F
:1002B000DEB7A0970FB6F894DEBF0FBECDBF00919A
:1002C00022071091230783EA91E00E94A10CC80144
:1002D00099270E94B90D84E595E00E943212892B7E
:1002E00039F084E595E00E9410120E94070EF3CFCA
:1002F00080913E06882379F384E00E948813892B3D
:10030000D9F38EE1E0E3F1E0DE01119601900D9268
:100310008A95E1F7312CFE013196E30DF11DE30DD5
:10032000F11D808191818952954011F03394F3CF72
:100330003A943F8E0E94AF0C81E080932B0122E023
:1003400010E000E04F8D242E312C74E6872E912C86
:10035000A12CB12C28A30E942A1928A18230910532
:10036000E1F024F4019779F00C94AF0B84309105FF
:1003700039F1089711F00C94AF0B28A30E942419AF
:1003800028A10C94AF0B11110C94B20B002311F4A3
:100390000C94E40B01500C94E90B802F90E005962F
:1003A0008215930524F4153011F40F5F22E0812F9C
:1003B00090E0059714F00C94AF0B1F5F0C94B30BF7
:1003C000E12FF0E0E00FF11DEE30F10510F00C949C
:1003D000AF0BEA5AFF4F0C944D2580911901909173
:1003E0001A019093F8058093F7050E94AF0C8AE0FC
:1003F0000E94EE0D60E070E080E090E00E94DA0D77
:1004000086EA91E00E94B30C61E070E080E090E049
:100410000E94DA0D84EB91E00E94B30C62E070E080
:1004200080E090E00E94DA0D88EC91E00E94B30C2D
:1004300064E070E080E090E00E94DA0D8EED91E0E3
:100440000E94B30C80912407882329F080910A012F
:1004500090910B0104C08091190190911A010E94A2
:10046000D90C82EA92E00E94B30C0E942A198230D1
:10047000910519F11CF4019751F0F7CF84309105E3
:1004800009F46BC0089789F70E942419EECF2091D8
:1004900024078091190190911A012223E9F02091FB
:1004A0000A0130910B01281739071CF5265F3F4FD1
:1004B00030930B0120930A0121C0209124078091E1
:1004C0000A0190910B01211114C020911901309162
:1004D0001A018217930734F00A9690931A018093B9
:1004E00019010CC02A50310930931A0120931901C7
:1004F00005C00A9790930B0180930A0164E070E0B5
:1005000080E090E00E94DA0D8EED91E00E94B30C45
:1005100080912407882329F080910A0190910B0192
:1005200004C08091190190911A010E94D90C82EAAD
:1005300092E00E94B30C80912407882329F08091D7
:100540000A0190910B0104C08091190190911A0148
:100550009093F8058093F70588CF8091240788232E
:1005600009F4C5C0CFC080910A0190910B0190930E
:10057000F8058093F7050E94AF0C8AE00E94EE0D0B
:1005800060E070E080E090E00E94DA0D89EE91E09A
:100590000E94B30C61E070E080E090E00E94DA0D10
:1005A00087EF91E00E94B30C62E070E080E090E0A1
:1005B0000E94DA0D8AE092E00E94B30C64E070E0E1
:1005C00080E090E00E94DA0D8EED91E00E94B30C85
:1005D00080912407882329F08091190190911A01B4
:1005E00004C080910A0190910B010E94D90C82EA0B
:1005F00092E00E94B30C0E942A198230910519F1F1
:100600001CF4019751F0F7CF8430910509F46BC0C9
:10061000089789F70E942419EECF20912407809132
:10062000190190911A0121111DC020910A013091E8
:100630000B01281739071CF5265F3F4F30930B013C
:1006400020930A0121C02091240780910A019091F2
:100650000B012223A1F02091190130911A01821778
:10066000930734F00A9690931A01809319010CC0F5
:100670002A50310930931A012093190105C00A97B5
:1006800090930B0180930A0164E070E080E090E0B9
:100690000E94DA0D8EED91E00E94B30C8091240748
:1006A000882329F08091190190911A0104C080914A
:1006B0000A0190910B010E94D90C82EA92E00E94FB
:1006C000B30C80912407882329F08091190190911F
:1006D0001A0104C080910A0190910B019093F805D2
:1006E0008093F70588CF80912407882359F0809163
:1006F000190190911A016AE070E00E94392584E1A5
:1007000090E03EC580910A0190910B016AE070E093
:100710000E94392585E190E033C580910A019091CE
:100720000B019093F8058093F7050E94AF0C8AE0C7
:100730000E94EE0D60E070E080E090E00E94DA0D33
:100740008FE192E00E94B30CEE24EA94FE2C6AE062
:10075000D62E61E070E080E090E00E94DA0D81E347
:1007600092E00E94B30C209124078091F7059091AC
:10077000F805222371F040910A0150910B0120915C
:10078000190130911A01240F351FA901481B590B7B
:10079000CA010E94D90C83E392E00E94B30C64E684
:1007A00070E080E090E00E94A8142091F70530915D
:1007B000F80580910A0190910B018217930734F09C
:1007C00081E090E0909301018093000180911901F4
:1007D00090911A012817390724F0F0920101E09254
:1007E00000014091000150910101D49EC001D59EAD
:1007F000900D1124820F931F9093F8058093F705B5
:100800000E942A198430910509F4E3C7089709F07A
:10081000A0CF0E9424199DCF0E94AF0C8AE00E94B5
:10082000EE0D60E070E080E090E00E94DA0D8AE377
:1008300092E00E94B30C61E070E080E090E00E94E2
:10084000DA0D80912407882321F085E492E00E944C
:10085000B30C80912407811104C082E592E00E94CC
:10086000B30CFF24F3940E942A198230910501F100
:100870001CF4019749F0F7CF8430910551F10897A6
:1008800091F70E942419EFCF61E070E080E090E0E2
:100890000E94DA0D80912407882319F08EE592E0FA
:1008A00013C085E492E00E94B30CF0922407DBCFE2
:1008B00061E070E080E090E00E94DA0D8091240712
:1008C000882379F382E592E00E94B30C109224070A
:1008D000CACF80912407882311F061E001C060E055
:1008E0008FE190E04DC40E94AF0C8AE00E94EE0DB3
:1008F00060E070E080E090E00E94DA0D8CE692E02B
:100900000E94B30C61E070E080E090E00E94DA0D9C
:1009100080912A010E94C60C80912A01813051F4F5
:1009200062E070E080E090E00E94DA0D8EE792E0F5
:100930000E94B30CFF24F39438E0E32E44E0D42E5D
:100940000E942A1982309105B9F11CF4019751F0E7
:10095000F7CF8430910509F457C0089789F70E94B2
:100960002419EECF61E070E080E090E00E94DA0DA3
:1009700080912A01813021F4D0922A0184E029C09B
:10098000883060F48E5F80932A010E94C60C62E07A
:1009900070E080E090E00E94DA0DD2CFE0922A0170
:1009A00088E00E94C60C62E070E080E090E00E9467
:1009B000DA0D87EA92E025C061E070E080E090E027
:1009C0000E94DA0D80912A01853070F08250809368
:1009D0002A010E94C60C62E070E080E090E00E9474
:1009E000DA0D81E992E00DC0F0922A0181E00E94C7
:1009F000C60C62E070E080E090E00E94DA0D8EE7C5
:100A000092E00E94B30C9CCF60912A018BE090E0B1
:100A1000B7C384E595E00E9410120E94070E109261
:100A20003E06C0903F06D0904006E0904106F09010
:100A30004206C701B60120E432E44FE050E00E94D4
:100A4000B52280911B0190911C01820F911D0C9782
:100A500090934F0580934E05C701B60120E137E220
:100A600040E050E00E94B522CA01B901A5019401FD
:100A70000E94B52270934D0560934C05C701B601E5
:100A8000A50194010E94B522CA01B901A5019401F2
:100A90000E94B52270934B0560934A050E94AF0CEB
:100AA0008AE00E94EE0D60E070E080E090E00E943D
:100AB000DA0D85EB92E00E94B30C61E070E080E01B
:100AC00090E00E94DA0D80914E0590914F050E94B2
:100AD000D90C87EC92E00E94B30C80914C05909168
:100AE0004D050A9724F489EC92E00E94B30C8091A2
:100AF0004C0590914D050E94D90C87EC92E00E9424
:100B0000B30C80914A0590914B050A9724F489EC27
:100B100092E00E94B30C80914A0590914B050E948F
:100B2000D90C83EA92E00E94B30C63E070E080E0AD
:100B300090E00E94DA0D80911B0190911C010C97AE
:100B40000E94D90C83EA92E00E94B30C84E595E000
:100B50000E9410120E94070E10923E06C0903F069F
:100B6000D0904006E0904106F0904206C701B601E1
:100B700020E432E44FE050E00E94B52280911B0156
:100B800090911C01820F911D0C9790934F058093BB
:100B90004E05C701B60120E137E240E050E00E9477
:100BA000B522CA01B901A50194010E94B522709332
:100BB0004D0560934C05C701B601A50194010E9443
:100BC000B522CA01B901A50194010E94B522709312
:100BD0004B0560934A0561E070E080E090E00E9480
:100BE000DA0D62E370E080E090E00E94A8140E94B9
:100BF0002A198230910509F469C01CF4019759F053
:100C0000C1C08430910509F4B5C0089709F0BAC095
:100C10000E942419B7C080911B0190911C0188315A
:100C2000910514F4019602C088E190E090931C01B4
:100C300080931B0110923E0640903F065090400664
:100C40006090410670904206C301B20120E432E494
:100C50004FE050E00E94B522E0901B01F0901C0193
:100C6000E20EF11C67019CE0C91AD108D0924F0531
:100C7000C0924E05C301B20120E137E240E050E0EE
:100C80000E94B522CA01B901A50194010E94B522B2
:100C900070934D0560934C05C301B201A501940109
:100CA0000E94B522CA01B901A50194010E94B52292
:100CB00070934B0560934A05D7FE3EC02CE0E20ED0
:100CC000F11CF0924F05E0924E0536C080911B0159
:100CD00090911C011816190634F4019790931C0189
:100CE00080931B0104C010921C0110921B011092F2
:100CF0003E0660913F0670914006809141069091BA
:100D0000420620E432E44FE050E00E94B522809198
:100D10001B0190911C01820F911D9C012C503109E7
:100D200037FD05C030934F0520934E0505C00C9646
:100D300090934F0580934E0580914E0590914F05FD
:100D4000893191052CF0489790934F0580934E057B
:100D500063E070E080E090E00E94DA0D80911B017A
:100D600090911C010C970E94D90C83EA92E00E949A
:100D7000B30C08C060911B0183E190E00E948718CA
:100D8000F12C02C0FF24F39480914E0590914F0501
:100D900097FF05C0489690934F0580934E0580912C
:100DA0004E0590914F05893191052CF0489790930D
:100DB0004F0580934E0561E070E080E090E00E9476
:100DC000DA0D80914E0590914F050E94D90C87EC69
:100DD00092E00E94B30C80914C0590914D050A97CA
:100DE00024F489EC92E00E94B30C80914C05909120
:100DF0004D050E94D90C87EC92E00E94B30C8091C3
:100E00004A0590914B050A9724F489EC92E00E94E0
:100E1000B30C80914A0590914B050E94D90C83EA4E
:100E200092E00E94B30CF11091CED3C40E94AF0C9B
:100E30008AE00E94EE0D60E070E080E090E00E94A9
:100E4000DA0D8BEC92E00E94B30C61E070E080E080
:100E500090E00E94DA0D0E948B180E942A198230BD
:100E6000910589F044F40197C1F7809116019091A2
:100E700017010A960DC08430910579F0089769F73B
:100E80000E942419EACF80911601909117010A97C8
:100E90009093170180931601D8CF809116019091FD
:100EA000170164E670E00E9439258EE190E068C188
:100EB0000E94AF0C8AE00E94EE0D60E070E080E0DE
:100EC00090E00E94DA0D80EE92E00E94B30C61E0A7
:100ED00070E080E090E00E94DA0D80911D0188238F
:100EE00019F080EF92E002C085EF92E00E94B30C0F
:100EF000FF24F3940E942A198230910561F01CF4BA
:100F0000019749F0F7CF84309105E1F0089791F708
:100F10000E942419EFCF80911D018F2580931D0120
:100F200061E070E080E090E00E94DA0D80911D01A8
:100F3000882319F080EF92E002C085EF92E00E94D2
:100F4000B30CD8CF80911D01882311F061E001C05E
:100F500060E082E190E014C10E94AF0C8AE00E9440
:100F6000EE0D60E070E080E090E00E94DA0D8AEF24
:100F700092E00E94B30C61E070E080E090E00E949B
:100F8000DA0D80911801882319F08DE093E002C0FA
:100F90008AE193E00E94B30CFF24F3940E942A1983
:100FA0008230910561F01CF4019749F0F7CF84304D
:100FB0009105E1F0089791F70E942419EFCF8091F5
:100FC00018018F258093180161E070E080E090E0C7
:100FD0000E94DA0D80911801882319F085E293E0D0
:100FE00002C08AE193E00E94B30CD8CF809118012F
:100FF000882311F061E001C060E08DE190E0C0C0A5
:101000000E94AF0C8AE00E94EE0D60E070E080E08C
:1010100090E00E94DA0D81E393E00E94B30C61E05E
:1010200070E080E090E00E94DA0D8091250788232F
:1010300019F080E493E002C08DE493E00E94B30CC9
:10104000FF24F3940E942A198230910561F01CF468
:10105000019749F0F7CF84309105E1F0089791F7B7
:101060000E942419EFCF809125078F2580932507B3
:1010700061E070E080E090E00E94DA0D8091250749
:10108000882319F085E593E002C08DE493E00E9487
:10109000B30CD8CF80912507882311F061E001C0FF
:1010A00060E080E290E06CC00E94AF0C8AE00E9499
:1010B000EE0D60E070E080E090E00E94DA0D81E6E5
:1010C00093E00E94B30C61E070E080E090E00E9449
:1010D000DA0D8DE693E00E94B30C64E070E080E0EE
:1010E00090E00E94DA0D80E893E00E94B30C8091BA
:1010F0002207909123070E94D90CE0902207F090DC
:10110000230783EA91E00E94A10CC70199270E945E
:10111000B90D0E942A1982309105E1F01CF4019763
:1011200049F0EBCF8430910539F1089731F70E94EF
:101130002419E3CF80912207909123078F339105E3
:101140003CF04FE350E05093230740932207C5CF74
:1011500001960DC080912207909123071816190659
:101160002CF01092230710922207B7CF019790938B
:10117000230780932207B1CF6091220781E290E09C
:101180000E94871826C30E94AF0C8AE00E94EE0DD1
:1011900060E070E080E090E00E94DA0D8BE893E080
:1011A0000E94B30C61E070E080E090E00E94DA0DF4
:1011B0008DE993E00E94B30C63E070E080E090E082
:1011C0000E94DA0D80EB93E00E94B30C609126013F
:1011D0007091270180912801909129010E94020DB0
:1011E00020E030E048EC52E4609126017091270144
:1011F00080912801909129010E94B7240E94CA235E
:101200007B010E942A198230910509F445C01CF423
:10121000019751F0F6CF8430910509F49BC00897EF
:1012200081F70E942419EDCF63E070E080E090E048
:101230000E94DA0D80EB93E00E94B30C20E030E0D6
:1012400048EC52E4609126017091270180912801B9
:10125000909129010E94B7246B017C0120E030E0CD
:1012600048EC52E40E94B22487FD0DC080E090E07B
:10127000A8ECB2E48093260190932701A093280163
:10128000B093290143C020E030E040E85FE3C701AC
:10129000B6010E94E72232C063E070E080E090E097
:1012A0000E94DA0D80EB93E00E94B30C20E030E066
:1012B00048EC52E460912601709127018091280149
:1012C000909129010E94B7246B017C0120E030E05D
:1012D000A9010E94532318164CF010922601109277
:1012E0002701109228011092290110C020E030E05F
:1012F00040E85FE3C701B6010E94E6226093260141
:101300007093270180932801909329014090260132
:10131000509027016090280170902901C301B2010B
:101320000E94CA237B0120E030E048EC52E4C30174
:10133000B2010E9458236093260170932701809385
:101340002801909329010E94020D84EA92E00E94F4
:10135000B30C57CFB7018CE090E013C10E94AF0CE3
:101360008AE00E94EE0D60E070E080E090E00E9474
:10137000DA0D87EB93E00E94B30C61E070E080E04F
:1013800090E00E94DA0D85EC93E00E94B30C63E0DC
:1013900070E080E090E00E94DA0D83ED93E00E941F
:1013A000B30C6091220170912301809124019091EE
:1013B00025010E94020D20E030E048EC52E46091EB
:1013C00022017091230180912401909125010E94B6
:1013D000B7240E94CA237B010E942A1982309105FA
:1013E00009F46EC01CF4019751F0F6CF84309105DA
:1013F00009F4C4C0089781F70E942419EDCF63E077
:1014000070E080E090E00E94DA0D83ED93E00E94AE
:10141000B30C20E030E048EC52E46091220170917E
:10142000230180912401909125010E94B7246B0132
:101430007C0120E030E048EC52E40E94B22487FDB9
:101440000DC080E090E0A8ECB2E48093220190937C
:101450002301A0932401B093250110C020E030E0C7
:1014600040E85FE3C701B6010E94E72260932201D2
:1014700070932301809324019093250140902201D1
:10148000509023016090240170902501C301B201A6
:101490000E94CA237B0120E030E048EC52E4C30103
:1014A000B2010E945823609322017093230180931C
:1014B0002401909325010E94020D83EA92E05BC013
:1014C00063E070E080E090E00E94DA0D83ED93E04D
:1014D0000E94B30C20E030E048EC52E4609122011D
:1014E0007091230180912401909125010E94B724DD
:1014F0006B017C0120E030E0A9010E945323181603
:101500004CF01092220110922301109224011092AB
:10151000250110C020E030E040E85FE3C701B601DC
:101520000E94E6226093220170932301809324019C
:101530009093250140902201509023016090240156
:1015400070902501C301B2010E94CA237B0120E0F3
:1015500030E048EC52E4C301B2010E94582360938A
:1015600022017093230180932401909325010E940E
:10157000020D81EA92E00E94B30C2ECFB7018EE0FB
:1015800090E00E94141925C10E94AF0C8AE00E94CD
:10159000EE0D60E070E080E090E00E94DA0D8BEDEF
:1015A00093E00E94B30C61E070E080E090E00E9464
:1015B000DA0D8BEE93E00E94B30C63E070E080E004
:1015C00090E00E94DA0D80EB93E00E94B30C6091F2
:1015D0001E0170911F0180912001909121010E94B4
:1015E000020D20E030E048EC52E460911E01709161
:1015F0001F0180912001909121010E94B7240E9437
:10160000CA237B010E942A198230910509F445C042
:101610001CF4019751F0F6CF8430910509F49BC07A
:10162000089781F70E942419EDCF63E070E080E015
:1016300090E00E94DA0D80EB93E00E94B30C20E072
:1016400030E048EC52E460911E0170911F018091DE
:101650002001909121010E94B7246B017C0120E0C0
:1016600030E048EC52E40E94B22487FD0DC080E0D7
:1016700090E0A8ECB2E480931E0190931F01A09328
:101680002001B093210143C020E030E040E85FE357
:10169000C701B6010E94E72232C063E070E080E03B
:1016A00090E00E94DA0D80EB93E00E94B30C20E002
:1016B00030E048EC52E460911E0170911F0180916E
:1016C0002001909121010E94B7246B017C0120E050
:1016D00030E0A9010E94532318164CF010921E010D
:1016E00010921F01109220011092210110C020E0E1
:1016F00030E040E85FE3C701B6010E94E622609354
:101700001E0170931F01809320019093210140904E
:101710001E0150901F016090200170902101C301B3
:10172000B2010E94CA237B0120E030E048EC52E481
:10173000C301B2010E94582360931E0170931F01E0
:1017400080932001909321010E94020D84EA92E08F
:101750000E94B30C57CFB70180E190E012CF213047
:10176000A9F501C011505F8D511708F4152FE12C18
:10177000F12C8AE00E94EE0DB70180E090E00E941B
:10178000DA0D85EA92E00E94B30CB70180E090E0A8
:101790000E94DA0D85EA92E00E94B30C8FEFE81AFE
:1017A000F80A96E0E916F10421F78AE00E94EE0DAE
:1017B000612F70E080E090E00E94DA0D89EF93E005
:1017C0000E94B30C20E051C0213089F2223009F090
:1017D0004CC00E94AF0C2F8D263028F1E02EF12C4A
:1017E000EE0CFF1CC12CD12C8AE00E94EE0DB6013C
:1017F00081E090E00E94DA0DF601EE0FFF1FEE0D82
:10180000FF1D41E050E04C0F5D1FE40FF51F80818C
:1018100091810E94B30C5FEFC51AD50A86E0C81605
:10182000D10411F721C0712CE02EF12CC72CD12C42
:101830002C143D04CCF08AE00E94EE0DB60181E04C
:1018400090E00E94DA0DF701EC0DFD1DEE0FFF1F79
:1018500041E050E04C0F5D1FE40FF51F8081918146
:101860000E94B30C7394E2CF21E080912B0181118F
:101870000C94AA01A0960FB6F894DEBF0FBECDBFA0
:10188000DF91CF911F910F91FF90EF90DF90CF905C
:10189000BF90AF909F908F907F906F905F904F9090
:1018A0003F902F900895E091F905F091FA0501908D
:1018B000F081E02D682F89EF95E009948F929F9237
:1018C000AF92BF920F931F93CF93DF93CDB7DEB745
:1018D000A1970FB6F894DEBF0FBECDBF19A242305C
:1018E00008F44AE08E010F5D1F4F842E912CA12C2D
:1018F000B12CA50194010E94B522E62FB901CA01BD
:1019000001501109EA3014F4E05D01C0E95CD8012E
:10191000EC93232B242B252B61F7B80189EF95E05D
:101920000E941B13A1960FB6F894DEBF0FBECDBF69
:10193000DF91CF911F910F91BF90AF909F908F90AB
:101940000895CF93DF93EC016991662329F089EF25
:1019500095E00E94EE1DF8CFDF91CF91089583E6C8
:1019600094E00C94A10CCF93DF93EC0186E694E015
:101970000E94A10CBE0189EF95E00E941B1360E05C
:1019800089EF95E0DF91CF910C94EE1DCF93C82F96
:1019900086E694E00E94A10C6C2F70E080E090E05D
:1019A0004AE00E945E0C60E089EF95E0CF910C94D4
:1019B000EE1DCF92DF92EF92FF926C0186E694E0EB
:1019C0000E94A10C0D2C000CEE08FF08F7FE0CC0C5
:1019D0008DE20E94530C66277727CB016C197D0995
:1019E0008E099F094AE003C04AE0C701B6010E9480
:1019F0005E0C60E089EF95E0FF90EF90DF90CF9074
:101A00000C94EE1D8F929F92AF92BF92CF92DF9275
:101A1000EF92FF926B017C0186E694E00E94A10C9C
:101A2000A7019601C701B6010E942425882319F059
:101A300069E674E01AC046015701E894B7F82FEF41
:101A40003FEF4FE75FE7C501B4010E9424258111F4
:101A500011C02FEF3FEF4FE75FE7C501B4010E94D0
:101A6000532318163CF46DE674E089EF95E00E946C
:101A70001B1372C02FEF3FEF4FE75FE4C701B601C2
:101A80000E94B22418161CF461E774E0EECF2FEF29
:101A90003FEF4FE75FECC701B6010E94532387FD7C
:101AA000F3CF20E030E0A901C701B6010E94532323
:101AB00087FF07C08DE20E94530CF7FAF094F7F805
:101AC000F0942AE037ED43EA5BE3C701B6010E94D8
:101AD000E7224B015C010E94D1236B017C010E9433
:101AE00000249B01AC01C501B4010E94E6224B0118
:101AF0005C014AE0C701B6010E945E0C8EE20E94C2
:101B0000530C20E030E040E251E4C501B4010E94F2
:101B1000B7244B015C010E94D1236B01E12CF12C15
:101B20004AE0C701B6010E945E0CC701B6010E94DF
:101B300000249B01AC01C501B4010E94E62220E013
:101B400030E040E251E40E94B7240E94D12380E0BB
:101B500090E04AE00E945E0C60E089EF95E0FF9023
:101B6000EF90DF90CF90BF90AF909F908F900C94AC
:101B7000EE1DCF93DF93EC01E091F905F091FA05AA
:101B80000190F081E02D8F3F910510F4682F0DC07A
:101B90006FEF89EF95E00995E091F905F091FA056D
:101BA0006C2F6F5F0190F081E02D89EF95E0DF9160
:101BB000CF9109940F931F93CF93DF938C01EB0187
:101BC00085E794E00E94A10CC8010E94B90DCE01E6
:101BD000DF91CF911F910F910C94B90DCF93DF93AB
:101BE0001F92CDB7DEB7682F88E794E069830E9423
:101BF000A10CE091F905F091FA050190F081E02D3A
:101C0000698189EF95E00F90DF91CF910994EF9270
:101C1000FF920F931F93CF93DF934091AA065091A9
:101C2000AB066091AC067091AD064F5F5F4F6F4F92
:101C30007F4F4093AA065093AB066093AC06709317
:101C4000AD06843209F4A4C2E091A406853234F4CE
:101C50008A3071F08D3009F0A9C20AC08A3241F091
:101C60008C3209F0A3C29091910698279093910627
:101C7000082FEF3008F074C1F0E0ED56F94F1082F4
:101C800080919206882309F46DC1209193063FEB61
:101C9000320F822F022E000C990B363010F4C797AA
:101CA00007C02156263018F48755910901C0C09706
:101CB000282F2295207F309194064FEB430F832FDE
:101CC000032E000C990B463010F4C79707C031560D
:101CD000363018F48755910901C0C097820F909152
:101CE000910689132AC18091B6069091B706A091FA
:101CF000B806B091B9060196A11DB11D8093B60634
:101D00009093B706A093B806B093B9068091A50644
:101D1000882399F08091AE069091AF06A091B0060D
:101D2000B091B1060196A11DB11D8093AE069093AE
:101D3000AF06A093B006B093B1061091A20611238E
:101D400009F46BC0113009F0D2C080913506909132
:101D50003606A0913706B0913806809331069093ED
:101D60003206A0933306B09334060E94E2146093C7
:101D7000390670933A0680933B0690933C06109385
:101D8000300610932F068091430690914406A0914F
:101D90004506B091460680933F0690934006A09377
:101DA0004106B09342060E94E21460934706709386
:101DB00048068093490690934A0610933E06109376
:101DC0003D068091A506882309F491C087E0EDE1E6
:101DD000F6E0AFE0B6E001900D928A95E1F787E07A
:101DE000E4E2F6E0A6E1B6E001900D928A95E1F713
:101DF0000E94E21460932B0670932C0680932D06AC
:101E000090932E0610930E0610930D068BE496E029
:101E10000E948D1789E596E068C0809143069091F5
:101E20004406A0914506B091460680933F069093E4
:101E30004006A0934106B09342060E94E2146093CC
:101E40004706709348068093490690934A0611E02E
:101E500010933E0610933D068091A506882321F13C
:101E600087E0EDE1F6E0AFE0B6E001900D928A95F3
:101E7000E1F787E0E4E2F6E0A6E1B6E001900D923A
:101E80008A95E1F70E94E21460932B0670932C066A
:101E900080932D0690932E0610930E0610930D0638
:101EA00087E696E00E948D1780917F0690918006CC
:101EB000A0918106B091820680937B0690937C0668
:101EC000A0937D06B0937E060E94E214609377068D
:101ED000709378068093790690937A0681E08093D8
:101EE00076068093750683E896E00E948D17C09170
:101EF000A806D091A90611E0209709F43AC1E09113
:101F0000A806F091A90666A177A18EA19FA10E94C3
:101F10006C25892B09F02DC1BE01CE0140960E948F
:101F200075250E94E21468A379A38AA39BA31DA32D
:101F30001CA30AA4DBA5C02DDFCF8091B20690912F
:101F4000B306A091B406B091B5060196A11DB11DCE
:101F50008093B2069093B306A093B406B093B506EF
:101F600090E008C19091A306911142C06BE774E024
:101F700083E996E00E946C25892B41F061E874E0CA
:101F800083E996E00E946C25892B11F481E014C04E
:101F900067E874E083E996E00E946C25892B41F0A4
:101FA0006DE874E083E996E00E946C25892B19F4B2
:101FB0001092A20603C082E08093A2068091A6063A
:101FC0009091A7069093A9068093A806C091A806B1
:101FD000D091A906209721F2EEA0FFA063E976E058
:101FE000C7010E946C2597FFF7C08AA59BA5EACF81
:101FF000E091A206E23009F491C080919306882313
:1020000009F48CC020E2E29FF0011124E92B319702
:10201000E932F10508F082C0EC59FF4F0C944D25D0
:1020200083E996E00E942C1860934306709344065F
:10203000809345069093460671C091E0813409F083
:1020400043C043C06DE176E009C091E0833509F0FB
:1020500090E09093230662C064E276E083E996E024
:102060000E94A4175BC091E0873509F090E090933F
:102070002A0654C083E996E00E942C186093550606
:1020800070935606809357069093580647C083E98D
:1020900096E00E942C186093630670936406809308
:1020A0006506909366063AC083E996E00E94502246
:1020B0006093350670933606809337069093380602
:1020C0002DC091E081330CF490E09093A50626C0DA
:1020D00083E996E00E94502260937F067093800609
:1020E000809381069093820619C083E996E00E944E
:1020F0002C1860938D0670938E0680938F069093B4
:1021000090060CC083E996E00E942C18609371063B
:10211000709372068093730690937406C091A8061C
:10212000D091A906209709F41BCFE091A806F09161
:10213000A90666A177A18EA19FA10E946C25892B7B
:1021400009F00ECF28A539A58091A30690E082174B
:1021500093070CF405CF2817390739F440E150E014
:1021600063E976E0CE010E947C250AA4DBA5C02DA0
:10217000D9CF91E08091A3068F5F8093A306109240
:10218000A40681E00A3209F080E08093920632C012
:102190001092A4061092A3061092910682E08093FA
:1021A000A206109292061092A50614C0EE3040F4DA
:1021B00091E09E0F9093A406F0E0ED56F94F8083D6
:1021C00090919206911106C02091910682278093EA
:1021D000910610C090E00EC063E976E0C7010E944E
:1021E0006C25181619060CF0BBCE1092A906109299
:1021F000A806B6CE892FDF91CF911F910F91FF9046
:10220000EF900895FC0180915305811103C08FEF79
:102210009FEF08959FB7F89482E08093E9002091A2
:10222000F20030E01216130614F421E030E021151C
:10223000310559F0289884E6809352058091F10089
:1022400080838091F200882319F09FBFC90108950F
:102250008BE68093E800F9CF2FB7F89483E0809362
:10226000E9009091E800892F807295FF04C0909159
:10227000F20080E4891B2FBF08958F929F92AF9246
:10228000BF92CF92DF92EF92FF920F931F93CF9363
:10229000DF935C016B017A0180910901882309F4C5
:1022A0005BC080915305882309F456C08091510585
:1022B00080FF05C08091E00082608093E000E7012C
:1022C00010E00AEF83E0882E9AE3992E2097D9F147
:1022D0000E942C1181110AC0015009F43DC061E037
:1022E00070E080E090E00E94A814F0CF282F30E04A
:1022F000C217D3070CF48C2F4FB7F8948092E900E3
:102300009091E80095FF1DC0282F30E0C21BD30B31
:10231000F601982F915020F081918093F100FACF2F
:10232000C20ED31E112319F09092E80009C08091CB
:10233000E80085FD06C09092E80011E0209709F0C2
:1023400010E04FBFC3CF1111C3CF5D9884E68093D7
:1023500050051E141F0444F081E090E0F5019383C2
:10236000828380E090E001C0C701DF91CF911F918F
:102370000F91FF90EF90DF90CF90BF90AF909F9024
:102380008F9008958091BE0681110DC082E08093E8
:10239000BA0684E08093BB061092BD061092BC067C
:1023A00081E08093BE068AEB96E00895CF92DF929B
:1023B000EF92FF920F931F93CF93DF936C017A01FB
:1023C0008B01C0E0D0E0CE15DF0589F0D8016D911A
:1023D0008D01D601ED91FC910190F081E02DC601B7
:1023E0000995892B11F47E0102C02196ECCFC7011B
:1023F000DF91CF911F910F91FF90EF90DF90CF90E1
:102400000895FC01538D448D252F30E0842F90E0FA
:10241000821B930B541710F0CF96089501970895DF
:10242000FC01918D828D981761F0828DDF01A80FDC
:10243000B11D5D968C91928D9F5F9F73928F90E0FE
:1024400008958FEF9FEF0895FC01918D828D98176D
:1024500031F0828DE80FF11D858D90E008958FEFAA
:102460009FEF0895FC01918D228D892F90E0805C73
:102470009F4F821B91098F739927089584E595E0FA
:102480000E94321221E0892B09F420E0822F089566
:10249000FC01848DDF01A80FB11DA35ABF4F2C9101
:1024A000848D90E001968F739927848FA689B789D0
:1024B0002C93A089B1898C9180648C93938D848DA9
:1024C000981306C00288F389E02D80818F7D808378
:1024D0000895EF92FF920F931F93CF93DF93EC0138
:1024E00081E0888F9B8D8C8D981305C0E889F989D0
:1024F000808185FD24C0F62E0B8D10E00F5F1F4FED
:102500000F731127E02E8C8DE8120CC00FB607FC5C
:10251000FACFE889F989808185FFF5CFCE010E9445
:102520004812F1CF8B8DFE01E80FF11DE35AFF4FEA
:10253000F0820B8FEA89FB898081806207C0EE8977
:10254000FF896083E889F98980818064808381E0E4
:1025500090E0DF91CF911F910F91FF90EF90089540
:10256000CF93DF93EC01888D8823C9F0EA89FB893A
:10257000808185FD05C0A889B9898C9186FD0FC031
:102580000FB607FCF5CF808185FFF2CFA889B98906
:102590008C9185FFEDCFCE010E944812E7CFDF91ED
:1025A000CF91089580E090E0892B29F00E943E129F
:1025B00081110C940000089590E0FC013197EF30F8
:1025C000F105B0F5E357FF4F0C944D258091800045
:1025D0008F7703C0809180008F7D80938000089565
:1025E00080918000877FF9CF84B58F7702C084B552
:1025F0008F7D84BD0895809190008F7707C0809172
:1026000090008F7D03C080919000877F8093900021
:1026100008958091C0008F7703C08091C0008F7DA6
:102620008093C00008958091C200877F8093C2008C
:1026300008950E9467256115710579F0FB010190ED
:102640000020E9F73197AF01461B570BDC01ED91F4
:10265000FC910280F381E02D099480E090E00895E0
:102660001F920F920FB60F9211242F933F934F9307
:102670005F936F937F938F939F93AF93BF93EF93EA
:10268000FF9384E595E00E944812FF91EF91BF917E
:10269000AF919F918F917F916F915F914F913F91FA
:1026A0002F910F900FBE0F901F9018951F920F92B1
:1026B0000FB60F9211242F938F939F93EF93FF9355
:1026C000E0916405F09165058081E0916A05F091E3
:1026D0006B0582FD12C0908180916D058F5F8F73B5
:1026E00020916E05821751F0E0916D05F0E0EC5AF3
:1026F000FA4F958F80936D0501C08081FF91EF9116
:102700009F918F912F910F900FBE0F901F90189552
:10271000CF93DF93282F30E0F901E056FE4F8491EC
:10272000F901EF57FE4FD491F901EE59FE4FC491D4
:10273000CC2391F081110E94DC12EC2FF0E0EE0F1F
:10274000FF1FEC5AFE4FA591B491EC91ED2381E06F
:1027500090E021F480E002C080E090E0DF91CF9132
:1027600008951F93CF93DF93282F30E0F901E056AF
:10277000FE4F8491F901EF57FE4FD491F901EE59C4
:10278000FE4FC491CC23C9F0162F81110E94DC1298
:10279000EC2FF0E0EE0FFF1FEA5BFE4FA591B49126
:1027A0008FB7F894111105C09C91ED2FE095E923A6
:1027B00002C0EC91ED2BEC938FBFDF91CF911F9175
:1027C0000895CF93DF9390E0FC01EF57FE4F2491E3
:1027D000FC01EE59FE4F8491882361F190E0880F4F
:1027E000991FFC01E85CFE4FC591D491FC01EA5BA6
:1027F000FE4FA591B491611109C09FB7F8948881EB
:10280000209582238883EC912E230BC0623061F4E3
:102810009FB7F8943881822F809583238883EC9129
:102820002E2B2C939FBF06C08FB7F894E8812E2BD8
:1028300028838FBFDF91CF9108953FB7F89480919F
:10284000C6079091C707A091C807B091C90726B5E0
:10285000A89B05C02F3F19F00196A11DB11D3FBFD8
:10286000BA2FA92F982F8827820F911DA11DB11D66
:10287000BC01CD0142E0660F771F881F991F4A9562
:10288000D1F70895089585ED8093BC008091BC0038
:1028900084FDFCCF10929B07089540917507262F69
:1028A00030E0240F311D21323105DCF420919B07EB
:1028B0002430C9F4FC0180E090E0861758F4309190
:1028C00075072191DC01AD5AB84FA30FB11D2C93B0
:1028D0000196F3CF80917507680F6093750780E0CC
:1028E000089581E0089582E0089508958FEF9FEFA5
:1028F00008958FEF9FEF08958091520790E0919592
:10290000819591090895CF93DF9300D0CDB7DEB7BD
:10291000CB01642F49835A830E944D144981842F2F
:102920005A81952F0F900F90DF91CF910895CF93FB
:10293000DF931F92CDB7DEB7698361E0CE010196C8
:102940000E944D1481E090E00F90DF91CF910895A7
:102950008F929F92AF92BF92CF92DF92EF92FF92AF
:102960006B017C010E941D144B015C01C114D10458
:10297000E104F104F1F00E941D14DC01CB0188197F
:102980009909AA09BB09883E9340A105B10570F3D6
:1029900021E0C21AD108E108F10888EE880E83E030
:1029A000981EA11CB11CC114D104E104F10419F753
:1029B000DDCFFF90EF90DF90CF90BF90AF909F90D2
:1029C0008F9008952FB7F8946091C2077091C30754
:1029D0008091C4079091C5072FBF08951F920F9251
:1029E0000FB60F9211242F933F938F939F93AF9322
:1029F000BF938091C2079091C307A091C407B09183
:102A0000C5073091C10723E0230F2D3720F401962D
:102A1000A11DB11D05C026E8230F0296A11DB11D01
:102A20002093C1078093C2079093C307A093C40764
:102A3000B093C5078091C6079091C707A091C807BA
:102A4000B091C9070196A11DB11D8093C60790934F
:102A5000C707A093C807B093C907BF91AF919F91D3
:102A60008F913F912F910F900FBE0F901F9018954F
:102A70001F920F920FB60F9211242F933F934F93F3
:102A80005F936F937F938F939F93AF93BF93EF93D6
:102A9000FF93E0911401F09115010995FF91EF91D9
:102AA000BF91AF919F918F917F916F915F914F9166
:102AB0003F912F910F900FBE0F901F9018951F926E
:102AC0000F920FB60F9211242F933F934F935F9362
:102AD0006F937F938F939F93AF93BF93EF93FF93E6
:102AE000E0911201F09113010995FF91EF91BF91CF
:102AF000AF919F918F917F916F915F914F913F9196
:102B00002F910F900FBE0F901F9018951F920F924C
:102B10000FB60F9211242F933F934F935F936F93B0
:102B20007F938F939F93AF93BF93EF93FF93E09126
:102B30001001F09111010995FF91EF91BF91AF91B3
:102B40009F918F917F916F915F914F913F912F91C5
:102B50000F900FBE0F901F9018951F920F920FB6F7
:102B60000F9211242F933F934F935F936F937F9313
:102B70008F939F93AF93BF93EF93FF93E0910E01D9
:102B8000F0910F010995FF91EF91BF91AF919F9146
:102B90008F917F916F915F914F913F912F910F9006
:102BA0000FBE0F901F9018951F920F920FB60F92A5
:102BB00011242F933F934F935F936F937F938F9342
:102BC0009F93AF93BF93EF93FF93E0910C01F0912C
:102BD0000D010995FF91EF91BF91AF919F918F9159
:102BE0007F916F915F914F913F912F910F900FBE09
:102BF0000F901F9018951F920F920FB60F921124ED
:102C00002F933F934F935F936F937F938F939F93F4
:102C1000AF93BF93EF93FF938091B900887F803685
:102C200009F49CC068F5883209F45BC090F48031E7
:102C300009F454C038F4882309F4F6C0883009F444
:102C40004DC0F6C0883109F44CC0803209F45DC033
:102C5000EFC0803409F468C048F4803309F455C0EB
:102C6000883309F0E5C080939A07D8C0803509F40D
:102C70004FC0883509F45DC0883409F0D9C0D6C08A
:102C8000883909F4C7C0A8F4883709F467C038F454
:102C9000883609F463C0803709F460C0C9C0883839
:102CA00009F4B8C0803909F45FC0803809F0C0C0A9
:102CB0005BC0803B09F486C038F4803A09F466C0F2
:102CC000883A09F47FC0B4C0803C09F4A7C0883CAE
:102CD00009F4A4C0883B09F48AC0AAC08091C00747
:102CE00010C09091BF078091BE07981770F5E091D2
:102CF000BF0781E08E0F8093BF07F0E0E256F84FE8
:102D000080818093BB0085EC86C080939A078EC03B
:102D1000E091BF0781E08E0F8093BF078091BB00D9
:102D2000F0E0E256F84F80839091BF078091BE0794
:102D30006EC0E091BF0781E08E0F8093BF07809146
:102D4000BB00F0E0E256F84F808380919D0781112F
:102D50006DC081E080939C0784EA61C083E080932A
:102D60009B0710929907CFCF80919907803208F086
:102D700051C0E091990781E08E0F8093990780916F
:102D8000BB00F0E0E758F84F8083BDCF85EC80931F
:102D9000BC0010929B0780919907803230F4E0913B
:102DA0009907F0E0E758F84F10826091990770E0BA
:102DB000E0917707F091780789E797E009951092FD
:102DC000990736C084E080939B0710927607109293
:102DD0007507E0917307F091740709958091750765
:102DE000811105C081E08093750710925307E0912F
:102DF000760781E08E0F80937607F0E0ED5AF84F6A
:102E000080818093BB009091760780917507981719
:102E100008F479CF85E88093BC000AC085EC8093E4
:102E2000BC0010929B0704C010929A070E944314A2
:102E3000FF91EF91BF91AF919F918F917F916F9192
:102E40005F914F913F912F910F900FBE0F901F9068
:102E500018951F920F920FB60F9211242F933F9344
:102E60008F939F93EF93FF938091510787FF05C046
:102E7000109285001092840005C08091510787FD53
:102E800080915107809151078F5F80935107809106
:102E9000510787FF20C0809151078C30E4F42091C6
:102EA00084003091850080915107082E000C990B09
:102EB000FC01EE0FFF1F8E0F9F1FFC01E35DF84F1B
:102EC00081819281820F931F909389008093880063
:102ED0008091510717C080918400909185000496DD
:102EE00080349C4918F480E49CE905C080918400FA
:102EF00090918500049690938900809388008FEFCD
:102F000080935107FF91EF919F918F913F912F9166
:102F10000F900FBE0F901F901895CF93DF93EC0189
:102F20008A859B85AC85BD858E839F83A887B9875D
:102F30000E94E2146A837B838C839D8381E0898372
:102F40008883DF91CF9108952F923F924F925F92A5
:102F50006F927F928F929F92AF92BF92CF92DF92A9
:102F6000EF92FF920F931F93CF93DF93D82FC92F28
:102F70008B010E94502224E630E040E050E00E94A5
:102F8000B52249015A019B01AC0160E876E988E964
:102F900090E00E9429256B017C01F80191828082DA
:102FA000ED2FFC2F2191822F022E000C990BC09740
:102FB0000A97C0F32E3239F51F0180E8882E86E982
:102FC000982E88E9A82EB12C9AE0492E512C612C1C
:102FD000712CF101C1911F010C2E000CDD0BE0974B
:102FE000CA30D10580F4C501B401A30192010E9449
:102FF000B52249015A01DE010E94AD22C60ED71E3C
:10300000E81EF91EE6CFA5E0B0E0A70196010E94F8
:10301000A2226F5F7F4F8F4F9F4F23E030E040E051
:1030200050E00E94B522F801228333834483558304
:103030001682DF91CF911F910F91FF90EF90DF905B
:10304000CF90BF90AF909F908F907F906F905F9048
:103050004F903F902F900895FF920F931F93CF931F
:10306000DF93EC01FF24F39488818D3211F0F12C71
:1030700001C02196CE010E9450229B01AC01A4E622
:10308000B0E00E94A222FE014991242F042E000CE0
:10309000330B205331092A303105A8F34E3241F564
:1030A0002181022E000C330B205331092A303105C7
:1030B000F8F44AE0429F8001439F100D1124012E35
:1030C000000C220B330B600F711F821F931F0281B4
:1030D000002E000C110B005311090A30110540F4A9
:1030E000012E000C220B330B600F711F821F931FE8
:1030F000FF2039F090958095709561957F4F8F4FA7
:103100009F4FDF91CF911F910F91FF9008950C94E5
:1031100094220C948C2280911D0160911601709173
:10312000170181110EC0072E000C880B990B0E940D
:1031300002242BE734E14EEC5FE30E94B7240E94A7
:10314000CA23CB016AE070E00E9439257093F6052E
:103150006093F5058091F5059091F6056AE070E0C1
:103160000E9439257093F4056093F3059093F2055E
:103170008093F105860F971F97FF03C08AE395E0C0
:1031800008C06A3071051CF484EA92E002C085EA46
:1031900092E00E94B30C8091F3059091F40597FFA3
:1031A00007C09195819591099093F4058093F3055B
:1031B0008091F3059091F4050E94D90C8DE395E080
:1031C0000E94B30C8091F1059091F20597FF07C022
:1031D0009195819591099093F2058093F1058091E5
:1031E000F1059091F2050E94D90C80911D01882370
:1031F00019F080EF92E002C085EF92E00C94B30CDE
:103200000F931F93CF938C0101960E948918C82FAA
:10321000C8010E9489182C2F30E0A901582BCA013F
:10322000CF911F910F9108951F93CF93DF93EC01DE
:10323000162F672F0E948718612FCE010196DF910C
:10324000CF911F910C94871810922B0110922C078C
:103250000C944501CF9380912A07882391F18091A6
:10326000260790912707A0912807B09129071816E3
:1032700019061A061B0664F41092260710922707F7
:10328000109228071092290710922A0781E065C042
:103290008091260790912707A0912807B0912907D0
:1032A000B7FF0CC01092260710922707109228072C
:1032B0001092290710922A0782E04FC010922A0725
:1032C0004BC084E00E948813C0912B07892BE9F43E
:1032D000CF5FC0932B0768EC70E080E090E00E9425
:1032E000A814C830C0F110922B070E94AF0C84E1E3
:1032F0000E94EE0D60E070E080E090E00E94DA0D48
:1033000085E495E00E94B30C1DC0CC2329F11092F6
:103310002B070E94AF0C84E10E94EE0D60E070E08C
:1033200080E090E00E94DA0D8FE395E00E94B30CFC
:1033300064EF71E080E090E00E94A8140E94AF0C5E
:1033400084E00BC084E00E948813892BD9F30E948B
:10335000AF0C88E002C002C080E190E0CF910895F8
:10336000CF93DF931F92CDB7DEB76983DC01ED9178
:10337000FC910280F381E02D41E050E0BE016F5FDF
:103380007F4F09950F90DF91CF91089583E080934F
:10339000E9008091F200882319F08AE38093E80025
:1033A0000895FC018485958597FD0BC09FB7F8941F
:1033B00082E08093E9008091F2009FBF90E0019647
:1033C00008959FB7F89482E08093E9008091F2001D
:1033D0009FBF90E008954091CE075091CF07209174
:1033E000CC073091CD0742175307B4F49091E80011
:1033F0009570E1F39091E80092FD19C08093F1007F
:103400008091CE079091CF0701968F739927892BD2
:1034100019F48EEF8093E8008091CE079091CF074A
:1034200001969093CF078093CE0781E0089580E0C6
:103430000895CF92DF92EF92FF920F931F93CF9355
:10344000DF931F92CDB7DEB7182F062FE42E862FFD
:10345000880F8E5F99830E94EB1983E00E94EB191D
:10346000F12EC12E9981D92E8C2D8F19801798F4A9
:10347000F601E7FE02C0849101C080810E94EB1931
:10348000182F80E00E94EB198123FFEFCF1ADF0A8B
:103490008111EACF01C081E00F90DF91CF911F91A0
:1034A0000F91FF90EF90DF90CF900895DF92EF9211
:1034B000FF920F931F93CF93DF93D82E8A017B0146
:1034C000E40EF51EEB01CE15DF0571F0D7FE03C04B
:1034D000FE01849101C088810E94EB19219681111F
:1034E000F2CF8FEF9FEF01C0C801DF91CF911F9105
:1034F0000F91FF90EF90DF900895615030F0209190
:10350000F100FC0120830196F8CF289884E680938F
:10351000520508950E942C1190E00895CF93DF93F7
:103520001F92CDB7DEB7FC018485958597FD05C058
:103530002FEF3FEF358724870BC0CE0101960E9405
:103540000211019719F4898190E002C08FEF9FEF7B
:103550000F90DF91CF9108950F931F93CF93DF9337
:103560001F92CDB7DEB78C01FC018485958597FF4E
:103570000EC0CE0101960E940211019719F4298113
:1035800030E002C02FEF3FEFF80135872487F801C4
:10359000848595850F90DF91CF911F910F910895AC
:1035A0000F931F93CF93DF931F92CDB7DEB782E0C7
:1035B000898342E450E06FEB71E080E80E94561A84
:1035C0000E94C211DC0112960D911C9113970115F6
:1035D000110569F0D801ED91FC910280F381E02D95
:1035E000BE016F5F7F4FC801099597FF07C08981B2
:1035F0000F90DF91CF911F910F910895F8010085F1
:103600001185E5CF1F920F920FB60F9211248F9361
:103610009F938091E1009091E100937F9093E1006E
:1036200083FF0FC01092E90091E09093EB0010929D
:10363000EC0092E39093ED001092530598E0909384
:10364000F00082FF20C093E09093E9009091F20097
:10365000992319F09AE39093E800909150059923EB
:1036600039F090915005915090935005992389F12C
:1036700090915205992339F0909152059150909371
:103680005205992341F184FF10C08091E2008E7EA3
:1036900081608093E2008091E1008F7E8093E10061
:1036A000809151058E7E806111C080FF16C080918F
:1036B000E2008E7E80618093E2008091E1008E7E48
:1036C0008093E100809151058E7E81608093510549
:1036D00004C05D9ACDCF289AD6CF9F918F910F903D
:1036E0000FBE0F901F9018951F920F920FB60F925A
:1036F0001124CF92DF92EF92FF920F931F932F939B
:103700003F934F935F936F937F938F939F93AF9369
:10371000BF93EF93FF93CF93DF93CDB7DEB76C9753
:10372000DEBFCDBF1092E9008091E80083FFEDC1BC
:1037300068E0CE0145960E947D1A82EF8093E800F2
:103740008D8987FF05C09091E80090FFFCCF03C0F2
:103750009EEF9093E800982F907609F0C6C09E895E
:103760002F89188D91110CC0803829F48091CB07D6
:103770008093F10002C01092F1001092F10048C154
:10378000422F50E0512B913051F4811141C1413011
:10379000510509F03DC18091CB078D7F0BC093305F
:1037A00061F4811135C14130510509F031C1809179
:1037B000CB0782608093CB072BC1953041F4809179
:1037C000E80080FFFCCF20682093E30021C1963001
:1037D00009F05FC0EB8CFC8C1092E9001092CF07CF
:1037E0001092CE07123091F51092CD071092CC07AF
:1037F0000E94D01A99E0BE016F5F7F4FDB01E92F75
:103800001D92EA95E9F799831A8391E09E8390EAE5
:1038100098879AEF99872091CE073091CF07275F3D
:103820003F4F3C832B838D831092E9001092CF078A
:103830001092CE07F092CD07E092CC0749E050E01D
:1038400080E00E94561A0E94D01AE2C0F092CD0782
:10385000E092CC070E94C211DC011296ED90FC9020
:103860001397E114F10409F4C0C0D701ED91FC9164
:103870000480F581E02DBE016B5E7F4FC701099585
:10388000009719F00CF0C4C0C7C0F701E084F184C0
:10389000E8CF973009F4C0C0983021F481E08093DC
:1038A000F100B6C0993009F0B3C0837009F0B4C01C
:1038B000EDE9F1E081E021E036E39081992361F0C8
:1038C0008093E9002093EB0091919093EC0030936A
:1038D000ED008F5F873089F78EE78093EA001092C2
:1038E000EA008F898093530593C08B8D9C8D109235
:1038F000E9001092CF071092CE079093CD078093E6
:10390000CC07898D811156C08E899D89913A59F4D1
:10391000813209F081C047E050E062E071E080E070
:103920000E94561A75C0913209F076C0833289F42C
:10393000888D90E0982F88272F89822BA0E0B0E017
:1039400080932C0190932D01A0932E01B0932F0111
:103950005FC0803269F48091E80082FFFCCF67E0AD
:1039600082E091E00E947D1A8BEF8093E80006C010
:10397000823209F04DC08F89809309018091CA0776
:10398000882319F0EEEFFAE002C0E0E0F8E0809161
:10399000020190910301A0910401B0910501803BC7
:1039A0009440A105B10509F07BC08091090180FF19
:1039B00093C076C00E94C211DC0112960D911C9139
:1039C00013970115110541F1D801ED91FC9101907A
:1039D000F081E02DBE016B5E7F4FC801099581111A
:1039E00017C0F80100851185ECCF113009F44EC0E5
:1039F000133091F48F89882309F445C0823081F413
:103A000040E860E183E292E00E94191A882321F0E5
:103A10008EEF8093E80079C081E28093EB0075C05F
:103A2000813029F440E86BE087E192E0EDCF83300C
:103A300099F70E94C211DC011296ED90FC90139749
:103A40008E010F5F1F4F6801E114F10479F0D70177
:103A5000ED91FC910680F781E02DB801C701099531
:103A6000080F111DF701E084F184EECFD8011C92FC
:103A7000F60101900020E9F73197BF016C197D092B
:103A800040E0C601C1CF61E072E002C065E072E0D3
:103A90006115710509F2FB01449150E080E840CFC7
:103AA0000FB6F894A89580916000886180936000BB
:103AB000109260000FBEA895EE3F2AE0F20739F0A1
:103AC0008091FE0A9091FF0A91838083A1CF10928A
:103AD000FF0A1092FE0A9CCFEE3F8AE0F80731F011
:103AE000808191819093FF0A8093FE0A87E797E790
:103AF000918380839BE088E10FB6F894A89580932A
:103B000060000FBE9093600083CF6C960FB6F89460
:103B1000DEBF0FBECDBFDF91CF91FF91EF91BF917F
:103B2000AF919F918F917F916F915F914F913F9155
:103B30002F911F910F91FF90EF90DF90CF900F90FA
:103B40000FBE0F901F90189508950895089580E076
:103B500090E00895FF920F931F93CF93DF93EC01B2
:103B600061E089890E94B11361E089890E94B113E3
:103B70008A890E948813892BD9F360E089890E9481
:103B8000B11360E089890E94B11360E089890E94C5
:103B9000B11398E0F92E00E010E0000F111F61E072
:103BA0008F850E94B1138A890E948813892B09F09E
:103BB000016060E08F850E94B113FA94F110EDCF9F
:103BC00061E089890E94B113C801DF91CF911F91F3
:103BD0000F91FF90089504970C94AA1DCF92DF9245
:103BE000EF92FF920F931F93CF93DF93EC01E62E9A
:103BF00060E089890E94B11360E089890E94B11355
:103C000060E089890E94B113DF84C88807E010E072
:103C1000F12CB701002E02C0759567950A94E2F762
:103C2000617077278C2D0E94B11361E08D2D0E9469
:103C3000B11360E08D2D0E94B1130150110948F7B6
:103C400061E089890E94B11381E090E0DF91CF911A
:103C50001F910F91FF90EF90DF90CF900895CF9339
:103C6000DF93EC0161E08F850E94E11361E08889B8
:103C70000E94E11361E089890E94E11361E0898972
:103C80000E94B11360E08F850E94B11360E08889C3
:103C90000E94B1138A89882329F060E0DF91CF91D7
:103CA0000C94E113DF91CF91089582E00E94881374
:103CB000019779F481E08093D00780912607909155
:103CC0002707A0912807B09129070197A109B109F9
:103CD0000DC01092D0078091260790912707A091E0
:103CE0002807B09129070196A11DB11D80932607D1
:103CF00090932707A0932807B093290781E080932A
:103D00002A070895E6ECF6E01382128288EE93E02B
:103D1000A0E0B0E084839583A683B78322E531E0F9
:103D2000318320832FEF3FEF35872487E4E5F5E0EB
:103D30001382128284839583A683B78324E631E0BD
:103D4000318320832DEC30E0358724872CEC30E064
:103D50003787268728EC30E0318B208B29EC30E048
:103D6000338B228B2AEC30E0358B248B2EEC30E029
:103D7000378B268B118E128E138E148EE6E1F7E0B0
:103D80001382128284839583A683B78386E791E0AA
:103D900091838083EDE0F6E010821182138212821B
:103DA0001482158216821782108612861186138657
:103DB0001486158616861786118A108A128A138A27
:103DC000148A158A168A108E178A118E128E138EF7
:103DD000148E158E12A213A214A215A216A217A257
:103DE00010AA11AA12AA13AA14AA15AA10924B0675
:103DF00010924C06109251061092520610925306E1
:103E0000109254061092590610925A0610925F06AC
:103E10001092600610926106109262061092670678
:103E20001092680610926D0610926E0610926F0640
:103E300010927006109275061092760610927B060C
:103E400010927C0610927D0610927E0610928306D8
:103E5000109284061092890610928A0610928B06A0
:103E600010928C06109291061092920682E0809336
:103E7000A2061092A3061092A4061092A506109214
:103E8000A7061092A6061092A9061092A8061092F4
:103E9000AA061092AB061092AC061092AD061092D4
:103EA000AE061092AF061092B0061092B1061092B4
:103EB000B2061092B3061092B4061092B506109294
:103EC000B6061092B7061092B8061092B906109274
:103ED0009306E9EFF5E01382128288E891E091837E
:103EE000808388E991E09583848388E0878789E0EF
:103EF000808B8AE0818B128ACF010E942F1E8091D5
:103F00000A0190910B019093F8058093F705809139
:103F1000F5059091F6056AE070E00E9439257093EE
:103F2000F4056093F3059093F2058093F1050895ED
:103F3000789484B5826084BD84B5816084BD85B584
:103F4000826085BD85B5816085BD80916E00816090
:103F500080936E0010928100809181008260809336
:103F60008100809181008160809381008091800038
:103F700081608093800080919100826080939100A5
:103F80008091910081608093910080919000816088
:103F9000809390008091C10084608093C1008091E3
:103FA000C10082608093C1008091C10081608093D4
:103FB000C1008091C30081608093C3008091C000E4
:103FC00082608093C0008091C20081608093C200B3
:103FD00080917A00846080937A0080917A00826078
:103FE00080937A0080917A00816080937A0080913A
:103FF0007A00806880937A00109253051092CB0764
:10400000109251058091D70081608093D70080EA9B
:104010008093D80089B5806189BD89B5826089BDEA
:1040200009B400FEFDCF61E070E080E090E00E9406
:10403000A8148091D8008F7C80618093D8008091F3
:10404000E000807F8093E0008091E1008E7E80938D
:10405000E1008DE08093E200559A209AEEEFFFE7B1
:10406000859194918B3F9C4D19F481E08093CA0710
:1040700080E290E00E94891891E0811101C090E0F7
:1040800090932507E0916405F091650582E08083B7
:10409000E0916005F09161051082E0916205F09178
:1040A00063058FEC808310926C05E0916805F091B8
:1040B000690586E08083E0916605F091670580815F
:1040C00080618083E0916605F0916705808188605A
:1040D0008083E0916605F091670580818068808328
:1040E000E0916605F091670580818F7D808368EBA4
:1040F0007BE080E090E00E94A81489EF95E00E94A8
:104100002F1E80912507882341F083E994E00E94C7
:10411000A10C82E090E00E94B90D0E94AF0C64E611
:1041200070E080E090E00E94A8148EE10E94EE0D05
:1041300061E070E080E090E00E94DA0D83EA92E0B6
:104140000E94B30C64E670E080E090E00E94A81446
:1041500086E994E00E94B30C62E070E080E090E0B9
:104160000E94DA0D83EA92E00E94B30C64E670E0EC
:1041700080E090E00E94A81481EA94E00E94B30CD1
:1041800063E070E080E090E00E94DA0D8AE00E9437
:10419000EE0D8DEA94E00E94B30C68E873E180E0D4
:1041A00090E00E94A8140E94AF0C64EF71E080E0E0
:1041B00090E00E94A8148EE10E94EE0D61E070E094
:1041C00080E090E00E94DA0D8EE10E94EE0D62E048
:1041D00070E080E090E00E94DA0D83EC94E00E94B1
:1041E000B30C60ED77E080E090E00E94A81466E0F8
:1041F0008BE090E00E94871860E08CE090E00E94E5
:10420000871865E28DE090E00E94871860E08EE0FC
:1042100090E00E94871869E18FE090E00E94871883
:1042200060E080E190E00E94871868E081E190E022
:104230000E94871861E082E190E00E9487186CE09C
:1042400083E190E00E9487186FEF84E190E00E9484
:10425000871860E085E190E00E94871861E08DE1B9
:1042600090E00E9487186AE08EE190E00E94871833
:1042700060E08FE190E00E94871860E080E290E0CB
:104280000E9487186EE181E290E00E9487180E94E8
:10429000AF0C8EE10E94EE0D61E070E080E090E0F6
:1042A0000E94DA0D85ED94E00E94B30C63E070E0AB
:1042B00080E090E00E94DA0D86EE94E00E94B30C5C
:1042C00068EE73E080E090E00E94A81460E082E075
:1042D0000E94E11360E083E00E94E11362E084E069
:1042E0000E94E11385E59EE190930D0180930C01FE
:1042F00080916900836080936900E89A8BE090E088
:104300000E94891880932A018CE090E00E94001995
:10431000BC0180E090E00E94002420E030E048EC06
:1043200052E40E94582360932601709327018093E2
:104330002801909329018EE090E00E940019BC01B1
:1043400080E090E00E94002420E030E048EC52E45D
:104350000E945823609322017093230180932401CB
:104360009093250180E190E00E940019BC0180E05B
:1043700090E00E94002420E030E048EC52E40E94EB
:10438000582360931E0170931F0180932001909326
:10439000210182E190E00E94891891E0811101C021
:1043A00090E090931D0183E190E00E94891890E0D5
:1043B00090931C0180931B0184E190E00E94891876
:1043C0002AE0829FC001112490931A018093190161
:1043D00085E190E00E9489182AE0829FC0011124A3
:1043E00090930B0180930A018DE190E00E9489185F
:1043F00091E0811101C090E0909318018EE190E06E
:104400000E94891824E6829FC0011124909317010D
:10441000809316018FE190E00E94891891E081114C
:1044200001C090E09093240780E290E00E948918F8
:1044300091E0811101C090E09093250781E290E026
:104440000E94891890E0909323078093220765EFDC
:1044500074E084E595E00E941B1367E275E084E553
:1044600095E00E941B1364E670E080E090E00E94FB
:10447000A8146AE275E084E595E00E941B1367E2E8
:1044800075E084E595E00E941B1364E670E080E02F
:1044900090E00E94A8140E9445010E94D212FBCF16
:1044A0001F93FC0199278827BC01E89411911032D1
:1044B000E9F3193010F01E30C8F31B3251F01D32F1
:1044C00049F4689406C00E947722610F711D811D16
:1044D000911D119110531A30B0F33EF490958095D0
:1044E000709561957F4F8F4F9F4F1F910895592F62
:1044F000482F372F262F660F771F881F991F660FAB
:10450000771F881F991F620F731F841F951F660FE7
:10451000771F881F991F0895F999FECF92BD81BD1D
:10452000F89A992780B50895262FF999FECF1FBADA
:1045300092BD81BD20BD0FB6F894FA9AF99A0FBECC
:10454000019608950E94D722A59F900DB49F900DCB
:10455000A49F800D911D11240895B7FF0C94A222F1
:104560000E94A222821B930B0895A1E21A2EAA1B7D
:10457000BB1BFD010DC0AA1FBB1FEE1FFF1FA21713
:10458000B307E407F50720F0A21BB30BE40BF50B10
:10459000661F771F881F991F1A9469F76095709599
:1045A000809590959B01AC01BD01CF010895A29F1C
:1045B000B001B39FC001A39F700D811D1124911DF7
:1045C000B29F700D811D1124911D08955058BB2775
:1045D000AA270E94FE220C9478240E946A2438F0B4
:1045E0000E94712420F039F49F3F19F426F40C94B2
:1045F00067240EF4E095E7FB0C946124E92F0E94F8
:10460000892458F3BA17620773078407950720F0C7
:1046100079F4A6F50C94AB240EF4E0950B2EBA2F8A
:10462000A02D0B01B90190010C01CA01A0011124B8
:10463000FF27591B99F0593F50F4503E68F11A1664
:10464000F040A22F232F342F4427585FF3CF4695F5
:1046500037952795A795F0405395C9F77EF41F1617
:10466000BA0B620B730B840BBAF09150A1F0FF0FE1
:10467000BB1F661F771F881FC2F70EC0BA0F621FCD
:10468000731F841F48F4879577956795B795F795BD
:104690009E3F08F0B0CF9395880F08F09927EE0F52
:1046A0009795879508950E943D2408F481E0089528
:1046B0000E946C230C9478240E94712458F00E946C
:1046C0006A2440F029F45F3F29F00C9461245111D1
:1046D0000C94AC240C9467240E94892468F39923D9
:1046E000B1F3552391F3951B550BBB27AA276217EE
:1046F0007307840738F09F5F5F4F220F331F441FFB
:10470000AA1FA9F335D00E2E3AF0E0E832D091502E
:104710005040E695001CCAF72BD0FE2F29D0660F1B
:10472000771F881FBB1F261737074807AB07B0E85E
:1047300009F0BB0B802DBF01FF2793585F4F3AF064
:104740009E3F510578F00C9461240C94AC245F3F9B
:10475000E4F3983ED4F3869577956795B795F795EA
:104760009F5FC9F7880F911D9695879597F90895D2
:10477000E1E0660F771F881FBB1F6217730784076E
:10478000BA0720F0621B730B840BBA0BEE1F88F77D
:10479000E09508950E94D1236894B1110C94AC2443
:1047A00008950E94912488F09F5798F0B92F992777
:1047B000B751B0F0E1F0660F771F881F991F1AF00C
:1047C000BA95C9F714C0B13091F00E94AB24B1E0A2
:1047D00008950C94AB24672F782F8827B85F39F0A1
:1047E000B93FCCF3869577956795B395D9F73EF4A5
:1047F00090958095709561957F4F8F4F9F4F08954D
:10480000E89409C097FB3EF490958095709561956A
:104810007F4F8F4F9F4F9923A9F0F92F96E9BB2720
:104820009395F695879577956795B795F111F8CF9C
:10483000FAF4BB0F11F460FF1BC06F5F7F4F8F4F07
:104840009F4F16C0882311F096E911C0772321F0FD
:104850009EE8872F762F05C0662371F096E8862F95
:1048600070E060E02AF09A95660F771F881FDAF7EC
:10487000880F9695879597F90895990F0008550F19
:10488000AA0BE0E8FEEF16161706E807F907C0F0D6
:1048900012161306E407F50798F0621B730B840BDE
:1048A000950B39F40A2661F0232B242B252B21F4B8
:1048B00008950A2609F4A140A6958FEF811D811D58
:1048C000089597F99F6780E870E060E008959FEF92
:1048D00080EC089500240A94161617061806090697
:1048E000089500240A941216130614060506089566
:1048F000092E0394000C11F4882352F0BB0F40F4EE
:10490000BF2B11F460FF04C06F5F7F4F8F4F9F4F2D
:10491000089557FD9058440F551F59F05F3F71F0AF
:104920004795880F97FB991F61F09F3F79F0879516
:104930000895121613061406551FF2CF4695F1DF9F
:1049400008C0161617061806991FF1CF869571052F
:10495000610508940895E894BB2766277727CB0163
:1049600097F908950E943D2408F48FEF08950E945E
:10497000CA240C9478240E946A2438F00E9471247E
:1049800020F0952311F00C9461240C9467241124D9
:104990000C94AC240E94892470F3959FC1F3950F69
:1049A00050E0551F629FF001729FBB27F00DB11DB3
:1049B000639FAA27F00DB11DAA1F649F6627B00D43
:1049C000A11D661F829F2227B00DA11D621F739F2C
:1049D000B00DA11D621F839FA00D611D221F749F3A
:1049E0003327A00D611D231F849F600D211D822F81
:1049F000762F6A2F11249F5750409AF0F1F08823A8
:104A00004AF0EE0FFF1FBB1F661F771F881F9150D4
:104A10005040A9F79E3F510580F00C9461240C94FE
:104A2000AC245F3FE4F3983ED4F386957795679581
:104A3000B795F795E7959F5FC1F7FE2B880F911DFE
:104A40009695879597F908950E943D24880B990BB8
:104A50000895DB018F939F930E94A222BF91AF9193
:104A6000A29F800D911DA39F900DB29F900D1124C8
:104A7000089597FB072E16F4009407D077FD09D010
:104A80000E94532507FC05D03EF4909581959F4FD9
:104A90000895709561957F4F0895EE0FFF1F059063
:104AA000F491E02D0994AA1BBB1B51E107C0AA1F7A
:104AB000BB1FA617B70710F0A61BB70B881F991FBF
:104AC0005A95A9F780959095BC01CD01089581E094
:104AD00090E0F8940C948B25FB01DC018D91019002
:104AE00080190110D9F3990B0895FB01DC010190A5
:104AF0000D920020E1F70895FB01DC014150504088
:104B000048F001900D920020C9F701C01D9241505C
:0A4B10005040E0F70895F894FFCF3D
:104B1A000A0000E100000000000060044214421490
:104B2A00421442144214F401017C060C00010AD713
:104B3A00A33D0000803EA470BD3E0601FFFFFFFFBB
:104B4A00FB03080415043A0220043104CB02E002F4
:104B5A0042044E045A048B03B703DB032905000001
:104B6A000000B0193D118A1AC619D1198E1AAC1A49
:104B7A00000000006912D6110112B012321210128E
:104B8A0024120000000097148314A71D75147C14C6
:104B9A007914761400000000EE1DD611A71DA61D7B
:104BAA00AA1DA51DFCFF0000EB1DA41D00C18081EC
:104BBA000000004354004D696E205468726F74748B
:104BCA006C652000536572766F206869676820708B
:104BDA006F736974696F6E004769766573206D61DA
:104BEA0078206361626C6520736C61636B00506F3F
:104BFA00736974696F6E3A20004D61782054687247
:104C0A006F74746C652000536572766F206C6F77D1
:104C1A0020706F736974696F6E00476976657320D7
:104C2A004E4F206361626C6520736C61636B005444
:104C3A0065737420536572766F2052616E676520C2
:104C4A0000280029202020202000536572766F203A
:104C5A004D6F64650052657665727365204D6F64A9
:104C6A0065004E6F726D616C204D6F6465004E6F0A
:104C7A00726D616C204D6F6465202000456E676916
:104C8A006E652043796C696E6465727320004967AA
:104C9A006E6974696F6E20436F696C204D6F64652D
:104CAA00002020202020202020202020202020201A
:104CBA00202020202020004D61782043796C696EE5
:104CCA00646572730054696D65205A6F6E65204F72
:104CDA00666673657420003A00300053746172741A
:104CEA00757020546172676574205370656564003D
:104CFA00556E6974206F66204D6561737572650023
:104D0A004D504820004B5048200054656D70747512
:104D1A00726174757265204D6F6465200043656C1D
:104D2A0073697573202020202000466172656E68C1
:104D3A00656974200043656C7369757320202020AF
:104D4A000053637265656E20526F7461746520004A
:104D5A00466C69707065642020202020004E6F72B6
:104D6A006D616C2000466C6970706564202020209B
:104D7A0000436F6E7472617374202020005365744F
:104D8A0020746F20796F7572206C696B696E670089
:104D9A00436F6E74726173743A200050726F706F51
:104DAA007274696F6E616C204761696E0044656652
:104DBA0061756C742072617465203D202E33370052
:104DCA00526174653A2000496E74656772616C209D
:104DDA004761696E0064656661756C74203D202EBA
:104DEA0032350053706565643A200044657269760D
:104DFA006174697665204761696E0044656661750C
:104E0A006C74203D202E3038003E004D696E2054CF
:104E1A0068726F74746C65004D6178205468726FA3
:104E2A0074746C65005465737420536572766F00F0
:104E3A00456E67696E652043796C696E6465727345
:104E4A000054696D65205A6F6E65204F66667365FA
:104E5A00740054656D702053656E736F72005363EE
:104E6A007265656E20466C697000436F6E7472617C
:104E7A00737400434C005454006E616E00696E6690
:104E8A00006F7666005450005346004750524D4317
:104E9A0000474E524D4300475047474100474E474F
:104EAA0047410053440053544541445950415353D8
:104EBA0000494E495449414C495A452000207761DE
:104ECA00697420666F7220475053207369676E6158
:104EDA006C200020494E495449414C495A45204DBD
:104EEA00454D202000414351554952494E472053D0
:104EFA0049474E414C002020504C454153452057CC
:104F0A00414954200024504D544B3331342C302C19
:104F1A00312C302C302C302C302C302C302C302CA6
:104F2A00302C302C302C302C302C302C302C302C97
:104F3A00302C302A3239000D0A0024504D544B329D
:104F4A0032302C3230302A324300202D002E0045D8
:0A4F5A004E544552004241434B0003
:00000001FF
