:100000000C9423010C94F7190C94D0190C94A91991
:100010000C9482190C944B010C944B010C945B19B9
:100020000C944B010C944B010C941E1A0C94901AD6
:100030000C944B010C944B010C944B010C944B0110
:100040000C944B010C942C270C944B010C944B01F9
:100050000C944B010C944B010C944B010C94911E8D
:100060000C944B010C94091D0C94E31C0C944B0153
:100070000C944B010C944B010C944B010C944B01D0
:100080000C944B010C944B010C944B010C944B01C0
:100090000C942C250C944B010C944B010C944B01AB
:1000A0000C944B010C944B010C944B01C51DC81DC5
:1000B000B71DBB1DC11DE91DE91DE91DCC1DD01DCE
:1000C000D41DDA1DDE1DE91DE41D402352235523F6
:1000D0005C23632391239823A523B223BE23BE234D
:1000E000BE23BE23BE23BE23BE23BE23BE23BE2308
:1000F000BE23BE23BE23BE23BE23BE23BE23BE23F8
:10010000BE23BE23BE23BE23BE2340234D23522342
:1001100055235C2363236A2377238423070605047E
:100120000100080A0B0C0D09080B00020202010075
:10013000090400000102020000052400100105244A
:1001400001010104240206052406000107058103BC
:1001500010004009040100020A0000000705020225
:100160004000000705830240000004030904120157
:100170000002EF0201404123368000010102030129
:1001800041726475696E6F204C4C43004172647516
:10019000696E6F204C656F6E6172646F00000000C5
:1001A00000240027002A002D003000000000002558
:1001B0000028002B002E0031000000000023002644
:1001C0000029002C002F0004040404040304050289
:1001D00002020204030202020206060606060604E2
:1001E00004020202040404080201104080401020AE
:1001F00040804080080204018040201002011080ED
:1002000010204040200000000200090F00000304FD
:1002100001000C00000000000000000000000000D1
:1002200000000000005EBCE2613FDD83C29C7E20D6
:10023000A3FD1F41009D23BE46DB65F88C11AF3244
:10024000CA57E9741F2F11241FBECFEFDAE0DEBFBB
:10025000CDBF13E0A0E0B1E0EAE6FAE602C0059007
:100260000D92AA3BB107D9F727E0AAEBB3E001C092
:100270001D92A532B207E1F711E0C3E2D1E004C05C
:100280002197FE010E94F534C232D107C9F70E94BE
:10029000012A0C9433350C9400002F923F924F9218
:1002A0005F926F927F928F929F92AF92BF92CF9206
:1002B000DF92EF92FF920F931F93CF93DF931092F1
:1002C000D0031092CF031092CE031092CD03109260
:1002D000CC031092CB031092CA031092C903109260
:1002E000C8031092C7031092C6031092C503109260
:1002F000C4031092C3031092C20381E090E0909374
:100300000401809303018AE00E94D31FC1E003E04F
:1003100010E0CC24CA94DC2C7EE9A72E77E0B72E1F
:10032000E6EB6E2EE3E07E2EFAE0EF2EF12CC0938A
:10033000020160E070E080E090E00E94BF1F8091C9
:10034000030190910401019721F48EE991E00E944C
:100350005C2981EA91E00E945C2964E170E080E020
:1003600090E00E944B1E61E070E080E090E00E940F
:10037000BF1F8091030190910401029721F48EE93F
:1003800091E00E945C298AEA91E00E945C2964E184
:1003900070E080E090E00E944B1E62E070E080E040
:1003A00090E00E94BF1F8091030190910401039788
:1003B00021F48EE991E00E945C2982EB91E00E9499
:1003C0005C2964E170E080E090E00E944B1E0E9496
:1003D000F30D82309105F1F02CF48130910559F044
:1003E0000C94D00C8430910549F1089711F40C94C9
:1003F000540C0C94D00C2091030130910401215035
:1004000031091216130674F430930401209303018A
:100410000C94D00C809103019091040101968430DA
:10042000910534F490930401809303010C94D00C53
:1004300010930401009303010C94D00C80910301EC
:1004400090910401019709F456C1809103019091A4
:100450000401029709F0BBC5F1C480EC91E00E9451
:100460005C298091D003882321F08AEC91E00E94DE
:100470005C2960912F017091300180913101909140
:1004800032010E94DB1E8091D003882321F08CEC86
:1004900091E00E945C2987E292E00E945C2969E178
:1004A00070E080E090E00E944B1E61E070E080E030
:1004B00090E00E94BF1F8091030190910401029778
:1004C00021F48EE991E00E945C298EEC91E00E947B
:1004D0005C298091CF03882321F08AEC91E00E946F
:1004E0005C2960912B0170912C0180912D019091DC
:1004F0002E010E94DB1E8091CF03882321F08CEC1B
:1005000091E00E945C2987E292E00E945C2969E107
:1005100070E080E090E00E944B1E62E070E080E0BE
:1005200090E00E94BF1F8091030190910401039706
:1005300021F48EE991E00E945C2988ED91E00E940F
:100540005C298091CE03882321F08AEC91E00E94FF
:100550005C29609127017091280180912901909177
:100560002A010E94DB1E8091CE03882321F08CECAF
:1005700091E00E945C2987E292E00E945C2969E197
:1005800070E080E090E00E944B1E64E070E080E04C
:1005900090E00E94BF1F8091030190910401049795
:1005A00021F48EE991E00E945C2982EE91E00E94A4
:1005B0005C298091CD03882321F08AEC91E00E9490
:1005C0005C2960913F0170914001809141019091BF
:1005D00042010E94DB1E8091CD03882321F08CEC28
:1005E00091E00E945C2987E292E00E945C2969E127
:1005F00070E080E090E00E944B1E65E070E080E0DB
:1006000090E00E94BF1F8091030190910401059723
:1006100021F48EE991E00E945C298BEE91E00E942A
:100620005C298091CC03882321F08AEC91E00E9420
:100630005C2960913B0170913C0180913D0190915A
:100640003E010E94DB1E8091CC03882321F08CECBC
:1006500091E00E945C2987E292E00E945C2969E1B6
:1006600070E080E090E00E944B1E66E070E080E069
:1006700090E00E94BF1F80910301909104010697B2
:1006800021F48EE991E00E945C2984EF91E00E94C0
:100690005C298091CB03882321F08AEC91E00E94B1
:1006A0005C296091370170913801809139019091F6
:1006B0003A010E94DB1E8091CB03882321F08CEC51
:1006C00091E00E945C2987E292E00E945C2969E146
:1006D00070E080E090E00E944B1E0E94F30D82309B
:1006E000910509F45EC1E4F4019719F180910201CA
:1006F000882309F4AACE8AE00E94D31F60E070E04C
:1007000080E090E00E94BF1F80910301909104015E
:10071000019709F0A2CE8EE991E00E945C299DCE5E
:100720008430910509F450C3089701F70E944D01E8
:10073000DDCF8091D003882371F120E030E048ECD8
:1007400052E460912F0170913001809131019091BC
:1007500032010E9453341B012C0120E030E048ECB0
:1007600052E40E944E3487FD0DC080E090E0A8EC7A
:10077000B2E480932F0190933001A0933101B093A4
:10078000320144C120E030E040E85FE3C201B10142
:100790000E94833233C18091CF03882371F120E01E
:1007A00030E048EC52E460912B0170912C01809173
:1007B0002D0190912E010E9453341B012C0120E049
:1007C00030E048EC52E40E944E3487FD0DC080E0DA
:1007D00090E0A8ECB2E480932B0190932C01A093BD
:1007E0002D01B0932E0168C120E030E040E85FE3C6
:1007F000C201B1010E94833257C18091CE03882388
:1008000071F120E030E048EC52E4609127017091F2
:1008100028018091290190912A010E9453341B01E3
:100820002C0120E030E048EC52E40E944E3487FD79
:100830000DC080E090E0A8ECB2E480932701909393
:100840002801A0932901B0932A018CC120E030E057
:1008500040E85FE3C201B1010E9483327BC1809115
:10086000CD03882371F120E030E048EC52E4609140
:100870003F017091400180914101909142010E949D
:1008800053341B012C0120E030E048EC52E40E947C
:100890004E3487FD0DC080E090E0A8ECB2E4809378
:1008A0003F0190934001A0934101B0934201B0C138
:1008B00020E030E040E85FE3C201B1010E948332F2
:1008C0009FC18091CC03882371F120E030E048EC97
:1008D00052E460913B0170913C0180913D01909107
:1008E0003E010E9453341B012C0120E030E048EC13
:1008F00052E40E944E3487FD0DC080E090E0A8ECE9
:10090000B2E480933B0190933C01A0933D01B093EE
:100910003E01D4C120E030E040E85FE3C201B10114
:100920000E948332C3C18091CB03882371F120E000
:1009300030E048EC52E460913701709138018091C9
:10094000390190913A010E9453341B012C0120E09F
:1009500030E048EC52E40E944E3487FD0DC080E048
:1009600090E0A8ECB2E48093370190933801A09313
:100970003901B0933A01F8C120E030E040E85FE38C
:10098000C201B1010E948332E7C1809103019091BD
:1009900004010197181619060CF411C281E090E0C9
:1009A0000EC28091D003882309F451C020E030E0CA
:1009B00048EC52E460912F01709130018091310137
:1009C000909132010E9453341B012C0120E030E051
:1009D000A9010E94EF3218164CF010922F011092CC
:1009E0003001109231011092320110C020E030E04D
:1009F00040E85FE3C201B1010E94823260932F019F
:100A000070933001809331019093320120902F0137
:100A1000309030014090310150903201C201B1015B
:100A20000E94663370931B0460931A0420E030E048
:100A300048EC52E4C201B1010E94F43260932F01EC
:100A40007093300180933101909332014FCE8091A9
:100A5000CF03882309F451C020E030E048EC52E491
:100A600060912B0170912C0180912D0190912E01AC
:100A70000E9453341B012C0120E030E0A9010E94A8
:100A8000EF3218164CF010922B0110922C0110929C
:100A90002D0110922E0110C020E030E040E85FE30D
:100AA000C201B1010E94823260932B0170932C012C
:100AB00080932D0190932E0120902B0130902C01DA
:100AC00040902D0150902E01C201B1010E94663369
:100AD000709319046093180420E030E048EC52E46D
:100AE000C201B1010E94F43260932B0170932C017A
:100AF00080932D0190932E01F9CD8091CE03882310
:100B000009F451C020E030E048EC52E46091270144
:100B1000709128018091290190912A010E945334FB
:100B20001B012C0120E030E0A9010E94EF321816D1
:100B30004CF0109227011092280110922901109276
:100B40002A0110C020E030E040E85FE3C201B101BB
:100B50000E948232609327017093280180932901BB
:100B600090932A012090270130902801409029017C
:100B700050902A01C201B1010E946633709317049C
:100B80006093160420E030E048EC52E4C201B10169
:100B90000E94F43260932701709328018093290109
:100BA00090932A01A3CD8091CD03882309F451C0ED
:100BB00020E030E048EC52E460913F017091400148
:100BC00080914101909142010E9453341B012C01FC
:100BD00020E030E0A9010E94EF3218164CF010928C
:100BE0003F0110924001109241011092420110C049
:100BF00020E030E040E85FE3C201B1010E948232B0
:100C000060933F01709340018093410190934201B2
:100C100020903F01309040014090410150904201AE
:100C2000C201B1010E9466337093150460931404ED
:100C300020E030E048EC52E4C201B1010E94F432FD
:100C400060933F0170934001809341019093420172
:100C50004DCD8091CC03882309F451C020E030E0D1
:100C600048EC52E460913B0170913C0180913D0160
:100C700090913E010E9453341B012C0120E030E092
:100C8000A9010E94EF3218164CF010923B0110920D
:100C90003C0110923D0110923E0110C020E030E076
:100CA00040E85FE3C201B1010E94823260933B01E0
:100CB00070933C0180933D0190933E0120903B0155
:100CC00030903C0140903D0150903E01C201B10185
:100CD0000E946633709313046093120420E030E0A6
:100CE00048EC52E4C201B1010E94F43260933B012E
:100CF00070933C0180933D0190933E01F7CC80912D
:100D0000CB03882309F451C020E030E048EC52E4E2
:100D100060913701709138018091390190913A01C9
:100D20000E9453341B012C0120E030E0A9010E94F5
:100D3000EF3218164CF010923701109238011092D1
:100D4000390110923A0110C020E030E040E85FE342
:100D5000C201B1010E948232609337017093380161
:100D60008093390190933A012090370130903801F7
:100D70004090390150903A01C201B1010E9466339E
:100D8000709311046093100420E030E048EC52E4CA
:100D9000C201B1010E94F4326093370170933801AF
:100DA0008093390190933A01A1CC809103019091F5
:100DB000040101968730910514F086E090E090934D
:100DC00004018093030192CC80910301909104016E
:100DD0008130910531F42091D0032C272093D0034A
:100DE00024C08230910531F42091CF032C27209329
:100DF000CF031BC08330910531F48091CE038C2743
:100E00008093CE0373CC8430910531F48091CD036F
:100E10008C278093CD036ACC8530910531F4809185
:100E2000CC038C278093CC0361CC069709F05ECC71
:100E30008091CB038C278093CB0358CC81E090E04A
:100E400090930401809303018AE00E94D31F60E025
:100E500070E080E090E00E94BF1F809103019091BC
:100E60000401019721F48EE991E00E945C298DEF45
:100E700091E00E945C298091C903882321F08AECCB
:100E800091E00E945C2980913501909136010E9489
:100E9000D6298091C903882321F08CEC91E00E942F
:100EA0005C2987E292E00E945C2961E070E080E0CA
:100EB00090E00E94BF1F809103019091040102976E
:100EC00021F48EE991E00E945C2988E092E00E9482
:100ED0005C298091CA03882321F08AEC91E00E946A
:100EE0005C2980912101909122010E94D629809154
:100EF000CA03882321F08CEC91E00E945C2987E2F0
:100F000092E00E945C2962E070E080E090E00E9444
:100F1000BF1F8091030190910401039721F48EE992
:100F200091E00E945C2983E192E00E945C2980911B
:100F3000C203882321F08AEC91E00E945C29809111
:100F4000C203882309F4B3C089E192E00E945C29BE
:100F50008091C203882321F08CEC91E00E945C29EF
:100F600085E292E00E945C2965E070E080E090E01C
:100F70000E94BF1F8AE292E00E945C298091B50521
:100F80009091B6050E94D62987E292E00E945C29E2
:100F90008091B5059091B6050E94DF1F64E670E070
:100FA00080E090E00E944B1E0E94F30D843091057A
:100FB00009F40FC10CF07EC08130910509F482C0A4
:100FC000029709F4B9C08091020181113DCF80914F
:100FD000030190910401039709F0E2C481E090E0DD
:100FE000909304018093030183EA94E00E945117D7
:100FF0000E94882110922D0640902E0650902F06B8
:101000006090300670903106C301B20120E432E4F2
:101010004FE050E00E9451328091230190912401D1
:10102000820F911D0C979093BF038093BE03C30161
:10103000B20120E137E240E050E00E94513284E604
:10104000C82ED12CE12CF12CCA01B901A7019601BF
:101050000E9451327093BD036093BC03C301B2017F
:10106000A70196010E945132CA01B901A701960158
:101070000E9451327093BB036093BA030AE010E000
:1010800096E0892E912C20E4422E22E4522E2FE06D
:10109000622E712CC1E038E2232E312C48E1E42E7F
:1010A000F12CD8E058E8C52E53E1D52E83C281E259
:1010B00092E04CCF8830910509F4AAC0409709F41A
:1010C000AAC081CF2091CA03222379F08091210107
:1010D000909122018E3927E092072CF0B0922201E4
:1010E000A092210144C00A963EC02091C903222348
:1010F000A1F080913501909136012091210130912C
:101100002201821793073CF02A50310930933601AF
:101110002093350147C00A9641C0209103013091C8
:10112000040121503109121613060CF048C0309307
:1011300004012093030147CF8091CA038823E1F083
:101140008091210190912201209135013091360149
:10115000281739073CF0265F3F4F30932201209338
:10116000210105C00A97909322018093210180916B
:101170002101909122017CC08091C9038823B9F09C
:101180008091350190913601873B23E092072CF442
:10119000709236016092350105C00A97909336012E
:1011A00080933501809135019091360161C0809125
:1011B0000301909104010196843091052CF49093E1
:1011C000040180930301FFCE1093040100930301F7
:1011D000FACE80910301909104018130910531F4A0
:1011E0008091C9038C278093C903EDCE823091058D
:1011F00031F48091CA038C278093CA03E4CE03970D
:1012000009F0E1CE8091C2038C278093C203DBCE2C
:101210000E944D01D8CE8091C203882309F4D3CE19
:101220008091B5059091B605209135013091360138
:101230002817390734F021E030E030930101209382
:10124000000120912101309122018217930724F09F
:10125000D0920101C0920001409100015091010122
:101260006AE0649F9001659F300D1124820F931FE7
:101270009093B6058093B505A6CE8BE392E00E94CD
:101280005C298091C803882321F08AEC91E00E94B8
:101290005C298091250160913301709134018111A5
:1012A0000EC0072E000C880B990B0E949E332BE773
:1012B00034E14EEC5FE30E9453340E946633CB016D
:1012C000B8010E94E1347093BF056093BE05809120
:1012D000BE059091BF05B8010E94E1347093BD0531
:1012E0006093BC059093BB058093BA05860F971F4A
:1012F00097FF75C180EB92E00E945C298091BC054C
:101300009091BD0597FF07C09195819591099093A4
:10131000BD058093BC058091BC059091BD050E94E0
:10132000D62985E492E00E945C298091BA059091CB
:10133000BB0597FF07C09195819591099093BB05D7
:101340008093BA058091BA059091BB050E94D62979
:1013500080912501882309F44BC187E492E00E9423
:101360005C298091C803882321F08CEC91E00E94D5
:101370005C2987E292E00E945C2964E170E080E0F1
:1013800090E00E944B1E61E070E080E090E00E94DF
:10139000BF1F8091030190910401029721F48EE90F
:1013A00091E00E945C2981E592E00E945C29809195
:1013B000C603882321F08AEC91E00E945C29809189
:1013C00026010E94C3298091C603882321F08CEC5A
:1013D00091E00E945C2987E292E00E945C2964E12E
:1013E00070E080E090E00E944B1E62E070E080E0E0
:1013F00090E00E94BF1F8091030190910401039728
:1014000021F48EE991E00E945C298DE592E00E9432
:101410005C298091C503882321F08AEC91E00E9429
:101420005C2980912301909124010C970E94D62978
:101430008091C503882321F08CEC91E00E945C2907
:1014400086E292E00E945C2964E170E080E090E036
:101450000E944B1E63E070E080E090E00E94BF1F9E
:101460008091030190910401049721F48EE991E0A9
:101470000E945C298BE692E00E945C298091C30364
:10148000882321F08AEC91E00E945C29809125015B
:10149000882309F4B0C087E792E00E945C2980911C
:1014A000C303882321F08CEC91E00E945C2987E241
:1014B00092E00E945C2964E170E080E090E00E948C
:1014C0004B1E64E070E080E090E00E94BF1F8091BE
:1014D000030190910401059721F48EE991E00E94A7
:1014E0005C298FE792E00E945C298091C4038823E5
:1014F00021F08AEC91E00E945C29809120018823F0
:1015000009F47CC083E893E00E945C298091C403C5
:10151000882321F08CEC91E00E945C2987E292E024
:101520000E945C2964E170E080E090E00E944B1E24
:1015300065E070E080E090E00E94BF1F80910301B1
:1015400090910401069721F48EE991E00E945C29B4
:101550008AE892E00E945C298091C703882321F0E9
:101560008AEC91E00E945C2980911C0490911D04FA
:101570000E94D6298091C703882321F08CEC91E04A
:101580000E945C2987E292E00E945C2964E170E09D
:1015900080E090E00E944B1E0E94F30D8230910586
:1015A00009F4A9C074F50197A9F18091020188237B
:1015B00009F4FBC18AE00E94D31F60E070E080E084
:1015C00090E00E94BF1F8091030190910401019758
:1015D00009F053CE8EE991E00E945C294ECE6A302C
:1015E00071051CF488E292E087CE84E793E084CE14
:1015F0008CE492E0B4CE8BE792E04FCF8CE993E09D
:1016000083CF8430910509F415C1089771F60E94C3
:101610004D01CBCF8091C803882379F080913301AD
:1016200090913401883823E192072CF0D092340154
:10163000C0923301BACF0A966CC08091C60388234A
:1016400079F080912601813011F484E003C0883064
:1016500020F48E5F80932601A8CFD0932601A5CFDA
:101660008091C503882391F08091230190912401FA
:101670008831910534F401969093240180932301DD
:1016800094CFF0922401E09223018FCF8091C30385
:10169000882331F0809125018C278093250185CF07
:1016A0008091C403882331F0809120018C2780939E
:1016B00020017BCF8091C703882371F080911C04A7
:1016C00090911D04883291052CF030921D042092D7
:1016D0001C0495C001968FC0809103019091040174
:1016E00001971816190614F081E090E09093040118
:1016F000809303015ACF8091C803882389F0809199
:10170000330190913401853F21E092073CF484EF4E
:1017100091E0909334018093330147CF0A97F9CF3A
:101720008091C603882349F080912601853010F00E
:10173000825090CFC093260138CF8091C503882373
:1017400009F442C0809123019091240118161906D2
:1017500034F40197909324018093230104C01092E4
:1017600024011092230110922D0660912E06709193
:101770002F068091300690913106A30192010E94BC
:1017800051328091230190912401820F911D9C017F
:101790002C50310937FD05C03093BF032093BE03A1
:1017A00005C00C969093BF038093BE038091BE0347
:1017B0009091BF03893191050CF4F7CE489790932F
:1017C000BF038093BE03F1CE8091C303811162CF2A
:1017D0008091C403811168CF8091C7038823E1F011
:1017E00080911C0490911D04853191051CF484E1C5
:1017F00090E001C0019790931D0480931C04A09079
:101800001C04B0901D0484E992E00E944A29C5019D
:1018100099270E94AA1FC9CE8091030190910401CB
:101820000196873091050CF461CF9092040180926B
:101830000301BBCE80910301909104018130910599
:1018400031F42091C8032C272093C80324C0823090
:10185000910531F42091C6032C272093C6031BC0A9
:101860008330910531F48091C5038C278093C503A3
:101870009CCE8430910531F48091C3038C278093F2
:10188000C30393CE8530910531F48091C4038C2736
:101890008093C4038ACE069709F087CE8091C70350
:1018A0008C278093C70381CE109202011092C1034E
:1018B0000E94640E60911A0470911B048CE090E009
:1018C0000E94142960911804709119048EE090E030
:1018D0000E941429609116047091170480E190E031
:1018E0000E941429609114047091150482E390E021
:1018F0000E941429609112047091130484E390E013
:101900000E941429609110047091110486E390E004
:101910000E941429609126018BE090E00E94FC282F
:1019200080912501882311F061E001C060E082E12F
:1019300090E00E94FC286091230183E190E00E94E6
:10194000FC288091210190912201B7010E94E1348D
:1019500084E190E00E94FC2880913501909136014D
:10196000B7010E94E13485E190E00E94FC2880915B
:101970002001882311F061E001C060E08DE190E07A
:101980000E94FC2860913301709134018EE190E057
:101990000E94142960911C0481E290E00E94FC28BE
:1019A0008091020181110C949701DF91CF911F91D9
:1019B0000F91FF90EF90DF90CF90BF90AF909F90EE
:1019C0008F907F906F905F904F903F902F900895F1
:1019D000089580E090E0089582E00E9478240197C5
:1019E00079F481E0809301048091030490910404D0
:1019F000A0910504B09106040197A109B1090DC099
:101A0000109201048091030490910404A0910504B4
:101A1000B09106040196A11DB11D8093030490931B
:101A20000404A0930504B093060481E080930704A6
:101A300008958F929F92AF92BF92CF92DF92EF92D2
:101A4000FF920F931F930E94261E0091FD03109199
:101A5000FE032091FF0330910004C090F903D09061
:101A6000FA03E090FB03F090FC0346015701801A53
:101A7000910AA20AB30A95018401060F171F281FB5
:101A8000391F0093F9031093FA032093FB0330935B
:101A9000FC036093FD037093FE038093FF03909318
:101AA00000048091F5039091F603A091F703B091A3
:101AB000F8030196A11DB11D8093F5039093F603E1
:101AC000A093F703B093F8031F910F91FF90EF904D
:101AD000DF90CF90BF90AF909F908F900895FF922E
:101AE0000F931F93CF93DF93EC0161E089890E94EC
:101AF000A12461E089890E94A1248A890E94782416
:101B0000892BD9F360E089890E94A12460E089894A
:101B10000E94A12460E089890E94A12498E0F92E06
:101B200000E010E0000F111F61E08F850E94A124EA
:101B30008A890E947824892B09F0016060E08F85F2
:101B40000E94A124FA94F110EDCF61E089890E94EE
:101B5000A124C801DF91CF911F910F91FF900895AB
:101B600004970C946F0DCF92DF92EF92FF920F9338
:101B70001F93CF93DF93EC01E62E60E089890E94EA
:101B8000A12460E089890E94A12460E089890E94E3
:101B9000A124DF84C88807E010E0F12CB701002EF3
:101BA00002C0759567950A94E2F761708C2D0E94CA
:101BB000A12461E08D2D0E94A12460E08D2D0E9462
:101BC000A1240150110950F761E089890E94A124E4
:101BD00081E090E0DF91CF911F910F91FF90EF9006
:101BE000DF90CF900895CF9380910704882391F1DF
:101BF0008091030490910404A0910504B09106041F
:101C0000181619061A061B0664F4109203041092A3
:101C1000040410920504109206041092070481E057
:101C200050C08091030490910404A0910504B091E8
:101C30000604B7FF0CC01092030410920404109223
:101C40000504109206041092070482E03AC0109234
:101C5000070436C084E00E947824C0910204892BD6
:101C6000E9F4CF5FC093020468EC70E080E090E09C
:101C70000E944B1EC83018F1109202040E9458298D
:101C800084E10E94D31F60E070E080E090E00E9459
:101C9000BF1F87E992E00E945C2908C0CC2381F035
:101CA000109202040E94582984E00BC084E00E9434
:101CB0007824892BD9F30E94582988E002C002C0F9
:101CC00080E190E0CF9108953F924F925F926F92A2
:101CD0007F928F929F92AF92BF92CF92DF92EF92BC
:101CE000FF920F931F93CF93DF93CDB7DEB72E975D
:101CF0000FB6F894DEBF0FBECDBF83EA94E00E941A
:101D00007317892B39F083EA94E00E9451170E94DF
:101D10008821F3CF80913B06882379F380910901D4
:101D20008823A1F00E94582964E670E080E090E0EA
:101D30000E944B1E00911C0410911D0484E992E046
:101D40000E944A29C80199270E94AA1F80913A0639
:101D50008823E1F110923B066091400670914106A4
:101D600080914206909143060E949E332EEB3CE404
:101D700043E95FE30E94533420E030E048EC52E452
:101D80000E94F43220E030E048EC52E40E945334E8
:101D90000E94663370931F0460931E0410924906DC
:101DA00060914E0670914F068091500690915106B9
:101DB0000E949E3320E030E048EC52E40E94F4326E
:101DC0000E9466337093F4036093F3030E94851EB0
:101DD0000091EF031091F0032091F1033091F20391
:101DE000061717072807390708F0AAC00E94851EA2
:101DF000DC01CB0188579C4EAF4FBF4F8093EF0360
:101E00009093F003A093F103B093F20381E08093E9
:101E1000D1030CE111E08091D1038330D8F5F801B2
:101E2000849190917B0083FBFF27F0F9F9831A825C
:101E300029813A8145E0220F331F4A95E1F79F7DC2
:101E4000292B20937B008770806480937C00809195
:101E50007A00806480937A0080917A0086FDFCCFBE
:101E6000609178008091790070E0782B072E000C4B
:101E7000880B990B0E949E336093D6037093D7030F
:101E80008093D8039093D9038091D1038F5F80937F
:101E9000D103C1CF2DEC3CEC4CE052E46091D60371
:101EA0007091D7038091D8039091D9030E94F432A6
:101EB0006093D6037093D7038093D8039093D9038C
:101EC00080EC95E00E943B1D80EC95E00E9418207C
:101ED0000E946D336093D403613819F41092D403D7
:101EE0000FC08091200181110BC029E0629FC001C9
:101EF000112465E070E00E94E134605E6093D403D9
:101F000084ED95E00E943B1D84ED95E00E94182031
:101F10000E946D336093D503613819F41092D50394
:101F20000FC08091200181110BC0A9E06A9FC00100
:101F3000112465E070E00E94E134605E6093D50397
:101F40000E94851E0091EB031091EC032091ED039C
:101F50003091EE03061717072807390708F066C007
:101F60000E94851EDC01CB0188519C4FAF4FBF4FB3
:101F70008093EB039093EC03A093ED03B093EE03F7
:101F80008091F3039091F4039C01275131092D3284
:101F9000310530F42EE42093E30325E42093E40399
:101FA0009C01245431092D32310530F425E420936D
:101FB000E30320E22093E4039C01215731092D32F1
:101FC000310530F423E52093E30325E42093E40373
:101FD0009C012E5931092D32310530F423E520932F
:101FE000E30320E22093E4039C012B5C31092D32B2
:101FF000310530F423E52093E30327E52093E40340
:102000009C01285F31092D32310530F427E52093FA
:10201000E30320E22093E403855291408D9730F44E
:102020008EE48093E30387E58093E4038091E103EA
:10203000811109C080913501909136019093B605C8
:102040008093B505E4C22091B1063091B20640916B
:10205000B3065091B4066091A9067091AA068091CA
:10206000AB069091AC060E9482326B017C0120E0AD
:1020700030E04AEF53E40E944E3487FD3CC080912B
:10208000DA0381117DC081E08093DA0380913F0102
:1020900090914001A0914101B09142018093F906D5
:1020A0009093FA06A093FB06B093FC0680913B0147
:1020B00090913C01A0913D01B0913E018093F506C5
:1020C0009093F606A093F706B093F8068091370137
:1020D00090913801A0913901B0913A018093F106B5
:1020E0009093F206A093F306B093F4061092D303F4
:1020F0001092D20345C020E030E0A901C701B6012B
:102100000E94EF321816E4F18091DA038823C1F1BE
:102110001092DA0380912F0190913001A09131014A
:10212000B09132018093F9069093FA06A093FB06D2
:10213000B093FC0680912B0190912C01A0912D0170
:10214000B0912E018093F5069093F606A093F706C2
:10215000B093F8068091270190912801A091290160
:10216000B0912A018093F1069093F206A093F306B2
:10217000B093F40681E090E09093D3038093D20370
:102180004090F9065090FA066090FB067090FC06AD
:1021900020E030E0A901C301B2010E94EF3287FDC7
:1021A000BAC08090F5069090F606A090F706B09021
:1021B000F80620E030E0A901C501B4010E94EF3229
:1021C00087FDA9C0C090F106D090F206E090F3061A
:1021D000F090F40620E030E0A901C701B6010E94AA
:1021E000EF3287FD98C02091D2033091D303309312
:1021F000D0062093CF0681E02130310509F080E040
:102200008093F0064092B5065092B6066092B706EB
:102210007092B8068092B9069092BA06A092BB0658
:10222000B092BC06C092BD06D092BE06E092BF0638
:10223000F092C0066091E3067091E4068091E50695
:102240009091E6060E949C3320E030E04AE754E497
:102250000E94F43269837A838B839C834092C10607
:102260005092C2066092C3067092C4069B01AC01F4
:10227000C501B4010E9453344B015C016093C50653
:102280007093C6068093C7069093C80629813A8149
:102290004B815C81C701B6010E94F4326B017C0165
:1022A0006093C9067093CA068093CB069093CC06C0
:1022B0008091CD069091CE06019769F5A301920118
:1022C00060E070E0CB010E9482326093C10670939F
:1022D000C2068093C3069093C406A501940160E0F2
:1022E00070E0CB010E9482326093C5067093C606EF
:1022F0008093C7069093C806A701960160E070E03E
:10230000CB010E9482326093C9067093CA06809303
:10231000CB069093CC0660911E0470911F04072E8B
:10232000000C880B990B0E949E336093B10670934A
:10233000B2068093B3069093B40660913301709116
:102340003401072E000C880B990B0E949E3360937A
:10235000A9067093AA068093AB069093AC06809171
:10236000EF06882309F445C10E94851E6D837E8394
:102370008F8398878091D7069091D806A091D9062F
:10238000B091DA064D815E816F817885481B590BCB
:102390006A0B7B0B8091E3069091E406A091E50621
:1023A000B091E606481759076A077B0708F421C170
:1023B000E091D106F091D20680819181A281B38112
:1023C00089839A83AB83BC83E091D506F091D606CE
:1023D0009C01AD0160817181828193810E94823272
:1023E0004B015C012091DF063091E0064091E1064F
:1023F0005091E20669817A818B819C810E948232B0
:102400006B017C012091C5063091C6064091C7063C
:102410005091C806C501B4010E9453342091DB06D7
:102420003091DC064091DD065091DE060E94833239
:102430002B013C016093DB067093DC068093DD0684
:102440009093DE063090F00631101AC02091C1063C
:102450003091C2064091C3065091C406C701B6012F
:102460000E9453349B01AC01C301B2010E9482322D
:102470006093DB067093DC068093DD069093DE06A6
:102480004090DB065090DC066090DD067090DE0622
:102490001091EB069091EC069E87A091ED06AD871A
:1024A0000091EE06212F392F4A2F502FC301B20180
:1024B0000E944E3418162CF4812F9E85AD85B02FC6
:1024C00018C08091E7069091E806A091E906B091C6
:1024D000EA0689879A87AB87BC879C01AD01C30157
:1024E000B2010E94EF3287FF0CC089859A85AB85C7
:1024F000BC858093DB069093DC06A093DD06B09349
:10250000DE06332079F02091C1063091C206409159
:10251000C3065091C406C501B4010E9453344B0157
:102520005C0103C0812C912C54012091C90630918B
:10253000CA064091CB065091CC06C701B6010E9455
:1025400053349B01AC016091DB067091DC068091F5
:10255000DD069091DE060E948232A50194010E9460
:1025600083326B017C019B01AC01612F7E858D85DF
:10257000902F0E94EF3287FD18C01091E7069091CE
:10258000E8069E87A091E906AD870091EA06212F13
:10259000392F4A2F502FB601C7010E94EF3287FD15
:1025A00004C01C2DDE86ED860F2DE091D306F09140
:1025B000D406812F9E85AD85B02F80839183A28321
:1025C000B38389819A81AB81BC818093DF0690932C
:1025D000E006A093E106B093E2068D819E81AF8173
:1025E000B8858093D7069093D806A093D906B09368
:1025F000DA066091AD067091AE068091AF069091BB
:10260000B0060E9466337093B6056093B50580915D
:10261000B5059091B6050E94DF1F8091330190911E
:1026200034012AE030E0B9010E94E1347093BF0523
:102630006093BE0580911E0490911F04B9010E9411
:10264000E1347093E0036093DF03809125018111F1
:1026500012C0072E000C880B990B0E949E332BE7AB
:1026600034E14EEC5FE30E9453340E946633709372
:10267000E0036093DF0310922D06C0902E06D090E9
:102680002F06E0903006F0903106C701B60120E435
:1026900032E44FE050E00E9451328091230190914A
:1026A0002401820F911D9C012C50310937FD05C07A
:1026B0003093BF032093BE0305C00C969093BF03D5
:1026C0008093BE038091BE039091BF038931910531
:1026D0002CF048979093BF038093BE03C701B601C7
:1026E00020E137E240E050E00E94513284E6882E3B
:1026F000912CA12CB12CCA01B901A50194010E9411
:1027000051327093BD036093BC03C701B601A501AC
:1027100094010E945132CA01B901A50194010E949D
:1027200051327093BB036093BA030E94851E0091DF
:10273000DB031091DC032091DD033091DE030617EB
:1027400017072807390708F047C00E94851EDC01DB
:10275000CB018C509E4FAF4FBF4F8093DB039093C4
:10276000DC03A093DD03B093DE03A0912101B091BF
:102770002201BA83A9838091B5059091B605BD0168
:10278000681B790B072E000C880B990B0E949E3357
:102790006B017C01809135019091360169817A81CC
:1027A000681B790B072E000C880B990B0E949E3337
:1027B0009B01AC01C701B6010E94F43220E030E079
:1027C00048EC52E40E945334609305017093060173
:1027D0008093070190930801809125016091330156
:1027E0007091340181110EC0072E000C880B990BDB
:1027F0000E949E332BE734E14EEC5FE30E9453349A
:102800000E946633CB016AE070E00E94E13470936D
:10281000BF056093BE058091BE059091BF056AE03B
:1028200070E00E94E1348B019A8389837093BD0527
:102830006093BC059093BB058093BA058AE00E9423
:10284000D31F61E070E080E090E00E94BF1F8091A4
:10285000BE039091BF030E94D6298BEF91E00E94A6
:102860005C298091BC039091BD030A9724F48CE904
:1028700092E00E945C298091BC039091BD030E946C
:10288000D6298BEF91E00E945C298091BA03909148
:10289000BB030A9724F48CE992E00E945C298091A2
:1028A000BA039091BB030E94D62987E292E00E946E
:1028B0005C298AE00E94D31F63E070E082E190E02F
:1028C0000E94BF1F6EEF82E00E94961F8EE992E089
:1028D0000E945C2964E070E082E190E00E94BF1FEA
:1028E0006DEF82E00E94961F80912501882319F0E8
:1028F00087E792E002C08BE792E00E945C2960E0EB
:1029000070E080E090E00E94BF1F88EE91E00E949E
:102910005C296091050170910601809107019091F9
:1029200008010E946633CB010E94D62984E793E018
:102930000E945C298091DA03882319F08CE093E0EF
:1029400002C082EA92E00E945C2982E10E94D31FC9
:1029500060E070E086E090E00E94BF1F8091E1039C
:10296000811104C086EA92E00E945C298091E10313
:10297000813009F04BC0E981FA81E00FF11FF7FFC8
:1029800003C08FEA92E00BC08091BC059091BD0519
:102990000A971CF487E292E002C088E292E00E946B
:1029A0005C298091BC059091BD0597FF07C091956A
:1029B000819591099093BD058093BC058091BC05DC
:1029C0009091BD050E94D62985E492E00E945C2981
:1029D0008091BA059091BB0597FF07C091958195AD
:1029E00091099093BB058093BA058091BA059091A7
:1029F000BB050E94D62980912501882319F087E420
:102A000092E002C08CE492E00E945C298AE00E947D
:102A1000D31F62E070E080E090E00E94BF1F82EB75
:102A200092E00E945C296091D6037091D703809157
:102A3000D8039091D9030E94DB1E87E292E00E94A6
:102A40005C298AE00E94D31F63E070E080E090E0A0
:102A50000E94BF1F85EB92E00E945C298091E303F6
:102A60000E946F298091E4030E946F2964E070E066
:102A700080E090E00E94BF1F8AEB92E00E945C29F8
:102A80008091D5030E94C32980912001882319F0E9
:102A90008FEB92E002C08BEA92E00E945C2965E035
:102AA00070E080E090E00E94BF1F83EC92E00E9403
:102AB0005C298091D4030E94C3298091200188233E
:102AC00019F08FEB92E002C08BEA92E00E945C2941
:102AD00066E070E080E090E00E94BF1F88EC92E02A
:102AE0000E945C298090F9039090FA03A090FB0368
:102AF000B090FC036091F5037091F6038091F703A9
:102B00009091F8031092F9031092FA031092FB03CC
:102B10001092FC031092F5031092F6031092F70343
:102B20001092F8030E949C3320E03BE147EB5AE40B
:102B30000E9453346B017C01C501B4010E949C3397
:102B40009B01AC01C701B6010E94F4326B017C010C
:102B50006091260170E080E090E00E949E339B012E
:102B6000AC01C701B6010E94F4320E9466339B019A
:102B7000AC01AAE0B0E00E943E32CB010E94D6290F
:102B800085E292E00E945C298BEC0E94D31F60E0FA
:102B900070E080E090E00E94BF1F66E18EE20E943C
:102BA000961F0091DF031091E003043611051CF419
:102BB00080E30E946F29C8016AE070E00E94E1345E
:102BC000CB010E94D62989EC0E94D31F60E070E0FF
:102BD00080E090E00E94BF1F6BE28FE60E94961F8C
:102BE0008091DF039091E0036AE070E00E94E1349D
:102BF0000E94D62980910704882321F18091E10366
:102C00008130B1F420910304309104044091050413
:102C100050910604AAE0B0E00E943E3220913301B8
:102C200030913401620F731F70933401609333014C
:102C300010920304109204041092050410920604EA
:102C40001092070484E00E9478242091C103892B0C
:102C500021F42F5F2093C1030EC0222351F08091F5
:102C6000E1038F5F823018F48093E10302C0109279
:102C7000E1031092C1038091C103883020F10E94CA
:102C8000582984E10E94D31F60E070E080E090E06A
:102C90000E94BF1F64EF71E080E090E00E944B1E35
:102CA0008091C103883078F08DEC92E00E945C291D
:102CB00064EF71E080E090E00E944B1E0E94582972
:102CC0000E944D01EDCF80910901811110920901FF
:102CD0002E960FB6F894DEBF0FBECDBFDF91CF9119
:102CE0001F910F91FF90EF90DF90CF90BF90AF902A
:102CF0009F908F907F906F905F904F903F9008953E
:102D0000089540910A0450910B04209108043091D9
:102D1000090442175307B4F49091E8009570E1F369
:102D20009091E80092FD19C08093F10080910A040F
:102D300090910B0401968F739927892B19F48EEFCC
:102D40008093E80080910A0490910B04019690937F
:102D50000B0480930A0481E0089580E00895DF92D7
:102D6000EF92FF920F931F93CF93DF93D82EF92EFC
:102D7000E42E062F10E0C8010196880F0E948116EC
:102D800083E00E948116CD2DDF2D0C0F1D1FC01773
:102D9000D10789F0E7FE03C0FE01849101C088815C
:102DA0000E948116F82E80E00E9481168F212196C4
:102DB0008111EDCF01C081E0DF91CF911F910F9183
:102DC000FF90EF90DF900895DF92EF92FF920F93C4
:102DD0001F93CF93DF93D82E8A017B01E40EF51E5B
:102DE000EB01CE15DF0571F0D7FE03C0FE01849123
:102DF00001C088810E94811621968111F2CF8FEF48
:102E00009FEF01C0C801DF91CF911F910F91FF90FB
:102E1000EF90DF900895615030F02091F100FC01B7
:102E200020830196F8CF289884E68093290408959A
:102E3000CF92DF92EF92FF920F931F93CF93DF9386
:102E40006C017A018B01C0E0D0E0CE15DF0581F086
:102E5000D8016D918D01D601ED91FC910190F08129
:102E6000E02DC6010995892B11F02196EECF7E0148
:102E7000C701DF91CF911F910F91FF90EF90DF90ED
:102E8000CF900895FC01538D448D252F30E0842F81
:102E900090E0821B930B541710F0CF960895019782
:102EA0000895FC01918D828D981761F0828DDF016C
:102EB000A80FB11D5D968C91928D9F5F9F73928F2D
:102EC00090E008958FEF9FEF0895FC01918D828D22
:102ED000981731F0828DE80FF11D858D90E00895EF
:102EE0008FEF9FEF0895FC01918D228D892F90E047
:102EF000805C9F4F821B91098F739927089583EA05
:102F000094E00E94731721E0892B09F420E0822FBE
:102F10000895FC01848DDF01A80FB11DA35ABF4F96
:102F20002C91848D90E001968F739927848FA689C8
:102F3000B7892C93A089B1898C9182748C93938DDD
:102F4000848D981306C00288F389E02D80818F7DDF
:102F500080830895EF92FF920F931F93CF93DF9397
:102F6000EC0181E0888F9B8D8C8D981305C0E889DA
:102F7000F989808185FD26C0F62E0B8D10E00F5F4C
:102F80001F4F0F731127E02E8C8DE8120CC00FB667
:102F900007FCFACFE889F989808185FFF5CFCE015A
:102FA0000E948917F1CF8B8DFE01E80FF11DE35AC6
:102FB000FF4FF0829FB7F8940B8FEA89FB898081DD
:102FC000806209C09FB7F894EE89FF896083E88921
:102FD000F9898081827480839FBF81E090E0DF91D6
:102FE000CF911F910F91FF90EF900895CF93DF93B2
:102FF000EC01888D8823C9F0EA89FB89808185FDF1
:1030000005C0A889B9898C9186FD0FC00FB607FC51
:10301000F5CF808185FFF2CFA889B9898C9185FF92
:10302000EDCFCE010E948917E7CFDF91CF910895B0
:1030300080E090E0892B29F00E947F1781110C9489
:1030400000000895CF93DF931F92CDB7DEB7698359
:10305000DC01ED91FC910280F381E02D41E050E034
:10306000BE016F5F7F4F09950F90DF91CF9108955B
:1030700083E08093E9008091F200882319F08AE3CD
:103080008093E8000895FC018485958597FD0BC029
:103090009FB7F89482E08093E9008091F2009FBF8F
:1030A00090E0019608959FB7F89482E08093E9003C
:1030B0008091F2009FBF90E008950F931F93CF93EC
:1030C000DF931F92CDB7DEB782E0898342E450E000
:1030D00068E271E080E80E94E4160E946424DC014A
:1030E00012960D911C9113970115110589F0D801C5
:1030F000ED91FC910280F381E02DBE016F5F7F4F67
:10310000C801099597FD04C0F80100851185ECCF31
:1031100089810F90DF91CF911F910F9108958F9228
:103120009F92AF92BF92CF92DF92EF92FF920F9356
:103130001F93CF93DF936C017B018A01809115016E
:10314000882309F45CC080912A04882309F457C0BD
:1031500080910E0480FF05C08091E0008260809322
:10316000E000E801B12C8AEFA82E93E0892E2AE333
:10317000922E209711F4BB20D9F10E945324811183
:103180000AC0AA94AA20D9F161E070E080E090E042
:103190000E944B1EEECF282F30E0C217D3070CF44D
:1031A0008C2F9FB7F8948092E9002091E80025FFCA
:1031B0001DC0282F30E0C21BD30BF701815020F037
:1031C00041914093F100FACFE20EF31EBB2019F0BB
:1031D0009092E8000AC08091E80085FD07C09092B7
:1031E000E800BB24B394209709F0B12C9FBFC1CF56
:1031F0005D9884E680930D041016110644F081E07A
:1032000090E0F6019383828380E090E001C0C801E2
:10321000DF91CF911F910F91FF90EF90DF90CF90B2
:10322000BF90AF909F908F9008950E94532490E09C
:1032300008950F931F93CF93DF931F92CDB7DEB7FF
:103240008C01FC018485958597FF0EC0CE01019607
:103250000E942524019719F4898190E002C08FEF24
:103260009FEFF80195878487F801848595850F90F5
:10327000DF91CF911F910F910895CF93DF931F920C
:10328000CDB7DEB7FC018485958597FD05C02FEF8E
:103290003FEF358724870BC0CE0101960E9425247D
:1032A000019719F4898190E002C08FEF9FEF0F9092
:1032B000DF91CF9108951F920F920FB60F921124B4
:1032C0002F933F934F935F936F937F938F939F932E
:1032D000AF93BF93EF93FF93E0911E01F0911F0115
:1032E0000995FF91EF91BF91AF919F918F917F9140
:1032F0006F915F914F913F912F910F900FBE0F9063
:103300001F9018951F920F920FB60F9211242F93B2
:103310003F934F935F936F937F938F939F93AF935D
:10332000BF93EF93FF93E0911C01F0911D0109956C
:10333000FF91EF91BF91AF919F918F917F916F918D
:103340005F914F913F912F910F900FBE0F901F9063
:1033500018951F920F920FB60F9211242F933F933F
:103360004F935F936F937F938F939F93AF93BF938D
:10337000EF93FF93E0911A01F0911B010995FF91E2
:10338000EF91BF91AF919F918F917F916F915F91DD
:103390004F913F912F910F900FBE0F901F90189556
:1033A0001F920F920FB60F9211242F933F934F93BA
:1033B0005F936F937F938F939F93AF93BF93EF939D
:1033C000FF93E0911801F09119010995FF91EF9198
:1033D000BF91AF919F918F917F916F915F914F912D
:1033E0003F912F910F900FBE0F901F9018951F9235
:1033F0000F920FB60F9211242F933F934F935F9329
:103400006F937F938F939F93AF93BF93EF93FF93AC
:10341000E0911601F09117010995FF91EF91BF918D
:10342000AF919F918F917F916F915F914F913F915C
:103430002F910F900FBE0F901F9018951F920F9213
:103440000FB60F9211248F939F938091E10090917A
:10345000E100937F9093E10083FF0FC01092E90099
:1034600091E09093EB001092EC0092E39093ED00CA
:1034700010922A0498E09093F00082FF20C093E01D
:103480009093E9009091F200992319F09AE39093B8
:10349000E80090910D04992339F090910D0491501A
:1034A00090930D04992389F190912904992339F07F
:1034B00090912904915090932904992341F184FF1C
:1034C00010C08091E2008E7E81608093E200809146
:1034D000E1008F7E8093E10080910E048E7E8061FA
:1034E00011C080FF16C08091E2008E7E80618093C3
:1034F000E2008091E1008E7E8093E10080910E04D5
:103500008E7E816080930E0404C05D9ACDCF289A90
:10351000D6CF9F918F910F900FBE0F901F9018954F
:103520001F920F920FB60F921124CF92DF92EF925B
:10353000FF920F931F932F933F934F935F936F933C
:103540007F938F939F93AF93BF93EF93FF93CF930B
:10355000DF93CDB7DEB76C97DEBFCDBF1092E90029
:103560008091E80083FFFBC168E0CE0145960E9490
:103570000B1782EF8093E8008D8987FF05C090913B
:10358000E80090FFFCCF03C09EEF9093E800982FD7
:10359000907609F0C6C09E894F89588D2F89F88C86
:1035A00091110CC0803829F480910F048093F100B0
:1035B00002C01092F1001092F10045C1913051F417
:1035C000811141C14130510509F03DC180910F0485
:1035D0008D7F0BC0933061F4811135C141305105AD
:1035E00009F031C180910F04826080930F042BC1D8
:1035F000953049F48091E80080FFFCCF822F8068ED
:103600008093E30020C1963009F05EC00B8D1C8DC5
:1036100022E01092E90010920B0410920A04F212B8
:1036200032C010920904109208040E945D1899E0BB
:10363000BE016F5F7F4FDB01E92F1D92EA95E9F72D
:103640009983FA8291E09E8390EA98879AEF99870E
:1036500020910A0430910B04275F3F4F3C832B835A
:103660008D831092E90010920B0410920A041093BB
:1036700009040093080449E050E080E00E94E41649
:103680000E945D18E0C010930904009308040E9492
:103690006424DC0112960D911C91139701151105FC
:1036A00009F4BBC0D801ED91FC910480F581E02DB7
:1036B000BE016B5E7F4FC8010995009709F0C7C036
:1036C000F80100851185EACF973009F445C198309B
:1036D00021F481E08093F100B6C0993009F0B3C0C5
:1036E000837009F039C1EAE4F1E081E031E096E36A
:1036F0002081211109C08EE78093EA001092EA0030
:103700008F8980932A049FC08093E9003093EB0057
:1037100021912093EC009093ED008F5F873041F76B
:10372000EACF8B8D9C8D1092E90010920B041092C1
:103730000A049093090480930804898D811153C071
:103740008E899D89913A49F4813209F005C147E09B
:1037500050E06EE071E080E0BBC0913209F0FCC047
:10376000833269F48F89988DA0E0B0E080930A01DC
:1037700090930B01A0930C01B0930D0164C08032B3
:1037800069F48091E80082FFFCCF67E08EE091E071
:103790000E940B178BEF8093E80055C0823209F02E
:1037A00052C08F8980931501EEEFFFE785919491C8
:1037B0008B3F9C4D19F0E0E0F8E002C0EEEFFAE03C
:1037C00080910E0190910F01A0911001B091110113
:1037D000803B9440A105B10509F09EC08091150180
:1037E00080FF79C099C00E946424FC01028113818A
:1037F0000115110509F4B0C0D801ED91FC910190BB
:10380000F081E02DBE016B5E7F4FC80109958111EB
:103810001AC0F80100851185EBCFF1E0FF1609F41D
:103820004EC0F3E0FF1298C08F89882309F44AC084
:10383000823089F440E860E18CE891E00E94AF16A4
:10384000882309F489C08EEF8093E80088C0181699
:103850001906CCF381C0813029F440E86BE080E8A0
:1038600091E0ECCF833009F077C00E946424DC0142
:103870001296ED90FC9013978E010F5F1F4F680119
:10388000E114F10479F0D701ED91FC910680F78104
:10389000E02DB801C7010995080F111DF701E0845B
:1038A000F184EECFD8011C92F60101900020E9F7D7
:1038B0003197BF016C197D0940E0C601BFCF6EE6AC
:1038C00071E002C06AE671E0FB01449150E080E8DB
:1038D0000E94E416B8CFEE3F2AE0F20751F0808153
:1038E00091818737A7E79A0721F09093FF0A809389
:1038F000FE0A87E797E79183808380916000809339
:103900000C049BE088E10FB6F894A89580936000C2
:103910000FBE9093600097CF808191818737974742
:1039200009F091CFA8958091600088618093600034
:1039300080910C0480936000EE3FBAE0FB0739F001
:103940008091FE0A9091FF0A918380837CCF109230
:10395000FF0A1092FE0A77CF81E28093EB006C960B
:103960000FB6F894DEBF0FBECDBFDF91CF91FF91B0
:10397000EF91BF91AF919F918F917F916F915F91E7
:103980004F913F912F911F910F91FF90EF90DF90FA
:10399000CF900F900FBE0F901F9018956115710575
:1039A00079F0FB0101900020E9F73197AF01461B48
:1039B000570BDC01ED91FC910280F381E02D09941D
:1039C00080E090E008951F920F920FB60F9211249D
:1039D0002F933F934F935F936F937F938F939F9317
:1039E000AF93BF93EF93FF9383EA94E00E9489170C
:1039F000FF91EF91BF91AF919F918F917F916F91C7
:103A00005F914F913F912F910F900FBE0F901F909C
:103A100018951F920F920FB60F9211242F938F9328
:103A20009F93EF93FF93E091B304F091B4048081EE
:103A3000E091B904F091BA0482FD12C090818091A6
:103A4000BC048F5F8F732091BD04821751F0E09109
:103A5000BC04F0E0ED55FB4F958F8093BC0401C092
:103A60008081FF91EF919F918F912F910F900FBEC9
:103A70000F901F9018958F929F92AF92BF92CF9206
:103A8000DF92EF92FF920F931F93CF93DF93EC019E
:103A90008E819F810E94F52640E06CEC8E819F8193
:103AA0000E94C126488164E48E819F810E94C126C4
:103AB0008A81882309F442C0E981E950E33040F467
:103AC000F0E0EE0FFF1FED5BFE4F0081118102C0A1
:103AD0000EEE12E08B818823F9F0888181111CC0E1
:103AE0000E94851E4B015C016801110FEE08FF0862
:103AF0008E819F810E946E26813001F10E94851E79
:103B0000DC01CB018C199D09AE09BF098815990507
:103B1000AA05BB0568F312C0B801110F880B990BF9
:103B2000DF91CF911F910F91FF90EF90DF90CF9099
:103B3000BF90AF909F908F900C944B1EDF91CF91D0
:103B40001F910F91FF90EF90DF90CF90BF90AF90BB
:103B50009F908F9008950E940F3590E0FC0131975F
:103B6000EF30F105B0F5EA5AFF4F0C94F53480912F
:103B700080008F7703C0809180008F7D80938000CC
:103B8000089580918000877FF9CF84B58F7702C038
:103B900084B58F7D84BD0895809190008F7707C094
:103BA000809190008F7D03C080919000877F8093EB
:103BB000900008958091C0008F7703C08091C0006D
:103BC0008F7D8093C00008958091C200877F80938D
:103BD000C2000895CF93DF9390E0FC01EA51FE4FBD
:103BE0002491FC01E953FE4F8491882361F190E018
:103BF000880F991FFC01E356FE4FC591D491FC013B
:103C0000E555FE4FA591B491611109C09FB7F89495
:103C10008881209582238883EC912E230BC062300B
:103C200061F49FB7F8948881322F3095832388837D
:103C3000EC912E2B2C939FBF06C08FB7F894E88190
:103C40002E2B28838FBFDF91CF9108953FB7F89433
:103C50008091250490912604A0912704B091280416
:103C600026B5A89B05C02F3F19F00196A11DB11DD7
:103C70003FBFBA2FA92F982F8827820F911DA11D12
:103C8000B11DBC01CD0142E0660F771F881F991F4F
:103C90004A95D1F708958F929F92AF92BF92CF929B
:103CA000DF92EF92FF926B017C010E94261E4B0176
:103CB0005C01C114D104E104F104F1F00E94261E5C
:103CC000DC01CB0188199909AA09BB09883E9340F8
:103CD000A105B10570F321E0C21AD108E108F1088D
:103CE00088EE880E83E0981EA11CB11CC114D1047B
:103CF000E104F10419F7DDCFFF90EF90DF90CF9052
:103D0000BF90AF909F908F9008952FB7F8946091D7
:103D100021047091220480912304909124042FBFE8
:103D200008951F920F920FB60F9211242F933F9375
:103D30008F939F93AF93BF9380912104909122041E
:103D4000A0912304B09124043091200423E0230F98
:103D50002D3720F40196A11DB11D05C026E8230FC3
:103D60000296A11DB11D20932004809321049093FD
:103D70002204A0932304B0932404809125049091FD
:103D80002604A0912704B09128040196A11DB11D1D
:103D90008093250490932604A0932704B0932804CD
:103DA000BF91AF919F918F913F912F910F900FBE37
:103DB0000F901F9018958F929F92AF92BF92CF92C3
:103DC000DF92EF92FF926B017C0185E893E00E9405
:103DD0004A29A7019601C701B6010E94C034882371
:103DE00019F068E873E01AC046015701E894B7F883
:103DF0002FEF3FEF4FE75FE7C501B4010E94C034EA
:103E0000811111C02FEF3FEF4FE75FE7C501B4010C
:103E10000E94EF3218163CF46CE873E088EE95E0EF
:103E20000E94CE1C76C02FEF3FEF4FE75FE4C70143
:103E3000B6010E944E3418161CF460E973E0EECF10
:103E40002FEF3FEF4FE75FECC701B6010E94EF3263
:103E500087FDF3CF20E030E0A901C701B6010E9441
:103E6000EF3287FF09C06DE288EE95E00E94B30D46
:103E7000F7FAF094F7F8F0942AE037ED43EA5BE3C1
:103E8000C701B6010E9483324B015C010E946D3371
:103E90006B017C010E949C339B01AC01C501B40104
:103EA0000E9482324B015C014AE0C701B6010E94C8
:103EB00080296EE288EE95E00E94B30D20E030E0AC
:103EC00040E251E4C501B4010E9453344B015C014E
:103ED0000E946D336B01E12CF12C4AE0C701B60161
:103EE0000E948029C701B6010E949C339B01AC014E
:103EF000C501B4010E94823220E030E040E251E48A
:103F00000E9453340E946D3380E090E04AE00E94AA
:103F1000802960E088EE95E0FF90EF90DF90CF90F1
:103F2000BF90AF909F908F900C94B30DCF93DF9381
:103F3000D82FC62F84E993E00E944A296D2F88EE7E
:103F400095E00E94B30D6C2F88EE95E0DF91CF9144
:103F50000C94B30DCF93DF938F3F910510F4682F2E
:103F600008C0EC016FEF88EE95E00E94B30D6C2F56
:103F70006F5F88EE95E0DF91CF910C94B30D0F93B6
:103F80001F93CF93DF938C01EB0188E993E00E94AC
:103F90004A29C8010E94AA1FCE01DF91CF911F912B
:103FA0000F910C94AA1FCF93C82F8BE993E00E9426
:103FB0004A296C2F88EE95E0CF910C94B30DBC018B
:103FC0009091B7059C3098F58091B80528E830E0CD
:103FD000281B310987FD3395220F331F220F331F12
:103FE000621773078CF08091B90548E552E0481BD1
:103FF000510987FD5395440F551F440F551F9B01D1
:10400000461757070CF49A0122503109220F331F2B
:104010004FB7F894892F90E0FC01EE0FFF1F8E0F31
:104020009F1FFC01E057FA4F328321834FBF089551
:104030004F925F926F927F928F929F92AF92BF92B8
:10404000CF92DF92EF92FF920F931F93CF93DF9364
:10405000CDB7DEB761970FB6F894DEBF0FBECDBF08
:10406000DC011696ED91FC91179713861586148640
:10407000DF011B9633961E92EA17FB07E1F7FC015E
:1040800006811781D8011D962C91211169C07C01F0
:10409000C8010E94F526811105C0F8011386158616
:1040A000148681C040E060EFC8010E94C126BB2495
:1040B000B394A12C912CCC24C394C8010E946E26E9
:1040C000D82EC8010E946E26F1E0DF1203C08130B5
:1040D000D1F439C02A2D30E0D8121FC0D8011B9668
:1040E0008C91C81638F4F801E20FF31F83818B21FD
:1040F00051F402C08C1539F0D12CB8E0BC1560F039
:10410000F801C48609C0F801EA0DF11D83818B29ED
:104110008383DD24D39409C09C2CF801E20FF31FA4
:1041200093818B2D8095892383836D2DC8010E94F7
:104130009226C394BB0C19F4A394BB24B394F7E068
:10414000FA1508F0BACF20E42C1550F4D8011B96CC
:104150009C921B9791100EC081E01D968C930AC013
:10416000D8011B961C921B971D961C921D971C969E
:104170001C9219C0F8018381882391F333966E0154
:104180002AE0C20ED11C055F1F4FD6015601819156
:104190008D93E017F107D9F767E0C6010E94562614
:1041A0009989891729F060E070E08EEF92EC99C050
:1041B000D70116968D919C9117970E94F52688231A
:1041C00009F48CC0F7010681178140E065E5C8015C
:1041D0000E94C1264E01F2E18F0E911CD6016D9115
:1041E0006D0140E0C8010E94C1268C149D04B1F706
:1041F00040E06EEBF701868197810E94C1268E0117
:104200000F5F1F4F2801D70116968D909C9017972E
:1042100078E0672E712CD12CCC24C394C4010E9469
:104220006E268111DC28CC0CB1E06B1A7108B1F755
:10423000F801D1928F01AE16BF0629F7D701169665
:104240008D919C9117970E94F526813009F046C008
:1042500068E0C2010E945626998589133FC02A81D1
:1042600030E0C901982F8827990F990F990F69811C
:10427000B8E06B9FB00111249C01262B372B8A8557
:104280008031C9F4688570E08F81FB01E81BF1097A
:10429000CF019695982F8827979587950E94E134AE
:1042A00060517109207F53E0220F331F5A95E1F7C7
:1042B000620F731F01C0B9016138F4EE7F070CF47F
:1042C00072CF072E000C880B990B0E949E3320E0C2
:1042D00030E040E05CE30E94533403C060E874EED9
:1042E000EBCF61960FB6F894DEBF0FBECDBFDF9166
:1042F000CF911F910F91FF90EF90DF90CF90BF90E3
:10430000AF909F908F907F906F905F904F900895A7
:104310000F931F93CF93DF93982F4091990650915D
:104320009A0660919B0670919C064F5F5F4F6F4F9E
:104330007F4F4093990650939A0660939B06709323
:104340009C06843209F459C2E0919306853234F414
:104350008A3071F08D3009F05EC20AC08A3241F0B5
:104360008C3209F058C2809180068927809380069C
:10437000092FEF3008F030C2F0E0EE57F94F10820D
:1043800080918106882309F41DC1209182063FEBAC
:10439000320F822F022E000C990B363010F4C79783
:1043A00007C02156263018F48755910901C0C097DF
:1043B000282F2295207F309183064FEB430F832FC8
:1043C000032E000C990B463010F4C79707C03156E6
:1043D000363018F48755910901C0C097820F90912B
:1043E00080068913DBC08091A5069091A606A09156
:1043F000A706B091A8060196A11DB11D8093A50640
:104400009093A606A093A706B093A8068091940661
:10441000882399F080919D0690919E06A0919F0619
:10442000B091A0060196A11DB11D80939D069093A9
:104430009E06A0939F06B093A006109191061123AB
:10444000B9F1113009F084C08EE196E00E94042891
:104450008CE296E00E94042880919406882309F457
:1044600077C087E0ECE0F6E0AEEFB5E001900D92AA
:104470008A95E1F787E0E3E1F6E0A5E0B6E0019098
:104480000D928A95E1F70E94851E60931A0670933B
:104490001B0680931C0690931D061093FD05109338
:1044A000FC058AE396E00E94ED2788E496E04EC082
:1044B0008CE296E00E94042880919406882329F1DA
:1044C00087E0ECE0F6E0AEEFB5E001900D928A9562
:1044D000E1F787E0E3E1F6E0A5E0B6E001900D92B8
:1044E0008A95E1F70E94851E60931A0670931B0659
:1044F00080931C0690931D0681E08093FD058093B8
:10450000FC0586E596E00E94ED2780916E0690916D
:104510006F06A0917006B091710680936A06909321
:104520006B06A0936C06B0936D060E94851E609387
:10453000660670936706809368069093690681E02B
:10454000809365068093640682E796E00E94ED27DB
:10455000C0919706D091980611E0209709F43EC1CA
:10456000E0919706F091980666A177A18EA19FA190
:104570000E941435892B09F031C1BE01CE0140964D
:104580000E941D350E94851E68A379A38AA39BA360
:104590001DA31CA30AA4DBA5C02DDFCF8091A1061B
:1045A0009091A206A091A306B091A4060196A11D28
:1045B000B11D8093A1069093A206A093A306B09389
:1045C000A4060AC190919206911142C06EE973E06F
:1045D00082E896E00E941435892B41F064EA73E08A
:1045E00082E896E00E941435892B11F481E014C012
:1045F0006AEA73E082E896E00E941435892B41F064
:1046000060EB73E082E896E00E941435892B19F480
:104610001092910603C082E08093910680919506E6
:10462000909196069093980680939706C09197066E
:10463000D0919806209709F4CFC062E876E08EA169
:104640009FA10E94143597FFC1C08AA59BA5EACF00
:10465000E0919106E23009F491C0809182068823AE
:1046600009F48CC020E2E29FF0011124E92B31977C
:10467000E932F10508F082C0EB59FF4F0C94F53494
:1046800082E896E00E94A328609332067093330676
:10469000809334069093350671C091E0813409F01F
:1046A00043C043C06CE076E009C091E0833509F077
:1046B00090E09093120662C063E176E082E896E0B3
:1046C0000E941B285BC091E0873509F090E0909331
:1046D000190654C082E896E00E94A328609344061D
:1046E00070934506809346069093470647C082E83C
:1046F00096E00E94A328609352067093530680931D
:104700005406909355063AC082E896E00E94EC3138
:1047100060932406709325068093260690932706BF
:104720002DC091E081330CF490E09093940626C064
:1047300082E896E00E94EC3160936E0670936F06FB
:10474000809370069093710619C082E896E00E94EB
:10475000A32860937C0670937D0680937E069093D9
:104760007F060CC082E896E00E94A3286093600652
:10477000709361068093620690936306C0919706DA
:10478000D0919806209741F1E0919706F091980614
:1047900066A177A18EA19FA10E941435892BE1F417
:1047A00028A539A58091920690E082179307A4F07E
:1047B0002817390739F440E150E062E876E0CE018D
:1047C0000E9424350AA4DBA5C02DDCCF892B21F063
:1047D000109298061092970680E001C081E09091B7
:1047E00092069F5F909392061092930691E00A3290
:1047F00009F090E09093810623C0109293061092E6
:1048000092061092800682E08093910610928106B3
:104810001092940614C0EE3040F481E08E0F809325
:104820009306F0E0EE57F94F908380918106811155
:1048300006C02091800692279093800601C080E0F8
:10484000DF91CF911F910F91089520912A0421119A
:1048500003C08FEF9FEF08955FB7F89422E0209395
:10486000E9002091F20030E01216130614F421E062
:1048700030E0422FFC0184E6415038F028988093C4
:1048800029049091F1009193F7CF2115310521F082
:104890008091F200882319F05FBFC90108958BE66B
:1048A0008093E800F9CF2FB7F89483E08093E90074
:1048B0009091E800892F807295FF04C09091F200DA
:1048C00080E4891B2FBF089580912F0481110DC0B2
:1048D00082E080932B0484E080932C0410922E04B9
:1048E00010922D0481E080932F048BE294E00895D0
:1048F000CF93DF93282F30E0F901EB5FFD4F8491D8
:10490000F901EA51FE4FD491F901E953FE4FC491E8
:10491000CC2391F081110E94AD1DEC2FF0E0EE0F41
:10492000FF1FE754FE4FA591B491EC91ED2381E078
:1049300090E021F480E002C080E090E0DF91CF9130
:1049400008951F93CF93DF93282F30E0F901EB5F99
:10495000FD4F8491F901EA51FE4FD491F901E953D9
:10496000FE4FC491CC23C1F0162F81110E94AD1DC2
:10497000EC2FF0E0EE0FFF1FE555FE4FA591B4912F
:104980009FB7F894111104C08C91D095D82302C020
:10499000EC91DE2BDC939FBFDF91CF911F910895A7
:1049A00085ED8093BC008091BC0084FDFCCF10920B
:1049B0007D04089540915904262F30E0240F311DC5
:1049C00021323105DCF420917D042430C9F4FC014E
:1049D00080E090E0861758F4309159042191DC0171
:1049E000A75CBB4FA30FB11D2C930196F3CF809111
:1049F0005904680F6093590480E0089581E0089598
:104A000082E0089508958FEF9FEF08958FEF9FEF55
:104A100008958091380490E09195819591090895C9
:104A2000CF93DF93CB01EA01642F0E94DA24CE01F9
:104A3000DF91CF910895CF93DF931F92CDB7DEB76B
:104A4000698361E0CE0101960E94DA2481E090E062
:104A50000F90DF91CF9108951F920F920FB60F9292
:104A600011242F933F934F935F936F937F938F9373
:104A70009F93AF93BF93EF93FF938091B900887F8B
:104A8000803609F49CC068F5883209F45BC090F464
:104A9000803109F454C038F4882309F4F2C0883016
:104AA00009F44DC0F2C0883109F44CC0803209F4D9
:104AB0005DC0EBC0803409F468C048F4803309F469
:104AC00055C0883309F0E1C080937C04D4C08035A0
:104AD00009F44FC0883509F45DC0883409F0D5C0A9
:104AE000D2C0883909F4C3C0A8F4883709F467C074
:104AF00038F4883609F463C0803709F460C0C5C053
:104B0000883809F4B4C0803909F45FC0803809F0EE
:104B1000BCC05BC0803B09F484C038F4803A09F41F
:104B200066C0883A09F47DC0B0C0803C09F4A3C0D7
:104B3000883C09F4A0C0883B09F486C0A6C08091D7
:104B4000A20410C09091A1048091A004981770F560
:104B5000E091A10481E08E0F8093A104F0E0E05881
:104B6000FB4F80818093BB0085EC82C080937C04E6
:104B70008AC0E091A10481E08E0F8093A10480910E
:104B8000BB00F0E0E058FB4F80839091A10480913E
:104B9000A0046AC0E091A10481E08E0F8093A1047B
:104BA0008091BB00F0E0E058FB4F808380917F0450
:104BB000811169C081E080937E0484EA5DC083E056
:104BC00080937D0410927B04CFCF80917B04803250
:104BD00008F04DC0E0917B0481E08E0F80937B0450
:104BE0008091BB00F0E0E55AFB4F8083BDCF85ECA0
:104BF0008093BC0010927D0480917B04803230F45D
:104C0000E0917B04F0E0E55AFB4F108260917B0459
:104C100070E08BE594E0E0E0F0E0099510927B0411
:104C200034C084E080937D0410925A041092590499
:104C3000E0E0F0E0099580915904811105C081E020
:104C40008093590410923904E0915A0481E08E0F48
:104C500080935A04F0E0E75CFB4F80818093BB00B7
:104C600090915A0480915904981708F47DCF85E8F3
:104C70008093BC000AC085EC8093BC0010927D0438
:104C800004C010927C040E94D024FF91EF91BF9148
:104C9000AF919F918F917F916F915F914F913F91D4
:104CA0002F910F900FBE0F901F901895DC0180E0A0
:104CB000615098F02D91982F9227E92FEF70F0E036
:104CC000EC5DFD4F249192959F70E92FF0E0EC5C34
:104CD000FD4FE491822F8E27EBCF0895FC01908148
:104CE0000180F281E02DF8948181892B81832281DA
:104CF000892F809528232283A7E0B0E01197F1F750
:104D0000218182238183A3E2B0E01197F1F78081B2
:104D10007894EFECF0E03197F1F7982381E009F413
:104D200080E00895FC0190810180F281E02D892FBF
:104D3000809560FF12C0F894228182238283818152
:104D4000892B8183A3E2B0E01197F1F78281982B40
:104D50009283789487ED90E011C0F89422818223A9
:104D600082838181892B8183AFEFB0E01197F1F7C6
:104D70008281982B928378948FE090E00197F1F7ED
:104D80000895DF92EF92FF920F931F93CF93DF93DB
:104D9000EC01D62EE42E08E010E0FF24F39461E04D
:104DA0008D2D8F2109F460E0CE010E949226FF0C28
:104DB00001501109A1F7E11010C0F894E981FA81BE
:104DC00091818881809589238183E981FA8192810B
:104DD00088818095892382837894DF91CF911F9178
:104DE0000F91FF90EF90DF900895DC012C911196C8
:104DF000ED91FC911297F8948181922F90958923DF
:104E0000818378948DE743E050E0815021F1DA010D
:104E10001197F1F730813223C1F3F894828189230D
:104E200082838181822B81837894ABE7B7E01197ED
:104E3000F1F7F89481819823918383E191E00197C0
:104E4000F1F78081282381E009F080E07894E3E69F
:104E5000F6E03197F1F708951F920F920FB60F9277
:104E600011242F933F934F935F936F937F938F936F
:104E70009F93AF93BF93EF93FF938091370487FF86
:104E800005C010928500109284001BC02091370449
:104E9000022E000C330B8091B40590E028173907DF
:104EA00084F480913704082E000C990BFC01EE0F5E
:104EB000FF1F8E0F9F1FFC01E057FA4F808186FD78
:104EC00015C0809137048F5F809337042091370499
:104ED000022E000C330B8091B40590E0281739079F
:104EE000C4F4809137048C3064F113C0809137048E
:104EF000082E000C990BFC01EE0FFF1F8E0F9F1F59
:104F0000FC01E057FA4F808160E08F730E94A1247A
:104F1000D8CF8091840090918500049680349C497C
:104F200018F480E49CE905C080918400909185008C
:104F3000049690938900809388008FEF80933704C4
:104F40003BC0209184003091850080913704082E69
:104F5000000C990BFC01EE0FFF1F8E0F9F1FFC0131
:104F6000E057FA4F81819281820F931F90938900BD
:104F70008093880080913704082E000C990BFC0167
:104F8000EE0FFF1F8E0F9F1FFC01E057FA4F80812D
:104F900086FF12C080913704082E000C990BFC018B
:104FA000EE0FFF1F8E0F9F1FFC01E057FA4F80810D
:104FB00061E08F730E94A124FF91EF91BF91AF91A7
:104FC0009F918F917F916F915F914F913F912F9121
:104FD0000F900FBE0F901F901895CF93DF93EC01A9
:104FE0008A859B85AC85BD858E839F83A887B9877D
:104FF0000E94851E6A837B838C839D8381E08983E5
:105000008883DF91CF910895CF93DF93EC018E8158
:105010009F81A885B9858A839B83AC83BD830E94C9
:10502000851E6A877B878C879D8781E0898388833B
:10503000DF91CF9108952F923F924F925F926F929E
:105040007F928F929F92AF92BF92CF92DF92EF9218
:10505000FF920F931F93CF93DF93D82FC92F8B010C
:105060000E94EC3124E630E040E050E00E945132F2
:1050700049015A019B01AC0160E876E988E990E0BA
:105080000E94C5346B017C01F80191828082ED2F72
:10509000FC2F2191822F022E000C990BC0970A97AA
:1050A000C0F32E3239F51F0180E8882E86E9982E4C
:1050B00088E9A82EB12C9AE0492E512C612C712C34
:1050C000F101C1911F010C2E000CDD0BE097CA30DD
:1050D000D10580F4C501B401A30192010E945132AF
:1050E00049015A01DE010E944932C60ED71EE81E50
:1050F000F91EE6CFA5E0B0E0A70196010E943E327E
:105100006F5F7F4F8F4F9F4F23E030E040E050E0D4
:105110000E945132F80122833383448355831682DF
:10512000DF91CF911F910F91FF90EF90DF90CF9083
:10513000BF90AF909F908F907F906F905F904F90B7
:105140003F902F900895FF920F931F93CF93DF937B
:10515000EC01F8802DE2F21201C02196CE010E94EE
:10516000EC319B01AC01A4E6B0E00E943E32FE01AE
:105170004991242F042E000C330B205331092A307F
:105180003105A8F34E3241F52181022E000C330B7C
:10519000205331092A303105F8F44AE0429F80015A
:1051A000439F100D1124012E000C220B330B600FB6
:1051B000711F821F931F0281002E000C110B0053E0
:1051C00011090A30110540F4012E000C220B330B9B
:1051D000600F711F821F931F2DE2F21207C090957E
:1051E0008095709561957F4F8F4F9F4FDF91CF9145
:1051F0001F910F91FF9008950C9430320C94283237
:105200000F931F93CF938C0101960E94FE28C82F05
:10521000C8010E94FE282C2F30E0A901582BCA019A
:10522000CF911F910F9108951F93CF93DF93EC01BE
:10523000162F672F0E94FC28612FCE010196DF9167
:10524000CF911F910C94FC2861E08091F7050E949A
:10525000EA1D61E08091F8050E94EA1D61E08091FD
:10526000F9050E94EA1D61E08091F9050E94A124E0
:1052700060E08091F7050E94A12460E08091F8052C
:105280000E94A1248091FA05882319F060E00C9413
:10529000EA1D0895CF93DF93EC016991662329F00D
:1052A00088EE95E00E94B30DF8CFDF91CF9108957D
:1052B00086EB93E00C944A29CF93DF93EC0185E8C9
:1052C00093E00E944A29BE0188EE95E00E94CE1C20
:1052D00060E088EE95E0DF91CF910C94B30DCF9311
:1052E000C82F85E893E00E944A296C2F88EE95E04C
:1052F0000E94B30D60E088EE95E0CF910C94B30D61
:105300008F929F92AF92BF920F931F93CF93DF9391
:10531000CDB7DEB7A1970FB6F894DEBF0FBECDBFF5
:1053200019A2423008F44AE08E010F5D1F4F842E0F
:10533000912CA12CB12CA50194010E945132E62F91
:10534000B901CA0101501109EA3014F4E05D01C04D
:10535000E95CD801EC93232B242B252B61F7B801B2
:1053600088EE95E00E94CE1CA1960FB6F894DEBFA1
:105370000FBECDBFDF91CF911F910F91BF90AF9026
:105380009F908F900895CF93C82F85E893E00E9457
:105390004A296C2F70E080E090E04AE00E9480296A
:1053A00060E088EE95E0CF910C94B30DCF92DF9240
:1053B000EF92FF926C0185E893E00E944A290D2C40
:1053C000000CEE08FF08F7FE0EC06DE288EE95E0D7
:1053D0000E94B30D66277727CB016C197D098E09D2
:1053E0009F094AE003C04AE0C701B6010E94802934
:1053F00060E088EE95E0FF90EF90DF90CF900C9406
:10540000B30DCF93DF93CDB7DEB72E970FB6F894D9
:10541000DEBF0FBECDBF789484B5826084BD84B5F5
:10542000816084BD85B5826085BD85B5816085BD9F
:1054300080916E00816080936E0010928100809157
:1054400081008260809381008091810081608093DF
:105450008100809180008160809380008091910024
:10546000826080939100809191008160809391008F
:10547000809190008160809390008091C100846051
:105480008093C1008091C10082608093C1008091AF
:10549000C10081608093C1008091C30081608093CE
:1054A000C3008091C00082608093C0008091C200E0
:1054B00081608093C20080917A00846080937A003A
:1054C00080917A00826080937A0080917A00816076
:1054D00080937A0080917A00806880937A0010929D
:1054E0002A0410920F0410920E048091D70081605C
:1054F0008093D70080EA8093D80089B5806189BD08
:1055000089B5826089BD09B400FEFDCF61E070E01D
:1055100080E090E00E944B1E8091D8008F7C8061DB
:105520008093D8008091E000807F8093E00080919C
:10553000E1008E7E8093E1008DE08093E200559A39
:10554000209A8FEF9FEF90934D0580934C0564E672
:1055500070E080E090E00E944B1EE091B304F09177
:10556000B40482E08083E091AF04F091B004108233
:10557000E091B104F091B2048FEC80831092BB04EF
:10558000E091B704F091B80486E08083E091B5041F
:10559000F091B604808180618083E091B504F09140
:1055A000B604808188608083E091B504F091B604F0
:1055B000808180688083E091B504F091B604808199
:1055C0008F7D808368EB7BE080E090E00E944B1E43
:1055D0000E9424290E94582964E670E080E090E04F
:1055E0000E944B1E8EE10E94D31F61E070E080E0BC
:1055F00090E00E94BF1F86E292E00E945C2964E670
:1056000070E080E090E00E944B1E87ED92E00E94E7
:105610005C2962E070E080E090E00E94BF1F68EECD
:1056200073E080E090E00E944B1E82EE92E00E94C8
:105630005C2960E070E088EA91E40E94DB1E68EE7D
:1056400073E080E090E00E944B1E63E070E080E039
:1056500090E00E94BF1F8DEE92E00E945C2968EBF3
:105660007BE080E090E00E944B1E0E94582964EF8E
:1056700071E080E090E00E944B1E88EC90E00E9478
:10568000FE28823009F44DC08EE10E94D31F63E0F2
:1056900070E080E090E00E94BF1F8EEF92E00E94D9
:1056A0005C2960ED77E080E090E00E944B1E66E0B0
:1056B0008BE090E00E94FC2861E082E190E00E9493
:1056C000FC286CE083E190E00E94FC2863EC84E11C
:1056D00090E00E94FC286FE585E190E00E94FC28A4
:1056E00061E08DE190E00E94FC286AE08EE190E0AC
:1056F0000E94FC2861E08FE190E00E94FC286EE1AE
:1057000081E290E00E94FC2863E088EC90E00E9437
:10571000FC280E94582964EF71E080E090E00E942C
:105720004B1E89EC90E00E94FE28833009F45CC097
:105730008EE10E94D31F63E070E080E090E00E9461
:10574000BF1F80E193E00E945C2968E873E180E07C
:1057500090E00E944B1E60E08CE090E00E94FC28EC
:1057600062E38DE090E00E94FC2860E08EE090E033
:105770000E94FC2869E18FE090E00E94FC2860E034
:1057800080E190E00E94FC2865E081E190E00E94C9
:10579000FC2860E082E390E00E94FC286EE183E355
:1057A00090E00E94FC2860E084E390E00E94FC28E6
:1057B00069E185E390E00E94FC2860E086E390E0E8
:1057C0000E94FC2865E087E390E00E94FC2863E0EB
:1057D00089EC90E00E94FC280E94582964EF71E057
:1057E00080E090E00E944B1E8EE10E94D31F61E09A
:1057F00070E080E090E00E94BF1F80E293E00E9492
:105800005C2963E070E080E090E00E94BF1F81E3CC
:1058100093E00E945C2968EE73E080E090E00E94D3
:105820004B1E60E082E00E94EA1D60E083E00E947F
:10583000EA1D62E084E00E94EA1D8CEE9CE09093F9
:10584000170180931601809169008360809369003D
:10585000E89A89E19DE090931F0180931E01809159
:105860006A008F7C806180936A00EE9A8091B70510
:105870008C3008F051C061E085E00E94EA1D809103
:10588000B705E82FF0E09F01220F331FE20FF31F4F
:10589000E057FA4F9081907C956090831092B80504
:1058A0001092B9056CE00E94D5342CE0829FB001C3
:1058B000112440E050E09B01240F351FF901EE0F49
:1058C000FF1F2E0F3F1FF901E057FA4F908196FD01
:1058D00016C04F5F5F4F4C30510569F781110FC003
:1058E0001092800082E080938100109285001092D7
:1058F0008400B19A80916F00826080936F00E09184
:10590000B705F0E0CF01880F991FE80FF91FE057A6
:10591000FA4F80818064808360911E0470911F041F
:10592000072E000C880B990B0E949E336093B106E2
:105930007093B2068093B3069093B40660913301DE
:1059400070913401072E000C880B990B0E949E3336
:105950006093A9067093AA068093AB069093AC0659
:105960008091EF06811148C0E091D306F091D406F2
:10597000C080D180E280F380C092DB06D092DC064A
:10598000E092DD06F092DE06E091D106F091D206BB
:1059900080819181A281B3818093DF069093E0069C
:1059A000A093E106B093E2068090EB069090EC069F
:1059B000A090ED06B090EE06A5019401C701B601D6
:1059C0000E944E34181684F08090E7069090E80606
:1059D000A090E906B090EA06A5019401C701B601BE
:1059E0000E94EF3287FF08C08092DB069092DC06AF
:1059F000A092DD06B092DE0681E08093EF068CE097
:105A000090E00E940029BC0180E090E00E949C335D
:105A100020E030E048EC52E40E94F4322B013C01DB
:105A200060932F0170933001809331019093320184
:105A30008EE090E00E940029BC0180E090E00E948E
:105A40009C3320E030E048EC52E40E94F4324B01F9
:105A50005C0160932B0170932C0180932D01909336
:105A60002E0180E190E00E940029BC0180E090E0DE
:105A70000E949C3320E030E048EC52E40E94F43273
:105A80006B017C01609327017093280180932901A9
:105A900090932A0182E390E00E940029BC0180E0FB
:105AA00090E00E949C3320E030E048EC52E40E94F9
:105AB000F43269837A838B839C8360933F01709374
:105AC0004001809341019093420184E390E00E9461
:105AD0000029BC0180E090E00E949C3320E030E08F
