:100000000C940D010C9428060C9401060C94DA054E
:100010000C94B3050C9435010C9435010C948C05AB
:100020000C9435010C9435010C94F50D0C94670E6D
:100030000C9435010C9435010C9435010C94350168
:100040000C9435010C947D070C9435010C9435010A
:100050000C9435010C9435010C9435010C94420537
:100060000C9435010C9438110C9412110C94350138
:100070000C9435010C9435010C9435010C94350128
:100080000C9435010C9435010C9435010C94350118
:100090000C944F060C9435010C9435010C943501E9
:1000A0000C9435010C9435010C94350169016C01F7
:1000B0005B015F0165018D018D018D01700174018E
:1000C00078017E0182018D0188015A0A6C0A6F0A4B
:1000D000760A7D0AAB0AB20ABF0ACC0AD80AD80A45
:1000E000D80AD80AD80AD80AD80AD80AD80AD80A00
:1000F000D80AD80AD80AD80AD80AD80AD80AD80AF0
:10010000D80AD80AD80AD80AD80A5A0A670A6C0A3A
:100110006F0A760A7D0A840A910A9E0A000000008E
:10012000240027002A002D003000000000002500D8
:1001300028002B002E0031000000000023002600C4
:1001400029002C002F000404040404030405020207
:100150000202040302020202060606060606040460
:1001600002020204040408020110408040102040F2
:10017000804080080204018040201002011080109D
:10018000204040200000000200090F00000304018D
:10019000000C000000000000000000000000000053
:1001A000000000080B000202020100090400000127
:1001B00002020000052400100105240101010424AD
:1001C000020605240600010705810310004009040A
:1001D0000100020A000000070502024000000705B6
:1001E00083024000000403090412010002EF02012F
:1001F00040412336800001010203014172647569A8
:100200006E6F204C4C430041726475696E6F204CD8
:10021000656F6E6172646F00802211241FBECFEF84
:10022000DAE0DEBFCDBF13E0A0E0B1E0ECE9FEE430
:1002300002C005900D92AC3DB107D9F727E0ACEDB7
:10024000B3E001C01D92A132B207E1F711E0CDE0A9
:10025000D1E004C02197FE010E940E27CC30D107C7
:10026000C9F70E9495130C944C270C940000FC01D4
:100270008485958597FD0BC09FB7F89482E08093A5
:10028000E9008091F2009FBF90E0019608959FB72A
:10029000F89482E08093E9008091F2009FBF90E0A3
:1002A000089590E0FC013197EF30F105B0F5EA5A7E
:1002B000FF4F0C940E27809180008F7703C08091B0
:1002C00080008F7D80938000089580918000877FDB
:1002D000F9CF84B58F7702C084B58F7D84BD089532
:1002E000809190008F7707C0809190008F7D03C030
:1002F00080919000877F8093900008958091C00046
:100300008F7703C08091C0008F7D8093C0000895D7
:100310008091C200877F8093C20008953FB7F89410
:100320008091FC049091FD04A091FE04B091FF0423
:1003300026B5A89B05C02F3F19F00196A11DB11D40
:100340003FBFBA2FA92F982F8827820F911DA11D7B
:10035000B11DBC01CD0142E0660F771F881F991FB8
:100360004A95D1F70895089585ED8093BC0080915A
:10037000BC0084FDFCCF1092D10408954091AB04E1
:10038000262F30E0240F311D21323105DCF420917D
:10039000D1042430C9F4FC0180E090E0861758F4C1
:1003A0003091AB042191DC01A757BB4FA30FB11DC6
:1003B0002C930196F3CF8091AB04680F6093AB044C
:1003C00080E0089581E0089582E0089508958FEF18
:1003D0009FEF08958FEF9FEF08958091880490E03C
:1003E0009195819591090895CF93DF9300D0CDB772
:1003F000DEB7CB01642F49835A830E94BE01498135
:10040000842F5A81952F0F900F90DF91CF910895EF
:10041000CF93DF931F92CDB7DEB7698361E0CE0142
:1004200001960E94BE0181E090E00F90DF91CF9194
:1004300008958F929F92AF92BF92CF92DF92EF92E8
:10044000FF920F931F930E948E01009183041091DD
:1004500084042091850430918604C090E303D090F9
:10046000E403E090E503F090E60346015701801AAB
:10047000910AA20AB30A95018401060F171F281FCB
:10048000391F0093E3031093E4032093E5033093B3
:10049000E6036093830470938404809385049093AF
:1004A00086048091DF039091E003A091E103B09175
:1004B000E2030196A11DB11D8093DF039093E00339
:1004C000A093E103B093E2031F910F91FF90EF908F
:1004D000DF90CF90BF90AF909F908F900895089538
:1004E0000895089580E090E008950E94701390E0D0
:1004F00008950F931F93CF93DF931F92CDB7DEB76D
:100500008C01FC018485958597FF0EC0CE01019674
:100510000E944613019719F4298130E002C02FEFA1
:100520003FEFF80135872487F801848595850F9082
:10053000DF91CF911F910F910895CF93DF931F9279
:10054000CDB7DEB7FC018485958597FD05C02FEFFB
:100550003FEF358724870BC0CE0101960E944613DA
:10056000019719F4898190E002C08FEF9FEF0F90FF
:10057000DF91CF9108952F923F924F925F926F92A9
:100580007F928F929F92AF92BF92CF92DF92EF9223
:10059000FF920F931F93CF93DF93D82FC92F8B0117
:1005A0000E94052424E630E040E050E00E946A24E6
:1005B00049015A019B01AC0160E876E988E990E0C5
:1005C0000E94DE266B017C01F80191828082ED2F72
:1005D000FC2F2191822F022E000C990BC0970A97B5
:1005E000C0F32E3239F51F0180E8882E86E9982E57
:1005F00088E9A82EB12C9AE0492E512C612C712C3F
:10060000F101C1911F010C2E000CDD0BE097CA30E7
:10061000D10580F4C501B401A30192010E946A24AE
:1006200049015A01DE010E946224C60ED71EE81E4F
:10063000F91EE6CFA5E0B0E0A70196010E9457247D
:100640006F5F7F4F8F4F9F4F23E030E040E050E0DF
:100650000E946A24F80122833383448355831682DF
:10066000DF91CF911F910F91FF90EF90DF90CF908E
:10067000BF90AF909F908F907F906F905F904F90C2
:100680003F902F900895FF920F931F93CF93DF9386
:10069000EC01FF24F39488818D3211F0F12C01C01C
:1006A0002196CE010E9405249B01AC01A4E6B0E096
:1006B0000E945724FE014991242F042E000C330B75
:1006C000205331092A303105A8F34E3241F52181FA
:1006D000022E000C330B205331092A303105F8F477
:1006E0004AE0429F8001439F100D1124012E000C0F
:1006F000220B330B600F711F821F931F0281002E8C
:10070000000C110B005311090A30110540F4012EA1
:10071000000C220B330B600F711F821F931FFF20F1
:1007200039F090958095709561957F4F8F4F9F4FD1
:10073000DF91CF911F910F91FF900895CF93DF9399
:10074000282F30E0F901EC57FE4F8491F901EB5965
:10075000FE4FD491F901EA5BFE4FC491CC2391F096
:1007600081110E945101EC2FF0E0EE0FFF1FE85CB9
:10077000FE4FA591B491EC91ED2381E090E021F43E
:1007800080E002C080E090E0DF91CF91089582E0A8
:100790000E949E03019779F481E08093E7038091A2
:1007A000E8039091E903A091EA03B091EB0301976C
:1007B000A109B1090DC01092E7038091E80390915F
:1007C000E903A091EA03B091EB030196A11DB11DCD
:1007D0008093E8039093E903A093EA03B093EB03BB
:1007E00081E08093EC0308951F93CF93DF93282F2C
:1007F00030E0F901EC57FE4F8491F901EB59FE4FBF
:10080000D491F901EA5BFE4FC491CC23C9F0162FB5
:1008100081110E945101EC2FF0E0EE0FFF1FE65D09
:10082000FE4FA591B4918FB7F894111105C09C911A
:10083000ED2FE095E92302C0EC91ED2BEC938FBFF7
:10084000DF91CF911F910895FF920F931F93CF9344
:10085000DF93EC0161E089890E94F40361E08989FA
:100860000E94F4038A890E949E03892BD9F360E0D9
:1008700089890E94F40360E089890E94F40360E0A2
:1008800089890E94F40398E0F92E00E010E0000F3F
:10089000111F61E08F850E94F4038A890E949E03E4
:1008A000892B09F0016060E08F850E94F403FA94BF
:1008B000F110EDCF61E089890E94F403C801DF9156
:1008C000CF911F910F91FF90089504970C942404E9
:1008D000CF92DF92EF92FF920F931F93CF93DF930C
:1008E000EC01E62E60E089890E94F40360E08989CA
:1008F0000E94F40360E089890E94F403DF84C888C1
:1009000007E010E0F12CB701002E02C07595679545
:100910000A94E2F7617077278C2D0E94F40361E05E
:100920008D2D0E94F40360E08D2D0E94F403015090
:10093000110948F761E089890E94F40381E090E0A1
:10094000DF91CF911F910F91FF90EF90DF90CF90AB
:100950000895CF93DF9390E0FC01EB59FE4F249173
:10096000FC01EA5BFE4F8491882361F190E0880FDF
:10097000991FFC01E45EFE4FC591D491FC01E65D38
:10098000FE4FA591B491611109C09FB7F894888179
:10099000209582238883EC912E230BC0623061F472
:1009A0009FB7F8943881822F809583238883EC91B8
:1009B0002E2B2C939FBF06C08FB7F894E8812E2B67
:1009C00028838FBFDF91CF9108958F929F92AF922E
:1009D000BF92CF92DF92EF92FF926B017C010E9457
:1009E0008E014B015C01C114D104E104F104F1F06A
:1009F0000E948E01DC01CB0188199909AA09BB0963
:100A0000883E9340A105B10570F321E0C21AD108D8
:100A1000E108F10888EE880E83E0981EA11CB11C45
:100A2000C114D104E104F10419F7DDCFFF90EF9078
:100A3000DF90CF90BF90AF909F908F9008952FB789
:100A4000F8946091F8047091F9048091FA049091FF
:100A5000FB042FBF0895CF93DF93EC018A859B851C
:100A6000AC85BD858E839F83A887B9870E941F05AB
:100A70006A837B838C839D8381E089838883DF9174
:100A8000CF9108951F920F920FB60F9211242F93BA
:100A90003F938F939F93AF93BF938091F80490916E
:100AA000F904A091FA04B091FB043091F70423E01B
:100AB000230F2D3720F40196A11DB11D05C026E896
:100AC000230F0296A11DB11D2093F7048093F80413
:100AD0009093F904A093FA04B093FB048091FC0472
:100AE0009091FD04A091FE04B091FF040196A11D18
:100AF000B11D8093FC049093FD04A093FE04B09379
:100B0000FF04BF91AF919F918F913F912F910F90D3
:100B10000FBE0F901F9018951F920F920FB60F9255
:100B200011242F933F934F935F936F937F938F93F2
:100B30009F93AF93BF93EF93FF93E0910801F091E0
:100B400009010995FF91EF91BF91AF919F918F910D
:100B50007F916F915F914F913F912F910F900FBEB9
:100B60000F901F9018951F920F920FB60F9211249D
:100B70002F933F934F935F936F937F938F939F93A5
:100B8000AF93BF93EF93FF93E0910601F0910701BC
:100B90000995FF91EF91BF91AF919F918F917F91B7
:100BA0006F915F914F913F912F910F900FBE0F90DA
:100BB0001F9018951F920F920FB60F9211242F932A
:100BC0003F934F935F936F937F938F939F93AF93D5
:100BD000BF93EF93FF93E0910401F0910501099514
:100BE000FF91EF91BF91AF919F918F917F916F9105
:100BF0005F914F913F912F910F900FBE0F901F90DB
:100C000018951F920F920FB60F9211242F933F93B6
:100C10004F935F936F937F938F939F93AF93BF9304
:100C2000EF93FF93E0910201F09103010995FF9189
:100C3000EF91BF91AF919F918F917F916F915F9154
:100C40004F913F912F910F900FBE0F901F901895CD
:100C50001F920F920FB60F9211242F933F934F9331
:100C60005F936F937F938F939F93AF93BF93EF9314
:100C7000FF93E0910001F09101010995FF91EF913F
:100C8000BF91AF919F918F917F916F915F914F91A4
:100C90003F912F910F900FBE0F901F9018951F92AC
:100CA0000F920FB60F9211242F933F934F935F93A0
:100CB0006F937F938F939F93AF93BF93EF93FF9324
:100CC0008091B900887F803609F49CC068F588322D
:100CD00009F45BC090F4803109F454C038F48823DF
:100CE00009F4F6C0883009F44DC0F6C0883109F423
:100CF0004CC0803209F45DC0EFC0803409F468C094
:100D000048F4803309F455C0883309F0E5C0809376
:100D1000D004D8C0803509F44FC0883509F45DC0CF
:100D2000883409F0D9C0D6C0883909F4C7C0A8F4FE
:100D3000883709F467C038F4883609F463C080370F
:100D400009F460C0C9C0883809F4B8C0803909F412
:100D50005FC0803809F0C0C05BC0803B09F486C02A
:100D600038F4803A09F466C0883A09F47FC0B4C008
:100D7000803C09F4A7C0883C09F4A4C0883B09F46E
:100D80008AC0AAC08091F60410C09091F5048091A9
:100D9000F404981770F5E091F50481E08E0F8093CC
:100DA000F504F0E0EC52FB4F80818093BB0085ECB2
:100DB00086C08093D0048EC0E091F50481E08E0F50
:100DC0008093F5048091BB00F0E0EC52FB4F8083F0
:100DD0009091F5048091F4046EC0E091F50481E0F7
:100DE0008E0F8093F5048091BB00F0E0EC52FB4F36
:100DF00080838091D30481116DC081E08093D204FF
:100E000084EA61C083E08093D1041092CF04CFCFF5
:100E10008091CF04803208F051C0E091CF0481E08E
:100E20008E0F8093CF048091BB00F0E0E155FB4F23
:100E30008083BDCF85EC8093BC001092D10480915B
:100E4000CF04803230F4E091CF04F0E0E155FB4F65
:100E500010826091CF0470E0E091AD04F091AE0497
:100E60008FEA94E009951092CF0436C084E0809315
:100E7000D1041092AC041092AB04E091A904F0915B
:100E8000AA0409958091AB04811105C081E080938B
:100E9000AB0410928904E091AC0481E08E0F809342
:100EA000AC04F0E0E757FB4F80818093BB0090914A
:100EB000AC048091AB04981708F479CF85E880934F
:100EC000BC000AC085EC8093BC001092D10404C021
:100ED0001092D0040E94B401FF91EF91BF91AF91A5
:100EE0009F918F917F916F915F914F913F912F9142
:100EF0000F900FBE0F901F9018951F920F920FB674
:100F00000F9211242F933F934F935F936F937F938F
:100F10008F939F93AF93BF93EF93FF938091870439
:100F200087FF05C010928500109284001BC020919D
:100F30008704022E000C330B8091180690E02817CE
:100F4000390784F480918704082E000C990BFC016A
:100F5000EE0FFF1F8E0F9F1FFC01EC50FA4F808198
:100F600086FD15C0809187048F5F80938704209150
:100F70008704022E000C330B8091180690E028178E
:100F80003907C4F4809187048C3064F113C08091D8
:100F90008704082E000C990BFC01EE0FFF1F8E0F2B
:100FA0009F1FFC01EC50FA4F808160E08F730E941C
:100FB000F403D8CF8091840090918500049680340A
:100FC0009C4918F480E49CE905C0809184009091CC
:100FD0008500049690938900809388008FEF80931A
:100FE00087043BC020918400309185008091870464
:100FF000082E000C990BFC01EE0FFF1F8E0F9F1F98
:10100000FC01EC50FA4F81819281820F931F9093E3
:1010100089008093880080918704082E000C990B2A
:10102000FC01EE0FFF1F8E0F9F1FFC01EC50FA4FCB
:10103000808186FF12C080918704082E000C990BD6
:10104000FC01EE0FFF1F8E0F9F1FFC01EC50FA4FAB
:10105000808161E08F730E94F403FF91EF91BF9153
:10106000AF919F918F917F916F915F914F913F9140
:101070002F910F900FBE0F901F901895CF92DF9277
:10108000EF92FF920F931F93CF93DF930E941F0560
:1010900002E0D1E017E087E095E00E94710C892B17
:1010A00009F4ECC287E095E00E944F0CC82F8091B4
:1010B000CF069091D006A091D106B091D2060196AC
:1010C000A11DB11D8093CF069093D006A093D106A9
:1010D000B093D206C43209F4B0C2E091C906C53259
:1010E00034F4CA3071F0CD3009F0B4C20AC0CA324B
:1010F00041F0CC3209F0AEC28091B6068C278093C5
:10110000B606EF3008F08BC2F0E0E854F94F1082D9
:101110008091B706882309F46BC12091B8063FEB94
:10112000320F822F022E000C990B363010F4C79725
:1011300007C02156263018F48755910901C0C09781
:10114000282F2295207F3091B9064FEB430F832F34
:10115000032E000C990B463010F4C79707C0315688
:10116000363018F48755910901C0C097820F9091CD
:10117000B606891329C18091DB069091DC06A09107
:10118000DD06B091DE060196A11DB11D8093DB0640
:101190009093DC06A093DD06B093DE068091CA062C
:1011A000882399F08091D3069091D406A091D5061A
:1011B000B091D6060196A11DB11D8093D3069093E0
:1011C000D406A093D506B093D606F090C706FF20AC
:1011D00009F46BC021E0F212D0C080915A069091C0
:1011E0005B06A0915C06B0915D06809356069093D5
:1011F0005706A0935806B09359060E941F056093A6
:101200005E0670935F068093600690936106F0928D
:101210005506F09254068091680690916906A09157
:101220006A06B0916B068093640690936506A0935E
:101230006606B09367060E941F0560936C06709364
:101240006D0680936E0690936F06F0926306F0929F
:1012500062068091CA06882309F48FC0E2E4F6E0B2
:10126000A4E3B6E0812F01900D928A95E1F7E9E4BD
:10127000F6E0ABE3B6E0812F01900D928A95E1F79D
:101280000E941F056093500670935106809352068A
:1012900090935306F0923306F092320680E796E080
:1012A0000E942B058EE796E066C0809168069091BB
:1012B0006906A0916A06B0916B06809364069093CC
:1012C0006506A0936606B09367060E941F056093AB
:1012D0006C0670936D0680936E0690936F06D093A4
:1012E0006306D09362068091CA06882321F1E2E466
:1012F000F6E0A4E3B6E0812F01900D928A95E1F724
:10130000E9E4F6E0ABE3B6E0812F01900D928A9517
:10131000E1F70E941F056093500670935106809379
:10132000520690935306D0933306D09332068CE83E
:1013300096E00E942B058091A4069091A506A091AD
:10134000A606B091A7068093A0069093A106A0934D
:10135000A206B093A3060E941F0560939C0670939B
:101360009D0680939E0690939F06D0939B06D093F4
:101370009A0688EA96E00E942B05E090CD06F09050
:10138000CE06E114F10409F44AC1E091CD06F091D2
:10139000CE0666A177A1F70186A197A10E942D270D
:1013A000892B09F03CC1B701C70140960E9436273E
:1013B0000E941F05F70160A371A382A393A3D5A385
:1013C000D4A3E2A4F3A4DDCF8091D7069091D806F0
:1013D000A091D906B091DA060196A11DB11D8093A6
:1013E000D7069093D806A093D906B093DA0617C112
:1013F0009091C806911146C068EA73E088EB96E0C8
:101400000E942D27892B41F06EEA73E088EB96E06D
:101410000E942D27892B19F4D093C70615C064EBC1
:1014200073E088EB96E00E942D27892B41F06AEB50
:1014300073E088EB96E00E942D27892B19F4109217
:10144000C70602C00093C7068091CB069091CC06D8
:101450009093CE068093CD06E090CD06F090CE0618
:10146000E114F10409F4DBC0F701C6A0D7A068EBD2
:1014700076E0C6010E942D2797FFC5C0F70182A51F
:1014800093A5E6CFE091C706E23009F491C08091C0
:10149000B806882309F48CC020E2E29FF0011124F1
:1014A000E92B3197E932F10508F082C0EB59FF4F83
:1014B0000C940E2788EB96E00E9443036093680625
:1014C0007093690680936A0690936B0671C091E0F1
:1014D000813409F043C043C062E476E009C091E082
:1014E000833509F090E09093480662C069E476E0A5
:1014F00088EB96E00E94BB025BC091E0873509F063
:1015000090E090934F0654C088EB96E00E9443030E
:1015100060937A0670937B0680937C0690937D0699
:1015200047C088EB96E00E9443036093880670935F
:10153000890680938A0690938B063AC088EB96E0E2
:101540000E94052460935A0670935B0680935C06A4
:1015500090935D062DC091E081330CF490E0909360
:10156000CA0626C088EB96E00E9405246093A40674
:101570007093A5068093A6069093A70619C088EBE2
:1015800096E00E9443036093B2067093B306809383
:10159000B4069093B5060CC088EB96E00E94430316
:1015A0006093960670939706809398069093990699
:1015B000E090CD06F090CE06E114F10481F1E091C7
:1015C000CD06F091CE0666A177A1F70186A197A17D
:1015D0000E942D27892B19F5F70120A531A58091AF
:1015E000C80690E082179307D4F02817390739F41A
:1015F00040E150E068EB76E0C7010E943D27F7012B
:10160000E2A4F3A4D9CF68EB76E0C6010E942D27AF
:101610001816190624F41092CE061092CD06809169
:10162000C8068F5F8093C8061092C90681E0CA324F
:1016300009F080E08093B7062ECD1092C906109273
:10164000C8061092B6060093C7061092B70610920D
:10165000CA0621CDEE3040F481E08E0F8093C9069A
:10166000F0E0E854F94FC0838091B706811113CDA3
:101670008091B606C827C093B6060DCD809171063D
:10168000882309F408CDDF91CF911F910F91FF902E
:10169000EF90DF90CF9008950C9449240C9441244E
:1016A000CF93DF93EC0161E08F850E94A90461E094
:1016B00088890E94A90461E089890E94A90461E0E7
:1016C00089890E94F40360E08F850E94F40360E042
:1016D00088890E94F4038A89882329F060E0DF91D9
:1016E000CF910C94A904DF91CF9108954091020508
:1016F00050910305209100053091010542175307D1
:10170000B4F49091E8009570E1F39091E80092FDB7
:1017100019C08093F1008091020590910305019614
:101720008F739927892B19F48EEF8093E8008091AD
:10173000020590910305019690930305809302059D
:1017400081E0089580E00895CF92DF92EF92FF92BA
:101750000F931F93CF93DF931F92CDB7DEB7182F50
:10176000062FE42E862F880F8E5F99830E94760BBA
:1017700083E00E94760BF12EC12E9981D92E8C2DFB
:101780008F19801798F4F601E7FE02C0849101C01A
:1017900080810E94760B182F80E00E94760B8123B7
:1017A000FFEFCF1ADF0A8111EACF01C081E00F906D
:1017B000DF91CF911F910F91FF90EF90DF90CF902D
:1017C0000895DF92EF92FF920F931F93CF93DF93D1
:1017D000D82E8A017B01E40EF51EEB01CE15DF0544
:1017E00071F0D7FE03C0FE01849101C088810E9480
:1017F000760B21968111F2CF8FEF9FEF01C0C801C8
:10180000DF91CF911F910F91FF90EF90DF9008959E
:10181000615030F02091F100FC0120830196F8CF57
:10182000289884E6809305050895CF92DF92EF9281
:10183000FF920F931F93CF93DF936C017A018B017B
:10184000C0E0D0E0CE15DF0589F0D8016D918D01A3
:10185000D601ED91FC910190F081E02DC601099532
:10186000892B11F47E0102C02196ECCFC701DF91D4
:10187000CF911F910F91FF90EF90DF90CF9008953F
:10188000FC01538D448D252F30E0842F90E0821B86
:10189000930B541710F0CF96089501970895FC010B
:1018A000918D828D981761F0828DDF01A80FB11D97
:1018B0005D968C91928D9F5F9F73928F90E00895BB
:1018C0008FEF9FEF0895FC01918D828D981731F075
:1018D000828DE80FF11D858D90E008958FEF9FEFC9
:1018E0000895FC01918D228D892F90E0805C9F4F9F
:1018F000821B91098F739927089587E095E00E94D4
:10190000710C21E0892B09F420E0822F0895FC015D
:10191000848DDF01A80FB11DA35ABF4F2C91848D78
:1019200090E001968F739927848FA689B7892C93AD
:10193000A089B1898C9180648C93938D848D981348
:1019400006C00288F389E02D80818F7D8083089511
:10195000EF92FF920F931F93CF93DF93EC0181E0FF
:10196000888F9B8D8C8D981305C0E889F9898081BB
:1019700085FD24C0F62E0B8D10E00F5F1F4F0F73F7
:101980001127E02E8C8DE8120CC00FB607FCFACFA1
:10199000E889F989808185FFF5CFCE010E94870C07
:1019A000F1CF8B8DFE01E80FF11DE35AFF4FF0825E
:1019B0000B8FEA89FB898081806207C0EE89FF89ED
:1019C0006083E889F98980818064808381E090E088
:1019D000DF91CF911F910F91FF90EF900895CF93DA
:1019E000DF93EC01888D8823C9F0EA89FB89808127
:1019F00085FD05C0A889B9898C9186FD0FC00FB6F9
:101A000007FCF5CF808185FFF2CFA889B9898C9139
:101A100085FFEDCFCE010E94870CE7CFDF91CF91FC
:101A2000089580E090E0892B29F00E947D0C8111BF
:101A30000C9400000895CF93DF931F92CDB7DEB7CB
:101A40006983DC01ED91FC910280F381E02D41E09E
:101A500050E0BE016F5F7F4F09950F90DF91CF91EE
:101A6000089583E08093E9008091F200882319F0C3
:101A70008AE38093E80008950E9428270F931F931C
:101A8000CF93DF931F92CDB7DEB782E0898342E424
:101A900050E063EA71E080E80E94E10B0E9481134C
:101AA000DC0112960D911C9113970115110569F037
:101AB000D801ED91FC910280F381E02DBE016F5FB2
:101AC0007F4FC801099597FF07C089810F90DF916B
:101AD000CF911F910F910895F80100851185E5CFF1
:101AE0008F929F92AF92BF92CF92DF92EF92FF922E
:101AF0000F931F93CF93DF935C016B017A01809169
:101B00002C01882309F45BC080910605882309F421
:101B100056C08091DD0380FF05C08091E0008260A7
:101B20008093E000E70110E00AEF83E0882E9AE35B
:101B3000992E2097D9F10E94701381110AC001508B
:101B400009F43DC061E070E080E090E00E94E504AF
:101B5000F0CF282F30E0C217D3070CF48C2F4FB7EB
:101B6000F8948092E9009091E80095FF1DC0282F1D
:101B700030E0C21BD30BF601982F915020F08191D9
:101B80008093F100FACFC20ED31E112319F0909268
:101B9000E80009C08091E80085FD06C09092E80049
:101BA00011E0209709F010E04FBFC3CF1111C3CF50
:101BB0005D9884E6809304051E141F0444F081E0C0
:101BC00090E0F5019383828380E090E001C0C7013B
:101BD000DF91CF911F910F91FF90EF90DF90CF9009
:101BE000BF90AF909F908F9008951F920F920FB665
:101BF0000F9211248F939F938091E1009091E100C7
:101C0000937F9093E10083FF0FC01092E90091E071
:101C10009093EB001092EC0092E39093ED00109201
:101C2000060598E09093F00082FF20C093E0909327
:101C3000E9009091F200992319F09AE39093E8005B
:101C400090910405992339F0909104059150909357
:101C50000405992389F190910505992339F0909114
:101C60000505915090930505992341F184FF10C01B
:101C70008091E2008E7E81608093E2008091E1009D
:101C80008F7E8093E1008091DD038E7E806111C0A4
:101C900080FF16C08091E2008E7E80618093E2001A
:101CA0008091E1008E7E8093E1008091DD038E7E45
:101CB00081608093DD0304C05D9ACDCF289AD6CF92
:101CC0009F918F910F900FBE0F901F9018951F92AC
:101CD0000F920FB60F921124CF92DF92EF92FF92E4
:101CE0000F931F932F933F934F935F936F937F9324
:101CF0008F939F93AF93BF93EF93FF93CF93DF9314
:101D0000CDB7DEB76C97DEBFCDBF1092E9008091F2
:101D1000E80083FFEDC168E0CE0145960E94080C03
:101D200082EF8093E8008D8987FF05C09091E800DD
:101D300090FFFCCF03C09EEF9093E800982F907621
:101D400009F0C6C09E892F89188D91110CC080386A
:101D500029F48091DE038093F10002C01092F1001B
:101D60001092F10048C1422F50E0512B913051F4B4
:101D7000811141C14130510509F03DC18091DE031F
:101D80008D7F0BC0933061F4811135C14130510515
:101D900009F031C18091DE0382608093DE032BC1A4
:101DA000953041F48091E80080FFFCCF20682093BB
:101DB000E30021C1963009F05FC0EB8CFC8C1092DF
:101DC000E9001092030510920205123091F510926D
:101DD0000105109200050E943E0D99E0BE016F5F63
:101DE0007F4FDB01E92F1D92EA95E9F799831A836A
:101DF00091E09E8390EA98879AEF99872091020557
:101E000030910305275F3F4F3C832B838D831092D6
:101E1000E9001092030510920205F0920105E0928C
:101E2000000549E050E080E00E94E10B0E943E0D79
:101E3000E2C0F0920105E09200050E948113DC01EE
:101E40001296ED90FC901397E114F10409F4C0C0D0
:101E5000D701ED91FC910480F581E02DBE016B5E10
:101E60007F4FC7010995009719F00CF0C4C0C7C097
:101E7000F701E084F184E8CF973009F4C0C09830CE
:101E800021F481E08093F100B6C0993009F0B3C02D
:101E9000837009F0B4C0E0E3F1E081E021E036E3D3
:101EA0009081992361F08093E9002093EB00919158
:101EB0009093EC003093ED008F5F873089F78EE7C9
:101EC0008093EA001092EA008F898093060593C000
:101ED0008B8D9C8D1092E9001092030510920205E3
:101EE0009093010580930005898D811156C08E89DC
:101EF0009D89913A59F4813209F081C047E050E060
:101F000065E271E080E00E94E10B75C0913209F05A
:101F100076C0833289F4888D90E0982F88272F89A6
:101F2000822BA0E0B0E08093210190932201A09346
:101F30002301B09324015FC0803269F48091E800EE
:101F400082FFFCCF67E085E291E00E94080C8BEFF6
:101F50008093E80006C0823209F04DC08F898093DB
:101F60002C018091DC03882319F0EEEFFAE002C027
:101F7000E0E0F8E08091250190912601A0912701F1
:101F8000B0912801803B9440A105B10509F07BC0C8
:101F900080912C0180FF93C076C00E948113DC01E8
:101FA00012960D911C9113970115110541F1D8015D
:101FB000ED91FC910190F081E02DBE016B5E7F4FB1
:101FC000C8010995811117C0F80100851185ECCF72
:101FD000113009F44EC0133091F48F89882309F42D
:101FE00045C0823081F440E860E187E092E00E94E1
:101FF000A40B882321F08EEF8093E80079C081E262
:102000008093EB0075C0813029F440E86BE08BEFE2
:1020100091E0EDCF833099F70E948113DC01129695
:10202000ED90FC9013978E010F5F1F4F6801E11434
:10203000F10479F0D701ED91FC910680F781E02D54
:10204000B801C7010995080F111DF701E084F1845B
:10205000EECFD8011C92F60101900020E9F73197EC
:10206000BF016C197D0940E0C601C1CF65EE71E08A
:1020700002C069EE71E06115710509F2FB0144913E
:1020800050E080E840CF0FB6F894A89580916000AA
:10209000886180936000109260000FBEA895EE3FAB
:1020A0002AE0F20739F08091FE0A9091FF0A9183AD
:1020B0008083A1CF1092FF0A1092FE0A9CCFEE3FC0
:1020C0008AE0F80731F0808191819093FF0A809334
:1020D000FE0A87E797E7918380839BE088E10FB64C
:1020E000F894A895809360000FBE9093600083CF12
:1020F0006C960FB6F894DEBF0FBECDBFDF91CF91C7
:10210000FF91EF91BF91AF919F918F917F916F91CF
:102110005F914F913F912F911F910F91FF90EF9001
:10212000DF90CF900F900FBE0F901F901895DC019D
:10213000ED91FC910190F081E02D099461157105FC
:1021400079F0FB0101900020E9F73197AF01461BC0
:10215000570BDC01ED91FC910280F381E02D099495
:1021600080E090E008954F925F926F927F92EF929D
:10217000FF920F931F93CF93DF93CDB7DEB7A19755
:102180000FB6F894DEBF0FBECDBF7C01FA01CB01C4
:1021900019A2223008F42AE08E010F5D1F4F422E53
:1021A000512C612C712CBF01A30192010E946A2461
:1021B000F901CA01015011096A3014F4605D01C0CF
:1021C000695CD8016C93232B242B252B61F7B80174
:1021D000C7010E949E10A1960FB6F894DEBF0FBEF5
:1021E000CDBFDF91CF911F910F91FF90EF907F9026
:1021F0006F905F904F9008950F931F93CF93DF934D
:10220000EC010E949E108C0163E372E0CE010E94FB
:102210009E10800F911FDF91CF911F910F91089514
:102220000C949E101F920F920FB60F9211242F93B1
:102230003F934F935F936F937F938F939F93AF934E
:10224000BF93EF93FF9387E095E00E94870CFF9187
:10225000EF91BF91AF919F918F917F916F915F911E
:102260004F913F912F910F900FBE0F901F90189597
:102270001F920F920FB60F9211242F938F939F935B
:10228000EF93FF93E0911705F09118058081E0919D
:102290001D05F0911E0582FD12C0908180912005E0
:1022A0008F5F8F7320912105821751F0E0912005F7
:1022B000F0E0E95FFA4F958F8093200501C080819F
:1022C000FF91EF919F918F912F910F900FBE0F90E3
:1022D0001F901895CF93DF93EC01E0911E06F091CB
:1022E0001F060190F081E02D8F3F910510F4682FBB
:1022F0000DC06FEF8EE196E00995E0911E06F0911A
:102300001F066C2F6F5F0190F081E02D8EE196E04B
:10231000DF91CF910994CF93DF93EC01699166230C
:1023200029F08EE196E00E946804F8CFDF91CF910A
:10233000089580EC93E00C948B1183EC93E00C9463
:102340008B11CF93DF93EC010E949D11BE018EE1B2
:1023500096E00E94101160E08EE196E0DF91CF914F
:102360000C946804CF92DF92EF92FF920F931F9329
:10237000CF93DF9377FF1DC06A017B01EC016DE213
:102380000E9497108C0144275527BA014C195D090A
:102390006E097F092AE0CE010E94B310800F911FC1
:1023A000DF91CF911F910F91FF90EF90DF90CF9031
:1023B00008952AE0DF91CF911F910F91FF90EF9048
:1023C000DF90CF900C94B310CF93DF93EC010E9479
:1023D0009D11AE01DD0F660B770B8EE196E00E943A
:1023E000B21160E08EE196E0DF91CF910C94680429
:1023F0008F929F92AF92BF92CF92DF92EF92FF9215
:102400006B017C010E949D11A7019601C701B601D5
:102410000E94D926882319F066EC73E01AC04601A1
:102420005701E894B7F82FEF3FEF4FE75FE7C5019B
:10243000B4010E94D926811111C02FEF3FEF4FE761
:102440005FE7C501B4010E94082518163CF46AEC48
:1024500073E08EE196E00E949E107DC02FEF3FEF6B
:102460004FE75FE4C701B6010E94672618161CF407
:102470006EEC73E0EECF2FEF3FEF4FE75FECC7015D
:10248000B6010E94082587FDF3CF20E030E0A901C6
:10249000C701B6010E94082587FF09C06DE28EE1E1
:1024A00096E00E949710F7FAF094F7F8F0942AE07B
:1024B00037ED43EA5BE3C701B6010E949C244B0160
:1024C0005C010E9486256B017C010E94B5259B0161
:1024D000AC01C501B4010E949B244B015C012AE0C0
:1024E000B701A6018EE196E00E94B3106EE28EE184
:1024F00096E00E94971020E030E040E251E4C501F0
:10250000B4010E946C264B015C010E9486256B0180
:10251000E12CF12C2AE0B701A6018EE196E00E94A1
:10252000B310C701B6010E94B5259B01AC01C501DE
:10253000B4010E949B2420E030E040E251E40E947C
:102540006C260E948625AB0160E070E02AE08EE1F7
:1025500096E00E94B31060E08EE196E0FF90EF906D
:10256000DF90CF90BF90AF909F908F900C946804B5
:10257000CF93DF93D82FC62F82ED93E00E948B116B
:102580006D2F8EE196E00E9468046C2F8EE196E03C
:10259000DF91CF910C946804AC0190911B069C30A4
:1025A00090F580911C0628E830E0281B310987FD52
:1025B0003395220F331F220F331F4217530784F026
:1025C00080911D0628E532E0281B310987FD3395EF
:1025D000220F331F220F331F421753070CF49A01A7
:1025E00022503109220F331F4FB7F894892F90E002
:1025F000FC01EE0FFF1F8E0F9F1FFC01EC50FA4FE6
:10260000328321834FBF08950F931F93CF93DF939E
:102610008C01EB0186ED93E00E948B11C8010E94B2
:102620006A11CE01DF91CF911F910F910C946A1125
:10263000CF93DF931F92CDB7DEB7682F89ED93E07C
:1026400069830E948B11E0911E06F0911F06019094
:10265000F081E02D69818EE196E00F90DF91CF91BE
:102660000994CF93DF93AB01BC012AE084EA95E0A3
:102670000E94B310EC0163E372E084EA95E00E94EB
:102680009E108C0F9D1FDF91CF910895FC018091CA
:102690000605811103C08FEF9FEF08959FB7F8944F
:1026A00082E08093E9002091F20030E012161306D8
:1026B00014F421E030E02115310559F0289884E622
:1026C000809305058091F10080838091F20088233A
:1026D00019F09FBFC90108958BE68093E800F9CFF8
:1026E0002FB7F89483E08093E9009091E800892F58
:1026F000807295FF04C09091F20080E4891B2FBF87
:1027000008958091E30681110DC082E08093DF0679
:1027100084E08093E0061092E2061092E10681E0E8
:102720008093E3068FED96E00895CF93DF93CDB7C6
:10273000DEB728970FB6F894DEBF0FBECDBF7894F2
:1027400084B5826084BD84B5816084BD85B58260B6
:1027500085BD85B5816085BD80916E008160809367
:102760006E001092810080918100826080938100D0
:1027700080918100816080938100809180008160E0
:10278000809380008091910082608093910080917D
:10279000910081608093910080919000816080938E
:1027A00090008091C10084608093C1008091C1003D
:1027B00082608093C1008091C10081608093C100DC
:1027C0008091C30081608093C3008091C0008260CB
:1027D0008093C0008091C20081608093C20080918C
:1027E0007A00846080937A0080917A00826080937E
:1027F0007A0080917A00816080937A0080917A00DB
:10280000806880937A00109206051092DE03109281
:10281000DD038091D70081608093D70080EA8093A8
:10282000D80089B5806189BD89B5826089BD09B448
:1028300000FEFDCF61E070E080E090E00E94E504E2
:102840008091D8008F7C80618093D8008091E000D7
:10285000807F8093E0008091E1008E7E8093E10094
:102860008DE08093E200559A209AEEEFFFE7859184
:1028700094918B3F9C4D19F481E08093DC038FEFA2
:102880009FEF9093B1058093B005E0911705F0910B
:10289000180582E08083E0911305F0911405108201
:1028A000E0911505F09116058FEC808310921F05BD
:1028B000E0911B05F0911C0586E08083E0911905ED
:1028C000F0911A05808180618083E0911905F09173
:1028D0001A05808188608083E0911905F0911A05BE
:1028E000808180688083E0911905F0911A058081CC
:1028F0008F7D808360ED77E080E090E00E94E504CA
:102900008EE196E00E94500B0E94991164E670E0FF
:1029100080E090E00E94E50484E891E00E94A1112B
:1029200064E670E080E090E00E94E5040E94991166
:1029300064E670E080E090E00E94E5048FEB91E0B7
:102940000E94A11164E670E080E090E00E94E5043E
:102950008BE692E00E94A11164E670E080E090E0D6
:102960000E94E50489E991E00E94A11168EE73E0FC
:1029700080E090E00E94E5048AE00E94181364E081
:1029800070E080E090E00E94041384EA91E00E94ED
:10299000A11161E77DE384E891E40E94F81168E504
:1029A0007BE180E090E00E94E5040E9499118EEAAC
:1029B00091E00E94A11160E082E00E94A90460E021
:1029C00083E00E94A90462E084E00E94A90487ECED
:1029D00093E09093010180930001809169008360EE
:1029E00080936900E89A89E192E0909309018093CD
:1029F000080180916A008F7C806180936A00EE9A62
:102A000080911B068C3008F051C061E085E00E9487
:102A1000A90480911B06E82FF0E09F01220F331FCD
:102A2000E20FF31FEC50FA4F9081907C95609083F9
:102A300010921C0610921D066CE00E94EE263CE0EF
:102A4000839FB001112440E050E09A01260F371F08
:102A5000F901EE0FFF1F2E0F3F1FF901EC50FA4F47
:102A6000908196FD16C04F5F5F4F4C30510569F75E
:102A700081110FC01092800082E08093810010923B
:102A8000850010928400B19A80916F0082608093DB
:102A90006F00E0911B06F0E0CF01880F991FE80F4F
:102AA000F91FEC50FA4F8081806480838091190671
:102AB00090911A060E94CC128BE090E00E944E0B7F
:102AC0008F3F29F090E090931401809313018CE0E4
:102AD00090E00E944E0B8F3F29F090E090930B0105
:102AE00080930A018DE090E00E944E0B8F3F29F009
:102AF00090E09093100180930F018EE090E00E948F
:102B00004E0B8F3F29F090E090930E0180930D01C2
:102B10008FE090E00E944E0B8F3F49F028E130E0BB
:102B2000A901481B5109509312014093110180E102
:102B300090E00E944E0B8F3F41F05AE0859FC0010C
:102B400011249093200180931F0181E190E00E9465
:102B50004E0B8F3F41F0AAE08A9FC0011124909351
:102B60002E0180932D0182E190E00E944E0B8F3F59
:102B700031F091E0811101C090E090930C018DE162
:102B800090E00E944E0B8F3F31F091E0811101C027
:102B900090E0909319018EE190E00E944E0B8F3FE0
:102BA00041F0B4E68B9FC001112490931E018093E5
:102BB0001D018FE190E00E944E0B8F3F31F091E0BC
:102BC000811101C090E09093130461EC71E087E003
:102BD00095E00E94FC1063EF71E087E095E00E94B1
:102BE000FC1063E072E084EA95E00E94FC1004E6C9
:102BF00010E022242A94322C80917E04882339F01C
:102C000060E08DE00E94F40310927E0407C061E052
:102C10008DE00E94F40381E080937E0460E172E025
:102C200084EA95E00E9410110E941F050E94311352
:102C30000E943E086CE172E084EA95E00E94101167
:102C40000E941F050E94311380917006882301F1B4
:102C500010927106609176067091770680917806E1
:102C6000909179060E94B7252EEB3CE443E95FE39F
:102C70000E946C2620E030E048EC52E40E940D25D2
:102C800060937A0470937B0480937C0490937D041A
:102C900020E030E048EC52E460917A0470917B04CB
:102CA00080917C0490917D040E946C260E947F2577
:102CB000709379046093780467E272E084EA95E0A7
:102CC0000E9410114091780450917904052E000C57
:102CD000660B770B84EA95E00E94B21163E372E021
:102CE00084EA95E00E949E108090E3039090E403B4
:102CF000A090E503B090E6036091DF037091E003DC
:102D00008091E1039091E2031092E3031092E403B7
:102D10001092E5031092E6031092DF031092E00395
:102D20001092E1031092E2030E94B52520E03BE1FE
:102D300047EB5AE40E946C266B017C01C501B4018B
:102D40000E94B5259B01AC01C701B6010E940D256B
:102D50006B017C016091130170911401072E000C2E
:102D6000880B990B0E94B7259B01AC01C701B601E6
:102D70000E940D250E947F259B01AC01AAE0B0E0D6
:102D80000E945724CB01770FAA0BBB0B80937404CE
:102D900090937504A0937604B0937704C397A1052C
:102DA000B10524F10E941F05C0906C04D0906D0401
:102DB000E0906E04F0906F04809070049090710425
:102DC000A0907204B0907304C818D908EA08FB08F0
:102DD000DC01CB018C0D9D1DAE1DBF1D80936C04CD
:102DE00090936D04A0936E04B0936F040E941F052E
:102DF00060937004709371048093720490937304D1
:102E00002091190630911A0680911F01909120019E
:102E10002817390709F085C0C0906804D09069046C
:102E2000E0906A04F0906B040E941F05C616D70656
:102E3000E806F90608F075C00E941F05DC01CB0109
:102E40008053984FAF4FBF4F8093680490936904AD
:102E5000A0936A04B0936B0482E10E94181360E0AF
:102E600070E080E090E00E94041386E392E00E940C
:102E7000A11161E070E080E090E00E94041389E419
:102E800092E00E94A1110E943E0880917006882362
:102E900001F110927106609176067091770680912B
:102EA0007806909179060E94B7252EEB3CE443E921
:102EB0005FE30E946C2620E030E048EC52E40E9480
:102EC0000D2560937A0470937B0480937C04909327
:102ED0007D0420E030E048EC52E460917A04709187
:102EE0007B0480917C0490917D040E946C260E945A
:102EF0007F25709379046093780460E070E080E04F
:102F000090E00E9404138CE592E00E94A11161E020
:102F100070E080E090E00E9404138CE592E00E9453
:102F2000A111E4E5F4E0929182919383828324E0FD
:102F3000E034F207C1F7209178043091790430939E
:102F4000410420934004ECE4F4E080E090E05291EE
:102F50004291840F951F44E0E034F407C1F766E026
:102F600070E00E94FA2670933F0460933E04EAE208
:102F7000F4E0929182919383828354E0E631F507E5
:102F8000C1F7C0907404D0907504E0907604F0907E
:102F90007704D0921704C092160480911404909183
:102FA00015048230910509F0AEC0809142049091E1
:102FB00043042901481A590A420E531E5092EE0347
:102FC0004092ED0380911D0190911E01481A590A0B
:102FD000052C000C6608770844275527421B530B25
:102FE000052E000C660B770B281B390BC9018B567D
:102FF0009F4F8B32914038F4E2E0440F551F661F1B
:10300000771FEA95D1F74093F7035093F803609345
:10301000F9037093FA032B5B3F4F2B383105A0F473
:103020002091F7033091F8034091F9035091FA038E
:10303000A5E0B0E00E9457246093F7037093F80373
:103040008093F9039093FA03B7E94B165104610496
:1030500071042CF036E9432E512C612C712CEAE6D8
:103060004E16EFEF5E066E067E0634F42AE6422E1A
:1030700055245A94652C752C4092F3035092F40316
:103080006092F5037092F60360910D0170910E014C
:10309000072E000C880B990B0E94B7256B017C0151
:1030A00060910A0170910B01072E000C880B990B9F
:1030B0000E94B7254B015C01C301B2010E94B725F4
:1030C0009B01AC01C501B4010E946C2620E030E0F8
:1030D00040E251E40E940D254B015C0160910F011B
:1030E00070911001072E000C880B990B0E94B725D8
:1030F0002B013C016091F7037091F8038091F90373
:103100009091FA0380C08130910509F0D0C0809180
:10311000FB039091FC03092E000CAA0BBB0B9C0136
:10312000AD012C193D094E095F0929833A834B8370
:103130005C832093F7033093F8034093F903509393
:10314000FA0340911A0450911B0420911804309105
:103150001904240F351FC9018C0D9D1D63E070E01B
:103160000E94FA267093FC036093FB0380911A017E
:1031700090911B012B01481A590A052C000C660876
:1031800077084092F3035092F4036092F503709233
:10319000F60360910D0170910E01072E000C880B53
:1031A000990B0E94B7256B017C0160910A01709117
:1031B0000B01072E000C880B990B0E94B7254B01C1
:1031C0005C01C301B2010E94B7259B01AC01C5019E
:1031D000B4010E946C2620E030E040E251E40E94FD
:1031E0000D254B015C0160910F0170911001072EBC
:1031F000000C880B990B0E94B7252B013C016981BB
:103200007A818B819C810E94B7259B01AC01C3010F
:10321000B2010E946C2620E030E040E251E40E94BE
:103220000D259B01AC01C501B4010E949B249B01AB
:10323000AC01C701B6010E946C2620E030E048ECEA
:1032400052E40E940D250E947F257093F203609343
:10325000F1032091EF033091F003620F731F20916F
:103260002D0130912E014AE0429FC001439F900DF5
:1032700011246817790774F080911F019091200143
:10328000489F9001499F300D1124CB012617370725
:103290000CF4C9019093F0038093EF036AE070E0AF
:1032A0000E94FA2670931A06609319060AC0892BA9
:1032B00041F480912D0190912E0190931A068093F4
:1032C0001906209113048091190690911A06222361
:1032D00071F040912D0150912E0120911F013091EC
:1032E0002001240F351FA901481B590BCA010E9458
:1032F000CC1280911204882309F46FC06FE672E04B
:1033000084EA95E00E9410110E941F05AB01BC01E8
:103310002AE084EA95E00E94B31066E772E084EA4E
:1033200095E00E9410114091780450917904052E87
:10333000000C660B770B84EA95E00E94B21160E8FE
:1033400072E084EA95E00E94101140911D015091B5
:103350001E01052E000C660B770B84EA95E00E9497
:10336000B2116EE872E084EA95E00E94101140917B
:10337000740450917504609176047091770484EA26
:1033800095E00E94B21165E972E084EA95E00E943E
:10339000101140911A0150911B01052E000C660B73
:1033A000770B84EA95E00E94B21163EA72E084EA46
:1033B00095E00E9410114091190650911A06052EB1
:1033C000000C660B770B84EA95E00E94B21163E370
:1033D00072E084EA95E00E949E1080911D01909118
:1033E0001E016AE070E00E94FA2670931104609357
:1033F000100480917804909179046AE070E00E9452
:10340000FA2670930F0460930E0480911C018823A8
:1034100009F4F6C110926306C0906406D090650668
:10342000E0906606F0906706C701B60120E432E43A
:103430004FE050E00E946A2430E0809111019091A9
:103440001201281B390B37FF02C0285E3F4F309313
:10345000090420930804C701B60120E137E240E0E7
:1034600050E00E946A2494E6892E912CA12CB12C64
:10347000CA01B901A50194010E946A24709307044E
:1034800060930604C701B601A50194010E946A2455
:10349000CA01B901A50194010E946A247093FE0338
:1034A0006093FD038AE00E94181361E070E080E001
:1034B00090E00E94041380910804909109040E94F6
:1034C000E4118AEA92E00E94A11180910604909191
:1034D00007040A9724F48CEA92E00E94A1118091DB
:1034E0000604909107040E94E4118AEA92E00E9487
:1034F000A1118091FD039091FE030A9724F48CEAB8
:1035000092E00E94A1118091FD039091FE030E9420
:10351000E41182E692E00E94A1118AE00E94181351
:1035200062E070E08AE090E00E9404136AEF80E0BD
:103530000E94B81286E00E9418138AE00E941813B5
:1035400063E070E082E190E00E9404136EEF82E09D
:103550000E94B8128EEA92E00E94A11164E070E02D
:1035600082E190E00E9404136DEF82E00E94B812A5
:1035700080910C01882319F082EB92E002C086EB67
:1035800092E00E94A11160E070E080E090E00E9473
:1035900004138AEB92E00E94A11120911906309148
:1035A0001A0680911F01909120012817390719F4FC
:1035B00081EC92E009C040912D0150912E01241719
:1035C000350729F486EC92E00E94A1110FC06AE051
:1035D00070E00E94FA26FB01C90166EF7FEF0E94AE
:1035E000FA26CF01860F971F0E94E4118CE692E025
:1035F0000E94A11182E10E94181360E070E087E050
:1036000090E00E9404138091140490911504892B7A
:1036100021F48CEC92E00E94A1118091140490910D
:103620001504019751F480911A0190911B010E9499
:10363000E41184ED92E00E94A11180911404909114
:103640001504029721F580911004909111046AE00D
:1036500070E00E94FA26CB010E94E4118FEB91E00A
:103660000E94A11180911004909111046AE070E011
:103670000E94FA260E94E41180910C01882319F01F
:1036800082EB92E002C086EB92E00E94A1118AE0F8
:103690000E94181362E070E080E090E00E94041342
:1036A00088ED92E00E94A11160E070E0CB010E94E1
:1036B000F8118CE692E00E94A11164E070E080E0D5
:1036C00090E00E9404138BED92E00E94A11180E033
:1036D00090E00E94E41180911901882319F080EE96
:1036E00092E002C084EE92E00E94A11165E070E0D9
:1036F00080E090E00E94041380EA93E00E94A11110
:1037000080E090E00E94E41180911901882319F073
:1037100080EE92E002C084EE92E00E94A11166E089
:1037200070E080E090E00E94041387EE92E00E9437
:10373000A1114091740450917504609176047091C8
:1037400077044D835E836F8378870E949D114D813E
:103750005E816F8178858EE196E00E94B21160E013
:103760008EE196E00E9468048AE692E00E94A11130
:1037700060E070E080E090E00E9404138BEC0E9417
:10378000181360E070E080E090E00E94041366E1AE
:103790008EE20E94B81280910E0490910F0484363C
:1037A000910564F40E949D1160E38EE196E00E9411
:1037B000971060E08EE196E00E94680480910E040C
:1037C00090910F046AE070E00E94FA26CB010E94FB
:1037D000E41189EC0E94181360E070E080E090E052
:1037E0000E9404136BE28FE60E94B81280910E04CF
:1037F00090910F046AE070E00E94FA260E94E411A2
:103800008091EC03882309F450C0809114049091B6
:10381000150482309105F9F42091E8033091E90311
:103820004091EA035091EB0360911D0170911E01DC
:103830006B01770FEE08FF08AAE0B0E00E94572462
:10384000DC01CB018C0D9D1DAE1DBF1D90931E0193
:1038500080931D0120C00197F1F42091E80330917D
:10386000E9034091EA035091EB0360911A017091D2
:103870001B016B01770FEE08FF08AAE0B0E00E9481
:103880005724DC01CB018C0D9D1DAE1DBF1D9093F7
:103890001B0180931A011092E8031092E903109221
:1038A000EA031092EB031092EC0384E00E949E0363
:1038B00020910C0430910D04892B39F42F5F3F4F78
:1038C00030930D0420930C0425C012161306F4F453
:1038D00080911404909115040196833091052CF485
:1038E000909315048093140404C010921504109250
:1038F000140480911C01811104C010920B041092D9
:103900000A0481E080931C010E94991110920D0419
:1039100010920C0480910C0490910D0408975CF0B7
:103920000E9499118AE00E94181364EF71E080E010
:1039300090E00E94E504FF24F39488E1E82E809152
:103940000C0490910D0408970CF4A1C48AE00E9425
:10395000181360E070E080E090E00E940413809112
:10396000170190911801019761F48CEE92E00E948A
:10397000A11180911F019091200190931A068093CC
:1039800019068FEE92E00E94A11180911304882302
:1039900029F080912D0190912E0104C080911F018A
:1039A000909120010E94E4118AE692E00E94A11108
:1039B0006AE070E080E090E00E94E50461E070E081
:1039C00080E090E00E94041380911701909118010B
:1039D000029761F48CEE92E00E94A11180912D017A
:1039E00090912E0190931A06809319068DEF92E024
:1039F0000E94A11180911304882329F080911F0156
:103A00009091200104C080912D0190912E010E947F
:103A1000E4118CE692E00E94A1116AE070E080E07F
:103A200090E00E94E50462E070E080E090E00E9497
:103A300004138091170190911801039721F48CEEE3
:103A400092E00E94A1118BE093E00E94A11183E11A
:103A500093E00E94A1112091130480911906909186
:103A60001A06222371F040912D0150912E012091D0
:103A70001F0130912001240F351FD901A81BB90B5C
:103A8000CD010E94E41185E193E00E94A1116AE05A
:103A900070E080E090E00E94E50480911701909131
:103AA0001801039761F52091190630911A0680914B
:103AB0002D0190912E018217930734F081E090E060
:103AC000909316018093150180911F019091200120
:103AD0002817390724F030921601209215014091E1
:103AE0001501509116016AE0649FC001659F900D19
:103AF0001124820F931F90931A0680931906209128
:103B000013048091190690911A06222371F04091B6
:103B10002D0150912E0120911F0130912001240F81
:103B2000351FA901481B590BCA010E94CC1286E01F
:103B30000E94181365E070E080E090E00E9404139A
:103B40008091170190911801049721F48CEE92E076
:103B50000E94A1118CE193E00E94A11180911301B8
:103B6000909114010E94E4118AE692E00E94A11152
:103B70006AE070E080E090E00E94E50466E070E0BA
:103B800080E090E00E940413809117019091180149
:103B9000059721F48CEE92E00E94A11187E293E058
:103BA0000E94A11180911101909112010E94E411D3
:103BB0008AE692E00E94A1116AE070E080E090E065
:103BC0000E94E50467E070E080E090E00E9404134A
:103BD0008091170190911801069721F48CEE92E0E4
:103BE0000E94A11182E393E00E94A111809113042D
:103BF00090E00E94E4118BE692E00E94A1116AE03D
:103C000070E080E090E00E94E50468E070E080E011
:103C100090E00E940413809117019091180107977A
:103C200021F48CEE92E00E94A1118BE393E00E94BC
:103C3000A11180910F01909110010E94E4118AE678
:103C400092E00E94A1116AE070E080E090E00E94A2
:103C5000E50469E070E080E090E00E940413809148
:103C6000170190911801089721F48CEE92E00E94C0
:103C7000A11182E493E00E94A11180910D01909125
:103C80000E010E94E4118AE692E00E94A1116AE00E
:103C900070E080E090E00E94E50465E070E081E182
:103CA00090E00E94041380911701909118010997E8
:103CB00021F48CEE92E00E94A11189E493E00E942D
:103CC000A11180911D0190911E01B8010E94FA2658
:103CD000CB010E94E4118CE692E00E94A1116AE0FF
:103CE00070E080E090E00E94E50466E070E081E131
:103CF00090E00E94041380911701909118010A9797
:103D000021F481E593E00E94A11185E593E00E94F2
:103D1000A11180910C01882319F082EB92E002C07E
:103D200086EB92E00E94A1118CE692E00E94A11124
:103D30006AE070E080E090E00E94E50467E070E0F7
:103D400081E190E00E940413809117019091180185
:103D50000B9721F48CEE92E00E94A1118CE593E088
:103D60000E94A11180911901882319F081E092E04D
:103D700002C08AED93E00E94A1118CE692E00E94BD
:103D8000A1116AE070E080E090E00E94E50468E044
:103D900070E081E190E00E940413809117019091FE
:103DA00018010C9721F48CEE92E00E94A11182E69A
:103DB00093E00E94A1118091120490E00E94E4110E
:103DC0006AE070E080E090E00E94E50469E070E065
:103DD00081E190E00E94041389E693E00E94A11122
:103DE00061E77DE384E891E40E94F81169E070E006
:103DF0008DE190E00E94041386E00E9418138091E8
:103E00000404909105040E94E4118DE692E00E9462
:103E1000A11180911701909118010E94E4118091E5
:103E2000EC03882309F424C10E941F05809000043C
:103E300090900104A0900204B0900304DC01CB0137
:103E400088199909AA09BB090897A105B10508F4C1
:103E50000FC10E941F0560930004709301048093BA
:103E60000204909303049091E7038091FF03981359
:103E7000F9C02091E7038091170190911801222346
:103E800009F463C08130910529F4209113042223A1
:103E900041F012C082309105D1F420911304222305
:103EA00059F020911F01309120012A50310930939F
:103EB000200120931F012BC020912D0130912E0154
:103EC0002A50310930932E0120932D0120C08430D7
:103ED000910559F4209113013091140121503109B9
:103EE00030931401209313011CC08530910559F4BF
:103EF00020911101309112012150310930931201AA
:103F00002093110117C08630910509F462C08730F3
:103F1000910539F420910F013091100121503109A0
:103F200067C08830910531F480910D0190910E01A8
:103F300001976BC08930910509F07AC080911D010D
:103F400090911E01845691096EC08130910529F42B
:103F500020911304222341F012C082309105D1F444
:103F600020911304222359F020911F013091200148
:103F7000265F3F4F3093200120931F0130C02091D6
:103F80002D0130912E01265F3F4F30932E0120935B
:103F90002D0125C08430910559F4209113013091F1
:103FA00014012F5F3F4F309314012093130125C05C
:103FB0008530910559F420911101309112012F5F44
:103FC0003F4F309312012093110124C08630910598
:103FD00031F4209113042F252093130432C087302D
:103FE000910559F420910F01309110012F5F3F4F3F
:103FF0003093100120930F012DC08830910551F4AA
:1040000080910D0190910E01019690930E01809385
:104010000D012CC08930910559F480911D019091BA
:104020001E018C599F4F90931E0180931D011EC04D
:104030008A30910531F480910C018F2580930C0119
:1040400015C08B30910531F4809119018F25809333
:1040500019010CC00C9751F4809112048F258093A4
:10406000120404C08091E7038093FF031092EC03D5
:1040700084E00E949E03892B41F56AEF70E080E0A6
:1040800090E00E94E50484E00E949E038130910547
:1040900091F420911701309118012C3031052CF04A
:1040A000909318018093170106C02F5F3F4F309304
:1040B0001801209317018091040490910504019642
:1040C000909305048093040404C010920504109298
:1040D0000404809104049091050405970CF42FCCFE
:1040E00010920D0410920C04109205041092040416
:1040F00081E090E090931801809317010E9499113C
:104100008BE090E00E944E0B6091130170911401BE
:1041100090E08617970721F08BE090E00E944C0B0F
:104120008CE090E00E944E0B60910A0170910B01AF
:1041300090E08617970721F08CE090E00E944C0BEE
:104140008DE090E00E944E0B60910F017091100184
:1041500090E08617970721F08DE090E00E944C0BCD
:104160008EE090E00E944E0B60910D0170910E0167
:1041700090E08617970721F08EE090E00E944C0BAC
:104180008FE090E00E944E0B2091110130911201BE
:1041900090E048E150E0421B530B8417950731F043
:1041A0006E2D621B8FE090E00E944C0B80E190E04E
:1041B0000E944E0B282F80911F01909120016AE0F0
:1041C00070E00E94FA26822F90E08617970721F070
:1041D00080E190E00E944C0B81E190E00E944E0B48
:1041E000282F80912D0190912E016AE070E00E94AD
:1041F000FA26822F90E08617970721F081E190E060
:104200000E944C0B82E190E00E944E0B60910C01E9
:10421000861721F082E190E00E944C0B8DE190E046
:104220000E944E0B60911901861721F08DE190E0FC
:104230000E944C0B8EE190E00E944E0B282F809143
:104240001D0190911E01B8010E94FA26822F90E074
:104250008617970771F08EE190E00E944C0B6FE695
:1042600073E084EA95E00E9410110E941F050E94ED
:1042700031138FE190E00E944E0B6091130486177A
:1042800009F45DCB8FE190E00E944C0B58CB8091FC
:10429000740490917504A0917604B0917704C2974C
:1042A000A105B10554F480910A0490910B04019684
:1042B00090930B0480930A0404C010920B04109294
:1042C0000A0480911C018111E8C088E70E9418133C
:1042D00060E070E080E090E00E9404136FE084E111
:1042E0000E94B81280910804909109040E94E41180
:1042F0008AEA92E00E94A11180910604909107043D
:104300000A9724F48CEA92E00E94A111809106049D
:10431000909107040E94E4118CE692E00E94A111A2
:1043200086E00E94181362E070E080E090E00E9456
:10433000041360E080E00E94B8128AE00E94181323
:1043400060E070E080E090E00E94041389E793E071
:104350000E94A11160916C0470916D0480916E04B3
:1043600090916F0420E63AEE40E050E00E946A240B
:10437000BA01A9014D835E836F8378870E949D11E6
:104380002AE04D815E816F8178858EE196E00E9402
:10439000B31060E08EE196E00E9468040E949D11D7
:1043A00065E873E08EE196E00E94FC1060E08EE12B
:1043B00096E00E9468048AE893E00E948B1164E111
:1043C00070E080E090E00E94E50466E070E080E04C
:1043D00090E00E9404138EE893E00E94A11180E017
:1043E00090E00E94E41180911901882319F083E97B
:1043F00093E002C08AED93E00E94A11185E993E069
:104400000E94A11160E070E0CB010E94F8118CE9DC
:1044100093E00E94A11165E070E080E090E00E94CE
:1044200004138BED92E00E94A11180E090E00E94C5
:10443000E41180911901882319F083E993E002C007
:104440008AED93E00E94A1118FE993E00E94A111EF
:1044500080E090E00E94E41180911901882319F016
:1044600085EA93E002C084EE92E00E94A11180915F
:10447000740490917504A0917604B0917704853FFF
:104480009140A105B1054CF010920B0410920A0462
:1044900081E080931C010E9499110E94110D0C94DF
:1044A000FC150F931F93CF93DF93EC01162F60E061
:1044B000812F0E94A904612F70E0FB01EB59FE4F90
:1044C000E491E883FB01EA5BFE4FE491F0E0EE0F3C
:1044D000FF1FE85CFE4F859194919A8389831B8628
:1044E0001D861C86FE013B968E010D5F1F4F1292AA
:1044F000E017F107E1F7DF91CF911F910F91089538
:1045000010920A051092090588EE93E0A0E0B0E051
:1045100080930B0590930C05A0930D05B0930E05A9
:104520002AE331E030930805209307052DEC30E0B5
:1045300030931405209313052CEC30E030931605CE
:104540002093150528EC30E03093180520931705CB
:1045500029EC30E030931A05209319052AEC30E05D
:1045600030931C0520931B052EEC30E030931E0584
:1045700020931D051092200510922105109222050E
:10458000109223051092A7051092A6058093A80506
:104590009093A905A093AA05B093AB052CE431E054
:1045A0003093A5052093A4052FEF3FEF3093B1057D
:1045B0002093B0051092EE061092ED068093EF0660
:1045C0009093F006A093F106B093F2068EE591E089
:1045D0009093EC068093EB0610923206109233060D
:1045E0001092350610923406109236061092370655
:1045F000109238061092390610923A0610923C0634
:1046000010923B0610923D0610923E0610923F0615
:1046100010924006109241061092430610924206F4
:1046200010924406109245061092460610924706D4
:104630001092480610924A061092490610924B06B4
:1046400010924C0610924D0610924E0610924F0694
:104650001092540610925506109256061092570664
:104660001092580610925906109262061092630634
:104670001092640610926506109266061092670604
:1046800010927006109271061092760610927706BC
:10469000109278061092790610927E0610927F068C
:1046A0001092840610928506109286061092870654
:1046B00010928C0610928D0610929206109293061C
:1046C000109294061092950610929A0610929B06EC
:1046D0001092A0061092A1061092A2061092A306B4
:1046E0001092A8061092A9061092AE061092AF067C
:1046F0001092B0061092B1061092B6061092B7064C
:1047000082E08093C7061092C8061092C9061092E4
:10471000CA061092CC061092CB061092CE061092CA
:10472000CD061092CF061092D0061092D1061092AC
:10473000D2061092D3061092D4061092D50610928B
:10474000D6061092D7061092D8061092D90610926B
:10475000DA061092DB061092DC061092DD0610924B
:10476000DE061092B806109221061092200680E70D
:1047700091E090931F0680931E0680E891E090934D
:1047800023068093220688E080932D0689E080939B
:104790002E068AE080932F06109230068EE196E076
:1047A0000E94500B66E183E197E00E9451226BE08A
:1047B00085E097E00E9451226CE087EF96E00E942E
:1047C0005122809118068C30A0F491E0980F9093BC
:1047D000180680931B0690E0FC01EE0FFF1F8E0F62
:1047E0009F1FFC01EC50FA4F88EB9BE09283818382
:1047F00003C08FEF80931B0680912D0190912E01B5
:1048000090931A068093190608951F93FC01992727
:104810008827BC01E89411911032E9F3193010F0A7
:104820001E30C8F31B3251F01D3249F4689406C0A3
:104830000E942C24610F711D811D911D1191105337
:104840001A30B0F33EF490958095709561957F4F46
:104850008F4F9F4F1F910895592F482F372F262F85
:10486000660F771F881F991F660F771F881F991F74
:10487000620F731F841F951F660F771F881F991F74
:104880000895F999FECF92BD81BDF89A992780B518
:104890000895262FF999FECF1FBA92BD81BD20BD84
:1048A0000FB6F894FA9AF99A0FBE019608950E94ED
:1048B0008C24A59F900DB49F900DA49F800D911DF9
:1048C00011240895B7FF0C9457240E945724821B8B
:1048D000930B0895A1E21A2EAA1BBB1BFD010DC06C
:1048E000AA1FBB1FEE1FFF1FA217B307E407F507A0
:1048F00020F0A21BB30BE40BF50B661F771F881F7C
:10490000991F1A9469F760957095809590959B0111
:10491000AC01BD01CF010895A29FB001B39FC001BA
:10492000A39F700D811D1124911DB29F700D811DDB
:104930001124911D08955058BB27AA270E94B32423
:104940000C942D260E941F2638F00E94262620F067
:1049500039F49F3F19F426F40C941C260EF4E095CC
:10496000E7FB0C941626E92F0E943E2658F3BA174F
:10497000620773078407950720F079F4A6F50C9475
:1049800060260EF4E0950B2EBA2FA02D0B01B90175
:1049900090010C01CA01A0011124FF27591B99F0B5
:1049A000593F50F4503E68F11A16F040A22F232FC1
:1049B000342F4427585FF3CF469537952795A79511
:1049C000F0405395C9F77EF41F16BA0B620B730BB8
:1049D000840BBAF09150A1F0FF0FBB1F661F771F29
:1049E000881FC2F70EC0BA0F621F731F841F48F4DE
:1049F000879577956795B795F7959E3F08F0B0CF67
:104A00009395880F08F09927EE0F9795879508954D
:104A10000E94F22508F481E008950E9421250C945B
:104A20002D260E94262658F00E941F2640F029F4C9
:104A30005F3F29F00C94162651110C9461260C94BA
:104A40001C260E943E2668F39923B1F3552391F367
:104A5000951B550BBB27AA2762177307840738F0ED
:104A60009F5F5F4F220F331F441FAA1FA9F335D04A
:104A70000E2E3AF0E0E832D091505040E695001CFE
:104A8000CAF72BD0FE2F29D0660F771F881FBB1FB8
:104A9000261737074807AB07B0E809F0BB0B802D96
:104AA000BF01FF2793585F4F3AF09E3F510578F0C2
:104AB0000C9416260C9461265F3FE4F3983ED4F3E1
:104AC000869577956795B795F7959F5FC9F7880F96
:104AD000911D9695879597F90895E1E0660F771FE8
:104AE000881FBB1F621773078407BA0720F0621B79
:104AF000730B840BBA0BEE1F88F7E09508950E94A4
:104B000086256894B1110C94612608950E9446266A
:104B100088F09F5798F0B92F9927B751B0F0E1F07E
:104B2000660F771F881F991F1AF0BA95C9F714C02E
:104B3000B13091F00E946026B1E008950C94602697
:104B4000672F782F8827B85F39F0B93FCCF3869567
:104B500077956795B395D9F73EF4909580957095C4
:104B600061957F4F8F4F9F4F0895E89409C097FB41
:104B70003EF490958095709561957F4F8F4F9F4F34
:104B80009923A9F0F92F96E9BB279395F695879578
:104B900077956795B795F111F8CFFAF4BB0F11F43B
:104BA00060FF1BC06F5F7F4F8F4F9F4F16C08823E2
:104BB00011F096E911C0772321F09EE8872F762F18
:104BC00005C0662371F096E8862F70E060E02AF059
:104BD0009A95660F771F881FDAF7880F9695879545
:104BE00097F90895990F0008550FAA0BE0E8FEEF1A
:104BF00016161706E807F907C0F012161306E407A1
:104C0000F50798F0621B730B840B950B39F40A2699
:104C100061F0232B242B252B21F408950A2609F477
:104C2000A140A6958FEF811D811D089597F99F677B
:104C300080E870E060E008959FEF80EC0895002424
:104C40000A941616170618060906089500240A94F1
:104C500012161306140605060895092E0394000C77
:104C600011F4882352F0BB0F40F4BF2B11F460FF06
:104C700004C06F5F7F4F8F4F9F4F089557FD90582F
:104C8000440F551F59F05F3F71F04795880F97FB10
:104C9000991F61F09F3F79F08795089512161306CA
:104CA0001406551FF2CF4695F1DF08C016161706F9
:104CB0001806991FF1CF869571056105089408952E
:104CC000E894BB2766277727CB0197F908950E94C0
:104CD000F22508F48FEF08950E947F260C942D266C
:104CE0000E941F2638F00E94262620F0952311F0FE
:104CF0000C9416260C941C2611240C9461260E94F8
:104D00003E2670F3959FC1F3950F50E0551F629FAB
:104D1000F001729FBB27F00DB11D639FAA27F00D14
:104D2000B11DAA1F649F6627B00DA11D661F829F3B
:104D30002227B00DA11D621F739FB00DA11D621F20
:104D4000839FA00D611D221F749F3327A00D611D3D
:104D5000231F849F600D211D822F762F6A2F11241F
:104D60009F5750409AF0F1F088234AF0EE0FFF1F52
:104D7000BB1F661F771F881F91505040A9F79E3FA9
:104D8000510580F00C9416260C9461265F3FE4F3E5
:104D9000983ED4F3869577956795B795F795E795FF
:104DA0009F5FC1F7FE2B880F911D9695879597F908
:104DB00008950E94F225880B990B0895DB018F93CB
:104DC0009F930E945724BF91AF91A29F800D911D88
:104DD000A39F900DB29F900D11240895991B79E027
:104DE00004C0991F961708F0961B881F7A95C9F77B
:104DF0008095089597FB072E16F4009407D077FD51
:104E000009D00E94142707FC05D03EF490958195A7
:104E10009F4F0895709561957F4F0895EE0FFF1F86
:104E20000590F491E02D0994AA1BBB1B51E107C02A
:104E3000AA1FBB1FA617B70710F0A61BB70B881F2A
:104E4000991F5A95A9F780959095BC01CD010895B9
:104E500081E090E0F8940C944C27FB01DC018D91EB
:104E6000019080190110D9F3990B0895FB01DC0121
:104E700001900D920020E1F70895FB01DC01415003
:104E8000504048F001900D920020C9F701C01D92DA
:0C4E900041505040E0F70895F894FFCF27
:104E9C00B301B301B301B301B3011E000114001936
:104EAC0000070004000A00010001B80B01E2049E97
:104EBC0007FFFFFFFF00E10000000000001A0400E4
:104ECC00C1808100000000000000A80C150C400CF3
:104EDC00EF0C710C4F0C630C000000001B0D700DDF
:104EEC007502310D37019D027902000000000802A5
:104EFC00F4017202E601ED01EA01E7010000000095
:104F0C006804150C7202710224047002FCFF00008C
:104F1C0065046F0220202E2E2E2E2E2E2E2E2E2E9F
:104F2C002E2E2E2E2E2E2E200053544541445950F9
:104F3C0041535300202020202066773A2000534113
:104F4C0054454C4C495445205345415243482E2E10
:104F5C000024504D544B3331342C302C312C302C0C
:104F6C00302C302C302C302C302C302C302C302C55
:104F7C00302C302C302C302C302C302C302C302A47
:104F8C0032390024504D544B3232302C3230302ACE
:104F9C00324300736574757020646F6E653A20003F
:104FAC007374617274206770733A2000646F6E655D
:104FBC00206770733A20005370656564203130307F
:104FCC003A20000D0A00202120444543524541530C
:104FDC004520212020202020002021205448524F01
:104FEC0054544C452021202020202000202020201B
:104FFC002020202020202020202020202020005491
:10500C00696D653A2000204750535F53703A200079
:10501C002053705F546172673130303A2000205257
:10502C00504D3A20002052504D5F74617267657488
:10503C003A2000205372763A20003A003000475054
:10504C0053004D5048004B504800504F574552208C
:10505C00004D494E200046554C4C200020204F4618
:10506C004620200052504D0056200057545220002C
:10507C006320200046200052504D20003E3E004D43
:10508C00696E205468726F74746C6520004D617881
:10509C00205468726F74746C6520005377696E6766
:1050AC0020200028002920202020200043796C6932
:1050BC006E64657273200054696D65207A6F6E653D
:1050CC0020005265766572736520004F767273749A
:1050DC0020005273706E73200044465420535020AD
:1050EC00003E3E20005350454544200054656D70F1
:1050FC002000444542554720005645523A20004571
:10510C004550524F4D213A20005461636820746F12
:10511C006461792000206D696E0054525400554E24
:10512C00542000630020426174742000762000201B
:10513C0041495220006320004750524D4300474ED6
:10514C00524D4300475047474100474E47474100A7
:10515C00434C005454006E616E00696E66006F76AD
:0C516C00660045544F00545000534600AC
:00000001FF
