:100000000C9419010C94A51A0C947E1A0C94571A8E
:100010000C94301A0C9441010C9441010C94091A6F
:100020000C9441010C9441010C94D3150C94451689
:100030000C9441010C9441010C9441010C94410138
:100040000C9441010C947A1C0C9441010C944101D4
:100050000C9441010C9441010C9441010C94BF1982
:100060000C9441010C9481100C945B100C94410190
:100070000C9441010C9441010C9441010C944101F8
:100080000C9441010C9441010C9441010C944101E8
:100090000C944C1B0C9441010C9441010C944101B3
:1000A0000C9441010C9441010C944101490745080D
:1000B0004309CD09330AA70A5B0B9D0BDE0B2D0C00
:1000C000E00CA90DF318F618E518E918EF18171940
:1000D00017191719FA18FE18021908190C19171907
:1000E0001219D520E720EA20F120F82026212D2121
:1000F0003A21472153215321532153215321532185
:10010000532153215321532153215321532153214F
:10011000532153215321532153215321532153213F
:100120005321D520E220E720EA20F120F820FF200B
:100130000C21192100000000250028002B002E00B2
:100140003100000000002300260029002C002F00B1
:10015000040404040403040502020202040302026C
:10016000020206060606060604040202020404044D
:1001700008020110408040102040804080080204A6
:10018000018040201002011080102040402000001B
:10019000000200090F0000030401000C0000000031
:1001A00000000000000000000000000000080B003C
:1001B00002020201000904000001020200000524FD
:1001C0000010010524010101042402060524060093
:1001D000010705810310004009040100020A000024
:1001E00000070502024000000705830240000004EA
:1001F00003090412010002EF02014041233680008E
:10020000010102030141726475696E6F204C4C4319
:100210000041726475696E6F204C656F6E61726427
:100220006F0000000000240027002A002D0030008D
:10023000832711241FBECFEFDAE0DEBFCDBF15E06C
:10024000A0E0B1E0E6EBFAE502C005900D92AC3219
:10025000B107D9F728E0ACE2B5E001C01D92A035A6
:10026000B207E1F711E0C9E1D1E004C02197FE0136
:100270000E941B2DC831D107C9F70E94E7230C94B7
:10028000592D0C9400002F923F924F925F926F92E3
:100290007F928F929F92AF92BF92CF92DF92EF9216
:1002A000FF920F931F93CF93DF93CDB7DEB7A7973E
:1002B0000FB6F894DEBF0FBECDBF809143058823F3
:1002C00039F060E08DE00E94DC101092430507C019
:1002D00061E08DE00E94DC1081E0809343050E9484
:1002E000B81E80910901882341F00E947E1164E6C6
:1002F00070E080E090E00E94791980917206882376
:1003000021F11092730660917806709179068091C0
:100310007A0690917B060E94C42B2EEB3CE443E9C5
:100320005FE30E94792C20E030E048EC52E40E9428
:100330001A2B20E030E048EC52E40E94792C0E9415
:100340008C2B709342056093410540913D0550917F
:100350003E05FA01EE0FFF1FEB5BFA4F80913F0560
:100360009091400520813181821B930B20914105A2
:100370003091420531832083820F931F9093400573
:1003800080933F059A012F5F3F4F253031052CF4B4
:1003900030933E0520933D0504C010923E05109217
:1003A0003D0565E070E00E94072D70935005609355
:1003B0004F052091150630911606809116019091F7
:1003C00017012817390709F075C0C0903905D0907A
:1003D0003A05E0903B05F0903C050E94B319C61623
:1003E000D706E806F90608F065C00E94B319DC01DB
:1003F000CB018053984FAF4FBF4F809339059093F7
:100400003A05A0933B05B0933C0582E10E94971307
:1004100060E070E080E090E00E94831388EA91E061
:100420000E94821161E070E080E090E00E948313FE
:100430008BEB91E00E9482110E94B81E809172069F
:10044000882321F1109273066091780670917906E5
:1004500080917A0690917B060E94C42B2EEB3CE49F
:1004600043E95FE30E94792C20E030E048EC52E45D
:100470000E941A2B20E030E048EC52E40E94792CD4
:100480000E948C2B709342056093410560E070E000
:1004900080E090E00E9483138EEC91E00E94821134
:1004A00061E070E080E090E00E9483138EEC91E0C8
:1004B0000E94821180913805811109C08091250127
:1004C000909126019093160680931506BBC181304A
:1004D00019F41092080103C081E080930801809113
:1004E00008018823B9F06091410570914205072EFB
:1004F000000C880B990B0E94C42B6093E906709343
:10050000EA068093EB069093EC06609123017091CC
:10051000240114C00E94D822BC01990F880B990BAA
:100520000E94C42B6093E9067093EA068093EB0661
:100530009093EC066091060170910701072E000C64
:10054000880B990B0E94C42B6093E1067093E2061E
:100550008093E3069093E406E0901A01F0901B016B
:1005600000911C0110911D0120911E0130911F016D
:100570004091200150912101609127017091280143
:100580008091290190912A010E94A712809127074A
:10059000882309F449C10E94B3196F8F78A389A3F6
:1005A0009AA380910F0790911007A0911107B09125
:1005B00012074F8D58A169A17AA1481B590B6A0BEC
:1005C0007B0B80911B0790911C07A0911D07B09198
:1005D0001E07481759076A077B0708F425C1E091F1
:1005E0000907F0910A0720813181428153812B8FC5
:1005F0003C8F4D8F5E8FE0910D07F0910E0760816B
:100600007181828193810E94A82A4B015C01209113
:100610001707309118074091190750911A076B8DF1
:100620007C8D8D8D9E8D0E94A82A6B017C0120916E
:10063000FD063091FE064091FF0650910007C5016E
:10064000B4010E94792C2091130730911407409136
:100650001507509116070E94A92A2B013C016093AF
:100660001307709314078093150790931607309122
:1006700028073BA331111AC02091F9063091FA06E0
:100680004091FB065091FC06C701B6010E94792CEF
:100690009B01AC01C301B2010E94A82A6093130719
:1006A00070931407809315079093160740901307D3
:1006B000509014076090150770901607109123074B
:1006C000009124073090250720902607212F302FF6
:1006D000432D522DC301B2010E94742C18166CF4E4
:1006E000812F902FA32DB22D809313079093140781
:1006F000A0931507B093160720C080911F07909113
:100700002007A0912107B09122078CA39DA3AEA33F
:10071000BFA39C01AD01C301B2010E94152B87FF4D
:100720000CC02CA13DA14EA15FA1209313073093D3
:10073000140740931507509316073BA1332379F014
:100740002091F9063091FA064091FB065091FC0683
:10075000C501B4010E94792C4B015C0103C0812CBE
:10076000912C540120910107309102074091030719
:1007700050910407C701B6010E94792C9B01AC017E
:1007800060911307709114078091150790911607D7
:100790000E94A82A9B01AC01C501B4010E94A92AAC
:1007A0006B017C01212F302F432D522D0E94742C80
:1007B0001816B4F010911F07009120073090210700
:1007C00020902207212F302F432D522DB601C70133
:1007D0000E94152B87FD04C01C2D0D2D3E2C2F2CA7
:1007E000E0910B07F0910C07812F902FA32DB22DD4
:1007F00080839183A283B3838B8D9C8DAD8DBE8DC1
:100800008093170790931807A0931907B0931A07BE
:100810002F8D38A149A15AA120930F0730931007BB
:1008200040931107509312076091E5067091E60618
:100830008091E7069091E8060E948C2B7093160633
:100840006093150620914405809115069091160637
:10085000222371F04091250150912601209116012B
:1008600030911701240F351FA901481B590BCA01EC
:100870000E94B01380912301909124012AE030E07E
:10088000B9010E94072D70931F0660931E06809188
:10089000410590914205B9010E94072D70933705DB
:1008A0006093360580911501811112C0072E000C4E
:1008B000880B990B0E94C42B2BE734E14EEC5FE3CD
:1008C0000E94792C0E948C2B70933705609336051B
:1008D00010926506C0906606D0906706E0906806A4
:1008E000F0906906C701B60120E432E44FE050E021
:1008F0000E94772A8091180190911901820F911D11
:100900009C012C50310937FD05C0309335052093EB
:10091000340505C00C96909335058093340580917D
:10092000340590913505893191052CF048979093C5
:10093000350580933405C701B60120E137E240E078
:1009400050E00E94772A64E6862E912CA12CB12CCF
:10095000CA01B901A50194010E94772A7093330559
:1009600060933205C701B601A50194010E94772A60
:10097000CA01B901A50194010E94772A709331053B
:10098000609330058AE00E94971361E070E080E098
:1009900090E00E94831380913405909135050E9468
:1009A000B31181EE91E00E94821180913205909105
:1009B00033050A9724F488EF93E00E948211809116
:1009C0003205909133050E94B31181EE91E00E94AF
:1009D000821180913005909131050A9724F488EFB7
:1009E00093E00E94821180913005909131050E9420
:1009F000B3118EED91E00E9482118AE00E9497135C
:100A000063E070E082E190E00E9483136EEF82E089
:100A10000E94931283EE91E00E94821164E070E0E4
:100A200082E190E00E9483136DEF82E00E949312B6
:100A300080911501882319F087EE91E002C08BEEBA
:100A400091E00E94821160E070E080E090E00E94FE
:100A500083138FEE91E00E948211C0902C05D090FC
:100A60002D05E0902E05F0902F050E94B319C616B3
:100A7000D706E806F90608F04DC00E94B319DC015C
:100A8000CB018C509E4FAF4FBF4F80932C0590935E
:100A90002D05A0932E05B0932F05009116011091FE
:100AA00017018091150690911606B801681B790B05
:100AB000072E000C880B990B0E94C42B6B017C0144
:100AC0008091250190912601D801A81BB90BBD0189
:100AD000BB0F880B990B0E94C42B9B01AC01C70173
:100AE000B6010E941A2B20E030E048EC52E40E944C
:100AF000792C60930001709301018093020190931F
:100B000003010E948C2BCB010E94B3118EED91E06A
:100B10000E94821182E10E94971360E070E086E0FB
:100B200090E00E94831380913805811104C086EF04
:100B300091E00E94821180913805813051F48091BA
:100B40000601909107010E94B3118DEF91E00E9480
:100B5000821180913805823011F40E94F9218AE0D7
:100B60000E94971362E070E080E090E00E9483139F
:100B700082E092E00E94821160E070E0CB010E946E
:100B8000DC118EED91E00E94821164E070E080E063
:100B900090E00E94831385E092E00E94821180E041
:100BA0000E94A01180911401882319F08AE092E03C
:100BB00002C08AEF91E00E94821165E070E080E05F
:100BC00090E00E9483138EE092E00E94821180E008
:100BD0000E94A01180911401882319F08AE092E00C
:100BE00002C08AEF91E00E94821166E070E080E02E
:100BF00090E00E9483138DEF91E00E9482110E9489
:100C0000D8220E94B3118CED91E00E9482118BECEE
:100C10000E94971360E070E080E090E00E948313F0
:100C200066E18EE20E94931280913605909137051D
:100C30008436910564F483E192E00E94701180E3B0
:100C40000E94951160E080E296E00E9480238091EE
:100C50003605909137050AE010E0B8010E94072D93
:100C6000CB010E94B31189EC0E94971360E070E001
:100C700080E090E00E9483136BE28FE60E94931263
:100C80008091360590913705B8010E94072D0E948A
:100C9000B3111092370180914008882309F44DC0A8
:100CA000809138058230F9F420913C0830913D085C
:100CB00040913E0850913F086091230170912401BA
:100CC0006B01770FEE08FF08AAE0B0E00E94642AEB
:100CD000DC01CB018C0D9D1DAE1DBF1D9093240129
:100CE0008093230120C08130F1F420913C083091A1
:100CF0003D0840913E0850913F0860910601709177
:100D000007016B01770FEE08FF08AAE0B0E00E9430
:100D1000642ADC01CB018C0D9D1DAE1DBF1D90937F
:100D200007018093060110923C0810923D08109232
:100D30003E0810923F081092400884E00E94B310D1
:100D400020914108892B21F42F5F209341080EC088
:100D5000222351F0809138058F5F833018F48093FF
:100D6000380502C010923805109241088091410860
:100D7000883088F00E947E118AE00E94971360E01C
:100D800070E080E090E00E94831364EF71E080E007
:100D900090E00E94791940E4442E42E4542E4FE042
:100DA000642E712C80914108883010F40C94E50E6B
:100DB00086E192E00E94821164EF71E080E090E0B1
:100DC0000E94791984E00E94B310892BD9F38AE13B
:100DD000E9E3F1E0DE01119601900D928A95E1F7C9
:100DE000E12CFE013196EE0DF11DEE0DF11D80811D
:100DF00091818A5D944011F0E394F3CFEA940E94CC
:100E00007E1181E08093380112E0F12CD12C2E2D3F
:100E100030E03C8F2B8FCC24C3943AE0232E312C2E
:100E20000E94522282309105A1F01CF4019751F0EA
:100E300043C78430910509F1089709F03DC70E9426
:100E4000F0213AC7F1103BC7DD2009F467C7DA94F7
:100E50006AC78D2D90E005964B8D5C8D84179507A4
:100E60002CF455E0F51202C0D39412E08F2D90E0DF
:100E700005970CF021C7F39423C7EF2DF0E0ED0D9B
:100E8000F11DEC30F10508F017C7EA5AFF4F0C943A
:100E90001B2D809116019091170190931606809357
:100EA00015060E947E118AE00E94971360E070E0B0
:100EB00080E090E00E94831380E292E00E94821121
:100EC00061E070E080E090E00E9483138EE292E0A7
:100ED0000E94821162E070E080E090E00E94831343
:100EE00082E492E00E94821164E070E080E090E091
:100EF0000E94831388E592E00E948211809144054C
:100F0000882329F0809125019091260104C08091C9
:100F10001601909117010E94B3118CED91E00E948F
:100F2000821180911506909116060E94B0130E94BE
:100F300052228230910519F11CF4019751F0F1CF42
:100F40008430910509F46BC0089759F70E94F0218D
:100F5000E8CF20914405809116019091170122233A
:100F6000E9F02091250130912601281739071CF559
:100F7000265F3F4F309326012093250121C0209109
:100F800044058091250190912601211114C02091E2
:100F90001601309117018217930734F00A96909347
:100FA0001701809316010CC02A50310930931701A4
:100FB0002093160105C00A9790932601809325017E
:100FC00064E070E080E090E00E94831388E592E0A6
:100FD0000E94821180914405882329F08091250187
:100FE0009091260104C080911601909117010E94F2
:100FF000B3118CED91E00E94821180914405882309
:1010000029F0809125019091260104C0809116015C
:1010100090911701909316068093150682CF6091E8
:10102000160170911701072E000C880B990B0E9476
:10103000C42B4B015C016091250170912601072EA4
:10104000000C880B990B0E94C42BAB01BC019501CD
:1010500084018DEE96E00E94CC1A8091440588238D
:1010600051F08091250190912601B1010E94072D38
:1010700085E190E0EFC38091160190911701B101D5
:101080000E94072D84E190E0E5C3809125019091B5
:10109000260190931606809315060E947E118AE021
:1010A0000E94971360E070E080E090E00E9483135C
:1010B00083E692E00E94821161E070E080E090E0BF
:1010C0000E94831381E792E00E94821162E070E047
:1010D00080E090E00E94831384E892E00E948211F5
:1010E00064E070E080E090E00E94831388E592E085
:1010F0000E94821180914405882329F08091160175
:101100009091170104C080912501909126010E94C1
:10111000B3118CED91E00E9482118091150690919F
:1011200016060E94B0130E9452228230910519F1D6
:101130001CF4019751F0F1CF8430910509F46BC094
:10114000089759F70E94F021E8CF2091440580913B
:1011500016019091170121111DC020912501309198
:101160002601281739071CF5265F3F4F30932601CB
:101170002093250121C02091440580912501909163
:1011800026012223A1F02091160130911701821728
:10119000930734F00A9690931701809316010CC0C0
:1011A0002A503109309317012093160105C00A9780
:1011B000909326018093250164E070E080E090E048
:1011C0000E94831388E592E00E9482118091440579
:1011D000882329F0809116019091170104C0809115
:1011E0002501909126010E94B3118CED91E00E949F
:1011F000821180914405882329F0809116019091F5
:10120000170104C080912501909126019093160644
:101210008093150682CF80914405882351F08091F8
:10122000160190911701B1010E94072D84E190E011
:1012300009C08091250190912601B1010E94072DDE
:1012400085E190E00E94C82160911601709117011C
:10125000072E000C880B990B0E94C42B4B015C01DC
:101260006091250170912601072E000C880B990BC7
:101270000E94C42BAB01BC01950184018DEE96E068
:101280000E94CC1A50C5809125019091260190931F
:101290001606809315060E947E118AE00E9497131D
:1012A00060E070E080E090E00E94831389E992E0C2
:1012B0000E9482111AE061E070E080E090E00E94FC
:1012C00083138BEA92E00E94821120914405809161
:1012D000150690911606222371F040912501509138
:1012E00026012091160130911701240F351FD901D5
:1012F000A81BB90BCD010E94B3118DEA92E00E94A8
:10130000821164E670E080E090E00E9479196091BB
:10131000150670911606E0912501F0912601E61759
:10132000F70734F081E090E0909305018093040189
:1013300040911601509117016417750734F02FEF93
:101340003FEF3093050120930401809104019091B7
:101350000501189F9001199F300D1124CB01820FB8
:10136000931F90931606809315062091440522231F
:1013700031F04E0F5F1FDA01A81BB90BCD010E949F
:10138000B0130E9452228430910509F4CCC408970E
:1013900009F091CF0E94F0218ECF0E947E118AE049
:1013A0000E94971360E070E080E090E00E94831359
:1013B00084EB92E00E94821161E070E080E090E0B6
:1013C0000E94831380914405882321F08FEB92E0E3
:1013D0000E94821180914405811104C08CEC92E03E
:1013E0000E9482110E9452228230910509F11CF460
:1013F000019749F0F7CF8430910559F1089791F79B
:101400000E94F021EFCF61E070E080E090E00E9468
:10141000831380914405882319F088ED92E014C06D
:101420008FEB92E00E948211B1E0B0934405DACFD5
:1014300061E070E080E090E00E94831380914405B9
:10144000882371F38CEC92E00E9482111092440583
:10145000C9CF80914405882311F061E001C060E0AC
:101460008FE190E0F7C10E947E118AE00E949713FD
:1014700060E070E080E090E00E94831386EE92E0EE
:101480000E94821161E070E080E090E00E9483138E
:10149000809122010E94A01114E008E00E945222D3
:1014A0008230910539F11CF4019751F0F7CF843067
:1014B000910509F447C0089789F70E94F021EECF03
:1014C00061E070E080E090E00E948313809122014F
:1014D000883010F48E5F19C00093220188E00E94CA
:1014E000A01162E070E080E090E00E94831388EF3A
:1014F00092E025C061E070E080E090E00E948313FC
:1015000080912201853070F08250809322010E94E8
:10151000A01162E070E080E090E00E94831380ED13
:1015200091E00DC01093220184E00E94A01162E0BE
:1015300070E080E090E00E94831386E093E00E94D8
:101540008211ACCF609122018BE090E083C10E94B8
:101550007E118AE00E94971360E070E080E090E0E6
:101560000E94831384E193E00E94821161E070E0A5
:1015700080E090E00E9483138091340590913505BE
:101580000E94B31181EE91E00E9482118091320598
:10159000909133050A9724F488EF93E00E9482111A
:1015A00080913205909133050E94B31181EE91E054
:1015B0000E94821180913005909131050A9724F4A0
:1015C00088EF93E00E94821180913005909131055F
:1015D0000E94B3118DED91E00E94821163E070E0F2
:1015E00080E090E00E94831380911801909119018E
:1015F0000C970E94B3118DED91E00E9482110E9420
:10160000522282309105E9F01CF4019751F0F7CF96
:101610008430910509F44AC0089789F70E94F021A7
:10162000EECF80911801909119018831910514F441
:1016300001960FC028E130E0309319012093180182
:1016400011C080911801909119011816190634F4EF
:101650000197909319018093180104C01092190109
:1016600010921801109265066091660670916706E7
:101670008091680690916906A30192010E94772AE1
:10168000822F90E0293108F0489790933505809398
:10169000340561E070E080E090E00E948313809167
:1016A0003405909135050E94B31198CF60911801CF
:1016B00083E190E0CFC00E947E118AE00E949713E0
:1016C00060E070E080E090E00E94831386E293E0A7
:1016D0000E94821161E070E080E090E00E9483133C
:1016E0000E94F9210E9452228230910589F044F42F
:1016F0000197C1F780912301909124010A960DC0B2
:101700008430910579F0089769F70E94F021EACFBB
:1017100080912301909124010A9790932401809352
:101720002301D8CF809123019091240164E670E0D9
:101730000E94072D8EE190E08DC00E947E118AE00C
:101740000E94971360E070E080E090E00E948313B5
:101750008BE393E00E94821161E070E080E090E012
:101760000E9483138091150181111BC080E593E0D5
:101770000E9482110E9452228230910561F01CF475
:10178000019749F0F7CF8430910571F0089791F7F0
:101790000E94F021EFCF809115018C2580931501D7
:1017A000DBCF8BE493E0E4CF80911501882311F027
:1017B00061E001C060E082E190E04CC00E947E11D7
:1017C0008AE00E94971360E070E080E090E00E9461
:1017D000831385E593E00E94821161E070E080E070
:1017E00090E00E94831380911401882319F088E609
:1017F00093E002C085E793E00E9482110E9452228A
:101800008230910561F01CF4019749F0F7CF8430E4
:101810009105B9F0089791F70E94F021EFCF8091E0
:1018200014018C258093140161E070E080E090E069
:101830000E948313809114018823E1F280E893E0F1
:10184000DBCF80911401882311F061E001C060E0DA
:101850008DE190E00E94C82166C20E947E118AE05C
:101860000E94971360E070E080E090E00E94831394
:101870008CE893E00E94821161E070E080E090E0EB
:101880000E9483138EE993E00E94821163E070E06E
:1018900080E090E00E94831381EB93E00E9482112C
:1018A00060912701709128018091290190912A016E
:1018B0000E94DC1120E030E048EC52E46091270106
:1018C000709128018091290190912A010E94792C20
:1018D0000E948C2B8B010E9452228230910591F143
:1018E00044F50197C1F763E070E080E090E00E946A
:1018F000831381EB93E00E94821120E030E048ECFA
:1019000052E4609127017091280180912901909102
:101910002A010E94792C4B015C010E948C2B8B01C7
:1019200020E030E040E85FE3C501B4010E94A92A4D
:101930002EC08430910509F43FC0089761F60E94DB
:10194000F021C9CF63E070E080E090E00E94831353
:1019500081EB93E00E94821120E030E048EC52E4F9
:1019600060912701709128018091290190912A01AD
:101970000E94792C4B015C010E948C2B8B0120E092
:1019800030E040E85FE3C501B4010E94A82A20E0EE
:1019900030E048EC52E40E941A2B609327017093C8
:1019A00028018093290190932A010E94DC118EED79
:1019B00091E00E9482118FCFB8018CE090E0C6C008
:1019C0000E947E118AE00E94971360E070E080E040
:1019D00090E00E94831388EB93E00E94821161E003
:1019E00070E080E090E00E94831386EC93E00E9418
:1019F000821163E070E080E090E00E94831384ED48
:101A000093E00E94821160911E0170911F018091EC
:101A10002001909121010E94DC1120E030E048EC8F
:101A200052E460911E0170911F01809120019091FC
:101A300021010E94792C0E948C2B8B010E94522242
:101A40008230910509F445C0D4F50197B9F763E0F8
:101A500070E080E090E00E94831384ED93E00E94A8
:101A6000821120E030E048EC52E460911E01709158
:101A70001F0180912001909121010E94792C4B013E
:101A80005C010E948C2B8B0120E030E040E85FE39A
:101A9000C501B4010E94A92A20E030E048EC52E4DC
:101AA0000E941A2B60931E0170931F0180932001E6
:101AB000909321010E94DC118DED91E041C08430B2
:101AC000910509F440C0089709F0B8CF0E94F021B1
:101AD000B5CF63E070E080E090E00E94831384ED76
:101AE00093E00E94821120E030E048EC52E46091E3
:101AF0001E0170911F0180912001909121010E948F
:101B0000792C4B015C010E948C2B8B0120E030E092
:101B100040E85FE3C501B4010E94A82A20E030E05C
:101B200048EC52E40E941A2B60931E0170931F012F
:101B300080932001909321010E94DC118BED91E0B4
:101B40000E9482117BCFB8018EE090E00E94E021DC
:101B5000EAC00E947E118AE00E94971360E070E064
:101B600080E090E00E9483138CED93E00E9482114C
:101B700061E070E080E090E00E9483138CEE93E0DF
:101B80000E94821163E070E080E090E00E94831385
:101B900081EB93E00E94821160911A0170911B0108
:101BA00080911C0190911D010E94DC1120E030E029
:101BB00048EC52E460911A0170911B0180911C0164
:101BC00090911D010E94792C0E948C2B8B010E9408
:101BD00052228230910591F144F50197C1F763E0FB
:101BE00070E080E090E00E94831381EB93E00E941C
:101BF000821120E030E048EC52E460911A017091CB
:101C00001B0180911C0190911D010E94792C4B01B8
:101C10005C010E948C2B8B0120E030E040E85FE308
:101C2000C501B4010E94A92A2EC08430910509F48F
:101C30003FC0089761F60E94F021C9CF63E070E0D1
:101C400080E090E00E94831381EB93E00E94821178
:101C500020E030E048EC52E460911A0170911B01E1
:101C600080911C0190911D010E94792C4B015C0117
:101C70000E948C2B8B0120E030E040E85FE3C5013F
:101C8000B4010E94A82A20E030E048EC52E40E940F
:101C90001A2B60931A0170931B0180931C0190937F
:101CA0001D010E94DC118EED91E00E9482118FCF08
:101CB000B80180E190E04ACF113091F501C0FA946B
:101CC000EF1408F4FE2C00E010E08AE00E94971365
:101CD000B80180E090E00E9483138FED91E00E94B4
:101CE0008211B80180E090E00E9483138FED91E0B3
:101CF0000E9482110F5F1F4F0630110531F78AE0F5
:101D00000E9497136F2D70E080E090E00E94831393
:101D10008AEF93E00E94821110E051C0113099F2D5
:101D2000123009F04CC00E947E1135E03E1518F5C6
:101D3000AD2CB12CAA0CBB1C00E010E08AE00E9484
:101D40009713B80181E090E00E948313F801EE0F31
:101D5000FF1FEA0DFB1D41E050E04C0F5D1FE40F3B
:101D6000F51F808191810E9482110F5F1F4F063005
:101D7000110521F723C0912CAD2CB12C092D10E0B9
:101D8000AB8DBC8DA017B107CCF08AE00E949713F1
:101D9000B80181E090E00E948313F501E00FF11F8C
:101DA000EE0FFF1F81E090E08C0F9D1FE80FF91FE1
:101DB000808191810E9482119394E0CF11E0809103
:101DC000380181112DC80C94D2068091090181112E
:101DD00010920901A7960FB6F894DEBF0FBECDBFD3
:101DE000DF91CF911F910F91FF90EF90DF90CF90F7
:101DF000BF90AF909F908F907F906F905F904F902B
:101E00003F902F900895CF92DF92EF92FF920F9321
:101E10001F93CF93DF936C017A018B01C0E0D0E078
:101E2000CE15DF0589F0D8016D918D01D601ED91B8
:101E3000FC910190F081E02DC6010995892B11F4E8
:101E40007E0102C02196ECCFC701DF91CF911F9197
:101E50000F91FF90EF90DF90CF900895FC01538D8C
:101E6000448D252F30E0842F90E0821B930B541774
:101E700010F0CF96089501970895FC01918D828D01
:101E8000981761F0828DDF01A80FB11D5D968C91CE
:101E9000928D9F5F9F73928F90E008958FEF9FEFD9
:101EA0000895FC01918D828D981731F0828DE80F95
:101EB000F11D858D90E008958FEF9FEF0895FC014F
:101EC000918D228D892F90E0805C9F4F821B91091C
:101ED0008F739927089583E595E00E945F0F21E0B5
:101EE000892B09F420E0822F0895FC01848DDF0105
:101EF000A80FB11DA35ABF4F2C91848D90E001967D
:101F00008F739927848FA689B7892C93A089B1896B
:101F10008C9180648C93938D848D981306C0028875
:101F2000F389E02D80818F7D80830895EF92FF9269
:101F30000F931F93CF93DF93EC0181E0888F9B8DEC
:101F40008C8D981305C0E889F989808185FD24C0AE
:101F5000F62E0B8D10E00F5F1F4F0F731127E02E31
:101F60008C8DE8120CC00FB607FCFACFE889F9890E
:101F7000808185FFF5CFCE010E94750FF1CF8B8D4B
:101F8000FE01E80FF11DE35AFF4FF0820B8FEA8943
:101F9000FB898081806207C0EE89FF896083E889C0
:101FA000F98980818064808381E090E0DF91CF9126
:101FB0001F910F91FF90EF900895CF93DF93EC0165
:101FC000888D8823C9F0EA89FB89808185FD05C059
:101FD000A889B9898C9186FD0FC00FB607FCF5CF93
:101FE000808185FFF2CFA889B9898C9185FFEDCFDB
:101FF000CE010E94750FE7CFDF91CF91089580E069
:1020000090E0892B29F00E946B0F81110C94000045
:1020100008950E94352D4091BD075091BE07209133
:10202000BB073091BC0742175307B4F49091E80006
:102030009570E1F39091E80092FD19C08093F10052
:102040008091BD079091BE0701968F739927892BC8
:1020500019F48EEF8093E8008091BD079091BE0740
:1020600001969093BE078093BD0781E0089580E0BC
:102070000895615030F02091F100FC012083019619
:10208000F8CF289884E6809351050895611571056D
:1020900079F0FB0101900020E9F73197AF01461B71
:1020A000570BDC01ED91FC910280F381E02D099446
:1020B00080E090E008951F920F920FB60F921124C6
:1020C0002F933F934F935F936F937F938F939F9340
:1020D000AF93BF93EF93FF9383E595E00E94750F55
:1020E000FF91EF91BF91AF919F918F917F916F91F0
:1020F0005F914F913F912F910F900FBE0F901F90C6
:1021000018951F920F920FB60F9211242F938F9351
:102110009F93EF93FF93E0916305F09164058081B5
:10212000E0916905F0916A0582FD12C0908180916D
:102130006C058F5F8F7320916D05821751F0E091D0
:102140006C05F0E0ED5AFA4F958F80936C0501C055
:102150008081FF91EF919F918F912F910F900FBEF2
:102160000F901F901895CF93DF93282F30E0F9013F
:10217000E257FE4F8491F901E159FE4FD491F901E4
:10218000E05BFE4FC491CC2391F081110E94DB18DB
:10219000EC2FF0E0EE0FFF1FEE5BFE4FA591B49128
:1021A000EC91ED2381E090E021F480E002C080E03A
:1021B00090E0DF91CF9108951F93CF93DF93282F65
:1021C00030E0F901E257FE4F8491F901E159FE4FE9
:1021D000D491F901E05BFE4FC491CC23C9F0162FD6
:1021E00081110E94DB18EC2FF0E0EE0FFF1FEC5C7A
:1021F000FE4FA591B4918FB7F894111105C09C9131
:10220000ED2FE095E92302C0EC91ED2BEC938FBF0D
:10221000DF91CF911F910895CF93DF93EC01E0916F
:102220002006F09121060190F081E02D8F3F91056D
:1022300010F4682F0DC06FEF80E296E00995E091F1
:102240002006F09121066C2F6F5F0190F081E02D48
:1022500080E296E0DF91CF9109948F929F92AF92A6
:10226000BF920F931F93CF93DF93CDB7DEB7A197A4
:102270000FB6F894DEBF0FBECDBF19A2423008F4EE
:102280004AE08E010F5D1F4F842E912CA12CB12CA2
:10229000A50194010E94772AE62FB901CA010150D5
:1022A0001109EA3014F4E05D01C0E95CD801EC9357
:1022B000232B242B252B61F7B80180E296E00E94A6
:1022C0004610A1960FB6F894DEBF0FBECDBFDF91CA
:1022D000CF911F910F91BF90AF909F908F900895D5
:1022E000CF93DF93EC016991662329F080E296E0B9
:1022F0000E948023F8CFDF91CF9108958BEE94E078
:102300000C947011CF93DF93EC0183E192E00E9473
:102310007011BE0180E296E00E94461060E080E20B
:1023200096E0DF91CF910C948023E0912006F0910C
:1023300021060190F081E02D682F80E296E009945B
:10234000CF93C82F83E192E00E9470116C2F70E050
:1023500080E090E04AE00E942D1160E080E296E08B
:10236000CF910C948023CF92DF92EF92FF926C0179
:1023700083E192E00E9470110D2C000CEE08FF0822
:10238000F7FE0CC08DE20E94951166277727CB01DE
:102390006C197D098E099F094AE003C04AE0C70114
:1023A000B6010E942D1160E080E296E0FF90EF9070
:1023B000DF90CF900C9480238F929F92AF92BF9228
:1023C000CF92DF92EF92FF926B017C0183E192E06A
:1023D0000E947011A7019601C701B6010E94E62C68
:1023E000882319F06EEE74E01AC046015701E89494
:1023F000B7F82FEF3FEF4FE75FE7C501B4010E9449
:10240000E62C811111C02FEF3FEF4FE75FE7C501C9
:10241000B4010E94152B18163CF462EF74E080E2C0
:1024200096E00E94461072C02FEF3FEF4FE75FE447
:10243000C701B6010E94742C18161CF466EF74E0F4
:10244000EECF2FEF3FEF4FE75FECC701B6010E94E1
:10245000152B87FDF3CF20E030E0A901C701B601BD
:102460000E94152B87FF07C08DE20E949511F7FA95
:10247000F094F7F8F0942AE037ED43EA5BE3C70104
:10248000B6010E94A92A4B015C010E94932B6B01AB
:102490007C010E94C22B9B01AC01C501B4010E94CA
:1024A000A82A4B015C014AE0C701B6010E942D1128
:1024B0008EE20E94951120E030E040E251E4C50137
:1024C000B4010E94792C4B015C010E94932B6B019B
:1024D000E12CF12C4AE0C701B6010E942D11C70181
:1024E000B6010E94C22B9B01AC01C501B4010E9440
:1024F000A82A20E030E040E251E40E94792C0E94BA
:10250000932B80E090E04AE00E942D1160E080E291
:1025100096E0FF90EF90DF90CF90BF90AF909F90AC
:102520008F900C948023CF93DF93D82FC62F8AEF00
:1025300094E00E9470116D2F80E296E00E9480234B
:102540006C2F80E296E0DF91CF910C9480234F9224
:102550005F926F927F928F929F92AF92BF92CF9233
:10256000DF92EF92FF920F931F93CF93DF9300D0F0
:1025700000D0CDB7DEB74B015C0129013A016701FC
:102580007801009107071091080720E030E0A901C9
:102590000E94152B87FDA2C020E030E0A901C301F5
:1025A000B2010E94152B87FD99C020E030E0A901FF
:1025B000C701B6010E94152B87FD90C081E0013054
:1025C000110509F080E0809328078092ED06909233
:1025D000EE06A092EF06B092F0064092F1065092FD
:1025E000F2066092F3067092F406C092F506D0925D
:1025F000F606E092F706F092F80660911B077091DC
:102600001C0780911D0790911E070E94C22B20E09D
:1026100030E04AE754E40E941A2B69837A838B8363
:102620009C838092F9069092FA06A092FB06B092E3
:10263000FC069B01AC01C301B2010E94792C2B0165
:102640003C016093FD067093FE068093FF06909315
:10265000000729813A814B815C81C701B6010E9444
:102660001A2B6B017C016093010770930207809322
:10267000030790930407809105079091060701973F
:1026800069F5A501940160E070E0CB010E94A82AE1
:102690006093F9067093FA068093FB069093FC060C
:1026A000A301920160E070E0CB010E94A82A609330
:1026B000FD067093FE068093FF0690930007A70126
:1026C000960160E070E0CB010E94A82A60930107A8
:1026D0007093020780930307909304070F900F9065
:1026E0000F900F90DF91CF911F910F91FF90EF907E
:1026F000DF90CF90BF90AF909F908F907F906F9022
:102700005F904F9008950F931F93CF93DF938C01A9
:10271000EB018EEF94E00E947011C8010E940C1131
:10272000CE01DF91CF911F910F910C940C11CF939B
:10273000DF931F92CDB7DEB7682F81E095E0698304
:102740000E947011E0912006F09121060190F08125
:10275000E02D698180E296E00F90DF91CF9109949E
:10276000AC01909117069C3090F58091180628E8EE
:1027700030E0281B310987FD3395220F331F220FCC
:10278000331F4217530784F08091190628E532E081
:10279000281B310987FD3395220F331F220F331F6A
:1027A000421753070CF49A0122503109220F331FAC
:1027B0004FB7F894892F90E0FC01EE0FFF1F8E0FAA
:1027C0009F1FFC01E051FA4F328321834FBF0895D0
:1027D000FC0180915205811103C08FEF9FEF089596
:1027E0009FB7F89482E08093E9002091F20030E0F6
:1027F0001216130614F421E030E02115310559F0CA
:10280000289884E6809351058091F100808380911F
:10281000F200882319F09FBFC90108958BE68093C9
:10282000E800F9CF2FB7F89483E08093E900909106
:10283000E800892F807295FF04C09091F20080E437
:10284000891B2FBF089580912D0781110DC082E053
:102850008093290784E080932A0710922C07109216
:102860002B0781E080932D0789E297E00895CF93AD
:10287000DF931F92CDB7DEB76983DC01ED91FC9148
:102880000280F381E02D41E050E0BE016F5F7F4F99
:1028900009950F90DF91CF91089583E08093E9002F
:1028A0008091F200882319F08AE38093E80008956C
:1028B000FC018485958597FD0BC09FB7F89482E055
:1028C0008093E9008091F2009FBF90E00196089507
:1028D0009FB7F89482E08093E9008091F2009FBF57
:1028E00090E008958F929F92AF92BF92CF92DF9225
:1028F000EF92FF920F931F93CF93DF935C016B01D5
:102900007A0180913601882309F45BC080915205D9
:10291000882309F456C08091C10780FF05C08091CB
:10292000E00082608093E000E70110E00AEF83E0BE
:10293000882E9AE3992E2097D9F10E9412148111C2
:102940000AC0015009F43DC061E070E080E090E011
:102950000E947919F0CF282F30E0C217D3070CF46A
:102960008C2F4FB7F8948092E9009091E80095FF82
:102970001DC0282F30E0C21BD30BF601982F9150B9
:1029800020F081918093F100FACFC20ED31E112363
:1029900019F09092E80009C08091E80085FD06C01A
:1029A0009092E80011E0209709F010E04FBFC3CFEC
:1029B0001111C3CF5D9884E68093C2071E141F04D3
:1029C00044F081E090E0F5019383828380E090E021
:1029D00001C0C701DF91CF911F910F91FF90EF9040
:1029E000DF90CF90BF90AF909F908F9008950E94FE
:1029F000121490E008950F931F93CF93DF931F92CB
:102A0000CDB7DEB78C01FC018485958597FF0EC09C
:102A1000CE0101960E94E813019719F4298130E054
:102A200002C02FEF3FEFF80135872487F801848536
:102A300095850F90DF91CF911F910F910895CF93BE
:102A4000DF931F92CDB7DEB7FC018485958597FD96
:102A500005C02FEF3FEF358724870BC0CE010196CD
:102A60000E94E813019719F4898190E002C08FEF6A
:102A70009FEF0F90DF91CF910895CF92DF92EF9269
:102A8000FF920F931F93CF93DF931F92CDB7DEB7C3
:102A9000182F062FE42E862F880F8E5F99830E94B1
:102AA0000B1083E00E940B10F12EC12E9981D92EBC
:102AB0008C2D8F19801798F4F601E7FE02C08491DF
:102AC00001C080810E940B10182F80E00E940B1023
:102AD0008123FFEFCF1ADF0A8111EACF01C081E025
:102AE0000F90DF91CF911F910F91FF90EF90DF90AA
:102AF000CF900895DF92EF92FF920F931F93CF93A1
:102B0000DF93D82E8A017B01E40EF51EEB01CE1572
:102B1000DF0571F0D7FE03C0FE01849101C08881FA
:102B20000E940B1021968111F2CF8FEF9FEF01C011
:102B3000C801DF91CF911F910F91FF90EF90DF902F
:102B400008950F931F93CF93DF931F92CDB7DEB7F6
:102B500082E0898342E450E06DEA71E080E80E94FF
:102B60007A150E942314DC0112960D911C91139783
:102B70000115110569F0D801ED91FC910280F381F6
:102B8000E02DBE016F5F7F4FC801099597FF07C019
:102B900089810F90DF91CF911F910F910895F801D6
:102BA00000851185E5CF1F920F920FB60F92112469
:102BB0008F939F938091E1009091E100937F909398
:102BC000E10083FF0FC01092E90091E09093EB00C9
:102BD0001092EC0092E39093ED001092520598E071
:102BE0009093F00082FF20C093E09093E9009091D1
:102BF000F200992319F09AE39093E8009091C207AC
:102C0000992339F09091C20791509093C20799236C
:102C100089F190915105992339F090915105915086
:102C200090935105992341F184FF10C08091E200F7
:102C30008E7E81608093E2008091E1008F7E8093A0
:102C4000E1008091C1078E7E806111C080FF16C0B7
:102C50008091E2008E7E80618093E2008091E100AD
:102C60008E7E8093E1008091C1078E7E816080938B
:102C7000C10704C05D9ACDCF289AD6CF9F918F917E
:102C80000F900FBE0F901F9018951F920F920FB6C6
:102C90000F921124CF92DF92EF92FF920F931F9326
:102CA0002F933F934F935F936F937F938F939F9354
:102CB000AF93BF93EF93FF93CF93DF93CDB7DEB77F
:102CC0006C97DEBFCDBF1092E9008091E80083FFD2
:102CD000EDC168E0CE0145960E94391082EF8093E5
:102CE000E8008D8987FF05C09091E80090FFFCCF38
:102CF00003C09EEF9093E800982F907609F0C6C02D
:102D00009E892F89188D91110CC0803829F48091EB
:102D1000C0078093F10002C01092F1001092F10000
:102D200048C1422F50E0512B913051F4811141C1E3
:102D30004130510509F03DC18091C0078D7F0BC026
:102D4000933061F4811135C14130510509F031C131
:102D50008091C00782608093C0072BC1953041F4F9
:102D60008091E80080FFFCCF20682093E30021C120
:102D7000963009F05FC0EB8CFC8C1092E900109249
:102D8000BE071092BD07123091F51092BC07109249
:102D9000BB070E94A11599E0BE016F5F7F4FDB0169
:102DA000E92F1D92EA95E9F799831A8391E09E83B2
:102DB00090EA98879AEF99872091BD073091BE07D6
:102DC000275F3F4F3C832B838D831092E900109245
:102DD000BE071092BD07F092BC07E092BB0749E026
:102DE00050E080E00E947A150E94A115E2C0F092A6
:102DF000BC07E092BB070E942314DC011296ED9001
:102E0000FC901397E114F10409F4C0C0D701ED91CF
:102E1000FC910480F581E02DBE016B5E7F4FC70100
:102E20000995009719F00CF0C4C0C7C0F701E08401
:102E3000F184E8CF973009F4C0C0983021F481E0E4
:102E40008093F100B6C0993009F0B3C0837009F0E7
:102E5000B4C0E2EAF1E081E021E036E39081992319
:102E600061F08093E9002093EB0091919093EC0046
:102E70003093ED008F5F873089F78EE78093EA000B
:102E80001092EA008F898093520593C08B8D9C8DA0
:102E90001092E9001092BE071092BD079093BC07F4
:102EA0008093BB07898D811156C08E899D89913A87
:102EB00059F4813209F081C047E050E06FE271E0DF
:102EC00080E00E947A1575C0913209F076C0833295
:102ED00089F4888D90E0982F88272F89822BA0E095
:102EE000B0E080932B0190932C01A0932D01B0931F
:102EF0002E015FC0803269F48091E80082FFFCCF30
:102F000067E08FE291E00E9439108BEF8093E80038
:102F100006C0823209F04DC08F89809336018091BE
:102F2000BF07882319F0EEEFFAE002C0E0E0F8E016
:102F300080912F0190913001A0913101B091320127
:102F4000803B9440A105B10509F07BC0809136011A
:102F500080FF93C076C00E942314DC0112960D916D
:102F60001C9113970115110541F1D801ED91FC91C8
:102F70000190F081E02DBE016B5E7F4FC801099585
:102F8000811117C0F80100851185ECCF113009F4CB
:102F90004EC0133091F48F89882309F445C08230E4
:102FA00081F440E860E181E192E00E943D158823D0
:102FB00021F08EEF8093E80079C081E28093EB00EE
:102FC00075C0813029F440E86BE085E092E0EDCFF8
:102FD000833099F70E942314DC011296ED90FC9047
:102FE00013978E010F5F1F4F6801E114F10479F010
:102FF000D701ED91FC910680F781E02DB801C70162
:103000000995080F111DF701E084F184EECFD80176
:103010001C92F60101900020E9F73197BF016C196D
:103020007D0940E0C601C1CF6FEE71E002C063EFE1
:1030300071E06115710509F2FB01449150E080E8EF
:1030400040CF0FB6F894A895809160008861809376
:103050006000109260000FBEA895EE3F2AE0F207D4
:1030600039F08091FE0A9091FF0A91838083A1CF6D
:103070001092FF0A1092FE0A9CCFEE3F8AE0F807FA
:1030800031F0808191819093FF0A8093FE0A87E757
:1030900097E7918380839BE088E10FB6F894A89529
:1030A000809360000FBE9093600083CF6C960FB644
:1030B000F894DEBF0FBECDBFDF91CF91FF91EF91AE
:1030C000BF91AF919F918F917F916F915F914F9140
:1030D0003F912F911F910F91FF90EF90DF90CF9034
:1030E0000F900FBE0F901F901895089585ED809357
:1030F000BC008091BC0084FDFCCF10920D080895A7
:103100004091E707262F30E0240F311D2132310591
:10311000DCF420910D082430C9F4FC0180E090E03B
:10312000861758F43091E7072191DC01AB53B84F73
:10313000A30FB11D2C930196F3CF8091E707680F81
:103140006093E70780E0089581E0089582E00895A4
:1031500008958FEF9FEF08958FEF9FEF089580916F
:10316000C40790E09195819591090895CF93DF93DD
:1031700000D0CDB7DEB7CB01642F49835A830E94BC
:1031800080184981842F5A81952F0F900F90DF91DD
:10319000CF910895CF93DF931F92CDB7DEB76983A8
:1031A00061E0CE0101960E94801881E090E00F90CE
:1031B000DF91CF91089590E0FC013197EF30F10558
:1031C000B0F5EE59FF4F0C941B2D809180008F7746
:1031D00003C0809180008F7D80938000089580914E
:1031E0008000877FF9CF84B58F7702C084B58F7D4B
:1031F00084BD0895809190008F7707C080919000E2
:103200008F7D03C080919000877F80939000089508
:103210008091C0008F7703C08091C0008F7D809324
:10322000C00008958091C200877F8093C2000895F6
:10323000CF93DF9390E0FC01E159FE4F2491FC0114
:10324000E05BFE4F8491882361F190E0880F991F25
:10325000FC01EE5DFD4FC591D491FC01EC5CFE4F8D
:10326000A591B491611109C09FB7F8948881209508
:1032700082238883EC912E230BC0623061F49FB7C8
:10328000F8943881822F809583238883EC912E2BAC
:103290002C939FBF06C08FB7F894E8812E2B28830C
:1032A0008FBFDF91CF9108953FB7F8948091380890
:1032B00090913908A0913A08B0913B0826B5A89B97
:1032C00005C02F3F19F00196A11DB11D3FBFBA2FB8
:1032D000A92F982F8827820F911DA11DB11DBC0118
:1032E000CD0142E0660F771F881F991F4A95D1F7DD
:1032F00008958F929F92AF92BF92CF92DF92EF92FA
:10330000FF926B017C010E9454194B015C01C114B6
:10331000D104E104F104F1F00E945419DC01CB0165
:1033200088199909AA09BB09883E9340A105B105EE
:1033300070F321E0C21AD108E108F10888EE880E86
:1033400083E0981EA11CB11CC114D104E104F10456
:1033500019F7DDCFFF90EF90DF90CF90BF90AF9047
:103360009F908F9008952FB7F894609134087091D2
:10337000350880913608909137082FBF08951F9225
:103380000F920FB60F9211242F933F938F939F9319
:10339000AF93BF938091340890913508A09136087F
:1033A000B09137083091330823E0230F2D3720F4F4
:1033B0000196A11DB11D05C026E8230F0296A11D8F
:1033C000B11D209333088093340890933508A0935F
:1033D0003608B09337088091380890913908A09149
:1033E0003A08B0913B080196A11DB11D80933808A1
:1033F00090933908A0933A08B0933B08BF91AF91DE
:103400009F918F913F912F910F900FBE0F901F9022
:1034100018951F920F920FB60F9211242F933F937E
:103420004F935F936F937F938F939F93AF93BF93CC
:10343000EF93FF93E0911201F09113010995FF9131
:10344000EF91BF91AF919F918F917F916F915F911C
:103450004F913F912F910F900FBE0F901F90189595
:103460001F920F920FB60F9211242F933F934F93F9
:103470005F936F937F938F939F93AF93BF93EF93DC
:10348000FF93E0911001F09111010995FF91EF91E7
:10349000BF91AF919F918F917F916F915F914F916C
:1034A0003F912F910F900FBE0F901F9018951F9274
:1034B0000F920FB60F9211242F933F934F935F9368
:1034C0006F937F938F939F93AF93BF93EF93FF93EC
:1034D000E0910E01F0910F010995FF91EF91BF91DD
:1034E000AF919F918F917F916F915F914F913F919C
:1034F0002F910F900FBE0F901F9018951F920F9253
:103500000FB60F9211242F933F934F935F936F93B6
:103510007F938F939F93AF93BF93EF93FF93E0912C
:103520000C01F0910D010995FF91EF91BF91AF91C1
:103530009F918F917F916F915F914F913F912F91CB
:103540000F900FBE0F901F9018951F920F920FB6FD
:103550000F9211242F933F934F935F936F937F9319
:103560008F939F93AF93BF93EF93FF93E0910A01E3
:10357000F0910B010995FF91EF91BF91AF919F9150
:103580008F917F916F915F914F913F912F910F900C
:103590000FBE0F901F9018952F923F924F925F92FF
:1035A0006F927F928F929F92AF92BF92CF92DF9253
:1035B000EF92FF920F931F93CF93DF93EC016A0179
:1035C0007B0148015901A9019801C701B6010E9478
:1035D000742C87FF4EC0CAAADBAAECAAFDAA8EAA49
:1035E0009FAAA8AEB9AE8AAD882309F442C02E8C3A
:1035F0003F8CF1014080518062807380A50194016D
:10360000C301B2010E94742C181634F4F1018082B7
:103610009182A282B3820DC0A7019601C301B201BB
:103620000E94152B87FF05C0F101C082D182E28282
:10363000F3828EA09FA0A8A4B9A4CEA8DFA8E8AC6E
:10364000F9ACA7019601C501B4010E94742C1816AB
:1036500064F0CAA8DBA8ECA8FDA8A7019601C501E3
:10366000B4010E94152B87FF04C0CEA2DFA2E8A6FA
:10367000F9A6DF91CF911F910F91FF90EF90DF900E
:10368000CF90BF90AF909F908F907F906F905F9002
:103690004F903F902F9008951F920F920FB60F9268
:1036A00011242F933F934F935F936F937F938F9347
:1036B0009F93AF93BF93EF93FF938091B900887F5F
:1036C000803609F49CC068F5883209F45BC090F438
:1036D000803109F454C038F4882309F4F6C08830E6
:1036E00009F44DC0F6C0883109F44CC0803209F4A9
:1036F0005DC0EFC0803409F468C048F4803309F439
:1037000055C0883309F0E5C080930C08D8C08035D7
:1037100009F44FC0883509F45DC0883409F0D9C078
:10372000D6C0883909F4C7C0A8F4883709F467C03F
:1037300038F4883609F463C0803709F460C0C9C022
:10374000883809F4B8C0803909F45FC0803809F0BE
:10375000C0C05BC0803B09F486C038F4803A09F4ED
:1037600066C0883A09F47FC0B4C0803C09F4A7C0A1
:10377000883C09F4A4C0883B09F48AC0AAC080919F
:10378000320810C09091310880913008981770F578
:10379000E091310881E08E0F80933108F0E0E05F26
:1037A000F74F80818093BB0085EC86C080930C0826
:1037B0008EC0E091310881E08E0F809331088091B6
:1037C000BB00F0E0E05FF74F80839091310880917B
:1037D00030086EC0E091310881E08E0F809331088F
:1037E0008091BB00F0E0E05FF74F808380910F088D
:1037F00081116DC081E080930E0884EA61C083E08E
:1038000080930D0810920B08CFCF80910B08803267
:1038100008F051C0E0910B0881E08E0F80930B08F7
:103820008091BB00F0E0E551F84F8083BDCF85EC7F
:103830008093BC0010920D0880910B08803230F408
:10384000E0910B08F0E0E551F84F108260910B0811
:1038500070E0E091E907F091EA078BEE97E00995B7
:1038600010920B0836C084E080930D081092E80790
:103870001092E707E091E507F091E607099580913E
:10388000E707811105C081E08093E7071092C50723
:10389000E091E80781E08E0F8093E807F0E0EB53BA
:1038A000F84F80818093BB009091E8078091E707F3
:1038B000981708F479CF85E88093BC000AC085EC9E
:1038C0008093BC0010920D0804C010920C080E9456
:1038D0007618FF91EF91BF91AF919F918F917F915A
:1038E0006F915F914F913F912F910F900FBE0F906D
:1038F0001F9018951F920F920FB60F9211242F93BD
:103900003F934F935F936F937F938F939F93AF9367
:10391000BF93EF93FF938091C30787FF05C0109279
:103920008500109284001BC02091C307022E000C5A
:10393000330B8091140690E02817390784F48091A6
:10394000C307082E000C990BFC01EE0FFF1F8E0F12
:103950009F1FFC01E051FA4F808186FD15C08091C8
:10396000C3078F5F8093C3072091C307022E000C0B
:10397000330B8091140690E028173907C4F4809126
:10398000C3078C3064F113C08091C307082E000C6C
:10399000990BFC01EE0FFF1F8E0F9F1FFC01E051E2
:1039A000FA4F808160E08F730E94DC10D8CF809145
:1039B000840090918500049680349C4918F480E43A
:1039C0009CE905C0809184009091850004969093B5
:1039D0008900809388008FEF8093C3073BC02091BC
:1039E0008400309185008091C307082E000C990B4C
:1039F000FC01EE0FFF1F8E0F9F1FFC01E051FA4FDD
:103A000081819281820F931F909389008093880017
:103A10008091C307082E000C990BFC01EE0FFF1FCD
:103A20008E0F9F1FFC01E051FA4F808186FF12C06C
:103A30008091C307082E000C990BFC01EE0FFF1FAD
:103A40008E0F9F1FFC01E051FA4F808161E08F7360
:103A50000E94DC10FF91EF91BF91AF919F918F91E8
:103A60007F916F915F914F913F912F910F900FBE7A
:103A70000F901F901895CF93DF93EC018A859B855B
:103A8000AC85BD858E839F83A887B9870E94B319B3
:103A90006A837B838C839D8381E089838883DF9124
:103AA000CF9108952F923F924F925F926F927F92A3
:103AB0008F929F92AF92BF92CF92DF92EF92FF923E
:103AC0000F931F93CF93DF93D82FC92F8B010E94A1
:103AD000122A24E630E040E050E00E94772A4901B3
:103AE0005A019B01AC0160E876E988E990E00E9408
:103AF000EB2C6B017C01F80191828082ED2FFC2F71
:103B00002191822F022E000C990BC0970A97C0F3C7
:103B10002E3239F51F0180E8882E86E9982E88E933
:103B2000A82EB12C9AE0492E512C612C712CF10158
:103B3000C1911F010C2E000CDD0BE097CA30D1059E
:103B400080F4C501B401A30192010E94772A4901C2
:103B50005A01DE010E946F2AC60ED71EE81EF91E0A
:103B6000E6CFA5E0B0E0A70196010E94642A6F5F4E
:103B70007F4F8F4F9F4F23E030E040E050E00E94A6
:103B8000772AF80122833383448355831682DF9199
:103B9000CF911F910F91FF90EF90DF90CF90BF904A
:103BA000AF909F908F907F906F905F904F903F90DD
:103BB0002F900895FF920F931F93CF93DF93EC0103
:103BC000FF24F39488818D3211F0F12C01C02196ED
:103BD000CE010E94122A9B01AC01A4E6B0E00E9433
:103BE000642AFE014991242F042E000C330B20532C
:103BF00031092A303105A8F34E3241F52181022ED8
:103C0000000C330B205331092A303105F8F44AE017
:103C1000429F8001439F100D1124012E000C220BA6
:103C2000330B600F711F821F931F0281002E000C47
:103C3000110B005311090A30110540F4012E000C3C
:103C4000220B330B600F711F821F931FFF2039F06F
:103C500090958095709561957F4F8F4F9F4FDF9125
:103C6000CF911F910F91FF90089582E00E94B310B1
:103C7000019779F481E080934E0880913C089091FF
:103C80003D08A0913E08B0913F080197A109B109F4
:103C90000DC010924E0880913C0890913D08A09173
:103CA0003E08B0913F080196A11DB11D80933C08CC
:103CB00090933D08A0933E08B0933F0881E0809325
:103CC000400808958F929F92AF92BF92CF92DF9259
:103CD000EF92FF920F931F930E94541900914A088C
:103CE00010914B0820914C0830914D08C090460827
:103CF000D0904708E0904808F090490846015701E5
:103D0000801A910AA20AB30A95018401060F171FAF
:103D1000281F391F0093460810934708209348082E
:103D20003093490860934A0870934B0880934C087D
:103D300090934D088091420890914308A0914408C7
:103D4000B09145080196A11DB11D80934208909342
:103D50004308A0934408B09345081F910F91FF902A
:103D6000EF90DF90CF90BF90AF909F908F9008958D
:103D7000AF92BF92CF92DF92FF920F931F93CF9398
:103D8000DF9301E017E082E0F82ED1E083E595E0D3
:103D90000E945F0F892B09F4ECC283E595E00E9435
:103DA0003D0FC82F8091D1069091D206A091D306E5
:103DB000B091D4060196A11DB11D8093D1069093B8
:103DC000D206A093D306B093D406C43209F4B0C28D
:103DD000E091CB06C53234F4CA3071F0CD3009F031
:103DE000B4C20AC0CA3241F0CC3209F0AEC28091EE
:103DF000B8068C278093B806EF3008F08BC2F0E04D
:103E0000E654F94F10828091B906882309F46BC1FA
:103E10002091BA063FEB320F822F022E000C990B35
:103E2000363010F4C79707C02156263018F487554E
:103E3000910901C0C097282F2295207F3091BB06A1
:103E40004FEB430F832F032E000C990B463010F4D9
:103E5000C79707C03156363018F48755910901C00D
:103E6000C097820F9091B806891329C18091DD0611
:103E70009091DE06A091DF06B091E0060196A11DAB
:103E8000B11D8093DD069093DE06A093DF06B0930C
:103E9000E0068091CC06882399F08091D506909118
:103EA000D606A091D706B091D8060196A11DB11DE6
:103EB0008093D5069093D606A093D706B093D806E4
:103EC000D090C906DD2009F46BC021E0D212D0C029
:103ED00080915C0690915D06A0915E06B0915F06B0
:103EE0008093580690935906A0935A06B0935B06A8
:103EF0000E94B31960936006709361068093620616
:103F000090936306D0925706D092560680916A0627
:103F100090916B06A0916C06B0916D068093660639
:103F200090936706A0936806B09369060E94B31940
:103F300060936E0670936F0680937006909371067F
:103F4000D0926506D09264068091CC06882309F44D
:103F50008FC0E4E4F6E0A6E3B6E0812F01900D9275
:103F60008A95E1F7EBE4F6E0ADE3B6E0812F01904E
:103F70000D928A95E1F70E94B319609352067093EF
:103F800053068093540690935506D0923506D092EE
:103F9000340682E796E00E943B1D80E896E066C00A
:103FA00080916A0690916B06A0916C06B0916D06A7
:103FB0008093660690936706A0936806B09369069F
:103FC0000E94B31960936E0670936F06809370061B
:103FD00090937106D0936506D09364068091CC06C9
:103FE000882321F1E4E4F6E0A6E3B6E0812F019016
:103FF0000D928A95E1F7EBE4F6E0ADE3B6E0812FB0
:1040000001900D928A95E1F70E94B31960935206D0
:10401000709353068093540690935506D0933506BB
:10402000D09334068EE896E00E943B1D8091A60650
:104030009091A706A091A806B091A9068093A20628
:104040009093A306A093A406B093A5060E94B3196B
:1040500060939E0670939F068093A0069093A1069E
:10406000D0939D06D0939C068AEA96E00E943B1D61
:10407000C090CF06D090D006C114D10409F44AC133
:10408000E091CF06F091D00666A177A1F60186A156
:1040900097A10E943A2D892B09F03CC1B601C601B7
:1040A00040960E94432D0E94B319F60160A371A3AC
:1040B00082A393A305A304A3C2A4D3A4DDCF8091BC
:1040C000D9069091DA06A091DB06B091DC06019644
:1040D000A11DB11D8093D9069093DA06A093DB064B
:1040E000B093DC0617C19091CA06911146C064E0F6
:1040F00075E08AEB96E00E943A2D892B41F06AE048
:1041000075E08AEB96E00E943A2D892B19F4D09342
:10411000C90615C060E175E08AEB96E00E943A2D71
:10412000892B41F066E175E08AEB96E00E943A2D1A
:10413000892B19F41092C90602C0F092C906809129
:10414000CD069091CE069093D0068093CF06C09076
:10415000CF06D090D006C114D10409F4DBC0F6011B
:10416000A6A0B7A06AEB76E0C5010E943A2D97FFA2
:10417000C5C0F60182A593A5E6CFE091C906E2305D
:1041800009F491C08091BA06882309F48CC020E21A
:10419000E29FF0011124E92B3197E932F10508F093
:1041A00082C0EF58FF4F0C941B2D8AEB96E00E94C3
:1041B000DA1D60936A0670936B0680936C06909389
:1041C0006D0671C091E0813409F043C043C064E4DE
:1041D00076E009C091E0833509F090E090934A06BB
:1041E00062C06BE476E08AEB96E00E94521D5BC0F1
:1041F00091E0873509F090E09093510654C08AEB26
:1042000096E00E94DA1D60937C0670937D06809391
:104210007E0690937F0647C08AEB96E00E94DA1DE7
:1042200060938A0670938B0680938C0690938D061C
:104230003AC08AEB96E00E94122A60935C06709363
:104240005D0680935E0690935F062DC091E08133FA
:104250000CF490E09093CC0626C08AEB96E00E9486
:10426000122A6093A6067093A7068093A8069093DF
:10427000A90619C08AEB96E00E94DA1D6093B40685
:104280007093B5068093B6069093B7060CC08AEB80
:1042900096E00E94DA1D60939806709399068093C9
:1042A0009A0690939B06C090CF06D090D006C1147A
:1042B000D10481F1E091CF06F091D00666A177A1FB
:1042C000F60186A197A10E943A2D892B19F5F601D6
:1042D00020A531A58091CA0690E082179307D4F0FB
:1042E0002817390739F440E150E06AEB76E0C6015F
:1042F0000E944A2DF601C2A4D3A4D9CF6AEB76E07E
:10430000C5010E943A2D1816190624F41092D00601
:104310001092CF068091CA068F5F8093CA061092D2
:10432000CB0681E0CA3209F080E08093B9062ECD39
:104330001092CB061092CA061092B806F092C906E7
:104340001092B9061092CC0621CDEE3040F481E0F7
:104350008E0F8093CB06F0E0E654F94FC083809136
:10436000B906811113CD8091B806C827C093B8064D
:104370000DCD80917306882309F408CDDF91CF918C
:104380001F910F91FF90DF90CF90BF90AF90089555
:104390000C94562A0C944E2A0F931F93CF938C01A2
:1043A00001960E94CA21C82FC8010E94CA212C2F41
:1043B00030E0A901582BCA01CF911F910F910895A8
:1043C0001F93CF93DF93EC01162F672F0E94C82114
:1043D000612FCE010196DF91CF911F910C94C821DE
:1043E000109238011092410881E0809337010C94BB
:1043F000430180912301909124012AE030E0B9012A
:104400000E94072DCB0170931F0660931E06B90111
:104410000E94072D70931D0660931C0690931B0647
:1044200080931A06680F791F77FF03C08CE195E02F
:1044300002C08FED91E00E94821180911C06909144
:104440001D0697FF07C091958195910990931D06D0
:1044500080931C0680911C0690911D060E94B3114A
:104460008EE195E00E94821180911A0690911B06C0
:1044700097FF07C091958195910990931B068093B2
:104480001A0680911A0690911B060E94B311809122
:104490001501882319F08BE493E002C080E593E0D6
:1044A0000C948211CF9380914008882391F18091E0
:1044B0003C0890913D08A0913E08B0913F08181625
:1044C00019061A061B0664F410923C0810923D0867
:1044D00010923E0810923F081092400881E065C09B
:1044E00080913C0890913D08A0913E08B0913F0812
:1044F000B7FF0CC010923C0810923D0810923E0885
:1045000010923F081092400882E04FC0109240087D
:104510004BC084E00E94B310C0914F08892BE9F48E
:10452000CF5FC0934F0868EC70E080E090E00E949D
:104530007919C830C0F110924F080E947E1184E1B1
:104540000E94971360E070E080E090E00E94831387
:1045500086E295E00E9482111DC0CC2329F11092C1
:104560004F080E947E1184E10E94971360E070E082
:1045700080E090E00E94831380E295E00E94821127
:1045800064EF71E080E090E00E9479190E947E1152
:1045900084E00BC084E00E94B310892BD9F30E9401
:1045A0007E1188E002C002C080E190E0CF910895C2
:1045B0008F929F92AF92BF92CF92DF92EF92FF9233
:1045C0008090460890904708A0904808B09049080D
:1045D0006091420870914308809144089091450889
:1045E0001092460810924708109248081092490805
:1045F0001092420810924308109244081092450805
:104600000E94C22B20E03BE147EB5AE40E94792C48
:104610006B017C01C501B4010E94C22B9B01AC015E
:10462000C701B6010E941A2B6B017C018091220107
:10463000682F70E080E090E00E94C42B9B01AC01E9
:10464000C701B6010E941A2B0E948C2B9B01AC0162
:10465000AAE0B0E00E94642ACB01FF90EF90DF90C7
:10466000CF90BF90AF909F908F9008950895089538
:10467000089580E090E00895FF920F931F93CF93E9
:10468000DF93EC0161E089890E94DC1061E0898997
:104690000E94DC108A890E94B310892BD9F360E054
:1046A00089890E94DC1060E089890E94DC1060E04A
:1046B00089890E94DC1098E0F92E00E010E0000FDC
:1046C000111F61E08F850E94DC108A890E94B3105F
:1046D000892B09F0016060E08F850E94DC10FA945C
:1046E000F110EDCF61E089890E94DC10C801DF91F3
:1046F000CF911F910F91FF90089504970C943C2344
:10470000CF92DF92EF92FF920F931F93CF93DF939D
:10471000EC01E62E60E089890E94DC1060E0898966
:104720000E94DC1060E089890E94DC10DF84C88868
:1047300007E010E0F12CB701002E02C075956795D7
:104740000A94E2F7617077278C2D0E94DC1061E0FB
:104750008D2D0E94DC1060E08D2D0E94DC10015038
:10476000110948F761E089890E94DC1081E090E03E
:10477000DF91CF911F910F91FF90EF90DF90CF903D
:104780000895CF93DF93EC0161E08F850E941819A3
:1047900061E088890E94181961E089890E941819CE
:1047A00061E089890E94DC1060E08F850E94DC1046
:1047B00060E088890E94DC108A89882329F060E003
:1047C000DF91CF910C941819DF91CF9108957894CF
:1047D00084B5826084BD84B5816084BD85B5826006
:1047E00085BD85B5816085BD80916E0081608093B7
:1047F0006E00109281008091810082608093810020
:10480000809181008160809381008091800081602F
:1048100080938000809191008260809391008091CC
:1048200091008160809391008091900081608093DD
:1048300090008091C10084608093C1008091C1008C
:1048400082608093C1008091C10081608093C1002B
:104850008091C30081608093C3008091C00082601A
:104860008093C0008091C20081608093C2008091DB
:104870007A00846080937A0080917A0082608093CD
:104880007A0080917A00816080937A0080917A002A
:10489000806880937A00109252051092C00710929F
:1048A000C1078091D70081608093D70080EA809310
:1048B000D80089B5806189BD89B5826089BD09B498
:1048C00000FEFDCF61E070E080E090E00E94791989
:1048D0008091D8008F7C80618093D8008091E00027
:1048E000807F8093E0008091E1008E7E8093E100E4
:1048F0008DE08093E200559A209AEEEFFFE78591D4
:1049000094918B3F9C4D19F481E08093BF07E09117
:104910006305F091640582E08083E0915F05F0918A
:1049200060051082E0916105F09162058FEC808353
:1049300010926B05E0916705F091680586E0808331
:10494000E0916505F0916605808180618083E0914A
:104950006505F0916605808188608083E09165053A
:10496000F0916605808180688083E0916505F09113
:10497000660580818F7D808364E670E080E090E052
:104980000E94791980E296E00E94C12368EB7BE0E7
:1049900080E090E00E9479190E947E1164E670E048
:1049A00080E090E00E9479198EE10E94971361E007
:1049B00070E080E090E00E9483138DED91E00E9412
:1049C000821164E670E080E090E00E9479198FE443
:1049D00094E00E94821168EE73E080E090E00E9413
:1049E000791963E070E080E090E00E9483138AE52B
:1049F00094E00E94821161E77DE380E991E40E94E6
:104A0000DC1168E873E180E090E00E9479190E946F
:104A10007E1164EF71E080E090E00E9479198EE1F0
:104A20000E94971361E070E080E090E00E948313A1
:104A300085E490E00E94CA21853409F46AC08EE1C1
:104A40000E94971361E070E080E090E00E94831381
:104A500085E694E00E94821163E070E080E090E0DF
:104A60000E94831384E794E00E94821160ED77E056
:104A700080E090E00E94791966E08BE090E00E946F
:104A8000C82160E08CE090E00E94C82169E18DE0DF
:104A900090E00E94C82160E08EE090E00E94C82172
:104AA00069E18FE090E00E94C82160E080E190E041
:104AB0000E94C82162E381E190E00E94C82161E088
:104AC00082E190E00E94C8216CE083E190E00E94C6
:104AD000C8216FEF84E190E00E94C82160E085E189
:104AE00090E00E94C82161E08DE190E00E94C82121
:104AF0006AE08EE190E00E94C82160E08FE190E0E2
:104B00000E94C82165E485E490E00E94C8210E94CB
:104B10007E118EE10E94971361E070E080E090E0EA
:104B20000E94831386E894E00E94821163E070E0A3
:104B300080E090E00E94831387E994E00E94821154
:104B400068EE73E080E090E00E94791960E082E016
:104B50000E94181960E083E00E94181962E084E066
:104B60000E94181985E39EE190930B0180930A013E
:104B700080916900836080936900E89A82E69EE1F3
:104B8000909313018093120180916A008F7C806161
:104B900080936A00EE9A809117068C3008F051C01D
:104BA00061E085E00E94181980911706E82FF0E077
:104BB0009F01220F331FE20FF31FE051FA4F908144
:104BC000907C9560908310921806109219066CE004
:104BD0000E94FB2C9CE0899FB001112440E050E032
:104BE0009A01260F371FF901EE0FFF1F2E0F3F1FEF
:104BF000F901E051FA4F908196FD16C04F5F5F4F6B
:104C00004C30510569F781110FC01092800082E08D
:104C1000809381001092850010928400B19A809157
:104C20006F00826080936F00E0911706F0E0CF0183
:104C3000880F991FE80FF91FE051FA4F80818064B7
:104C4000808380911506909116060E94B0136091A2
:104C50004F0570915005072E000C880B990B0E9490
:104C6000C42B6093E9067093EA068093EB06909359
:104C7000EC066091230170912401072E000C880B33
:104C8000990B0E94C42B6093E1067093E206809317
:104C9000E3069093E40680912707811148C0E091D4
:104CA0000B07F0910C07C080D180E280F380C092A6
:104CB0001307D0921407E0921507F0921607E091BF
:104CC0000907F0910A0780819181A281B3818093C5
:104CD000170790931807A0931907B0931A078090AD
:104CE000230790902407A0902507B0902607A501E0
:104CF0009401C701B6010E94742C181684F08090AC
:104D00001F0790902007A0902107B0902207A501CF
:104D10009401C701B6010E94152B87FF08C080923D
:104D2000130790921407A0921507B092160781E01E
:104D3000809327071092460510924505109248056A
:104D40001092470510924A051092490510924C05A1
:104D500010924B0510924E0510924D058BE090E09D
:104D60000E94CA21809322018CE090E00E94CC2115
:104D7000BC0180E090E00E94C22B20E030E048ECD3
:104D800052E40E941A2B60932701709328018093AC
:104D9000290190932A018EE090E00E94CC21BC0171
:104DA00080E090E00E94C22B20E030E048EC52E42A
:104DB0000E941A2B60931E0170931F0180932001A3
:104DC0009093210180E190E00E94CC21BC0180E021
:104DD00090E00E94C22B20E030E048EC52E40E94B8
:104DE0001A2B60931A0170931B0180931C019093FE
:104DF0001D0183E190E00E94CA2190E09093190187
:104E00008093180184E190E00E94CA212AE0829FE9
:104E100080011124109317010093160185E190E0A1
:104E20000E94CA219AE0899FE0011124D0932601B3
:104E3000C093250182E190E00E94CA2191E0811196
:104E400001C090E0909315018DE190E00E94CA218D
:104E500091E0811101C090E0909314018EE190E007
:104E60000E94CA2124E6829FC0011124909324014C
:104E7000809323018FE190E00E94CA2191E081118B
:104E800001C090E090934405B801110F880B990B75
:104E90000E94C42B6B017C01BE01DD0F880B990BB6
:104EA0000E94C42BAB01BC01970186018DEE96E0F8
:104EB0000E94CC1A66EA74E083E595E00E944610F1
:104EC00068ED74E083E595E00E94461064E670E0CA
:104ED00080E090E00E9479196BED74E083E595E045
:104EE0000E94461068ED74E083E595E00E9446104C
:104EF00064E670E080E090E00E9479190E9443012E
:104F00000E94FF0FFBCFCF92DF92EF92FF92CF93E1
:104F1000DF93109238071092370788EE93E0A0E0F5
:104F2000B0E08093390790933A07A0933B07B09382
:104F30003C0727E531E030933607209335072FEF04
:104F40003FEF30934207209341071092560510928D
:104F500055058093570590935805A0935905B09334
:104F60005A0529E631E030935405209353052DEC82
:104F700030E03093600520935F052CEC30E03093F7
:104F800062052093610528EC30E03093640520939E
:104F9000630529EC30E030936605209365052AEC23
:104FA00030E030936805209367052EEC30E03093B5
:104FB0006A052093690510926C0510926D05109298
:104FC0006E0510926F0510928807109287078093E4
:104FD000890790938A07A0938B07B0938C078BE780
:104FE00091E09093860780938507C0902701D09029
:104FF0002801E0902901F0902A0185EE96E0909337
:105000000C0780930B0789EE96E090930A07809334
:10501000090781EE96E090930E0780930D0710929A
:10502000270710921F071092200710922107109255
:10503000220780E090E0AFE7B3E4809323079093EA
:105040002407A0932507B093260784E690E0A0E00C
:10505000B0E080931B0790931C07A0931D07B093AB
:105060001E07C1E0D0E0D0930607C093050720E0FB
:1050700030E0A901C701B6010E94152B87FD5CC075
:10508000D0930807C093070781E080932807C09258
:10509000ED06D092EE06E092EF06F092F006C09296
:1050A000F106D092F206E092F306F092F406C09276
:1050B000F506D092F606E092F706F092F806A70100
:1050C000960160E070E0CB010E94A82A6093F90687
:1050D0007093FA068093FB069093FC062DEC3CEC53
:1050E0004CEC5DE3C701B6010E94792C9B01AC0139
:1050F00060E070E0CB010E94A82A6093FD067093E7
:10510000FE068093FF06909300072DEC3CEC4CECE0
:105110005DE3C701B6010E941A2B9B01AC0160E060
:1051200070E0CB010E94A82A6093010770930207E8
:1051300080930307909304070E94B319C0901B0744
:10514000D0901C07E0901D07F0901E07DC01CB01FA
:105150008C199D09AE09BF0980930F079093100722
:10516000A0931107B09312071092340610923506DF
:1051700010923706109236061092380610923906B1
:1051800010923A0610923B0610923C0610923E0690
:1051900010923D0610923F06109240061092410672
:1051A0001092420610924306109245061092440651
:1051B0001092460610924706109248061092490631
:1051C00010924A0610924C0610924B0610924D0611
:1051D00010924E0610924F061092500610925106F1
:1051E00010925606109257061092580610925906C1
:1051F00010925A0610925B06109264061092650691
:105200001092660610926706109268061092690660
:105210001092720610927306109278061092790618
:1052200010927A0610927B061092800610928106E8
:1052300010928606109287061092880610928906B0
:1052400010928E0610928F06109294061092950678
:10525000109296061092970610929C0610929D0648
:105260001092A2061092A3061092A4061092A50610
:105270001092AA061092AB061092B0061092B106D8
:105280001092B2061092B3061092B8061092B906A8
:1052900082E08093C9061092CA061092CB06109243
:1052A000CC061092CE061092CD061092D006109227
:1052B000CF061092D1061092D2061092D306109209
:1052C000D4061092D5061092D6061092D7061092E8
:1052D000D8061092D9061092DA061092DB061092C8
:1052E000DC061092DD061092DE061092DF061092A8
:1052F000E0061092BA0610922306109222068DE85C
:1053000091E090932106809320068DE991E090939F
:1053100025068093240688E080932F0689E08093F9
:1053200030068AE0809331061092320680E296E0E1
:105330000E94C12366E18DEA97E00E94E3296BE0B9
:105340008FE997E00E94E3296CE081E997E00E94F1
:10535000E32980911E0690911F066AE070E00E948A
:10536000072D70931D0660931C0690931B06809377
:105370001A06809114068C30A0F491E0980F909357
:1053800014068093170690E0FC01EE0FFF1F8E0FAE
:105390009F1FFC01E051FA4F88EB9BE092838183D1
:1053A00003C08FEF8093170680912501909126010D
:1053B0009093160680931506DF91CF91FF90EF90A2
:1053C000DF90CF9008950F931F93CF93DF93EC015D
:1053D000162F60E0812F0E941819612F70E0FB01E9
:1053E000E159FE4FE491E883FB01E05BFE4FE4915D
:1053F000F0E0EE0FFF1FEE5BFE4F859194919A83D4
:1054000089831B861D861C86FE013B968E010D5FDF
:105410001F4F1292E017F107E1F7DF91CF911F9133
:105420000F9108951F93FC0199278827BC01E894E8
:1054300011911032E9F3193010F01E30C8F31B320D
:1054400051F01D3249F4689406C00E94392A610F58
:10545000711D811D911D119110531A30B0F33EF44E
:1054600090958095709561957F4F8F4F9F4F1F91BD
:105470000895592F482F372F262F660F771F881F23
:10548000991F660F771F881F991F620F731F841F54
:10549000951F660F771F881F991F0895F999FECFF2
:1054A00092BD81BDF89A992780B50895262FF99964
:1054B000FECF1FBA92BD81BD20BD0FB6F894FA9AF7
:1054C000F99A0FBE019608950E94992AA59F900D02
:1054D000B49F900DA49F800D911D11240895B7FFD6
:1054E0000C94642A0E94642A821B930B0895A1E203
:1054F0001A2EAA1BBB1BFD010DC0AA1FBB1FEE1F4E
:10550000FF1FA217B307E407F50720F0A21BB30B98
:10551000E40BF50B661F771F881F991F1A9469F714
:1055200060957095809590959B01AC01BD01CF0170
:105530000895A29FB001B39FC001A39F700D811D6C
:105540001124911DB29F700D811D1124911D08958C
:105550005058BB27AA270E94C02A0C943A2C0E94BC
:105560002C2C38F00E94332C20F039F49F3F19F492
:1055700026F40C94292C0EF4E095E7FB0C94232CD4
:10558000E92F0E944B2C58F3BA1762077307840760
:10559000950720F079F4A6F50C946D2C0EF4E095A7
:1055A0000B2EBA2FA02D0B01B90190010C01CA01DD
:1055B000A0011124FF27591B99F0593F50F4503E88
:1055C00068F11A16F040A22F232F342F4427585F7A
:1055D000F3CF469537952795A795F0405395C9F792
:1055E0007EF41F16BA0B620B730B840BBAF091504A
:1055F000A1F0FF0FBB1F661F771F881FC2F70EC0E9
:10560000BA0F621F731F841F48F4879577956795BB
:10561000B795F7959E3F08F0B0CF9395880F08F0A7
:105620009927EE0F9795879508950E94FF2B08F410
:1056300081E008950E942E2B0C943A2C0E94332C6A
:1056400058F00E942C2C40F029F45F3F29F00C9474
:10565000232C51110C946E2C0C94292C0E944B2C51
:1056600068F39923B1F3552391F3951B550BBB2791
:10567000AA2762177307840738F09F5F5F4F220FD6
:10568000331F441FAA1FA9F335D00E2E3AF0E0E8CD
:1056900032D091505040E695001CCAF72BD0FE2F17
:1056A00029D0660F771F881FBB1F261737074807AB
:1056B000AB07B0E809F0BB0B802DBF01FF27935863
:1056C0005F4F3AF09E3F510578F00C94232C0C94D8
:1056D0006E2C5F3FE4F3983ED4F3869577956795FB
:1056E000B795F7959F5FC9F7880F911D9695879598
:1056F00097F90895E1E0660F771F881FBB1F6217B7
:1057000073078407BA0720F0621B730B840BBA0B74
:10571000EE1F88F7E09508950E94932B6894B111CD
:105720000C946E2C08950E94532C88F09F5798F08B
:10573000B92F9927B751B0F0E1F0660F771F881F96
:10574000991F1AF0BA95C9F714C0B13091F00E94B0
:105750006D2CB1E008950C946D2C672F782F88275D
:10576000B85F39F0B93FCCF3869577956795B395D7
:10577000D9F73EF490958095709561957F4F8F4F46
:105780009F4F0895E89409C097FB3EF4909580954B
:10579000709561957F4F8F4F9F4F9923A9F0F92FF7
:1057A00096E9BB279395F695879577956795B79575
:1057B000F111F8CFFAF4BB0F11F460FF1BC06F5F5B
:1057C0007F4F8F4F9F4F16C0882311F096E911C06D
:1057D000772321F09EE8872F762F05C0662371F08E
:1057E00096E8862F70E060E02AF09A95660F771FA2
:1057F000881FDAF7880F9695879597F90895990F7E
:105800000008550FAA0BE0E8FEEF16161706E8078A
:10581000F907C0F012161306E407F50798F0621BAB
:10582000730B840B950B39F40A2661F0232B242B80
:10583000252B21F408950A2609F4A140A6958FEF9F
:10584000811D811D089597F99F6780E870E060E0F1
:1058500008959FEF80EC089500240A941616170609
:1058600018060906089500240A9412161306140651
:1058700005060895092E0394000C11F4882352F0B4
:10588000BB0F40F4BF2B11F460FF04C06F5F7F4F6C
:105890008F4F9F4F089557FD9058440F551F59F053
:1058A0005F3F71F04795880F97FB991F61F09F3F0D
:1058B00079F087950895121613061406551FF2CF36
:1058C0004695F1DF08C0161617061806991FF1CF86
:1058D00086957105610508940895E894BB276627AD
:1058E0007727CB0197F908950E94FF2B08F48FEFDB
:1058F00008950E948C2C0C943A2C0E942C2C38F089
:105900000E94332C20F0952311F00C94232C0C943E
:10591000292C11240C946E2C0E944B2C70F3959F13
:10592000C1F3950F50E0551F629FF001729FBB2796
:10593000F00DB11D639FAA27F00DB11DAA1F649F32
:105940006627B00DA11D661F829F2227B00DA11DE5
:10595000621F739FB00DA11D621F839FA00D611D6B
:10596000221F749F3327A00D611D231F849F600D8C
:10597000211D822F762F6A2F11249F5750409AF0B5
:10598000F1F088234AF0EE0FFF1FBB1F661F771F41
:10599000881F91505040A9F79E3F510580F00C940C
:1059A000232C0C946E2C5F3FE4F3983ED4F3869541
:1059B00077956795B795F795E7959F5FC1F7FE2BAC
:1059C000880F911D9695879597F908950E94FF2B52
:1059D000880B990B0895DB018F939F930E94642A93
:1059E000BF91AF91A29F800D911DA39F900DB29F7B
:1059F000900D11240895991B79E004C0991F961702
:105A000008F0961B881F7A95C9F78095089597FB33
:105A1000072E16F4009407D077FD09D00E94212D9F
:105A200007FC05D03EF4909581959F4F08957095A1
:105A300061957F4F0895EE0FFF1F0590F491E02DC3
:105A40000994AA1BBB1B51E107C0AA1FBB1FA617C5
:105A5000B70710F0A61BB70B881F991F5A95A9F717
:105A600080959095BC01CD01089581E090E0F89477
:105A70000C94592DFB01DC018D91019080190110CE
:105A8000D9F3990B0895FB01DC0101900D920020E0
:105A9000E1F70895FB01DC014150504048F00190CE
:105AA0000D920020C9F701C01D9241505040E0F70F
:065AB0000895F894FFCFF9
:105AB6000000C8420A00B80B010175187518751860
:105AC6007518751801017C060C000000003F0000E7
:105AD600803E06F40160040000803EFFFFFFFF00E9
