:100000000C942F010C94C1160C949A160C94731630
:100010000C944C160C9457010C9457010C94251613
:100020000C9457010C9457010C94E8160C945A1731
:100030000C9457010C9457010C9457010C945701E0
:100040000C9457010C9479240C9457010C9457018B
:100050000C9457010C9457010C9457010C945021A7
:100060000C9457010C94D3190C94AD190C945701AE
:100070000C9457010C9457010C9457010C945701A0
:100080000C9457010C9457010C9457010C94570190
:100090000C9479220C9457010C9457010C9457013D
:1000A0000C9457010C9457010C9457015209050AFE
:1000B000B80A310BD10BE80D4D0EAD0E0B0F940F9E
:1000C0008910A911DA1EEC1EEF1EF61EFD1E2B1F55
:1000D000321F3F1F4C1F581F581F581F581F581FB3
:1000E000581F581F581F581F581F581F581F581F58
:1000F000581F581F581F581F581F581F581F581F48
:10010000581F581FDA1EE71EEC1EEF1EF61EFD1EBE
:10011000041F111F1E1F8420872076207A20802034
:10012000A820A820A8208B208F20932099209D20F4
:10013000A820A320070605040100080A0B0C0D09DE
:10014000080B000202020100090400000102020083
:100150000005240010010524010101042402060504
:100160002406000107058103100040090401000274
:100170000A00000007050202400000070583024054
:1001800000000403090412010002EF0201404123B0
:10019000368000010102030141726475696E6F20AF
:1001A0004C4C430041726475696E6F204C656F6EF4
:1001B0006172646F0000000000250028002B002EF3
:1001C000003100000000002300260029002C002F31
:1001D00000040404040403040502020202040302EE
:1001E00002020206060606060604040202020404CF
:1001F0000408020110408040102040804080080226
:100200000401804020100201108010204040200096
:1002100000000200090F0000030401000C000000B0
:1002200000000000000000000000000000000000CE
:100230000000240027002A002D003000005EBCE2F0
:10024000613FDD83C29C7E20A3FD1F41009D23BE34
:1002500046DB65F88C11AF32CA57E9744A2E112477
:100260001FBECFEFDAE0DEBFCDBF15E0A0E0B1E00A
:10027000E4ECF8E602C005900D92A835B107D9F775
:1002800028E0A8E5B5E001C01D92AE3AB207E1F75B
:1002900011E0CFE2D1E004C02197FE010E94223498
:1002A000CE32D107C9F70E94262A0C9460340C94F0
:1002B00000002F923F924F925F926F927F928F92A7
:1002C0009F92AF92BF92CF92DF92EF92FF920F93E5
:1002D0001F93CF93DF93CDB7DEB7A7970FB6F894F0
:1002E000DEBF0FBECDBF80918F05882339F060E05F
:1002F0008DE00E943B2010928F0507C061E08DE0E9
:100300000E943B2081E080938F050E9449268091C6
:100310000A018823A1F00E94F52864E670E080E0DD
:1003200090E00E940A21E090A605F090A7058EEAD1
:1003300091E00E94E728C70199270E94441B809101
:10034000CF078823E1F11092D0076091D507709113
:10035000D6078091D7079091D8070E94CB322EEB19
:100360003CE443E95FE30E94803320E030E048EC66
:1003700052E40E94213220E030E048EC52E40E9436
:1003800080330E9493327093A9056093A805109260
:10039000DE076091E3077091E4078091E507909193
:1003A000E6070E94CB3220E030E048EC52E40E94A5
:1003B00021320E94933270938E0560938D050E94C6
:1003C0004421C0908905D0908A05E0908B05F0907B
:1003D0008C05C616D706E806F90608F0AAC00E94E2
:1003E0004421DC01CB0188579C4EAF4FBF4F809317
:1003F000890590938A05A0938B05B0938C0581E0C5
:100400008093580554E3E52E51E0F52E8091580570
:100410008330C8F5F701849190917B0083FB00271E
:1004200000F910E0980145E0220F331F4A95E1F7EB
:100430009F7D292B20937B008770806480937C00B4
:1004400080917A00806480937A0080917A0086FDA2
:10045000FCCF609178008091790070E0782B072EB6
:10046000000C880B990B0E94CB3260936705709348
:1004700068058093690590936A05809158058F5FA0
:1004800080935805C3CF2DEC3CEC4CE052E46091D6
:100490006705709168058091690590916A050E94D1
:1004A0002132609367057093680580936905909386
:1004B0006A0585E597E00E94051A85E597E00E94A8
:1004C000B21B0E949A3260936505613819F410924C
:1004D00065050FC08091210181110BC0F9E06F9F6C
:1004E000C001112465E070E00E940E34605E6093EC
:1004F000650589E697E00E94051A89E697E00E9463
:10050000B21B0E949A3260936605613819F410920A
:1005100066050FC08091210181110BC029E0629F07
:10052000C001112465E070E00E940E34605E6093AB
:1005300066050E9444210091850510918605209151
:10054000870530918805061717072807390708F02F
:1005500066C00E944421DC01CB0188519C4FAF4F03
:10056000BF4F8093850590938605A0938705B09330
:10057000880580918D0590918E059C012751310948
:100580002D32310530F42EE420937D0525E42093AF
:100590007E059C01245431092D32310530F425E4C7
:1005A00020937D0520E220937E059C01215731098F
:1005B0002D32310530F423E520937D0525E4209389
:1005C0007E059C012E5931092D32310530F423E589
:1005D00020937D0520E220937E059C012B5C310950
:1005E0002D32310530F423E520937D0527E5209356
:1005F0007E059C01285F31092D32310530F427E555
:1006000020937D0520E220937E05855291408D97B1
:1006100030F48EE480937D0587E580937E052091FC
:1006200046073091470780912201909123012817B6
:10063000390709F075C00E94442100917805109196
:10064000790520917A0530917B0506171707280751
:10065000390708F065C00E944421DC01CB018053BA
:10066000984FAF4FBF4F8093780590937905A09333
:100670007A05B0937B0582E10E946D1B60E070E01B
:1006800080E090E00E94591B81EB91E00E94F928E4
:1006900061E070E080E090E00E94591B84EC91E002
:1006A0000E94F9280E9449268091CF07882321F1D2
:1006B0001092D0076091D5077091D6078091D70727
:1006C0009091D8070E94CB322EEB3CE443E95FE3E4
:1006D0000E94803320E030E048EC52E40E94213256
:1006E00020E030E048EC52E40E9480330E949332D4
:1006F0007093A9056093A80560E070E080E090E049
:100700000E94591B81E093E00E94F92861E070E0AB
:1007100080E090E00E94591B81E093E00E94F9285C
:1007200080917705811109C080912B0190912C0156
:1007300090934707809346071AC2813019F41092AC
:10074000090103C081E08093090180910901882398
:1007500009F479C0C0905107D0905207E090530738
:10076000F090540720E030E04AEF53E4C701B601AF
:100770000E947B3387FD22C08091000181113EC021
:1007800081E080930001E0906105F09062050091A6
:1007900063051091640520915D0530915E054091DF
:1007A0005F05509160056091590570915A058091DF
:1007B0005B0590915C05C12CD12C1EC020E030E07F
:1007C000A901C701B6010E941C321816BCF0809125
:1007D0000001882399F010920001CC24C394D12CFD
:1007E0001DECE12E1CECF12E0CE41DE320E030E0CA
:1007F00040E85EE3CA01B9010E94E1276091A805C3
:100800007091A905072E000C880B990B0E94CB3222
:10081000609346087093470880934808909349086E
:100820006091280170912901072E000C880B990B0B
:100830000E94CB3260933E0870933F08809340083B
:10084000909341083EC00E948427BC01990F880BF9
:10085000990B0E94CB3260934608709347088093AF
:100860004808909349086091070170910801072E8C
:10087000000C880B990B0E94CB3260933E0870935A
:100880003F08809340089093410880E090E0A0E802
:10089000BEE38093590590935A05A0935B05B093EE
:1008A0005C0580935D0590935E05A0935F05B09312
:1008B0006005109261051092620510926305109216
:1008C000640580918408882309F443C10E9444216F
:1008D0006F8F78A389A39AA380916C0890916D087B
:1008E000A0916E08B0916F084F8D58A169A17AA1AF
:1008F000481B590B6A0B7B0B809178089091790803
:10090000A0917A08B0917B08481759076A077B07BE
:1009100008F41FC1E0916608F09167088081918119
:10092000A281B3818B8F9C8FAD8FBE8FE0916A08BF
:10093000F0916B089C01AD0160817181828193818E
:100940000E94AF314B015C01209174083091750811
:1009500040917608509177086B8D7C8D8D8D9E8DA2
:100960000E94AF316B017C0120915A0830915B08E5
:1009700040915C0850915D08C501B4010E9480332C
:10098000209170083091710840917208509173085D
:100990000E94B0312B013C01609370087093710884
:1009A0008093720890937308909185089BA391118E
:1009B0001AC020915608309157084091580850911C
:1009C0005908C701B6010E9480339B01AC01C301E5
:1009D000B2010E94AF3160937008709371088093E8
:1009E000720890937308409070085090710860905E
:1009F00072087090730810918008009181083090FF
:100A0000820820908308212F302F432D522DC301BF
:100A1000B2010E947B3318162CF4812F902FA32D46
:100A2000B22D18C080917C0890917D08A0917E081D
:100A3000B0917F088CA39DA3AEA3BFA39C01AD0181
:100A4000C301B2010E941C3287FF0CC08CA19DA182
:100A5000AEA1BFA18093700890937108A093720813
:100A6000B09373089BA1992379F020915608309197
:100A700057084091580850915908C501B4010E9487
:100A800080334B015C0103C0812C912C54012091D7
:100A90005E0830915F084091600850916108C7017D
:100AA000B6010E9480339B01AC0160917008709187
:100AB000710880917208909173080E94AF31A5016E
:100AC00094010E94B0316B017C019B01AC01612F4C
:100AD000702F832D922D0E941C3287FD16C010911D
:100AE0007C0800917D0830907E0820907F08212F9F
:100AF000302F432D522DB601C7010E941C3287FDB5
:100B000004C01C2D0D2D3E2C2F2CE0916808F09177
:100B10006908812F902FA32DB22D80839183A2830A
:100B2000B3838B8D9C8DAD8DBE8D80937408909317
:100B30007508A0937608B09377088F8D98A1A9A126
:100B4000BAA180936C0890936D08A0936E08B0933F
:100B50006F08609142087091430880914408909119
:100B600045080E949332709347076093460780912F
:100B70004607909147070E94791B80912801909128
:100B800029012AE030E0B9010E940E347093500729
:100B900060934F078091A8059091A905B9010E9423
:100BA0000E3470937605609375058091260181114E
:100BB00012C0072E000C880B990B0E94CB322BE73A
:100BC00034E14EEC5FE30E9480330E9493327093D5
:100BD0007605609375051092C207C090C307D09048
:100BE000C407E090C507F090C607C701B60120E42E
:100BF00032E44FE050E00E947E31809124019091D8
:100C00002501820F911D9C012C50310937FD05C033
:100C1000309374052093730505C00C96909374056A
:100C200080937305809173059091740589319105C6
:100C30002CF048979093740580937305C701B60113
:100C400020E137E240E050E00E947E31B4E68B2E96
:100C5000912CA12CB12CCA01B901A50194010E94CB
:100C60007E317093720560937105C701B601A501CD
:100C700094010E947E31CA01B901A50194010E942C
:100C80007E317093700560936F050E94442100913E
:100C90006B0510916C0520916D0530916E0506175E
:100CA00017072807390708F044C00E944421DC01D7
:100CB000CB018C509E4FAF4FBF4F80936B059093ED
:100CC0006C05A0936D05B0936E0500912201109103
:100CD00023018091460790914707B801681B790B63
:100CE000072E000C880B990B0E94CB326B017C0104
:100CF00080912B0190912C01B801681B790B072E74
:100D0000000C880B990B0E94CB329B01AC01C701F0
:100D1000B6010E94213220E030E048EC52E40E940B
:100D200080336093010170930201809303019093DB
:100D3000040180912601609128017091290181119F
:100D40000EC0072E000C880B990B0E94CB322BE7AC
:100D500034E14EEC5FE30E9480330E949332CB017A
:100D60006AE070E00E940E347093500760934F0762
:100D700080914F07909150076AE070E00E940E3416
:100D80007B018C0170934E0760934D0790934C0745
:100D900080934B078AE00E946D1B61E070E080E069
:100DA00090E00E94591B80917305909174050E94F8
:100DB000732987ED91E00E94F92880917105909147
:100DC00072050A9724F489ED91E00E94F928809138
:100DD0007105909172050E94732987ED91E00E9440
:100DE000F92880916F05909170050A9724F489ED98
:100DF00091E00E94F92880916F05909170050E9402
:100E0000732981E193E00E94F9288AE00E946D1B1A
:100E100063E070E082E190E00E94591B6EEF82E097
:100E20000E94301B8BED91E00E94F92864E070E095
:100E300082E190E00E94591B6DEF82E00E94301B1E
:100E400080912601882319F08FED91E002C083EE96
:100E500091E00E94F92860E070E080E090E00E945C
:100E6000591B87EE91E00E94F92860910101709171
:100E7000020180910301909104010E949332CB0101
:100E80000E94732981E193E00E94F92882E10E9487
:100E90006D1B60E070E086E090E00E94591B80913D
:100EA0007705811104C08EEE91E00E94F9288091AF
:100EB0007705813071F482E193E00E94F9288091F6
:100EC0000701909108010E94732987EF91E00E9429
:100ED000F92880917705823009F049C00E0D1F1D59
:100EE00017FF03C08BEF91E00BC080914D079091ED
:100EF0004E070A971CF481E193E002C082E193E07F
:100F00000E94F92880914D0790914E0797FF07C0E6
:100F100091958195910990934E0780934D0780910B
:100F20004D0790914E070E9473298EEF91E00E9429
:100F3000F92880914B0790914C0797FF07C0919536
:100F40008195910990934C0780934B0780914B07B3
:100F500090914C070E94732980912601882319F0F3
:100F600080E092E002C085E092E00E94F9288AE0E9
:100F70000E946D1B62E070E080E090E00E94591BCF
:100F80008AE092E00E94F9286091670570916805F7
:100F90008091690590916A050E94751A81E193E03C
:100FA0000E94F9288AE00E946D1B63E070E080E0F7
:100FB00090E00E94591B8DE092E00E94F9288091F8
:100FC0007D050E940C2980917E050E940C2964E019
:100FD00070E080E090E00E94591B82E192E00E9464
:100FE000F928809166050E9460298091210188235B
:100FF00019F087E192E002C083EF91E00E94F928A6
:1010000065E070E080E090E00E94591B8BE192E087
:101010000E94F928809165050E9460298091210134
:10102000882319F087E192E002C083EF91E00E94EB
:10103000F92866E070E080E090E00E94591B80E2B1
:1010400092E00E94F9280E9484270E9473298FE071
:1010500093E00E94F9288BEC0E946D1B60E070E029
:1010600080E090E00E94591B66E18EE20E94301BF6
:10107000E0907505F090760594E6E916F1041CF40D
:1010800080E30E940C290AE010E0C701B8010E9429
:101090000E34CB010E94732989EC0E946D1B60E025
:1010A00070E080E090E00E94591B6BE28FE60E94A6
:1010B000301B8091750590917605B8010E940E3421
:1010C0000E9473298091B7058823E9F18091770503
:1010D0008230B9F42091B3053091B4054091B50543
:1010E0005091B605AAE0B0E00E946B312091280132
:1010F00030912901620F731F7093290160932801B9
:1011000018C08130B1F42091B3053091B4054091FD
:10111000B5055091B605AAE0B0E00E946B31209170
:10112000070130910801620F731F709308016093EB
:1011300007011092B3051092B4051092B5051092F4
:10114000B6051092B70584E00E9412202091B905DF
:10115000892B21F42F5F2093B9050EC0222351F073
:10116000809177058F5F833018F48093770502C0F4
:10117000109277051092B9058091B905883010F466
:101180000C942C130E94F52884E10E946D1B60E0F2
:1011900070E080E090E00E94591B64EF71E080E015
:1011A00090E00E940A21A4E68A2E912CA12CB12C59
:1011B0008091B905883010F40C942C1385E292E0EC
:1011C0000E94F92864EF71E080E090E00E940A211B
:1011D00084E00E941220892BD9F38AE1E9E3F1E04F
:1011E000DE01119601900D928A95E1F7312CFE01F6
:1011F0003196E30DF11DE30DF11D8081918189533D
:10120000954011F03394F3CF3A943B8E0E94F52829
:1012100081E080932A01F2E0FF2E10E000E0BB8D18
:101220002B2E312C0E94FE2682309105D1F024F421
:10123000019769F00C949E128430910531F1089762
:1012400011F00C949E120E94F8260C949E1211111B
:101250000C94A512002311F40C94D71201500C9495
:10126000DD12802F90E00596821593052CF4153041
:1012700019F40F5FE2E0FE2E812F90E0059714F045
:101280000C949E121F5F0C94A612E12FF0E0E00F69
:10129000F11DEC30F10510F00C949E12EA5AFF4F4C
:1012A0000C9422348091220190912301909347075E
:1012B000809346070E94F5288AE00E946D1B60E03B
:1012C00070E080E090E00E94591B8FE292E00E9463
:1012D000F92861E070E080E090E00E94591B8DE306
:1012E00092E00E94F92862E070E080E090E00E94C5
:1012F000591B81E592E00E94F92864E070E080E0EB
:1013000090E00E94591B87E692E00E94F9288091A4
:101310002201909123010E9473298FE093E00E94A3
:10132000F92866E070E080E090E00E94591B82E7B7
:1013300092E00E94F9287EE9E72E77E0F72E80916F
:101340004607909147070E94791B0E94FE26823033
:101350009105E1F01CF4019751F0F1CF8430910533
:1013600009F448C0089759F70E94F826E8CF809101
:101370002201909123018E39E7E09E072CF0F09234
:101380002301E092220119C00A9613C08091220124
:101390009091230120912B0130912C0128173907BE
:1013A0003CF0265F3F4F309323012093220105C07C
:1013B0000A97909323018093220164E070E080E01B
:1013C00090E00E94591B87E692E00E94F9288091E4
:1013D0002201909123010E9473298FE093E00E94E3
:1013E000F9288091220190912301909347078093DF
:1013F0004607A5CF80912201909123016AE070E019
:101400000E940E3484E190E0A3C480912B0190915E
:101410002C0190934707809346070E94F5288AE0A5
:101420000E946D1B60E070E080E090E00E94591B1C
:1014300088E892E00E94F92861E070E080E090E0A6
:101440000E94591B86E992E00E94F92862E070E050
:1014500080E090E00E94591B89EA92E00E94F928FE
:1014600064E070E080E090E00E94591B87E692E023
:101470000E94F92880912B0190912C010E947329E0
:101480008FE093E00E94F92866E070E080E090E051
:101490000E94591B82E792E00E94F92866EBE62E33
:1014A00063E0F62E80914607909147070E94791BD2
:1014B0000E94FE268230910509F11CF4019751F03B
:1014C000F1CF8430910509F448C0089759F70E947C
:1014D000F826E8CF80912B0190912C0120912201D8
:1014E00030912301821793073CF02A503109309341
:1014F0002C0120932B0114C00A960EC080912B0161
:1015000090912C01873BF3E09F072CF4F0922C0183
:10151000E0922B0105C00A9790932C0180932B0138
:1015200064E070E080E090E00E94591B87E692E062
:101530000E94F92880912B0190912C010E9473291F
:101540008FE093E00E94F92880912B0190912C016B
:101550009093470780934607A5CF80912B019091E8
:101560002C016AE070E00E940E3485E190E0F0C347
:1015700080912B0190912C0190934707809346070F
:101580000E94F5288AE00E946D1B60E070E080E018
:1015900090E00E94591B8EEB92E00E94F92866E0D1
:1015A00070E080E090E00E94591B82E792E00E9488
:1015B000F928EE24EA94FE2C5AE0D52E61E070E082
:1015C00080E090E00E94591B80ED92E00E94F92893
:1015D00080914607909147070E94732982ED92E01F
:1015E0000E94F92864E670E080E090E00E940A2101
:1015F000809146079091470720912B0130912C0153
:101600002817390734F021E030E0309306012093A9
:10161000050120912201309123018217930724F0C4
:10162000F0920601E09205014091050150910601FA
:10163000D49E9001D59E300D1124820F931F90935C
:101640004707809346070E94791B0E94FE2684303C
:10165000910509F4B2C7089709F0B0CF0E94F826A7
:10166000ADCF0E94F5288AE00E946D1B60E070E01B
:1016700080E090E00E94591B89ED92E00E94F928D9
:1016800061E070E080E090E00E94591B80912701AA
:101690000E94602980912701813051F462E070E05E
:1016A00080E090E00E94591B8BEE92E00E94F928A6
:1016B00066E070E080E090E00E94591B82E792E0D3
:1016C0000E94F928FF24F39428E0E22E34E0D32E80
:1016D0000E94FE2682309105B9F11CF4019751F069
:1016E000F7CF8430910509F457C0089789F70E9415
:1016F000F826EECF61E070E080E090E00E94591B98
:1017000080912701813021F4D092270184E029C003
:10171000883060F48E5F809327010E94602962E028
:1017200070E080E090E00E94591BD2CFE092270148
:1017300088E00E94602962E070E080E090E00E9412
:10174000591B84E193E025C061E070E080E090E007
:101750000E94591B80912701853070F08250809340
:1017600027010E94602962E070E080E090E00E9422
:10177000591B8EEF92E00DC0F092270181E00E948C
:10178000602962E070E080E090E00E94591B8BEEDF
:1017900092E00E94F9289CCF609127018BE090E0B5
:1017A000D7C284E396E00E941B140E94221D10926F
:1017B000C207C090C307D090C407E090C507F0905F
:1017C000C607C701B60120E432E44FE050E00E94B2
:1017D0007E318091240190912501820F911D0C97FB
:1017E0009093740580937305C701B60120E137E239
:1017F00040E050E00E947E31CA01B901A501940188
:101800000E947E317093720560937105C701B60125
:10181000A50194010E947E31CA01B901A50194017C
:101820000E947E317093700560936F050E94F528C9
:101830008AE00E946D1B60E070E080E090E00E9412
:10184000591B82E293E00E94F92861E070E080E099
:1018500090E00E94591B80917305909174050E943D
:10186000732987ED91E00E94F9288091710590918C
:1018700072050A9724F489ED91E00E94F92880917D
:101880007105909172050E94732987ED91E00E9485
:10189000F92880916F05909170050A9724F489EDDD
:1018A00091E00E94F92880916F05909170050E9447
:1018B000732980E193E00E94F92863E070E080E002
:1018C00090E00E94591B80912401909125010C9772
:1018D0000E94732980E193E00E94F92866E070E09D
:1018E00080E090E00E94591B82E792E00E94F92874
:1018F00084E396E00E941B140E94221D1092C207EE
:10190000C090C307D090C407E090C507F090C60709
:10191000C701B60120E432E44FE050E00E947E317E
:101920008091240190912501820F911D0C97909335
:10193000740580937305C701B60120E137E240E0EA
:1019400050E00E947E31CA01B901A50194010E94B4
:101950007E317093720560937105C701B601A501D0
:1019600094010E947E31CA01B901A50194010E942F
:101970007E317093700560936F0561E070E080E0E8
:1019800090E00E94591B62E370E080E090E00E94CA
:101990000A210E94FE268230910509F469C01CF4D8
:1019A000019759F0C1C08430910509F4B5C008977A
:1019B00009F0BAC00E94F826B7C080912401909126
:1019C00025018831910514F4019602C088E190E068
:1019D00090932501809324011092C2074090C30781
:1019E0005090C4076090C5077090C607C301B2014C
:1019F00020E432E44FE050E00E947E31C0902401A8
:101A0000D0902501C20ED11C76019CE0E91AF108A4
:101A1000F0927405E0927305C301B20120E137E250
:101A200040E050E00E947E31CA01B901A501940155
:101A30000E947E317093720560937105C301B201FB
:101A4000A50194010E947E31CA01B901A50194014A
:101A50000E947E317093700560936F05F7FE3EC063
:101A6000ACE0CA0ED11CD0927405C092730536C08A
:101A700080912401909125011816190634F40197DC
:101A8000909325018093240104C0109225011092A7
:101A900024011092C2076091C3077091C40780911E
:101AA000C5079091C60720E432E44FE050E00E9461
:101AB0007E318091240190912501820F911D9C011E
:101AC0002C50310937FD05C0309374052093730500
:101AD00005C00C96909374058093730580917305EF
:101AE00090917405893191052CF048979093740575
:101AF0008093730563E070E080E090E00E94591BE2
:101B000080912401909125010C970E94732980E116
:101B100093E00E94F92808C06091240183E190E0DD
:101B20000E945B26F12C02C0FF24F3948091730580
:101B30009091740597FF05C0489690937405809323
:101B400073058091730590917405893191052CF08E
:101B50004897909374058093730561E070E080E08E
:101B600090E00E94591B80917305909174050E942A
:101B7000732987ED91E00E94F92880917105909179
:101B800072050A9724F489ED91E00E94F92880916A
:101B90007105909172050E94732987ED91E00E9472
:101BA000F92880916F05909170050A9724F489EDCA
:101BB00091E00E94F92880916F05909170050E9434
:101BC000732980E193E00E94F928F11091CEF5C4C9
:101BD0000E94F5288AE00E946D1B60E070E080E0C2
:101BE00090E00E94591B84E393E00E94F92861E091
:101BF00070E080E090E00E94591B0E945F2666E042
:101C000070E080E090E00E94591B82E792E00E9421
:101C1000F92898E8E92E93E1F92E0E94FE268230F9
:101C2000910539F11CF4019749F0F7CF8430910503
:101C300069F1089791F70E94F826EFCF809128016B
:101C4000909129018838B3E19B072CF0F09229018B
:101C5000E092280105C00A969093290180932801FB
:101C600061E070E080E090E00E94591B0E945F26D6
:101C7000D4CF8091280190912901853FE1E09E0712
:101C80001CF484EF91E0E8CF0A97E6CF6091280139
:101C9000709129018EE190E059C30E94F5288AE0F5
:101CA0000E946D1B60E070E080E090E00E94591B94
:101CB00089E493E00E94F92861E070E080E090E020
:101CC0000E94591B80912601882319F080E092E040
:101CD00002C085E092E00E94F92866E070E080E0B2
:101CE00090E00E94591B82E792E00E94F928FF24AD
:101CF000F3940E94FE268230910561F01CF4019756
:101D000049F0F7CF84309105E1F0089791F70E94F0
:101D1000F826EFCF809126018F258093260161E080
:101D200070E080E090E00E94591B8091260188239A
:101D300019F080E092E002C085E092E00E94F9286C
:101D4000D8CF80912601882331F061E082E190E0D4
:101D50000E945B2632C460E0F9CF0E94F5288AE039
:101D60000E946D1B60E070E080E090E00E94591BD3
:101D700089E593E00E94F92861E070E080E090E05E
:101D80000E94591B80912101882319F08CE693E071
:101D900002C089E793E00E94F92866E070E080E0E5
:101DA00090E00E94591B82E792E00E94F928FF24EC
:101DB000F3940E94FE268230910561F01CF4019795
:101DC00049F0F7CF84309105E1F0089791F70E9430
:101DD000F826EFCF809121018F258093210161E0CA
:101DE00070E080E090E00E94591B809121018823DF
:101DF00019F084E893E002C089E793E00E94F92893
:101E0000D8CF80912101882311F061E001C060E00A
:101E10008DE190E09DCF0E94F5288AE00E946D1B25
:101E200060E070E080E090E00E94591B80E993E060
:101E30000E94F92861E070E080E090E00E94591B68
:101E40008CE993E00E94F92864E070E080E090E083
:101E50000E94591B8FEA93E00E94F9288091A60501
:101E60009091A7050E94732966E070E080E090E001
:101E70000E94591B82E792E00E94F928E090A60593
:101E8000F090A7058EEA91E00E94E728C701992704
:101E90000E94441B0E94FE2682309105E1F01CF452
:101EA000019749F0EBCF84309105C9F1089731F7DC
:101EB0000E94F826E3CF8091A6059091A70588326D
:101EC00091053CF0A8E2B0E0B093A705A093A60569
:101ED00015C001960FC08091A6059091A705853188
:101EE00091053CF4E4E1F0E0F093A705E093A6054A
:101EF00005C001979093A7058093A60564E070E064
:101F000080E090E00E94591B8FEA93E00E94F9283C
:101F10008091A6059091A7050E947329AFCF60918B
:101F2000A60581E290E014CF0E94F5288AE00E9485
:101F30006D1B60E070E080E090E00E94591B8AEB2E
:101F400093E00E94F92861E070E080E090E00E9458
:101F5000591B8CEC93E00E94F92863E070E080E06C
:101F600090E00E94591B8FED93E00E94F928609148
:101F70002D0170912E0180912F01909130010E94CE
:101F8000751A66E070E080E090E00E94591B82E7DD
:101F900092E00E94F92820E030E048EC52E46091A1
:101FA0002D0170912E0180912F01909130010E949E
:101FB00080330E9493327B010E94FE26823091057D
:101FC00009F445C01CF4019751F0F6CF8430910517
:101FD00009F49BC0089781F70E94F826EDCF63E0D3
:101FE00070E080E090E00E94591B8FED93E00E942A
:101FF000F92820E030E048EC52E460912D01709126
:102000002E0180912F01909130010E9480336B014D
:102010007C0120E030E048EC52E40E947B3387FDF5
:102020000DC080E090E0A8ECB2E480932D01909385
:102030002E01A0932F01B093300143C020E030E087
:1020400040E85FE3C701B6010E94B03132C063E0EF
:1020500070E080E090E00E94591B8FED93E00E94B9
:10206000F92820E030E048EC52E460912D017091B5
:102070002E0180912F01909130010E9480336B01DD
:102080007C0120E030E0A9010E941C3218164CF0BF
:1020900010922D0110922E0110922F0110923001FA
:1020A00010C020E030E040E85FE3C701B6010E94C5
:1020B000AF3160932D0170932E0180932F01909387
:1020C000300140902D0150902E0160902F017090B2
:1020D0003001C301B2010E9493327B0120E030E065
:1020E00048EC52E4C301B2010E94213260932D01F9
:1020F00070932E0180932F01909330010E94751AE6
:1021000081E193E00E94F92857CFB7018CE090E07D
:102110001DC10E94F5288AE00E946D1B60E070E0FE
:1021200080E090E00E94591B86EE93E00E94F9281F
:1021300061E070E080E090E00E94591B84EF93E042
:102140000E94F92863E070E080E090E00E94591B53
:1021500082E094E00E94F92860913101709132018F
:1021600080913301909134010E94751A66E070E00D
:1021700080E090E00E94591B82E792E00E94F928DB
:1021800020E030E048EC52E460913101709132017E
:1021900080913301909134010E9480330E949332E8
:1021A0007B010E94FE268230910509F46EC01CF46A
:1021B000019751F0F6CF8430910509F4C4C0089717
:1021C00081F70E94F826EDCF63E070E080E090E0B8
:1021D0000E94591B82E094E00E94F92820E030E040
:1021E00048EC52E4609131017091320180913301E9
:1021F000909134010E9480336B017C0120E030E03B
:1022000048EC52E40E947B3387FD0DC080E090E0F3
:10221000A8ECB2E48093310190933201A093330192
:10222000B093340110C020E030E040E85FE3C70124
:10223000B6010E94B03160933101709332018093F6
:1022400033019093340140903101509032016090FD
:10225000330170903401C301B2010E9493327B01BB
:1022600020E030E048EC52E4C301B2010E94213288
:102270006093310170933201809333019093340164
:102280000E94751A80E193E05BC063E070E080E03B
:1022900090E00E94591B82E094E00E94F92820E01F
:1022A00030E048EC52E4609131017091320180914C
:1022B0003301909134010E9480336B017C0120E056
:1022C00030E0A9010E941C3218164CF01092310126
:1022D00010923201109233011092340110C020E0AC
:1022E00030E040E85FE3C701B6010E94AF31609380
:1022F0003101709332018093330190933401409007
:102300003101509032016090330170903401C3016B
:10231000B2010E9493327B0120E030E048EC52E4AD
:10232000C301B2010E9421326093310170933201E6
:1023300080933301909334010E94751A8EE093E0EC
:102340000E94F9282ECFB7018EE090E00E94E82687
:1023500034C10E94F5288AE00E946D1B60E070E0A5
:1023600080E090E00E94591B8AE094E00E94F928E6
:1023700061E070E080E090E00E94591B8AE194E007
:102380000E94F92863E070E080E090E00E94591B11
:102390008FED93E00E94F92860913501709136012C
:1023A00080913701909138010E94751A66E070E0C3
:1023B00080E090E00E94591B82E792E00E94F92899
:1023C00020E030E048EC52E4609135017091360134
:1023D00080913701909138010E9480330E9493329E
:1023E0007B010E94FE268230910509F445C01CF451
:1023F000019751F0F6CF8430910509F49BC00897FE
:1024000081F70E94F826EDCF63E070E080E090E075
:102410000E94591B8FED93E00E94F92820E030E0E4
:1024200048EC52E46091350170913601809137019A
:10243000909138010E9480336B017C0120E030E0F4
:1024400048EC52E40E947B3387FD0DC080E090E0B1
:10245000A8ECB2E48093350190933601A093370144
:10246000B093380143C020E030E040E85FE3C701AB
:10247000B6010E94B03132C063E070E080E090E0CD
:102480000E94591B8FED93E00E94F92820E030E074
:1024900048EC52E46091350170913601809137012A
:1024A000909138010E9480336B017C0120E030E084
:1024B000A9010E941C3218164CF01092350110929E
:1024C0003601109237011092380110C020E030E040
:1024D00040E85FE3C701B6010E94AF316093350168
:1024E0007093360180933701909338014090350105
:1024F000509036016090370170903801C301B201ED
:102500000E9493327B0120E030E048EC52E4C301AA
:10251000B2010E942132609335017093360180939D
:102520003701909338010E94751A81E193E00E946F
:10253000F92857CFB70180E190E008CFF1E0FF160E
:1025400029F022E0F21281C038C011508B8D811722
:1025500008F4182FE12CF12C8AE00E946D1BB701C2
:1025600080E090E00E94591B82E193E00E94F928EC
:10257000B70180E090E00E94591B82E193E00E9445
:10258000F9289FEFE91AF90AA6E0EA16F10421F703
:102590008AE00E946D1B612F70E080E090E00E9455
:1025A000591B88E294E00E94F928F12C4EC091E07A
:1025B000F91681F2A2E0FA1248C00E94F528BB8DFC
:1025C000B63020F4712CC02ED12C1FC0FE013196E4
:1025D0007F01E00EF11CE00EF11CC12CD12C8AE031
:1025E0000E946D1BB60181E090E00E94591BD7014B
:1025F0008D919D917D010E94F928BFEFCB1ADB0AD6
:10260000E6E0CE16D10459F71EC0E72CF12C2E14AB
:102610003F04CCF08AE00E946D1BB70181E090E09E
:102620000E94591BF601EE0DFF1DEE0FFF1F81E00A
:1026300090E08C0F9D1FE80FF91F808191810E940F
:10264000F9287394E2CFFF24F39480912A01811139
:102650000C9412090C94D80880910A0181111092EF
:102660000A01A7960FB6F894DEBF0FBECDBFDF916B
:10267000CF911F910F91FF90EF90DF90CF90BF907F
:10268000AF909F908F907F906F905F904F903F9012
:102690002F900895089540919205509193052091AF
:1026A00090053091910542175307B4F49091E800DA
:1026B0009570E1F39091E80092FD19C08093F100CC
:1026C000809192059091930501968F739927892B9C
:1026D00019F48EEF8093E800809192059091930514
:1026E0000196909393058093920581E0089580E090
:1026F0000895DF92EF92FF920F931F93CF93DF9392
:10270000D82EF92EE42E062F10E0C8010196880F6E
:102710000E944B1383E00E944B13CD2DDF2D0C0F35
:102720001D1FC017D10789F0E7FE03C0FE01849189
:1027300001C088810E944B13F82E80E00E944B1349
:102740008F2121968111EDCF01C081E0DF91CF91E2
:102750001F910F91FF90EF90DF900895DF92EF921D
:10276000FF920F931F93CF93DF93D82E8A017B01A3
:10277000E40EF51EEB01CE15DF0571F0D7FE03C0A8
:10278000FE01849101C088810E944B132196811122
:10279000F2CF8FEF9FEF01C0C801DF91CF911F9162
:1027A0000F91FF90EF90DF900895615030F02091ED
:1027B000F100FC0120830196F8CF289884E68093ED
:1027C00096050895CF92DF92EF92FF920F931F9399
:1027D000CF93DF936C017A018B01C0E0D0E0CE157E
:1027E000DF0581F0D8016D918D01D601ED91FC914D
:1027F0000190F081E02DC6010995892B11F02196F9
:10280000EECF7E01C701DF91CF911F910F91FF9015
:10281000EF90DF90CF900895FC01538D448D252FCC
:1028200030E0842F90E0821B930B541710F0CF966A
:10283000089501970895FC01918D828D981761F09C
:10284000828DDF01A80FB11D5D968C91928D9F5FE7
:102850009F73928F90E008958FEF9FEF0895FC0192
:10286000918D828D981731F0828DE80FF11D858D45
:1028700090E008958FEF9FEF0895FC01918D228DD8
:10288000892F90E0805C9F4F821B91098F7399275D
:10289000089584E396E00E943D1421E0892B09F419
:1028A00020E0822F0895FC01848DDF01A80FB11D67
:1028B000A35ABF4F2C91848D90E001968F73992776
:1028C000848FA689B7892C93A089B1898C91827451
:1028D0008C93938D848D981306C00288F389E02D24
:1028E00080818F7D80830895EF92FF920F931F93D5
:1028F000CF93DF93EC0181E0888F9B8D8C8D9813B3
:1029000005C0E889F989808185FD26C0F62E0B8DEA
:1029100010E00F5F1F4F0F731127E02E8C8DE81210
:102920000CC00FB607FCFACFE889F989808185FFD2
:10293000F5CFCE010E945314F1CF8B8DFE01E80F2D
:10294000F11DE35AFF4FF0829FB7F8940B8FEA898D
:10295000FB898081806209C09FB7F894EE89FF8966
:102960006083E889F9898081827480839FBF81E0D8
:1029700090E0DF91CF911F910F91FF90EF9008951C
:10298000CF93DF93EC01888D8823C9F0EA89FB8916
:10299000808185FD05C0A889B9898C9186FD0FC00D
:1029A0000FB607FCF5CF808185FFF2CFA889B989E2
:1029B0008C9185FFEDCFCE010E945314E7CFDF91BC
:1029C000CF91089580E090E0892B29F00E9449146E
:1029D00081110C9400000895CF93DF931F92CDB71F
:1029E000DEB76983DC01ED91FC910280F381E02D7B
:1029F00041E050E0BE016F5F7F4F09950F90DF917E
:102A0000CF91089583E08093E9008091F2008823BC
:102A100019F08AE38093E8000895FC018485958588
:102A200097FD0BC09FB7F89482E08093E9008091F6
:102A3000F2009FBF90E0019608959FB7F89482E05E
:102A40008093E9008091F2009FBF90E008950F937A
:102A50001F93CF93DF931F92CDB7DEB782E08983B8
:102A600042E450E060E471E080E80E94AE130E940E
:102A7000FE1FDC0112960D911C9113970115110593
:102A800089F0D801ED91FC910280F381E02DBE0127
:102A90006F5F7F4FC801099597FD04C0F80100855D
:102AA0001185ECCF89810F90DF91CF911F910F910C
:102AB00008958F929F92AF92BF92CF92DF92EF9242
:102AC000FF920F931F93CF93DF936C017B018A01D9
:102AD00080911601882309F45CC0809197058823B2
:102AE00009F457C08091A40580FF05C08091E000E3
:102AF00082608093E000E801B12C8AEFA82E93E079
:102B0000892E2AE3922E209711F4BB20D9F10E943E
:102B1000ED1F81110AC0AA94AA20D9F161E070E0EA
:102B200080E090E00E940A21EECF282F30E0C2170B
:102B3000D3070CF48C2F9FB7F8948092E900209172
:102B4000E80025FF1DC0282F30E0C21BD30BF70182
:102B5000815020F041914093F100FACFE20EF31E34
:102B6000BB2019F09092E8000AC08091E80085FD32
:102B700007C09092E800BB24B394209709F0B12CD1
:102B80009FBFC1CF5D9884E680939505101611060E
:102B900044F081E090E0F6019383828380E090E04E
:102BA00001C0C801DF91CF911F910F91FF90EF906D
:102BB000DF90CF90BF90AF909F908F9008950E942C
:102BC000ED1F90E008950F931F93CF93DF931F9213
:102BD000CDB7DEB78C01FC018485958597FF0EC0CB
:102BE000CE0101960E94BF1F019719F4898190E0E0
:102BF00002C08FEF9FEFF80195878487F8018485E5
:102C000095850F90DF91CF911F910F910895CF93EC
:102C1000DF931F92CDB7DEB7FC018485958597FDC4
:102C200005C02FEF3FEF358724870BC0CE010196FB
:102C30000E94BF1F019719F4898190E002C08FEFB5
:102C40009FEF0F90DF91CF9108951F920F920FB6D3
:102C50000F9211242F933F934F935F936F937F9322
:102C60008F939F93AF93BF93EF93FF93E0911F01D7
:102C7000F09120010995FF91EF91BF91AF919F9144
:102C80008F917F916F915F914F913F912F910F9015
:102C90000FBE0F901F9018951F920F920FB60F92B4
:102CA00011242F933F934F935F936F937F938F9351
:102CB0009F93AF93BF93EF93FF93E0911D01F0912A
:102CC0001E010995FF91EF91BF91AF919F918F9157
:102CD0007F916F915F914F913F912F910F900FBE18
:102CE0000F901F9018951F920F920FB60F921124FC
:102CF0002F933F934F935F936F937F938F939F9304
:102D0000AF93BF93EF93FF93E0911B01F0911C01F0
:102D10000995FF91EF91BF91AF919F918F917F9115
:102D20006F915F914F913F912F910F900FBE0F9038
:102D30001F9018951F920F920FB60F9211242F9388
:102D40003F934F935F936F937F938F939F93AF9333
:102D5000BF93EF93FF93E0911901F0911A01099548
:102D6000FF91EF91BF91AF919F918F917F916F9163
:102D70005F914F913F912F910F900FBE0F901F9039
:102D800018951F920F920FB60F9211242F933F9315
:102D90004F935F936F937F938F939F93AF93BF9363
:102DA000EF93FF93E0911701F09118010995FF91BE
:102DB000EF91BF91AF919F918F917F916F915F91B3
:102DC0004F913F912F910F900FBE0F901F9018952C
:102DD0001F920F920FB60F9211248F939F938091A1
:102DE000E1009091E100937F9093E10083FF0FC099
:102DF0001092E90091E09093EB001092EC0092E3C6
:102E00009093ED001092970598E09093F00082FF68
:102E100020C093E09093E9009091F200992319F07B
:102E20009AE39093E80090919505992339F0909159
:102E30009505915090939505992389F19091960568
:102E4000992339F090919605915090939605992386
:102E500041F184FF10C08091E2008E7E81608093FA
:102E6000E2008091E1008F7E8093E1008091A405D3
:102E70008E7E806111C080FF16C08091E2008E7E40
:102E800080618093E2008091E1008E7E8093E1007A
:102E90008091A4058E7E81608093A40504C05D9A14
:102EA000CDCF289AD6CF9F918F910F900FBE0F90C4
:102EB0001F9018951F920F920FB60F921124CF9268
:102EC000DF92EF92FF920F931F932F933F934F93B5
:102ED0005F936F937F938F939F93AF93BF93EF9382
:102EE000FF93CF93DF93CDB7DEB76C97DEBFCDBF37
:102EF0001092E9008091E80083FFFBC168E0CE01F9
:102F000045960E94D51382EF8093E8008D8987FF54
:102F100005C09091E80090FFFCCF03C09EEF909316
:102F2000E800982F907609F0C6C09E894F89588D89
:102F30002F89F88C91110CC0803829F48091A50557
:102F40008093F10002C01092F1001092F10045C18F
:102F5000913051F4811141C14130510509F03DC119
:102F60008091A5058D7F0BC0933061F4811135C12F
:102F70004130510509F031C18091A50582608093EF
:102F8000A5052BC1953049F48091E80080FFFCCF66
:102F9000822F80688093E30020C1963009F05EC0E4
:102FA0000B8D1C8D22E01092E90010929305109277
:102FB0009205F21232C010929105109290050E9473
:102FC000271599E0BE016F5F7F4FDB01E92F1D924E
:102FD000EA95E9F79983FA8291E09E8390EA9887CF
:102FE0009AEF99872091920530919305275F3F4F83
:102FF0003C832B838D831092E900109293051092ED
:103000009205109391050093900549E050E080E00F
:103010000E94AE130E942715E0C010939105009303
:1030200090050E94FE1FDC0112960D911C911397D2
:103030000115110509F4BBC0D801ED91FC91048084
:10304000F581E02DBE016B5E7F4FC80109950097A9
:1030500009F0C7C0F80100851185EACF973009F45F
:1030600045C1983021F481E08093F100B6C09930D9
:1030700009F0B3C0837009F039C1EAE5F1E081E0FD
:1030800031E096E32081211109C08EE78093EA00A8
:103090001092EA008F89809397059FC08093E90082
:1030A0003093EB0021912093EC009093ED008F5F23
:1030B000873041F7EACF8B8D9C8D1092E9001092FA
:1030C0009305109292059093910580939005898DB8
:1030D000811153C08E899D89913A49F4813209F05A
:1030E00005C147E050E06FE071E080E0BBC0913285
:1030F00009F0FCC0833269F48F89988DA0E0B0E0BC
:1031000080930B0190930C01A0930D01B0930E01DD
:1031100064C0803269F48091E80082FFFCCF67E0F0
:103120008FE091E00E94D5138BEF8093E80055C0AB
:10313000823209F052C08F8980931601EEEFFFE7CB
:10314000859194918B3F9C4D19F0E0E0F8E002C02E
:10315000EEEFFAE080910F0190911001A091110122
:10316000B0911201803B9440A105B10509F09EC0C9
:103170008091160180FF79C099C00E94FE1FFC015A
:10318000028113810115110509F4B0C0D801ED9138
:10319000FC910190F081E02DBE016B5E7F4FC80174
:1031A000099581111AC0F80100851185EBCFF1E076
:1031B000FF1609F44EC0F3E0FF1298C08F898823F0
:1031C00009F44AC0823089F440E860E184EA91E081
:1031D0000E947913882309F489C08EEF8093E80058
:1031E00088C018161906CCF381C0813029F440E854
:1031F0006BE088E991E0ECCF833009F077C00E9462
:10320000FE1FDC011296ED90FC9013978E010F5F6C
:103210001F4F6801E114F10479F0D701ED91FC91A1
:103220000680F781E02DB801C7010995080F111D2F
:10323000F701E084F184EECFD8011C92F6010190F1
:103240000020E9F73197BF016C197D0940E0C60104
:10325000BFCF66E871E002C062E871E0FB01449113
:1032600050E080E80E94AE13B8CFEE3F2AE0F207AC
:1032700051F0808191818737A7E79A0721F09093D9
:10328000FF0A8093FE0A87E797E791838083809106
:103290006000809394059BE088E10FB6F894A895B0
:1032A000809360000FBE9093600097CF80819181E2
:1032B0008737974709F091CFA89580916000886182
:1032C000809360008091940580936000EE3FBAE0A7
:1032D000FB0739F08091FE0A9091FF0A9183808369
:1032E0007CCF1092FF0A1092FE0A77CF81E2809382
:1032F000EB006C960FB6F894DEBF0FBECDBFDF912A
:10330000CF91FF91EF91BF91AF919F918F917F915D
:103310006F915F914F913F912F911F910F91FF906E
:10332000EF90DF90CF900F900FBE0F901F901895E9
:103330006115710579F0FB0101900020E9F73197E3
:10334000AF01461B570BDC01ED91FC910280F3812C
:10335000E02D099480E090E008951F920F920FB63F
:103360000F9211242F933F934F935F936F937F930B
:103370008F939F93AF93BF93EF93FF9384E396E074
:103380000E945314FF91EF91BF91AF919F918F9144
:103390007F916F915F914F913F912F910F900FBE51
:1033A0000F901F9018951F920F920FB60F92112435
:1033B0002F938F939F93EF93FF93E0914406F091A7
:1033C00045068081E0914A06F0914B0682FD12C0CD
:1033D000908180914D068F5F8F7320914E068217EA
:1033E00051F0E0914D06F0E0EC5CF94F958F809341
:1033F0004D0601C08081FF91EF919F918F912F9198
:103400000F900FBE0F901F9018958F929F92AF92C2
:10341000BF92CF92DF92EF92FF920F931F93CF93C1
:10342000DF93EC018E819F810E94422440E06CEC8E
:103430008E819F810E940E24488164E48E819F8149
:103440000E940E248A81882309F442C0E981E95050
:10345000E33040F4F0E0EE0FFF1FED5AFE4F008125
:10346000118102C00EEE12E08B818823F9F0888171
:1034700081111CC00E9444214B015C016801110FA5
:10348000EE08FF088E819F810E94BB23813001F1ED
:103490000E944421DC01CB018C199D09AE09BF09B2
:1034A00088159905AA05BB0568F312C0B801110F6C
:1034B000880B990BDF91CF911F910F91FF90EF90A7
:1034C000DF90CF90BF90AF909F908F900C940A2187
:1034D000DF91CF911F910F91FF90EF90DF90CF90F0
:1034E000BF90AF909F908F9008958F929F92AF92D0
:1034F000BF92CF92DF92EF92FF926B017C0186E840
:1035000094E00E94E728A7019601C701B6010E9436
:10351000ED33882319F069E874E01AC046015701B9
:10352000E894B7F82FEF3FEF4FE75FE7C501B4012D
:103530000E94ED33811111C02FEF3FEF4FE75FE79E
:10354000C501B4010E941C3218163CF46DE874E009
:103550008DE797E00E94981976C02FEF3FEF4FE775
:103560005FE4C701B6010E947B3318161CF461E9C1
:1035700074E0EECF2FEF3FEF4FE75FECC701B601EE
:103580000E941C3287FDF3CF20E030E0A901C70183
:10359000B6010E941C3287FF09C06DE28DE797E0FB
:1035A0000E94E629F7FAF094F7F8F0942AE037ED54
:1035B00043EA5BE3C701B6010E94B0314B015C01F5
:1035C0000E949A326B017C010E94C9329B01AC01BE
:1035D000C501B4010E94AF314B015C014AE0C70153
:1035E000B6010E941D296EE28DE797E00E94E62950
:1035F00020E030E040E251E4C501B4010E94803394
:103600004B015C010E949A326B01E12CF12C4AE0E3
:10361000C701B6010E941D29C701B6010E94C93227
:103620009B01AC01C501B4010E94AF3120E030E044
:1036300040E251E40E9480330E949A3280E090E0A0
:103640004AE00E941D2960E08DE797E0FF90EF902F
:10365000DF90CF90BF90AF909F908F900C94E62911
:10366000CF93DF93D82FC62F85E994E00E94E728F7
:103670006D2F8DE797E00E94E6296C2F8DE797E08C
:10368000DF91CF910C94E629CF93DF938F3F910583
:1036900010F4682F08C0EC016FEF8DE797E00E94EF
:1036A000E6296C2F6F5F8DE797E0DF91CF910C9447
:1036B000E6290F931F93CF93DF938C01EB0189E9E8
:1036C00094E00E94E728C8010E94441BCE01DF91CC
:1036D000CF911F910F910C94441BCF93C82F8CE96D
:1036E00094E00E94E7286C2F8DE797E0CF910C942F
:1036F000E629BC01909148079C3098F580914907D4
:1037000028E830E0281B310987FD3395220F331F4D
:10371000220F331F621773078CF080914A0748E528
:1037200052E0481B510987FD5395440F551F440F24
:10373000551F9B01461757070CF49A012250310977
:10374000220F331F4FB7F894892F90E0FC01EE0F42
:10375000FF1F8E0F9F1FFC01EF5DF84F3283218307
:103760004FBF08954F925F926F927F928F929F9278
:10377000AF92BF92CF92DF92EF92FF920F931F937F
:10378000CF93DF93CDB7DEB761970FB6F894DEBF66
:103790000FBECDBFDC011696ED91FC9117971386F5
:1037A00015861486DF011B9633961E92EA17FB07D7
:1037B000E1F7FC0106811781D8011D962C9121119A
:1037C00069C07C01C8010E944224811105C0F80132
:1037D00013861586148681C040E060EFC8010E9400
:1037E0000E24BB24B394A12C912CCC24C394C801E7
:1037F0000E94BB23D82EC8010E94BB23F1E0DF1238
:1038000003C08130D1F439C02A2D30E0D8121FC056
:10381000D8011B968C91C81638F4F801E20FF31FFB
:1038200083818B2151F402C08C1539F0D12CB8E082
:10383000BC1560F0F801C48609C0F801EA0DF11D5D
:1038400083818B298383DD24D39409C09C2CF801C8
:10385000E20FF31F93818B2D8095892383836D2D38
:10386000C8010E94DF23C394BB0C19F4A394BB24AA
:10387000B394F7E0FA1508F0BACF20E42C1550F411
:10388000D8011B969C921B9791100EC081E01D964B
:103890008C930AC0D8011B961C921B971D961C92F4
:1038A0001D971C961C9219C0F8018381882391F3FF
:1038B00033966E012AE0C20ED11C055F1F4FD60160
:1038C000560181918D93E017F107D9F767E0C601A2
:1038D0000E94A3239989891729F060E070E08EEF98
:1038E00092EC99C0D70116968D919C9117970E94E2
:1038F0004224882309F48CC0F7010681178140E037
:1039000065E5C8010E940E244E01F2E18F0E911C64
:10391000D6016D916D0140E0C8010E940E248C1407
:103920009D04B1F740E06EEBF701868197810E941C
:103930000E248E010F5F1F4F2801D70116968D9020
:103940009C90179778E0672E712CD12CCC24C394CF
:10395000C4010E94BB238111DC28CC0CB1E06B1A9E
:103960007108B1F7F801D1928F01AE16BF0629F7A1
:10397000D70116968D919C9117970E944224813011
:1039800009F046C068E0C2010E94A323998589130B
:103990003FC02A8130E0C901982F8827990F990FDD
:1039A000990F6981B8E06B9FB00111249C01262B0F
:1039B000372B8A858031C9F4688570E08F81FB01DF
:1039C000E81BF109CF019695982F88279795879541
:1039D0000E940E3460517109207F53E0220F331F83
:1039E0005A95E1F7620F731F01C0B9016138F4EE17
:1039F0007F070CF472CF072E000C880B990B0E94E6
:103A0000CB3220E030E040E05CE30E94803303C032
:103A100060E874EEEBCF61960FB6F894DEBF0FBE90
:103A2000CDBFDF91CF911F910F91FF90EF90DF906D
:103A3000CF90BF90AF909F908F907F906F905F904E
:103A40004F9008950F931F93CF93DF93982F40913A
:103A50002E0850912F0860913008709131084F5F07
:103A60005F4F6F4F7F4F40932E0850932F08609306
:103A7000300870933108843209F459C2E091280863
:103A8000853234F48A3071F08D3009F05EC20AC09C
:103A90008A3241F08C3209F058C28091150889278A
:103AA00080931508092FEF3008F030C2F0E0E95E8E
:103AB000F74F108280911608882309F41DC12091C8
:103AC00017083FEB320F822F022E000C990B363075
:103AD00010F4C79707C02156263018F4875591096E
:103AE00001C0C097282F2295207F309118084FEBF6
:103AF000430F832F032E000C990B463010F4C79709
:103B000007C03156363018F48755910901C0C09767
:103B1000820F909115088913DBC080913A0890912B
:103B20003B08A0913C08B0913D080196A11DB11D34
:103B300080933A0890933B08A0933C08B0933D08CB
:103B400080912908882399F0809132089091330858
:103B5000A0913408B09135080196A11DB11D809344
:103B6000320890933308A0933408B093350810912D
:103B700026081123B9F1113009F084C083EB97E0D6
:103B80000E94512581EC97E00E94512580912908DF
:103B9000882309F477C087E0E1EAF7E0A3E9B7E01A
:103BA00001900D928A95E1F787E0E8EAF7E0AAE94B
:103BB000B7E001900D928A95E1F70E94442160934D
:103BC000AF077093B0078093B1079093B20710933B
:103BD0009207109391078FEC97E00E943A258DEDA4
:103BE00097E04EC081EC97E00E9451258091290812
:103BF000882329F187E0E1EAF7E0A3E9B7E0019043
:103C00000D928A95E1F787E0E8EAF7E0AAE9B7E0E4
:103C100001900D928A95E1F70E9444216093AF07CD
:103C20007093B0078093B1079093B20781E08093BF
:103C30009207809391078BEE97E00E943A2580913E
:103C4000030890910408A0910508B091060880939C
:103C5000FF0790930008A0930108B09302080E9408
:103C600044216093FB077093FC078093FD079093BA
:103C7000FE0781E08093FA078093F90787E098E0D8
:103C80000E943A25C0912C08D0912D0811E0209770
:103C900009F43EC1E0912C08F0912D0866A177A1AE
:103CA0008EA19FA10E944134892B09F031C1BE0130
:103CB000CE0140960E944A340E94442168A379A311
:103CC0008AA39BA31DA31CA30AA4DBA5C02DDFCF41
:103CD0008091360890913708A0913808B091390842
:103CE0000196A11DB11D8093360890933708A093CB
:103CF0003808B09339080AC190912708911142C041
:103D00006FE974E087E198E00E944134892B41F02B
:103D100065EA74E087E198E00E944134892B11F450
:103D200081E014C06BEA74E087E198E00E944134BE
:103D3000892B41F061EB74E087E198E00E94413407
:103D4000892B19F41092260803C082E0809326087C
:103D500080912A0890912B0890932D0880932C082D
:103D6000C0912C08D0912D08209709F4CFC067E1AD
:103D700078E08EA19FA10E94413497FFC1C08AA51F
:103D80009BA5EACFE0912608E23009F491C080912A
:103D90001708882309F48CC020E2E29FF001112467
:103DA000E92B3197E932F10508F082C0EE59FF4F57
:103DB0000C94223487E198E00E94F0256093C707B5
:103DC0007093C8078093C9079093CA0771C091E0A8
:103DD000813409F043C043C061EA77E009C091E053
:103DE000833509F090E09093A70762C068EA77E016
:103DF00087E198E00E9468255BC091E0873509F073
:103E000090E09093AE0754C087E198E00E94F025BF
:103E10006093D9077093DA078093DB079093DC07F0
:103E200047C087E198E00E94F0256093E707709310
:103E3000E8078093E9079093EA073AC087E198E0A2
:103E40000E9419316093B9077093BA078093BB073A
:103E50009093BC072DC091E081330CF490E09093D7
:103E6000290826C087E198E00E9419316093030871
:103E700070930408809305089093060819C087E1A1
:103E800098E00E94F02560931108709312088093C7
:103E90001308909314080CC087E198E00E94F02565
:103EA0006093F5077093F6078093F7079093F807F0
:103EB000C0912C08D0912D08209741F1E0912C0859
:103EC000F0912D0866A177A18EA19FA10E94413497
:103ED000892BE1F428A539A58091270890E0821765
:103EE0009307A4F02817390739F440E150E067E15F
:103EF00078E0CE010E9451340AA4DBA5C02DDCCFAE
:103F0000892B21F010922D0810922C0880E001C01E
:103F100081E0909127089F5F9093270810922808CE
:103F200091E00A3209F090E09093160823C01092B5
:103F30002808109227081092150882E0809326081E
:103F4000109216081092290814C0EE3040F481E057
:103F50008E0F80932808F0E0E95EF74F9083809100
:103F60001608811106C02091150892279093150814
:103F700001C080E0DF91CF911F910F9108952091B2
:103F80009705211103C08FEF9FEF08955FB7F89455
:103F900022E02093E9002091F20030E0121613068F
:103FA00014F421E030E0422FFC0184E6415038F067
:103FB0002898809396059091F1009193F7CF211561
:103FC000310521F08091F200882319F05FBFC9010B
:103FD00008958BE68093E800F9CF2FB7F89483E03B
:103FE0008093E9009091E800892F807295FF04C0CA
:103FF0009091F20080E4891B2FBF089580919C0569
:1040000081110DC082E08093980584E0809399052A
:1040100010929B0510929A0581E080939C0588E997
:1040200095E00895CF93DF93282F30E0F901E15F09
:10403000FD4F8491F901E051FE4FD491F901EF5207
:10404000FE4FC491CC2391F081110E946C20EC2F83
:10405000F0E0EE0FFF1FED53FE4FA591B491EC91F0
:10406000ED2381E090E021F480E002C080E090E068
:10407000DF91CF9108951F93CF93DF93282F30E0E6
:10408000F901E15FFD4F8491F901E051FE4FD491B8
:10409000F901EF52FE4FC491CC23C1F0162F8111CC
:1040A0000E946C20EC2FF0E0EE0FFF1FEB54FE4F50
:1040B000A591B4919FB7F894111104C08C91D0953B
:1040C000D82302C0EC91DE2BDC939FBFDF91CF9110
:1040D0001F9108950E943C3490E0FC013197EF302D
:1040E000F105B0F5E557FF4F0C9422348091800024
:1040F0008F7703C0809180008F7D8093800008952A
:1041000080918000877FF9CF84B58F7702C084B516
:104110008F7D84BD0895809190008F7707C0809136
:1041200090008F7D03C080919000877F80939000E6
:1041300008958091C0008F7703C08091C0008F7D6B
:104140008093C00008958091C200877F8093C20051
:104150000895CF93DF9390E0FC01E051FE4F24914E
:10416000FC01EF52FE4F8491882361F190E0880FAB
:10417000991FFC01E25DFD4FC591D491FC01EB5408
:10418000FE4FA591B491611109C09FB7F894888141
:10419000209582238883EC912E230BC0623061F43A
:1041A0009FB7F8948881322F309583238883EC91D0
:1041B0002E2B2C939FBF06C08FB7F894E8812E2B2F
:1041C00028838FBFDF91CF9108953FB7F8948091F6
:1041D000AF059091B005A091B105B091B20526B59B
:1041E000A89B05C02F3F19F00196A11DB11D3FBF2F
:1041F000BA2FA92F982F8827820F911DA11DB11DBD
:10420000BC01CD0142E0660F771F881F991F4A95B8
:10421000D1F708958F929F92AF92BF92CF92DF9283
:10422000EF92FF926B017C010E94E5204B015C0143
:10423000C114D104E104F104F1F00E94E520DC0195
:10424000CB0188199909AA09BB09883E9340A105A9
:10425000B10570F321E0C21AD108E108F10888EE37
:10426000880E83E0981EA11CB11CC114D104E10486
:10427000F10419F7DDCFFF90EF90DF90CF90BF9062
:10428000AF909F908F9008952FB7F8946091AB05F1
:104290007091AC058091AD059091AE052FBF08954A
:1042A0001F920F920FB60F9211242F933F938F936B
:1042B0009F93AF93BF938091AB059091AC05A09174
:1042C000AD05B091AE053091AA0523E0230F2D373F
:1042D00020F40196A11DB11D05C026E8230F02960A
:1042E000A11DB11D2093AA058093AB059093AC0549
:1042F000A093AD05B093AE058091AF059091B00548
:10430000A091B105B091B2050196A11DB11D809398
:10431000AF059093B005A093B105B093B205BF91DE
:10432000AF919F918F913F912F910F900FBE0F9062
:104330001F90189585ED8093BC008091BC0084FD92
:10434000FCCF10920E0608954091EA05262F30E02A
:10435000240F311D21323105DCF420910E0624306A
:10436000C9F4FC0180E090E0861758F43091EA052A
:104370002191DC01A653BA4FA30FB11D2C930196D6
:10438000F3CF8091EA05680F6093EA0580E0089515
:1043900081E0089582E0089508958FEF9FEF0895DA
:1043A0008FEF9FEF08958091C90590E091958195D9
:1043B00091090895CF93DF93CB01EA01642F0E9406
:1043C000A421CE01DF91CF910895CF93DF931F9267
:1043D000CDB7DEB7698361E0CE0101960E94A421CA
:1043E00081E090E00F90DF91CF91089582E00E94EC
:1043F0001220019779F481E08093C6058091B3057E
:104400009091B405A091B505B091B6050197A109A9
:10441000B1090DC01092C6058091B3059091B40505
:10442000A091B505B091B6050196A11DB11D80936F
:10443000B3059093B405A093B505B093B60581E09C
:104440008093B70508958F929F92AF92BF92CF92BB
:10445000DF92EF92FF920F931F930E94E52000914D
:10446000C2051091C3052091C4053091C505C090C7
:10447000BE05D090BF05E090C005F090C105460193
:104480005701801A910AA20AB30A95018401060F06
:10449000171F281F391F0093BE051093BF052093D7
:1044A000C0053093C1056093C2057093C305809326
:1044B000C4059093C5058091BA059091BB05A09164
:1044C000BC05B091BD050196A11DB11D8093BA0533
:1044D0009093BB05A093BC05B093BD051F910F91B0
:1044E000FF90EF90DF90CF90BF90AF909F908F9014
:1044F00008951F920F920FB60F9211242F933F939E
:104500004F935F936F937F938F939F93AF93BF93DB
:10451000EF93FF938091B900887F803609F49CC0A7
:1045200068F5883209F45BC090F4803109F454C016
:1045300038F4882309F4F2C0883009F44DC0F2C081
:10454000883109F44CC0803209F45DC0EBC080347E
:1045500009F468C048F4803309F455C0883309F081
:10456000E1C080930D06D4C0803509F44FC0883572
:1045700009F45DC0883409F0D5C0D2C0883909F487
:10458000C3C0A8F4883709F467C038F4883609F442
:1045900063C0803709F460C0C5C0883809F4B4C06E
:1045A000803909F45FC0803809F0BCC05BC0803B33
:1045B00009F484C038F4803A09F466C0883A09F4F2
:1045C0007DC0B0C0803C09F4A3C0883C09F4A0C001
:1045D000883B09F486C0A6C08091330610C0909134
:1045E000320680913106981770F5E091320681E02D
:1045F0008E0F80933206F0E0EF5EF94F808180935A
:10460000BB0085EC82C080930D068AC0E091320623
:1046100081E08E0F809332068091BB00F0E0EF5E68
:10462000F94F808390913206809131066AC0E09103
:10463000320681E08E0F809332068091BB00F0E05D
:10464000EF5EF94F808380911006811169C081E08F
:1046500080930F0684EA5DC083E080930E0610927B
:104660000C06CFCF80910C06803208F04DC0E0914F
:104670000C0681E08E0F80930C068091BB00F0E069
:10468000E451FA4F8083BDCF85EC8093BC0010923B
:104690000E0680910C06803230F4E0910C06F0E0BA
:1046A000E451FA4F108260910C0670E08CEE95E0B8
:1046B000E0E0F0E0099510920C0634C084E08093AD
:1046C0000E061092EB051092EA05E0E0F0E0099585
:1046D0008091EA05811105C081E08093EA0510927E
:1046E000CA05E091EB0581E08E0F8093EB05F0E0C9
:1046F000E653FA4F80818093BB009091EB05809147
:10470000EA05981708F47DCF85E88093BC000AC0BD
:1047100085EC8093BC0010920E0604C010920D062A
:104720000E949A21FF91EF91BF91AF919F918F913C
:104730007F916F915F914F913F912F910F900FBE9D
:104740000F901F901895DC0180E0615098F02D913A
:10475000982F9227E92FEF70F0E0E45CFD4F249151
:1047600092959F70E92FF0E0E45BFD4FE491822F7A
:104770008E27EBCF0895FC0190810180F281E02D1E
:10478000F8948181892B81832281892F8095282328
:104790002283A7E0B0E01197F1F721818223818382
:1047A000A3E2B0E01197F1F780817894EFECF0E0AC
:1047B0003197F1F7982381E009F480E00895FC0136
:1047C00090810180F281E02D892F809560FF12C0D9
:1047D000F8942281822382838181892B8183A3E2C1
:1047E000B0E01197F1F78281982B9283789487ED4E
:1047F00090E011C0F8942281822382838181892BE9
:104800008183AFEFB0E01197F1F78281982B92830B
:1048100078948FE090E00197F1F70895DF92EF929E
:10482000FF920F931F93CF93DF93EC01D62EE42ECC
:1048300008E010E0FF24F39461E08D2D8F2109F44E
:1048400060E0CE010E94DF23FF0C01501109A1F7A7
:10485000E11010C0F894E981FA81918188818095F6
:1048600089238183E981FA819281888180958923D6
:1048700082837894DF91CF911F910F91FF90EF90F9
:10488000DF900895DC012C911196ED91FC91129727
:10489000F8948181922F90958923818378948DE774
:1048A00043E050E0815021F1DA011197F1F73081B6
:1048B0003223C1F3F8948281892382838181822B00
:1048C00081837894ABE7B7E01197F1F7F894818191
:1048D0009823918383E191E00197F1F78081282368
:1048E00081E009F080E07894E3E6F6E03197F1F7B3
:1048F00008951F920F920FB60F9211242F933F939A
:104900004F935F936F937F938F939F93AF93BF93D7
:10491000EF93FF938091C80587FF05C01092850033
:10492000109284001BC02091C805022E000C330B8E
:104930008091450790E02817390784F48091C805D5
:10494000082E000C990BFC01EE0FFF1F8E0F9F1F0E
:10495000FC01EF5DF84F808186FD15C08091C80590
:104960008F5F8093C8052091C805022E000C330B81
:104970008091450790E028173907C4F48091C80555
:104980008C3064F113C08091C805082E000C990B7F
:10499000FC01EE0FFF1F8E0F9F1FFC01EF5DF84F14
:1049A000808160E08F730E943B20D8CF809184008B
:1049B00090918500049680349C4918F480E49CE929
:1049C00005C08091840090918500049690938900A1
:1049D000809388008FEF8093C8053BC020918400AE
:1049E000309185008091C805082E000C990BFC01C0
:1049F000EE0FFF1F8E0F9F1FFC01EF5DF84F8181AF
:104A00009281820F931F90938900809388008091F8
:104A1000C805082E000C990BFC01EE0FFF1F8E0F2E
:104A20009F1FFC01EF5DF84F808186FF12C08091CF
:104A3000C805082E000C990BFC01EE0FFF1F8E0F0E
:104A40009F1FFC01EF5DF84F808161E08F730E9432
:104A50003B20FF91EF91BF91AF919F918F917F91FB
:104A60006F915F914F913F912F910F900FBE0F90DB
:104A70001F901895CF93DF93EC018A859B85AC85B9
:104A8000BD858E839F83A887B9870E9444216A834E
:104A90007B838C839D8381E089838883DF91CF91A1
:104AA0000895CF93DF93EC018E819F81A885B9850E
:104AB0008A839B83AC83BD830E9444216A877B8762
:104AC0008C879D8781E089838883DF91CF910895CA
:104AD0002F923F924F925F926F927F928F929F920E
:104AE000AF92BF92CF92DF92EF92FF920F931F93FC
:104AF000CF93DF93D82FC92F8B010E94193124E661
:104B000030E040E050E00E947E3149015A019B01B3
:104B1000AC0160E876E988E990E00E94F2336B012D
:104B20007C01F80191828082ED2FFC2F2191822F50
:104B3000022E000C990BC0970A97C0F32E3239F55C
:104B40001F0180E8882E86E9982E88E9A82EB12CCE
:104B50009AE0492E512C612C712CF101C1911F0159
:104B60000C2E000CDD0BE097CA30D10580F4C50196
:104B7000B401A30192010E947E3149015A01DE0174
:104B80000E947631C60ED71EE81EF91EE6CFA5E0BC
:104B9000B0E0A70196010E946B316F5F7F4F8F4F8E
:104BA0009F4F23E030E040E050E00E947E31F8016A
:104BB00022833383448355831682DF91CF911F91E3
:104BC0000F91FF90EF90DF90CF90BF90AF909F90AC
:104BD0008F907F906F905F904F903F902F900895AF
:104BE000FF920F931F93CF93DF93EC01F8802DE298
:104BF000F21201C02196CE010E9419319B01AC0135
:104C0000A4E6B0E00E946B31FE014991242F042EEE
:104C1000000C330B205331092A303105A8F34E32F2
:104C200041F52181022E000C330B205331092A302B
:104C30003105F8F44AE0429F8001439F100D112492
:104C4000012E000C220B330B600F711F821F931F6C
:104C50000281002E000C110B005311090A301105BE
:104C600040F4012E000C220B330B600F711F821FCA
:104C7000931F2DE2F21207C0909580957095619573
:104C80007F4F8F4F9F4FDF91CF911F910F91FF90DB
:104C9000089584E396E00E943D14892B39F084E363
:104CA00096E00E941B140E94221DF3CF8091D00732
:104CB000882379F308950C945D310C9455318091DB
:104CC0002601609128017091290181110EC0072EE3
:104CD000000C880B990B0E94CB322BE734E14EEC91
:104CE0005FE30E9480330E949332CB016AE070E060
:104CF0000E940E347093500760934F0780914F07C6
:104D0000909150076AE070E00E940E3470934E0755
:104D100060934D0790934C0780934B07860F971F26
:104D200097FF03C08BEF91E008C06A3071051CF457
:104D300081E193E002C082E193E00E94F928809132
:104D40004D0790914E0797FF07C091958195910966
:104D500090934E0780934D0780914D0790914E0799
:104D60000E9473298EEF91E00E94F92880914B07F1
:104D700090914C0797FF07C0919581959109909369
:104D80004C0780934B0780914B0790914C070E94F2
:104D9000732980912601882319F080E092E002C0F7
:104DA00085E092E00C94F9280F931F93CF938C0128
:104DB00001960E945D26C82FC8010E945D262C2FF7
:104DC00030E0A901582BCA01CF911F910F9108958E
:104DD0001F93CF93DF93EC01162F672F0E945B2662
:104DE000612FCE010196DF91CF911F910C945B262C
:104DF00010922A011092B9050C945901CF93809119
:104E0000B705882391F18091B3059091B405A091E5
:104E1000B505B091B605181619061A061B0664F4F6
:104E20001092B3051092B4051092B5051092B60514
:104E30001092B70581E065C08091B3059091B405EB
:104E4000A091B505B091B605B7FF0CC01092B3059F
:104E50001092B4051092B5051092B6051092B705E0
:104E600082E04FC01092B7054BC084E00E94122030
:104E7000C091C705892BE9F4CF5FC093C70568ECE3
:104E800070E080E090E00E940A21C830C0F11092EA
:104E9000C7050E94F52884E10E946D1B60E070E068
:104EA00080E090E00E94591B80E595E00E94F9287F
:104EB0001DC0CC2329F11092C7050E94F52884E17A
:104EC0000E946D1B60E070E080E090E00E94591B42
:104ED0008AE495E00E94F92864EF71E080E090E0B8
:104EE0000E940A210E94F52884E00BC084E00E9401
:104EF0001220892BD9F30E94F52888E002C002C055
:104F000080E190E0CF9108958F929F92AF92BF92EF
:104F1000CF92DF92EF92FF928090BE059090BF05F6
:104F2000A090C005B090C1056091BA057091BB0515
:104F30008091BC059091BD051092BE051092BF05F1
:104F40001092C0051092C1051092BA051092BB05CF
:104F50001092BC051092BD050E94C93220E03BE1D1
:104F600047EB5AE40E9480336B017C01C501B40118
:104F70000E94C9329B01AC01C701B6010E942132D7
:104F80006B017C016091270170E080E090E00E945D
:104F9000CB329B01AC01C701B6010E9421320E94B5
:104FA00093329B01AC01AAE0B0E00E946B31CB01CF
:104FB000FF90EF90DF90CF90BF90AF909F908F9039
:104FC00008954F925F926F927F928F929F92AF92CD
:104FD000BF92CF92DF92EF92FF920F931F93CF93E6
:104FE000DF9300D000D0CDB7DEB74B015C012901C3
:104FF0003A01E982FA820B831C8320E030E0A901A8
:105000000E941C3287FDA8C020E030E0A901C30146
:10501000B2010E941C3287FD9FC020E030E0A90150
:10502000C801B7010E941C3287FD96C0D092650866
:10503000C092640881E0CA94CD2809F080E0809392
:10504000850880924A0890924B08A0924C08B09232
:105050004D0840924E0850924F086092500870924E
:10506000510889819A81AB81BC81809352089093C9
:105070005308A0935408B093550860917808709134
:10508000790880917A0890917B080E94C93220E0CB
:1050900030E04AE754E40E9421326B017C018092A7
:1050A000560890925708A0925808B09259089B0150
:1050B000AC01C301B2010E9480332B013C0160931B
:1050C0005A0870935B0880935C0890935D08A70171
:1050D000960169817A818B819C810E9421326B01CA
:1050E0007C0160935E0870935F08809360089093E2
:1050F00061088091620890916308019769F5A501A4
:10510000940160E070E0CB010E94AF3160935608DB
:10511000709357088093580890935908A3019201FF
:1051200060E070E0CB010E94AF3160935A08709349
:105130005B0880935C0890935D08A701960160E08E
:1051400070E0CB010E94AF3160935E0870935F08FE
:1051500080936008909361080F900F900F900F90CC
:10516000DF91CF911F910F91FF90EF90DF90CF9043
:10517000BF90AF909F908F907F906F905F904F9077
:10518000089561E080918C070E94A92061E08091E0
:105190008D070E94A92061E080918E070E94A920BE
:1051A00061E080918E070E943B2060E080918C0737
:1051B0000E943B2060E080918D070E943B208091FF
:1051C0008F07882319F060E00C94A9200895CF93ED
:1051D000DF93EC016991662329F08DE797E00E9447
:1051E000E629F8CFDF91CF91089585E595E00C94FD
:1051F000E728CF93DF93EC0186E894E00E94E7284C
:10520000BE018DE797E00E94981960E08DE797E076
:10521000DF91CF910C94E629CF93C82F86E894E0D4
:105220000E94E7286C2F8DE797E00E94E62960E056
:105230008DE797E0CF910C94E6298F929F92AF92E1
:10524000BF920F931F93CF93DF93CDB7DEB7A19794
:105250000FB6F894DEBF0FBECDBF19A2423008F4DE
:105260004AE08E010F5D1F4F842E912CA12CB12C92
:10527000A50194010E947E31E62FB901CA010150B7
:105280001109EA3014F4E05D01C0E95CD801EC9347
:10529000232B242B252B61F7B8018DE797E00E9483
:1052A0009819A1960FB6F894DEBF0FBECDBFDF915F
:1052B000CF911F910F91BF90AF909F908F900895C5
:1052C000CF93C82F86E894E00E94E7286C2F70E007
:1052D00080E090E04AE00E941D2960E08DE797E0C1
:1052E000CF910C94E629CF92DF92EF92FF926C015E
:1052F00086E894E00E94E7280D2C000CEE08FF08D9
:10530000F7FE0EC06DE28DE797E00E94E629662762
:105310007727CB016C197D098E099F094AE003C0EC
:105320004AE0C701B6010E941D2960E08DE797E0C1
:10533000FF90EF90DF90CF900C94E629089580E0E5
:1053400090E00895FF920F931F93CF93DF93EC01AA
:1053500061E089890E943B2061E089890E943B20AD
:105360008A890E941220892BD9F360E089890E94E2
:105370003B2060E089890E943B2060E089890E948F
:105380003B2098E0F92E00E010E0000F111F61E0D3
:105390008F850E943B208A890E941220892B09F068
:1053A000016060E08F850E943B20FA94F110EDCF00
:1053B00061E089890E943B20C801DF91CF911F9154
:1053C0000F91FF90089504970C94A229CF92DF9239
:1053D000EF92FF920F931F93CF93DF93EC01E62E92
:1053E00060E089890E943B2060E089890E943B201F
:1053F00060E089890E943B20DF84C88807E010E0D4
:10540000F12CB701002E02C0759567950A94E2F75A
:1054100061708C2D0E943B2061E08D2D0E943B200D
:1054200060E08D2D0E943B200150110950F761E092
:1054300089890E943B2081E090E0DF91CF911F910C
:105440000F91FF90EF90DF90CF900895789484B5FE
:10545000826084BD84B5816084BD85B5826085BD70
:1054600085B5816085BD80916E00816080936E00FE
:1054700010928100809181008260809381008091F0
:1054800081008160809381008091800081608093A1
:1054900080008091910082608093910080919100C2
:1054A0008160809391008091900081608093900052
:1054B0008091C10084608093C1008091C1008260AE
:1054C0008093C1008091C10081608093C100809170
:1054D000C30081608093C3008091C000826080938C
:1054E000C0008091C20081608093C20080917A00E8
:1054F000846080937A0080917A00826080937A0041
:1055000080917A00816080937A0080917A0080682F
:1055100080937A00109297051092A5051092A40529
:105520008091D70081608093D70080EA8093D80073
:1055300089B5806189BD89B5826089BD09B400FEE5
:10554000FDCF61E070E080E090E00E940A21809150
:10555000D8008F7C80618093D8008091E000807FAC
:105560008093E0008091E1008E7E8093E1008DE0E9
:105570008093E200559A209A8FEF9FEF9093DE067A
:105580008093DD0664E670E080E090E00E940A21EE
:10559000E0914406F091450682E08083E091400668
:1055A000F09141061082E0914206F09143068FECA3
:1055B000808310924C06E0914806F091490686E0FF
:1055C0008083E0914606F091470680818061808368
:1055D000E0914606F0914706808188608083E091E3
:1055E0004606F0914706808180688083E0914606F8
:1055F000F091470680818F7D808368EB7BE080E0BF
:1056000090E00E940A210E94C1280E94F52864E6C9
:1056100070E080E090E00E940A218EE10E946D1B04
:1056200061E070E080E090E00E94591B80E193E02F
:105630000E94F92864E670E080E090E00E940A2170
:1056400087EB94E00E94F92862E070E080E090E04F
:105650000E94591B8DE093E00E94F92864E670E0F7
:1056600080E090E00E940A2182EC94E00E94F928F8
:1056700063E070E080E090E00E94591B88EC94E0C9
:105680000E94F9286CEE71E588E991E40E94751A90
:1056900068EB7BE080E090E00E940A210E94F52800
:1056A00064EF71E080E090E00E940A2188EC90E0D5
:1056B0000E945D26813009F47FC08EE10E946D1B3F
:1056C00062E070E080E090E00E94591B83ED94E07E
:1056D0000E94F92860ED77E080E090E00E940A21C6
:1056E00066E08BE090E00E945B2660E08CE090E05A
:1056F0000E945B2665E28DE090E00E945B2660E000
:105700008EE090E00E945B2669E18FE090E00E94CD
:105710005B2660E080E190E00E945B2668E081E12A
:1057200090E00E945B2661E082E190E00E945B26AF
:105730006CE083E190E00E945B2663EC84E190E002
:105740000E945B266FE585E190E00E945B2660E0A9
:1057500086E190E00E945B2668E087E190E00E948D
:105760005B2660E088E190E00E945B2660E089E1D2
:1057700090E00E945B2661E08DE190E00E945B2654
:105780006AE08EE190E00E945B2661E08FE190E0AC
:105790000E945B266EE181E290E00E945B2661E060
:1057A00088EC90E00E945B260E94F52864EF71E08F
:1057B00080E090E00E940A218EE10E946D1B61E072
:1057C00070E080E090E00E94591B85EE94E00E941A
:1057D000F92863E070E080E090E00E94591B86EFBA
:1057E00094E00E94F92868EE73E080E090E00E9467
:1057F0000A2160E082E00E94A92060E083E00E942C
:10580000A92062E084E00E94A92086EF91E29093B3
:10581000180180931701809169008360809369006B
:10582000E89A83E292E29093200180931F01809195
:105830006A008F7C806180936A00EE9A80914807AD
:105840008C3008F051C061E085E00E94A920809171
:105850004807E82FF0E09F01220F331FE20FF31FEC
:10586000EF5DF84F9081907C95609083109249078E
:1058700010924A076CE00E9402349CE0899FB001BC
:10588000112440E050E09B01240F351FF901EE0F79
:10589000FF1F2E0F3F1FF901EF5DF84F908196FD1E
:1058A00016C04F5F5F4F4C30510569F781110FC033
:1058B0001092800082E08093810010928500109207
:1058C0008400B19A80916F00826080936F00E091B4
:1058D0004807F0E0CF01880F991FE80FF91FEF5D2F
:1058E000F84F8081806480836091A8057091A9053C
:1058F000072E000C880B990B0E94CB326093460850
:105900007093470880934808909349086091280154
:1059100070912901072E000C880B990B0E94CB3245
:1059200060933E0870933F0880934008909341082D
:1059300080918408811148C0E0916808F09169085D
:10594000C080D180E280F380C0927008D09271084C
:10595000E0927208F0927308E0916608F09167088F
:1059600080819181A281B38180937408909375089E
:10597000A0937608B0937708809080089090810873
:10598000A0908208B0908308A5019401C701B601D8
:105990000E947B33181684F080907C0890907D08DC
:1059A000A0907E08B0907F08A5019401C701B601C0
:1059B0000E941C3287FF08C0809270089092710884
:1059C000A0927208B092730881E0809384088BE003
:1059D00090E00E945D26809327018CE090E00E9479
:1059E000D426BC0180E090E00E94C93220E030E083
:1059F00048EC52E40E94213260932D0170932E01F5
:105A000080932F01909330018EE090E00E94D42685
:105A1000BC0180E090E00E94C93220E030E048EC18
:105A200052E40E94213260933101709332018093DD
:105A300033019093340180E190E00E94D426BC01B0
:105A400080E090E00E94C93220E030E048EC52E46F
:105A50000E942132609335017093360180933701A3
:105A60009093380182E190E00E945D2691E08111DF
:105A700001C090E09093260183E190E00E945D26B2
:105A800090E0909325018093240184E190E00E94AE
:105A90005D269AE0899FE0011124D0932301C093F1
:105AA000220185E190E00E945D269AE0899F8001B5
:105AB000112410932C0100932B018DE190E00E94A2
:105AC0005D2691E0811101C090E0909321018EE16B
:105AD00090E00E94D426909329018093280181E2CE
