:100000000C9419010C9427170C9400170C94D91612
:100010000C94B2160C9441010C9441010C948B1673
:100020000C9441010C9441010C94EB200C945D2143
:100030000C9441010C9441010C9441010C94410138
:100040000C9441010C94FC180C9441010C94410156
:100050000C9441010C9441010C9441010C94411603
:100060000C9441010C9497100C9471100C94410164
:100070000C9441010C9441010C9441010C944101F8
:100080000C9441010C9441010C9441010C944101E8
:100090000C94CE170C9441010C9441010C94410135
:1000A0000C9441010C9441010C9441014D07490805
:1000B0004709D109370AAB0AAB0BED0B2E0C7D0CAF
:1000C000300DF90D7515781567156B1571159915A6
:1000D000991599157C15801584158A158E15991515
:1000E0009415571D691D6C1D731D7A1DA81DAF1D2C
:1000F000BC1DC91DD51DD51DD51DD51DD51DD51D95
:10010000D51DD51DD51DD51DD51DD51DD51DD51D5F
:10011000D51DD51DD51DD51DD51DD51DD51DD51D4F
:10012000D51D571D641D691D6C1D731D7A1D811D14
:100130008E1D9B1D00000000250028002B002E00B6
:100140003100000000002300260029002C002F00B1
:10015000040404040403040502020202040302026C
:10016000020206060606060604040202020404044D
:1001700008020110408040102040804080080204A6
:10018000018040201002011080102040402000001B
:10019000000200090F0000030401000C0000000031
:1001A000000000000000000000000000000000004F
:1001B00000240027002A002D003000080B00020256
:1001C00002010009040000010202000005240010E1
:1001D000010524010101042402060524060001078B
:1001E00005810310004009040100020A0000000715
:1001F00005020240000007058302400000040309D5
:100200000412010002EF0201404123368000010187
:1002100002030141726475696E6F204C4C430041CA
:10022000726475696E6F204C656F6E6172646F00E9
:10023000F42711241FBECFEFDAE0DEBFCDBF15E0FB
:10024000A0E0B1E0E8E9FBE502C005900D92AC3317
:10025000B107D9F728E0ACE3B5E001C01D92A036A4
:10026000B207E1F711E0C9E1D1E004C02197FE0136
:100270000E948C2DC831D107C9F70E943E240C94EE
:10028000CA2D0C9400002F923F924F925F926F9272
:100290007F928F929F92AF92BF92CF92DF92EF9216
:1002A000FF920F931F93CF93DF93CDB7DEB7A7973E
:1002B0000FB6F894DEBF0FBECDBF809153058823E3
:1002C00039F060E08DE00E94F2101092530507C0F3
:1002D00061E08DE00E94F21081E0809353050E945E
:1002E0003A1B80910901882341F00E944F1264E675
:1002F00070E080E090E00E94FB15809184068823E6
:1003000021F11092850660918A0670918B0680918A
:100310008C0690918D060E94352C2EEB3CE443E92F
:100320005FE30E94EA2C20E030E048EC52E40E94B7
:100330008B2B20E030E048EC52E40E94EA2C0E9433
:10034000FD2B709352056093510540914D055091DE
:100350004E05FA01EE0FFF1FEB5AFA4F80914F0541
:100360009091500520813181821B930B2091510582
:100370003091520531832083820F931F9093500553
:1003800080934F059A012F5F3F4F253031052CF4A4
:1003900030934E0520934D0504C010924E051092E7
:1003A0004D0565E070E00E94782D709360056093C4
:1003B0005F052091270630912806809116019091C3
:1003C00017012817390709F075C0C0904905D0906A
:1003D0004A05E0904B05F0904C050E943516C61674
:1003E000D706E806F90608F065C00E943516DC015C
:1003F000CB018053984FAF4FBF4F809349059093E7
:100400004A05A0934B05B0934C0582E10E94681405
:1004100060E070E080E090E00E94541488EA91E08F
:100420000E94531261E070E080E090E00E9454145A
:100430008BEB91E00E9453120E943A1B809184063C
:10044000882321F11092850660918A0670918B06AF
:1004500080918C0690918D060E94352C2EEB3CE409
:1004600043E95FE30E94EA2C20E030E048EC52E4EC
:100470000E948B2B20E030E048EC52E40E94EA2CF2
:100480000E94FD2B709352056093510560E070E06F
:1004900080E090E00E9454148EEC91E00E94531290
:1004A00061E070E080E090E00E9454148EEC91E0F6
:1004B0000E94531280914805811109C080912D013D
:1004C00090912E019093280680932706BBC181301E
:1004D00019F41092080103C081E080930801809113
:1004E00008018823B9F06091510570915205072EDB
:1004F000000C880B990B0E94352C6093FB067093BF
:10050000FC068093FD069093FE0660912301709196
:10051000240114C00E94601FBC01990F880B990B25
:100520000E94352C6093FB067093FC068093FD06B9
:100530009093FE066091060170910701072E000C52
:10054000880B990B0E94352C6093F3067093F40688
:100550008093F5069093F606E0901A01F0901B0147
:1005600000911C0110911D0120911E0130911F016D
:10057000409120015091210160912F017091300133
:1005800080913101909132010E9478138091390756
:10059000882309F449C10E9435166F8F78A389A377
:1005A0009AA38091210790912207A0912307B091EF
:1005B00024074F8D58A169A17AA1481B590B6A0BDA
:1005C0007B0B80912D0790912E07A0912F07B09162
:1005D0003007481759076A077B0708F425C1E091DF
:1005E0001B07F0911C0720813181428153812B8FA1
:1005F0003C8F4D8F5E8FE0911F07F0912007608147
:100600007181828193810E94192B4B015C012091A1
:10061000290730912A0740912B0750912C076B8DA9
:100620007C8D8D8D9E8D0E94192B6B017C012091FC
:100630000F07309110074091110750911207C50123
:10064000B4010E94EA2C20912507309126074091A1
:100650002707509128070E941A2B2B013C01609319
:1006600025077093260780932707909328073091DA
:100670003A073BA331111AC020910B0730910C07A8
:1006800040910D0750910E07C701B6010E94EA2C58
:100690009B01AC01C301B2010E94192B6093250795
:1006A000709326078093270790932807409025078B
:1006B0005090260760902707709028071091350703
:1006C000009136073090370720903807212F302FC0
:1006D000432D522DC301B2010E94E52C18166CF473
:1006E000812F902FA32DB22D80932507909326075D
:1006F000A0932707B093280720C0809131079091DD
:100700003207A0913307B09134078CA39DA3AEA309
:10071000BFA39C01AD01C301B2010E94862B87FFDC
:100720000CC02CA13DA14EA15FA1209325073093C1
:10073000260740932707509328073BA1332379F0DE
:1007400020910B0730910C0740910D0750910E0737
:10075000C501B4010E94EA2C4B015C0103C0812C4D
:10076000912C5401209113073091140740911507E3
:1007700050911607C701B6010E94EA2C9B01AC01FB
:10078000609125077091260780912707909128078F
:100790000E94192B9B01AC01C501B4010E941A2BC8
:1007A0006B017C01212F302F432D522D0E94E52C0F
:1007B0001816B4F0109131070091320730903307CA
:1007C00020903407212F302F432D522DB601C70121
:1007D0000E94862B87FD04C01C2D0D2D3E2C2F2C36
:1007E000E0911D07F0911E07812F902FA32DB22DB0
:1007F00080839183A283B3838B8D9C8DAD8DBE8DC1
:100800008093290790932A07A0932B07B0932C0776
:100810002F8D38A149A15AA1209321073093220797
:1008200040932307509324076091F7067091F806D0
:100830008091F9069091FA060E94FD2B709328068C
:1008400060932706209154058091270690912806F1
:10085000222371F040912D0150912E01209116011B
:1008600030911701240F351FA901481B590BCA01EC
:100870000E94811480912301909124012AE030E0AC
:10088000B9010E94782D70933106609330068091F3
:10089000510590915205B9010E94782D709347053A
:1008A0006093460580911501811112C0072E000C3E
:1008B000880B990B0E94352C2BE734E14EEC5FE35B
:1008C0000E94EA2C0E94FD2B709347056093460519
:1008D00010927706C0907806D0907906E0907A065C
:1008E000F0907B06C701B60120E432E44FE050E00F
:1008F0000E94E82A8091180190911901820F911DA0
:100900009C012C50310937FD05C0309345052093DB
:10091000440505C00C96909345058093440580914D
:10092000440590914505893191052CF048979093A5
:10093000450580934405C701B60120E137E240E058
:1009400050E00E94E82A64E6862E912CA12CB12C5E
:10095000CA01B901A50194010E94E82A70934305D8
:1009600060934205C701B601A50194010E94E82ADF
:10097000CA01B901A50194010E94E82A70934105BA
:10098000609340058AE00E94681461E070E080E0B6
:1009900090E00E94541480914405909145050E9476
:1009A000841281EE91E00E94531280914205909151
:1009B00043050A9724F481E094E00E945312809149
:1009C0004205909143050E94841281EE91E00E94BD
:1009D000531280914005909141050A9724F481E0DB
:1009E00094E00E94531280914005909141050E942D
:1009F00084128EED91E00E9453128AE00E946814E6
:100A000063E070E082E190E00E9454146EEF82E0B7
:100A10000E94641383EE91E00E94531264E070E040
:100A200082E190E00E9454146DEF82E00E94641312
:100A300080911501882319F087EE91E002C08BEEBA
:100A400091E00E94531260E070E080E090E00E942C
:100A500054148FEE91E00E945312C0903C05D09048
:100A60003D05E0903E05F0903F050E943516C61604
:100A7000D706E806F90608F04DC00E943516DC01DD
:100A8000CB018C509E4FAF4FBF4F80933C0590934E
:100A90003D05A0933E05B0933F05009116011091CE
:100AA00017018091270690912806B801681B790BE1
:100AB000072E000C880B990B0E94352C6B017C01D2
:100AC00080912D0190912E01D801A81BB90BBD0179
:100AD000BB0F880B990B0E94352C9B01AC01C70101
:100AE000B6010E948B2B20E030E048EC52E40E94DB
:100AF000EA2C6093000170930101809302019093AE
:100B000003010E94FD2BCB010E9484128EED91E027
:100B10000E94531282E10E94681460E070E086E057
:100B200090E00E94541480914805811104C086EF22
:100B300091E00E94531280914805813071F48FED4D
:100B400091E00E94531280910601909107010E944A
:100B500084128FEF91E00E945312809148058230F9
:100B600011F40E947B1E8AE00E94681462E070E02B
:100B700080E090E00E94541483E092E00E945312BF
:100B800060E070E0CB010E94AD128EED91E00E941A
:100B9000531264E070E080E090E00E94541486E01C
:100BA00092E00E94531280E00E9471128091140121
:100BB000882319F08BE092E002C08FE092E00E945F
:100BC000531265E070E080E090E00E94541482E1EE
:100BD00092E00E94531280E00E94711280911401F1
:100BE000882319F08BE092E002C08FE092E00E942F
:100BF000531266E070E080E090E00E94541487E1B8
:100C000092E00E9453120E94601F0E9484128CED99
:100C100091E00E9453128BEC0E94681460E070E037
:100C200080E090E00E94541466E18EE20E9464131A
:100C300080914605909147058436910564F48CE1D6
:100C400092E00E94411280E30E94661260E082E31B
:100C500096E00E94D72380914605909147050AE0CF
:100C600010E0B8010E94782DCB010E94841289EC1B
:100C70000E94681460E070E080E090E00E945414EC
:100C80006BE28FE60E9464138091460590914705C0
:100C9000B8010E94782D0E94841210923301809135
:100CA0004A08882309F44DC0809148058230F9F440
:100CB00020914608309147084091480850914908D2
:100CC00060912301709124016B01770FEE08FF08FA
:100CD000AAE0B0E00E94D52ADC01CB018C0D9D1D5D
:100CE000AE1DBF1D909324018093230120C081304D
:100CF000F1F42091460830914708409148085091FE
:100D0000490860910601709107016B01770FEE08A9
:100D1000FF08AAE0B0E00E94D52ADC01CB018C0DCF
:100D20009D1DAE1DBF1D909307018093060110927B
:100D300046081092470810924808109249081092ED
:100D40004A0884E00E94C91020914B08892B21F4A5
:100D50002F5F20934B080EC0222351F0809148054D
:100D60008F5F833018F48093480502C010924805C5
:100D700010924B0880914B08883088F00E944F12E7
:100D80008AE00E94681460E070E080E090E00E94D9
:100D9000541464EF71E080E090E00E94FB1540E4A1
:100DA000442E42E4542E4FE0642E712C80914B0867
:100DB000883010F40C94360F8FE192E00E945312A9
:100DC00064EF71E080E090E00E94FB1584E00E94F7
:100DD000C910892BD9F38AE1E9E3F1E0DE0111962C
:100DE00001900D928A95E1F7E12CFE013196EE0D0E
:100DF000F11DEE0DF11D80819181895E944011F00D
:100E0000E394F3CFEA940E944F1281E0809334017F
:100E100012E0F12CD12C2E2D30E03C8F2B8FCC24E6
:100E2000C3943AE0232E312C0E94DA1E82309105C1
:100E3000A1F01CF4019751F08FC78430910509F19E
:100E4000089709F089C70E94721E86C7F11087C7EC
:100E5000DD2009F4B3C7DA94B6C78D2D90E005966E
:100E60004B8D5C8D841795072CF455E0F51202C06C
:100E7000D39412E08F2D90E005970CF06DC7F3949A
:100E80006FC7EF2DF0E0ED0DF11DEC30F10508F02E
:100E900063C7EA5AFF4F0C948C2D809116019091F4
:100EA000170190932806809327060E944F128AE02C
:100EB0000E94681460E070E080E090E00E945414AA
:100EC00089E292E00E94531261E070E080E090E0DD
:100ED0000E94541487E392E00E94531262E070E093
:100EE00080E090E00E9454148BE492E00E94531240
:100EF00064E070E080E090E00E94541481E692E0AB
:100F00000E94531280915405882329F080912D016D
:100F100090912E0104C080911601909117010E94BA
:100F200084128CED91E00E945312809127069091DB
:100F300028060E9481140E94DA1E8230910519F160
:100F40001CF4019751F0F1CF8430910509F46BC086
:100F5000089759F70E94721EE8CF2091540580919E
:100F60001601909117012223E9F020912D01309173
:100F70002E01281739071CF5265F3F4F30932E01AD
:100F800020932D0121C02091540580912D01909135
:100F90002E01211114C020911601309117018217E2
:100FA000930734F00A9690931701809316010CC0B2
:100FB0002A503109309317012093160105C00A9772
:100FC00090932E0180932D0164E070E080E090E02A
:100FD0000E94541481E692E00E94531280915405BD
:100FE000882329F080912D0190912E0104C08091D9
:100FF0001601909117010E9484128CED91E00E94DD
:10100000531280915405882329F080912D019091ED
:101010002E0104C08091160190911701909328062B
:101020008093270682CF6091160170911701072ED9
:10103000000C880B990B0E94352C4B015C016091D0
:101040002D0170912E01072E000C880B990B0E9428
:10105000352CAB01BC01950184018FEF96E00E9415
:101060004E1780915405882351F080912D01909165
:101070002E01B1010E94782D85E190E03BC4809162
:10108000160190911701B1010E94782D84E190E042
:1010900031C480912D0190912E0190932806809368
:1010A00027060E944F128AE00E94681460E070E0F8
:1010B00080E090E00E9454148CE692E00E9453126B
:1010C00061E070E080E090E00E9454148AE792E0D2
:1010D0000E94531262E070E080E090E00E9454149D
:1010E0008DE892E00E94531264E070E080E090E0AE
:1010F0000E94541481E692E00E945312809154059C
:10110000882329F0809116019091170104C08091E5
:101110002D0190912E010E9484128CED91E00E948D
:10112000531280912706909128060E9481140E94F4
:10113000DA1E8230910519F11CF4019751F0F1CFBC
:101140008430910509F46BC0089759F70E94721E0C
:10115000E8CF20915405809116019091170121113B
:101160001DC020912D0130912E01281739071CF543
:10117000265F3F4F30932E0120932D0121C02091F7
:10118000540580912D0190912E012223A1F02091F0
:101190001601309117018217930734F00A96909345
:1011A0001701809316010CC02A50310930931701A2
:1011B0002093160105C00A9790932E0180932D016C
:1011C00064E070E080E090E00E94541481E692E0D8
:1011D0000E94531280915405882329F080911601B2
:1011E0009091170104C080912D0190912E010E94D1
:1011F00084128CED91E00E94531280915405882353
:1012000029F0809116019091170104C080912D0161
:1012100090912E01909328068093270682CF80918B
:101220005405882351F08091160190911701B10166
:101230000E94782D84E190E009C080912D01909169
:101240002E01B1010E94782D85E190E00E944A1E96
:101250006091160170911701072E000C880B990BF5
:101260000E94352C4B015C0160912D0170912E0183
:10127000072E000C880B990B0E94352CAB01BC018A
:10128000950184018FEF96E00E944E179CC58091D6
:101290002D0190912E0190932806809327060E949D
:1012A0004F128AE00E94681460E070E080E090E0F5
:1012B0000E94541482EA92E00E9453121AE061E004
:1012C00070E080E090E00E94541484EB92E00E9471
:1012D00053122091540580912706909128062223CD
:1012E00071F040912D0150912E0120911601309105
:1012F0001701240F351FD901A81BB90BCD010E947E
:10130000841286EB92E00E94531264E670E080E063
:1013100090E00E94FB156091270670912806E091ED
:101320002D01F0912E01E617F70734F081E090E0EF
:10133000909305018093040140911601509117018B
:101340006417750734F02FEF3FEF309305012093BA
:1013500004018091040190910501189F9001199F4B
:10136000300D1124CB01820F931F90932806809398
:10137000270620915405222331F04E0F5F1FDA011A
:10138000A81BB90BCD010E9481140E94DA1E843083
:10139000910509F418C5089709F091CF0E94721EB3
:1013A0008ECF0E944F128AE00E94681460E070E0C5
:1013B00080E090E00E9454148DEB92E00E94531262
:1013C00061E070E080E090E00E9454148091540548
:1013D000882321F088EC92E00E94531280915405FA
:1013E000811104C085ED92E00E9453120E94DA1E22
:1013F0008230910509F11CF4019749F0F7CF843050
:10140000910559F1089791F70E94721EEFCF61E0A4
:1014100070E080E090E00E9454148091540588238D
:1014200019F081EE92E014C088EC92E00E94531211
:10143000B1E0B0935405DACF61E070E080E090E075
:101440000E94541480915405882371F385ED92E035
:101450000E94531210925405C9CF809154058823DD
:1014600011F061E001C060E08FE190E043C20E94B2
:101470004F128AE00E94681460E070E080E090E023
:101480000E9454148FEE92E00E94531261E070E0CB
:1014900080E090E00E945414809122010E94711219
:1014A00014E008E00E94DA1E8230910539F11CF444
:1014B000019751F0F7CF8430910509F447C00897A0
:1014C00089F70E94721EEECF61E070E080E090E04C
:1014D0000E94541480912201883010F48E5F19C04C
:1014E0000093220188E00E94711262E070E080E0C7
:1014F00090E00E94541481E093E025C061E070E028
:1015000080E090E00E94541480912201853070F0B8
:101510008250809322010E94711262E070E080E0AC
:1015200090E00E94541480ED91E00DC010932201D0
:1015300084E00E94711262E070E080E090E00E941E
:1015400054148FE093E00E945312ACCF60912201BB
:101550008BE090E0CFC10E944F128AE00E94681495
:1015600060E070E080E090E00E9454148DE193E030
:101570000E94531261E070E080E090E00E945414F9
:1015800080914405909145050E94841281EE91E07E
:101590000E94531280914205909143050A9724F4CA
:1015A00081E094E00E94531280914205909143059E
:1015B0000E94841281EE91E00E94531280914005B6
:1015C000909141050A9724F481E094E00E9453121F
:1015D00080914005909141050E9484128DED91E02B
:1015E0000E94531263E070E080E090E00E94541487
:1015F00080911801909119010C970E9484128DED31
:1016000091E00E94531261E070E080E090E00E945F
:10161000541480914405909145050E94841281EEF6
:1016200091E00E94531280914205909143050A97E0
:1016300024F481E094E00E9453128091420590913D
:1016400043050E94841281EE91E00E945312809122
:101650004005909141050A9724F481E094E00E94AE
:10166000531280914005909141050E9484128DEDA6
:1016700091E00E94531262E370E080E090E00E94EB
:10168000FB150E94DA1E82309105F1F01CF40197DF
:1016900059F0B9CF8430910509F458C0089709F082
:1016A000B2CF0E94721EAFCF8091180190911901A4
:1016B0008831910514F401960FC028E130E0309391
:1016C00019012093180111C08091180190911901FE
:1016D0001816190634F40197909319018093180194
:1016E00004C01092190110921801109277066091AF
:1016F00078067091790680917A0690917B06A30115
:1017000092010E94E82A8091180190911901820F9C
:10171000911D9C012C50310937FD05C030934505C2
:101720002093440505C00C9690934505809344058D
:101730008091440590914505893191050CF452CF73
:10174000489790934505809344054CCF60911801CC
:1017500083E190E0CFC00E944F128AE00E9468149B
:1017600060E070E080E090E00E9454148FE293E02B
:101770000E94531261E070E080E090E00E945414F7
:101780000E947B1E0E94DA1E8230910589F044F48B
:101790000197C1F780912301909124010A960DC011
:1017A0008430910579F0089769F70E94721EEACF9C
:1017B00080912301909124010A97909324018093B2
:1017C0002301D8CF809123019091240164E670E039
:1017D0000E94782D8EE190E08DC00E944F128AE029
:1017E0000E94681460E070E080E090E00E94541471
:1017F00084E493E00E94531261E070E080E090E0A6
:101800000E9454148091150181111BC089E593E059
:101810000E9453120E94DA1E8230910561F01CF47E
:10182000019749F0F7CF8430910571F0089791F74F
:101830000E94721EEFCF809115018C2580931501B7
:10184000DBCF84E593E0E4CF80911501882311F08C
:1018500061E001C060E082E190E04CC00E944F1264
:101860008AE00E94681460E070E080E090E00E94EE
:1018700054148EE593E00E94531261E070E080E022
:1018800090E00E94541480911401882319F081E79C
:1018900093E002C08EE793E00E9453120E94DA1E8A
:1018A0008230910561F01CF4019749F0F7CF843044
:1018B0009105B9F0089791F70E94721EEFCF8091C1
:1018C00014018C258093140161E070E080E090E0C9
:1018D0000E945414809114018823E1F289E893E076
:1018E000DBCF80911401882311F061E001C060E03A
:1018F0008DE190E00E944A1E66C20E944F128AE06B
:101900000E94681460E070E080E090E00E9454144F
:1019100085E993E00E94531261E070E080E090E07E
:101920000E94541487EA93E00E94531263E070E02F
:1019300080E090E00E9454148AEB93E00E945312DE
:1019400060912F01709130018091310190913201AD
:101950000E94AD1220E030E048EC52E460912F018B
:101960007091300180913101909132010E94EA2CF6
:101970000E94FD2B8B010E94DA1E8230910591F1AD
:1019800044F50197C1F763E070E080E090E00E94C9
:1019900054148AEB93E00E94531220E030E048ECAC
:1019A00052E460912F01709130018091310190914A
:1019B00032010E94EA2C4B015C010E94FD2B8B013D
:1019C00020E030E040E85FE3C501B4010E941A2B3B
:1019D0002EC08430910509F43FC0089761F60E943B
:1019E000721EC9CF63E070E080E090E00E94541462
:1019F0008AEB93E00E94531220E030E048EC52E47E
:101A000060912F01709130018091310190913201EC
:101A10000E94EA2C4B015C010E94FD2B8B0120E00F
:101A200030E040E85FE3C501B4010E94192B20E0DB
:101A300030E048EC52E40E948B2B60932F017093AE
:101A4000300180933101909332010E94AD128EEDEE
:101A500091E00E9453128FCFB8018CE090E0C6C095
:101A60000E944F128AE00E94681460E070E080E0FB
:101A700090E00E94541481EC93E00E94531261E0C4
:101A800070E080E090E00E9454148FEC93E00E949C
:101A9000531263E070E080E090E00E9454148DEDFA
:101AA00093E00E94531260911E0170911F0180917A
:101AB0002001909121010E94AD1220E030E048EC1D
:101AC00052E460911E0170911F018091200190915C
:101AD00021010E94EA2C0E94FD2B8B010E94DA1E3C
:101AE0008230910509F445C0D4F50197B9F763E058
:101AF00070E080E090E00E9454148DED93E00E942D
:101B0000531220E030E048EC52E460911E017091E5
:101B10001F0180912001909121010E94EA2C4B012C
:101B20005C010E94FD2B8B0120E030E040E85FE388
:101B3000C501B4010E941A2B20E030E048EC52E4C9
:101B40000E948B2B60931E0170931F0180932001D4
:101B5000909321010E94AD128DED91E041C084303F
:101B6000910509F440C0089709F0B8CF0E94721E91
:101B7000B5CF63E070E080E090E00E9454148DEDFA
:101B800093E00E94531220E030E048EC52E4609170
:101B90001E0170911F0180912001909121010E94EE
:101BA000EA2C4B015C010E94FD2B8B0120E030E010
:101BB00040E85FE3C501B4010E94192B20E030E04A
:101BC00048EC52E40E948B2B60931E0170931F011E
:101BD00080932001909321010E94AD128BED91E042
:101BE0000E9453127BCFB8018EE090E00E94621EEB
:101BF000EAC00E944F128AE00E94681460E070E020
:101C000080E090E00E94541485EE93E00E9453120D
:101C100061E070E080E090E00E94541485EF93E072
:101C20000E94531263E070E080E090E00E94541440
:101C30008AEB93E00E94531260911A0170911B018C
:101C400080911C0190911D010E94AD1220E030E0B6
:101C500048EC52E460911A0170911B0180911C01C3
:101C600090911D010E94EA2C0E94FD2B8B010E9485
:101C7000DA1E8230910591F144F50197C1F763E0D6
:101C800070E080E090E00E9454148AEB93E00E94A0
:101C9000531220E030E048EC52E460911A01709158
:101CA0001B0180911C0190911D010E94EA2C4B01A7
:101CB0005C010E94FD2B8B0120E030E040E85FE3F7
:101CC000C501B4010E941A2B2EC08430910509F47D
:101CD0003FC0089761F60E94721EC9CF63E070E0B2
:101CE00080E090E00E9454148AEB93E00E9453122B
:101CF00020E030E048EC52E460911A0170911B0141
:101D000080911C0190911D010E94EA2C4B015C0105
:101D10000E94FD2B8B0120E030E040E85FE3C5012D
:101D2000B4010E94192B20E030E048EC52E40E94FC
:101D30008B2B60931A0170931B0180931C0190936D
:101D40001D010E94AD128EED91E00E9453128FCFC3
:101D5000B80180E190E04ACF113091F501C0FA94CA
:101D6000EF1408F4FE2C00E010E08AE00E946814F2
:101D7000B80180E090E00E9454148FED91E00E9441
:101D80005312B80180E090E00E9454148FED91E06E
:101D90000E9453120F5F1F4F0630110531F78AE082
:101DA0000E9468146F2D70E080E090E00E9454144F
:101DB00083E094E00E94531210E051C0113099F278
:101DC000123009F04CC00E944F1235E03E1518F554
:101DD000AD2CB12CAA0CBB1C00E010E08AE00E94E4
:101DE0006814B80181E090E00E945414F801EE0FED
:101DF000FF1FEA0DFB1D41E050E04C0F5D1FE40F9B
:101E0000F51F808191810E9453120F5F1F4F063092
:101E1000110521F723C0912CAD2CB12C092D10E018
:101E2000AB8DBC8DA017B107CCF08AE00E9468147E
:101E3000B80181E090E00E945414F501E00FF11F19
:101E4000EE0FFF1F81E090E08C0F9D1FE80FF91F40
:101E5000808191810E9453129394E0CF11E0809190
:101E6000340181110C9414070C94D6068091090159
:101E7000811110920901A7960FB6F894DEBF0FBE2C
:101E8000CDBFDF91CF911F910F91FF90EF90DF9029
:101E9000CF90BF90AF909F908F907F906F905F900A
:101EA0004F903F902F900895CF92DF92EF92FF9244
:101EB0000F931F93CF93DF936C017A018B01C0E0E6
:101EC000D0E0CE15DF0589F0D8016D918D01D601E6
:101ED000ED91FC910190F081E02DC6010995892BCF
:101EE00011F47E0102C02196ECCFC701DF91CF91A2
:101EF0001F910F91FF90EF90DF90CF900895FC011C
:101F0000538D448D252F30E0842F90E0821B930B5E
:101F1000541710F0CF96089501970895FC01918D04
:101F2000828D981761F0828DDF01A80FB11D5D963B
:101F30008C91928D9F5F9F73928F90E008958FEFA9
:101F40009FEF0895FC01918D828D981731F0828D5D
:101F5000E80FF11D858D90E008958FEF9FEF0895B4
:101F6000FC01918D228D892F90E0805C9F4F821B18
:101F700091098F739927089585E695E00E94B00F27
:101F800021E0892B09F420E0822F0895FC01848D43
:101F9000DF01A80FB11DA35ABF4F2C91848D90E093
:101FA00001968F739927848FA689B7892C93A0896E
:101FB000B1898C9180648C93938D848D981306C025
:101FC0000288F389E02D80818F7D80830895EF92D0
:101FD000FF920F931F93CF93DF93EC0181E0888FE3
:101FE0009B8D8C8D981305C0E889F989808185FDCA
:101FF00024C0F62E0B8D10E00F5F1F4F0F731127BB
:10200000E02E8C8DE8120CC00FB607FCFACFE889E1
:10201000F989808185FFF5CFCE010E94C60FF1CFEF
:102020008B8DFE01E80FF11DE35AFF4FF0820B8FFD
:10203000EA89FB898081806207C0EE89FF8960831D
:10204000E889F98980818064808381E090E0DF9174
:10205000CF911F910F91FF90EF900895CF93DF9351
:10206000EC01888D8823C9F0EA89FB89808185FD90
:1020700005C0A889B9898C9186FD0FC00FB607FCF1
:10208000F5CF808185FFF2CFA889B9898C9185FF32
:10209000EDCFCE010E94C60FE7CFDF91CF9108951B
:1020A00080E090E0892B29F00E94BC0F81110C94F4
:1020B000000008950E94A62D6115710579F0FB01BD
:1020C00001900020E9F73197AF01461B570BDC0167
:1020D000ED91FC910280F381E02D099480E090E085
:1020E00008951F920F920FB60F9211242F933F93D2
:1020F0004F935F936F937F938F939F93AF93BF9310
:10210000EF93FF9385E695E00E94C60FFF91EF9154
:10211000BF91AF919F918F917F916F915F914F91FF
:102120003F912F910F900FBE0F901F9018951F9207
:102130000F920FB60F9211242F938F939F93EF93CB
:10214000FF93E0917505F09176058081E0917B0524
:10215000F0917C0582FD12C0908180917E058F5F99
:102160008F7320917F05821751F0E0917E05F0E09A
:10217000EB59FA4F958F80937E0501C08081FF91C6
:10218000EF919F918F912F910F900FBE0F901F9005
:102190001895CF93DF93282F30E0F901E257FE4FD7
:1021A0008491F901E159FE4FD491F901E05BFE4FB2
:1021B000C491CC2391F081110E945D15EC2FF0E0C9
:1021C000EE0FFF1FEE5BFE4FA591B491EC91ED2356
:1021D00081E090E021F480E002C080E090E0DF91B7
:1021E000CF9108951F93CF93DF93282F30E0F9010B
:1021F000E257FE4F8491F901E159FE4FD491F90164
:10220000E05BFE4FC491CC23C9F0162F81110E94D0
:102210005D15EC2FF0E0EE0FFF1FEC5CFE4FA5917B
:10222000B4918FB7F894111105C09C91ED2FE095F2
:10223000E92302C0EC91ED2BEC938FBFDF91CF919E
:102240001F910895CF93DF93EC01E0913206F09156
:1022500033060190F081E02D8F3F910510F4682F37
:102260000DC06FEF82E396E00995E0913206F091A0
:1022700033066C2F6F5F0190F081E02D82E396E0D2
:10228000DF91CF9109942FB7F89483E08093E90010
:102290009091E800892F807295FF04C09091F20020
:1022A00080E4891B2FBF0895CF93DF931F92CDB792
:1022B000DEB76983DC01ED91FC910280F381E02DB2
:1022C00041E050E0BE016F5F7F4F09950F90DF91B5
:1022D000CF91089583E08093E9008091F2008823F4
:1022E00019F08AE38093E80008950E94431190E07A
:1022F00008958F929F92AF92BF920F931F93CF93A7
:10230000DF93CDB7DEB7A1970FB6F894DEBF0FBE4F
:10231000CDBF19A2423008F44AE08E010F5D1F4F75
:10232000842E912CA12CB12CA50194010E94E82AA5
:10233000E62FB901CA0101501109EA3014F4E05D39
:1023400001C0E95CD801EC93232B242B252B61F7EA
:10235000B80182E396E00E945C10A1960FB6F89453
:10236000DEBF0FBECDBFDF91CF911F910F91BF9008
:10237000AF909F908F9008958F929F92AF92BF924F
:10238000CF92DF92EF92FF920F931F93CF93DF9341
:102390005C016B017A0180912C01882309F45BC0F8
:1023A00080916405882309F456C08091620580FFFE
:1023B00005C08091E00082608093E000E70110E0BA
:1023C0000AEF83E0882E9AE3992E2097D9F10E9494
:1023D000431181110AC0015009F43DC061E070E071
:1023E00080E090E00E94FB15F0CF282F30E0C2176C
:1023F000D3070CF48C2F4FB7F8948092E90090919A
:10240000E80095FF1DC0282F30E0C21BD30BF6015A
:10241000982F915020F081918093F100FACFC20E55
:10242000D31E112319F09092E80009C08091E800B2
:1024300085FD06C09092E80011E0209709F010E0B9
:102440004FBFC3CF1111C3CF5D9884E68093610560
:102450001E141F0444F081E090E0F5019383828311
:1024600080E090E001C0C701DF91CF911F910F91F3
:10247000FF90EF90DF90CF90BF90AF909F908F90A4
:102480000895CF93DF93EC016991662329F082E3ED
:1024900096E00E94D723F8CFDF91CF9108958AEF7D
:1024A00094E00C944112CF93DF93EC018CE192E025
:1024B0000E944112BE0182E396E00E945C1060E03F
:1024C00082E396E0DF91CF910C94D723E09132061E
:1024D000F09133060190F081E02D682F82E396E0C1
:1024E0000994CF93C82F8CE192E00E9441126C2F87
:1024F00070E080E090E04AE00E94791160E082E3C1
:1025000096E0CF910C94D723CF92DF92EF92FF9277
:102510006C018CE192E00E9441120D2C000CEE083F
:10252000FF08F7FE0CC08DE20E946612662777272F
:10253000CB016C197D098E099F094AE003C04AE06E
:10254000C701B6010E94791160E082E396E0FF9036
:10255000EF90DF90CF900C94D7238F929F92AF9201
:10256000BF92CF92DF92EF92FF926B017C018CE1E0
:1025700092E00E944112A7019601C701B6010E9494
:10258000572D882319F06DEF74E01AC046015701EA
:10259000E894B7F82FEF3FEF4FE75FE7C501B401CD
:1025A0000E94572D811111C02FEF3FEF4FE75FE7DA
:1025B000C501B4010E94862B18163CF461E075E059
:1025C00082E396E00E945C1072C02FEF3FEF4FE76E
:1025D0005FE4C701B6010E94E52C18161CF465E003
:1025E00075E0EECF2FEF3FEF4FE75FECC701B6018D
:1025F0000E94862B87FDF3CF20E030E0A901C701C0
:10260000B6010E94862B87FF07C08DE20E946612EA
:10261000F7FAF094F7F8F0942AE037ED43EA5BE339
:10262000C701B6010E941A2B4B015C010E94042CC9
:102630006B017C010E94332C9B01AC01C501B401EC
:102640000E94192B4B015C014AE0C701B6010E94B0
:1026500079118EE20E94661220E030E040E251E4FF
:10266000C501B4010E94EA2C4B015C010E94042CBC
:102670006B01E12CF12C4AE0C701B6010E947911EF
:10268000C701B6010E94332C9B01AC01C501B40106
:102690000E94192B20E030E040E251E40E94EA2C35
:1026A0000E94042C80E090E04AE00E94791160E0F2
:1026B00082E396E0FF90EF90DF90CF90BF90AF90D5
:1026C0009F908F900C94D723CF93DF93D82FC62F52
:1026D00089E095E00E9441126D2F82E396E00E940E
:1026E000D7236C2F82E396E0DF91CF910C94D72310
:1026F0004F925F926F927F928F929F92AF92BF9212
:10270000CF92DF92EF92FF920F931F93CF93DF93BD
:1027100000D000D0CDB7DEB74B015C0129013A01F2
:10272000670178010091190710911A0720E030E045
:10273000A9010E94862B87FDA2C020E030E0A901FC
:10274000C301B2010E94862B87FD99C020E030E0D2
:10275000A901C701B6010E94862B87FD90C081E0C8
:102760000130110509F080E080933A078092FF065E
:1027700090920007A0920107B092020740920307CF
:10278000509204076092050770920607C0920707EF
:10279000D0920807E0920907F0920A0760912D078E
:1027A00070912E0780912F07909130070E94332C53
:1027B00020E030E04AE754E40E948B2B69837A835F
:1027C0008B839C8380920B0790920C07A0920D073D
:1027D000B0920E079B01AC01C301B2010E94EA2C2A
:1027E0002B013C0160930F07709310078093110732
:1027F0009093120729813A814B815C81C701B60110
:102800000E948B2B6B017C0160931307709314075C
:1028100080931507909316078091170790911807DA
:10282000019769F5A501940160E070E0CB010E9479
:10283000192B60930B0770930C0780930D079093EF
:102840000E07A301920160E070E0CB010E94192BFA
:1028500060930F07709310078093110790931207EE
:10286000A701960160E070E0CB010E94192B6093F4
:1028700013077093140780931507909316070F9012
:102880000F900F900F90DF91CF911F910F91FF90BC
:10289000EF90DF90CF90BF90AF909F908F907F9000
:1028A0006F905F904F9008950F931F93CF93DF9396
:1028B0008C01EB018DE095E00E944112C8010E945D
:1028C0002211CE01DF91CF911F910F910C94221113
:1028D000CF93DF931F92CDB7DEB7682F80E195E0ED
:1028E00069830E944112E0913206F0913306019013
:1028F000F081E02D698182E396E00F90DF91CF9126
:102900000994AC01909129069C3090F580912A069B
:1029100028E830E0281B310987FD3395220F331F4B
:10292000220F331F4217530784F080912B0628E5AE
:1029300032E0281B310987FD3395220F331F220F08
:10294000331F421753070CF49A0122503109220F0A
:10295000331F4FB7F894892F90E0FC01EE0FFF1F53
:102960008E0F9F1FFC01EE5FF94F328321834FBF13
:102970000895FC0180916405811103C08FEF9FEFE2
:1029800008959FB7F89482E08093E9002091F200C7
:1029900030E01216130614F421E030E02115310561
:1029A00059F0289884E6809363058091F100808334
:1029B0008091F200882319F09FBFC90108958BE62A
:1029C0008093E800F9CF80913F0781110DC082E02C
:1029D00080933B0784E080933C0710923E0710925F
:1029E0003D0781E080933F078BE397E008950895CA
:1029F00085ED8093BC008091BC0084FDFCCF1092DB
:102A0000170808954091F107262F30E0240F311D5B
:102A100021323105DCF4209117082430C9F4FC017F
:102A200080E090E0861758F43091F1072191DC01A5
:102A3000A153B84FA30FB11D2C930196F3CF8091F2
:102A4000F107680F6093F10780E0089581E0089531
:102A500082E0089508958FEF9FEF08958FEF9FEF25
:102A600008958091CE0790E0919581959109089500
:102A7000CF93DF9300D0CDB7DEB7CB01642F49836E
:102A80005A830E9402154981842F5A81952F0F90F5
:102A90000F90DF91CF910895CF93DF931F92CDB721
:102AA000DEB7698361E0CE0101960E94021581E0E4
:102AB00090E00F90DF91CF91089590E0FC01319765
:102AC000EF30F105B0F5EE59FF4F0C948C2D80914D
:102AD00080008F7703C0809180008F7D809380007D
:102AE000089580918000877FF9CF84B58F7702C0E9
:102AF00084B58F7D84BD0895809190008F7707C045
:102B0000809190008F7D03C080919000877F80939B
:102B1000900008958091C0008F7703C08091C0001D
:102B20008F7D8093C00008958091C200877F80933D
:102B3000C2000895CF93DF9390E0FC01E159FE4F6E
:102B40002491FC01E05BFE4F8491882361F190E0C9
:102B5000880F991FFC01E355FE4FC591D491FC01EC
:102B6000EC5CFE4FA591B491611109C09FB7F89438
:102B70008881209582238883EC912E230BC06230BC
:102B800061F49FB7F8943881822F809583238883DE
:102B9000EC912E2B2C939FBF06C08FB7F894E88141
:102BA0002E2B28838FBFDF91CF9108953FB7F894E4
:102BB0008091420890914308A0914408B091450843
:102BC00026B5A89B05C02F3F19F00196A11DB11D88
:102BD0003FBFBA2FA92F982F8827820F911DA11DC3
:102BE000B11DBC01CD0142E0660F771F881F991F00
:102BF0004A95D1F708958F929F92AF92BF92CF924C
:102C0000DF92EF92FF926B017C010E94D6154B017F
:102C10005C01C114D104E104F104F1F00E94D61565
:102C2000DC01CB0188199909AA09BB09883E9340A8
:102C3000A105B10570F321E0C21AD108E108F1083D
:102C400088EE880E83E0981EA11CB11CC114D1042B
:102C5000E104F10419F7DDCFFF90EF90DF90CF9002
:102C6000BF90AF909F908F9008952FB7F894609188
:102C70003E0870913F0880914008909141082FBF15
:102C800008951F920F920FB60F9211242F933F9326
:102C90008F939F93AF93BF9380913E0890913F088D
:102CA000A0914008B091410830913D0823E0230FE6
:102CB0002D3720F40196A11DB11D05C026E8230F74
:102CC0000296A11DB11D20933D0880933E0890936C
:102CD0003F08A0934008B09341088091420890912A
:102CE0004308A0914408B09145080196A11DB11D6B
:102CF0008093420890934308A0934408B0934508FA
:102D0000BF91AF919F918F913F912F910F900FBEE7
:102D10000F901F9018951F920F920FB60F921124CB
:102D20002F933F934F935F936F937F938F939F93D3
:102D3000AF93BF93EF93FF93E0911201F0911301D2
:102D40000995FF91EF91BF91AF919F918F917F91E5
:102D50006F915F914F913F912F910F900FBE0F9008
:102D60001F9018951F920F920FB60F9211242F9358
:102D70003F934F935F936F937F938F939F93AF9303
:102D8000BF93EF93FF93E0911001F091110109952A
:102D9000FF91EF91BF91AF919F918F917F916F9133
:102DA0005F914F913F912F910F900FBE0F901F9009
:102DB00018951F920F920FB60F9211242F933F93E5
:102DC0004F935F936F937F938F939F93AF93BF9333
:102DD000EF93FF93E0910E01F0910F010995FF91A0
:102DE000EF91BF91AF919F918F917F916F915F9183
:102DF0004F913F912F910F900FBE0F901F901895FC
:102E00001F920F920FB60F9211242F933F934F935F
:102E10005F936F937F938F939F93AF93BF93EF9342
:102E2000FF93E0910C01F0910D010995FF91EF9155
:102E3000BF91AF919F918F917F916F915F914F91D2
:102E40003F912F910F900FBE0F901F9018951F92DA
:102E50000F920FB60F9211242F933F934F935F93CE
:102E60006F937F938F939F93AF93BF93EF93FF9352
:102E7000E0910A01F0910B010995FF91EF91BF914B
:102E8000AF919F918F917F916F915F914F913F9102
:102E90002F910F900FBE0F901F9018952F923F9279
:102EA0004F925F926F927F928F929F92AF92BF925A
:102EB000CF92DF92EF92FF920F931F93CF93DF9306
:102EC000EC016A017B0148015901A9019801C70180
:102ED000B6010E94E52C87FF4EC0CAAADBAAECAA65
:102EE000FDAA8EAA9FAAA8AEB9AE8AAD882309F41E
:102EF00042C02E8C3F8CF1014080518062807380F3
:102F0000A5019401C301B2010E94E52C181634F406
:102F1000F10180829182A282B3820DC0A701960145
:102F2000C301B2010E94862B87FF05C0F101C08258
:102F3000D182E282F3828EA09FA0A8A4B9A4CEA8D9
:102F4000DFA8E8ACF9ACA7019601C501B4010E9465
:102F5000E52C181664F0CAA8DBA8ECA8FDA8A70108
:102F60009601C501B4010E94862B87FF04C0CEA242
:102F7000DFA2E8A6F9A6DF91CF911F910F91FF90F4
:102F8000EF90DF90CF90BF90AF909F908F907F9009
:102F90006F905F904F903F902F9008951F920F92E7
:102FA0000FB60F9211242F933F934F935F936F931C
:102FB0007F938F939F93AF93BF93EF93FF938091F2
:102FC000B900887F803609F49CC068F5883209F41E
:102FD0005BC090F4803109F454C038F4882309F4BC
:102FE000F6C0883009F44DC0F6C0883109F44CC0F1
:102FF000803209F45DC0EFC0803409F468C048F441
:10300000803309F455C0883309F0E5C08093160871
:10301000D8C0803509F44FC0883509F45DC08834C4
:1030200009F0D9C0D6C0883909F4C7C0A8F48837D8
:1030300009F467C038F4883609F463C0803709F4AE
:1030400060C0C9C0883809F4B8C0803909F45FC0CD
:10305000803809F0C0C05BC0803B09F486C038F4FA
:10306000803A09F466C0883A09F47FC0B4C0803C55
:1030700009F4A7C0883C09F4A4C0883B09F48AC0BD
:10308000AAC080913C0810C090913B0880913A08FA
:10309000981770F5E0913B0881E08E0F80933B0814
:1030A000F0E0E65EF74F80818093BB0085EC86C040
:1030B000809316088EC0E0913B0881E08E0F8093CC
:1030C0003B088091BB00F0E0E65EF74F8083909173
:1030D0003B0880913A086EC0E0913B0881E08E0F7A
:1030E00080933B088091BB00F0E0E65EF74F808361
:1030F0008091190881116DC081E08093180884EADD
:1031000061C083E08093170810921508CFCF80919B
:103110001508803208F051C0E091150881E08E0F4B
:10312000809315088091BB00F0E0EB50F84F80834E
:10313000BDCF85EC8093BC001092170880911508D4
:10314000803230F4E0911508F0E0EB50F84F108237
:103150006091150870E0E091F307F091F40785EFB6
:1031600097E009951092150836C084E080931708FF
:103170001092F2071092F107E091EF07F091F0073B
:1031800009958091F107811105C081E08093F107D5
:103190001092CF07E091F20781E08E0F8093F20743
:1031A000F0E0E153F84F80818093BB009091F207EB
:1031B0008091F107981708F479CF85E88093BC00D7
:1031C0000AC085EC8093BC001092170804C01092CE
:1031D00016080E94F814FF91EF91BF91AF919F9153
:1031E0008F917F916F915F914F913F912F910F90B0
:1031F0000FBE0F901F9018951F920F920FB60F924F
:1032000011242F933F934F935F936F937F938F93EB
:103210009F93AF93BF93EF93FF938091CD0787FF69
:1032200005C010928500109284001BC02091CD072C
:10323000022E000C330B8091260690E028173907E8
:1032400084F48091CD07082E000C990BFC01EE0F41
:10325000FF1F8E0F9F1FFC01EE5FF94F808186FDDF
:1032600015C08091CD078F5F8093CD072091CD074A
:10327000022E000C330B8091260690E028173907A8
:10328000C4F48091CD078C3064F113C08091CD07D8
:10329000082E000C990BFC01EE0FFF1F8E0F9F1FD5
:1032A000FC01EE5FF94F808160E08F730E94F210A5
:1032B000D8CF8091840090918500049680349C49F9
:1032C00018F480E49CE905C0809184009091850009
:1032D000049690938900809388008FEF8093CD07A8
:1032E0003BC020918400309185008091CD07082E4D
:1032F000000C990BFC01EE0FFF1F8E0F9F1FFC01AE
:10330000EE5FF94F81819281820F931F9093890024
:10331000809388008091CD07082E000C990BFC014A
:10332000EE0FFF1F8E0F9F1FFC01EE5FF94F808194
:1033300086FF12C08091CD07082E000C990BFC016E
:10334000EE0FFF1F8E0F9F1FFC01EE5FF94F808174
:1033500061E08F730E94F210FF91EF91BF91AF91E6
:103360009F918F917F916F915F914F913F912F919D
:103370000F900FBE0F901F901895CF93DF93EC0125
:103380008A859B85AC85BD858E839F83A887B987F9
:103390000E9435166A837B838C839D8381E08983B9
:1033A0008883DF91CF9108952F923F924F925F9241
:1033B0006F927F928F929F92AF92BF92CF92DF9245
:1033C000EF92FF920F931F93CF93DF93D82FC92FC4
:1033D0008B010E94832A24E630E040E050E00E9406
:1033E000E82A49015A019B01AC0160E876E988E9C5
:1033F00090E00E945C2D6B017C01F801918280823B
:10340000ED2FFC2F2191822F022E000C990BC097DB
:103410000A97C0F32E3239F51F0180E8882E86E91D
:10342000982E88E9A82EB12C9AE0492E512C612CB7
:10343000712CF101C1911F010C2E000CDD0BE097E6
:10344000CA30D10580F4C501B401A30192010E94E4
:10345000E82A49015A01DE010E94E02AC60ED71E61
:10346000E81EF91EE6CFA5E0B0E0A70196010E9494
:10347000D52A6F5F7F4F8F4F9F4F23E030E040E0B2
:1034800050E00E94E82AF801228333834483558365
:103490001682DF91CF911F910F91FF90EF90DF90F7
:1034A000CF90BF90AF909F908F907F906F905F90E4
:1034B0004F903F902F900895FF920F931F93CF93BB
:1034C000DF93EC01FF24F39488818D3211F0F12C0D
:1034D00001C02196CE010E94832A9B01AC01A4E683
:1034E000B0E00E94D52AFE014991242F042E000C41
:1034F000330B205331092A303105A8F34E3241F500
:103500002181022E000C330B205331092A30310562
:10351000F8F44AE0429F8001439F100D1124012ED0
:10352000000C220B330B600F711F821F931F02814F
:10353000002E000C110B005311090A30110540F444
:10354000012E000C220B330B600F711F821F931F83
:10355000FF2039F090958095709561957F4F8F4F42
:103560009F4FDF91CF911F910F91FF90089582E0BF
:103570000E94C910019779F481E0809358088091E6
:10358000460890914708A0914808B09149080197D2
:10359000A109B1090DC01092580880914608909178
:1035A0004708A0914808B09149080196A11DB11D96
:1035B0008093460890934708A0934808B093490821
:1035C00081E080934A0808958F929F92AF92BF92B4
:1035D000CF92DF92EF92FF920F931F930E94D61526
:1035E00000915408109155082091560830915708C1
:1035F000C0905008D0905108E0905208F0905308C5
:1036000046015701801A910AA20AB30A9501840162
:10361000060F171F281F391F0093500810935108D9
:1036200020935208309353086093540870935508C0
:10363000809356089093570880914C0890914D08BC
:10364000A0914E08B0914F080196A11DB11D809325
:103650004C0890934D08A0934E08B0934F081F91CB
:103660000F91FF90EF90DF90CF90BF90AF909F9021
:103670008F900895AF92BF92CF92DF92FF920F93F7
:103680001F93CF93DF9301E017E082E0F82ED1E0A3
:1036900085E695E00E94B00F892B09F4ECC285E61F
:1036A00095E00E948E0FC82F8091E3069091E4066A
:1036B000A091E506B091E6060196A11DB11D80938B
:1036C000E3069093E406A093E506B093E606C432C1
:1036D00009F4B0C2E091DD06C53234F4CA3071F0AD
:1036E000CD3009F0B4C20AC0CA3241F0CC3209F080
:1036F000AEC28091CA068C278093CA06EF3008F0CC
:103700008BC2F0E0E453F94F10828091CB068823FE
:1037100009F46BC12091CC063FEB320F822F022EB1
:10372000000C990B363010F4C79707C0215626308D
:1037300018F48755910901C0C097282F2295207F42
:103740003091CD064FEB430F832F032E000C990BC6
:10375000463010F4C79707C03156363018F48755F5
:10376000910901C0C097820F9091CA06891329C19F
:103770008091EF069091F006A091F106B091F206CB
:103780000196A11DB11D8093EF069093F006A093C2
:10379000F106B093F2068091DE06882399F08091BD
:1037A000E7069091E806A091E906B091EA06019635
:1037B000A11DB11D8093E7069093E806A093E9064A
:1037C000B093EA06D090DB06DD2009F46BC021E05F
:1037D000D212D0C080916E0690916F06A0917006B3
:1037E000B091710680936A0690936B06A0936C0665
:1037F000B0936D060E94351660937206709373063F
:103800008093740690937506D0926906D0926806EC
:1038100080917C0690917D06A0917E06B0917F06F6
:103820008093780690937906A0937A06B0937B06EE
:103830000E943516609380067093810680938206FD
:1038400090938306D0927706D09276068091DE061A
:10385000882309F48FC0E6E5F6E0A8E4B6E0812FFE
:1038600001900D928A95E1F7EDE5F6E0AFE4B6E060
:10387000812F01900D928A95E1F70E943516609391
:103880006406709365068093660690936706D092EF
:103890004706D092460684E896E00E94BD1982E968
:1038A00096E066C080917C0690917D06A0917E0690
:1038B000B0917F068093780690937906A0937A065C
:1038C000B0937B060E943516609380067093810644
:1038D0008093820690938306D0937706D0937606E2
:1038E0008091DE06882321F1E6E5F6E0A8E4B6E063
:1038F000812F01900D928A95E1F7EDE5F6E0AFE4B6
:10390000B6E0812F01900D928A95E1F70E9435165D
:1039100060936406709365068093660690936706CD
:10392000D0934706D093460680EA96E00E94BD19E0
:103930008091B8069091B906A091BA06B091BB06E5
:103940008093B4069093B506A093B606B093B706DD
:103950000E9435166093B0067093B1068093B2064C
:103960009093B306D093AF06D093AE068CEB96E05F
:103970000E94BD19C090E106D090E206C114D104A6
:1039800009F44AC1E091E106F091E20666A177A14F
:10399000F60186A197A10E94AB2D892B09F03CC1AD
:1039A000B601C60140960E94B42D0E943516F6015C
:1039B00060A371A382A393A305A304A3C2A4D3A469
:1039C000DDCF8091EB069091EC06A091ED06B091D1
:1039D000EE060196A11DB11D8093EB069093EC06B7
:1039E000A093ED06B093EE0617C19091DC069111FD
:1039F00046C063E175E08CEC96E00E94AB2D892B0C
:103A000041F069E175E08CEC96E00E94AB2D892BCA
:103A100019F4D093DB0615C06FE175E08CEC96E0ED
:103A20000E94AB2D892B41F065E275E08CEC96E0AD
:103A30000E94AB2D892B19F41092DB0602C0F09284
:103A4000DB068091DF069091E0069093E20680937A
:103A5000E106C090E106D090E206C114D10409F459
:103A6000DBC0F601A6A0B7A06CEC76E0C5010E9411
:103A7000AB2D97FFC5C0F60182A593A5E6CFE091D7
:103A8000DB06E23009F491C08091CC06882309F46A
:103A90008CC020E2E29FF0011124E92B3197E9323A
:103AA000F10508F082C0EF58FF4F0C948C2D8CEC80
:103AB00096E00E945C1A60937C0670937D0680936A
:103AC0007E0690937F0671C091E0813409F043C077
:103AD00043C066E576E009C091E0833509F090E0E7
:103AE00090935C0662C06DE576E08CEC96E00E94F7
:103AF000D4195BC091E0873509F090E0909363069C
:103B000054C08CEC96E00E945C1A60938E06709311
:103B10008F06809390069093910647C08CEC96E0B8
:103B20000E945C1A60939C0670939D0680939E068B
:103B300090939F063AC08CEC96E00E94832A609393
:103B40006E0670936F0680937006909371062DC079
:103B500091E081330CF490E09093DE0626C08CEC6B
:103B600096E00E94832A6093B8067093B90680930A
:103B7000BA069093BB0619C08CEC96E00E945C1AC2
:103B80006093C6067093C7068093C8069093C906D3
:103B90000CC08CEC96E00E945C1A6093AA067093AD
:103BA000AB068093AC069093AD06C090E106D09032
:103BB000E206C114D10481F1E091E106F091E20640
:103BC00066A177A1F60186A197A10E94AB2D892B52
:103BD00019F5F60120A531A58091DC0690E0821749
:103BE0009307D4F02817390739F440E150E06CEC22
:103BF00076E0C6010E94BB2DF601C2A4D3A4D9CFA2
:103C00006CEC76E0C5010E94AB2D1816190624F461
:103C10001092E2061092E1068091DC068F5F80939D
:103C2000DC061092DD0681E0CA3209F080E0809364
:103C3000CB062ECD1092DD061092DC061092CA063D
:103C4000F092DB061092CB061092DE0621CDEE300C
:103C500040F481E08E0F8093DD06F0E0E453F94FED
:103C6000C0838091CB06811113CD8091CA06C827ED
:103C7000C093CA060DCD80918506882309F408CD2E
:103C8000DF91CF911F910F91FF90DF90CF90BF9068
:103C9000AF9008950C94C72A0C94BF2A0F931F93DA
:103CA000CF938C0101960E944C1EC82FC8010E9420
:103CB0004C1E2C2F30E0A901582BCA01CF911F9127
:103CC0000F9108951F93CF93DF93EC01162F672F69
:103CD0000E944A1E612FCE010196DF91CF911F9164
:103CE0000C944A1E1092340110924B0881E080938C
:103CF00033010C94430180912301909124012AE027
:103D000030E0B9010E94782DCB01709331066093A9
:103D10003006B9010E94782D70932F0660932E060D
:103D200090932D0680932C06860F971F97FF03C054
:103D30008BE295E008C06A3071051CF48EED91E0CD
:103D400002C08FED91E00E94531280912E06909157
:103D50002F0697FF07C091958195910990932F06A3
:103D600080932E0680912E0690912F060E94841239
:103D70008EE295E00E94531280912C0690912D06C0
:103D800097FF07C091958195910990932D06809397
:103D90002C0680912C0690912D060E948412809111
:103DA0001501882319F084E593E002C089E593E0CA
:103DB0000C945312CF9380914A08882391F18091FB
:103DC000460890914708A0914808B09149081816F4
:103DD00019061A061B0664F410924608109247084A
:103DE000109248081092490810924A0881E065C074
:103DF0008091460890914708A0914808B0914908E1
:103E0000B7FF0CC01092460810924708109248085D
:103E10001092490810924A0882E04FC010924A0856
:103E20004BC084E00E94C910C0915908892BE9F465
:103E3000CF5FC093590868EC70E080E090E00E948A
:103E4000FB15C830C0F1109259080E944F1284E14E
:103E50000E94681460E070E080E090E00E945414DA
:103E600086E395E00E9453121DC0CC2329F11092E5
:103E700059080E944F1284E10E94681460E070E0CB
:103E800080E090E00E94541480E395E00E94531279
:103E900064EF71E080E090E00E94FB150E944F12F9
:103EA00084E00BC084E00E94C910892BD9F30E94E2
:103EB0004F1288E002C002C080E190E0CF910895E7
:103EC0008F929F92AF92BF92CF92DF92EF92FF922A
:103ED0008090500890905108A0905208B0905308DC
:103EE00060914C0870914D0880914E0890914F0858
:103EF00010925008109251081092520810925308D4
:103F000010924C0810924D0810924E0810924F08D3
:103F10000E94332C20E03BE147EB5AE40E94EA2C5C
:103F20006B017C01C501B4010E94332C9B01AC01E3
:103F3000C701B6010E948B2B6B017C01809122018D
:103F4000682F70E080E090E00E94352C9B01AC016E
:103F5000C701B6010E948B2B0E94FD2B9B01AC0177
:103F6000AAE0B0E00E94D52ACB01FF90EF90DF904D
:103F7000CF90BF90AF909F908F900895FC01848563
:103F8000958597FD0BC09FB7F89482E08093E90078
:103F90008091F2009FBF90E0019608959FB7F8943A
:103FA00082E08093E9008091F2009FBF90E0089545
:103FB00040915E0850915F0820915C0830915D0847
:103FC00042175307B4F49091E8009570E1F3909193
:103FD000E80092FD19C08093F10080915E089091F5
:103FE0005F0801968F739927892B19F48EEF8093C0
:103FF000E80080915E0890915F08019690935F08B9
:1040000080935E0881E0089580E00895CF92DF926A
:10401000EF92FF920F931F93CF93DF931F92CDB731
:10402000DEB7182F062FE42E862F880F8E5F998318
:104030000E94D81F83E00E94D81FF12EC12E9981C3
:10404000D92E8C2D8F19801798F4F601E7FE02C047
:10405000849101C080810E94D81F182F80E00E94A7
:10406000D81F8123FFEFCF1ADF0A8111EACF01C0E9
:1040700081E00F90DF91CF911F910F91FF90EF9012
:10408000DF90CF900895DF92EF92FF920F931F93EE
:10409000CF93DF93D82E8A017B01E40EF51EEB014E
:1040A000CE15DF0571F0D7FE03C0FE01849101C07B
:1040B00088810E94D81F21968111F2CF8FEF9FEF48
:1040C00001C0C801DF91CF911F910F91FF90EF9038
:1040D000DF900895615030F02091F100FC012083C1
:1040E0000196F8CF289884E6809363050895CF93CE
:1040F000DF931F92CDB7DEB7FC018485958597FDD0
:1041000005C02FEF3FEF358724870BC0CE01019606
:104110000E94B914019719F4898190E002C08FEFD1
:104120009FEF0F90DF91CF9108950F931F93CF933F
:10413000DF931F92CDB7DEB78C01FC018485958596
:1041400097FF0EC0CE0101960E94B914019719F491
:10415000298130E002C02FEF3FEFF8013587248737
:10416000F801848595850F90DF91CF911F910F9174
:1041700008950F931F93CF93DF931F92CDB7DEB7B0
:1041800082E0898342E450E06BEB71E080E80E94BA
:1041900043200E94E314DC0112960D911C911397A9
:1041A0000115110569F0D801ED91FC910280F381B0
:1041B000E02DBE016F5F7F4FC801099597FF07C0D3
:1041C00089810F90DF91CF911F910F910895F80190
:1041D00000851185E5CF1F920F920FB60F92112423
:1041E0008F939F938091E1009091E100937F909352
:1041F000E10083FF0FC01092E90091E09093EB0083
:104200001092EC0092E39093ED001092640598E018
:104210009093F00082FF20C093E09093E90090918A
:10422000F200992319F09AE39093E80090916105C8
:10423000992339F0909161059150909361059923EC
:1042400089F190916305992339F09091630591501C
:1042500090936305992341F184FF10C08091E2009F
:104260008E7E81608093E2008091E1008F7E80935A
:10427000E100809162058E7E806111C080FF16C0D2
:104280008091E2008E7E80618093E2008091E10067
:104290008E7E8093E100809162058E7E81608093A6
:1042A000620504C05D9ACDCF289AD6CF9F918F9199
:1042B0000F900FBE0F901F9018951F920F920FB680
:1042C0000F921124CF92DF92EF92FF920F931F93E0
:1042D0002F933F934F935F936F937F938F939F930E
:1042E000AF93BF93EF93FF93CF93DF93CDB7DEB739
:1042F0006C97DEBFCDBF1092E9008091E80083FF8C
:10430000EDC168E0CE0145960E946A2082EF80935D
:10431000E8008D8987FF05C09091E80090FFFCCFF1
:1043200003C09EEF9093E800982F907609F0C6C0E6
:104330009E892F89188D91110CC0803829F48091A5
:104340005B088093F10002C01092F1001092F1001E
:1043500048C1422F50E0512B913051F4811141C19D
:104360004130510509F03DC180915B088D7F0BC044
:10437000933061F4811135C14130510509F031C1EB
:1043800080915B08826080935B082BC1953041F47B
:104390008091E80080FFFCCF20682093E30021C1DA
:1043A000963009F05FC0EB8CFC8C1092E900109203
:1043B0005F0810925E08123091F510925D0810921D
:1043C0005C080E94B92099E0BE016F5F7F4FDB015E
:1043D000E92F1D92EA95E9F799831A8391E09E836C
:1043E00090EA98879AEF998720915E0830915F084C
:1043F000275F3F4F3C832B838D831092E9001092FF
:104400005F0810925E08F0925D08E0925C0849E057
:1044100050E080E00E9443200E94B920E2C0F09268
:104420005D08E0925C080E94E314DC011296ED90B6
:10443000FC901397E114F10409F4C0C0D701ED9189
:10444000FC910480F581E02DBE016B5E7F4FC701BA
:104450000995009719F00CF0C4C0C7C0F701E084BB
:10446000F184E8CF973009F4C0C0983021F481E09E
:104470008093F100B6C0993009F0B3C0837009F0A1
:10448000B4C0E2EAF1E081E021E036E390819923D3
:1044900061F08093E9002093EB0091919093EC0000
:1044A0003093ED008F5F873089F78EE78093EA00C5
:1044B0001092EA008F898093640593C08B8D9C8D48
:1044C0001092E90010925F0810925E0890935D08C8
:1044D00080935C08898D811156C08E899D89913A9F
:1044E00059F4813209F081C047E050E065E271E0A3
:1044F00080E00E94432075C0913209F076C083327B
:1045000089F4888D90E0982F88272F89822BA0E04E
:10451000B0E08093350190933601A0933701B093BA
:1045200038015FC0803269F48091E80082FFFCCFDF
:1045300067E085E291E00E946A208BEF8093E800BB
:1045400006C0823209F04DC08F8980932C01809182
:104550005A08882319F0EEEFFAE002C0E0E0F8E034
:104560008091250190912601A0912701B091280109
:10457000803B9440A105B10509F07BC080912C01DE
:1045800080FF93C076C00E94E314DC0112960D9167
:104590001C9113970115110541F1D801ED91FC9182
:1045A0000190F081E02DBE016B5E7F4FC80109953F
:1045B000811117C0F80100851185ECCF113009F485
:1045C0004EC0133091F48F89882309F445C082309E
:1045D00081F440E860E18FE192E00E9406208823A8
:1045E00021F08EEF8093E80079C081E28093EB00A8
:1045F00075C0813029F440E86BE083E192E0EDCFB3
:10460000833099F70E94E314DC011296ED90FC9040
:1046100013978E010F5F1F4F6801E114F10479F0C9
:10462000D701ED91FC910680F781E02DB801C7011B
:104630000995080F111DF701E084F184EECFD80130
:104640001C92F60101900020E9F73197BF016C1927
:104650007D0940E0C601C1CF6DEF71E002C061E0AD
:1046600072E06115710509F2FB01449150E080E8A8
:1046700040CF0FB6F894A895809160008861809330
:104680006000109260000FBEA895EE3F2AE0F2078E
:1046900039F08091FE0A9091FF0A91838083A1CF27
:1046A0001092FF0A1092FE0A9CCFEE3F8AE0F807B4
:1046B00031F0808191819093FF0A8093FE0A87E711
:1046C00097E7918380839BE088E10FB6F894A895E3
:1046D000809360000FBE9093600083CF6C960FB6FE
:1046E000F894DEBF0FBECDBFDF91CF91FF91EF9168
:1046F000BF91AF919F918F917F916F915F914F91FA
:104700003F912F911F910F91FF90EF90DF90CF90ED
:104710000F900FBE0F901F9018950895089508955B
:1047200080E090E00895FF920F931F93CF93DF9363
:10473000EC0161E089890E94F21061E089890E94A0
:10474000F2108A890E94C910892BD9F360E0898907
:104750000E94F21060E089890E94F21060E089896D
:104760000E94F21098E0F92E00E010E0000F111FF7
:1047700061E08F850E94F2108A890E94C910892BFE
:1047800009F0016060E08F850E94F210FA94F11048
:10479000EDCF61E089890E94F210C801DF91CF91CD
:1047A0001F910F91FF90089504970C949323CF923B
:1047B000DF92EF92FF920F931F93CF93DF93EC0161
:1047C000E62E60E089890E94F21060E089890E94EB
:1047D000F21060E089890E94F210DF84C88807E047
:1047E00010E0F12CB701002E02C0759567950A9470
:1047F000E2F7617077278C2D0E94F21061E08D2D19
:104800000E94F21060E08D2D0E94F21001501109FB
:1048100048F761E089890E94F21081E090E0DF9121
:10482000CF911F910F91FF90EF90DF90CF9008955F
:10483000CF93DF93EC0161E08F850E949A1561E0D0
:1048400088890E949A1561E089890E949A1561E021
:1048500089890E94F21060E08F850E94F21060E06A
:1048600088890E94F2108A89882329F060E0DF910C
:10487000CF910C949A15DF91CF910895789484B5D7
:10488000826084BD84B5816084BD85B5826085BD4C
:1048900085B5816085BD80916E00816080936E00DA
:1048A00010928100809181008260809381008091CC
:1048B000810081608093810080918000816080937D
:1048C000800080919100826080939100809191009E
:1048D000816080939100809190008160809390002E
:1048E0008091C10084608093C1008091C10082608A
:1048F0008093C1008091C10081608093C10080914C
:10490000C30081608093C3008091C0008260809367
:10491000C0008091C20081608093C20080917A00C3
:10492000846080937A0080917A00826080937A001C
:1049300080917A00816080937A0080917A0080680B
:1049400080937A001092640510925B0810926205C1
:104950008091D70081608093D70080EA8093D8004F
:1049600089B5806189BD89B5826089BD09B400FEC1
:10497000FDCF61E070E080E090E00E94FB15809147
:10498000D8008F7C80618093D8008091E000807F88
:104990008093E0008091E1008E7E8093E1008DE0C5
:1049A0008093E200559A209AEEEFFFE7859194916B
:1049B0008B3F9C4D19F481E080935A08E091750576
:1049C000F091760582E08083E0917105F0917205A7
:1049D0001082E0917305F09174058FEC8083109242
:1049E0007D05E0917905F0917A0586E08083E0917C
:1049F0007705F0917805808180618083E09177056B
:104A0000F0917805808188608083E0917705F0914E
:104A10007805808180688083E0917705F091780542
:104A200080818F7D808368EB7BE080E090E00E9456
:104A3000FB1582E396E00E94182468EB7BE080E09F
:104A400090E00E94FB150E944F1264E670E080E047
:104A500090E00E94FB158EE10E94681461E070E016
:104A600080E090E00E9454148DED91E00E9453127A
:104A700064E670E080E090E00E94FB1588E594E039
:104A80000E94531268EE73E080E090E00E94FB15F4
:104A900062E070E080E090E00E9454148AED91E0C2
:104AA0000E94531264E670E080E090E00E94FB15E3
:104AB00083E694E00E94531268EE73E080E090E099
:104AC0000E94FB1563E070E080E090E00E945414C7
:104AD00089E694E00E9453126CEE71E580E991E45E
:104AE0000E94AD1268EB7BE080E090E00E94FB1535
:104AF0000E944F1264EF71E080E090E00E94FB158D
:104B00008EE10E94681461E070E080E090E00E9415
:104B1000541485E490E00E944C1E853409F46AC068
:104B20008EE10E94681461E070E080E090E00E94F5
:104B3000541484E794E00E94531263E070E080E034
:104B400090E00E94541483E894E00E94531260EDB8
:104B500077E080E090E00E94FB1566E08BE090E05B
:104B60000E944A1E60E08CE090E00E944A1E69E1CB
:104B70008DE090E00E944A1E60E08EE090E00E948E
:104B80004A1E69E18FE090E00E944A1E60E080E1E9
:104B900090E00E944A1E62E381E190E00E944A1E7A
:104BA00061E082E190E00E944A1E6CE083E190E0C7
:104BB0000E944A1E6FEF84E190E00E944A1E60E06E
:104BC00085E190E00E944A1E61E08DE190E00E9444
:104BD0004A1E6AE08EE190E00E944A1E60E08FE18A
:104BE00090E00E944A1E65E485E490E00E944A1E1F
:104BF0000E944F128EE10E94681461E070E080E034
:104C000090E00E94541485E994E00E94531263E0FE
:104C100070E080E090E00E94541486EA94E00E94E4
:104C2000531268EE73E080E090E00E94FB1560E0B4
:104C300082E00E949A1560E083E00E949A1562E08B
:104C400084E00E949A1587EB9AE190930B01809380
:104C50000A0180916900836080936900E89A84EE7C
:104C60009AE1909313018093120180916A008F7CE6
:104C7000806180936A00EE9A809129068C3008F05A
:104C800051C061E085E00E949A1580912906E82FC5
:104C9000F0E09F01220F331FE20FF31FEE5FF94F89
:104CA0009081907C9560908310922A0610922B063A
:104CB0006CE00E946C2D9CE0899FB001112440E0C3
:104CC00050E09A01260F371FF901EE0FFF1F2E0F3C
:104CD0003F1FF901EE5FF94F908196FD16C04F5FBF
:104CE0005F4F4C30510569F781110FC01092800061
:104CF00082E0809381001092850010928400B19A26
:104D000080916F00826080936F00E0912906F0E04F
:104D1000CF01880F991FE80FF91FEE5FF94F8081CF
:104D20008064808380912706909128060E948114D8
:104D300060915F0570916005072E000C880B990B40
:104D40000E94352C6093FB067093FC068093FD0651
:104D50009093FE066091230170912401072E000CB0
:104D6000880B990B0E94352C6093F3067093F40620
:104D70008093F5069093F60680913907811148C01B
:104D8000E0911D07F0911E07C080D180E280F38082
:104D9000C0922507D0922607E0922707F0922807B5
:104DA000E0911B07F0911C0780819181A281B38162
:104DB0008093290790932A07A0932B07B0932C0781
:104DC0008090350790903607A0903707B09038074D
:104DD000A5019401C701B6010E94E52C181684F0C4
:104DE0008090310790903207A0903307B09034073D
:104DF000A5019401C701B6010E94862B87FF08C058
:104E00008092250790922607A0922707B092280744
:104E100081E0809339071092560510925505109243
:104E200058051092570510925A0510925905109284
:104E30005C0510925B0510925E0510925D058BE09B
:104E400090E00E944C1E809322018CE090E00E9432
:104E50004E1EBC0180E090E00E94332C20E030E048
:104E600048EC52E40E948B2B60932F017093300129
:104E700080933101909332018EE090E00E944E1EAB
:104E8000BC0180E090E00E94332C20E030E048EC50
:104E900052E40E948B2B60931E0170931F0180933C
:104EA00020019093210180E190E00E944E1EBC0100
:104EB00080E090E00E94332C20E030E048EC52E4A7
:104EC0000E948B2B60931A0170931B0180931C012D
:104ED00090931D0183E190E00E944C1E90E090931E
:104EE00019018093180184E190E00E944C1E2AE091
:104EF000829F80011124109317010093160185E110
:104F000090E00E944C1E9AE0899FE0011124D0930A
:104F10002E01C0932D0182E190E00E944C1E91E091
:104F2000811101C090E0909315018DE190E00E9405
:104F30004C1E91E0811101C090E0909314018EE12C
:104F400090E00E944C1E24E6829FC00111249093A1
:104F50002401809323018FE190E00E944C1E91E098
:104F6000811101C090E090935405B801110F880B96
:104F7000990B0E94352C6B017C01BE01DD0F880B63
:104F8000990B0E94352CAB01BC01970186018FEF74
:104F900096E00E944E1765EB74E085E695E00E946E
:104FA0005C1067EE74E085E695E00E945C1064E6B4
:104FB00070E080E090E00E94FB156AEE74E085E608
:104FC00095E00E945C1067EE74E085E695E00E9433
:104FD0005C1064E670E080E090E00E94FB150E94A7
:104FE00043010E945010FBCFCF92DF92EF92FF92CD
:104FF000CF93DF9310924A071092490788EE93E00F
:10500000A0E0B0E080934B0790934C07A0934D072E
:10501000B0934E0727E531E03093480720934707C8
:105020002FEF3FEF309354072093530710926805FA
:10503000109267058093690590936A05A0936B05AC
:10504000B0936C0529E631E0309366052093650541
:105050002DEC30E030937205209371052CEC30E09C
:10506000309374052093730528EC30E03093760577
:105070002093750529EC30E030937805209377056F
:105080002AEC30E030937A05209379052EEC30E05D
:1050900030937C0520937B0510927E0510927F054E
:1050A000109280051092810510929A07109299072C
:1050B00080939B0790939C07A0939D07B0939E07B6
:1050C0008BE791E09093980780939707C0902F010A
:1050D000D0903001E0903101F090320187EF96E0FE
:1050E00090931E0780931D078BEF96E090931C070B
:1050F00080931B0783EF96E09093200780931F0710
:10510000109239071092310710923207109233072C
:105110001092340780E090E0AFE7B3E48093350766
:1051200090933607A0933707B093380784E690E052
:10513000A0E0B0E080932D0790932E07A0932F0757
:10514000B0933007C1E0D0E0D0931807C0931707A1
:1051500020E030E0A901C701B6010E94862B87FD3F
:105160005CC0D0931A07C093190781E080933A0777
:10517000C092FF06D0920007E0920107F09202076A
:10518000C0920307D0920407E0920507F092060749
:10519000C0920707D0920807E0920907F0920A0729
:1051A000A701960160E070E0CB010E94192B60938B
:1051B0000B0770930C0780930D0790930E072DEC4F
:1051C0003CEC4CEC5DE3C701B6010E94EA2C9B016C
:1051D000AC0160E070E0CB010E94192B60930F07D7
:1051E0007093100780931107909312072DEC3CECFD
:1051F0004CEC5DE3C701B6010E948B2B9B01AC0117
:1052000060E070E0CB010E94192B6093130770934C
:10521000140780931507909316070E943516C090C7
:105220002D07D0902E07E0902F07F0903007DC017B
:10523000CB018C199D09AE09BF098093210790937A
:105240002207A0932307B0932407109246061092DA
:105250004706109249061092480610924A0610928C
:105260004B0610924C0610924D0610924E0610926C
:10527000500610924F06109251061092520610924C
:10528000530610925406109255061092570610922B
:105290005606109258061092590610925A0610920D
:1052A0005B0610925C0610925E0610925D061092EC
:1052B0005F061092600610926106109262061092CC
:1052C0006306109268061092690610926A061092A0
:1052D0006B0610926C0610926D0610927606109274
:1052E0007706109278061092790610927A0610923C
:1052F0007B06109284061092850610928A06109200
:105300008B0610928C0610928D06109292061092C7
:105310009306109298061092990610929A0610928F
:105320009B061092A0061092A1061092A60610925B
:10533000A7061092A8061092A9061092AE06109227
:10534000AF061092B4061092B5061092B6061092EF
:10535000B7061092BC061092BD061092C2061092BB
:10536000C3061092C4061092C5061092CA06109287
:10537000CB0682E08093DB061092DC061092DD06FD
:105380001092DE061092E0061092DF061092E206FE
:105390001092E1061092E3061092E4061092E506E0
:1053A0001092E6061092E7061092E8061092E906BF
:1053B0001092EA061092EB061092EC061092ED069F
:1053C0001092EE061092EF061092F0061092F1067F
:1053D0001092F2061092CC06109235061092340606
:1053E0008DE891E090933306809332068DE991E049
:1053F000909337068093360688E08093410689E0D3
:10540000809342068AE0809343061092440682E32A
:1054100096E00E94182466E18FEB97E00E94542AE0
:105420006BE081EB97E00E94542A6CE083EA97E0FE
:105430000E94542A80913006909131066AE070E013
:105440000E94782D70932F0660932E0690932D0660
:1054500080932C06809126068C30A0F491E0980F62
:10546000909326068093290690E0FC01EE0FFF1F23
:105470008E0F9F1FFC01EE5FF94F88EB9BE092833C
:10548000818303C08FEF8093290680912D01909135
:105490002E019093280680932706DF91CF91FF90ED
:1054A000EF90DF90CF9008950F931F93CF93DF93EA
:1054B000EC01162F60E0812F0E949A15612F70E099
:1054C000FB01E159FE4FE491E883FB01E05BFE4FF5
:1054D000E491F0E0EE0FFF1FEE5BFE4F859194919B
:1054E0009A8389831B861D861C86FE013B968E014E
:1054F0000D5F1F4F1292E017F107E1F7DF91CF9197
:105500001F910F9108951F93FC0199278827BC01D3
:10551000E89411911032E9F3193010F01E30C8F3FD
:105520001B3251F01D3249F4689406C00E94AA2A29
:10553000610F711D811D911D119110531A30B0F32F
:105540003EF490958095709561957F4F8F4F9F4F5A
:105550001F910895592F482F372F262F660F771F39
:10556000881F991F660F771F881F991F620F731F6F
:10557000841F951F660F771F881F991F0895F9993B
:10558000FECF92BD81BDF89A992780B50895262F48
:10559000F999FECF1FBA92BD81BD20BD0FB6F89418
:1055A000FA9AF99A0FBE019608950E940A2BA59FB8
:1055B000900DB49F900DA49F800D911D112408950E
:1055C000B7FF0C94D52A0E94D52A821B930B08950D
:1055D000A1E21A2EAA1BBB1BFD010DC0AA1FBB1FF7
:1055E000EE1FFF1FA217B307E407F50720F0A21B69
:1055F000B30BE40BF50B661F771F881F991F1A94D6
:1056000069F760957095809590959B01AC01BD01FF
:10561000CF010895A29FB001B39FC001A39F700D59
:10562000811D1124911DB29F700D811D1124911DAA
:1056300008955058BB27AA270E94312B0C94AB2CFD
:105640000E949D2C38F00E94A42C20F039F49F3F3A
:1056500019F426F40C949A2C0EF4E095E7FB0C94C4
:10566000942CE92F0E94BC2C58F3BA1762077307D9
:105670008407950720F079F4A6F50C94DE2C0EF43F
:10568000E0950B2EBA2FA02D0B01B90190010C0152
:10569000CA01A0011124FF27591B99F0593F50F46A
:1056A000503E68F11A16F040A22F232F342F4427C2
:1056B000585FF3CF469537952795A795F0405395BA
:1056C000C9F77EF41F16BA0B620B730B840BBAF08A
:1056D0009150A1F0FF0FBB1F661F771F881FC2F7F5
:1056E0000EC0BA0F621F731F841F48F48795779509
:1056F0006795B795F7959E3F08F0B0CF9395880FC3
:1057000008F09927EE0F9795879508950E94702CC1
:1057100008F481E008950E949F2B0C94AB2C0E940A
:10572000A42C58F00E949D2C40F029F45F3F29F0F2
:105730000C94942C51110C94DF2C0C949A2C0E94F4
:10574000BC2C68F39923B1F3552391F3951B550BAA
:10575000BB27AA2762177307840738F09F5F5F4F44
:10576000220F331F441FAA1FA9F335D00E2E3AF083
:10577000E0E832D091505040E695001CCAF72BD09B
:10578000FE2F29D0660F771F881FBB1F26173707EC
:105790004807AB07B0E809F0BB0B802DBF01FF271E
:1057A00093585F4F3AF09E3F510578F00C94942C3B
:1057B0000C94DF2C5F3FE4F3983ED4F38695779505
:1057C0006795B795F7959F5FC9F7880F911D9695D7
:1057D000879597F90895E1E0660F771F881FBB1F33
:1057E000621773078407BA0720F0621B730B840BE0
:1057F000BA0BEE1F88F7E09508950E94042C689478
:10580000B1110C94DF2C08950E94C42C88F09F578E
:1058100098F0B92F9927B751B0F0E1F0660F771FD4
:10582000881F991F1AF0BA95C9F714C0B13091F0CA
:105830000E94DE2CB1E008950C94DE2C672F782FA7
:105840008827B85F39F0B93FCCF38695779567958F
:10585000B395D9F73EF490958095709561957F4FFB
:105860008F4F9F4F0895E89409C097FB3EF49095A1
:105870008095709561957F4F8F4F9F4F9923A9F029
:10588000F92F96E9BB279395F695879577956795B8
:10589000B795F111F8CFFAF4BB0F11F460FF1BC0FC
:1058A0006F5F7F4F8F4F9F4F16C0882311F096E98F
:1058B00011C0772321F09EE8872F762F05C066233D
:1058C00071F096E8862F70E060E02AF09A95660FF6
:1058D000771F881FDAF7880F9695879597F90895AF
:1058E000990F0008550FAA0BE0E8FEEF16161706F1
:1058F000E807F907C0F012161306E407F50798F059
:10590000621B730B840B950B39F40A2661F0232B71
:10591000242B252B21F408950A2609F4A140A695ED
:105920008FEF811D811D089597F99F6780E870E0D2
:1059300060E008959FEF80EC089500240A94161605
:10594000170618060906089500240A94121613066D
:10595000140605060895092E0394000C11F48823FB
:1059600052F0BB0F40F4BF2B11F460FF04C06F5F17
:105970007F4F8F4F9F4F089557FD9058440F551FED
:1059800059F05F3F71F04795880F97FB991F61F0C1
:105990009F3F79F087950895121613061406551F38
:1059A000F2CF4695F1DF08C0161617061806991FA4
:1059B000F1CF86957105610508940895E894BB2799
:1059C00066277727CB0197F908950E94702C08F479
:1059D0008FEF08950E94FD2C0C94AB2C0E949D2CFF
:1059E00038F00E94A42C20F0952311F00C94942CF4
:1059F0000C949A2C11240C94DF2C0E94BC2C70F374
:105A0000959FC1F3950F50E0551F629FF001729F63
:105A1000BB27F00DB11D639FAA27F00DB11DAA1F72
:105A2000649F6627B00DA11D661F829F2227B00DBF
:105A3000A11D621F739FB00DA11D621F839FA00D4A
:105A4000611D221F749F3327A00D611D231F849F9A
:105A5000600D211D822F762F6A2F11249F575040F1
:105A60009AF0F1F088234AF0EE0FFF1FBB1F661F6C
:105A7000771F881F91505040A9F79E3F510580F035
:105A80000C94942C0C94DF2C5F3FE4F3983ED4F3F9
:105A9000869577956795B795F795E7959F5FC1F7D9
:105AA000FE2B880F911D9695879597F908950E9472
:105AB000702C880B990B0895DB018F939F930E94A4
:105AC000D52ABF91AF91A29F800D911DA39F900DEC
:105AD000B29F900D11240895991B79E004C0991F7D
