:100000000C941B010C94D4150C94AD150C9486150E
:100010000C945F150C9443010C9443010C94381517
:100020000C9443010C9443010C94661A0C94D81A56
:100030000C9443010C9443010C9443010C94430130
:100040000C9443010C9429170C9443010C94430124
:100050000C9443010C9443010C9443010C94EE1452
:100060000C9443010C9419130C94F3120C94430157
:100070000C9443010C9443010C9443010C944301F0
:100080000C9443010C9443010C9443010C944301E0
:100090000C94FB150C9443010C9443010C94430104
:1000A0000C9443010C9443010C944301ED01B30201
:1000B0008D030C047304090516075807AC070008E4
:1000C0005408C308AE09C40A1010221025102C10C1
:1000D000331061106810751082108E108E108E1003
:1000E0008E108E108E108E108E108E108E108E1020
:1000F0008E108E108E108E108E108E108E108E1010
:100100008E108E108E108E1010101D1022102510C3
:100110002C1033103A104710541063136613551304
:1001200059135F138713871387136A136E137213A0
:1001300078137C138713821300000000240027002B
:100140002A002D00300000000000250028002B00B0
:100150002E003100000000002300260029002C00A2
:100160002F00040404040403040502020202040331
:100170000202020206060606060604040202020441
:100180000404080201104080401020408040800894
:100190000204018040201002011080102040402005
:1001A0000000000200090F0000030401000C000021
:1001B0000000000000000000000000000000000837
:1001C0000B0002020201000904000001020200000B
:1001D0000524001001052401010104240206052460
:1001E0000600010705810310004009040100020A0E
:1001F00000000007050202400000070583024000DE
:10020000000403090412010002EF020140412336F9
:100210008000010102030141726475696E6F204C18
:100220004C430041726475696E6F204C656F6E615E
:1002300072646F00821E11241FBECFEFDAE0DEBFB2
:10024000CDBF15E0A0E0B1E0E6E4FBE402C005901C
:100250000D92A835B107D9F727E0A8E5B5E001C0B0
:100260001D92AF3DB207E1F711E0CBE1D1E004C050
:100270002197FE010E946325CA31D107C9F70E9468
:10028000981F0C94A1250C9400002F923F924F923E
:100290005F926F927F928F929F92AF92BF92CF9216
:1002A000DF92EF92FF920F931F93CF93DF93CDB71F
:1002B000DEB7A0970FB6F894DEBF0FBECDBF00919A
:1002C00030071091310783EA91E00E94A10CC80128
:1002D00099270E94B90D82E695E00E943212892B7F
:1002E00039F082E695E00E9410120E94070EF3CFCB
:1002F00080914C06882379F384E00E941314892BA3
:10030000D9F38EE1E0E3F1E0DE01119601900D9268
:100310008A95E1F7312CFE013196E30DF11DE30DD5
:10032000F11D808191818653954011F03394F3CF74
:100330003A943F8E0E94AF0C81E080932F0122E01F
:1003400010E000E04F8D242E312C74E6872E912C86
:10035000A12CB12C28A30E94FC1D28A1823091055C
:10036000E1F024F4019779F00C94AF0B84309105FF
:1003700039F1089711F00C94AF0B28A30E94F61DD9
:1003800028A10C94AF0B11110C94B20B002311F4A3
:100390000C94E40B01500C94E90B802F90E005962F
:1003A0008215930524F4153011F40F5F22E0812F9C
:1003B00090E0059714F00C94AF0B1F5F0C94B30BF7
:1003C000E12FF0E0E00FF11DEE30F10510F00C949C
:1003D000AF0BEA5AFF4F0C9463258091190190915D
:1003E0001A0190930606809305060E94AF0C8AE0DE
:1003F0000E94EE0D60E070E080E090E00E94DA0D77
:1004000086EA91E00E94B30C61E070E080E090E049
:100410000E94DA0D84EB91E00E94B30C62E070E080
:1004200080E090E00E94DA0D88EC91E00E94B30C2D
:1004300064E070E080E090E00E94DA0D8EED91E0E3
:100440000E94B30C80913207882329F080910A0121
:1004500090910B0104C08091190190911A010E94A2
:10046000D90C82EA92E00E94B30C0E94FC1D8230FB
:10047000910519F11CF4019751F0F7CF84309105E3
:1004800009F46BC0089789F70E94F61DEECF209102
:1004900032078091190190911A012223E9F02091ED
:1004A0000A0130910B01281739071CF5265F3F4FD1
:1004B00030930B0120930A0121C0209132078091D3
:1004C0000A0190910B01211114C020911901309162
:1004D0001A018217930734F00A9690931A018093B9
:1004E00019010CC02A50310930931A0120931901C7
:1004F00005C00A9790930B0180930A0164E070E0B5
:1005000080E090E00E94DA0D8EED91E00E94B30C45
:1005100080913207882329F080910A0190910B0184
:1005200004C08091190190911A010E94D90C82EAAD
:1005300092E00E94B30C80913207882329F08091C9
:100540000A0190910B0104C08091190190911A0148
:10055000909306068093050688CF80913207882302
:1005600009F4C5C0CFC080910A0190910B0190930E
:100570000606809305060E94AF0C8AE00E94EE0DED
:1005800060E070E080E090E00E94DA0D89EE91E09A
:100590000E94B30C61E070E080E090E00E94DA0D10
:1005A00087EF91E00E94B30C62E070E080E090E0A1
:1005B0000E94DA0D8AE092E00E94B30C64E070E0E1
:1005C00080E090E00E94DA0D8EED91E00E94B30C85
:1005D00080913207882329F08091190190911A01A6
:1005E00004C080910A0190910B010E94D90C82EA0B
:1005F00092E00E94B30C0E94FC1D8230910519F11B
:100600001CF4019751F0F7CF8430910509F46BC0C9
:10061000089789F70E94F61DEECF2091320780914E
:10062000190190911A0121111DC020910A013091E8
:100630000B01281739071CF5265F3F4F30930B013C
:1006400020930A0121C02091320780910A019091E4
:100650000B012223A1F02091190130911A01821778
:10066000930734F00A9690931A01809319010CC0F5
:100670002A50310930931A012093190105C00A97B5
:1006800090930B0180930A0164E070E080E090E0B9
:100690000E94DA0D8EED91E00E94B30C809132073A
:1006A000882329F08091190190911A0104C080914A
:1006B0000A0190910B010E94D90C82EA92E00E94FB
:1006C000B30C80913207882329F080911901909111
:1006D0001A0104C080910A0190910B0190930606C3
:1006E0008093050688CF80913207882359F0809146
:1006F000190190911A016AE070E00E944F2584E18F
:1007000090E03EC580910A0190910B016AE070E093
:100710000E944F2585E190E033C580910A019091B8
:100720000B0190930606809305060E94AF0C8AE0A9
:100730000E94EE0D60E070E080E090E00E94DA0D33
:100740008FE192E00E94B30CEE24EA94FE2C6AE062
:10075000D62E61E070E080E090E00E94DA0D81E347
:1007600092E00E94B30C209132078091050690918F
:100770000606222371F040910A0150910B0120914D
:10078000190130911A01240F351FA901481B590B7B
:10079000CA010E94D90C83E392E00E94B30C64E684
:1007A00070E080E090E00E94A8142091050630914E
:1007B000060680910A0190910B018217930734F08D
:1007C00081E090E0909301018093000180911901F4
:1007D00090911A012817390724F0F0920101E09254
:1007E00000014091000150910101D49EC001D59EAD
:1007F000900D1124820F931F909306068093050697
:100800000E94FC1D8430910509F4E3C7089709F0A4
:10081000A0CF0E94F61D9DCF0E94AF0C8AE00E94DF
:10082000EE0D60E070E080E090E00E94DA0D8AE377
:1008300092E00E94B30C61E070E080E090E00E94E2
:10084000DA0D80913207882321F085E492E00E943E
:10085000B30C80913207811104C082E592E00E94BE
:10086000B30CFF24F3940E94FC1D8230910501F12A
:100870001CF4019749F0F7CF8430910551F10897A6
:1008800091F70E94F61DEFCF61E070E080E090E00C
:100890000E94DA0D80913207882319F08EE592E0EC
:1008A00013C085E492E00E94B30CF0923207DBCFD4
:1008B00061E070E080E090E00E94DA0D8091320704
:1008C000882379F382E592E00E94B30C10923207FC
:1008D000CACF80913207882311F061E001C060E047
:1008E0008FE190E04DC40E94AF0C8AE00E94EE0DB3
:1008F00060E070E080E090E00E94DA0D8CE692E02B
:100900000E94B30C61E070E080E090E00E94DA0D9C
:1009100080912A010E94C60C80912A01813051F4F5
:1009200062E070E080E090E00E94DA0D8EE792E0F5
:100930000E94B30CFF24F39438E0E32E44E0D42E5D
:100940000E94FC1D82309105B9F11CF4019751F011
:10095000F7CF8430910509F457C0089789F70E94B2
:10096000F61DEECF61E070E080E090E00E94DA0DCD
:1009700080912A01813021F4D0922A0184E029C09B
:10098000883060F48E5F80932A010E94C60C62E07A
:1009900070E080E090E00E94DA0DD2CFE0922A0170
:1009A00088E00E94C60C62E070E080E090E00E9467
:1009B000DA0D87EA92E025C061E070E080E090E027
:1009C0000E94DA0D80912A01853070F08250809368
:1009D0002A010E94C60C62E070E080E090E00E9474
:1009E000DA0D81E992E00DC0F0922A0181E00E94C7
:1009F000C60C62E070E080E090E00E94DA0D8EE7C5
:100A000092E00E94B30C9CCF60912A018BE090E0B1
:100A1000B7C382E695E00E9410120E94070E109262
:100A20004C06C0904D06D0904E06E0904F06F090D8
:100A30005006C701B60120E432E44FE050E00E94C6
:100A4000CB2280911B0190911C01820F911D0C976C
:100A500090935D0580935C05C701B60120E137E204
:100A600040E050E00E94CB22CA01B901A5019401E7
:100A70000E94CB2270935B0560935A05C701B601B3
:100A8000A50194010E94CB22CA01B901A5019401DC
:100A90000E94CB2270935905609358050E94AF0CB9
:100AA0008AE00E94EE0D60E070E080E090E00E943D
:100AB000DA0D85EB92E00E94B30C61E070E080E01B
:100AC00090E00E94DA0D80915C0590915D050E9496
:100AD000D90C87EC92E00E94B30C80915A0590915A
:100AE0005B050A9724F489EC92E00E94B30C809194
:100AF0005A0590915B050E94D90C87EC92E00E9408
:100B0000B30C80915805909159050A9724F489EC0B
:100B100092E00E94B30C80915805909159050E9473
:100B2000D90C83EA92E00E94B30C63E070E080E0AD
:100B300090E00E94DA0D80911B0190911C010C97AE
:100B40000E94D90C83EA92E00E94B30C82E695E001
:100B50000E9410120E94070E10924C06C0904D0683
:100B6000D0904E06E0904F06F0905006C701B601B7
:100B700020E432E44FE050E00E94CB2280911B0140
:100B800090911C01820F911D0C9790935D058093AD
:100B90005C05C701B60120E137E240E050E00E9469
:100BA000CB22CA01B901A50194010E94CB22709306
:100BB0005B0560935A05C701B601A50194010E9427
:100BC000CB22CA01B901A50194010E94CB227093E6
:100BD00059056093580561E070E080E090E00E9464
:100BE000DA0D62E370E080E090E00E94A8140E94B9
:100BF000FC1D8230910509F469C01CF4019759F07D
:100C0000C1C08430910509F4B5C0089709F0BAC095
:100C10000E94F61DB7C080911B0190911C01883184
:100C2000910514F4019602C088E190E090931C01B4
:100C300080931B0110924C0640904D0650904E063A
:100C400060904F0670905006C301B20120E432E478
:100C50004FE050E00E94CB22E0901B01F0901C017D
:100C6000E20EF11C67019CE0C91AD108D0925D0523
:100C7000C0925C05C301B20120E137E240E050E0E0
:100C80000E94CB22CA01B901A50194010E94CB2286
:100C900070935B0560935A05C301B201A5019401ED
:100CA0000E94CB22CA01B901A50194010E94CB2266
:100CB0007093590560935805D7FE3EC02CE0E20EB4
:100CC000F11CF0925D05E0925C0536C080911B013D
:100CD00090911C011816190634F4019790931C0189
:100CE00080931B0104C010921C0110921B011092F2
:100CF0004C0660914D0670914E0680914F06909182
:100D0000500620E432E44FE050E00E94CB22809174
:100D10001B0190911C01820F911D9C012C503109E7
:100D200037FD05C030935D0520935C0505C00C962A
:100D300090935D0580935C0580915C0590915D05C5
:100D4000893191052CF0489790935D0580935C055F
:100D500063E070E080E090E00E94DA0D80911B017A
:100D600090911C010C970E94D90C83EA92E00E949A
:100D7000B30C08C060911B0183E190E00E948718CA
:100D8000F12C02C0FF24F39480915C0590915D05E5
:100D900097FF05C0489690935D0580935C05809110
:100DA0005C0590915D05893191052CF048979093F1
:100DB0005D0580935C0561E070E080E090E00E945A
:100DC000DA0D80915C0590915D050E94D90C87EC4D
:100DD00092E00E94B30C80915A0590915B050A97AE
:100DE00024F489EC92E00E94B30C80915A05909112
:100DF0005B050E94D90C87EC92E00E94B30C8091B5
:100E00005805909159050A9724F489EC92E00E94C4
:100E1000B30C80915805909159050E94D90C83EA32
:100E200092E00E94B30CF11091CED3C40E94AF0C9B
:100E30008AE00E94EE0D60E070E080E090E00E94A9
:100E4000DA0D8BEC92E00E94B30C61E070E080E080
:100E500090E00E94DA0D0E948B180E94FC1D8230E7
:100E6000910589F044F40197C1F7809116019091A2
:100E700017010A960DC08430910579F0089769F73B
:100E80000E94F61DEACF80911601909117010A97F2
:100E90009093170180931601D8CF809116019091FD
:100EA000170164E670E00E944F258EE190E068C172
:100EB0000E94AF0C8AE00E94EE0D60E070E080E0DE
:100EC00090E00E94DA0D80EE92E00E94B30C61E0A7
:100ED00070E080E090E00E94DA0D80911D0188238F
:100EE00019F080EF92E002C085EF92E00E94B30C0F
:100EF000FF24F3940E94FC1D8230910561F01CF4E4
:100F0000019749F0F7CF84309105E1F0089791F708
:100F10000E94F61DEFCF80911D018F2580931D014A
:100F200061E070E080E090E00E94DA0D80911D01A8
:100F3000882319F080EF92E002C085EF92E00E94D2
:100F4000B30CD8CF80911D01882311F061E001C05E
:100F500060E082E190E014C10E94AF0C8AE00E9440
:100F6000EE0D60E070E080E090E00E94DA0D8AEF24
:100F700092E00E94B30C61E070E080E090E00E949B
:100F8000DA0D80911801882319F08DE093E002C0FA
:100F90008AE193E00E94B30CFF24F3940E94FC1DAD
:100FA0008230910561F01CF4019749F0F7CF84304D
:100FB0009105E1F0089791F70E94F61DEFCF80911F
:100FC00018018F258093180161E070E080E090E0C7
:100FD0000E94DA0D80911801882319F085E293E0D0
:100FE00002C08AE193E00E94B30CD8CF809118012F
:100FF000882311F061E001C060E08DE190E0C0C0A5
:101000000E94AF0C8AE00E94EE0D60E070E080E08C
:1010100090E00E94DA0D81E393E00E94B30C61E05E
:1010200070E080E090E00E94DA0D80913307882321
:1010300019F080E493E002C08DE493E00E94B30CC9
:10104000FF24F3940E94FC1D8230910561F01CF492
:10105000019749F0F7CF84309105E1F0089791F7B7
:101060000E94F61DEFCF809133078F2580933307C1
:1010700061E070E080E090E00E94DA0D809133073B
:10108000882319F085E593E002C08DE493E00E9487
:10109000B30CD8CF80913307882311F061E001C0F1
:1010A00060E080E290E06CC00E94AF0C8AE00E9499
:1010B000EE0D60E070E080E090E00E94DA0D81E6E5
:1010C00093E00E94B30C61E070E080E090E00E9449
:1010D000DA0D8DE693E00E94B30C64E070E080E0EE
:1010E00090E00E94DA0D80E893E00E94B30C8091BA
:1010F0003007909131070E94D90CE0903007F090B2
:10110000310783EA91E00E94A10CC70199270E9450
:10111000B90D0E94FC1D82309105E1F01CF401978D
:1011200049F0EBCF8430910539F1089731F70E94EF
:10113000F61DE3CF80913007909131078F339105F1
:101140003CF04FE350E05093310740933007C5CF58
:1011500001960DC08091300790913107181619063D
:101160002CF01092310710923007B7CF019790936F
:10117000310780933007B1CF6091300781E290E072
:101180000E94871826C30E94AF0C8AE00E94EE0DD1
:1011900060E070E080E090E00E94DA0D8BE893E080
:1011A0000E94B30C61E070E080E090E00E94DA0DF4
:1011B0008DE993E00E94B30C63E070E080E090E082
:1011C0000E94DA0D80EB93E00E94B30C609126013F
:1011D0007091270180912801909129010E94020DB0
:1011E00020E030E048EC52E4609126017091270144
:1011F00080912801909129010E94CD240E94E02332
:101200007B010E94FC1D8230910509F445C01CF44D
:10121000019751F0F6CF8430910509F49BC00897EF
:1012200081F70E94F61DEDCF63E070E080E090E072
:101230000E94DA0D80EB93E00E94B30C20E030E0D6
:1012400048EC52E4609126017091270180912801B9
:10125000909129010E94CD246B017C0120E030E0B7
:1012600048EC52E40E94C82487FD0DC080E090E065
:10127000A8ECB2E48093260190932701A093280163
:10128000B093290143C020E030E040E85FE3C701AC
:10129000B6010E94FD2232C063E070E080E090E081
:1012A0000E94DA0D80EB93E00E94B30C20E030E066
:1012B00048EC52E460912601709127018091280149
:1012C000909129010E94CD246B017C0120E030E047
:1012D000A9010E94692318164CF010922601109261
:1012E0002701109228011092290110C020E030E05F
:1012F00040E85FE3C701B6010E94FC22609326012B
:101300007093270180932801909329014090260132
:10131000509027016090280170902901C301B2010B
:101320000E94E0237B0120E030E048EC52E4C3015E
:10133000B2010E946E23609326017093270180936F
:101340002801909329010E94020D84EA92E00E94F4
:10135000B30C57CFB7018CE090E013C10E94AF0CE3
:101360008AE00E94EE0D60E070E080E090E00E9474
:10137000DA0D87EB93E00E94B30C61E070E080E04F
:1013800090E00E94DA0D85EC93E00E94B30C63E0DC
:1013900070E080E090E00E94DA0D83ED93E00E941F
:1013A000B30C6091220170912301809124019091EE
:1013B00025010E94020D20E030E048EC52E46091EB
:1013C00022017091230180912401909125010E94B6
:1013D000CD240E94E0237B010E94FC1D82309105F8
:1013E00009F46EC01CF4019751F0F6CF84309105DA
:1013F00009F4C4C0089781F70E94F61DEDCF63E0A1
:1014000070E080E090E00E94DA0D83ED93E00E94AE
:10141000B30C20E030E048EC52E46091220170917E
:10142000230180912401909125010E94CD246B011C
:101430007C0120E030E048EC52E40E94C82487FDA3
:101440000DC080E090E0A8ECB2E48093220190937C
:101450002301A0932401B093250110C020E030E0C7
:1014600040E85FE3C701B6010E94FD2260932201BC
:1014700070932301809324019093250140902201D1
:10148000509023016090240170902501C301B201A6
:101490000E94E0237B0120E030E048EC52E4C301ED
:1014A000B2010E946E236093220170932301809306
:1014B0002401909325010E94020D83EA92E05BC013
:1014C00063E070E080E090E00E94DA0D83ED93E04D
:1014D0000E94B30C20E030E048EC52E4609122011D
:1014E0007091230180912401909125010E94CD24C7
:1014F0006B017C0120E030E0A9010E9469231816ED
:101500004CF01092220110922301109224011092AB
:10151000250110C020E030E040E85FE3C701B601DC
:101520000E94FC2260932201709323018093240186
:101530009093250140902201509023016090240156
:1015400070902501C301B2010E94E0237B0120E0DD
:1015500030E048EC52E4C301B2010E946E23609374
:1015600022017093230180932401909325010E940E
:10157000020D81EA92E00E94B30C2ECFB7018EE0FB
:1015800090E00E94E61D25C10E94AF0C8AE00E94F7
:10159000EE0D60E070E080E090E00E94DA0D8BEDEF
:1015A00093E00E94B30C61E070E080E090E00E9464
:1015B000DA0D8BEE93E00E94B30C63E070E080E004
:1015C00090E00E94DA0D80EB93E00E94B30C6091F2
:1015D0001E0170911F0180912001909121010E94B4
:1015E000020D20E030E048EC52E460911E01709161
:1015F0001F0180912001909121010E94CD240E9421
:10160000E0237B010E94FC1D8230910509F445C056
:101610001CF4019751F0F6CF8430910509F49BC07A
:10162000089781F70E94F61DEDCF63E070E080E03F
:1016300090E00E94DA0D80EB93E00E94B30C20E072
:1016400030E048EC52E460911E0170911F018091DE
:101650002001909121010E94CD246B017C0120E0AA
:1016600030E048EC52E40E94C82487FD0DC080E0C1
:1016700090E0A8ECB2E480931E0190931F01A09328
:101680002001B093210143C020E030E040E85FE357
:10169000C701B6010E94FD2232C063E070E080E025
:1016A00090E00E94DA0D80EB93E00E94B30C20E002
:1016B00030E048EC52E460911E0170911F0180916E
:1016C0002001909121010E94CD246B017C0120E03A
:1016D00030E0A9010E94692318164CF010921E01F7
:1016E00010921F01109220011092210110C020E0E1
:1016F00030E040E85FE3C701B6010E94FC2260933E
:101700001E0170931F01809320019093210140904E
:101710001E0150901F016090200170902101C301B3
:10172000B2010E94E0237B0120E030E048EC52E46B
:10173000C301B2010E946E2360931E0170931F01CA
:1017400080932001909321010E94020D84EA92E08F
:101750000E94B30C57CFB70180E190E012CF213047
:10176000A9F501C011505F8D511708F4152FE12C18
:10177000F12C8AE00E94EE0DB70180E090E00E941B
:10178000DA0D85EA92E00E94B30CB70180E090E0A8
:101790000E94DA0D85EA92E00E94B30C8FEFE81AFE
:1017A000F80A96E0E916F10421F78AE00E94EE0DAE
:1017B000612F70E080E090E00E94DA0D89EF93E005
:1017C0000E94B30C20E051C0213089F2223009F090
:1017D0004CC00E94AF0C2F8D263028F1E02EF12C4A
:1017E000EE0CFF1CC12CD12C8AE00E94EE0DB6013C
:1017F00081E090E00E94DA0DF601EE0FFF1FEE0D82
:10180000FF1D41E050E04C0F5D1FE40FF51F80818C
:1018100091810E94B30C5FEFC51AD50A86E0C81605
:10182000D10411F721C0712CE02EF12CC72CD12C42
:101830002C143D04CCF08AE00E94EE0DB60181E04C
:1018400090E00E94DA0DF701EC0DFD1DEE0FFF1F79
:1018500041E050E04C0F5D1FE40FF51F8081918146
:101860000E94B30C7394E2CF21E080912F0181118B
:101870000C94AA01A0960FB6F894DEBF0FBECDBFA0
:10188000DF91CF911F910F91FF90EF90DF90CF905C
:10189000BF90AF909F908F907F906F905F904F9090
:1018A0003F902F900895E0910706F091080601906F
:1018B000F081E02D682F87E096E009948F929F9247
:1018C000AF92BF920F931F93CF93DF93CDB7DEB745
:1018D000A1970FB6F894DEBF0FBECDBF19A242305C
:1018E00008F44AE08E010F5D1F4F842E912CA12C2D
:1018F000B12CA50194010E94CB22E62FB901CA01A7
:1019000001501109EA3014F4E05D01C0E95CD8012E
:10191000EC93232B242B252B61F7B80187E096E06D
:101920000E94DE12A1960FB6F894DEBF0FBECDBFA7
:10193000DF91CF911F910F91BF90AF909F908F90AB
:101940000895CF93DF93EC016991662329F087E036
:1019500096E00E94521DF8CFDF91CF91089583E663
:1019600094E00C94A10CCF93DF93EC0186E694E015
:101970000E94A10CBE0187E096E00E94DE1260E0AA
:1019800087E096E0DF91CF910C94521DCF93C82F42
:1019900086E694E00E94A10C6C2F70E080E090E05D
:1019A0004AE00E945E0C60E087E096E0CF910C94E4
:1019B000521DCF92DF92EF92FF926C0186E694E087
:1019C0000E94A10C0D2C000CEE08FF08F7FE0CC0C5
:1019D0008DE20E94530C66277727CB016C197D0995
:1019E0008E099F094AE003C04AE0C701B6010E9480
:1019F0005E0C60E087E096E0FF90EF90DF90CF9084
:101A00000C94521D8F929F92AF92BF92CF92DF9211
:101A1000EF92FF926B017C0186E694E00E94A10C9C
:101A2000A7019601C701B6010E943A25882319F043
:101A300069E674E01AC046015701E894B7F82FEF41
:101A40003FEF4FE75FE7C501B4010E943A258111DE
:101A500011C02FEF3FEF4FE75FE7C501B4010E94D0
:101A6000692318163CF46DE674E087E096E00E9466
:101A7000DE1272C02FEF3FEF4FE75FE4C701B60100
:101A80000E94C82418161CF461E774E0EECF2FEF13
:101A90003FEF4FE75FECC701B6010E94692387FD66
:101AA000F3CF20E030E0A901C701B6010E9469230D
:101AB00087FF07C08DE20E94530CF7FAF094F7F805
:101AC000F0942AE037ED43EA5BE3C701B6010E94D8
:101AD000FD224B015C010E94E7236B017C010E9407
:101AE00016249B01AC01C501B4010E94FC224B01EC
:101AF0005C014AE0C701B6010E945E0C8EE20E94C2
:101B0000530C20E030E040E251E4C501B4010E94F2
:101B1000CD244B015C010E94E7236B01E12CF12CE9
:101B20004AE0C701B6010E945E0CC701B6010E94DF
:101B300016249B01AC01C501B4010E94FC2220E0E7
:101B400030E040E251E40E94CD240E94E72380E08F
:101B500090E04AE00E945E0C60E087E096E0FF9033
:101B6000EF90DF90CF90BF90AF909F908F900C94AC
:101B7000521DCF93DF93EC01E0910706F091080628
:101B80000190F081E02D8F3F910510F4682F0DC07A
:101B90006FEF87E096E00995E0910706F09108065F
:101BA0006C2F6F5F0190F081E02D87E096E0DF9170
:101BB000CF9109940F931F93CF93DF938C01EB0187
:101BC00085E794E00E94A10CC8010E94B90DCE01E6
:101BD000DF91CF911F910F910C94B90DCF93DF93AB
:101BE0001F92CDB7DEB7682F88E794E069830E9423
:101BF000A10CE0910706F09108060190F081E02D1C
:101C0000698187E096E00F90DF91CF910994EF9280
:101C1000FF920F931F93CF93DF934091B80650919B
:101C2000B9066091BA067091BB064F5F5F4F6F4F68
:101C30007F4F4093B8065093B9066093BA067093ED
:101C4000BB06843209F4A4C2E091B206853234F4B2
:101C50008A3071F08D3009F0A9C20AC08A3241F091
:101C60008C3209F0A3C290919F06982790939F060B
:101C7000082FEF3008F074C1F0E0EF55F94F1082F3
:101C80008091A006882309F46DC12091A1063FEB45
:101C9000320F822F022E000C990B363010F4C797AA
:101CA00007C02156263018F48755910901C0C09706
:101CB000282F2295207F3091A2064FEB430F832FD0
:101CC000032E000C990B463010F4C79707C031560D
:101CD000363018F48755910901C0C097820F909152
:101CE0009F0689132AC18091C4069091C506A091D0
:101CF000C606B091C7060196A11DB11D8093C4060A
:101D00009093C506A093C606B093C7068091B3060C
:101D1000882399F08091BC069091BD06A091BE06E3
:101D2000B091BF060196A11DB11D8093BC06909392
:101D3000BD06A093BE06B093BF061091B006112356
:101D400009F46BC0113009F0D2C080914306909124
:101D50004406A0914506B091460680933F069093B5
:101D60004006A0934106B09342060E94E21460939D
:101D70004706709348068093490690934A0610934D
:101D80003E0610933D068091510690915206A09117
:101D90005306B091540680934D0690934E06A0933F
:101DA0004F06B09350060E94E2146093550670935C
:101DB0005606809357069093580610934C0610933E
:101DC0004B068091B306882309F491C087E0EBE2CB
:101DD000F6E0ADE1B6E001900D928A95E1F787E07B
:101DE000E2E3F6E0A4E2B6E001900D928A95E1F715
:101DF0000E94E2146093390670933A0680933B0682
:101E000090933C0610931C0610931B0689E596E000
:101E10000E948D1787E696E068C0809151069091E8
:101E20005206A0915306B091540680934D069093AC
:101E30004E06A0934F06B09350060E94E2146093A2
:101E4000550670935606809357069093580611E0F6
:101E500010934C0610934B068091B306882321F112
:101E600087E0EBE2F6E0ADE1B6E001900D928A95F5
:101E7000E1F787E0E2E3F6E0A4E2B6E001900D923C
:101E80008A95E1F70E94E2146093390670933A064E
:101E900080933B0690933C0610931C0610931B0600
:101EA00085E796E00E948D1780918D0690918E06B1
:101EB000A0918F06B09190068093890690938A0630
:101EC000A0938B06B0938C060E94E2146093850663
:101ED00070938606809387069093880681E08093AE
:101EE00084068093830681E996E00E948D17C09155
:101EF000B606D091B70611E0209709F43AC1E091F7
:101F0000B606F091B70666A177A18EA19FA10E94A7
:101F10008225892B09F02DC1BE01CE0140960E9479
:101F20008B250E94E21468A379A38AA39BA31DA317
:101F30001CA30AA4DBA5C02DDFCF8091C006909121
:101F4000C106A091C206B091C3060196A11DB11DA4
:101F50008093C0069093C106A093C206B093C306B7
:101F600090E008C19091B106911142C06BE774E016
:101F700081EA96E00E948225892B41F061E874E0B5
:101F800081EA96E00E948225892B11F481E014C039
:101F900067E874E081EA96E00E948225892B41F08F
:101FA0006DE874E081EA96E00E948225892B19F49D
:101FB0001092B00603C082E08093B0068091B40610
:101FC0009091B5069093B7068093B606C091B60679
:101FD000D091B706209721F2EEA0FFA061EA76E04B
:101FE000C7010E94822597FFF7C08AA59BA5EACF6B
:101FF000E091B006E23009F491C08091A1068823F7
:1020000009F48CC020E2E29FF0011124E92B319702
:10201000E932F10508F082C0EC59FF4F0C946325BA
:1020200081EA96E00E942C18609351067093520644
:10203000809353069093540671C091E0813409F067
:1020400043C043C06BE276E009C091E0833509F0FC
:1020500090E09093310662C062E376E081EA96E018
:102060000E94A4175BC091E0873509F090E090933F
:10207000380654C081EA96E00E942C1860936306EB
:1020800070936406809365069093660647C081EA64
:1020900096E00E942C1860937106709372068093EC
:1020A0007306909374063AC081EA96E00E94662215
:1020B00060934306709344068093450690934606CA
:1020C0002DC091E081330CF490E09093B30626C0CC
:1020D00081EA96E00E94662260938D0670938E06D8
:1020E00080938F069093900619C081EA96E00E9433
:1020F0002C1860939B0670939C0680939D0690938A
:102100009E060CC081EA96E00E942C1860937F0620
:10211000709380068093810690938206C091B606E4
:10212000D091B706209709F41BCFE091B606F09145
:10213000B70666A177A18EA19FA10E948225892B57
:1021400009F00ECF28A539A58091B10690E082173D
:1021500093070CF405CF2817390739F440E150E014
:1021600061EA76E0CE010E9492250AA4DBA5C02D8B
:10217000D9CF91E08091B1068F5F8093B106109224
:10218000B20681E00A3209F080E08093A00632C0F6
:102190001092B2061092B10610929F0682E08093D0
:1021A000B0061092A0061092B30614C0EE3040F4B0
:1021B00091E09E0F9093B206F0E0EF55F94F8083C7
:1021C0009091A006911106C020919F0682278093CE
:1021D0009F0610C090E00EC061EA76E0C7010E9441
:1021E0008225181619060CF0BBCE1092B706109275
:1021F000B606B6CE892FDF91CF911F910F91FF9038
:10220000EF900895FC0180916105811103C08FEF6B
:102210009FEF08959FB7F89482E08093E9002091A2
:10222000F20030E01216130614F421E030E021151C
:10223000310559F0289884E6809360058091F1007B
:1022400080838091F200882319F09FBFC90108950F
:102250008BE68093E800F9CF2FB7F89483E0809362
:10226000E9009091E800892F807295FF04C0909159
:10227000F20080E4891B2FBF08958F929F92AF9246
:10228000BF92CF92DF92EF92FF920F931F93CF9363
:10229000DF935C016B017A0180910901882309F4C5
:1022A0005BC080916105882309F456C080915F0569
:1022B00080FF05C08091E00082608093E000E7012C
:1022C00010E00AEF83E0882E9AE3992E2097D9F147
:1022D0000E942C1181110AC0015009F43DC061E037
:1022E00070E080E090E00E94A814F0CF282F30E04A
:1022F000C217D3070CF48C2F4FB7F8948092E900E3
:102300009091E80095FF1DC0282F30E0C21BD30B31
:10231000F601982F915020F081918093F100FACF2F
:10232000C20ED31E112319F09092E80009C08091CB
:10233000E80085FD06C09092E80011E0209709F0C2
:1023400010E04FBFC3CF1111C3CF5D9884E68093D7
:102350005E051E141F0444F081E090E0F5019383B4
:10236000828380E090E001C0C701DF91CF911F918F
:102370000F91FF90EF90DF90CF90BF90AF909F9024
:102380008F9008958091CC0681110DC082E08093DA
:10239000C80684E08093C9061092CB061092CA0644
:1023A00081E08093CC0688EC96E00895CF92DF928E
:1023B000EF92FF920F931F93CF93DF936C017A01FB
:1023C0008B01C0E0D0E0CE15DF0589F0D8016D911A
:1023D0008D01D601ED91FC910190F081E02DC601B7
:1023E0000995892B11F47E0102C02196ECCFC7011B
:1023F000DF91CF911F910F91FF90EF90DF90CF90E1
:102400000895FC01538D448D252F30E0842F90E0FA
:10241000821B930B541710F0CF96089501970895DF
:10242000FC01918D828D981761F0828DDF01A80FDC
:10243000B11D5D968C91928D9F5F9F73928F90E0FE
:1024400008958FEF9FEF0895FC01918D828D98176D
:1024500031F0828DE80FF11D858D90E008958FEFAA
:102460009FEF0895FC01918D228D892F90E0805C73
:102470009F4F821B91098F739927089582E695E0FB
:102480000E94321221E0892B09F420E0822F089566
:10249000FC01848DDF01A80FB11DA35ABF4F2C9101
:1024A000848D90E001968F739927848FA689B789D0
:1024B0002C93A089B1898C9180648C93938D848DA9
:1024C000981306C00288F389E02D80818F7D808378
:1024D0000895EF92FF920F931F93CF93DF93EC0138
:1024E00081E0888F9B8D8C8D981305C0E889F989D0
:1024F000808185FD24C0F62E0B8D10E00F5F1F4FED
:102500000F731127E02E8C8DE8120CC00FB607FC5C
:10251000FACFE889F989808185FFF5CFCE010E9445
:102520004812F1CF8B8DFE01E80FF11DE35AFF4FEA
:10253000F0820B8FEA89FB898081806207C0EE8977
:10254000FF896083E889F98980818064808381E0E4
:1025500090E0DF91CF911F910F91FF90EF90089540
:10256000CF93DF93EC01888D8823C9F0EA89FB893A
:10257000808185FD05C0A889B9898C9186FD0FC031
:102580000FB607FCF5CF808185FFF2CFA889B98906
:102590008C9185FFEDCFCE010E944812E7CFDF91ED
:1025A000CF91089580E090E0892B29F00E943E129F
:1025B00081110C94000008950E947D25611571051C
:1025C00079F0FB0101900020E9F73197AF01461B3C
:1025D000570BDC01ED91FC910280F381E02D099411
:1025E00080E090E008951F920F920FB60F92112491
:1025F0002F933F934F935F936F937F938F939F930B
:10260000AF93BF93EF93FF9382E695E00E94481249
:10261000FF91EF91BF91AF919F918F917F916F91BA
:102620005F914F913F912F910F900FBE0F901F9090
:1026300018951F920F920FB60F9211242F938F931C
:102640009F93EF93FF93E0917205F0917305808162
:10265000E0917805F091790582FD12C0908180911A
:102660007B058F5F8F7320917C05821751F0E0917D
:102670007B05F0E0EE59FA4F958F80937B0501C002
:102680008081FF91EF919F918F912F910F900FBEBD
:102690000F901F90189590E0FC013197EF30F105F5
:1026A000B0F5E357FF4F0C946325809180008F773E
:1026B00003C0809180008F7D809380000895809179
:1026C0008000877FF9CF84B58F7702C084B58F7D76
:1026D00084BD0895809190008F7707C0809190000D
:1026E0008F7D03C080919000877F80939000089534
:1026F0008091C0008F7703C08091C0008F7D809350
:10270000C00008958091C200877F8093C200089521
:102710003FB7F8948091CD079091CE07A091CF0755
:10272000B091D00726B5A89B05C02F3F19F00196A0
:10273000A11DB11D3FBFBA2FA92F982F8827820F47
:10274000911DA11DB11DBC01CD0142E0660F771F97
:10275000881F991F4A95D1F70895089585ED8093B4
:10276000BC008091BC0084FDFCCF1092A2070895AC
:1027700040917C07262F30E0240F311D2132310596
:10278000DCF42091A2072430C9F4FC0180E090E041
:10279000861758F430917C072191DC01A65AB84F76
:1027A000A30FB11D2C930196F3CF80917C07680F86
:1027B00060937C0780E0089581E0089582E00895A9
:1027C00008958FEF9FEF08958FEF9FEF0895809109
:1027D000590790E09195819591090895CF93DF93E2
:1027E00000D0CDB7DEB7CB01642F49835A830E9456
:1027F000B8134981842F5A81952F0F900F90DF9144
:10280000CF910895CF93DF931F92CDB7DEB7698341
:1028100061E0CE0101960E94B81381E090E00F9034
:10282000DF91CF910895CF93DF93282F30E0F90106
:10283000E056FE4F8491F901EF57FE4FD491F90114
:10284000EE59FE4FC491CC2391F081110E944B139D
:10285000EC2FF0E0EE0FFF1FEC5AFE4FA591B49164
:10286000EC91ED2381E090E021F480E002C080E073
:1028700090E0DF91CF9108951F93CF93DF93282F9E
:1028800030E0F901E056FE4F8491F901EF57FE4F19
:10289000D491F901EE59FE4FC491CC23C9F0162F03
:1028A00081110E944B13EC2FF0E0EE0FFF1FEA5B4B
:1028B000FE4FA591B4918FB7F894111105C09C916A
:1028C000ED2FE095E92302C0EC91ED2BEC938FBF47
:1028D000DF91CF911F910895CF93DF9390E0FC019A
:1028E000EF57FE4F2491FC01EE59FE4F849188234F
:1028F00061F190E0880F991FFC01E85CFE4FC591E3
:10290000D491FC01EA5BFE4FA591B491611109C01D
:102910009FB7F8948881209582238883EC912E2399
:102920000BC0623061F49FB7F8943881822F809594
:1029300083238883EC912E2B2C939FBF06C08FB7E7
:10294000F894E8812E2B28838FBFDF91CF910895D3
:102950008F929F92AF92BF92CF92DF92EF92FF92AF
:102960006B017C010E9488134B015C01C114D104EE
:10297000E104F104F1F00E948813DC01CB01881915
:102980009909AA09BB09883E9340A105B10570F3D6
:1029900021E0C21AD108E108F10888EE880E83E030
:1029A000981EA11CB11CC114D104E104F10419F753
:1029B000DDCFFF90EF90DF90CF90BF90AF909F90D2
:1029C0008F9008952FB7F8946091C9077091CA0746
:1029D0008091CB079091CC072FBF08951F920F9243
:1029E0000FB60F9211242F933F938F939F93AF9322
:1029F000BF938091C9079091CA07A091CB07B0916E
:102A0000CC073091C80723E0230F2D3720F401961F
:102A1000A11DB11D05C026E8230F0296A11DB11D01
:102A20002093C8078093C9079093CA07A093CB0748
:102A3000B093CC078091CD079091CE07A091CF079E
:102A4000B091D0070196A11DB11D8093CD07909341
:102A5000CE07A093CF07B093D007BF91AF919F91BE
:102A60008F913F912F910F900FBE0F901F9018954F
:102A70001F920F920FB60F9211242F933F934F93F3
:102A80005F936F937F938F939F93AF93BF93EF93D6
:102A9000FF93E0911401F09115010995FF91EF91D9
:102AA000BF91AF919F918F917F916F915F914F9166
:102AB0003F912F910F900FBE0F901F9018951F926E
:102AC0000F920FB60F9211242F933F934F935F9362
:102AD0006F937F938F939F93AF93BF93EF93FF93E6
:102AE000E0911201F09113010995FF91EF91BF91CF
:102AF000AF919F918F917F916F915F914F913F9196
:102B00002F910F900FBE0F901F9018951F920F924C
:102B10000FB60F9211242F933F934F935F936F93B0
:102B20007F938F939F93AF93BF93EF93FF93E09126
:102B30001001F09111010995FF91EF91BF91AF91B3
:102B40009F918F917F916F915F914F913F912F91C5
:102B50000F900FBE0F901F9018951F920F920FB6F7
:102B60000F9211242F933F934F935F936F937F9313
:102B70008F939F93AF93BF93EF93FF93E0910E01D9
:102B8000F0910F010995FF91EF91BF91AF919F9146
:102B90008F917F916F915F914F913F912F910F9006
:102BA0000FBE0F901F9018951F920F920FB60F92A5
:102BB00011242F933F934F935F936F937F938F9342
:102BC0009F93AF93BF93EF93FF93E0910C01F0912C
:102BD0000D010995FF91EF91BF91AF919F918F9159
:102BE0007F916F915F914F913F912F910F900FBE09
:102BF0000F901F9018951F920F920FB60F921124ED
:102C00002F933F934F935F936F937F938F939F93F4
:102C1000AF93BF93EF93FF938091B900887F803685
:102C200009F49CC068F5883209F45BC090F48031E7
:102C300009F454C038F4882309F4F6C0883009F444
:102C40004DC0F6C0883109F44CC0803209F45DC033
:102C5000EFC0803409F468C048F4803309F455C0EB
:102C6000883309F0E5C08093A107D8C0803509F406
:102C70004FC0883509F45DC0883409F0D9C0D6C08A
:102C8000883909F4C7C0A8F4883709F467C038F454
:102C9000883609F463C0803709F460C0C9C0883839
:102CA00009F4B8C0803909F45FC0803809F0C0C0A9
:102CB0005BC0803B09F486C038F4803A09F466C0F2
:102CC000883A09F47FC0B4C0803C09F4A7C0883CAE
:102CD00009F4A4C0883B09F48AC0AAC08091C70740
:102CE00010C09091C6078091C507981770F5E091C4
:102CF000C60781E08E0F8093C607F0E0EB55F84FD2
:102D000080818093BB0085EC86C08093A1078EC034
:102D1000E091C60781E08E0F8093C6078091BB00CB
:102D2000F0E0EB55F84F80839091C6078091C5077E
:102D30006EC0E091C60781E08E0F8093C607809138
:102D4000BB00F0E0EB55F84F80838091A407811120
:102D50006DC081E08093A30784EA61C083E0809323
:102D6000A2071092A007CFCF8091A007803208F071
:102D700051C0E091A00781E08E0F8093A007809161
:102D8000BB00F0E0E058F84F8083BDCF85EC809326
:102D9000BC001092A2078091A007803230F4E0912D
:102DA000A007F0E0E058F84F10826091A00770E0B3
:102DB000E0917E07F0917F0780E897E009951092F7
:102DC000A00736C084E08093A20710927D0710927E
:102DD0007C07E0917A07F0917B07099580917C0749
:102DE000811105C081E080937C0710925A07E09121
:102DF0007D0781E08E0F80937D07F0E0E65AF84F63
:102E000080818093BB0090917D0780917C0798170B
:102E100008F479CF85E88093BC000AC085EC8093E4
:102E2000BC001092A20704C01092A1070E94AE132A
:102E3000FF91EF91BF91AF919F918F917F916F9192
:102E40005F914F913F912F910F900FBE0F901F9068
:102E500018951F920F920FB60F9211242F933F9344
:102E60008F939F93EF93FF938091580787FF05C03F
:102E7000109285001092840005C08091580787FD4C
:102E800080915807809158078F5F809358078091F1
:102E9000580787FF20C0809158078C30E4F42091B8
:102EA00084003091850080915807082E000C990B02
:102EB000FC01EE0FFF1F8E0F9F1FFC01EC5CF84F13
:102EC00081819281820F931F909389008093880063
:102ED0008091580717C080918400909185000496D6
:102EE00080349C4918F480E49CE905C080918400FA
:102EF00090918500049690938900809388008FEFCD
:102F000080935807FF91EF919F918F913F912F915F
:102F10000F900FBE0F901F901895CF93DF93EC0189
:102F20008A859B85AC85BD858E839F83A887B9875D
:102F30000E94E2146A837B838C839D8381E0898372
:102F40008883DF91CF9108952F923F924F925F92A5
:102F50006F927F928F929F92AF92BF92CF92DF92A9
:102F6000EF92FF920F931F93CF93DF93D82FC92F28
:102F70008B010E94662224E630E040E050E00E948F
:102F8000CB2249015A019B01AC0160E876E988E94E
:102F900090E00E943F256B017C01F80191828082C4
:102FA000ED2FFC2F2191822F022E000C990BC09740
:102FB0000A97C0F32E3239F51F0180E8882E86E982
:102FC000982E88E9A82EB12C9AE0492E512C612C1C
:102FD000712CF101C1911F010C2E000CDD0BE0974B
:102FE000CA30D10580F4C501B401A30192010E9449
:102FF000CB2249015A01DE010E94C322C60ED71E10
:10300000E81EF91EE6CFA5E0B0E0A70196010E94F8
:10301000B8226F5F7F4F8F4F9F4F23E030E040E03B
:1030200050E00E94CB22F8012283338344835583EE
:103030001682DF91CF911F910F91FF90EF90DF905B
:10304000CF90BF90AF909F908F907F906F905F9048
:103050004F903F902F900895FF920F931F93CF931F
:10306000DF93EC01FF24F39488818D3211F0F12C71
:1030700001C02196CE010E9466229B01AC01A4E60C
:10308000B0E00E94B822FE014991242F042E000CCA
:10309000330B205331092A303105A8F34E3241F564
:1030A0002181022E000C330B205331092A303105C7
:1030B000F8F44AE0429F8001439F100D1124012E35
:1030C000000C220B330B600F711F821F931F0281B4
:1030D000002E000C110B005311090A30110540F4A9
:1030E000012E000C220B330B600F711F821F931FE8
:1030F000FF2039F090958095709561957F4F8F4FA7
:103100009F4FDF91CF911F910F91FF9008950C94E5
:10311000AA220C94A22280911D0160911601709147
:10312000170181110EC0072E000C880B990B0E940D
:1031300018242BE734E14EEC5FE30E94CD240E947B
:10314000E023CB016AE070E00E944F2570930406F3
:103150006093030680910306909104066AE070E094
:103160000E944F257093020660930106909300061B
:103170008093FF05860F971F97FF03C087E495E0B4
:1031800008C06A3071051CF484EA92E002C085EA46
:1031900092E00E94B30C809101069091020697FF85
:1031A00007C091958195910990930206809301063D
:1031B00080910106909102060E94D90C8AE495E064
:1031C0000E94B30C8091FF059091000697FF07C005
:1031D000919581959109909300068093FF058091C8
:1031E000FF05909100060E94D90C80911D01882353
:1031F00019F080EF92E002C085EF92E00C94B30CDE
:103200000F931F93CF938C0101960E948918C82FAA
:10321000C8010E9489182C2F30E0A901582BCA013F
:10322000CF911F910F910895CF93DF931F92CDB748
:10323000DEB76983DC01ED91FC910280F381E02D22
:1032400041E050E0BE016F5F7F4F09950F90DF9125
:10325000CF91089583E08093E9008091F200882364
:1032600019F08AE38093E8000895FC018485958530
:1032700097FD0BC09FB7F89482E08093E90080919E
:10328000F2009FBF90E0019608959FB7F89482E006
:103290008093E9008091F2009FBF90E008954091F3
:1032A000D5075091D6072091D3073091D407421704
:1032B0005307B4F49091E8009570E1F39091E80021
:1032C00092FD19C08093F1008091D5079091D607A7
:1032D00001968F739927892B19F48EEF8093E8005C
:1032E0008091D5079091D60701969093D607809349
:1032F000D50781E0089580E00895CF92DF92EF92A4
:10330000FF920F931F93CF93DF931F92CDB7DEB73A
:10331000182F062FE42E862F880F8E5F99830E9428
:103320004F1983E00E944F19F12EC12E9981D92E99
:103330008C2D8F19801798F4F601E7FE02C0849156
:1033400001C080810E944F19182F80E00E944F1900
:103350008123FFEFCF1ADF0A8111EACF01C081E09C
:103360000F90DF91CF911F910F91FF90EF90DF9021
:10337000CF900895DF92EF92FF920F931F93CF9318
:10338000DF93D82E8A017B01E40EF51EEB01CE15EA
:10339000DF0571F0D7FE03C0FE01849101C0888172
:1033A0000E944F1921968111F2CF8FEF9FEF01C03C
:1033B000C801DF91CF911F910F91FF90EF90DF90A7
:1033C0000895615030F02091F100FC0120830196B6
:1033D000F8CF289884E68093600508950E942C1108
:1033E00090E008950F931F93CF93DF931F92CDB773
:1033F000DEB78C01FC018485958597FF0EC0CE0158
:1034000001960E940211019719F4298130E002C04F
:103410002FEF3FEFF80135872487F80184859585E4
:103420000F90DF91CF911F910F910895CF93DF936C
:103430001F92CDB7DEB7FC018485958597FD05C049
:103440002FEF3FEF358724870BC0CE0101960E94F6
:103450000211019719F4898190E002C08FEF9FEF6C
:103460000F90DF91CF9108950F931F93CF93DF9328
:103470001F92CDB7DEB782E0898342E450E06FEB64
:1034800071E080E80E94BA190E94C211DC01129614
:103490000D911C9113970115110569F0D801ED915B
:1034A000FC910280F381E02DBE016F5F7F4FC80168
:1034B000099597FF07C089810F90DF91CF911F91E8
:1034C0000F910895F80100851185E5CF1F920F92A5
:1034D0000FB60F9211248F939F938091E1009091EA
:1034E000E100937F9093E10083FF0FC01092E90009
:1034F00091E09093EB001092EC0092E39093ED003A
:103500001092610598E09093F00082FF20C093E054
:103510009093E9009091F200992319F09AE3909327
:10352000E80090915E05992339F090915E059150E5
:1035300090935E05992389F190916005992339F064
:1035400090916005915090936005992341F184FF1B
:1035500010C08091E2008E7E81608093E2008091B5
:10356000E1008F7E8093E10080915F058E7E806117
:1035700011C080FF16C08091E2008E7E8061809332
:10358000E2008091E1008E7E8093E10080915F05F2
:103590008E7E816080935F0504C05D9ACDCF289AAE
:1035A000D6CF9F918F910F900FBE0F901F901895BF
:1035B0001F920F920FB60F921124CF92DF92EF92CB
:1035C000FF920F931F932F933F934F935F936F93AC
:1035D0007F938F939F93AF93BF93EF93FF93CF937B
:1035E000DF93CDB7DEB76C97DEBFCDBF1092E90099
:1035F0008091E80083FFEDC168E0CE0145960E940E
:10360000E11982EF8093E8008D8987FF05C09091D2
:10361000E80090FFFCCF03C09EEF9093E800982F46
:10362000907609F0C6C09E892F89188D91110CC023
:10363000803829F48091D2078093F10002C0109263
:10364000F1001092F10048C1422F50E0512B91300F
:1036500051F4811141C14130510509F03DC18091C2
:10366000D2078D7F0BC0933061F4811135C1413099
:10367000510509F031C18091D20782608093D20751
:103680002BC1953041F48091E80080FFFCCF206889
:103690002093E30021C1963009F05FC0EB8CFC8CD5
:1036A0001092E9001092D6071092D507123091F5CA
:1036B0001092D4071092D3070E94341A99E0BE01E9
:1036C0006F5F7F4FDB01E92F1D92EA95E9F7998340
:1036D0001A8391E09E8390EA98879AEF99872091C8
:1036E000D5073091D607275F3F4F3C832B838D83CF
:1036F0001092E9001092D6071092D507F092D407E5
:10370000E092D30749E050E080E00E94BA190E949D
:10371000341AE2C0F092D407E092D3070E94C2119B
:10372000DC011296ED90FC901397E114F10409F47A
:10373000C0C0D701ED91FC910480F581E02DBE0160
:103740006B5E7F4FC7010995009719F00CF0C4C05C
:10375000C7C0F701E084F184E8CF973009F4C0C016
:10376000983021F481E08093F100B6C0993009F0DF
:10377000B3C0837009F0B4C0EDE9F1E081E021E06D
:1037800036E39081992361F08093E9002093EB0068
:1037900091919093EC003093ED008F5F873089F723
:1037A0008EE78093EA001092EA008F89809361058A
:1037B00093C08B8D9C8D1092E9001092D6071092C9
:1037C000D5079093D4078093D307898D811156C074
:1037D0008E899D89913A59F4813209F081C047E080
:1037E00050E062E071E080E00E94BA1975C0913249
:1037F00009F076C0833289F4888D90E0982F88276D
:103800002F89822BA0E0B0E080932B0190932C01B4
:10381000A0932D01B0932E015FC0803269F4809196
:10382000E80082FFFCCF67E082E091E00E94E119AE
:103830008BEF8093E80006C0823209F04DC08F897B
:10384000809309018091D107882319F0EEEFFAE007
:1038500002C0E0E0F8E08091020190910301A091A4
:103860000401B0910501803B9440A105B10509F028
:103870007BC08091090180FF93C076C00E94C21175
:10388000DC0112960D911C9113970115110541F160
:10389000D801ED91FC910190F081E02DBE016B5EAD
:1038A0007F4FC8010995811117C0F8010085118566
:1038B000ECCF113009F44EC0133091F48F89882376
:1038C00009F445C0823081F440E860E183E292E08F
:1038D0000E947D19882321F08EEF8093E80079C043
:1038E00081E28093EB0075C0813029F440E86BE001
:1038F00087E192E0EDCF833099F70E94C211DC019D
:103900001296ED90FC9013978E010F5F1F4F680188
:10391000E114F10479F0D701ED91FC910680F78173
:10392000E02DB801C7010995080F111DF701E084CA
:10393000F184EECFD8011C92F60101900020E9F746
:103940003197BF016C197D0940E0C601C1CF61E02C
:1039500072E002C065E072E06115710509F2FB01D9
:10396000449150E080E840CF0FB6F894A89580913C
:103970006000886180936000109260000FBEA8957F
:10398000EE3F2AE0F20739F08091FE0A9091FF0A9B
:1039900091838083A1CF1092FF0A1092FE0A9CCFE0
:1039A000EE3F8AE0F80731F0808191819093FF0A21
:1039B0008093FE0A87E797E7918380839BE088E105
:1039C0000FB6F894A895809360000FBE90936000A6
:1039D00083CF6C960FB6F894DEBF0FBECDBFDF91DC
:1039E000CF91FF91EF91BF91AF919F918F917F9177
:1039F0006F915F914F913F912F911F910F91FF9088
:103A0000EF90DF90CF900F900FBE0F901F90189502
:103A100008950895089580E090E00895FF920F932F
:103A20001F93CF93DF93EC0161E089890E943C14DE
:103A300061E089890E943C148A890E941314892BB1
:103A4000D9F360E089890E943C1460E089890E9472
:103A50003C1460E089890E943C1498E0F92E00E053
:103A600010E0000F111F61E08F850E943C148A89CD
:103A70000E941314892B09F0016060E08F850E9479
:103A80003C14FA94F110EDCF61E089890E943C1456
:103A9000C801DF91CF911F910F91FF900895049776
:103AA0000C940E1DCF92DF92EF92FF920F931F9313
:103AB000CF93DF93EC01E62E60E089890E943C14ED
:103AC00060E089890E943C1460E089890E943C146E
:103AD000DF84C88807E010E0F12CB701002E02C097
:103AE000759567950A94E2F7617077278C2D0E948F
:103AF0003C1461E08D2D0E943C1460E08D2D0E94ED
:103B00003C140150110948F761E089890E943C1476
:103B100081E090E0DF91CF911F910F91FF90EF90A6
:103B2000DF90CF900895CF93DF93EC0161E08F8514
:103B30000E946C1461E088890E946C1461E089899C
:103B40000E946C1461E089890E943C1460E08F85BA
:103B50000E943C1460E088890E943C148A89882372
:103B600029F060E0DF91CF910C946C14DF91CF913C
:103B7000089582E00E941314019779F481E0809304
:103B8000D7078091D9079091DA07A091DB07B09110
:103B9000DC070197A109B1090DC01092D7078091E8
:103BA000D9079091DA07A091DB07B091DC07019665
:103BB000A11DB11D8093D9079093DA07A093DB076D
:103BC000B093DC0781E08093DD0708951F93CF93C6
:103BD000DF93EC01162F672F0E948718612FCE010B
:103BE0000196DF91CF911F910C94871810922F01AD
:103BF0001092DE070C944501CF938091DD07882356
:103C000091F18091D9079091DA07A091DB07B091EB
:103C1000DC07181619061A061B0664F41092D90759
:103C20001092DA071092DB071092DC071092DD0782
:103C300081E065C08091D9079091DA07A091DB07F8
:103C4000B091DC07B7FF0CC01092D9071092DA07C9
:103C50001092DB071092DC071092DD0782E04FC064
:103C60001092DD074BC084E00E941314C091D80766
:103C7000892BE9F4CF5FC093D80768EC70E080E04F
:103C800090E00E94A814C830C0F11092D8070E949A
:103C9000AF0C84E10E94EE0D60E070E080E090E007
:103CA0000E94DA0D82E595E00E94B30C1DC0CC2382
:103CB00029F11092D8070E94AF0C84E10E94EE0D0A
:103CC00060E070E080E090E00E94DA0D8CE495E026
:103CD0000E94B30C64EF71E080E090E00E94A814B1
:103CE0000E94AF0C84E00BC084E00E941314892B67
:103CF000D9F30E94AF0C88E002C002C080E190E0DE
:103D0000CF910895E4EDF6E01382128288EE93E0FD
:103D1000A0E0B0E084839583A683B78322E531E0F9
:103D2000318320832FEF3FEF35872487E2E6F5E0EC
:103D30001382128284839583A683B78324E631E0BD
:103D4000318320832DEC30E0358724872CEC30E064
:103D50003787268728EC30E0318B208B29EC30E048
:103D6000338B228B2AEC30E0358B248B2EEC30E029
:103D7000378B268B118E128E138E148EE4E2F7E0B1
:103D80001382128284839583A683B78386E791E0AA
:103D900091838083EBE1F6E010821182138212821C
:103DA0001482158216821782108612861186138657
:103DB0001486158616861786118A108A128A138A27
:103DC000148A158A168A108E178A118E128E138EF7
:103DD000148E158E12A213A214A215A216A217A257
:103DE00010AA11AA12AA13AA14AA15AA1092590667
:103DF00010925A0610925F061092600610926106A9
:103E000010926206109267061092680610926D0674
:103E100010926E0610926F06109270061092750640
:103E20001092760610927B0610927C0610927D0608
:103E300010927E06109283061092840610928906D4
:103E400010928A0610928B0610928C0610929106A0
:103E50001092920610929706109298061092990668
:103E600010929A0610929F061092A00682E080930C
:103E7000B0061092B1061092B2061092B3061092DC
:103E8000B5061092B4061092B7061092B6061092BC
:103E9000B8061092B9061092BA061092BB0610929C
:103EA000BC061092BD061092BE061092BF0610927C
:103EB000C0061092C1061092C2061092C30610925C
:103EC000C4061092C5061092C6061092C70610923C
:103ED000A106E7E0F6E01382128288E891E0918380
:103EE000808388E991E09583848388E0878789E0EF
:103EF000808B8AE0818B128ACF010E94931D809172
:103F00000A0190910B01909306068093050680911B
:103F10000306909104066AE070E00E944F257093BA
:103F2000020660930106909300068093FF050895B2
:103F3000789484B5826084BD84B5816084BD85B584
:103F4000826085BD85B5816085BD80916E00816090
:103F500080936E0010928100809181008260809336
:103F60008100809181008160809381008091800038
:103F700081608093800080919100826080939100A5
:103F80008091910081608093910080919000816088
:103F9000809390008091C10084608093C1008091E3
:103FA000C10082608093C1008091C10081608093D4
:103FB000C1008091C30081608093C3008091C000E4
:103FC00082608093C0008091C20081608093C200B3
:103FD00080917A00846080937A0080917A00826078
:103FE00080937A0080917A00816080937A0080913A
:103FF0007A00806880937A00109261051092D2074F
:1040000010925F058091D70081608093D70080EA8D
:104010008093D80089B5806189BD89B5826089BDEA
:1040200009B400FEFDCF61E070E080E090E00E9406
:10403000A8148091D8008F7C80618093D8008091F3
:10404000E000807F8093E0008091E1008E7E80938D
:10405000E1008DE08093E200559A209AEEEFFFE7B1
:10406000859194918B3F9C4D19F481E08093D10709
:1040700080E290E00E94891891E0811101C090E0F7
:1040800090933307E0917205F091730582E080838D
:10409000E0916E05F0916F051082E0917005F0914E
:1040A00071058FEC808310927A05E0917605F0918E
:1040B000770586E08083E0917405F0917505808135
:1040C00080618083E0917405F0917505808188603E
:1040D0008083E0917405F09175058081806880830C
:1040E000E0917405F091750580818F7D808368EB88
:1040F0007BE080E090E00E94A81487E096E00E94B8
:10410000931D80913307882341F083E994E00E9456
:10411000A10C82E090E00E94B90D0E94AF0C64E611
:1041200070E080E090E00E94A8148EE10E94EE0D05
:1041300061E070E080E090E00E94DA0D83EA92E0B6
:104140000E94B30C64E670E080E090E00E94A81446
:1041500086E994E00E94B30C62E070E080E090E0B9
:104160000E94DA0D83EA92E00E94B30C64E670E0EC
:1041700080E090E00E94A81481EA94E00E94B30CD1
:1041800063E070E080E090E00E94DA0D8AE00E9437
:10419000EE0D8DEA94E00E94B30C68E873E180E0D4
:1041A00090E00E94A8140E94AF0C64EF71E080E0E0
:1041B00090E00E94A8148EE10E94EE0D61E070E094
:1041C00080E090E00E94DA0D85E490E00E9489187A
:1041D000853409F474C08EE10E94EE0D61E070E058
:1041E00080E090E00E94DA0D81EC94E00E94B30C34
:1041F00063E070E080E090E00E94DA0D80ED94E0F2
:104200000E94B30C60ED77E080E090E00E94A8147B
:1042100066E08BE090E00E94871860E08CE090E020
:104220000E94871865E28DE090E00E94871860E0A8
:104230008EE090E00E94871869E18FE090E00E9494
:10424000871860E080E190E00E94871868E081E1D3
:1042500090E00E94871861E082E190E00E94871858
:104260006CE083E190E00E9487186FEF84E190E0BA
:104270000E94871860E085E190E00E94871861E065
:104280008DE190E00E9487186AE08EE190E00E9444
:10429000871860E08FE190E00E94871860E080E27C
:1042A00090E00E9487186EE181E290E00E948718FA
:1042B00065E485E490E00E9487180E94AF0C8EE1CF
:1042C0000E94EE0D61E070E080E090E00E94DA0D67
:1042D00082EE94E00E94B30C63E070E080E090E036
:1042E0000E94DA0D83EF94E00E94B30C68EE73E055
:1042F00080E090E00E94A81460E082E00E946C14CC
:1043000060E083E00E946C1462E084E00E946C1420
:1043100089EB9DE190930D0180930C0180916900E0
:10432000836080936900E89A8BE090E00E9489188E
:1043300080932A018CE090E00E940019BC0180E08B
:1043400090E00E94162420E030E048EC52E40E9405
:104350006E23609326017093270180932801909328
:1043600029018EE090E00E940019BC0180E090E0FD
:104370000E94162420E030E048EC52E40E946E23B4
:10438000609322017093230180932401909325016F
:1043900080E190E00E940019BC0180E090E00E9462
:1043A000162420E030E048EC52E40E946E23609333
:1043B0001E0170931F01809320019093210182E1DF
:1043C00090E00E94891891E0811101C090E09093E3
:1043D0001D0183E190E00E94891890E090931C01F8
:1043E00080931B0184E190E00E9489182AE0829F5B
:1043F000C001112490931A018093190185E190E086
:104400000E9489182AE0829FC001112490930B0119
:1044100080930A018DE190E00E94891891E081115A
:1044200001C090E0909318018EE190E00E948918FD
:1044300024E6829FC00111249093170180931601F6
:104440008FE190E00E94891891E0811101C090E015
:104450009093320780E290E00E94891891E08111E8
:1044600001C090E09093330781E290E00E948918A8
:1044700090E0909331078093300762E075E082E628
:1044800095E00E94DE1264E375E082E695E00E940A
:10449000DE1264E670E080E090E00E94A81467E31A
:1044A00075E082E695E00E94DE1264E375E082E644
:1044B00095E00E94DE1264E670E080E090E00E94E9
:1044C000A8140E9445010E94D212FBCF1F93FC0149
:1044D00099278827BC01E89411911032E9F319302B
:1044E00010F01E30C8F31B3251F01D3249F46894AD
:1044F00006C00E948D22610F711D811D911D1191B9
:1045000010531A30B0F33EF49095809570956195F4
:104510007F4F8F4F9F4F1F910895592F482F372F4F
:10452000262F660F771F881F991F660F771F881F1A
:10453000991F620F731F841F951F660F771F881FB7
:10454000991F0895F999FECF92BD81BDF89A9927D8
:1045500080B50895262FF999FECF1FBA92BD81BD6F
:1045600020BD0FB6F894FA9AF99A0FBE01960895F5
:104570000E94ED22A59F900DB49F900DA49F800DE9
:10458000911D11240895B7FF0C94B8220E94B822FF
:10459000821B930B0895A1E21A2EAA1BBB1BFD01DF
:1045A0000DC0AA1FBB1FEE1FFF1FA217B307E40712
:1045B000F50720F0A21BB30BE40BF50B661F771F6A
:1045C000881F991F1A9469F760957095809590954A
:1045D0009B01AC01BD01CF010895A29FB001B39F23
:1045E000C001A39F700D811D1124911DB29F700DFC
:1045F000811D1124911D08955058BB27AA270E94A0
:1046000014230C948E240E94802438F00E94872466
:1046100020F039F49F3F19F426F40C947D240EF415
:10462000E095E7FB0C947724E92F0E949F2458F330
:10463000BA17620773078407950720F079F4A6F587
:104640000C94C1240EF4E0950B2EBA2FA02D0B0173
:10465000B90190010C01CA01A0011124FF27591BC7
:1046600099F0593F50F4503E68F11A16F040A22FCD
:10467000232F342F4427585FF3CF4695379527953E
:10468000A795F0405395C9F77EF41F16BA0B620B3D
:10469000730B840BBAF09150A1F0FF0FBB1F661F84
:1046A000771F881FC2F70EC0BA0F621F731F841FC7
:1046B00048F4879577956795B795F7959E3F08F0ED
:1046C000B0CF9395880F08F09927EE0F97958795AF
:1046D00008950E94532408F481E008950E948223E3
:1046E0000C948E240E94872458F00E94802440F06D
:1046F00029F45F3F29F00C94772451110C94C224C3
:104700000C947D240E949F2468F39923B1F35523D0
:1047100091F3951B550BBB27AA27621773078407D4
:1047200038F09F5F5F4F220F331F441FAA1FA9F36A
:1047300035D00E2E3AF0E0E832D091505040E69558
:10474000001CCAF72BD0FE2F29D0660F771F881FB9
:10475000BB1F261737074807AB07B0E809F0BB0BAC
:10476000802DBF01FF2793585F4F3AF09E3F5105C0
:1047700078F00C9477240C94C2245F3FE4F3983EC5
:10478000D4F3869577956795B795F7959F5FC9F7A9
:10479000880F911D9695879597F90895E1E0660F2A
:1047A000771F881FBB1F621773078407BA0720F0A3
:1047B000621B730B840BBA0BEE1F88F7E09508950C
:1047C0000E94E7236894B1110C94C22408950E94BA
:1047D000A72488F09F5798F0B92F9927B751B0F0C8
:1047E000E1F0660F771F881F991F1AF0BA95C9F775
:1047F00014C0B13091F00E94C124B1E008950C942E
:10480000C124672F782F8827B85F39F0B93FCCF3E0
:10481000869577956795B395D9F73EF490958095F1
:10482000709561957F4F8F4F9F4F0895E89409C011
:1048300097FB3EF490958095709561957F4F8F4FD3
:104840009F4F9923A9F0F92F96E9BB279395F695E9
:10485000879577956795B795F111F8CFFAF4BB0F67
:1048600011F460FF1BC06F5F7F4F8F4F9F4F16C0CB
:10487000882311F096E911C0772321F09EE8872F55
:10488000762F05C0662371F096E8862F70E060E011
:104890002AF09A95660F771F881FDAF7880F96958A
:1048A000879597F90895990F0008550FAA0BE0E82E
:1048B000FEEF16161706E807F907C0F012161306E2
:1048C000E407F50798F0621B730B840B950B39F422
:1048D0000A2661F0232B242B252B21F408950A2688
:1048E00009F4A140A6958FEF811D811D089597F9C8
:1048F0009F6780E870E060E008959FEF80EC089586
:1049000000240A94161617061806090608950024AE
:104910000A9412161306140605060895092E039428
:10492000000C11F4882352F0BB0F40F4BF2B11F49C
:1049300060FF04C06F5F7F4F8F4F9F4F089557FDFB
:104940009058440F551F59F05F3F71F04795880FFD
:1049500097FB991F61F09F3F79F087950895121694
:1049600013061406551FF2CF4695F1DF08C0161640
:1049700017061806991FF1CF8695710561050894F1
:104980000895E894BB2766277727CB0197F9089508
:104990000E94532408F48FEF08950E94E0240C94A1
:1049A0008E240E94802438F00E94872420F09523D2
:1049B00011F00C9477240C947D2411240C94C224BF
:1049C0000E949F2470F3959FC1F3950F50E0551FEF
:1049D000629FF001729FBB27F00DB11D639FAA2754
:1049E000F00DB11DAA1F649F6627B00DA11D661FA3
:1049F000829F2227B00DA11D621F739FB00DA11DC4
:104A0000621F839FA00D611D221F749F3327A00D7D
:104A1000611D231F849F600D211D822F762F6A2F19
:104A200011249F5750409AF0F1F088234AF0EE0F7E
:104A3000FF1FBB1F661F771F881F91505040A9F7AB
:104A40009E3F510580F00C9477240C94C2245F3F64
:104A5000E4F3983ED4F3869577956795B795F795E7
:104A6000E7959F5FC1F7FE2B880F911D969587955F
:104A700097F908950E945324880B990B0895DB0140
:104A80008F939F930E94B822BF91AF91A29F800DF8
:104A9000911DA39F900DB29F900D1124089597FB37
:104AA000072E16F4009407D077FD09D00E946925DF
:104AB00007FC05D03EF4909581959F4F0895709521
:104AC00061957F4F0895EE0FFF1F0590F491E02D43
:104AD0000994AA1BBB1B51E107C0AA1FBB1FA61745
:104AE000B70710F0A61BB70B881F991F5A95A9F797
:104AF00080959095BC01CD01089581E090E0F894F7
:104B00000C94A125FB01DC018D910190801901100D
:104B1000D9F3990B0895FB01DC0101900D9200205F
:104B2000E1F70895FB01DC014150504048F001904D
:104B30000D920020C9F701C01D9241505040E0F78E
:064B40000895F894FFCF78
:104B46000A0000E10000000000006004AD13AD1390
:104B5600AD13AD13AD13F401017C060C00010AD7A9
:104B6600A33D0000803EA470BD3E06FFFFFFFF018F
:104B7600FB03080415043A0220043104CB02E002C8
:104B860042044E045A048B03B703DB0336050000C8
:104B9600000014193D11EE192A193519161AF219C1
:104BA600000000006912D6110112B0123212101262
:104BB6002412000000000214EE130B1DE013E7138D
:104BC600E413E11300000000521DD6110B1D0A1D4F
:104BD6000E1D091DFCFF00004F1D081D00C1808130
:104BE6000000004354004D696E205468726F74745F
:104BF6006C652000536572766F206869676820705F
:104C06006F736974696F6E004769766573206D61AD
:104C160078206361626C6520736C61636B00506F12
:104C2600736974696F6E3A20004D6178205468721A
:104C36006F74746C652000536572766F206C6F77A5
:104C460020706F736974696F6E00476976657320AB
:104C56004E4F206361626C6520736C61636B005418
:104C660065737420536572766F2052616E67652096
:104C760000280029202020202000536572766F200E
:104C86004D6F64650052657665727365204D6F647D
:104C960065004E6F726D616C204D6F6465004E6FDE
:104CA600726D616C204D6F6465202000456E6769EA
:104CB6006E652043796C696E64657273200049677E
:104CC6006E6974696F6E20436F696C204D6F646501
:104CD60000202020202020202020202020202020EE
:104CE600202020202020004D61782043796C696EB9
:104CF600646572730054696D65205A6F6E65204F46
:104D0600666673657420003A0030005374617274ED
:104D16007570205461726765742053706565640010
:104D2600556E6974206F66204D65617375726500F6
:104D36004D504820004B5048200054656D707475E6
:104D4600726174757265204D6F6465200043656CF1
:104D560073697573202020202000466172656E6895
:104D6600656974200043656C736975732020202083
:104D76000053637265656E20526F7461746520001E
:104D8600466C69707065642020202020004E6F728A
:104D96006D616C2000466C6970706564202020206F
:104DA60000436F6E74726173742020200053657423
:104DB60020746F20796F7572206C696B696E67005D
:104DC600436F6E74726173743A200050726F706F25
:104DD6007274696F6E616C204761696E0044656626
:104DE60061756C742072617465203D202E33370026
:104DF600526174653A2000496E74656772616C2071
:104E06004761696E0064656661756C74203D202E8D
:104E160032350053706565643A20004465726976E0
:104E26006174697665204761696E004465666175DF
:104E36006C74203D202E3038003E004D696E2054A3
:104E460068726F74746C65004D6178205468726F77
:104E560074746C65005465737420536572766F00C4
:104E6600456E67696E652043796C696E6465727319
:104E76000054696D65205A6F6E65204F66667365CE
:104E8600740054656D702053656E736F72005363C2
:104E96007265656E20466C697000436F6E74726150
:104EA600737400434C005454006E616E00696E6664
:104EB600006F7666005450005346004750524D43EB
:104EC60000474E524D4300475047474100474E4723
:104ED60047410053440053544541445950415353AC
:104EE60000494E495449414C495A4520002020204A
:104EF6002053656C65637420507265736574732006
:104F060000202020464952535420424F4F5420003F
:104F160020494E495449414C495A45204D454D205A
:104F26002000414351554952494E47205349474E67
:104F3600414C002020504C4541534520574149548F
:104F4600200024504D544B3331342C302C312C302E
:104F56002C302C302C302C302C302C302C302C306B
:104F66002C302C302C302C302C302C302C302C305B
:104F76002A3239000D0A0024504D544B3232302C5F
:104F86003230302A324300202D002E00454E544543
:084F960052004241434B0000B0
:00000001FF
