:100000000C941A010C9429170C9402170C94DB160B
:100010000C94B4160C9442010C9442010C948D166D
:100020000C9442010C9442010C9450170C94C2178A
:100030000C9442010C9442010C9442010C94420134
:100040000C9442010C94CA1D0C9442010C94420180
:100050000C9442010C9442010C9442010C94CD1B6F
:100060000C9442010C94861A0C94601A0C94420170
:100070000C9442010C9442010C9442010C944201F4
:100080000C9442010C9442010C9442010C944201E4
:100090000C94A01C0C9442010C9442010C9442015B
:1000A0000C9442010C9442010C9442018A037A049C
:1000B0007E0508067906190734099D09FD095B0AC2
:1000C000E00AD50BF50C18122A122D1234123B122D
:1000D000691270127D128A12961296129612961258
:1000E00096129612961296129612961296129612D0
:1000F00096129612961296129612961296129612C0
:10010000961296129612181225122A122D123412D5
:100110003B1242124F125C12F71AFA1AE91AED1A40
:10012000F31A1B1B1B1B1B1BFE1A021B061B0C1BA3
:10013000101B1B1B161B00000000230026002900BB
:100140002C002F000404040404030405020202022C
:100150000403020202020606060606060404020260
:100160000204040408020110408040102040804036
:1001700080080204018040201002011080102040FD
:1001800040200000000200090F0000030401000CE1
:10019000000000000000000000000000000000005F
:1001A00000080B0002020201000904000001020223
:1001B00000000524001001052401010104240206A9
:1001C0000524060001070581031000400904010011
:1001D000020A000000070502024000000705830232
:1001E0004000000403090412010002EF0201404133
:1001F00023368000010102030141726475696E6F4C
:10020000204C4C430041726475696E6F204C656FE1
:100210006E6172646F0000000000240027002A0055
:100220002D00300000000000250028002B002E00CB
:100230003100492111241FBECFEFDAE0DEBFCDBF70
:1002400015E0A0E0B1E0ECE6F1E502C005900D920A
:10025000A03BB107D9F728E0A0EBB5E001C01D92A3
:10026000A534B207E1F711E0CAE1D1E004C021975B
:10027000FE010E947628C931D107C9F70E94CD221C
:100280000C94B4280C9400002F923F924F925F92EE
:100290006F927F928F929F92AF92BF92CF92DF9296
:1002A000EF92FF920F931F93CF93DF93CDB7DEB7FB
:1002B0006D970FB6F894DEBF0FBECDBF0091C60795
:1002C0001091C70781EA91E00E94E20EC8019927C8
:1002D0000E942B1088EC95E00E94A514892B39F020
:1002E00088EC95E00E9483140E946010F3CF809107
:1002F0002A07882379F380913707882321F1109208
:10030000380760913D0770913E0780913F079091BB
:1003100040070E942B272EEB3CE443E95FE30E9459
:10032000E02720E030E048EC52E40E94812620E003
:1003300030E048EC52E40E94E0270E94F3267093DC
:10034000C5056093C405809145078823C1F01092CC
:10035000460760914B0770914C0780914D07909133
:100360004E070E942B2720E030E048EC52E40E9428
:1003700081260E94F3267093C3056093C205809185
:100380006F078823C1F01092700760917507709114
:10039000760780917707909178070E942B2720E0BD
:1003A00030E048EC52E40E9481260E94F3267093CC
:1003B000C1056093C0058091F906882309F456C0F1
:1003C0006091FD067091FE068091FF0690910007F6
:1003D0000E94292728E23BE64EE65EE40E94812641
:1003E0006B017C016091FB067091FC0680E090E05F
:1003F0000E9429279B01AC01C701B6010E9410266B
:1004000020910107211190580E94F3267093BF0597
:100410006093BE051092FA0660910407709105077B
:1004200080910607909107070E94292728E23BE662
:100430004EE65EE40E9481266B017C01609102071A
:100440007091030780E090E00E9429279B01AC0196
:10045000C701B6010E94102620910807211190586B
:100460000E94F3267093BD056093BC0580916107DF
:10047000882351F010926207809167079091680776
:100480009093BB058093BA05809153078823C1F0F0
:10049000109254076091590770915A0780915B0739
:1004A00090915C070E942B2720E030E048EC52E45A
:1004B0000E9481260E94F3267093B9056093B805C7
:1004C0008091C2059091C305823521E0920734F0F6
:1004D00024EA31E02093BF050C948F0E87319105FB
:1004E0001CF484EA91E007C08434910514F00C9464
:1004F0008F0E8AEA91E08093BF0568ED71E085E692
:1005000096E00E945E1A6091C4057091C50585E66B
:1005100096E00E941C0F6FED71E085E696E00E9468
:100520005E1A67EE71E085E696E00E945E1A6091C1
:10053000C0057091C10585E696E00E941C0F6FED25
:1005400071E085E696E00E945E1A6DEE71E085E648
:1005500096E00E945E1A6091BE057091BF0585E627
:1005600096E00E941C0F6FED71E085E696E00E9418
:100570005E1A68EF71E085E696E00E945E1A60916F
:10058000BC057091BD0585E696E00E941C0F6FEDDD
:1005900071E085E696E00E945E1A63E072E085E60F
:1005A00096E00E945E1A6091BA057091BB0585E6DF
:1005B00096E00E941C0F6FED71E085E696E00E94C8
:1005C0005E1A6AE072E085E696E00E945E1A60912B
:1005D000B8057091B90585E696E00E941C0F6FED95
:1005E00071E085E696E00E945E1A6FE072E085E6B3
:1005F00096E00E945E1A66EB75E085E696E00E9442
:100600005E1A6FED71E085E696E00E945E1A67E182
:1006100072E085E696E00E945E1A6091C2057091D4
:10062000C30585E696E00E941C0F6FE172E085E647
:1006300096E00E945E1A84E00E948913892BD9F308
:100640008CE1E0E3F1E0DE01119601900D928A95D4
:10065000E1F7312CFE013196E30DF11DE30DF11DA3
:10066000808191818F58954011F03394F3CF3A9463
:100670003D8E0E94F00E81E080932F01B2E0FB2EB0
:1006800010E000E05D8D252E312C84E6882E912C23
:10069000A12CB12C0E943B2082309105D1F024F492
:1006A000019769F00C94EA0D8430910531F10897B7
:1006B00011F00C94EA0D0E9437200C94EA0D1111F0
:1006C0000C94F10D002311F40C94230E01500C94A2
:1006D000290E802F90E00596821593052CF4153095
:1006E00019F40F5FA2E0FA2E812F90E0059714F025
:1006F0000C94EA0D1F5F0C94F20DE12FF0E0E00F77
:10070000F11DED30F10510F00C94EA0DEA5AFF4F9F
:100710000C94762880911D0190911E019093E10622
:100720008093E0060E94F00E8AE00E94541060E080
:1007300070E080E090E00E94401087E292E00E942A
:10074000F40E61E070E080E090E00E94401085E3EC
:1007500092E00E94F40E62E070E080E090E00E947F
:10076000401089E492E00E94F40E64E070E080E0C2
:1007700090E00E9440108FE592E00E94F40E80917C
:10078000C807882329F0809102019091030104C0D9
:1007900080911D0190911E010E94560F89E393E004
:1007A0000E94F40E66E070E080E090E00E9440104D
:1007B0008AE692E00E94F40EE6EBEE2EE3E0FE2ED7
:1007C000FEE9CF2EF7E0DF2E8091E0069091E10662
:1007D0000E94FD120E943B208230910561F11CF4C1
:1007E000019751F0F1CF8430910509F47DC008974D
:1007F00059F70E943720E8CF2091C80780911D014A
:1008000090911E01222371F0209102013091030189
:10081000281739070CF5265F3F4F309303012093CB
:10082000020133C08E39E7E09E071CF1D0921E0111
:10083000C0921D012AC02091C807809102019091A9
:100840000301222379F0873BF3E09F072CF4F09219
:100850000301E092020119C00A979093030180936B
:10086000020113C020911D0130911E0182179307D0
:1008700034F00A9690931E0180931D0106C02A5001
:10088000310930931E0120931D0164E070E080E087
:1008900090E00E9440108FE592E00E94F40E80915B
:1008A000C807882329F0809102019091030104C0B8
:1008B00080911D0190911E010E94560F89E393E0E3
:1008C0000E94F40E8091C807882329F080910201CC
:1008D0009091030104C080911D0190911E0190939D
:1008E000E1068093E00670CF8091C807882309F461
:1008F000EFC0F9C080910201909103019093E1064D
:100900008093E0060E94F00E8AE00E94541060E09E
:1009100070E080E090E00E94401080E892E00E9449
:10092000F40E61E070E080E090E00E9440108EE8FC
:1009300092E00E94F40E62E070E080E090E00E949D
:10094000401081EA92E00E94F40E64E070E080E0E2
:1009500090E00E9440108FE592E00E94F40E80919A
:10096000C807882329F080911D0190911E0104C0C1
:1009700080910201909103010E94560F89E393E058
:100980000E94F40E66E070E080E090E00E9440106B
:100990008AE692E00E94F40E66EBE62E63E0F62E05
:1009A0007EE9C72E77E0D72E8091E0069091E10690
:1009B0000E94FD120E943B208230910561F11CF4DF
:1009C000019751F0F1CF8430910509F47DC008976B
:1009D00059F70E943720E8CF2091C80780911D0168
:1009E00090911E0121110EC020910201309103014E
:1009F00028173907ACF5265F3F4F3093030120934A
:100A0000020133C08E3927E09207A4F0D0921E0174
:100A1000C0921D012AC02091C807809102019091C7
:100A200003012223A1F020911D0130911E018217A4
:100A3000930734F00A9690931E0180931D0115C010
:100A40002A50310930931E0120931D010EC0873BAF
:100A500043E094072CF4F0920301E092020105C0F8
:100A60000A97909303018093020164E070E080E0B4
:100A700090E00E9440108FE592E00E94F40E809179
:100A8000C807882329F080911D0190911E0104C0A0
:100A900080910201909103010E94560F89E393E037
:100AA0000E94F40E8091C807882329F080911D01CF
:100AB00090911E0104C080910201909103019093D6
:100AC000E1068093E00670CF8091C807882359F033
:100AD00080911D0190911E016AE070E00E946228E1
:100AE00084E190E085C480910201909103016AE065
:100AF00070E00E94622885E190E07AC48091020152
:100B0000909103019093E1068093E0060E94F00E1D
:100B10008AE00E94541060E070E080E090E00E9463
:100B2000401086EB92E00E94F40E66E070E080E0F8
:100B300090E00E9440108AE692E00E94F40EEE24BB
:100B4000EA94FE2C5AE0D52E61E070E080E090E05F
:100B50000E94401088EC92E00E94F40E2091C80799
:100B60008091E0069091E106222371F0409102010C
:100B70005091030120911D0130911E01240F351F5A
:100B8000F901E81BF90BCF010E94560F8AEC92E0A5
:100B90000E94F40E64E670E080E090E00E94871B03
:100BA0008091E0069091E1062091020130910301CD
:100BB0002817390734F021E030E030930101209309
:100BC000000120911D0130911E018217930724F02E
:100BD000F0920101E0920001409100015091010169
:100BE000D49E9001D59E300D1124820F931F9093B7
:100BF000E1068093E0060E943B208430910511F4C9
:100C00000C94290E089709F09FCF0E9437209CCFA3
:100C10000E94F00E8AE00E94541060E070E080E0D4
:100C200090E00E94401081ED92E00E94F40E61E09D
:100C300070E080E090E00E9440108091C807882317
:100C400021F08CED92E00E94F40E8091C807811192
:100C500004C089EE92E00E94F40E66E070E080E04D
:100C600090E00E9440108AE692E00E94F40EFF2479
:100C7000F3940E943B208230910501F11CF401970E
:100C800049F0F7CF8430910551F1089791F70E9410
:100C90003720EFCF61E070E080E090E00E944010EC
:100CA0008091C807882319F085EF92E013C08CED7E
:100CB00092E00E94F40EF092C807DBCF61E070E092
:100CC00080E090E00E9440108091C807882379F36B
:100CD00089EE92E00E94F40E1092C807CACF80916C
:100CE000C807882311F061E001C060E080E290E075
:100CF0007FC30E94F00E8AE00E94541060E070E012
:100D000080E090E00E94401083E093E00E94F40EA7
:100D100061E070E080E090E00E94401080912E0140
:100D20000E94070F80912E01813051F462E070E043
:100D300080E090E00E94401085E193E00E94F40E74
:100D400066E070E080E090E00E9440108AE692E069
:100D50000E94F40EFF24F39428E0E22E34E0D32E18
:100D60000E943B2082309105B9F11CF4019751F0AB
:100D7000F7CF8430910509F457C0089789F70E948E
:100D80003720EECF61E070E080E090E00E944010FC
:100D900080912E01813021F4D0922E0184E029C06F
:100DA000883060F48E5F80932E010E94070F62E00E
:100DB00070E080E090E00E944010D2CFE0922E01DF
:100DC00088E00E94070F62E070E080E090E00E94FF
:100DD00040108EE393E025C061E070E080E090E099
:100DE0000E94401080912E01853070F082508093D7
:100DF0002E010E94070F62E070E080E090E00E9408
:100E0000401088E293E00DC0F0922E0181E00E9434
:100E1000070F62E070E080E090E00E94401085E102
:100E200093E00E94F40E9CCF60912E018BE090E045
:100E3000DFC288EC95E00E9483140E94601010923B
:100E40002A07C0902B07D0902C07E0902D07F09038
:100E50002E07C701B60120E432E44FE050E00E94C3
:100E6000DE2580911F0190912001820F911D0C972A
:100E70009093B5058093B405C701B60120E137E230
:100E800040E050E00E94DE25CA01B901A5019401AD
:100E90000E94DE257093B3056093B205C701B601C9
:100EA000A50194010E94DE25CA01B901A5019401A2
:100EB0000E94DE257093B1056093B0050E94F00E8C
:100EC0008AE00E94541060E070E080E090E00E94B0
:100ED00040108CE493E00E94F40E61E070E080E04A
:100EE00090E00E9440108091B4059091B5050E9459
:100EF000560F88E092E00E94F40E8091B205909126
:100F0000B3050A9724F48EE593E00E94F40E8091D5
:100F1000B2059091B3050E94560F88E092E00E94BE
:100F2000F40E8091B0059091B1050A9724F48EE5F6
:100F300093E00E94F40E8091B0059091B1050E945B
:100F4000560F8AE393E00E94F40E63E070E080E0C5
:100F500090E00E94401080911F01909120010C9719
:100F60000E94560F8AE393E00E94F40E66E070E060
:100F700080E090E00E9440108AE692E00E94F40E29
:100F800088EC95E00E9483140E94601010922A075A
:100F9000C0902B07D0902C07E0902D07F0902E07E3
:100FA000C701B60120E432E44FE050E00E94DE25A4
:100FB00080911F0190912001820F911D0C979093B9
:100FC000B5058093B405C701B60120E137E240E0E2
:100FD00050E00E94DE25CA01B901A50194010E94DA
:100FE000DE257093B3056093B205C701B601A50174
:100FF00094010E94DE25CA01B901A50194010E9455
:10100000DE257093B1056093B00561E070E080E08B
:1010100090E00E94401062E370E080E090E00E9467
:10102000871B0E943B208230910509F46DC01CF49F
:10103000019759F0C5C08430910509F4B9C00897EB
:1010400009F0BEC00E943720BBC080911F01909163
:1010500020018831910534F401969093200180930A
:101060001F0106C048E150E05093200140931F014A
:1010700010922A0740902B0750902C0760902D0764
:1010800070902E07C301B20120E432E44FE050E03B
:101090000E94DE25E0901F01F0902001E20EF11C7D
:1010A00067015CE0C51AD108D092B505C092B405BD
:1010B000C301B20120E137E240E050E00E94DE25AA
:1010C000CA01B901A50194010E94DE257093B30500
:1010D0006093B205C301B201A50194010E94DE250F
:1010E000CA01B901A50194010E94DE257093B105E2
:1010F0006093B005D7FE3EC08CE0E80EF11CF09284
:10110000B505E092B40536C080911F019091200191
:101110001816190634F401979093200180931F014B
:1011200004C01092200110921F0110922A076091B2
:101130002B0770912C0780912D0790912E0720E4AA
:1011400032E44FE050E00E94DE2580911F01909133
:101150002001820F911D9C012C50310937FD05C0E3
:101160003093B5052093B40505C00C969093B50552
:101170008093B4058091B4059091B50589319105AE
:101180002CF048979093B5058093B40563E070E028
:1011900080E090E00E94401080911F01909120011A
:1011A0000C970E94560F8AE393E00E94F40E08C049
:1011B00060911F0183E190E00E949A1FF12C02C010
:1011C000FF24F3948091B4059091B50597FF05C075
:1011D00048969093B5058093B4058091B40590919D
:1011E000B505893191052CF048979093B50580930A
:1011F000B40561E070E080E090E00E9440108091D2
:10120000B4059091B5050E94560F88E092E00E94C7
:10121000F40E8091B2059091B3050A9724F48EE5FF
:1012200093E00E94F40E8091B2059091B3050E9464
:10123000560F88E092E00E94F40E8091B0059091E4
:10124000B1050A9724F48EE593E00E94F40E809194
:10125000B0059091B1050E94560F8AE393E00E9479
:10126000F40EF1108DCEF5C40E94F00E8AE00E94BB
:10127000541060E070E080E090E00E94401080E652
:1012800093E00E94F40E61E070E080E090E00E9444
:1012900040100E949E1F66E070E080E090E00E9497
:1012A00040108AE692E00E94F40E98E8E92E93E15D
:1012B000F92E0E943B208230910539F11CF40197F0
:1012C00049F0F7CF8430910589F1089791F70E9492
:1012D0003720EFCF80911A0190911B018838E3E10C
:1012E0009E072CF0F0921B01E0921A0105C00A96AD
:1012F00090931B0180931A0161E070E080E090E020
:101300000E9440100E949E1FD4CF80911A0190919C
:101310001B01853FF1E09F073CF444EF51E05093FF
:101320001B0140931A01E8CF0A97E2CF60911A019E
:1013300070911B018EE190E055C30E94F00E8AE08F
:101340000E94541060E070E080E090E00E94401045
:1013500085E793E00E94F40E61E070E080E090E0A9
:101360000E94401080912101882319F085E893E0C4
:1013700002C08AE893E00E94F40E66E070E080E02C
:1013800090E00E9440108AE692E00E94F40EFF2452
:10139000F3940E943B208230910561F01CF4019788
:1013A00049F0F7CF84309105E1F0089791F70E945A
:1013B0003720EFCF809121018F258093210161E0BB
:1013C00070E080E090E00E9440108091210188232D
:1013D00019F085E893E002C08AE893E00E94F40ED9
:1013E000D8CF80912101882331F061E082E190E043
:1013F0000E949A1F2EC460E0F9CF0E94F00E8AE08E
:101400000E94541060E070E080E090E00E94401084
:101410008FE893E00E94F40E61E070E080E090E0DD
:101420000E94401080911C01882319F082EA93E009
:1014300002C08FEA93E00E94F40E66E070E080E064
:1014400090E00E9440108AE692E00E94F40EFF2491
:10145000F3940E943B208230910561F01CF40197C7
:1014600049F0F7CF84309105E1F0089791F70E9499
:101470003720EFCF80911C018F2580931C0161E004
:1014800070E080E090E00E94401080911C01882371
:1014900019F08AEB93E002C08FEA93E00E94F40E09
:1014A000D8CF80911C01882311F061E001C060E079
:1014B0008DE190E09DCF0E94F00E8AE00E945410D2
:1014C00060E070E080E090E00E94401086EC93E0E5
:1014D0000E94F40E61E070E080E090E00E94401015
:1014E00082ED93E00E94F40E64E070E080E090E012
:1014F0000E94401085EE93E00E94F40E8091C60792
:101500009091C7070E94560F66E070E080E090E07F
:101510000E9440108AE692E00E94F40EE090C60716
:10152000F090C70781EA91E00E94E20EC701992777
:101530000E942B100E943B2082309105C1F01CF4C8
:10154000019749F0EBCF84309105A9F1089731F765
:101550000E943720E3CF8091C6079091C707883259
:1015600091051CF088E290E011C001960FC08091B7
:10157000C6079091C707853191053CF4E4E1F0E09E
:10158000F093C707E093C60705C001979093C7077C
:101590008093C60764E070E080E090E00E94401015
:1015A00085EE93E00E94F40E8091C6079091C707E4
:1015B0000E94560FB3CF6091C60781E290E018CF2A
:1015C0000E94F00E8AE00E94541060E070E080E01B
:1015D00090E00E94401080EF93E00E94F40E61E0E2
:1015E00070E080E090E00E94401082E094E00E9471
:1015F000F40E63E070E080E090E00E94401085E12E
:1016000094E00E94F40E60912A0170912B01809168
:101610002C0190912D010E94690F66E070E080E03E
:1016200090E00E9440108AE692E00E94F40E20E0D2
:1016300030E048EC52E460912A0170912B018091D6
:101640002C0190912D010E94E0270E94F3267B013E
:101650000E943B208230910509F445C01CF401979B
:1016600051F0F6CF8430910509F49BC0089781F7BB
:101670000E943720EDCF63E070E080E090E00E94B0
:10168000401085E194E00E94F40E20E030E048EC48
:1016900052E460912A0170912B0180912C0190916C
:1016A0002D010E94E0276B017C0120E030E048EC36
:1016B00052E40E94DB2787FD0DC080E090E0A8EC9B
:1016C000B2E480932A0190932B01A0932C01B09354
:1016D0002D0143C020E030E040E85FE3C701B601E0
:1016E0000E94102632C063E070E080E090E00E942B
:1016F000401085E194E00E94F40E20E030E048ECD8
:1017000052E460912A0170912B0180912C019091FB
:101710002D010E94E0276B017C0120E030E0A9014F
:101720000E947C2618164CF010922A0110922B0170
:1017300010922C0110922D0110C020E030E040E802
:101740005FE3C701B6010E940F2660932A017093E0
:101750002B0180932C0190932D0140902A015090F1
:101760002B0160902C0170902D01C301B2010E94E9
:10177000F3267B0120E030E048EC52E4C301B201E3
:101780000E94812660932A0170932B0180932C0183
:1017900090932D010E94690F8BE393E00E94F40E59
:1017A00057CFB7018CE090E01DC10E94F00E8AE097
:1017B0000E94541060E070E080E090E00E944010D1
:1017C0008CE194E00E94F40E61E070E080E090E033
:1017D0000E9440108AE294E00E94F40E63E070E000
:1017E00080E090E00E94401088E394E00E94F40EB4
:1017F0006091260170912701809128019091290123
:101800000E94690F66E070E080E090E00E94401066
:101810008AE692E00E94F40E20E030E048EC52E4C8
:1018200060912601709127018091280190912901F2
:101830000E94E0270E94F3267B010E943B20823019
:10184000910509F46EC01CF4019751F0F6CF843075
:10185000910509F4C4C0089781F70E943720EDCFA5
:1018600063E070E080E090E00E94401088E394E044
:101870000E94F40E20E030E048EC52E46091260132
:101880007091270180912801909129010E94E02701
:101890006B017C0120E030E048EC52E40E94DB2741
:1018A00087FD0DC080E090E0A8ECB2E480932601B3
:1018B00090932701A0932801B093290110C020E044
:1018C00030E040E85FE3C701B6010E941026609354
:1018D000260170932701809328019093290140905D
:1018E0002601509027016090280170902901C301C2
:1018F000B2010E94F3267B0120E030E048EC52E484
:10190000C301B2010E9481266093260170932701D2
:1019100080932801909329010E94690F8AE393E044
:101920005BC063E070E080E090E00E94401088E3DC
:1019300094E00E94F40E20E030E048EC52E4609124
:1019400026017091270180912801909129010E9420
:10195000E0276B017C0120E030E0A9010E947C2699
:1019600018164CF0109226011092270110922801AF
:101970001092290110C020E030E040E85FE3C70189
:10198000B6010E940F266093260170932701809371
:1019900028019093290140902601509027016090E2
:1019A000280170902901C301B2010E94F3267B0136
:1019B00020E030E048EC52E4C301B2010E948126ED
:1019C0006093260170932701809328019093290149
:1019D0000E94690F88E393E00E94F40E2ECFB701B6
:1019E0008EE090E00E94272034C10E94F00E8AE031
:1019F0000E94541060E070E080E090E00E9440108F
:101A000080E494E00E94F40E61E070E080E090E0F9
:101A10000E94401080E594E00E94F40E63E070E0C4
:101A200080E090E00E94401085E194E00E94F40E76
:101A300060912201709123018091240190912501F0
:101A40000E94690F66E070E080E090E00E94401024
:101A50008AE692E00E94F40E20E030E048EC52E486
:101A600060912201709123018091240190912501C0
:101A70000E94E0270E94F3267B010E943B208230D7
:101A8000910509F445C01CF4019751F0F6CF84305C
:101A9000910509F49BC0089781F70E943720EDCF8C
:101AA00063E070E080E090E00E94401085E194E007
:101AB0000E94F40E20E030E048EC52E460912201F4
:101AC0007091230180912401909125010E94E027CB
:101AD0006B017C0120E030E048EC52E40E94DB27FF
:101AE00087FD0DC080E090E0A8ECB2E48093220175
:101AF00090932301A0932401B093250143C020E0DB
:101B000030E040E85FE3C701B6010E94102632C012
:101B100063E070E080E090E00E94401085E194E096
:101B20000E94F40E20E030E048EC52E46091220183
:101B30007091230180912401909125010E94E0275A
:101B40006B017C0120E030E0A9010E947C26181680
:101B50004CF0109222011092230110922401109255
:101B6000250110C020E030E040E85FE3C701B60186
:101B70000E940F2660932201709323018093240119
:101B80009093250140902201509023016090240100
:101B900070902501C301B2010E94F3267B0120E071
:101BA00030E048EC52E4C301B2010E948126609308
:101BB00022017093230180932401909325010E94B8
:101BC000690F8BE393E00E94F40E57CFB70180E1D9
:101BD00090E008CFF1E0FF1629F022E0F21281C078
:101BE00038C011504D8D411708F4142FE12CF12C01
:101BF0008AE00E945410B70180E090E00E944010FB
:101C00008CE393E00E94F40EB70180E090E00E9424
:101C100040108CE393E00E94F40E5FEFE51AF50AA2
:101C200086E0E816F10421F78AE00E945410612F43
:101C300070E080E090E00E9440108EE594E00E9409
:101C4000F40EF12C4EC051E0F51681F282E0F8124C
:101C500048C00E94F00E9D8D963020F4712CC02E4D
:101C6000D12C1FC0FE0131967F01E00EF11CE00E69
:101C7000F11CC12CD12C8AE00E945410B60181E0E5
:101C800090E00E944010F701819191917F010E94A4
:101C9000F40EFFEFCF1ADF0A26E0C216D10459F77F
:101CA0001EC0E72CF12C2E143F04CCF08AE00E94D9
:101CB0005410B70181E090E00E944010F601EE0D53
:101CC000FF1DEE0FFF1F41E050E04C0F5D1FE40FC2
:101CD000F51F808191810E94F40E7394E2CFFF245E
:101CE000F39480912F0181110C944A036D960FB6E5
:101CF000F894DEBF0FBECDBFDF91CF911F910F9142
:101D0000FF90EF90DF90CF90BF90AF909F908F901B
:101D10007F906F905F904F903F902F900895813704
:101D2000910524F48FEA91E00C947B028E399105A1
:101D300024F484EB91E00C947B028B3C910524F419
:101D40008EEB91E00C947B02883F910524F484ECA7
:101D500091E00C947B028532E1E09E0724F483ED50
:101D600091E00C947B028235914014F00C947D023A
:101D70008EEC91E00C947B0261E08091F4060E946D
:101D80004B1B61E08091F5060E944B1B61E0809146
:101D9000F6060E944B1B61E08091F6060E941C1B18
:101DA00060E08091F4060E941C1B60E08091F506C3
:101DB0000E941C1B8091F706882319F060E00C94A8
:101DC0004B1B0895CF93DF93EC016991662329F0B3
:101DD00085EE96E00E940921F8CFDF91CF9108951A
:101DE0008CEB94E00C94E20ECF93DF93EC018FEB3D
:101DF00094E00E94E20EBE0185EE96E00E945E1A1B
:101E000060E085EE96E0DF91CF910C940921CF93AD
:101E1000C82F8FEB94E00E94E20E4C2F50E060E060
:101E200070E02AE085EE96E00E94151A60E085EEEB
:101E300096E0CF910C940921CF92DF92EF92FF921E
:101E40000F931F93CF93DF936B01770FEE08FF087B
:101E5000F7FE1FC0EC01E881F9810190F081E02DCF
:101E60006DE209958C0144275527BA014C195D098B
:101E70006E097F092AE0CE010E94151A800F911F7A
:101E8000DF91CF911F910F91FF90EF90DF90CF9056
:101E900008952AE0B701A601DF91CF911F910F911C
:101EA000FF90EF90DF90CF900C94151ACF93DF93B3
:101EB000EC018FEB94E00E94E20EBE0185EE96E00D
:101EC0000E941C0F60E085EE96E0DF91CF910C94AC
:101ED00009218F929F92AF92BF92CF92DF92EF92A1
:101EE000FF926B017C018FEB94E00E94E20EA70150
:101EF0009601C701B6010E944D28882319F062ECB3
:101F000074E01AC046015701E894B7F82FEF3FEF8D
:101F10004FE75FE7C501B4010E944D28811111C050
:101F20002FEF3FEF4FE75FE7C501B4010E947C262A
:101F300018163CF466EC74E085EE96E00E94001AF8
:101F40007DC02FEF3FEF4FE75FE4C701B6010E946E
:101F5000DB2718161CF46AEC74E0EECF2FEF3FEF8E
:101F60004FE75FECC701B6010E947C2687FDF3CFE7
:101F700020E030E0A901C701B6010E947C2687FF5E
:101F800009C06DE285EE96E00E940921F7FAF0940F
:101F9000F7F8F0942AE037ED43EA5BE3C701B601B6
:101FA0000E9410264B015C010E94FA266B017C0105
:101FB0000E9429279B01AC01C501B4010E940F2694
:101FC0004B015C012AE0B701A60185EE96E00E9474
:101FD000151A6EE285EE96E00E94092120E030E0BD
:101FE00040E251E4C501B4010E94E0274B015C01CD
:101FF0000E94FA266B01E12CF12C2AE0B701A60120
:1020000085EE96E00E94151AC701B6010E942927A5
:102010009B01AC01C501B4010E940F2620E030E015
:1020200040E251E40E94E0270E94FA26AB0160E002
:1020300070E02AE085EE96E00E94151A60E085EED9
:1020400096E0FF90EF90DF90CF90BF90AF909F9081
:102050008F900C940921CF93DF938F3F910510F45B
:10206000682F08C0EC016FEF85EE96E00E94092111
:102070006C2F6F5F85EE96E0DF91CF910C94092174
:102080000F931F93CF93DF938C01EB018EEC94E0C1
:102090000E94E20EC8010E942B10CE01DF91CF9169
:1020A0001F910F910C942B10CF93C82F81ED94E0CA
:1020B0000E94E20E6C2F85EE96E0CF910C940921E0
:1020C0000F931F93CF93DF93982F409196075091D2
:1020D000970760919807709199074F5F5F4F6F4F17
:1020E0007F4F40939607509397076093980770939C
:1020F0009907843209F459C2E0919007853234F48B
:102100008A3071F08D3009F05EC20AC08A3241F027
:102110008C3209F058C280917D07892780937D0712
:10212000092FEF3008F030C2F0E0E158F84F10828C
:1021300080917E07882309F41DC120917F073FEB22
:10214000320F822F022E000C990B363010F4C797F5
:1021500007C02156263018F48755910901C0C09751
:10216000282F2295207F309180074FEB430F832F3C
:10217000032E000C990B463010F4C79707C0315658
:10218000363018F48755910901C0C097820F90919D
:102190007D078913DBC08091A2079091A307A091CE
:1021A000A407B091A5070196A11DB11D8093A207B8
:1021B0009093A307A093A407B093A50780919107DC
:1021C000882399F080919A0790919B07A0919C0792
:1021D000B0919D070196A11DB11D80939A07909320
:1021E0009B07A0939C07B0939D0710918E07112326
:1021F000B9F1113009F084C08BE197E00E94A21E72
:1022000089E297E00E94A21E80919107882309F439
:1022100077C087E0E9E0F7E0ABEFB6E001900D9220
:102220008A95E1F787E0E0E1F7E0A2E0B7E001900E
:102230000D928A95E1F70E94C11B60931707709376
:1022400018078093190790931A071093FA061093B2
:10225000F90687E397E00E948B1E85E497E04EC065
:1022600089E297E00E94A21E80919107882329F1BC
:1022700087E0E9E0F7E0ABEFB6E001900D928A95D8
:10228000E1F787E0E0E1F7E0A2E0B7E001900D922E
:102290008A95E1F70E94C11B609317077093180796
:1022A0008093190790931A0781E08093FA06809330
:1022B000F90683E597E00E948B1E80916B07909151
:1022C0006C07A0916D07B0916E078093670790939C
:1022D0006807A0936907B0936A070E94C11B6093C7
:1022E000630770936407809365079093660781E0A6
:1022F00080936207809361078FE697E00E948B1EB0
:10230000C0919407D091950711E0209709F43EC140
:10231000E0919407F091950766A177A18EA19FA106
:102320000E949528892B09F031C1BE01CE0140964B
:102330000E949E280E94C11B68A379A38AA39BA325
:102340001DA31CA30AA4DBA5C02DDFCF80919E078F
:1023500090919F07A091A007B091A1070196A11DA0
:10236000B11D80939E0790939F07A093A007B09301
:10237000A1070AC190918F07911142C064ED74E0EA
:102380008FE797E00E949528892B41F06AED74E071
:102390008FE797E00E949528892B11F481E014C003
:1023A00060EE74E08FE797E00E949528892B41F05A
:1023B00066EE74E08FE797E00E949528892B19F468
:1023C00010928E0703C082E080938E07809192075F
:1023D000909193079093950780939407C0919407E9
:1023E000D0919507209709F4CFC06FE777E08EA1D1
:1023F0009FA10E94952897FFC1C08AA59BA5EACFFF
:10240000E0918E07E23009F491C080917F07882324
:1024100009F48CC020E2E29FF0011124E92B3197EE
:10242000E932F10508F082C0ED59FF4F0C9476288F
:102430008FE797E00E94411F60932F07709330074A
:10244000809331079093320771C091E0813409F095
:1024500043C043C069E077E009C091E0833509F0EB
:1024600090E090930F0762C060E177E08FE797E01C
:102470000E94B91E5BC091E0873509F090E090930F
:10248000160754C08FE797E00E94411F60934107F1
:1024900070934207809343079093440747C08FE7A8
:1024A00097E00E94411F60934F07709350078093FD
:1024B0005107909352073AC08FE797E00E94792521
:1024C000609321077093220780932307909324073A
:1024D0002DC091E081330CF490E09093910726C0D9
:1024E0008FE797E00E94792560936B0770936C07E4
:1024F00080936D0790936E0719C08FE797E00E9455
:10250000411F6093790770937A0780937B079093BC
:102510007C070CC08FE797E00E94411F60935D0726
:1025200070935E0780935F0790936007C091940754
:10253000D0919507209741F1E0919407F09195078C
:1025400066A177A18EA19FA10E949528892BE1F415
:1025500028A539A580918F0790E082179307A4F0F2
:102560002817390739F440E150E06FE777E0CE01F2
:102570000E94A5280AA4DBA5C02DDCCF892B21F061
:10258000109295071092940780E001C081E090912D
:102590008F079F5F90938F071092900791E00A3208
:1025A00009F090E090937E0723C01092900710925C
:1025B0008F0710927D0782E080938E0710927E072E
:1025C0001092910714C0EE3040F481E08E0F80939A
:1025D0009007F0E0E158F84F908380917E078111D9
:1025E00006C020917D07922790937D0701C080E06F
:1025F000DF91CF911F910F910895BC019091E20658
:102600009C3098F58091E30628E830E0281B3109DA
:1026100087FD3395220F331F220F331F6217730775
:102620008CF08091E40648E552E0481B510987FD93
:102630005395440F551F440F551F9B0146175707CD
:102640000CF49A0122503109220F331F4FB7F8942E
:10265000892F90E0FC01EE0FFF1F8E0F9F1FFC01E2
:10266000EB54F94F328321834FBF08952091C70562
:10267000211103C08FEF9FEF08955FB7F89422E018
:102680002093E9002091F20030E01216130614F4B2
:1026900021E030E0422FFC0184E6415038F02898D8
:1026A0008093C6059091F1009193F7CF21153105E4
:1026B00021F08091F200882319F05FBFC9010895CD
:1026C0008BE68093E800F9CF2FB7F89483E08093EE
:1026D000E9009091E800892F807295FF04C09091E5
:1026E000F20080E4891B2FBF08958091AA07811111
:1026F0000DC082E08093A60784E08093A707109224
:10270000A9071092A80781E08093AA0786EA97E0BC
:102710000895CF93DF93282F30E0F901EE57FE4F55
:102720008491F901ED59FE4FD491F901EC5BFE4F14
:10273000C491CC2391F081110E94DF1AEC2FF0E0BC
:10274000EE0FFF1FEA5CFE4FA591B491EC91ED23D3
:1027500081E090E021F480E002C080E090E0DF9131
:10276000CF91089508954091C0075091C1072091DD
:10277000BE073091BF0742175307B4F49091E800A9
:102780009570E1F39091E80092FD19C08093F100FB
:102790008091C0079091C10701968F739927892B6B
:1027A00019F48EEF8093E8008091C0079091C107E3
:1027B00001969093C1078093C00781E0089580E05F
:1027C0000895DF92EF92FF920F931F93CF93DF93C1
:1027D000D82EF92EE42E062F10E0C8010196880F9E
:1027E0000E94B31383E00E94B313CD2DDF2D0C0F95
:1027F0001D1FC017D10789F0E7FE03C0FE018491B9
:1028000001C088810E94B313F82E80E00E94B313A8
:102810008F2121968111EDCF01C081E0DF91CF9111
:102820001F910F91FF90EF90DF900895DF92EF924C
:10283000FF920F931F93CF93DF93D82E8A017B01D2
:10284000E40EF51EEB01CE15DF0571F0D7FE03C0D7
:10285000FE01849101C088810E94B31321968111E9
:10286000F2CF8FEF9FEF01C0C801DF91CF911F9191
:102870000F91FF90EF90DF900895615030F020911C
:10288000F100FC0120830196F8CF289884E680931C
:10289000C6050895CF92DF92EF92FF920F931F9398
:1028A000CF93DF936C017A018B01C0E0D0E0CE15AD
:1028B000DF0581F0D8016D918D01D601ED91FC917C
:1028C0000190F081E02DC6010995892B11F0219628
:1028D000EECF7E01C701DF91CF911F910F91FF9045
:1028E000EF90DF90CF900895FC01538D448D252FFC
:1028F00030E0842F90E0821B930B541710F0CF969A
:10290000089501970895FC01918D828D981761F0CB
:10291000828DDF01A80FB11D5D968C91928D9F5F16
:102920009F73928F90E008958FEF9FEF0895FC01C1
:10293000918D828D981731F0828DE80FF11D858D74
:1029400090E008958FEF9FEF0895FC01918D228D07
:10295000892F90E0805C9F4F821B91098F7399278C
:10296000089588EC95E00E94A51421E0892B09F4D4
:1029700020E0822F0895FC01848DDF01A80FB11D96
:10298000A35ABF4F2C91848D90E001968F739927A5
:10299000848FA689B7892C93A089B1898C91827480
:1029A0008C93938D848D981306C00288F389E02D53
:1029B00080818F7D80830895EF92FF920F931F9304
:1029C000CF93DF93EC0181E0888F9B8D8C8D9813E2
:1029D00005C0E889F989808185FD26C0F62E0B8D1A
:1029E00010E00F5F1F4F0F731127E02E8C8DE81240
:1029F0000CC00FB607FCFACFE889F989808185FF02
:102A0000F5CFCE010E94BB14F1CF8B8DFE01E80FF4
:102A1000F11DE35AFF4FF0829FB7F8940B8FEA89BC
:102A2000FB898081806209C09FB7F894EE89FF8995
:102A30006083E889F9898081827480839FBF81E007
:102A400090E0DF91CF911F910F91FF90EF9008954B
:102A5000CF93DF93EC01888D8823C9F0EA89FB8945
:102A6000808185FD05C0A889B9898C9186FD0FC03C
:102A70000FB607FCF5CF808185FFF2CFA889B98911
:102A80008C9185FFEDCFCE010E94BB14E7CFDF9183
:102A9000CF91089580E090E0892B29F00E94B11435
:102AA00081110C9400000895CF93DF931F92CDB74E
:102AB000DEB76983DC01ED91FC910280F381E02DAA
:102AC00041E050E0BE016F5F7F4F09950F90DF91AD
:102AD000CF91089583E08093E9008091F2008823EC
:102AE00019F08AE38093E8000895FC0184859585B8
:102AF00097FD0BC09FB7F89482E08093E900809126
:102B0000F2009FBF90E0019608959FB7F89482E08D
:102B10008093E9008091F2009FBF90E008950F93A9
:102B20001F93CF93DF931F92CDB7DEB782E08983E7
:102B300042E450E061EA71E080E80E9416140E94CD
:102B40007513DC0112960D911C9113970115110557
:102B500089F0D801ED91FC910280F381E02DBE0156
:102B60006F5F7F4FC801099597FD04C0F80100858C
:102B70001185ECCF89810F90DF91CF911F910F913B
:102B800008958F929F92AF92BF92CF92DF92EF9271
:102B9000FF920F931F93CF93DF936C017B018A0108
:102BA00080910F01882309F45CC08091C7058823B8
:102BB00009F457C08091C40780FF05C08091E000F0
:102BC00082608093E000E801B12C8AEFA82E93E0A8
:102BD000892E2AE3922E209711F4BB20D9F10E946E
:102BE000641381110AC0AA94AA20D9F161E070E0AF
:102BF00080E090E00E94871BEECF282F30E0C217C4
:102C0000D3070CF48C2F9FB7F8948092E9002091A1
:102C1000E80025FF1DC0282F30E0C21BD30BF701B1
:102C2000815020F041914093F100FACFE20EF31E63
:102C3000BB2019F09092E8000AC08091E80085FD61
:102C400007C09092E800BB24B394209709F0B12C00
:102C50009FBFC1CF5D9884E68093C307101611060D
:102C600044F081E090E0F6019383828380E090E07D
:102C700001C0C801DF91CF911F910F91FF90EF909C
:102C8000DF90CF90BF90AF909F908F9008950E945B
:102C9000641390E008950F931F93CF93DF931F92D7
:102CA000CDB7DEB78C01FC018485958597FF0EC0FA
:102CB000CE0101960E943613019719F4898190E0A4
:102CC00002C08FEF9FEFF80195878487F801848514
:102CD00095850F90DF91CF911F910F910895CF931C
:102CE000DF931F92CDB7DEB7FC018485958597FDF4
:102CF00005C02FEF3FEF358724870BC0CE0101962B
:102D00000E943613019719F4898190E002C08FEF79
:102D10009FEF0F90DF91CF9108951F920F920FB602
:102D20000F9211242F933F934F935F936F937F9351
:102D30008F939F93AF93BF93EF93FF93E09118010D
:102D4000F09119010995FF91EF91BF91AF919F917A
:102D50008F917F916F915F914F913F912F910F9044
:102D60000FBE0F901F9018951F920F920FB60F92E3
:102D700011242F933F934F935F936F937F938F9380
:102D80009F93AF93BF93EF93FF93E0911601F09160
:102D900017010995FF91EF91BF91AF919F918F918D
:102DA0007F916F915F914F913F912F910F900FBE47
:102DB0000F901F9018951F920F920FB60F9211242B
:102DC0002F933F934F935F936F937F938F939F9333
:102DD000AF93BF93EF93FF93E0911401F09115012E
:102DE0000995FF91EF91BF91AF919F918F917F9145
:102DF0006F915F914F913F912F910F900FBE0F9068
:102E00001F9018951F920F920FB60F9211242F93B7
:102E10003F934F935F936F937F938F939F93AF9362
:102E2000BF93EF93FF93E0911201F0911301099585
:102E3000FF91EF91BF91AF919F918F917F916F9192
:102E40005F914F913F912F910F900FBE0F901F9068
:102E500018951F920F920FB60F9211242F933F9344
:102E60004F935F936F937F938F939F93AF93BF9392
:102E7000EF93FF93E0911001F09111010995FF91FB
:102E8000EF91BF91AF919F918F917F916F915F91E2
:102E90004F913F912F910F900FBE0F901F9018955B
:102EA0001F920F920FB60F9211248F939F938091D0
:102EB000E1009091E100937F9093E10083FF0FC0C8
:102EC0001092E90091E09093EB001092EC0092E3F5
:102ED0009093ED001092C70598E09093F00082FF68
:102EE00020C093E09093E9009091F200992319F0AB
:102EF0009AE39093E8009091C307992339F0909159
:102F0000C30791509093C307992389F19091C60507
:102F1000992339F09091C60591509093C605992355
:102F200041F184FF10C08091E2008E7E8160809329
:102F3000E2008091E1008F7E8093E1008091C407E0
:102F40008E7E806111C080FF16C08091E2008E7E6F
:102F500080618093E2008091E1008E7E8093E100A9
:102F60008091C4078E7E81608093C40704C05D9AFF
:102F7000CDCF289AD6CF9F918F910F900FBE0F90F3
:102F80001F9018951F920F920FB60F921124CF9297
:102F9000DF92EF92FF920F931F932F933F934F93E4
:102FA0005F936F937F938F939F93AF93BF93EF93B1
:102FB000FF93CF93DF93CDB7DEB76C97DEBFCDBF66
:102FC0001092E9008091E80083FFFBC168E0CE0128
:102FD00045960E943D1482EF8093E8008D8987FF1B
:102FE00005C09091E80090FFFCCF03C09EEF909346
:102FF000E800982F907609F0C6C09E894F89588DB9
:103000002F89F88C91110CC0803829F48091C50764
:103010008093F10002C01092F1001092F10045C1BE
:10302000913051F4811141C14130510509F03DC148
:103030008091C5078D7F0BC0933061F4811135C13C
:103040004130510509F031C18091C50782608093FC
:10305000C5072BC1953049F48091E80080FFFCCF73
:10306000822F80688093E30020C1963009F05EC013
:103070000B8D1C8D22E01092E9001092C107109276
:10308000C007F21232C01092BF071092BE070E9412
:103090008F1599E0BE016F5F7F4FDB01E92F1D9215
:1030A000EA95E9F79983FA8291E09E8390EA9887FE
:1030B0009AEF99872091C0073091C107275F3F4F52
:1030C0003C832B838D831092E9001092C1071092EC
:1030D000C0071093BF070093BE0749E050E080E0AF
:1030E0000E9416140E948F15E0C01093BF07009332
:1030F000BE070E947513DC0112960D911C91139767
:103100000115110509F4BBC0D801ED91FC910480B3
:10311000F581E02DBE016B5E7F4FC80109950097D8
:1031200009F0C7C0F80100851185EACF973009F48E
:1031300045C1983021F481E08093F100B6C0993008
:1031400009F0B3C0837009F039C1EBE9F1E081E027
:1031500031E096E32081211109C08EE78093EA00D7
:103160001092EA008F898093C7059FC08093E90081
:103170003093EB0021912093EC009093ED008F5F52
:10318000873041F7EACF8B8D9C8D1092E900109229
:10319000C1071092C0079093BF078093BE07898D27
:1031A000811153C08E899D89913A49F4813209F089
:1031B00005C147E050E068E071E080E0BBC09132BB
:1031C00009F0FCC0833269F48F89988DA0E0B0E0EB
:1031D0008093040190930501A0930601B093070129
:1031E00064C0803269F48091E80082FFFCCF67E020
:1031F00088E091E00E943D148BEF8093E80055C079
:10320000823209F052C08F8980930F01EEEFFFE701
:10321000859194918B3F9C4D19F0E0E0F8E002C05D
:10322000EEEFFAE08091080190910901A0910A0166
:10323000B0910B01803B9440A105B10509F09EC0FF
:1032400080910F0180FF79C099C00E947513FC0125
:10325000028113810115110509F4B0C0D801ED9167
:10326000FC910190F081E02DBE016B5E7F4FC801A3
:10327000099581111AC0F80100851185EBCFF1E0A5
:10328000FF1609F44EC0F3E0FF1298C08F8988231F
:1032900009F44AC0823089F440E860E185E092E0B8
:1032A0000E94E113882309F489C08EEF8093E8001F
:1032B00088C018161906CCF381C0813029F440E883
:1032C0006BE089EF91E0ECCF833009F077C00E948A
:1032D0007513DC011296ED90FC9013978E010F5F31
:1032E0001F4F6801E114F10479F0D701ED91FC91D1
:1032F0000680F781E02DB801C7010995080F111D5F
:10330000F701E084F184EECFD8011C92F601019020
:103310000020E9F73197BF016C197D0940E0C60133
:10332000BFCF67EE71E002C063EE71E0FB01449134
:1033300050E080E80E941614B8CFEE3F2AE0F20772
:1033400051F0808191818737A7E79A0721F0909308
:10335000FF0A8093FE0A87E797E791838083809135
:1033600060008093C2079BE088E10FB6F894A895AF
:10337000809360000FBE9093600097CF8081918111
:103380008737974709F091CFA895809160008861B1
:10339000809360008091C20780936000EE3FBAE0A6
:1033A000FB0739F08091FE0A9091FF0A9183808398
:1033B0007CCF1092FF0A1092FE0A77CF81E28093B1
:1033C000EB006C960FB6F894DEBF0FBECDBFDF9159
:1033D000CF91FF91EF91BF91AF919F918F917F918D
:1033E0006F915F914F913F912F911F910F91FF909E
:1033F000EF90DF90CF900F900FBE0F901F90189519
:103400006115710579F0FB0101900020E9F7319712
:10341000AF01461B570BDC01ED91FC910280F3815B
:10342000E02D099480E090E008958F929F92AF92F2
:10343000BF92EF92FF920F931F93CF93DF93CDB77D
:10344000DEB7A1970FB6F894DEBF0FBECDBF7C01EB
:10345000FA01CB0119A2223008F42AE08E010F5D97
:103460001F4F822E912CA12CB12CBF01A5019401DC
:103470000E94DE25F901CA01015011096A3014F4D5
:10348000605D01C0695CD8016C93232B242B252B34
:1034900061F7B801C7010E94001AA1960FB6F8940F
:1034A000DEBF0FBECDBFDF91CF911F910F91FF9077
:1034B000EF90BF90AF909F908F9008950C94001A5A
:1034C0001F920F920FB60F9211242F933F934F9399
:1034D0005F936F937F938F939F93AF93BF93EF937C
:1034E000FF9388EC95E00E94BB14FF91EF91BF9190
:1034F000AF919F918F917F916F915F914F913F918C
:103500002F910F900FBE0F901F9018951F920F9242
:103510000FB60F9211242F938F939F93EF93FF93E6
:10352000E091D805F091D9058081E091DE05F09118
:10353000DF0582FD12C090818091E1058F5F8F735E
:103540002091E205821751F0E091E105F0E0E853A7
:10355000FA4F958F8093E10501C08081FF91EF9133
:103560009F918F912F910F900FBE0F901F901895E4
:103570003FB7F8948091CE079091CF07A091D007E4
:10358000B091D10726B5A89B05C02F3F19F0019631
:10359000A11DB11D3FBFBA2FA92F982F8827820FD9
:1035A000911DA11DB11DBC01CD0142E0660F771F29
:1035B000881F991F4A95D1F708950E94902890E09E
:1035C000FC013197EF30F105B0F5E457FF4F0C9453
:1035D0007628809180008F7703C0809180008F7D56
:1035E00080938000089580918000877FF9CF84B513
:1035F0008F7702C084B58F7D84BD0895809190003F
:103600008F7707C0809190008F7D03C080919000DC
:10361000877F8093900008958091C0008F7703C0CA
:103620008091C0008F7D8093C00008958091C2007A
:10363000877F8093C20008951F93CF93DF93282F35
:1036400030E0F901EE57FE4F8491F901ED59FE4F3C
:10365000D491F901EC5BFE4FC491CC23C1F0162F3D
:1036600081110E94DF1AEC2FF0E0EE0FFF1FEC5DDE
:10367000FD4FA591B4919FB7F894111104C08C919E
:10368000D095D82302C0EC91DE2BDC939FBFDF9155
:10369000CF911F910895CF93DF9390E0FC01ED59F6
:1036A000FE4F2491FC01EC5BFE4F8491882361F175
:1036B00090E0880F991FFC01EA5EFD4FC591D491FF
:1036C000FC01EC5DFD4FA591B491611109C09FB75C
:1036D000F8948881209582238883EC912E230BC057
:1036E000623061F49FB7F8948881322F309583233C
:1036F0008883EC912E2B2C939FBF06C08FB7F89434
:10370000E8812E2B28838FBFDF91CF9108958F9270
:103710009F92AF92BF92CF92DF92EF92FF926B0196
:103720007C010E94B81A4B015C01C114D104E10470
:10373000F104F1F00E94B81ADC01CB018819990953
:10374000AA09BB09883E9340A105B10570F321E0A9
:10375000C21AD108E108F10888EE880E83E0981EAD
:10376000A11CB11CC114D104E104F10419F7DDCF8F
:10377000FF90EF90DF90CF90BF90AF909F908F9091
:1037800008952FB7F8946091CA077091CB07809184
:10379000CC079091CD072FBF08951F920F920FB6BF
:1037A0000F9211242F933F938F939F93AF93BF93C7
:1037B0008091CA079091CB07A091CC07B091CD071B
:1037C0003091C90723E0230F2D3720F40196A11D66
:1037D000B11D05C026E8230F0296A11DB11D20933F
:1037E000C9078093CA079093CB07A093CC07B093E7
:1037F000CD078091CE079091CF07A091D007B091CF
:10380000D1070196A11DB11D8093CE079093CF07DC
:10381000A093D007B093D107BF91AF919F918F91A3
:103820003F912F910F900FBE0F901F90189585ED2F
:103830008093BC008091BC0084FDFCCF10921F08D7
:1038400008954091FB07262F30E0240F311D2132CF
:103850003105DCF420911F082430C9F4FC0180E01C
:1038600090E0861758F43091FB072191DC01A552B6
:10387000B84FA30FB11D2C930196F3CF8091FB0796
:10388000680F6093FB0780E0089581E0089582E06F
:10389000089508958FEF9FEF08958FEF9FEF08959C
:1038A0008091DA0790E09195819591090895CF93E1
:1038B000DF93CB01EA01642F0E94211CCE01DF912E
:1038C000CF910895CF93DF931F92CDB7DEB7698371
:1038D00061E0CE0101960E94211C81E090E00F90F2
:1038E000DF91CF91089582E00E948913019779F4C6
:1038F00081E08093D2078091D4079091D507A09161
:10390000D607B091D7070197A109B1090DC0109250
:10391000D2078091D4079091D507A091D607B09196
:10392000D7070196A11DB11D8093D4079093D507A9
:10393000A093D607B093D70781E08093D807089566
:103940001F920F920FB60F9211242F933F934F9314
:103950005F936F937F938F939F93AF93BF93EF93F7
:10396000FF938091B900887F803609F49CC068F588
:10397000883209F45BC090F4803109F454C038F403
:10398000882309F4F2C0883009F44DC0F2C08831B0
:1039900009F44CC0803209F45DC0EBC0803409F4F6
:1039A00068C048F4803309F455C0883309F0E1C099
:1039B00080931E08D4C0803509F44FC0883509F4BF
:1039C0005DC0883409F0D5C0D2C0883909F4C3C0BD
:1039D000A8F4883709F467C038F4883609F463C05E
:1039E000803709F460C0C5C0883809F4B4C0803994
:1039F00009F45FC0803809F0BCC05BC0803B09F4AB
:103A000084C038F4803A09F466C0883A09F47DC06D
:103A1000B0C0803C09F4A3C0883C09F4A0C0883B36
:103A200009F486C0A6C08091440810C09091430854
:103A300080914208981770F5E091430881E08E0F5D
:103A400080934308F0E0EE5DF74F80818093BB00E8
:103A500085EC82C080931E088AC0E091430881E013
:103A60008E0F809343088091BB00F0E0EE5DF74F2E
:103A7000808390914308809142086AC0E091430896
:103A800081E08E0F809343088091BB00F0E0EE5DF3
:103A9000F74F808380912108811169C081E0809374
:103AA000200884EA5DC083E080931F0810921D08FF
:103AB000CFCF80911D08803208F04DC0E0911D08E5
:103AC00081E08E0F80931D088091BB00F0E0E350F1
:103AD000F84F8083BDCF85EC8093BC0010921F0807
:103AE00080911D08803230F4E0911D08F0E0E35031
:103AF000F84F108260911D0870E08DEF97E0E0E0D4
:103B0000F0E0099510921D0834C084E080931F08EE
:103B10001092FC071092FB07E0E0F0E0099580911D
:103B2000FB07811105C081E08093FB071092DB0742
:103B3000E091FC0781E08E0F8093FC07F0E0E552F6
:103B4000F84F80818093BB009091FC078091FB0728
:103B5000981708F47DCF85E88093BC000AC085ECF7
:103B60008093BC0010921F0804C010921E080E948F
:103B7000171CFF91EF91BF91AF919F918F917F9112
:103B80006F915F914F913F912F910F900FBE0F90CA
:103B90001F9018951F920F920FB60F9211242F931A
:103BA0003F934F935F936F937F938F939F93AF93C5
:103BB000BF93EF93FF938091D90787FF05C01092C1
:103BC0008500109284001BC02091D907022E000CA2
:103BD000330B8091D90690E02817390784F480913F
:103BE000D907082E000C990BFC01EE0FFF1F8E0F5A
:103BF0009F1FFC01EB54F94F808186FD15C0809119
:103C0000D9078F5F8093D9072091D907022E000C26
:103C1000330B8091D90690E028173907C4F48091BE
:103C2000D9078C3064F113C08091D907082E000C9D
:103C3000990BFC01EE0FFF1F8E0F9F1FFC01EB5431
:103C4000F94F808160E08F730E941C1BD8CF809158
:103C5000840090918500049680349C4918F480E497
:103C60009CE905C080918400909185000496909312
:103C70008900809388008FEF8093D9073BC0209103
:103C80008400309185008091D907082E000C990B93
:103C9000FC01EE0FFF1F8E0F9F1FFC01EB54F94F2D
:103CA00081819281820F931F909389008093880075
:103CB0008091D907082E000C990BFC01EE0FFF1F15
:103CC0008E0F9F1FFC01EB54F94F808186FF12C0BD
:103CD0008091D907082E000C990BFC01EE0FFF1FF5
:103CE0008E0F9F1FFC01EB54F94F808161E08F73B1
:103CF0000E941C1BFF91EF91BF91AF919F918F91FB
:103D00007F916F915F914F913F912F910F900FBED7
:103D10000F901F901895CF93DF93EC018A859B85B8
:103D2000AC85BD858E839F83A887B9870E94C11B00
:103D30006A837B838C839D8381E089838883DF9181
:103D4000CF910895CF93DF93EC018E819F81A88559
:103D5000B9858A839B83AC83BD830E94C11B6A871C
:103D60007B878C879D8781E089838883DF91CF91D2
:103D700008952F923F924F925F926F927F928F920F
:103D80009F92AF92BF92CF92DF92EF92FF920F93EA
:103D90001F93CF93DF93D82FC92F8B010E947925D2
:103DA00024E630E040E050E00E94DE2549015A015F
:103DB0009B01AC0160E876E988E990E00E94522816
:103DC0006B017C01F80191828082ED2FFC2F219103
:103DD000822F022E000C990BC0970A97C0F32E3247
:103DE00039F51F0180E8882E86E9982E88E9A82EEB
:103DF000B12C9AE0492E512C612C712CF101C1910A
:103E00001F010C2E000CDD0BE097CA30D10580F4A9
:103E1000C501B401A30192010E94DE2549015A01A6
:103E2000DE010E94D625C60ED71EE81EF91EE6CF7B
:103E3000A5E0B0E0A70196010E94CB256F5F7F4F00
:103E40008F4F9F4F23E030E040E050E00E94DE259E
:103E5000F80122833383448355831682DF91CF9107
:103E60001F910F91FF90EF90DF90CF90BF90AF9098
:103E70009F908F907F906F905F904F903F902F908A
:103E80000895FF920F931F93CF93DF93EC01F88077
:103E90002DE2F21201C02196CE010E9479259B01EC
:103EA000AC01A4E6B0E00E94CB25FE014991242F8D
:103EB000042E000C330B205331092A303105A8F3AE
:103EC0004E3241F52181022E000C330B2053310973
:103ED0002A303105F8F44AE0429F8001439F100DDB
:103EE0001124012E000C220B330B600F711F821F57
:103EF000931F0281002E000C110B005311090A3090
:103F0000110540F4012E000C220B330B600F711FC2
:103F1000821F931F2DE2F21207C090958095709535
:103F200061957F4F8F4F9F4FDF91CF911F910F91E1
:103F3000FF9008950C94BD250C94B5258091210126
:103F400060911A0170911B0181110EC0072E000CA7
:103F5000880B990B0E942B272BE734E14EEC5FE393
:103F60000E94E0270E94F326CB016AE070E00E94E5
:103F700062287093DF066093DE068091DE069091E2
:103F8000DF066AE070E00E9462287093DD066093AD
:103F9000DC069093DB068093DA06860F971F97FF67
:103FA00003C080EA95E008C06A3071051CF48BE319
:103FB00093E002C08CE393E00E94F40E8091DC0653
:103FC0009091DD0697FF07C0919581959109909397
:103FD000DD068093DC068091DC069091DD060E9470
:103FE000560F83EA95E00E94F40E8091DA069091D4
:103FF000DB0697FF07C09195819591099093DB06A9
:104000008093DA068091DA069091DB060E94560FC3
:1040100080912101882319F085E893E002C08AE8A5
:1040200093E00C94F40E0F931F93CF938C010196A1
:104030000E949C1FC82FC8010E949C1F2C2F30E09B
:10404000A901582BCA01CF911F910F9108951F9379
:10405000CF93DF93EC01162F672F0E949A1F612FD9
:10406000CE010196DF91CF911F910C949A1F10926F
:104070002F010C944401CF938091D807882391F1AC
:104080008091D4079091D507A091D607B091D7071A
:10409000181619061A061B0664F41092D40710921B
:1040A000D5071092D6071092D7071092D80781E053
:1040B00065C08091D4079091D507A091D607B091A3
:1040C000D707B7FF0CC01092D4071092D5071092F3
:1040D000D6071092D7071092D80782E04FC01092EF
:1040E000D8074BC084E00E948913C091D307892B65
:1040F000E9F4CF5FC093D30768EC70E080E090E014
:104100000E94871BC830C0F11092D3070E94F00EA6
:1041100084E10E94541060E070E080E090E00E9432
:1041200040108BEA95E00E94F40E1DC0CC2329F1CB
:104130001092D3070E94F00E84E10E94541060E0B8
:1041400070E080E090E00E94401085EA95E00E94D7
:10415000F40E64EF71E080E090E00E94871B0E9403
:10416000F00E84E00BC084E00E948913892BD9F300
:104170000E94F00E88E002C002C080E190E0CF9182
:104180000895089580E090E00895FF920F931F93A3
:10419000CF93DF93EC0161E089890E941C1B61E0F1
:1041A00089890E941C1B8A890E948913892BD9F353
:1041B00060E089890E941C1B60E089890E941C1BA9
:1041C00060E089890E941C1B98E0F92E00E010E055
:1041D000000F111F61E08F850E941C1B8A890E94BD
:1041E0008913892B09F0016060E08F850E941C1BF8
:1041F000FA94F110EDCF61E089890E941C1BC8017F
:10420000DF91CF911F910F91FF90089504970C9427
:10421000C520CF92DF92EF92FF920F931F93CF931F
:10422000DF93EC01E62E60E089890E941C1B60E0B0
:1042300089890E941C1B60E089890E941C1BDF8405
:10424000C88807E010E0F12CB701002E02C0759578
:1042500067950A94E2F761708C2D0E941C1B61E047
:104260008D2D0E941C1B60E08D2D0E941C1B015097
:10427000110950F761E089890E941C1B81E090E0E0
:10428000DF91CF911F910F91FF90EF90DF90CF9032
:1042900008951092CB051092CA0588EE93E0A0E035
:1042A000B0E08093CC059093CD05A093CE05B0935C
:1042B000CF0520E531E03093C9052093C8052DECEA
:1042C00030E03093D5052093D4052CEC30E03093CA
:1042D000D7052093D60528EC30E03093D9052093FC
:1042E000D80529EC30E03093DB052093DA052AEC81
:1042F00030E03093DD052093DC052EEC30E0309388
:10430000DF052093DE051092E1051092E205109280
:10431000E3051092E40510926806109267068093F8
:10432000690690936A06A0936B06B0936C0622E62A
:1043300031E030936606209365062FEF3FEF309310
:104340007206209371061092B5071092B4078093FD
:10435000B6079093B707A093B807B093B90784E75F
:1043600091E09093B3078093B2071092F9061092F0
:10437000FA061092FC061092FB061092FD061092AF
:10438000FE061092FF06109200071092010710928D
:10439000030710920207109204071092050710926B
:1043A0000607109207071092080710920A0710924A
:1043B000090710920B0710920C0710920D0710922C
:1043C0000E0710920F07109211071092100710920B
:1043D00012071092130710921407109215071092EB
:1043E000160710921B0710921C0710921D071092BF
:1043F0001E0710921F071092200710922907109293
:104400002A0710922B0710922C0710922D0710925A
:104410002E07109237071092380710923D0710921E
:104420003E0710923F0710924007109245071092E6
:10443000460710924B0710924C0710924D071092AE
:104440004E0710925307109254071092590710927A
:104450005A0710925B0710925C0710926107109246
:10446000620710926707109268071092690710920E
:104470006A0710926F0710927007109275071092DA
:104480007607109277071092780710927D071092A6
:104490007E0782E080938E0710928F07109290071C
:1044A000109291071092930710929207109295071D
:1044B00010929407109296071092970710929807FF
:1044C0001092990710929A0710929B0710929C07DE
:1044D00010929D0710929E0710929F071092A007BE
:1044E0001092A1071092A2071092A3071092A4079E
:1044F0001092A50710927F071092E8061092E70627
:1045000086E891E09093E6068093E50686E991E0DF
:104510009093EA068093E90688E08093F40689E0A8
:104520008093F5068AE08093F6061092F7060E94C3
:10453000BC0E8091D9068C30A0F491E0980F909336
:10454000D9068093E20690E0FC01EE0FFF1F8E0F6C
:104550009F1FFC01EB54F94F88EB9BE09283818312
:1045600003C08FEF8093E2068091020190910301D6
:104570009093E1068093E0068091DE069091DF063D
:104580006AE070E00E9462287093DD066093DC06AA
:104590009093DB068093DA060895789484B5826060
:1045A00084BD84B5816084BD85B5826085BD85B5D7
:1045B000816085BD80916E00816080936E00109255
:1045C00081008091810082608093810080918100D0
:1045D0008160809381008091800081608093800061
:1045E0008091910082608093910080919100816020
:1045F00080939100809190008160809390008091E1
:10460000C10084608093C1008091C100826080936A
:10461000C1008091C10081608093C1008091C3007E
:1046200081608093C3008091C00082608093C0004D
:104630008091C20081608093C20080917A00846082
:1046400080937A0080917A00826080937A008091D2
:104650007A00816080937A0080917A0080688093EC
:104660007A001092C7051092C5071092C407809176
:10467000D70081608093D70080EA8093D80089B505
:10468000806189BD89B5826089BD09B400FEFDCF16
:1046900061E070E080E090E00E94871B8091D8008C
:1046A0008F7C80618093D8008091E000807F809330
:1046B000E0008091E1008E7E8093E1008DE08093A8
:1046C000E200559A209AE091D805F091D90582E050
:1046D0008083E091D405F091D5051082E091D60554
:1046E000F091D7058FEC80831092E005E091DC0516
:1046F000F091DD0586E08083E091DA05F091DB053D
:10470000808180618083E091DA05F091DB05808112
:1047100088608083E091DA05F091DB058081806814
:104720008083E091DA05F091DB0580818F7D8083C5
:1047300068EB7BE080E090E00E94871B0E94BC0E4B
:104740000E94F00E64E670E080E090E00E94871B1B
:104750008EE10E94541061E070E080E090E00E94E1
:1047600040108AE393E00E94F40E64E670E080E07B
:1047700090E00E94871B8CEE94E00E94F40E62E0B1
:1047800070E080E090E00E9440108AE393E00E9495
:10479000F40E64E670E080E090E00E94871B87EFF3
:1047A00094E00E94F40E63E070E080E090E00E94EC
:1047B00040108AE00E94541083E095E00E94F40EBD
:1047C00068E873E180E090E00E94871B0E94F00E91
:1047D00064EF71E080E090E00E94871B8EE10E9410
:1047E000541061E070E080E090E00E94401088EC9E
:1047F00090E00E949C1F813009F482C08EE10E94EB
:10480000541062E070E080E090E00E94401089E186
:1048100095E00E94F40E8BE295E00E94F40E60EDAC
:1048200077E080E090E00E94871B66E08BE090E0FC
:104830000E949A1F60E08CE090E00E949A1F65E25F
:104840008DE090E00E949A1F60E08EE090E00E9470
:104850009A1F69E18FE090E00E949A1F60E080E17A
:1048600090E00E949A1F68E081E190E00E949A1F08
:1048700061E082E190E00E949A1F6CE083E190E0A9
:104880000E949A1F63EC84E190E00E949A1F6FE5FA
:1048900085E190E00E949A1F60E086E190E00E942E
:1048A0009A1F68E087E190E00E949A1F60E088E12B
:1048B00090E00E949A1F60E089E190E00E949A1FB8
:1048C00061E08DE190E00E949A1F6AE08EE190E045
:1048D0000E949A1F61E08FE190E00E949A1F60E0C1
:1048E00080E290E00E949A1F6EE181E290E00E94D7
:1048F0009A1F61E088EC90E00E949A1F0E94F00EDF
:104900008EE10E94541061E070E080E090E00E942F
:1049100040108BE395E00E94F40E63E070E080E0CD
:1049200090E00E9440108CE495E00E94F40E68EE46
:1049300073E080E090E00E94871B60E082E00E94CC
:104940004B1B60E083E00E944B1B62E084E00E940E
:104950004B1B83E79CE190931101809310018091A0
:104960006900836080936900E89A8BE090E00E9480
:104970009C1F80932E018CE090E00E941320BC01CC
:1049800080E090E00E94292720E030E048EC52E4EB
:104990000E94812660932A0170932B0180932C0141
:1049A00090932D018EE090E00E941320BC0180E0E6
:1049B00090E00E94292720E030E048EC52E40E9479
:1049C000812660932601709327018093280190939C
:1049D000290180E190E00E941320BC0180E090E07A
:1049E0000E94292720E030E048EC52E40E94812612
:1049F00060932201709323018093240190932501F9
:104A000082E190E00E949C1F91E0811101C090E042
:104A10009093210183E190E00E949C1F90E090938D
:104A2000200180931F0184E190E00E949C1F2AE0F6
:104A3000829FC001112490931E0180931D0185E186
:104A400090E00E949C1F2AE0829FC0011124909355
:104A50000301809302018DE190E00E949C1F91E090
:104A6000811101C090E090931C018EE190E00E94C2
:104A7000132090931B0180931A0180E290E00E9422
:104A80009C1F91E0811101C090E09093C80781E2E2
:104A900090E00E949C1F90E09093C7078093C60708
:104AA0006BE575E088EC95E00E94001A6DE875E012
:104AB00088EC95E00E94001A64E670E080E090E0E7
:104AC0000E94871B60E975E088EC95E00E94001A5F
:104AD0006DE875E088EC95E00E94001A64E670E0ED
:104AE00080E090E00E94871B0E9444010E944A15CA
:104AF000FBCF1F93FC0199278827BC01E8941191F3
:104B00001032E9F3193010F01E30C8F31B3251F0A7
:104B10001D3249F4689406C00E94A025610F711DE2
:104B2000811D911D119110531A30B0F33EF49095F0
:104B30008095709561957F4F8F4F9F4F1F9108957E
:104B4000592F482F372F262F660F771F881F991F41
:104B5000660F771F881F991F620F731F841F951F91
:104B6000660F771F881F991F0895F999FECF92BD90
:104B700081BDF89A992780B50895262FF999FECF1F
:104B80001FBA92BD81BD20BD0FB6F894FA9AF99A6A
:104B90000FBE019608950E940026A59F900DB49F18
:104BA000900DA49F800D911D11240895B7FF0C94C2
:104BB000CB250E94CB25821B930B0895A1E21A2ED0
:104BC000AA1BBB1BFD010DC0AA1FBB1FEE1FFF1FB1
:104BD000A217B307E407F50720F0A21BB30BE40B01
:104BE000F50B661F771F881F991F1A9469F7609548
:104BF0007095809590959B01AC01BD01CF01089502
:104C0000A29FB001B39FC001A39F700D811D11240D
:104C1000911DB29F700D811D1124911D0895505852
:104C2000BB27AA270E9427260C94A1270E9493271E
:104C300038F00E949A2720F039F49F3F19F426F4A7
:104C40000C9490270EF4E095E7FB0C948A27E92F4B
:104C50000E94B22758F3BA176207730784079507B3
:104C600020F079F4A6F50C94D4270EF4E0950B2EE1
:104C7000BA2FA02D0B01B90190010C01CA01A001AE
:104C80001124FF27591B99F0593F50F4503E68F109
:104C90001A16F040A22F232F342F4427585FF3CF4A
:104CA000469537952795A795F0405395C9F77EF41B
:104CB0001F16BA0B620B730B840BBAF09150A1F064
:104CC000FF0FBB1F661F771F881FC2F70EC0BA0FEA
:104CD000621F731F841F48F4879577956795B79572
:104CE000F7959E3F08F0B0CF9395880F08F099276D
:104CF000EE0F9795879508950E94662708F481E046
:104D000008950E9495260C94A1270E949A2758F096
:104D10000E94932740F029F45F3F29F00C948A27E2
:104D200051110C94D5270C9490270E94B22768F358
:104D30009923B1F3552391F3951B550BBB27AA2754
:104D400062177307840738F09F5F5F4F220F331F8E
:104D5000441FAA1FA9F335D00E2E3AF0E0E832D056
:104D600091505040E695001CCAF72BD0FE2F29D059
:104D7000660F771F881FBB1F261737074807AB072B
:104D8000B0E809F0BB0B802DBF01FF2793585F4FA0
:104D90003AF09E3F510578F00C948A270C94D52761
:104DA0005F3FE4F3983ED4F3869577956795B79582
:104DB000F7959F5FC9F7880F911D9695879597F98D
:104DC0000895E1E0660F771F881FBB1F6217730706
:104DD0008407BA0720F0621B730B840BBA0BEE1F1B
:104DE00088F7E09508950E94FA266894B1110C9412
:104DF000D52708950E94BA2788F09F5798F0B92FB9
:104E00009927B751B0F0E1F0660F771F881F991FFF
:104E10001AF0BA95C9F714C0B13091F00E94D427A6
:104E2000B1E008950C94D427672F782F8827B85FB6
:104E300039F0B93FCCF3869577956795B395D9F757
:104E40003EF490958095709561957F4F8F4F9F4F61
:104E50000895E89409C097FB3EF49095809570956D
:104E600061957F4F8F4F9F4F9923A9F0F92F96E9B6
:104E7000BB279395F695879577956795B795F1112B
:104E8000F8CFFAF4BB0F11F460FF1BC06F5F7F4FC8
:104E90008F4F9F4F16C0882311F096E911C07723DA
:104EA00021F09EE8872F762F05C0662371F096E8E3
:104EB000862F70E060E02AF09A95660F771F881FB2
:104EC000DAF7880F9695879597F90895990F000856
:104ED000550FAA0BE0E8FEEF16161706E807F907CC
:104EE000C0F012161306E407F50798F0621B730B67
:104EF000840B950B39F40A2661F0232B242B252BE8
:104F000021F408950A2609F4A140A6958FEF811D8A
:104F1000811D089597F99F6780E870E060E008952B
:104F20009FEF80EC089500240A94161617061806C1
:104F30000906089500240A9412161306140605069D
:104F40000895092E0394000C11F4882352F0BB0F2E
:104F500040F4BF2B11F460FF04C06F5F7F4F8F4F91
:104F60009F4F089557FD9058440F551F59F05F3FCC
:104F700071F04795880F97FB991F61F09F3F79F07B
:104F800087950895121613061406551FF2CF4695FD
:104F9000F1DF08C0161617061806991FF1CF86957F
:104FA0007105610508940895E894BB276627772763
:104FB000CB0197F908950E94662708F48FEF0895B2
:104FC0000E94F3270C94A1270E94932738F00E9497
:104FD0009A2720F0952311F00C948A270C9490279F
:104FE00011240C94D5270E94B22770F3959FC1F32A
:104FF000950F50E0551F629FF001729FBB27F00D87
:10500000B11D639FAA27F00DB11DAA1F649F6627DB
:10501000B00DA11D661F829F2227B00DA11D621F2A
:10502000739FB00DA11D621F839FA00D611D221FE4
:10503000749F3327A00D611D231F849F600D211DC8
:10504000822F762F6A2F11249F5750409AF0F1F04B
:1050500088234AF0EE0FFF1FBB1F661F771F881FB4
:1050600091505040A9F79E3F510580F00C948A273B
:105070000C94D5275F3FE4F3983ED4F3869577955B
:105080006795B795F795E7959F5FC1F7FE2B880F5A
:10509000911D9695879597F908950E946627880B2C
:1050A000990B0895DB018F939F930E94CB25BF91AD
:1050B000AF91A29F800D911DA39F900DB29F900D67
:1050C0001124089597FB072E16F4009407D077FD5E
:1050D00009D00E947C2807FC05D03EF4909581956C
:1050E0009F4F0895709561957F4F0895EE0FFF1FB4
:1050F0000590F491E02D0994AA1BBB1B51E107C058
:10510000AA1FBB1FA617B70710F0A61BB70B881F57
:10511000991F5A95A9F780959095BC01CD010895E6
:1051200081E090E0F8940C94B428FB01DC018D91AF
:10513000019080190110D9F3990B0895FB01DC014E
:1051400001900D920020E1F70895FB01DC01415030
:10515000504048F001900D920020C9F701C01D9207
:0C51600041505040E0F70895F894FFCF54
:10516C000A00B603FFFFFFFF00E100000000000093
:10517C00B213B213B213B213B213F401019E070CA3
:10518C0000010AD7A33D0000803EA470BD3E06017D
:10519C0060046D047A04D1028504960460037503DF
:1051AC00A704B304F0031C0440048F0500000000A6
:1051BC00DC144A1474142815A514831497140000D5
:1051CC0000005415C11547166A1575156F164B1648
:1051DC0000000000621C571CC220491C501C4D1CB6
:1051EC004A1C0000000009214A14C220C120C5201D
:1051FC00C120FCFF00000621491C00C18081000079
:10520C00004354004E6F727468004E6F72746845A0
:10521C0061737400536F7574684561737400536FD8
:10522C0075746800536F75746857657374004E6FAE
:10523C00727468576573740073706565643A002006
:10524C007C7C7C7C7C200048444F503A004C617440
:10525C0020636F6F72643A004C6E6720636F6F72DD
:10526C00643A0053617420233A00416C743A006331
:10527C006F757273653A006465677265653A0020F4
:10528C002B2B2B2B2B20004D696E205468726F74C6
:10529C00746C652000536572766F206869676820AE
:1052AC00706F736974696F6E004769766573206DF2
:1052BC006178206361626C6520736C61636B005074
:1052CC006F736974696F6E3A2000436C636B3A5369
:1052DC0061766520486F6C643A43616E63656C005F
:1052EC004D6178205468726F74746C65200053653E
:1052FC0072766F206C6F7720706F736974696F6E44
:10530C00004769766573204E4F206361626C65209F
:10531C00736C61636B005465737420536572766FA4
:10532C002052616E67652000280029202020202053
:10533C0000536572766F204D6F646500526576651B
:10534C00727365204D6F6465004E6F726D616C20D9
:10535C004D6F6465004E6F726D616C204D6F6465AE
:10536C00202000456E67696E652043796C696E6418
:10537C00657273200049676E6974696F6E20436FA4
:10538C00696C204D6F646500202020202020202097
:10539C0020202020202020202020202020004D61B3
:1053AC00782043796C696E646572730054696D651D
:1053BC00205A6F6E65204F6666736574200030004E
:1053CC0053746172747570205461726765742053E4
:1053DC007065656400556E6974206F66204D65615B
:1053EC0073757265004D504820004B504820005496
:1053FC00656D707475726174757265204D6F64653E
:10540C00200043656C7369757320202020200046B2
:10541C006172656E68656974200043656C736975AB
:10542C00732020202000436F6E74726173742020EF
:10543C00200053657420746F20796F7572206C692D
:10544C006B696E6700436F6E74726173743A2000FF
:10545C0050726F706F7274696F6E616C2047616906
:10546C006E0044656661756C742072617465203DD4
:10547C00202E333700526174653A2000496E7465F2
:10548C006772616C204761696E0064656661756C5A
:10549C0074203D202E32350053706565643A20002F
:1054AC0044657269766174697665204761696E003E
:1054BC0044656661756C74203D202E3038003E00CA
:1054CC004D696E205468726F74746C65004D617810
:1054DC00205468726F74746C650054657374205337
:1054EC006572766F00456E67696E652043796C69ED
:1054FC006E646572730054696D65205A6F6E652019
:10550C004F66667365740054656D702053656E73D9
:10551C006F7200436F6E747261737400434C00546D
:10552C0054006E616E00696E66006F7666005450B2
:10553C00005346004750524D4300474E524D4300D6
:10554C00475047474100474E474741005354454158
:10555C0044595041535300494E495449414C495ABE
:10556C00452000207761697420666F722047505384
:10557C00207369676E616C200020494E4954494183
:10558C004C495A45204D454D2020002020464F5275
:10559C0020562031382E31362020004143515549B8
:1055AC0052494E47205349474E414C002020504C05
:1055BC00454153452057414954200024504D544BEC
:1055CC003331342C302C312C302C302C302C302CE2
:1055DC00302C302C302C302C302C302C302C302CDF
:1055EC00302C302C302C302C302A3239000D0A0063
:1055FC0024504D544B3232302C3230302A3243004E
:10560C00202D002E00454E544552004241434B0084
:00000001FF
