:100000000C942F010C9496160C946F160C944816B1
:100010000C9421160C9457010C9457010C94FA156A
:100020000C9457010C9457010C94BD160C942F1787
:100030000C9457010C9457010C9457010C945701E0
:100040000C9457010C944E240C9457010C945701B6
:100050000C9457010C9457010C9457010C942521D2
:100060000C9457010C94A8190C9482190C94570104
:100070000C9457010C9457010C9457010C945701A0
:100080000C9457010C9457010C9457010C94570190
:100090000C944E220C9457010C9457010C94570168
:1000A0000C9457010C9457010C9457011809CB0973
:1000B0007E0AF70A970BAE0D130E730ED10E5A0F70
:1000C0004F106F11AF1EC11EC41ECB1ED21E001FCB
:1000D000071F141F211F2D1F2D1F2D1F2D1F2D1F0B
:1000E0002D1F2D1F2D1F2D1F2D1F2D1F2D1F2D1FB0
:1000F0002D1F2D1F2D1F2D1F2D1F2D1F2D1F2D1FA0
:100100002D1F2D1FAF1EBC1EC11EC41ECB1ED21E16
:10011000D91EE61EF31E59205C204B204F2055208F
:100120007D207D207D206020642068206E2072204C
:100130007D207820070605040100080A0B0C0D0934
:10014000080B000202020100090400000102020083
:100150000005240010010524010101042402060504
:100160002406000107058103100040090401000274
:100170000A00000007050202400000070583024054
:1001800000000403090412010002EF0201404123B0
:10019000368000010102030141726475696E6F20AF
:1001A0004C4C430041726475696E6F204C656F6EF4
:1001B0006172646F0000000000250028002B002EF3
:1001C000003100000000002300260029002C002F31
:1001D00000040404040403040502020202040302EE
:1001E00002020206060606060604040202020404CF
:1001F0000408020110408040102040804080080226
:100200000401804020100201108010204040200096
:1002100000000200090F0000030401000C000000B0
:1002200000000000000000000000000000000000CE
:100230000000240027002A002D003000005EBCE2F0
:10024000613FDD83C29C7E20A3FD1F41009D23BE34
:1002500046DB65F88C11AF32CA57E974132E1124AE
:100260001FBECFEFDAE0DEBFCDBF15E0A0E0B1E00A
:10027000ECE3F7E602C005900D92A236B107D9F77C
:1002800028E0A2E6B5E001C01D92A03AB207E1F76E
:1002900011E0CFE2D1E004C02197FE010E945E335D
:1002A000CE32D107C9F70E94EF290C949C330C94ED
:1002B00000002F923F924F925F926F927F928F92A7
:1002C0009F92AF92BF92CF92DF92EF92FF920F93E5
:1002D0001F93CF93DF93CDB7DEB7A7970FB6F894F0
:1002E000DEBF0FBECDBF80918405882339F060E06A
:1002F0008DE00E9410201092840507C061E08DE01F
:100300000E94102081E0809384050E941E26809127
:100310000A018823A1F00E94CF2864E670E080E003
:1003200090E00E94DF20E0909B05F0909C058EEA13
:1003300091E00E94C128C70199270E94191B809152
:10034000C1078823E1F11092C2076091C70770913D
:10035000C8078091C9079091CA070E9407322EEB07
:100360003CE443E95FE30E94BC3220E030E048EC2B
:1003700052E40E945D3120E030E048EC52E40E94FB
:10038000BC320E94CF3170939E0560939D05109200
:10039000D0076091D5077091D6078091D7079091CB
:1003A000D8070E94073220E030E048EC52E40E9477
:1003B0005D310E94CF3170938305609382050E9466
:1003C0001921C0907E05D0907F05E0908005F090C7
:1003D0008105C616D706E806F90608F0AAC00E94ED
:1003E0001921DC01CB0188579C4EAF4FBF4F809342
:1003F0007E0590937F05A0938005B093810581E0F1
:100400008093620554E3E52E51E0F52E809162055C
:100410008330C8F5F701849190917B0083FB00271E
:1004200000F910E0980145E0220F331F4A95E1F7EB
:100430009F7D292B20937B008770806480937C00B4
:1004400080917A00806480937A0080917A0086FDA2
:10045000FCCF609178008091790070E0782B072EB6
:10046000000C880B990B0E9407326093650570930E
:1004700066058093670590936805809162058F5F9C
:1004800080936205C3CF2DEC3CEC4CE052E46091CC
:1004900065057091660580916705909168050E94D9
:1004A0005D31609365057093660580936705909351
:1004B000680587E497E00E94DA1987E497E00E94D4
:1004C000871B0E94D63160936305613819F410923E
:1004D00063050FC08091210181110BC0F9E06F9F6E
:1004E000C001112465E070E00E944A33605E6093B1
:1004F00063058BE597E00E94DA198BE597E00E948F
:10050000871B0E94D63160936405613819F41092FC
:1005100064050FC08091210181110BC029E0629F09
:10052000C001112465E070E00E944A33605E609370
:1005300064050E94192100917A0510917B05209194
:100540007C0530917D05061717072807390780F4C9
:100550000E941921DC01CB0188519C4FAF4FBF4F46
:1005600080937A0590937B05A0937C05B0937D05DD
:1005700020913C0730913D07809122019091230109
:100580002817390709F075C00E94192100917605D6
:100590001091770520917805309179050617170796
:1005A0002807390708F065C00E941921DC01CB013A
:1005B0008053984FAF4FBF4F809376059093770548
:1005C000A0937805B093790582E10E94421B60E018
:1005D00070E080E090E00E942E1B81EB91E00E9491
:1005E000D32861E070E080E090E00E942E1B84EC54
:1005F00091E00E94D3280E941E268091C107882383
:1006000021F11092C2076091C7077091C8078091CD
:10061000C9079091CA070E9407322EEB3CE443E9D8
:100620005FE30E94BC3220E030E048EC52E40E94DC
:100630005D3120E030E048EC52E40E94BC320E9480
:10064000CF3170939E0560939D0560E070E080E07F
:1006500090E00E942E1B8DE093E00E94D32861E081
:1006600070E080E090E00E942E1B8DE093E00E94FD
:10067000D32880917505811109C080912B0190913B
:100680002C0190933D0780933C0729C2813019F4D7
:100690001092090103C081E080930901209138087C
:1006A0003091390840913A0850913B0860913008E8
:1006B0007091310880913208909133080E94EB309C
:1006C0004B015C0180910901882309F47AC020E084
:1006D00030E04AEF53E4C501B4010E94B7321091F3
:1006E000000187FD13C011110C94F91281E0809371
:1006F0000001C12CD12CE12CF12C8701A80197011C
:10070000C801B7010E94E1270C94F91220E030E003
:10071000A901C501B4010E945831181684F01123B3
:1007200071F010920001CC24C394D12CE12CF12C57
:100730008701A8019701C801B7010E94E1276091D4
:100740009D0570919E05072E000C880B990B0E9449
:100750000732609338087093390880933A08909371
:100760003B086091280170912901072E000C880B2D
:10077000990B0E9407326093300870933108809380
:1007800032089093330880910001882309F43FC018
:1007900020912D0130912E0140912F015091300177
:1007A0006091310170913201809133019091340157
:1007B000E0903501F0903601009137011091380139
:1007C00032C00E945E27BC01990F880B990B0E94D2
:1007D0000732609338087093390880933A089093F1
:1007E0003B086091070170910801072E000C880BEF
:1007F000990B0E9407326093300870933108809300
:10080000320890933308E12CF12C870106C01DECCF
:10081000E12E1CECF12E0CE41DE360E070E080E8BA
:100820009EE39B01AC01C0905608D09057080E94EF
:10083000E12780917608882309F443C10E94192199
:100840006F8F78A389A39AA380915E0890915F0827
:10085000A0916008B09161084F8D58A169A17AA15B
:10086000481B590B6A0B7B0B80916A0890916B08AF
:10087000A0916C08B0916D08481759076A077B076B
:1008800008F41FC1E0915808F091590880819181C6
:10089000A281B3818B8F9C8FAD8FBE8FE0915C085E
:1008A000F0915D089C01AD0160817181828193812D
:1008B0000E94EB304B015C01209166083091670883
:1008C00040916808509169086B8D7C8D8D8D9E8D4F
:1008D0000E94EB306B017C0120914C0830914D0857
:1008E00040914E0850914F08C501B4010E94BC329E
:1008F0002091620830916308409164085091650826
:100900000E94EC302B013C016093620870936308F5
:100910008093640890936508909177089BA3911148
:100920001AC0209148083091490840914A085091D6
:100930004B08C701B6010E94BC329B01AC01C30148
:10094000B2010E94EB306093620870936308809359
:100950006408909365084090620850906308609026
:1009600064087090650810917208009173083090C7
:10097000740820907508212F302F432D522DC3016C
:10098000B2010E94B73218162CF4812F902FA32D9C
:10099000B22D18C080916E0890916F08A0917008D8
:1009A000B09171088CA39DA3AEA3BFA39C01AD0120
:1009B000C301B2010E94583187FF0CC08CA19DA1D8
:1009C000AEA1BFA18093620890936308A0936408CE
:1009D000B09365089BA1992379F020914808309144
:1009E000490840914A0850914B08C501B4010E9442
:1009F000BC324B015C0103C0812C912C540120912D
:100A00005008309151084091520850915308C70145
:100A1000B6010E94BC329B01AC01609162087091EA
:100A2000630880916408909165080E94EB30A501ED
:100A300094010E94EC306B017C019B01AC01612FA1
:100A4000702F832D922D0E94583187FD16C0109172
:100A50006E0800916F083090700820907108212F67
:100A6000302F432D522DB601C7010E94583187FD0A
:100A700004C01C2D0D2D3E2C2F2CE0915A08F09116
:100A80005B08812F902FA32DB22D80839183A283A9
:100A9000B3838B8D9C8DAD8DBE8D809366089093B6
:100AA0006708A0936808B09369088F8D98A1A9A1E1
:100AB000BAA180935E0890935F08A0936008B093FA
:100AC00061086091340870913508809136089091E2
:100AD00037080E94CF3170933D0760933C078091A7
:100AE0003C0790913D070E944E1B809128019091F8
:100AF00029012AE030E0B9010E944A337093460789
:100B00006093450780919D0590919E05B9010E94D3
:100B10004A337093740560937305809126018111A7
:100B200012C0072E000C880B990B0E9407322BE78E
:100B300034E14EEC5FE30E94BC320E94CF317093EF
:100B40007405609373051092B407C090B507D090F8
:100B5000B607E090B707F090B807C701B60120E4E8
:100B600032E44FE050E00E94BA308091240190912D
:100B70002501820F911D9C012C50310937FD05C0C4
:100B8000309372052093710505C00C969093720501
:100B9000809371058091710590917205893191055D
:100BA0002CF048979093720580937105C701B601A8
:100BB00020E137E240E050E00E94BA30B4E68B2EEC
:100BC000912CA12CB12CCA01B901A50194010E945C
:100BD000BA307093700560936F05C701B601A50127
:100BE00094010E94BA30CA01B901A50194010E9482
:100BF000BA3070936E0560936D050E9419210091C3
:100C0000690510916A0520916B0530916C050617F6
:100C100017072807390708F044C00E941921DC0192
:100C2000CB018C509E4FAF4FBF4F8093690590937F
:100C30006A05A0936B05B0936C0500912201109199
:100C4000230180913C0790913D07B801681B790B07
:100C5000072E000C880B990B0E9407326B017C0158
:100C600080912B0190912C01B801681B790B072E04
:100C7000000C880B990B0E9407329B01AC01C70145
:100C8000B6010E945D3120E030E048EC52E40E9461
:100C9000BC32609301017093020180930301909331
:100CA0000401809126016091280170912901811130
:100CB0000EC0072E000C880B990B0E9407322BE701
:100CC00034E14EEC5FE30E94BC320E94CF31CB0195
:100CD0006AE070E00E944A337093460760934507CC
:100CE00080914507909146076AE070E00E944A3380
:100CF0007B018C01709344076093430790934207F4
:100D0000809341078AE00E94421B61E070E080E02E
:100D100090E00E942E1B80917105909172050E94B7
:100D20003C2987ED91E00E94D32880916F05909136
:100D300070050A9724F489ED91E00E94D3288091F0
:100D40006F05909170050E943C2987ED91E00E940B
:100D5000D32880916D0590916E050A9724F489ED52
:100D600091E00E94D32880916D0590916E050E94BC
:100D70003C298DE193E00E94D3288AE00E94421B27
:100D800063E070E082E190E00E942E1B6EEF82E053
:100D90000E94051B8BED91E00E94D32864E070E077
:100DA00082E190E00E942E1B6DEF82E00E94051B05
:100DB00080912601882319F08FED91E002C083EE27
:100DC00091E00E94D32860E070E080E090E00E9413
:100DD0002E1B87EE91E00E94D32860910101709153
:100DE000020180910301909104010E94CF31CB0157
:100DF0000E943C298DE193E00E94D32882E10E9469
:100E0000421B60E070E086E090E00E942E1B809123
:100E10007505811104C08EEE91E00E94D328809167
:100E20007505813071F48EE193E00E94D3288091A2
:100E30000701909108010E943C2987EF91E00E94F0
:100E4000D32880917505823009F049C00E0D1F1D11
:100E500017FF03C08BEF91E00BC080914307909187
:100E600044070A971CF48DE193E002C08EE193E001
:100E70000E94D328809143079091440797FF07C0B1
:100E800091958195910990934407809343078091B0
:100E90004307909144070E943C298EEF91E00E9405
:100EA000D328809141079091420797FF07C0919501
:100EB0008195910990934207809341078091410762
:100EC000909142070E943C2980912601882319F0C5
:100ED00080E092E002C085E092E00E94D3288AE0A0
:100EE0000E94421B62E070E080E090E00E942E1BB6
:100EF0008AE092E00E94D3286091650570916605B2
:100F000080916705909168050E944A1A8DE193E0EF
:100F10000E94D3288AE00E94421B63E070E080E0D8
:100F200090E00E942E1B8DE092E00E94D3288091D9
:100F30000001882319F083E192E002C087E192E08A
:100F40000E94D32864E070E080E090E00E942E1BB5
:100F50008BE192E00E94D328809164050E942929A8
:100F600080912101882319F080E292E002C083EF92
:100F700091E00E94D32865E070E080E090E00E945C
:100F80002E1B84E292E00E94D328809163050E9488
:100F9000292980912101882319F080E292E002C082
:100FA00083EF91E00E94D32866E070E080E090E05B
:100FB0000E942E1B89E292E00E94D3280E945E27A5
:100FC0000E943C298BE193E00E94D3288BEC0E9485
:100FD000421B60E070E080E090E00E942E1B66E122
:100FE0008EE20E94051BE0907305F090740594E674
:100FF000E916F10474F48EE292E00E94C12860E3E5
:101000008FE697E00E94AF2960E08FE697E00E94AC
:10101000AF290AE010E0C701B8010E944A33CB01B2
:101020000E943C2989EC0E94421B60E070E080E055
:1010300090E00E942E1B6BE28FE60E94051B8091C0
:10104000730590917405B8010E944A330E943C29AF
:101050008091AC058823E9F1809175058230B9F45F
:101060002091A8053091A9054091AA055091AB05A2
:10107000AAE0B0E00E94A730209128013091290118
:10108000620F731F709329016093280118C081308B
:10109000B1F42091A8053091A9054091AA0550917D
:1010A000AB05AAE0B0E00E94A73020910701309183
:1010B0000801620F731F709308016093070110927B
:1010C000A8051092A9051092AA051092AB051092DE
:1010D000AC0584E00E94E71F2091AE05892B21F426
:1010E0002F5F2093AE050EC0222351F0809175052D
:1010F0008F5F833018F48093750502C010927505D8
:101100001092AE058091AE05883010F40C94F21266
:101110000E94CF2884E10E94421B60E070E080E0E2
:1011200090E00E942E1B64EF71E080E090E00E944E
:10113000DF20A4E68A2E912CA12CB12C8091AE0543
:10114000883010F40C94F21281E392E00E94D328CC
:1011500064EF71E080E090E00E94DF2084E00E9474
:10116000E71F892BD9F38AE1E9E3F1E0DE0111966B
:1011700001900D928A95E1F7312CFE013196E30D35
:10118000F11DE30DF11D808191818254954011F094
:101190003394F3CF3A943B8E0E94CF2881E0809322
:1011A0002A01F2E0FF2E10E000E0BB8D2B2E312C47
:1011B0000E94D82682309105D1F024F4019769F07D
:1011C0000C9464128430910531F1089711F00C945D
:1011D00064120E94D2260C94641211110C946B12AA
:1011E000002311F40C949D1201500C94A312802F33
:1011F00090E00596821593052CF4153019F40F5FD5
:10120000E2E0FE2E812F90E0059714F00C9464121A
:101210001F5F0C946C12E12FF0E0E00FF11DEC3039
:10122000F10510F00C946412EA5AFF4F0C945E33EF
:10123000809122019091230190933D0780933C0778
:101240000E94CF288AE00E94421B60E070E080E0AC
:1012500090E00E942E1B8BE392E00E94D32861E075
:1012600070E080E090E00E942E1B89E492E00E94F2
:10127000D32862E070E080E090E00E942E1B8DE5B4
:1012800092E00E94D32864E070E080E090E00E9449
:101290002E1B83E792E00E94D32880912201909137
:1012A00023010E943C298BE193E00E94D32866E051
:1012B00070E080E090E00E942E1B8EE792E00E949A
:1012C000D3287EE9E72E77E0F72E80913C079091B6
:1012D0003D070E944E1B0E94D82682309105E1F006
:1012E0001CF4019751F0F1CF8430910509F448C006
:1012F000089759F70E94D226E8CF80912201909159
:1013000023018E39E7E09E072CF0F0922301E09252
:10131000220119C00A9613C08091220190912301E5
:1013200020912B0130912C01281739073CF0265FC2
:101330003F4F309323012093220105C00A979093D9
:1013400023018093220164E070E080E090E00E943D
:101350002E1B83E792E00E94D32880912201909176
:1013600023010E943C298BE193E00E94D3288091C5
:1013700022019091230190933D0780933C07A5CFD4
:1013800080912201909123016AE070E00E944A332B
:1013900084E190E0A3C480912B0190912C01909363
:1013A0003D0780933C070E94CF288AE00E94421BA1
:1013B00060E070E080E090E00E942E1B84E992E003
:1013C0000E94D32861E070E080E090E00E942E1B34
:1013D00082EA92E00E94D32862E070E080E090E030
:1013E0000E942E1B85EB92E00E94D32864E070E0FF
:1013F00080E090E00E942E1B83E792E00E94D328B9
:1014000080912B0190912C010E943C298BE193E06B
:101410000E94D32866E070E080E090E00E942E1BDE
:101420008EE792E00E94D32866EBE62E63E0F62E6C
:1014300080913C0790913D070E944E1B0E94D82648
:101440008230910509F11CF4019751F0F1CF8430FD
:10145000910509F448C0089759F70E94D226E8CFB1
:1014600080912B0190912C01209122013091230138
:10147000821793073CF02A50310930932C012093B6
:101480002B0114C00A960EC080912B0190912C0163
:10149000873BF3E09F072CF4F0922C01E0922B01A4
:1014A00005C00A9790932C0180932B0164E070E0B3
:1014B00080E090E00E942E1B83E792E00E94D328F8
:1014C00080912B0190912C010E943C298BE193E0AB
:1014D0000E94D32880912B0190912C0190933D077D
:1014E00080933C07A5CF80912B0190912C016AE05D
:1014F00070E00E944A3385E190E0F0C380912B01B7
:1015000090912C0190933D0780933C070E94CF2837
:101510008AE00E94421B60E070E080E090E00E9460
:101520002E1B8AEC92E00E94D32866E070E080E0F7
:1015300090E00E942E1B8EE792E00E94D328EE24BA
:10154000EA94FE2C5AE0D52E61E070E080E090E055
:101550000E942E1B8CED92E00E94D32880913C07C4
:1015600090913D070E943C298EED92E00E94D32885
:1015700064E670E080E090E00E94DF2080913C070C
:1015800090913D0720912B0130912C0128173907AC
:1015900034F021E030E030930601209305012091E2
:1015A0002201309123018217930724F0F092060163
:1015B000E09205014091050150910601D49E9001F1
:1015C000D59E300D1124820F931F90933D07809379
:1015D0003C070E944E1B0E94D8268430910509F4D6
:1015E000B2C7089709F0B0CF0E94D226ADCF0E94B3
:1015F000CF288AE00E94421B60E070E080E090E02B
:101600000E942E1B85EE92E00E94D32861E070E0DC
:1016100080E090E00E942E1B809127010E942929E2
:1016200080912701813051F462E070E080E090E029
:101630000E942E1B87EF92E00E94D32866E070E0A4
:1016400080E090E00E942E1B8EE792E00E94D3285B
:10165000FF24F39428E0E22E34E0D32E0E94D82613
:1016600082309105B9F11CF4019751F0F7CF843025
:10167000910509F457C0089789F70E94D226EECF4A
:1016800061E070E080E090E00E942E1B80912701D5
:10169000813021F4D092270184E029C0883060F4A1
:1016A0008E5F809327010E94292962E070E080E02C
:1016B00090E00E942E1BD2CFE092270188E00E948A
:1016C000292962E070E080E090E00E942E1B80E219
:1016D00093E025C061E070E080E090E00E942E1B66
:1016E00080912701853070F08250809327010E94FD
:1016F000292962E070E080E090E00E942E1B8AE0E1
:1017000093E00DC0F092270181E00E94292962E058
:1017100070E080E090E00E942E1B87EF92E00E9434
:10172000D3289CCF609127018BE090E0D7C28AE25A
:1017300096E00E94F0130E94F71C1092B407C0902C
:10174000B507D090B607E090B707F090B807C7018B
:10175000B60120E432E44FE050E00E94BA308091BC
:10176000240190912501820F911D0C979093720591
:1017700080937105C701B60120E137E240E050E0F7
:101780000E94BA30CA01B901A50194010E94BA3081
:101790007093700560936F05C701B601A5019401B0
:1017A0000E94BA30CA01B901A50194010E94BA3061
:1017B00070936E0560936D050E94CF288AE00E94A9
:1017C000421B60E070E080E090E00E942E1B8EE201
:1017D00093E00E94D32861E070E080E090E00E94F6
:1017E0002E1B80917105909172050E943C2987ED16
:1017F00091E00E94D32880916F05909170050A971F
:1018000024F489ED91E00E94D32880916F05909196
:1018100070050E943C2987ED91E00E94D3288091B9
:101820006D0590916E050A9724F489ED91E00E9470
:10183000D32880916D0590916E050E943C298CE122
:1018400093E00E94D32863E070E080E090E00E9483
:101850002E1B80912401909125010C970E943C2918
:101860008CE193E00E94D32866E070E080E090E095
:101870000E942E1B8EE792E00E94D3288AE296E017
:101880000E94F0130E94F71C1092B407C090B50795
:10189000D090B607E090B707F090B807C701B6013F
:1018A00020E432E44FE050E00E94BA3080912401FD
:1018B00090912501820F911D0C9790937205809352
:1018C0007105C701B60120E137E240E050E00E9417
:1018D000BA30CA01B901A50194010E94BA307093CF
:1018E000700560936F05C701B601A50194010E94C0
:1018F000BA30CA01B901A50194010E94BA307093AF
:101900006E0560936D0561E070E080E090E00E94FC
:101910002E1B62E370E080E090E00E94DF200E94D6
:10192000D8268230910509F469C01CF4019759F05A
:10193000C1C08430910509F4B5C0089709F0BAC058
:101940000E94D226B7C08091240190912501883150
:10195000910514F4019602C088E190E0909325016E
:10196000809324011092B4074090B5075090B607B9
:101970006090B7077090B807C301B20120E432E469
:101980004FE050E00E94BA30C0902401D090250171
:10199000C20ED11C76019CE0E91AF108F0927205A2
:1019A000E0927105C301B20120E137E240E050E06E
:1019B0000E94BA30CA01B901A50194010E94BA304F
:1019C0007093700560936F05C301B201A501940186
:1019D0000E94BA30CA01B901A50194010E94BA302F
:1019E00070936E0560936D05F7FE3EC0ACE0CA0EC5
:1019F000D11CD0927205C092710536C0809124012D
:101A0000909125011816190634F401979093250139
:101A10008093240104C01092250110922401109299
:101A2000B4076091B5077091B6078091B7079091A0
:101A3000B80720E432E44FE050E00E94BA308091D1
:101A4000240190912501820F911D9C012C50310998
:101A500037FD05C0309372052093710505C00C96C3
:101A60009093720580937105809171059091720534
:101A7000893191052CF048979093720580937105F8
:101A800063E070E080E090E00E942E1B80912401D2
:101A9000909125010C970E943C298CE193E00E94D3
:101AA000D32808C06091240183E190E00E9435268C
:101AB000F12C02C0FF24F39480917105909172057E
:101AC00097FF05C0489690937205809371058091A9
:101AD000710590917205893191052CF0489790938A
:101AE00072058093710561E070E080E090E00E94F3
:101AF0002E1B80917105909172050E943C2987ED03
:101B000091E00E94D32880916F05909170050A970B
:101B100024F489ED91E00E94D32880916F05909183
:101B200070050E943C2987ED91E00E94D3288091A6
:101B30006D0590916E050A9724F489ED91E00E945D
:101B4000D32880916D0590916E050E943C298CE10F
:101B500093E00E94D328F11091CEF5C40E94CF28C3
:101B60008AE00E94421B60E070E080E090E00E940A
:101B70002E1B80E493E00E94D32861E070E080E0B7
:101B800090E00E942E1B0E94392666E070E080E003
:101B900090E00E942E1B8EE792E00E94D32898E8E6
:101BA000E92E93E1F92E0E94D8268230910539F171
:101BB0001CF4019749F0F7CF8430910569F108973B
:101BC00091F70E94D226EFCF8091280190912901B0
:101BD0008838B3E19B072CF0F0922901E0922801AC
:101BE00005C00A96909329018093280161E070E076
:101BF00080E090E00E942E1B0E943926D4CF809175
:101C0000280190912901853FE1E09E071CF484EFB3
:101C100091E0E8CF0A97E6CF609128017091290101
:101C20008EE190E059C30E94CF288AE00E94421BB7
:101C300060E070E080E090E00E942E1B85E593E07C
:101C40000E94D32861E070E080E090E00E942E1BAB
:101C500080912601882319F080E092E002C085E09F
:101C600092E00E94D32866E070E080E090E00E945D
:101C70002E1B8EE792E00E94D328FF24F3940E944B
:101C8000D8268230910561F01CF4019749F0F7CF16
:101C900084309105E1F0089791F70E94D226EFCFAA
:101CA000809126018F258093260161E070E080E01D
:101CB00090E00E942E1B80912601882319F080E07D
:101CC00092E002C085E092E00E94D328D8CF8091B4
:101CD0002601882331F061E082E190E00E94352600
:101CE00032C460E0F9CF0E94CF288AE00E94421BF4
:101CF00060E070E080E090E00E942E1B85E693E0BB
:101D00000E94D32861E070E080E090E00E942E1BEA
:101D100080912101882319F088E793E002C085E8CB
:101D200093E00E94D32866E070E080E090E00E949B
:101D30002E1B8EE792E00E94D328FF24F3940E948A
:101D4000D8268230910561F01CF4019749F0F7CF55
:101D500084309105E1F0089791F70E94D226EFCFE9
:101D6000809121018F258093210161E070E080E066
:101D700090E00E942E1B80912101882319F080E9B8
:101D800093E002C085E893E00E94D328D8CF8091E9
:101D90002101882311F061E001C060E08DE190E055
:101DA0009DCF0E94CF288AE00E94421B60E070E035
:101DB00080E090E00E942E1B8CE993E00E94D328E3
:101DC00061E070E080E090E00E942E1B88EA93E0E2
:101DD0000E94D32864E070E080E090E00E942E1B17
:101DE0008BEB93E00E94D32880919B0590919C05FA
:101DF0000E943C2966E070E080E090E00E942E1B8B
:101E00008EE792E00E94D328E0909B05F0909C051D
:101E10008EEA91E00E94C128C70199270E94191BF0
:101E20000E94D82682309105E1F01CF4019749F018
:101E3000EBCF84309105C9F1089731F70E94D22683
:101E4000E3CF80919B0590919C05883291053CF0F1
:101E5000A8E2B0E0B0939C05A0939B0515C0019645
:101E60000FC080919B0590919C05853191053CF4B4
:101E7000E4E1F0E0F0939C05E0939B0505C0019739
:101E800090939C0580939B0564E070E080E090E077
:101E90000E942E1B8BEB93E00E94D32880919B0520
:101EA00090919C050E943C29AFCF60919B0581E2F7
:101EB00090E014CF0E94CF288AE00E94421B60E08D
:101EC00070E080E090E00E942E1B86EC93E00E9480
:101ED000D32861E070E080E090E00E942E1B88ED46
:101EE00093E00E94D32863E070E080E090E00E94DD
:101EF0002E1B8BEE93E00E94D32860912D017091F0
:101F00002E0180912F01909130010E944A1A66E0C3
:101F100070E080E090E00E942E1B8EE792E00E942D
:101F2000D32820E030E048EC52E460912D0170911C
:101F30002E0180912F01909130010E94BC320E94AD
:101F4000CF317B010E94D8268230910509F445C02B
:101F50001CF4019751F0F6CF8430910509F49BC031
:101F6000089781F70E94D226EDCF63E070E080E011
:101F700090E00E942E1B8BEE93E00E94D32820E07D
:101F800030E048EC52E460912D0170912E01809177
:101F90002F01909130010E94BC326B017C0120E046
:101FA00030E048EC52E40E94B73287FD0DC080E07B
:101FB00090E0A8ECB2E480932D0190932E01A093C1
:101FC0002F01B093300143C020E030E040E85FE3F0
:101FD000C701B6010E94EC3032C063E070E080E0DF
:101FE00090E00E942E1B8BEE93E00E94D32820E00D
:101FF00030E048EC52E460912D0170912E01809107
:102000002F01909130010E94BC326B017C0120E0D5
:1020100030E0A9010E94583118164CF010922D01A1
:1020200010922E0110922F011092300110C020E06A
:1020300030E040E85FE3C701B6010E94EB306093F7
:102040002D0170932E0180932F01909330014090C9
:102050002D0150902E0160902F0170903001C3012E
:10206000B2010E94CF317B0120E030E048EC52E425
:10207000C301B2010E945D3160932D0170932E0166
:1020800080932F01909330010E944A1A8DE193E0D2
:102090000E94D32857CFB7018CE090E01DC10E9469
:1020A000CF288AE00E94421B60E070E080E090E070
:1020B0000E942E1B82EF93E00E94D32861E070E023
:1020C00080E090E00E942E1B80E094E00E94D328E4
:1020D00063E070E080E090E00E942E1B8EE094E0D0
:1020E0000E94D328609131017091320180913301B7
:1020F000909134010E944A1A66E070E080E090E01E
:102100000E942E1B8EE792E00E94D32820E030E050
:1021100048EC52E4609131017091320180913301B9
:10212000909134010E94BC320E94CF317B010E9409
:10213000D8268230910509F46EC01CF4019751F045
:10214000F6CF8430910509F4C4C0089781F70E9446
:10215000D226EDCF63E070E080E090E00E942E1B7D
:102160008EE094E00E94D32820E030E048EC52E476
:10217000609131017091320180913301909134016D
:102180000E94BC326B017C0120E030E048EC52E45C
:102190000E94B73287FD0DC080E090E0A8ECB2E469
:1021A0008093310190933201A0933301B0933401B5
:1021B00010C020E030E040E85FE3C701B6010E94B4
:1021C000EC3060933101709332018093330190932E
:1021D0003401409031015090320160903301709091
:1021E0003401C301B2010E94CF317B0120E030E015
:1021F00048EC52E4C301B2010E945D3160933101A9
:102200007093320180933301909334010E944A1AF3
:102210008CE193E05BC063E070E080E090E00E94BE
:102220002E1B8EE094E00E94D32820E030E048ECA2
:1022300052E46091310170913201809133019091AB
:1022400034010E94BC326B017C0120E030E0A90126
:102250000E94583118164CF0109231011092320140
:10226000109233011092340110C020E030E040E8B9
:102270005FE3C701B6010E94EB30609331017093B8
:10228000320180933301909334014090310150909A
:1022900032016090330170903401C301B2010E9499
:1022A000CF317B0120E030E048EC52E4C301B201C1
:1022B0000E945D316093310170933201809333014C
:1022C000909334010E944A1A8AE193E00E94D32835
:1022D0002ECFB7018EE090E00E94C22634C10E944A
:1022E000CF288AE00E94421B60E070E080E090E02E
:1022F0000E942E1B86E194E00E94D32861E070E0EA
:1023000080E090E00E942E1B86E294E00E94D32899
:1023100063E070E080E090E00E942E1B8BEE93E083
:102320000E94D32860913501709136018091370168
:10233000909138010E944A1A66E070E080E090E0D7
:102340000E942E1B8EE792E00E94D32820E030E00E
:1023500048EC52E46091350170913601809137016B
:10236000909138010E94BC320E94CF317B010E94C3
:10237000D8268230910509F445C01CF4019751F02C
:10238000F6CF8430910509F49BC0089781F70E942D
:10239000D226EDCF63E070E080E090E00E942E1B3B
:1023A0008BEE93E00E94D32820E030E048EC52E42A
:1023B000609135017091360180913701909138011B
:1023C0000E94BC326B017C0120E030E048EC52E41A
:1023D0000E94B73287FD0DC080E090E0A8ECB2E427
:1023E0008093350190933601A0933701B093380163
:1023F00043C020E030E040E85FE3C701B6010E943F
:10240000EC3032C063E070E080E090E00E942E1B70
:102410008BEE93E00E94D32820E030E048EC52E4B9
:1024200060913501709136018091370190913801AA
:102430000E94BC326B017C0120E030E0A9010E94C7
:10244000583118164CF01092350110923601109246
:1024500037011092380110C020E030E040E85FE31F
:10246000C701B6010E94EB306093350170933601CD
:102470008093370190933801409035015090360198
:102480006090370170903801C301B2010E94CF31D2
:102490007B0120E030E048EC52E4C301B2010E942D
:1024A0005D316093350170933601809337019093CD
:1024B00038010E944A1A8DE193E00E94D32857CF39
:1024C000B70180E190E008CFF1E0FF1629F022E0AB
:1024D000F21281C038C011508B8D811708F4182F6B
:1024E000E12CF12C8AE00E94421BB70180E090E0D1
:1024F0000E942E1B8EE193E00E94D328B70180E05A
:1025000090E00E942E1B8EE193E00E94D3289FEF63
:10251000E91AF90AA6E0EA16F10421F78AE00E9416
:10252000421B612F70E080E090E00E942E1B84E34C
:1025300094E00E94D328F12C4EC091E0F91681F26C
:10254000A2E0FA1248C00E94CF28BB8DB63020F41A
:10255000712CC02ED12C1FC0FE0131967F01E00EE0
:10256000F11CE00EF11CC12CD12C8AE00E94421B10
:10257000B60181E090E00E942E1BD7018D919D91C4
:102580007D010E94D328BFEFCB1ADB0AE6E0CE160E
:10259000D10459F71EC0E72CF12C2E143F04CCF0C7
:1025A0008AE00E94421BB70181E090E00E942E1B4E
:1025B000F601EE0DFF1DEE0FFF1F81E090E08C0F86
:1025C0009D1FE80FF91F808191810E94D328739489
:1025D000E2CFFF24F39480912A0181110C94D80852
:1025E0000C949E0880910A01882381F010920A01C0
:1025F0000DC020E030E0A901C501B4010E945831AE
:10260000181614F40C949F030C949103A7960FB61C
:10261000F894DEBF0FBECDBFDF91CF911F910F9118
:10262000FF90EF90DF90CF90BF90AF909F908F90F2
:102630007F906F905F904F903F902F9008950895F6
:102640004091870550918805209185053091860538
:1026500042175307B4F49091E8009570E1F390911C
:10266000E80092FD19C08093F10080918705909158
:10267000880501968F739927892B19F48EEF809323
:10268000E8008091870590918805019690938805D0
:102690008093870581E0089580E00895DF92EF92AE
:1026A000FF920F931F93CF93DF93D82EF92EE42E32
:1026B000062F10E0C8010196880F0E94201383E0C6
:1026C0000E942013CD2DDF2D0C0F1D1FC017D10729
:1026D00089F0E7FE03C0FE01849101C088810E9459
:1026E0002013F82E80E00E9420138F212196811163
:1026F000EDCF01C081E0DF91CF911F910F91FF904D
:10270000EF90DF900895DF92EF92FF920F931F9367
:10271000CF93DF93D82E8A017B01E40EF51EEB01E7
:10272000CE15DF0571F0D7FE03C0FE01849101C014
:1027300088810E94201321968111F2CF8FEF9FEFA5
:1027400001C0C801DF91CF911F910F91FF90EF90D1
:10275000DF900895615030F02091F100FC0120835A
:102760000196F8CF289884E680938B050895CF9240
:10277000DF92EF92FF920F931F93CF93DF936C0141
:102780007A018B01C0E0D0E0CE15DF0581F0D801E1
:102790006D918D01D601ED91FC910190F081E02DBC
:1027A000C6010995892B11F02196EECF7E01C70154
:1027B000DF91CF911F910F91FF90EF90DF90CF901D
:1027C0000895FC01538D448D252F30E0842F90E037
:1027D000821B930B541710F0CF960895019708951C
:1027E000FC01918D828D981761F0828DDF01A80F19
:1027F000B11D5D968C91928D9F5F9F73928F90E03B
:1028000008958FEF9FEF0895FC01918D828D9817A9
:1028100031F0828DE80FF11D858D90E008958FEFE6
:102820009FEF0895FC01918D228D892F90E0805CAF
:102830009F4F821B91098F73992708958AE296E032
:102840000E94121421E0892B09F420E0822F0895C0
:10285000FC01848DDF01A80FB11DA35ABF4F2C913D
:10286000848D90E001968F739927848FA689B7890C
:102870002C93A089B1898C9182748C93938D848DD3
:10288000981306C00288F389E02D80818F7D8083B4
:102890000895EF92FF920F931F93CF93DF93EC0174
:1028A00081E0888F9B8D8C8D981305C0E889F9890C
:1028B000808185FD26C0F62E0B8D10E00F5F1F4F27
:1028C0000F731127E02E8C8DE8120CC00FB607FC99
:1028D000FACFE889F989808185FFF5CFCE010E9482
:1028E0002814F1CF8B8DFE01E80FF11DE35AFF4F45
:1028F000F0829FB7F8940B8FEA89FB898081806210
:1029000009C09FB7F894EE89FF896083E889F98947
:102910008081827480839FBF81E090E0DF91CF91BE
:102920001F910F91FF90EF900895CF93DF93EC01EB
:10293000888D8823C9F0EA89FB89808185FD05C0DF
:10294000A889B9898C9186FD0FC00FB607FCF5CF19
:10295000808185FFF2CFA889B9898C9185FFEDCF61
:10296000CE010E942814E7CFDF91CF91089580E037
:1029700090E0892B29F00E941E1481110C94000014
:102980000895CF93DF931F92CDB7DEB76983DC0143
:10299000ED91FC910280F381E02D41E050E0BE0119
:1029A0006F5F7F4F09950F90DF91CF91089583E07E
:1029B0008093E9008091F200882319F08AE38093E4
:1029C000E8000895FC018485958597FD0BC09FB7AD
:1029D000F89482E08093E9008091F2009FBF90E03C
:1029E000019608959FB7F89482E08093E900809162
:1029F000F2009FBF90E008950F931F93CF93DF9352
:102A00001F92CDB7DEB782E0898342E450E060E4F4
:102A100071E080E80E9483130E94D31FDC011296AC
:102A20000D911C9113970115110589F0D801ED91B5
:102A3000FC910280F381E02DBE016F5F7F4FC801E2
:102A4000099597FD04C0F80100851185ECCF8981B7
:102A50000F90DF91CF911F910F9108958F929F92C8
:102A6000AF92BF92CF92DF92EF92FF920F931F939C
:102A7000CF93DF936C017B018A018091160188233B
:102A800009F45CC080918C05882309F457C08091BB
:102A9000990580FF05C08091E00082608093E0008E
:102AA000E801B12C8AEFA82E93E0892E2AE3922E1A
:102AB000209711F4BB20D9F10E94C21F81110AC0D6
:102AC000AA94AA20D9F161E070E080E090E00E9431
:102AD000DF20EECF282F30E0C217D3070CF48C2F65
:102AE0009FB7F8948092E9002091E80025FF1DC06F
:102AF000282F30E0C21BD30BF701815020F0419109
:102B00004093F100FACFE20EF31EBB2019F0909231
:102B1000E8000AC08091E80085FD07C09092E800B7
:102B2000BB24B394209709F0B12C9FBFC1CF5D980F
:102B300084E680938A051016110644F081E090E047
:102B4000F6019383828380E090E001C0C801DF91A9
:102B5000CF911F910F91FF90EF90DF90CF90BF909A
:102B6000AF909F908F9008950E94C21F90E00895AB
:102B70000F931F93CF93DF931F92CDB7DEB78C01D6
:102B8000FC018485958597FF0EC0CE0101960E94B9
:102B9000941F019719F4898190E002C08FEF9FEF95
:102BA000F80195878487F801848595850F90DF91DA
:102BB000CF911F910F910895CF93DF931F92CDB7BF
:102BC000DEB7FC018485958597FD05C02FEF3FEFAB
:102BD000358724870BC0CE0101960E94941F019770
:102BE00019F4898190E002C08FEF9FEF0F90DF9181
:102BF000CF9108951F920F920FB60F9211242F9329
:102C00003F934F935F936F937F938F939F93AF9374
:102C1000BF93EF93FF93E0911F01F091200109957D
:102C2000FF91EF91BF91AF919F918F917F916F91A4
:102C30005F914F913F912F910F900FBE0F901F907A
:102C400018951F920F920FB60F9211242F933F9356
:102C50004F935F936F937F938F939F93AF93BF93A4
:102C6000EF93FF93E0911D01F0911E010995FF91F3
:102C7000EF91BF91AF919F918F917F916F915F91F4
:102C80004F913F912F910F900FBE0F901F9018956D
:102C90001F920F920FB60F9211242F933F934F93D1
:102CA0005F936F937F938F939F93AF93BF93EF93B4
:102CB000FF93E0911B01F0911C010995FF91EF91A9
:102CC000BF91AF919F918F917F916F915F914F9144
:102CD0003F912F910F900FBE0F901F9018951F924C
:102CE0000F920FB60F9211242F933F934F935F9340
:102CF0006F937F938F939F93AF93BF93EF93FF93C4
:102D0000E0911901F0911A010995FF91EF91BF919E
:102D1000AF919F918F917F916F915F914F913F9173
:102D20002F910F900FBE0F901F9018951F920F922A
:102D30000FB60F9211242F933F934F935F936F938E
:102D40007F938F939F93AF93BF93EF93FF93E09104
:102D50001701F09118010995FF91EF91BF91AF9183
:102D60009F918F917F916F915F914F913F912F91A3
:102D70000F900FBE0F901F9018951F920F920FB6D5
:102D80000F9211248F939F938091E1009091E10025
:102D9000937F9093E10083FF0FC01092E90091E0D0
:102DA0009093EB001092EC0092E39093ED00109260
:102DB0008C0598E09093F00082FF20C093E0909300
:102DC000E9009091F200992319F09AE39093E800BA
:102DD00090918A05992339F090918A0591509093AA
:102DE0008A05992389F190918B05992339F0909167
:102DF0008B05915090938B05992341F184FF10C06E
:102E00008091E2008E7E81608093E2008091E100FB
:102E10008F7E8093E100809199058E7E806111C044
:102E200080FF16C08091E2008E7E80618093E20078
:102E30008091E1008E7E8093E100809199058E7EE5
:102E400081608093990504C05D9ACDCF289AD6CF32
:102E50009F918F910F900FBE0F901F9018951F920A
:102E60000F920FB60F921124CF92DF92EF92FF9242
:102E70000F931F932F933F934F935F936F937F9382
:102E80008F939F93AF93BF93EF93FF93CF93DF9372
:102E9000CDB7DEB76C97DEBFCDBF1092E900809151
:102EA000E80083FFFBC168E0CE0145960E94AA13AB
:102EB00082EF8093E8008D8987FF05C09091E8003C
:102EC00090FFFCCF03C09EEF9093E800982F907680
:102ED00009F0C6C09E894F89588D2F89F88C9111B1
:102EE0000CC0803829F480919A058093F10002C0CB
:102EF0001092F1001092F10045C1913051F481110E
:102F000041C14130510509F03DC180919A058D7F45
:102F10000BC0933061F4811135C14130510509F086
:102F200031C180919A05826080939A052BC19530BA
:102F300049F48091E80080FFFCCF822F8068809365
:102F4000E30020C1963009F05EC00B8D1C8D22E09D
:102F50001092E9001092880510928705F21232C093
:102F600010928605109285050E94FC1499E0BE011E
:102F70006F5F7F4FDB01E92F1D92EA95E9F7998397
:102F8000FA8291E09E8390EA98879AEF9987209140
:102F9000870530918805275F3F4F3C832B838D83C6
:102FA0001092E9001092880510928705109386050B
:102FB0000093850549E050E080E00E9483130E9461
:102FC000FC14E0C010938605009385050E94D31F72
:102FD000DC0112960D911C9113970115110509F44E
:102FE000BBC0D801ED91FC910480F581E02DBE01BC
:102FF0006B5E7F4FC8010995009709F0C7C0F801C3
:1030000000851185EACF973009F445C1983021F445
:1030100081E08093F100B6C0993009F0B3C08370AD
:1030200009F039C1EAE5F1E081E031E096E3208181
:10303000211109C08EE78093EA001092EA008F897F
:1030400080938C059FC08093E9003093EB00219121
:103050002093EC009093ED008F5F873041F7EACF2B
:103060008B8D9C8D1092E900109288051092870537
:103070009093860580938505898D811153C08E8933
:103080009D89913A49F4813209F005C147E050E049
:103090006FE071E080E0BBC0913209F0FCC0833288
:1030A00069F48F89988DA0E0B0E080930B01909334
:1030B0000C01A0930D01B0930E0164C0803269F43D
:1030C0008091E80082FFFCCF67E08FE091E00E94F2
:1030D000AA138BEF8093E80055C0823209F052C0EA
:1030E0008F8980931601EEEFFFE7859194918B3FD6
:1030F0009C4D19F0E0E0F8E002C0EEEFFAE08091BC
:103100000F0190911001A0911101B0911201803B2B
:103110009440A105B10509F09EC08091160180FF81
:1031200079C099C00E94D31FFC010281138101154F
:10313000110509F4B0C0D801ED91FC910190F08126
:10314000E02DBE016B5E7F4FC801099581111AC049
:10315000F80100851185EBCFF1E0FF1609F44EC0B0
:10316000F3E0FF1298C08F89882309F44AC08230A7
:1031700089F440E860E184EA91E00E944E138823DC
:1031800009F489C08EEF8093E80088C018161906EC
:10319000CCF381C0813029F440E86BE088E991E00C
:1031A000ECCF833009F077C00E94D31FDC01129668
:1031B000ED90FC9013978E010F5F1F4F6801E11493
:1031C000F10479F0D701ED91FC910680F781E02DB3
:1031D000B801C7010995080F111DF701E084F184BA
:1031E000EECFD8011C92F60101900020E9F731974B
:1031F000BF016C197D0940E0C601BFCF66E871E0F0
:1032000002C062E871E0FB01449150E080E80E9456
:103210008313B8CFEE3F2AE0F20751F0808191810D
:103220008737A7E79A0721F09093FF0A8093FE0A59
:1032300087E797E791838083809160008093890579
:103240009BE088E10FB6F894A895809360000FBECC
:103250009093600097CF808191818737974709F0DD
:1032600091CFA895809160008861809360008091E3
:10327000890580936000EE3FBAE0FB0739F080914A
:10328000FE0A9091FF0A918380837CCF1092FF0AFF
:103290001092FE0A77CF81E28093EB006C960FB616
:1032A000F894DEBF0FBECDBFDF91CF91FF91EF91BC
:1032B000BF91AF919F918F917F916F915F914F914E
:1032C0003F912F911F910F91FF90EF90DF90CF9042
:1032D0000F900FBE0F901F9018956115710579F032
:1032E000FB0101900020E9F73197AF01461B570B16
:1032F000DC01ED91FC910280F381E02D099480E0E6
:1033000090E008951F920F920FB60F9211242F9301
:103310003F934F935F936F937F938F939F93AF935D
:10332000BF93EF93FF938AE296E00E942814FF91E7
:10333000EF91BF91AF919F918F917F916F915F912D
:103340004F913F912F910F900FBE0F901F901895A6
:103350001F920F920FB60F9211242F938F939F936A
:10336000EF93FF93E0913A06F0913B068081E09164
:103370004006F091410682FD12C090818091430683
:103380008F5F8F7320914406821751F0E0914306BE
:10339000F0E0E65DF94F958F8093430601C0808190
:1033A000FF91EF919F918F912F910F900FBE0F90F2
:1033B0001F9018958F929F92AF92BF92CF92DF92FB
:1033C000EF92FF920F931F93CF93DF93EC018E81C7
:1033D0009F810E94172440E06CEC8E819F810E94A7
:1033E000E323488164E48E819F810E94E3238A81E4
:1033F000882309F442C0E981E950E33040F4F0E069
:10340000EE0FFF1FED5AFE4F0081118102C00EEE3C
:1034100012E08B818823F9F0888181111CC00E9401
:1034200019214B015C016801110FEE08FF088E8124
:103430009F810E949023813001F10E941921DC01BB
:10344000CB018C199D09AE09BF0988159905AA05FC
:10345000BB0568F312C0B801110F880B990BDF91FF
:10346000CF911F910F91FF90EF90DF90CF90BF9081
:10347000AF909F908F900C94DF20DF91CF911F91A0
:103480000F91FF90EF90DF90CF90BF90AF909F9003
:103490008F9008958F929F92AF92BF92CF92DF92BA
:1034A000EF92FF926B017C018EE292E00E94C128B4
:1034B000A7019601C701B6010E942933882319F09C
:1034C00062E974E01AC046015701E894B7F82FEF9B
:1034D0003FEF4FE75FE7C501B4010E942933811137
:1034E00011C02FEF3FEF4FE75FE7C501B4010E9426
:1034F000583118163CF466E974E08FE697E00E94B4
:103500006D1976C02FEF3FEF4FE75FE4C701B601BB
:103510000E94B73218161CF46AE974E0EECF2FEF60
:103520003FEF4FE75FECC701B6010E94583187FDBE
:10353000F3CF20E030E0A901C701B6010E94583165
:1035400087FF09C06DE28FE697E00E94AF29F7FA86
:10355000F094F7F8F0942AE037ED43EA5BE3C70113
:10356000B6010E94EC304B015C010E94D6316B0128
:103570007C010E9405329B01AC01C501B4010E948F
:10358000EB304B015C014AE0C701B6010E94E6281E
:103590006EE28FE697E00E94AF2920E030E040E243
:1035A00051E4C501B4010E94BC324B015C010E9490
:1035B000D6316B01E12CF12C4AE0C701B6010E9423
:1035C000E628C701B6010E9405329B01AC01C50186
:1035D000B4010E94EB3020E030E040E251E40E9470
:1035E000BC320E94D63180E090E04AE00E94E6289A
:1035F00060E08FE697E0FF90EF90DF90CF90BF9074
:10360000AF909F908F900C94AF29CF93DF93D82FDA
:10361000C62F8EE994E00E94C1286D2F8FE697E0B7
:103620000E94AF296C2F8FE697E0DF91CF910C9429
:10363000AF29CF93DF938F3F910510F4682F08C017
:10364000EC016FEF8FE697E00E94AF296C2F6F5F60
:103650008FE697E0DF91CF910C94AF290F931F93E2
:10366000CF93DF938C01EB0182EA94E00E94C128A2
:10367000C8010E94191BCE01DF91CF911F910F91BC
:103680000C94191BCF93C82F85EA94E00E94C1289F
:103690006C2F8FE697E0CF910C94AF29BC019091ED
:1036A0003E079C3098F580913F0728E830E0281BC2
:1036B000310987FD3395220F331F220F331F621705
:1036C00073078CF08091400748E552E0481B510990
:1036D00087FD5395440F551F440F551F9B014617F7
:1036E00057070CF49A0122503109220F331F4FB7AC
:1036F000F894892F90E0FC01EE0FFF1F8E0F9F1FA3
:10370000FC01E95EF84F328321834FBF08954F9249
:103710005F926F927F928F929F92AF92BF92CF9261
:10372000DF92EF92FF920F931F93CF93DF93CDB76A
:10373000DEB761970FB6F894DEBF0FBECDBFDC01D8
:103740001696ED91FC911797138615861486DF0166
:103750001B9633961E92EA17FB07E1F7FC010681E0
:103760001781D8011D962C91211169C07C01C801D7
:103770000E941724811105C0F8011386158614864E
:1037800081C040E060EFC8010E94E323BB24B394F2
:10379000A12C912CCC24C394C8010E949023D82E34
:1037A000C8010E949023F1E0DF1203C08130D1F400
:1037B00039C02A2D30E0D8121FC0D8011B968C9139
:1037C000C81638F4F801E20FF31F83818B2151F4FE
:1037D00002C08C1539F0D12CB8E0BC1560F0F801AE
:1037E000C48609C0F801EA0DF11D83818B2983830A
:1037F000DD24D39409C09C2CF801E20FF31F9381C0
:103800008B2D8095892383836D2DC8010E94B4235D
:10381000C394BB0C19F4A394BB24B394F7E0FA153A
:1038200008F0BACF20E42C1550F4D8011B969C92D6
:103830001B9791100EC081E01D968C930AC0D80191
:103840001B961C921B971D961C921D971C961C92F2
:1038500019C0F8018381882391F333966E012AE021
:10386000C20ED11C055F1F4FD601560181918D9369
:10387000E017F107D9F767E0C6010E94782399891C
:10388000891729F060E070E08EEF92EC99C0D701C3
:1038900016968D919C9117970E941724882309F4FE
:1038A0008CC0F7010681178140E065E5C8010E94E0
:1038B000E3234E01F2E18F0E911CD6016D916D0153
:1038C00040E0C8010E94E3238C149D04B1F740E05E
:1038D0006EEBF701868197810E94E3238E010F5FD3
:1038E0001F4F2801D70116968D909C90179778E06E
:1038F000672E712CD12CCC24C394C4010E94902338
:103900008111DC28CC0CB1E06B1A7108B1F7F80119
:10391000D1928F01AE16BF0629F7D70116968D9169
:103920009C9117970E941724813009F046C068E0E7
:10393000C2010E947823998589133FC02A8130E013
:10394000C901982F8827990F990F990F6981B8E0BD
:103950006B9FB00111249C01262B372B8A85803167
:10396000C9F4688570E08F81FB01E81BF109CF0184
:103970009695982F8827979587950E944A3360518E
:103980007109207F53E0220F331F5A95E1F7620F30
:10399000731F01C0B9016138F4EE7F070CF472CFD8
:1039A000072E000C880B990B0E94073220E030E0B4
:1039B00040E05CE30E94BC3203C060E874EEEBCFF1
:1039C00061960FB6F894DEBF0FBECDBFDF91CF91E9
:1039D0001F910F91FF90EF90DF90CF90BF90AF902D
:1039E0009F908F907F906F905F904F9008950F936E
:1039F0001F93CF93DF93982F409120085091210877
:103A000060912208709123084F5F5F4F6F4F7F4F87
:103A10004093200850932108609322087093230854
:103A2000843209F459C2E0911A08853234F48A309C
:103A300071F08D3009F05EC20AC08A3241F08C32DA
:103A400009F058C280910708892780930708092F39
:103A5000EF3008F030C2F0E0E75FF74F108280915E
:103A60000808882309F41DC1209109083FEB320F93
:103A7000822F022E000C990B363010F4C79707C026
:103A80002156263018F48755910901C0C097282F78
:103A90002295207F30910A084FEB430F832F032E8E
:103AA000000C990B463010F4C79707C031563630DA
:103AB00018F48755910901C0C097820F90910708AB
:103AC0008913DBC080912C0890912D08A0912E08BD
:103AD000B0912F080196A11DB11D80932C089093E1
:103AE0002D08A0932E08B0932F0880911B088823DF
:103AF00099F08091240890912508A0912608B09112
:103B000027080196A11DB11D8093240890932508D4
:103B1000A0932608B0932708109118081123B9F133
:103B2000113009F084C085EA97E00E94262583EBD6
:103B300097E00E94262580911B08882309F477C00E
:103B400087E0E3E9F7E0A5E8B7E001900D928A95F8
:103B5000E1F787E0EAE9F7E0ACE8B7E001900D9221
:103B60008A95E1F70E9419216093A1077093A2073B
:103B70008093A3079093A40710938407109383075F
:103B800081EC97E00E940F258FEC97E04EC083EB0D
:103B900097E00E94262580911B08882329F187E061
:103BA000E3E9F7E0A5E8B7E001900D928A95E1F727
:103BB00087E0EAE9F7E0ACE8B7E001900D928A957A
:103BC000E1F70E9419216093A1077093A2078093E7
:103BD000A3079093A40781E08093840780938307D1
:103BE0008DED97E00E940F258091F5079091F607E3
:103BF000A091F707B091F8078093F1079093F2072F
:103C0000A093F307B093F4070E9419216093ED0786
:103C10007093EE078093EF079093F00781E0809315
:103C2000EC078093EB0789EF97E00E940F25C09186
:103C30001E08D0911F0811E0209709F43EC1E091C1
:103C40001E08F0911F0866A177A18EA19FA10E9476
:103C50007D33892B09F031C1BE01CE0140960E940F
:103C600086330E94192168A379A38AA39BA31DA36D
:103C70001CA30AA4DBA5C02DDFCF8091280890915A
:103C80002908A0912A08B0912B080196A11DB11D09
:103C90008093280890932908A0932A08B0932B08B2
:103CA0000AC190911908911142C068EA74E089E054
:103CB00098E00E947D33892B41F06EEA74E089E040
:103CC00098E00E947D33892B11F481E014C064EBED
:103CD00074E089E098E00E947D33892B41F06AEB23
:103CE00074E089E098E00E947D33892B19F41092EA
:103CF000180803C082E08093180880911C089091F6
:103D00001D0890931F0880931E08C0911E08D09133
:103D10001F08209709F4CFC069E078E08EA19FA129
:103D20000E947D3397FFC1C08AA59BA5EACFE09191
:103D30001808E23009F491C080910908882309F439
:103D40008CC020E2E29FF0011124E92B3197E93287
:103D5000F10508F082C0EE59FF4F0C945E3389E004
:103D600098E00E94C5256093B9077093BA078093C5
:103D7000BB079093BC0771C091E0813409F043C048
:103D800043C063E977E009C091E0833509F090E032
:103D90009093990762C06AE977E089E098E00E9411
:103DA0003D255BC091E0873509F090E09093A00736
:103DB00054C089E098E00E94C5256093CB077093BA
:103DC000CC078093CD079093CE0747C089E098E059
:103DD0000E94C5256093D9077093DA078093DB07AB
:103DE0009093DC073AC089E098E00E9455306093D8
:103DF000AB077093AC078093AD079093AE072DC0CF
:103E000091E081330CF490E090931B0826C089E088
:103E100098E00E9455306093F5077093F607809301
:103E2000F7079093F80719C089E098E00E94C5252C
:103E30006093030870930408809305089093060824
:103E40000CC089E098E00E94C5256093E707709355
:103E5000E8078093E9079093EA07C0911E08D09184
:103E60001F08209741F1E0911E08F0911F0866A1FC
:103E700077A18EA19FA10E947D33892BE1F428A513
:103E800039A58091190890E082179307A4F02817AC
:103E9000390739F440E150E069E078E0CE010E9452
:103EA0008D330AA4DBA5C02DDCCF892B21F0109225
:103EB0001F0810921E0880E001C081E0909119084F
:103EC0009F5F9093190810921A0891E00A3209F046
:103ED00090E09093080823C010921A0810921908D5
:103EE0001092070882E08093180810920808109238
:103EF0001B0814C0EE3040F481E08E0F80931A0846
:103F0000F0E0E75FF74F908380910808811106C0C9
:103F10002091070892279093070801C080E0DF9165
:103F2000CF911F910F91089520918C05211103C00D
:103F30008FEF9FEF08955FB7F89422E02093E90098
:103F40002091F20030E01216130614F421E030E064
:103F5000422FFC0184E6415038F0289880938B056D
:103F60009091F1009193F7CF2115310521F08091C7
:103F7000F200882319F05FBFC90108958BE6809392
:103F8000E800F9CF2FB7F89483E08093E90090918F
:103F9000E800892F807295FF04C09091F20080E4C0
:103FA000891B2FBF08958091910581110DC082E07A
:103FB00080938D0584E080938E0510929005109279
:103FC0008F0581E0809391058DE895E00895CF936A
:103FD000DF93282F30E0F901E15FFD4F8491F90173
:103FE000E051FE4FD491F901EF52FE4FC491CC2322
:103FF00091F081110E944120EC2FF0E0EE0FFF1FA5
:10400000ED53FE4FA591B491EC91ED2381E090E04A
:1040100021F480E002C080E090E0DF91CF9108952C
:104020001F93CF93DF93282F30E0F901E15FFD4F1D
:104030008491F901E051FE4FD491F901EF52FE4F06
:10404000C491CC23C1F0162F81110E944120EC2F86
:10405000F0E0EE0FFF1FEB54FE4FA591B4919FB718
:10406000F894111104C08C91D095D82302C0EC9122
:10407000DE2BDC939FBFDF91CF911F9108950E94AB
:10408000783390E0FC013197EF30F105B0F5E5575A
:10409000FF4F0C945E33809180008F7703C0809136
:1040A00080008F7D80938000089580918000877FBD
:1040B000F9CF84B58F7702C084B58F7D84BD089514
:1040C000809190008F7707C0809190008F7D03C012
:1040D00080919000877F8093900008958091C00028
:1040E0008F7703C08091C0008F7D8093C0000895BA
:1040F0008091C200877F8093C2000895CF93DF93A1
:1041000090E0FC01E051FE4F2491FC01EF52FE4F84
:104110008491882361F190E0880F991FFC01E25D92
:10412000FD4FC591D491FC01EB54FE4FA591B49184
:10413000611109C09FB7F8948881209582238883F4
:10414000EC912E230BC0623061F49FB7F894888104
:10415000322F309583238883EC912E2B2C939FBF95
:1041600006C08FB7F894E8812E2B28838FBFDF918C
:10417000CF9108953FB7F8948091A4059091A5053B
:10418000A091A605B091A70526B5A89B05C02F3F15
:1041900019F00196A11DB11D3FBFBA2FA92F982F6D
:1041A0008827820F911DA11DB11DBC01CD0142E0E8
:1041B000660F771F881F991F4A95D1F708958F9230
:1041C0009F92AF92BF92CF92DF92EF92FF926B01DC
:1041D0007C010E94BA204B015C01C114D104E104AE
:1041E000F104F1F00E94BA20DC01CB018819990991
:1041F000AA09BB09883E9340A105B10570F321E0EF
:10420000C21AD108E108F10888EE880E83E0981EF2
:10421000A11CB11CC114D104E104F10419F7DDCFD4
:10422000FF90EF90DF90CF90BF90AF909F908F90D6
:1042300008952FB7F8946091A0057091A105809121
:10424000A2059091A3052FBF08951F920F920FB65C
:104250000F9211242F933F938F939F93AF93BF930C
:104260008091A0059091A105A091A205B091A30510
:1042700030919F0523E0230F2D3720F40196A11DD7
:10428000B11D05C026E8230F0296A11DB11D209384
:104290009F058093A0059093A105A093A205B093DC
:1042A000A3058091A4059091A505A091A605B091C4
:1042B000A7050196A11DB11D8093A4059093A505A6
:1042C000A093A605B093A705BF91AF919F918F9141
:1042D0003F912F910F900FBE0F901F90189585ED75
:1042E0008093BC008091BC0084FDFCCF109204063A
:1042F00008954091E005262F30E0240F311D213232
:104300003105DCF4209104062430C9F4FC0180E07E
:1043100090E0861758F43091E0052191DC01A0541B
:10432000BA4FA30FB11D2C930196F3CF8091E005F6
:10433000680F6093E00580E0089581E0089582E0D1
:10434000089508958FEF9FEF08958FEF9FEF0895E1
:104350008091BF0590E09195819591090895CF9343
:10436000DF93CB01EA01642F0E947921CE01DF9116
:10437000CF910895CF93DF931F92CDB7DEB76983B6
:1043800061E0CE0101960E94792181E090E00F90DA
:10439000DF91CF91089582E00E94E71F019779F4A1
:1043A00081E08093BB058091A8059091A905A0911B
:1043B000AA05B091AB050197A109B1090DC01092F2
:1043C000BB058091A8059091A905A091AA05B0917F
:1043D000AB050196A11DB11D8093A8059093A90579
:1043E000A093AA05B093AB0581E08093AC05089536
:1043F0008F929F92AF92BF92CF92DF92EF92FF92F5
:104400000F931F930E94BA200091B7051091B80531
:104410002091B9053091BA05C090B305D090B4058C
:10442000E090B505F090B60546015701801A910A53
:10443000A20AB30A95018401060F171F281F391F0E
:104440000093B3051093B4052093B5053093B605DA
:104450006093B7057093B8058093B9059093BA053A
:104460008091AF059091B005A091B105B091B205D2
:104470000196A11DB11D8093AF059093B005A09347
:10448000B105B093B2051F910F91FF90EF90DF90AF
:10449000CF90BF90AF909F908F9008951F920F92F2
:1044A0000FB60F9211242F933F934F935F936F9307
:1044B0007F938F939F93AF93BF93EF93FF938091DD
:1044C000B900887F803609F49CC068F5883209F409
:1044D0005BC090F4803109F454C038F4882309F4A7
:1044E000F2C0883009F44DC0F2C0883109F44CC0E4
:1044F000803209F45DC0EBC0803409F468C048F430
:10450000803309F455C0883309F0E1C08093030675
:10451000D4C0803509F44FC0883509F45DC08834B3
:1045200009F0D5C0D2C0883909F4C3C0A8F48837CF
:1045300009F467C038F4883609F463C0803709F499
:1045400060C0C5C0883809F4B4C0803909F45FC0C0
:10455000803809F0BCC05BC0803B09F484C038F4EB
:10456000803A09F466C0883A09F47DC0B0C0803C46
:1045700009F4A3C0883C09F4A0C0883B09F486C0B4
:10458000A6C08091290610C0909128068091270628
:10459000981770F5E091280681E08E0F8093280629
:1045A000F0E0E95FF94F80818093BB0085EC82C029
:1045B000809303068AC0E091280681E08E0F8093E5
:1045C00028068091BB00F0E0E95FF94F808390916D
:1045D0002806809127066AC0E091280681E08E0FA8
:1045E000809328068091BB00F0E0E95FF94F80835B
:1045F00080910606811169C081E08093050684EAF6
:104600005DC083E08093040610920206CFCF8091B4
:104610000206803208F04DC0E091020681E08E0F64
:10462000809302068091BB00F0E0EE51FA4F808348
:10463000BDCF85EC8093BC001092040680910206E9
:10464000803230F4E0910206F0E0EE51FA4F108231
:104650006091020670E082EE95E0E0E0F0E00995FE
:104660001092020634C084E0809304061092E105A3
:104670001092E005E0E0F0E009958091E0058111FD
:1046800005C081E08093E0051092C005E091E1054E
:1046900081E08E0F8093E105F0E0E054FA4F8081D5
:1046A0008093BB009091E1058091E005981708F494
:1046B0007DCF85E88093BC000AC085EC8093BC0068
:1046C0001092040604C0109203060E946F21FF910D
:1046D000EF91BF91AF919F918F917F916F915F917A
:1046E0004F913F912F910F900FBE0F901F901895F3
:1046F000DC0180E0615098F02D91982F9227E92FEE
:10470000EF70F0E0E45CFD4F249192959F70E92FEB
:10471000F0E0E45BFD4FE491822F8E27EBCF08950C
:10472000FC0190810180F281E02DF8948181892B38
:1047300081832281892F809528232283A7E0B0E0FE
:104740001197F1F7218182238183A3E2B0E01197D1
:10475000F1F780817894EFECF0E03197F1F798234E
:1047600081E009F480E00895FC0190810180F281EC
:10477000E02D892F809560FF12C0F894228182235A
:1047800082838181892B8183A3E2B0E01197F1F7C5
:104790008281982B9283789487ED90E011C0F894F1
:1047A0002281822382838181892B8183AFEFB0E0D4
:1047B0001197F1F78281982B928378948FE090E0A3
:1047C0000197F1F70895DF92EF92FF920F931F93F5
:1047D000CF93DF93EC01D62EE42E08E010E0FF2407
:1047E000F39461E08D2D8F2109F460E0CE010E94E9
:1047F000B423FF0C01501109A1F7E11010C0F89487
:10480000E981FA8191818881809589238183E98179
:10481000FA81928188818095892382837894DF91BF
:10482000CF911F910F91FF90EF90DF900895DC01E1
:104830002C911196ED91FC911297F8948181922F11
:1048400090958923818378948DE743E050E08150EF
:1048500021F1DA011197F1F730813223C1F3F89495
:104860008281892382838181822B81837894ABE743
:10487000B7E01197F1F7F89481819823918383E150
:1048800091E00197F1F78081282381E009F080E031
:104890007894E3E6F6E03197F1F708951F920F92CE
:1048A0000FB60F9211242F933F934F935F936F9303
:1048B0007F938F939F93AF93BF93EF93FF938091D9
:1048C000BE0587FF05C010928500109284001BC0B2
:1048D0002091BE05022E000C330B80913B0790E027
:1048E0002817390784F48091BE05082E000C990B17
:1048F000FC01EE0FFF1F8E0F9F1FFC01E95EF84FBA
:10490000808186FD15C08091BE058F5F8093BE05B6
:104910002091BE05022E000C330B80913B0790E0E6
:1049200028173907C4F48091BE058C3064F113C098
:104930008091BE05082E000C990BFC01EE0FFF1FA5
:104940008E0F9F1FFC01E95EF84F808160E08F733E
:104950000E941020D8CF8091840090918500049609
:1049600080349C4918F480E49CE905C0809184005F
:1049700090918500049690938900809388008FEF32
:104980008093BE053BC020918400309185008091CA
:10499000BE05082E000C990BFC01EE0FFF1F8E0FB9
:1049A0009F1FFC01E95EF84F81819281820F931F66
:1049B00090938900809388008091BE05082E000C9A
:1049C000990BFC01EE0FFF1F8E0F9F1FFC01E95E8C
:1049D000F84F808186FF12C08091BE05082E000C22
:1049E000990BFC01EE0FFF1F8E0F9F1FFC01E95E6C
:1049F000F84F808161E08F730E941020FF91EF914A
:104A0000BF91AF919F918F917F916F915F914F91E6
:104A10003F912F910F900FBE0F901F901895CF933D
:104A2000DF93EC018A859B85AC85BD858E839F8352
:104A3000A887B9870E9419216A837B838C839D8311
:104A400081E089838883DF91CF910895CF93DF93AD
:104A5000EC018E819F81A885B9858A839B83AC8375
:104A6000BD830E9419216A877B878C879D8781E09F
:104A700089838883DF91CF9108952F923F924F923F
:104A80005F926F927F928F929F92AF92BF92CF92DE
:104A9000DF92EF92FF920F931F93CF93DF93D82F64
:104AA000C92F8B010E94553024E630E040E050E0F1
:104AB0000E94BA3049015A019B01AC0160E876E9D5
:104AC00088E990E00E942E336B017C01F80191820D
:104AD0008082ED2FFC2F2191822F022E000C990B4A
:104AE000C0970A97C0F32E3239F51F0180E8882E4F
:104AF00086E9982E88E9A82EB12C9AE0492E512CEF
:104B0000612C712CF101C1911F010C2E000CDD0BE9
:104B1000E097CA30D10580F4C501B401A301920128
:104B20000E94BA3049015A01DE010E94B230C60E1D
:104B3000D71EE81EF91EE6CFA5E0B0E0A70196015A
:104B40000E94A7306F5F7F4F8F4F9F4F23E030E071
:104B500040E050E00E94BA30F8012283338344835E
:104B600055831682DF91CF911F910F91FF90EF90A7
:104B7000DF90CF90BF90AF909F908F907F906F907D
:104B80005F904F903F902F900895FF920F931F9347
:104B9000CF93DF93EC01F8802DE2F21201C0219651
:104BA000CE010E9455309B01AC01A4E6B0E00E940A
:104BB000A730FE014991242F042E000C330B205303
:104BC00031092A303105A8F34E3241F52181022EF8
:104BD000000C330B205331092A303105F8F44AE038
:104BE000429F8001439F100D1124012E000C220BC7
:104BF000330B600F711F821F931F0281002E000C68
:104C0000110B005311090A30110540F4012E000C5C
:104C1000220B330B600F711F821F931F2DE2F212C4
:104C200007C090958095709561957F4F8F4F9F4FEE
:104C3000DF91CF911F910F91FF9008958AE296E046
:104C40000E941214892B39F08AE296E00E94F01338
:104C50000E94F71CF3CF8091C207882379F38091DB
:104C6000BD0581111092BD0508950C9499300C94E6
:104C70009130809126016091280170912901811164
:104C80000EC0072E000C880B990B0E9407322BE7F1
:104C900034E14EEC5FE30E94BC320E94CF31CB0185
:104CA0006AE070E00E944A337093460760934507BC
:104CB00080914507909146076AE070E00E944A3370
:104CC0007093440760934307909342078093410792
:104CD000860F971F97FF03C08BEF91E008C06A30E3
:104CE00071051CF48DE193E002C08EE193E00E9417
:104CF000D328809143079091440797FF07C091956F
:104D000081959109909344078093430780914307CD
:104D1000909144070E943C298EEF91E00E94D32895
:104D2000809141079091420797FF07C09195819527
:104D30009109909342078093410780914107909198
:104D400042070E943C2980912601882319F080E0C7
:104D500092E002C085E092E00C94D3280F931F9359
:104D6000CF938C0101960E943726C82FC8010E945C
:104D700037262C2F30E0A901582BCA01CF911F9163
:104D80000F9108951F93CF93DF93EC01162F672F98
:104D90000E943526612FCE010196DF91CF911F91A0
:104DA0000C94352610922A011092AE050C945901EC
:104DB000CF938091AC05882391F18091A8059091C3
:104DC000A905A091AA05B091AB05181619061A06F7
:104DD0001B0664F41092A8051092A9051092AA056A
:104DE0001092AB051092AC0581E065C08091A805DA
:104DF0009091A905A091AA05B091AB05B7FF0CC091
:104E00001092A8051092A9051092AA051092AB0560
:104E10001092AC0582E04FC01092AC054BC084E00C
:104E20000E94E71FC091BC05892BE9F4CF5FC093B6
:104E3000BC0568EC70E080E090E00E94DF20C830A4
:104E4000C0F11092BC050E94CF2884E10E94421B51
:104E500060E070E080E090E00E942E1B89E595E024
:104E60000E94D3281DC0CC2329F11092BC050E94BA
:104E7000CF2884E10E94421B60E070E080E090E077
:104E80000E942E1B83E595E00E94D32864EF71E019
:104E900080E090E00E94DF200E94CF2884E00BC0D9
:104EA00084E00E94E71F892BD9F30E94CF2888E075
:104EB00002C002C080E190E0CF9108958F929F924E
:104EC000AF92BF92CF92DF92EF92FF928090B305A4
:104ED0009090B405A090B505B090B6056091AF056F
:104EE0007091B0058091B1059091B2051092B30513
:104EF0001092B4051092B5051092B6051092AF0548
:104F00001092B0051092B1051092B2050E940532C0
:104F100020E03BE147EB5AE40E94BC326B017C018C
:104F2000C501B4010E9405329B01AC01C701B60165
:104F30000E945D316B017C016091270170E080E08F
:104F400090E00E9407329B01AC01C701B6010E94AC
:104F50005D310E94CF319B01AC01AAE0B0E00E941C
:104F6000A730CB01FF90EF90DF90CF90BF90AF9034
:104F70009F908F90089561E080917E070E947E202F
:104F800061E080917F070E947E2061E08091800730
:104F90000E947E2061E0809180070E94102060E0E6
:104FA00080917E070E94102060E080917F070E9420
:104FB000102080918107882319F060E00C947E20F6
:104FC00008954F925F926F927F928F929F92AF92CD
:104FD000BF92CF92DF92EF92FF920F931F93CF93E6
:104FE000DF9300D000D0CDB7DEB74B015C012901C3
:104FF0003A01E982FA820B831C8320E030E0A901A8
:105000000E94583187FDA8C020E030E0A901C3010B
:10501000B2010E94583187FD9FC020E030E0A90115
:10502000C801B7010E94583187FD96C0D092570839
:10503000C092560881E0CA94CD2809F080E08093A0
:10504000770880923C0890923D08A0923E08B0926A
:105050003F08409240085092410860924208709286
:10506000430889819A81AB81BC81809344089093E5
:105070004508A0934608B093470860916A0870916C
:105080006B0880916C0890916D080E94053220E0B9
:1050900030E04AE754E40E945D316B017C0180926C
:1050A000480890924908A0924A08B0924B089B0188
:1050B000AC01C301B2010E94BC322B013C016093E0
:1050C0004C0870934D0880934E0890934F08A701A9
:1050D000960169817A818B819C810E945D316B018F
:1050E0007C0160935008709351088093520890930C
:1050F00053088091540890915508019769F5A501CE
:10510000940160E070E0CB010E94EB3060934808AE
:105110007093490880934A0890934B08A301920129
:1051200060E070E0CB010E94EB3060934C0870931C
:105130004D0880934E0890934F08A701960160E0B8
:1051400070E0CB010E94EB306093500870935108DF
:1051500080935208909353080F900F900F900F90E8
:10516000DF91CF911F910F91FF90EF90DF90CF9043
:10517000BF90AF909F908F907F906F905F904F9077
:105180000895CF93DF93EC016991662329F08FE6B0
:1051900097E00E94AF29F8CFDF91CF9108958EE577
:1051A00095E00C94C128CF93DF93EC018EE292E05E
:1051B0000E94C128BE018FE697E00E946D1960E051
:1051C0008FE697E0DF91CF910C94AF298F929F9259
:1051D000AF92BF920F931F93CF93DF93CDB7DEB7FC
:1051E000A1970FB6F894DEBF0FBECDBF19A2423013
:1051F00008F44AE08E010F5D1F4F842E912CA12CE4
:10520000B12CA50194010E94BA30E62FB901CA0160
:1052100001501109EA3014F4E05D01C0E95CD801E5
:10522000EC93232B242B252B61F7B8018FE697E015
:105230000E946D19A1960FB6F894DEBF0FBECDBFC8
:10524000DF91CF911F910F91BF90AF909F908F9062
:105250000895CF93C82F8EE292E00E94C1286C2F50
:1052600070E080E090E04AE00E94E62860E08FE68F
:1052700097E0CF910C94AF29CF92DF92EF92FF92FB
:105280006C018EE292E00E94C1280D2C000CEE0809
:10529000FF08F7FE0EC06DE28FE697E00E94AF298F
:1052A00066277727CB016C197D098E099F094AE093
:1052B00003C04AE0C701B6010E94E62860E08FE61D
:1052C00097E0FF90EF90DF90CF900C94AF29089576
:1052D00080E090E00895FF920F931F93CF93DF93A8
:1052E000EC0161E089890E94102061E089890E94B7
:1052F00010208A890E94E71F892BD9F360E08989F1
:105300000E94102060E089890E94102060E0898955
:105310000E94102098E0F92E00E010E0000F111F0D
:1053200061E08F850E9410208A890E94E71F892BE7
:1053300009F0016060E08F850E941020FA94F1105E
:10534000EDCF61E089890E941020C801DF91CF91E3
:105350001F910F91FF90089504970C946B29CF92A1
:10536000DF92EF92FF920F931F93CF93DF93EC01A5
:10537000E62E60E089890E94102060E089890E9401
:10538000102060E089890E941020DF84C88807E02F
:1053900010E0F12CB701002E02C0759567950A94B4
:1053A000E2F761708C2D0E94102061E08D2D0E942B
:1053B000102060E08D2D0E9410200150110950F73F
:1053C00061E089890E94102081E090E0DF91CF9117
:1053D0001F910F91FF90EF90DF90CF9008957894F8
:1053E00084B5826084BD84B5816084BD85B58260EA
:1053F00085BD85B5816085BD80916E00816080939B
:105400006E00109281008091810082608093810003
:105410008091810081608093810080918000816013
:1054200080938000809191008260809391008091B0
:1054300091008160809391008091900081608093C1
:1054400090008091C10084608093C1008091C10070
:1054500082608093C1008091C10081608093C1000F
:105460008091C30081608093C3008091C0008260FE
:105470008093C0008091C20081608093C2008091BF
:105480007A00846080937A0080917A0082608093B1
:105490007A0080917A00816080937A0080917A000E
:1054A000806880937A0010928C0510929A05109271
:1054B00099058091D70081608093D70080EA80931E
:1054C000D80089B5806189BD89B5826089BD09B47C
:1054D00000FEFDCF61E070E080E090E00E94DF2000
:1054E0008091D8008F7C80618093D8008091E0000B
:1054F000807F8093E0008091E1008E7E8093E100C8
:105500008DE08093E200559A209A8FEF9FEF909361
:10551000D4068093D30664E670E080E090E00E94B9
:10552000DF20E0913A06F0913B0682E08083E09133
:105530003606F09137061082E0913806F091390670
:105540008FEC808310924206E0913E06F0913F0678
:1055500086E08083E0913C06F0913D068081806189
:105560008083E0913C06F0913D06808188608083D5
:10557000E0913C06F0913D06808180688083E09157
:105580003C06F0913D0680818F7D808368EB7BE057
:1055900080E090E00E94DF200E94BB270E94CF287D
:1055A00064E670E080E090E00E94DF208EE10E94DF
:1055B000421B61E070E080E090E00E942E1B8CE1D5
:1055C00093E00E94D32864E670E080E090E00E94BF
:1055D000DF2080EC94E00E94D32862E070E080E05D
:1055E00090E00E942E1B89E193E00E94D32864E69C
:1055F00070E080E090E00E94DF208BEC94E00E945D
:10560000D32863E070E080E090E00E942E1B81EDE3
:1056100094E00E94D32861E77DE388E991E40E9449
:105620004A1A68EB7BE080E090E00E94DF200E9455
:10563000CF2864EF71E080E090E00E94DF2088ECEA
:1056400090E00E943726813009F47FC08EE10E94ED
:10565000421B62E070E080E090E00E942E1B8CED27
:1056600094E00E94D32860ED77E080E090E00E9413
:10567000DF2066E08BE090E00E94352660E08CE061
:1056800090E00E94352665E28DE090E00E9435268C
:1056900060E08EE090E00E94352669E18FE090E0C6
:1056A0000E94352660E080E190E00E94352668E0A7
:1056B00081E190E00E94352661E082E190E00E9465
:1056C00035266CE083E190E00E94352663EC84E1AE
:1056D00090E00E9435266FE585E190E00E94352636
:1056E00060E086E190E00E94352668E087E190E086
:1056F0000E94352660E088E190E00E94352660E057
:1057000089E190E00E94352661E08DE190E00E9401
:1057100035266AE08EE190E00E94352661E08FE157
:1057200090E00E9435266EE181E290E00E943526ED
:1057300061E088EC90E00E9435260E94CF2864EF5B
:1057400071E080E090E00E94DF208EE10E94421B29
:1057500061E070E080E090E00E942E1B8EEE94E00D
:105760000E94D32863E070E080E090E00E942E1B4E
:105770008FEF94E00E94D32868EE73E080E090E021
:105780000E94DF2060E082E00E947E2060E083E0F3
:105790000E947E2062E084E00E947E208BEC91E2F9
:1057A0009093180180931701809169008360809322
:1057B0006900E89A88EF91E29093200180931F019D
:1057C00080916A008F7C806180936A00EE9A80915C
:1057D0003E078C3008F051C061E085E00E947E20D9
:1057E00080913E07E82FF0E09F01220F331FE20F68
:1057F000F31FE95EF84F9081907C95609083109242
:105800003F07109240076CE00E943E339CE0899F66
:10581000B001112440E050E09B01240F351FF90135
:10582000EE0FFF1F2E0F3F1FF901E95EF84F908129
:1058300096FD16C04F5F5F4F4C30510569F78111DF
:105840000FC01092800082E080938100109285004A
:1058500010928400B19A80916F00826080936F00F3
:10586000E0913E07F0E0CF01880F991FE80FF91F84
:10587000E95EF84F80818064808360919D0570911E
:105880009E05072E000C880B990B0E94073260932F
:1058900038087093390880933A0890933B086091D8
:1058A000280170912901072E000C880B990B0E948A
:1058B00007326093300870933108809332089093D8
:1058C000330880917608811148C0E0915A08F09120
:1058D0005B08C080D180E280F380C0926208D092E1
:1058E0006308E0926408F0926508E0915808F0912E
:1058F000590880819181A281B38180936608909339
:105900006708A0936808B093690880907208909027
:105910007308A0907408B0907508A5019401C701A0
:10592000B6010E94B732181684F080906E089090ED
:105930006F08A0907008B0907108A5019401C7018C
:10594000B6010E94583187FF08C080926208909289
:105950006308A0926408B092650881E0809376089D
:105960008BE090E00E943726809327018CE090E046
:105970000E94AE26BC0180E090E00E94053220E04B
:1059800030E048EC52E40E945D3160932D01709349
:105990002E0180932F01909330018EE090E00E94C1
:1059A000AE26BC0180E090E00E94053220E030E0AD
:1059B00048EC52E40E945D316093310170933201F2
:1059C000809333019093340180E190E00E94AE26F1
:1059D000BC0180E090E00E94053220E030E048EC1D
:1059E00052E40E945D3160933501709336018093DB
:1059F00037019093380182E190E00E94372691E0D0
:105A0000811101C090E09093260183E190E00E9413
:105A1000372690E0909325018093240184E190E063
:105A20000E9437269AE0899FE0011124D093230138
:105A3000C093220185E190E00E9437269AE0899F79
:105A40008001112410932C0100932B018DE190E033
:105A50000E94372691E0811101C090E090932101CE
:105A60008EE190E00E94AE26909329018093280158
:105A700081E290E00E94372690E090939C0580930D
:105A80009B05BE01DD0F880B990B0E9407324B016D
:105A90005C01B801012E000C880B990B0E940732A3
:105AA0006B017C019B01AC01C501B4010E9458311E
:105AB00018160CF061C0C0926E08D0926F08E09288
:105AC0007008F09271088092720890927308A09208
:105AD0007408B0927508C0915A08D0915B0848804C
