:100000000C942F010C94E1170C94BA170C949317CD
:100010000C946C170C9457010C9457010C944517D1
:100020000C9457010C9457010C9408180C947A18EE
:100030000C9457010C9457010C9457010C945701E0
:100040000C9457010C94DE1F0C9457010C9457012B
:100050000C9457010C9457010C9457010C942326CF
:100060000C9457010C941F1C0C94F91B0C94570111
:100070000C9457010C9457010C9457010C945701A0
:100080000C9457010C9457010C9457010C94570190
:100090000C946E1D0C9457010C9457010C9457014D
:1000A0000C9457010C9457010C945701A10A540B5E
:1000B000070C800C200D370F9C0FFC0F5A10E3101B
:1000C000D811F8128526882677267B268126A92630
:1000D000A926A9268C26902694269A269E26A9260D
:1000E000A4266228742877287E288528B328BA2871
:1000F000C728D428E028E028E028E028E028E028E5
:10010000E028E028E028E028E028E028E028E028AF
:10011000E028E028E028E028E028E028E028E0289F
:10012000E02862286F28742877287E2885288C2864
:100130009928A628070605040100080A0B0C0D09DA
:10014000080B000202020100090400000102020083
:100150000005240010010524010101042402060504
:100160002406000107058103100040090401000274
:100170000A00000007050202400000070583024054
:1001800000000403090412010002EF0201404123B0
:10019000368000010102030141726475696E6F20AF
:1001A0004C4C430041726475696E6F204C656F6EF4
:1001B0006172646F00005EBCE2613FDD83C29C7EC1
:1001C00020A3FD1F41009D23BE46DB65F88C11AFC7
:1001D00032CA57E97400000000240027002A002DCD
:1001E00000300000000000250028002B002E003108
:1001F00000000000002300260029002C002F00042E
:1002000004040404030405020202020403020202BD
:100210000206060606060604040202020404040896
:1002200002011040804010204080408008020401FC
:10023000804020100201108010204040200000006B
:100240000200090F0000030401000C000000000080
:100250000000000000000000000000001B2B112423
:100260001FBECFEFDAE0DEBFCDBF15E0A0E0B1E00A
:10027000E0EAFAE602C005900D92A836B107D9F778
:1002800028E0A8E6B5E001C01D92A23CB207E1F764
:1002900011E0CFE2D1E004C02197FE010E941035A9
:1002A000CE32D107C9F70E94E82D0C944E350C943C
:1002B00000002F923F924F925F926F927F928F92A7
:1002C0009F92AF92BF92CF92DF92EF92FF920F93E5
:1002D0001F93CF93DF93CDB7DEB7A7970FB6F894F0
:1002E000DEBF0FBECDBF80919B05882339F060E053
:1002F0008DE00E94C32910929B0507C061E08DE04C
:100300000E94C32981E080939B050E94AE218091C9
:1003100008018823A1F00E947A2364E670E080E05F
:1003200090E00E942E2AE090A708F090A8088DEA9D
:1003300091E00E946C23C70199270E9412248091AA
:10034000BA078823E1F11092BB076091C007709152
:10035000C1078091C2079091C3070E94B9332EEB69
:100360003CE443E95FE30E946E3420E030E048EC77
:1003700052E40E940F3320E030E048EC52E40E9447
:100380006E340E9481337093AA086093A90810927A
:10039000C9076091CE077091CF078091D0079091E7
:1003A000D1070E94B93320E030E048EC52E40E94CB
:1003B0000F330E94813370939A05609399050E94D0
:1003C0001726C0909505D0909605E0909705F0907F
:1003D0009805C616D706E806F90608F0AAC00E94D6
:1003E0001726DC01CB0188579C4EAF4FBF4F80933F
:1003F000950590939605A0939705B093980581E095
:100400008093680504E3E02E01E0F02E80916805FA
:100410008330C8F5F701849190917B0083FB00271E
:1004200000F910E0980115E0220F331F1A95E1F74B
:100430009F7D292B20937B008770806480937C00B4
:1004400080917A00806480937A0080917A0086FDA2
:10045000FCCF609178008091790070E0782B072EB6
:10046000000C880B990B0E94B9336093710570934F
:1004700072058093730590937405809168058F5F72
:1004800080936805C3CF2DEC3CEC4CE052E46091C6
:1004900071057091720580917305909174050E94A9
:1004A0000F33609371057093720580937305909379
:1004B000740580E497E00E946E1F80E497E00E943C
:1004C00080240E94883360936F05613819F410927C
:1004D0006F050FC080912E0181110BC0F9E06F9F55
:1004E000C001112465E070E00E94FC34605E6093FE
:1004F0006F0584E597E00E946E1F84E597E00E94F7
:1005000080240E94883360937005613819F410923A
:1005100070050FC080912E0181110BC029E0629FF0
:10052000C001112465E070E00E94FC34605E6093BD
:1005300070050E9417260091910510919205209157
:10054000930530919405061717072807390708F017
:1005500066C00E941726DC01CB0188519C4FAF4F2B
:10056000BF4F8093910590939205A0939305B0930C
:1005700094058091990590919A059C012751310924
:100580002D32310530F42EE42093890525E42093A3
:100590008A059C01245431092D32310530F425E4BB
:1005A0002093890520E220938A059C012157310977
:1005B0002D32310530F423E52093890525E420937D
:1005C0008A059C012E5931092D32310530F423E57D
:1005D0002093890520E220938A059C012B5C310938
:1005E0002D32310530F423E52093890527E520934A
:1005F0008A059C01285F31092D32310530F427E549
:100600002093890520E220938A05855291408D9799
:1006100030F48EE48093890587E580938A052091E4
:1006200035073091360780912F01909130012817BE
:10063000390709F075C00E941726009184051091B2
:10064000850520918605309187050617170728072D
:10065000390708F065C00E941726DC01CB018053E2
:10066000984FAF4FBF4F8093840590938505A0931B
:100670008605B093870582E10E943B2460E070E02C
:1006800080E090E00E94272480EB91E00E947E238E
:1006900061E070E080E090E00E94272483EC91E02C
:1006A0000E947E230E94AE218091BA07882321F107
:1006B0001092BB076091C0077091C1078091C2077B
:1006C0009091C3070E94B9332EEB3CE443E95FE30A
:1006D0000E946E3420E030E048EC52E40E940F3378
:1006E00020E030E048EC52E40E946E340E948133F6
:1006F0007093AA086093A90860E070E080E090E041
:100700000E94272487E093E00E947E2361E070E04E
:1007100080E090E00E94272487E093E00E947E23FF
:1007200080918305811109C0809116019091170174
:1007300090933607809335075CC3813019F410928B
:10074000820503C081E080938205209131083091B9
:100750003208409133085091340860912908709113
:100760002A0880912B0890912C080E949D32AB01A1
:10077000BC0140936B0550936C0560936D057093BD
:100780006E0522E080EC96E00E941D1B80918205A0
:10079000882309F475C1C0906B05D0906C05E0907A
:1007A0006D05F0906E0520E030E04AEF53E4C7019C
:1007B000B6010E94693487FD3EC0809175058111A4
:1007C0000C94821481E080937505809120019091B2
:1007D0002101A0912201B091230180937908909387
:1007E0007A08A0937B08B0937C0880911C019091BB
:1007F0001D01A0911E01B0911F0180937508909377
:100800007608A0937708B0937808809118019091AA
:100810001901A0911A01B0911B0180937108909366
:100820007208A0937308B093740810926A0510922E
:1008300069050C94821420E030E0A901C701B601DB
:100840000E940A33181664F180917505882341F1DE
:100850001092750580E090E0A0E8BEE380937908EF
:1008600090937A08A0937B08B0937C0880937508D6
:1008700090937608A0937708B09378088DEC9CEC61
:10088000ACE4BDE38093710890937208A093730861
:10089000B093740881E090E090936A0580936905B5
:1008A0004090790850907A0860907B0870907C089E
:1008B00020E030E0A901C301B2010E940A3387FDA4
:1008C000BAC08090750890907608A0907708B09094
:1008D000780820E030E0A901C501B4010E940A3384
:1008E00087FDA9C0C0907108D0907208E09073088D
:1008F000F090740820E030E0A901C701B6010E9421
:100900000A3387FD98C02091690530916A053093BC
:10091000500820934F0881E02130310509F080E034
:1009200080937008409235085092360860923708DC
:10093000709238088092390890923A08A0923B0849
:10094000B0923C08C0923D08D0923E08E0923F0829
:10095000F092400860916308709164088091650886
:10096000909166080E94B73320E030E04AE754E4F3
:100970000E940F336B8F7C8F8D8F9E8F409241082A
:100980005092420860924308709244089B01AC0167
:10099000C501B4010E946E344B015C0160934508AF
:1009A0007093460880934708909348082B8D3C8DA0
:1009B0004D8D5E8DC701B6010E940F336B017C0126
:1009C0006093490870934A0880934B0890934C08B1
:1009D00080914D0890914E08019769F5A30192010D
:1009E00060E070E0CB010E949D32609341087093FB
:1009F00042088093430890934408A501940160E065
:100A000070E0CB010E949D326093450870934608C8
:100A10008093470890934808A701960160E070E032
:100A2000CB010E949D326093490870934A088093DD
:100A30004B0890934C086091A9087091AA08072E62
:100A4000000C880B990B0E94B933609331087093A6
:100A50003208809333089093340860913501709187
:100A60003601072E000C880B990B0E94B933609356
:100A7000290870932A0880932B0890932C0844C06F
:100A80000E94E922BC01990F880B990B0E94B9338F
:100A90006093310870933208809333089093340840
:100AA0006091060170910701072E000C880B990BCD
:100AB0000E94B9336093290870932A0880932B0809
:100AC00090932C0880E090E0A0E8BEE38093790842
:100AD00090937A08A0937B08B0937C088093750864
:100AE00090937608A0937708B093780810927108D5
:100AF00010927208109273081092740881E090E0CE
:100B000090936A058093690580916F08882309F4A2
:100B100043C10E9417266F8F78A389A39AA380915F
:100B2000570890915808A0915908B0915A084F8DD4
:100B300058A169A17AA1481B590B6A0B7B0B8091C4
:100B4000630890916408A0916508B0916608481701
:100B500059076A077B0708F41FC1E0915108F0911B
:100B6000520880819181A281B3818B8F9C8FAD8F40
:100B7000BE8FE0915508F09156089C01AD0160814F
:100B80007181828193810E949D324B015C01209191
:100B90005F083091600840916108509162086B8D48
:100BA0007C8D8D8D9E8D0E949D326B017C012091EC
:100BB0004508309146084091470850914808C501C2
:100BC000B4010E946E3420915B0830915C08409122
:100BD0005D0850915E080E949E322B013C0160939B
:100BE0005B0870935C0880935D0890935E08909119
:100BF00070089BA391111AC02091410830914208BE
:100C00004091430850914408C701B6010E946E34D8
:100C10009B01AC01C301B2010E949D3260935B084D
:100C200070935C0880935D0890935E0840905B0829
:100C300050905C0860905D0870905E0810916B08A1
:100C400000916C0830906D0820906E08212F302F95
:100C5000432D522DC301B2010E94693418162CF4A1
:100C6000812F902FA32DB22D18C0809167089091ED
:100C70006808A0916908B0916A088CA39DA3AEA3EF
:100C8000BFA39C01AD01C301B2010E940A3387FFDB
:100C90000CC08CA19DA1AEA1BFA180935B089093D5
:100CA0005C08A0935D08B0935E089BA1992379F03E
:100CB00020914108309142084091430850914408E6
:100CC000C501B4010E946E344B015C0103C0812C4C
:100CD000912C54012091490830914A0840914B08C9
:100CE00050914C08C701B6010E946E349B01AC01C3
:100CF00060915B0870915C0880915D0890915E083E
:100D00000E949D32A50194010E949E326B017C01DC
:100D10009B01AC01612F702F832D922D0E940A330D
:100D200087FD16C010916708009168083090690827
:100D300020906A08212F302F432D522DB601C70174
:100D40000E940A3387FD04C01C2D0D2D3E2C2F2C34
:100D5000E0915308F0915408812F902FA32DB22DCC
:100D600080839183A283B3838B8D9C8DAD8DBE8D4B
:100D700080935F0890936008A0936108B093620825
:100D80008F8D98A1A9A1BAA1809357089093580874
:100D9000A0935908B0935A08C0902D08D0902E08FF
:100DA000E0902F08F0903008C701B6010E9481330F
:100DB000709336076093350722E0B701A60180ECF7
:100DC00096E00E941D1B66ED71E080EC96E00E94AB
:100DD000BF1A40916F0850E060E070E02AE080ECBC
:100DE00096E00E94D41A6AED71E080EC96E00E94D1
:100DF000BF1A80913507909136070E944724809151
:100E00003501909136012AE030E0B9010E94FC34AE
:100E100070933F0760933E078091A9089091AA08BC
:100E2000B9010E94FC347093810560938005809124
:100E30003301811112C0072E000C880B990B0E9400
:100E4000B9332BE734E14EEC5FE30E946E340E942D
:100E5000813370938105609380051092AD07C09037
:100E6000AE07D090AF07E090B007F090B107C70190
:100E7000B60120E432E44FE050E00E946C328091F1
:100E8000310190913201820F911D9C012C5031094A
:100E900037FD05C030937F0520937E0505C00C9675
:100EA00090937F0580937E0580917E0590917F05CC
:100EB000893191052CF0489790937F0580937E05AA
:100EC000C701B60120E137E240E050E00E946C32F9
:100ED000B4E68B2E912CA12CB12CCA01B901A5012D
:100EE00094010E946C3270937D0560937C05C7016C
:100EF000B601A50194010E946C32CA01B901A50195
:100F000094010E946C3270937B0560937A050E9475
:100F1000172600917605109177052091780530917C
:100F20007905061717072807390708F044C00E94FB
:100F30001726DC01CB018C509E4FAF4FBF4F8093E3
:100F4000760590937705A0937805B0937905009185
:100F50002F01109130018091350790913607B8012B
:100F6000681B790B072E000C880B990B0E94B93374
:100F70006B017C018091160190911701B801681BEB
:100F8000790B072E000C880B990B0E94B9339B013B
:100F9000AC01C701B6010E940F3320E030E048ECFD
:100FA00052E40E946E3460930001709301018093BB
:100FB000020190930301809133016091350170919A
:100FC000360181110EC0072E000C880B990B0E9470
:100FD000B9332BE734E14EEC5FE30E946E340E949C
:100FE0008133CB016AE070E00E94FC3470933F07CC
:100FF00060933E0780913E0790913F076AE070E062
:101000000E94FC347B018C0170933D0760933C0788
:1010100090933B0780933A078AE00E943B2461E06B
:1010200070E080E090E00E94272480917E059091FE
:101030007F050E94B7238EEE91E00E947E2380916F
:101040007C0590917D050A9724F486E094E00E9447
:101050007E2380917C0590917D050E94B7238EEEC2
:1010600091E00E947E2380917A0590917B050A97FA
:1010700024F486E094E00E947E2380917A0590918A
:101080007B050E94B72387E193E00E947E238AE0DC
:101090000E943B2463E070E082E190E00E942724FC
:1010A0006EEF82E00E94FE2381EE91E00E947E239B
:1010B00064E070E082E190E00E9427246DEF82E01E
:1010C0000E94FE2380913301882319F085EE91E080
:1010D00002C089EE91E00E947E2360E070E080E033
:1010E00090E00E9427248DEE91E00E947E23609183
:1010F00000017091010180910201909103010E9411
:101100008133CB010E94B7238EE395E00E947E23BA
:1011100080917505882319F085ED94E002C080EF79
:1011200091E00E947E2382E10E943B2460E070E017
:1011300086E090E00E94272480918305811104C0FD
:1011400084EF91E00E947E2380918305813071F4C9
:1011500088E193E00E947E2380910601909107012F
:101160000E94B7238DEF91E00E947E23809183053A
:10117000823009F049C00E0D1F1D17FF03C081E02A
:1011800092E00BC080913C0790913D070A971CF4B8
:1011900087E193E002C088E193E00E947E23809182
:1011A0003C0790913D0797FF07C091958195910964
:1011B00090933D0780933C0780913C0790913D07B9
:1011C0000E94B72384E092E00E947E2380913A0738
:1011D00090913B0797FF07C0919581959109909356
:1011E0003B0780933A0780913A0790913B070E9412
:1011F000B72380913301882319F086E092E002C082
:101200008BE092E00E947E238AE00E943B2462E011
:1012100070E080E090E00E94272480E192E00E944C
:101220007E23609171057091720580917305909194
:1012300074050E94E42387E193E00E947E238AE004
:101240000E943B2463E070E080E090E00E9427244D
:1012500083E192E00E947E23809189050E94912380
:1012600080918A050E94912364E070E080E090E024
:101270000E94272488E192E00E947E2380917005DD
:101280000E94A22380912E01882319F08DE192E023
:1012900002C089EF91E00E947E2365E070E080E06B
:1012A00090E00E94272481E292E00E947E238091B8
:1012B0006F050E94A22380912E01882319F08DE1F1
:1012C00092E002C089EF91E00E947E2366E070E028
:1012D00080E090E00E94272486E292E00E947E2334
:1012E0000E94E9220E94B72385E193E00E947E23B9
:1012F0008BEC0E943B2460E070E080E090E00E9474
:10130000272466E18EE20E94FE2380918005909161
:101310008105843691051CF480E30E94912380911D
:101320008005909181050AE010E0B8010E94FC342C
:10133000CB010E94B72389EC0E943B2460E070E05F
:1013400080E090E00E9427246BE28FE60E94FE235B
:101350008091800590918105B8010E94FC340E9423
:10136000B7238091A6058823E9F180918305823017
:10137000B9F42091A2053091A3054091A4055091A4
:10138000A505AAE0B0E00E945932209135013091C4
:101390003601620F731F709336016093350118C0D8
:1013A0008130B1F42091A2053091A3054091A405AC
:1013B0005091A505AAE0B0E00E94593220910601A3
:1013C00030910701620F731F70930701609306014C
:1013D0001092A2051092A3051092A4051092A505E3
:1013E0001092A60584E00E949A292091A805892BD5
:1013F00021F42F5F2093A8050EC0222351F0809185
:1014000083058F5F833018F48093830502C01092A8
:1014100083051092A8058091A805883010F40C94DB
:101420007B140E947A2384E10E943B2460E070E0F8
:1014300080E090E00E94272464EF71E080E090E07B
:101440000E942E2AA4E68A2E912CA12CB12C8091E8
:10145000A805883010F40C947B148BE292E00E9473
:101460007E2364EF71E080E090E00E942E2A84E009
:101470000E949A29892BD9F38AE1E7E3F1E0DE01A2
:10148000119601900D928A95E1F7312CFE0131966B
:10149000E30DF11DE30DF11D808191818E53954087
:1014A00011F03394F3CF3A943B8E0E947A2381E07B
:1014B00080931501F2E0FF2E10E000E0BB8D2B2E93
:1014C000312C0E94632282309105D1F024F40197DF
:1014D00069F00C94ED138430910531F1089711F007
:1014E0000C94ED130E945D220C94ED1311110C94D9
:1014F000F413002311F40C94261401500C942C14B2
:10150000802F90E00596821593052CF4153019F480
:101510000F5FE2E0FE2E812F90E0059714F00C940F
:10152000ED131F5F0C94F513E12FF0E0E00FF11DB8
:10153000EC30F10510F00C94ED13EA5AFF4F0C94C7
:10154000103580912F019091300190933607809350
:1015500035070E947A238AE00E943B2460E070E015
:1015600080E090E00E94272485E392E00E947E23A1
:1015700061E070E080E090E00E94272483E492E044
:101580000E947E2362E070E080E090E00E942724C9
:1015900087E592E00E947E2364E070E080E090E0C6
:1015A0000E9427248DE692E00E947E2380912F01E5
:1015B000909130010E94B72385E193E00E947E2341
:1015C00066E070E080E090E00E94272488E792E0E7
:1015D0000E947E237EE9E72E77E0F72E8091350783
:1015E000909136070E9447240E9463228230910521
:1015F000E1F01CF4019751F0F1CF8430910509F42A
:1016000048C0089759F70E945D22E8CF80912F01CA
:10161000909130018E39E7E09E072CF0F092300176
:10162000E0922F0119C00A9613C080912F0190916A
:1016300030012091160130911701281739073CF02D
:10164000265F3F4F3093300120932F0105C00A974A
:101650009093300180932F0164E070E080E090E08F
:101660000E9427248DE692E00E947E2380912F0124
:10167000909130010E94B72385E193E00E947E2380
:1016800080912F0190913001909336078093350718
:10169000A5CF80912F01909130016AE070E00E9407
:1016A000FC3484E190E0A3C480911601909117016D
:1016B00090933607809335070E947A238AE00E9430
:1016C0003B2460E070E080E090E00E9427248EE8F8
:1016D00092E00E947E2361E070E080E090E00E9452
:1016E00027248CE992E00E947E2362E070E080E093
:1016F00090E00E9427248FEA92E00E947E2364E01B
:1017000070E080E090E00E9427248DE692E00E9445
:101710007E2380911601909117010E94B72385E1E5
:1017200093E00E947E2366E070E080E090E00E94FB
:10173000272488E792E00E947E2366EBE62E63E092
:10174000F62E80913507909136070E9447240E941B
:1017500063228230910509F11CF4019751F0F1CF19
:101760008430910509F448C0089759F70E945D221A
:10177000E8CF809116019091170120912F013091AF
:101780003001821793073CF02A503109309317013A
:101790002093160114C00A960EC0809116019091F4
:1017A0001701873BF3E09F072CF4F0921701E092BA
:1017B000160105C00A97909317018093160164E003
:1017C00070E080E090E00E9427248DE692E00E9485
:1017D0007E2380911601909117010E94B72385E125
:1017E00093E00E947E2380911601909117019093BF
:1017F000360780933507A5CF809116019091170188
:101800006AE070E00E94FC3485E190E0F0C38091D2
:1018100016019091170190933607809335070E9427
:101820007A238AE00E943B2460E070E080E090E050
:101830000E94272484EC92E00E947E2366E070E000
:1018400080E090E00E94272488E792E00E947E23B7
:10185000EE24EA94FE2C5AE0D52E61E070E080E0A0
:1018600090E00E94272486ED92E00E947E238091E2
:101870003507909136070E94B72388ED92E00E94C9
:101880007E2364E670E080E090E00E942E2A809142
:1018900035079091360720911601309117012817CE
:1018A000390734F021E030E0309305012093040142
:1018B00020912F01309130018217930724F0F0928C
:1018C0000501E09204014091040150910501D49E6C
:1018D0009001D59E300D1124820F931F90933607EF
:1018E000809335070E9447240E946322843091052B
:1018F00009F4B2C7089709F0B0CF0E945D22ADCFBE
:101900000E947A238AE00E943B2460E070E080E03D
:1019100090E00E9427248FED92E00E947E2361E0F8
:1019200070E080E090E00E942724809134010E94C2
:10193000A22380913401813051F462E070E080E0B4
:1019400090E00E94272481EF92E00E947E2366E0CF
:1019500070E080E090E00E94272488E792E00E94F7
:101960007E23FF24F39428E0E22E34E0D32E0E945D
:10197000632282309105B9F11CF4019751F0F7CF41
:101980008430910509F457C0089789F70E945D22B9
:10199000EECF61E070E080E090E00E94272480912B
:1019A0003401813021F4D092340184E029C08830A0
:1019B00060F48E5F809334010E94A22362E070E0A5
:1019C00080E090E00E942724D2CFE092340188E0AA
:1019D0000E94A22362E070E080E090E00E94272451
:1019E0008AE193E025C061E070E080E090E00E9431
:1019F000272480913401853070F082508093340127
:101A00000E94A22362E070E080E090E00E94272420
:101A100084E093E00DC0F092340181E00E94A223A3
:101A200062E070E080E090E00E94272481EF92E085
:101A30000E947E239CCF609134018BE090E0D7C25E
:101A400083E296E00E9479150E94AA261092AD07C3
:101A5000C090AE07D090AF07E090B007F090B1070C
:101A6000C701B60120E432E44FE050E00E946C323E
:101A70008091310190913201820F911D0C979093CA
:101A80007F0580937E05C701B60120E137E240E083
:101A900050E00E946C32CA01B901A50194010E9474
:101AA0006C3270937D0560937C05C701B601A5017A
:101AB00094010E946C32CA01B901A50194010E94EF
:101AC0006C3270937B0560937A050E947A238AE0DA
:101AD0000E943B2460E070E080E090E00E942724B8
:101AE00088E293E00E947E2361E070E080E090E075
:101AF0000E94272480917E0590917F050E94B72344
:101B00008EEE91E00E947E2380917C0590917D0570
:101B10000A9724F486E094E00E947E2380917C055D
:101B200090917D050E94B7238EEE91E00E947E2366
:101B300080917A0590917B050A9724F486E094E0E1
:101B40000E947E2380917A0590917B050E94B723A5
:101B500086E193E00E947E2363E070E080E090E005
:101B60000E94272480913101909132010C970E94AC
:101B7000B72386E193E00E947E2366E070E080E078
:101B800090E00E94272488E792E00E947E2383E26F
:101B900096E00E9479150E94AA261092AD07C09087
:101BA000AE07D090AF07E090B007F090B107C70143
:101BB000B60120E432E44FE050E00E946C328091A4
:101BC000310190913201820F911D0C9790937F0506
:101BD00080937E05C701B60120E137E240E050E086
:101BE0000E946C32CA01B901A50194010E946C32B5
:101BF00070937D0560937C05C701B601A501940132
:101C00000E946C32CA01B901A50194010E946C3294
:101C100070937B0560937A0561E070E080E090E06E
:101C20000E94272462E370E080E090E00E942E2A68
:101C30000E9463228230910509F469C01CF4019767
:101C400059F0C1C08430910509F4B5C0089709F076
:101C5000BAC00E945D22B7C08091310190913201DB
:101C60008831910514F4019602C088E190E09093C8
:101C70003201809331011092AD074090AE07509031
:101C8000AF076090B0077090B107C301B20120E4C4
:101C900032E44FE050E00E946C32C0903101D090AD
:101CA0003201C20ED11C76019CE0E91AF108F092D3
:101CB0007F05E0927E05C301B20120E137E240E0FA
:101CC00050E00E946C32CA01B901A50194010E9442
:101CD0006C3270937D0560937C05C301B201A50150
:101CE00094010E946C32CA01B901A50194010E94BD
:101CF0006C3270937B0560937A05F7FE3EC0ACE0D2
:101D0000CA0ED11CD0927F05C0927E0536C080914C
:101D10003101909132011816190634F4019790930D
:101D200032018093310104C01092320110923101CE
:101D30001092AD076091AE077091AF078091B00728
:101D40009091B10720E432E44FE050E00E946C3201
:101D50008091310190913201820F911D9C012C5094
:101D6000310937FD05C030937F0520937E0505C0FE
:101D70000C9690937F0580937E0580917E059091CF
:101D80007F05893191052CF0489790937F058093CA
:101D90007E0563E070E080E090E00E94272480915F
:101DA0003101909132010C970E94B72386E193E0B4
:101DB0000E947E2308C06091310183E190E00E947F
:101DC000C021F12C02C0FF24F39480917E059091F4
:101DD0007F0597FF05C0489690937F0580937E0509
:101DE00080917E0590917F05893191052CF048976F
:101DF00090937F0580937E0561E070E080E090E045
:101E00000E94272480917E0590917F050E94B72330
:101E10008EEE91E00E947E2380917C0590917D055D
:101E20000A9724F486E094E00E947E2380917C054A
:101E300090917D050E94B7238EEE91E00E947E2353
:101E400080917A0590917B050A9724F486E094E0CE
:101E50000E947E2380917A0590917B050E94B72392
:101E600086E193E00E947E23F11091CEF5C40E949A
:101E70007A238AE00E943B2460E070E080E090E0FA
:101E80000E9427248AE393E00E947E2361E070E0B1
:101E900080E090E00E9427240E94C42166E070E068
:101EA00080E090E00E94272488E792E00E947E2351
:101EB00098E8E92E93E1F92E0E9463228230910581
:101EC00039F11CF4019749F0F7CF8430910569F19D
:101ED000089791F70E945D22EFCF80913501909194
:101EE00036018838B3E19B072CF0F0923601E0927E
:101EF000350105C00A96909336018093350161E063
:101F000070E080E090E00E9427240E94C421D4CF9A
:101F10008091350190913601853FE1E09E071CF4E8
:101F200084EF91E0E8CF0A97E6CF60913501709198
:101F300036018EE190E059C30E947A238AE00E9424
:101F40003B2460E070E080E090E00E9427248FE472
:101F500093E00E947E2361E070E080E090E00E94C8
:101F6000272480913301882319F086E092E002C093
:101F70008BE092E00E947E2366E070E080E090E0DB
:101F80000E94272488E792E00E947E23FF24F39496
:101F90000E9463228230910561F01CF4019749F0A0
:101FA000F7CF84309105E1F0089791F70E945D2208
:101FB000EFCF809133018F258093330161E070E092
:101FC00080E090E00E94272480913301882319F05B
:101FD00086E092E002C08BE092E00E947E23D8CFA0
:101FE00080913301882331F061E082E190E00E942A
:101FF000C02132C460E0F9CF0E947A238AE00E94B7
:102000003B2460E070E080E090E00E9427248FE5B0
:1020100093E00E947E2361E070E080E090E00E9407
:10202000272480912E01882319F082E793E002C0D3
:102030008FE793E00E947E2366E070E080E090E00E
:102040000E94272488E792E00E947E23FF24F394D5
:102050000E9463228230910561F01CF4019749F0DF
:10206000F7CF84309105E1F0089791F70E945D2247
:10207000EFCF80912E018F2580932E0161E070E0DB
:1020800080E090E00E94272480912E01882319F09F
:102090008AE893E002C08FE793E00E947E23D8CFC6
:1020A00080912E01882311F061E001C060E08DE194
:1020B00090E09DCF0E947A238AE00E943B2460E05A
:1020C00070E080E090E00E94272486E993E00E947F
:1020D0007E2361E070E080E090E00E94272482EAA5
:1020E00093E00E947E2364E070E080E090E00E9434
:1020F000272485EB93E00E947E238091A70890918E
:10210000A8080E94B72366E070E080E090E00E949B
:10211000272488E792E00E947E23E090A708F090B1
:10212000A8088DEA91E00E946C23C70199270E94BC
:1021300012240E94632282309105E1F01CF4019781
:1021400049F0EBCF84309105C9F1089731F70E942F
:102150005D22E3CF8091A7089091A808883291056D
:102160003CF0A8E2B0E0B093A808A093A70815C07F
:1021700001960FC08091A7089091A808853191051C
:102180003CF4E4E1F0E0F093A808E093A70805C070
:1021900001979093A8088093A70864E070E080E01E
:1021A00090E00E94272485EB93E00E947E2380919B
:1021B000A7089091A8080E94B723AFCF6091A70805
:1021C00081E290E014CF0E947A238AE00E943B24AF
:1021D00060E070E080E090E00E94272480EC93E0D3
:1021E0000E947E2361E070E080E090E00E9427245E
:1021F00082ED93E00E947E2363E070E080E090E057
:102200000E94272485EE93E00E947E2360912001A6
:102210007091210180912201909123010E94E42379
:1022200066E070E080E090E00E94272488E792E07A
:102230000E947E2320E030E048EC52E460912001CF
:102240007091210180912201909123010E946E34AE
:102250000E9481337B010E9463228230910509F440
:1022600045C01CF4019751F0F6CF8430910509F474
:102270009BC0089781F70E945D22EDCF63E070E07C
:1022800080E090E00E94272485EE93E00E947E2368
:1022900020E030E048EC52E460912001709121018F
:1022A00080912201909123010E946E346B017C0188
:1022B00020E030E048EC52E40E94693487FD0DC014
:1022C00080E090E0A8ECB2E480932001909321019B
:1022D000A0932201B093230143C020E030E040E806
:1022E0005FE3C701B6010E949E3232C063E070E036
:1022F00080E090E00E94272485EE93E00E947E23F8
:1023000020E030E048EC52E460912001709121011E
:1023100080912201909123010E946E346B017C0117
:1023200020E030E0A9010E940A3318164CF0109208
:10233000200110922101109222011092230110C05D
:1023400020E030E040E85FE3C701B6010E949D3223
:1023500060932001709321018093220190932301C7
:102360004090200150902101609022017090230143
:10237000C301B2010E9481337B0120E030E048ECD0
:1023800052E4C301B2010E940F33609320017093A5
:10239000210180932201909323010E94E42387E18D
:1023A00093E00E947E2357CFB7018CE090E01DC1DF
:1023B0000E947A238AE00E943B2460E070E080E083
:1023C00090E00E9427248CEE93E00E947E2361E03F
:1023D00070E080E090E00E9427248AEF93E00E9462
:1023E0007E2363E070E080E090E00E94272485EE89
:1023F00093E00E947E2360911C0170911D018091E9
:102400001E0190911F010E94E42366E070E080E0CD
:1024100090E00E94272488E792E00E947E2320E03B
:1024200030E048EC52E460911C0170911D018091F4
:102430001E0190911F010E946E340E9481337B0126
:102440000E9463228230910509F46EC01CF401974A
:1024500051F0F6CF8430910509F4C4C0089781F794
:102460000E945D22EDCF63E070E080E090E00E948A
:10247000272485EE93E00E947E2320E030E048ECA4
:1024800052E460911C0170911D0180911E01909198
:102490001F010E946E346B017C0120E030E048ECAB
:1024A00052E40E94693487FD0DC080E090E0A8EC02
:1024B000B2E480931C0190931D01A0931E01B09380
:1024C0001F0110C020E030E040E85FE3C701B60123
:1024D0000E949E3260931C0170931D0180931E0127
:1024E00090931F0140901C0150901D0160901E01AF
:1024F00070901F01C301B2010E9481337B0120E073
:1025000030E048EC52E4C301B2010E940F33609303
:102510001C0170931D0180931E0190931F010E9466
:10252000E42386E193E05BC063E070E080E090E04C
:102530000E94272485EE93E00E947E2320E030E075
:1025400048EC52E460911C0170911D0180911E01C4
:1025500090911F010E946E346B017C0120E030E0FD
:10256000A9010E940A3318164CF010921C01109217
:102570001D0110921E0110921F0110C020E030E0DA
:1025800040E85FE3C701B6010E949D3260931C01E1
:1025900070931D0180931E0190931F0140901C01B8
:1025A00050901D0160901E0170901F01C301B20187
:1025B0000E9481337B0120E030E048EC52E4C3010B
:1025C000B2010E940F3360931C0170931D01809330
:1025D0001E0190931F010E94E42384E193E00E9476
:1025E0007E232ECFB7018EE090E00E944D2234C1B1
:1025F0000E947A238AE00E943B2460E070E080E041
:1026000090E00E94272488E094E00E947E2361E00D
:1026100070E080E090E00E94272488E194E00E942E
:102620007E2363E070E080E090E00E94272485EE46
:1026300093E00E947E2360911801709119018091AE
:102640001A0190911B010E94E42366E070E080E093
:1026500090E00E94272488E792E00E947E2320E0F9
:1026600030E048EC52E460911801709119018091BA
:102670001A0190911B010E946E340E9481337B01EC
:102680000E9463228230910509F445C01CF4019731
:1026900051F0F6CF8430910509F49BC0089781F77B
:1026A0000E945D22EDCF63E070E080E090E00E9448
:1026B000272485EE93E00E947E2320E030E048EC62
:1026C00052E4609118017091190180911A01909162
:1026D0001B010E946E346B017C0120E030E048EC6D
:1026E00052E40E94693487FD0DC080E090E0A8ECC0
:1026F000B2E48093180190931901A0931A01B0934A
:102700001B0143C020E030E040E85FE3C701B601B1
:102710000E949E3232C063E070E080E090E00E9450
:10272000272485EE93E00E947E2320E030E048ECF1
:1027300052E4609118017091190180911A019091F1
:102740001B010E946E346B017C0120E030E0A90186
:102750000E940A3318164CF01092180110921901B9
:1027600010921A0110921B0110C020E030E040E8E6
:102770005FE3C701B6010E949D3260931801709318
:10278000190180931A0190931B01409018015090F9
:10279000190160901A0170901B01C301B2010E94DF
:1027A00081337B0120E030E048EC52E4C301B20108
:1027B0000E940F33609318017093190180931A01DE
:1027C00090931B010E94E42387E193E00E947E2303
:1027D00057CFB70180E190E008CFF1E0FF1629F074
:1027E00022E0F21281C038C011508B8D811708F49D
:1027F000182FE12CF12C8AE00E943B24B70180E0E5
:1028000090E00E94272488E193E00E947E23B70194
:1028100080E090E00E94272488E193E00E947E23DC
:102820009FEFE91AF90AA6E0EA16F10421F78AE017
:102830000E943B24612F70E080E090E00E942724FA
:1028400086E294E00E947E23F12C4EC091E0F916BE
:1028500081F2A2E0FA1248C00E947A23BB8DB63002
:1028600020F4712CC02ED12C1FC0FE0131967F01A7
:10287000E00EF11CE00EF11CC12CD12C8AE00E946C
:102880003B24B60181E090E00E942724D7018D917E
:102890009D917D010E947E23BFEFCB1ADB0AE6E00B
:1028A000CE16D10459F71EC0E72CF12C2E143F048C
:1028B000CCF08AE00E943B24B70181E090E00E94C6
:1028C0002724F601EE0DFF1DEE0FFF1F81E090E0C3
:1028D0008C0F9D1FE80FF91F808191810E947E233C
:1028E0007394E2CFFF24F3948091150181110C942D
:1028F000610A0C94270A80910801882381F01092C4
:1029000008010DC020E030E0A901C701B6010E9416
:102910000A33181614F40C9450040C942804A79647
:102920000FB6F894DEBF0FBECDBFDF91CF911F91E0
:102930000F91FF90EF90DF90CF90BF90AF909F905E
:102940008F907F906F905F904F903F902F90089561
:10295000089540919E0550919F0520919C053091CE
:102960009D0542175307B4F49091E8009570E1F388
:102970009091E80092FD19C08093F10080919E052E
:1029800090919F0501968F739927892B19F48EEFEB
:102990008093E80080919E0590919F050196909309
:1029A0009F0580939E0581E0089580E00895DF9261
:1029B000EF92FF920F931F93CF93DF93D82EF92EB0
:1029C000E42E062F10E0C8010196880F0E94A9147A
:1029D00083E00E94A914CD2DDF2D0C0F1D1FC01701
:1029E000D10789F0E7FE03C0FE01849101C0888110
:1029F0000E94A914F82E80E00E94A9148F2121962C
:102A00008111EDCF01C081E0DF91CF911F910F9136
:102A1000FF90EF90DF900895DF92EF92FF920F9377
:102A20001F93CF93DF93D82E8A017B01E40EF51E0E
:102A3000EB01CE15DF0571F0D7FE03C0FE018491D6
:102A400001C088810E94A91421968111F2CF8FEFD5
:102A50009FEF01C0C801DF91CF911F910F91FF90AF
:102A6000EF90DF900895615030F02091F100FC016B
:102A700020830196F8CF289884E68093B4080895BF
:102A8000CF92DF92EF92FF920F931F93CF93DF933A
:102A90006C017A018B01C0E0D0E0CE15DF0581F03A
:102AA000D8016D918D01D601ED91FC910190F081DD
:102AB000E02DC6010995892B11F02196EECF7E01FC
:102AC000C701DF91CF911F910F91FF90EF90DF90A1
:102AD000CF900895FC01538D448D252F30E0842F35
:102AE00090E0821B930B541710F0CF960895019736
:102AF0000895FC01918D828D981761F0828DDF0120
:102B0000A80FB11D5D968C91928D9F5F9F73928FE0
:102B100090E008958FEF9FEF0895FC01918D828DD5
:102B2000981731F0828DE80FF11D858D90E00895A2
:102B30008FEF9FEF0895FC01918D228D892F90E0FA
:102B4000805C9F4F821B91098F739927089583E2C0
:102B500096E00E949B1521E0892B09F420E0822F4A
:102B60000895FC01848DDF01A80FB11DA35ABF4F4A
:102B70002C91848D90E001968F739927848FA6897C
:102B8000B7892C93A089B1898C9182748C93938D91
:102B9000848D981306C00288F389E02D80818F7D93
:102BA00080830895EF92FF920F931F93CF93DF934B
:102BB000EC0181E0888F9B8D8C8D981305C0E8898E
:102BC000F989808185FD26C0F62E0B8D10E00F5F00
:102BD0001F4F0F731127E02E8C8DE8120CC00FB61B
:102BE00007FCFACFE889F989808185FFF5CFCE010E
:102BF0000E94B115F1CF8B8DFE01E80FF11DE35A54
:102C0000FF4FF0829FB7F8940B8FEA89FB89808190
:102C1000806209C09FB7F894EE89FF896083E889D4
:102C2000F9898081827480839FBF81E090E0DF9189
:102C3000CF911F910F91FF90EF900895CF93DF9365
:102C4000EC01888D8823C9F0EA89FB89808185FDA4
:102C500005C0A889B9898C9186FD0FC00FB607FC05
:102C6000F5CF808185FFF2CFA889B9898C9185FF46
:102C7000EDCFCE010E94B115E7CFDF91CF9108953E
:102C800080E090E0892B29F00E94A71581110C9417
:102C900000000895CF93DF931F92CDB7DEB769830D
:102CA000DC01ED91FC910280F381E02D41E050E0E8
:102CB000BE016F5F7F4F09950F90DF91CF9108950F
:102CC00083E08093E9008091F200882319F08AE381
:102CD0008093E80008950F931F93CF93DF931F9283
:102CE000CDB7DEB782E0898342E450E060E471E072
:102CF00080E80E940C150E948629DC0112960D9135
:102D00001C9113970115110589F0D801ED91FC91E3
:102D10000280F381E02DBE016F5F7F4FC8010995EE
:102D200097FD04C0F80100851185ECCF89810F90D3
:102D3000DF91CF911F910F9108958F929F92AF9243
:102D4000BF92CF92DF92EF92FF920F931F93CF9398
:102D5000DF936C017B018A0180911401882309F4BF
:102D60005CC08091B508882309F457C08091A508FC
:102D700080FF05C08091E00082608093E000E80160
:102D8000B12C8AEFA82E93E0892E2AE3922E209769
:102D900011F4BB20D9F10E94752981110AC0AA94AF
:102DA000AA20D9F161E070E080E090E00E942E2A34
:102DB000EECF282F30E0C217D3070CF48C2F9FB72B
:102DC000F8948092E9002091E80025FF1DC0282F8B
:102DD00030E0C21BD30BF701815020F041914093AA
:102DE000F100FACFE20EF31EBB2019F09092E8003A
:102DF0000AC08091E80085FD07C09092E800BB24DE
:102E0000B394209709F0B12C9FBFC1CF5D9884E6A1
:102E10008093A1051016110644F081E090E0F601C0
:102E20009383828380E090E001C0C801DF91CF915D
:102E30001F910F91FF90EF90DF90CF90BF90AF90D8
:102E40009F908F9008950E94752990E00895CF93E8
:102E5000DF931F92CDB7DEB7FC018485958597FD82
:102E600005C02FEF3FEF358724870BC0CE010196B9
:102E70000E944729019719F4898190E002C08FEFE1
:102E80009FEF0F90DF91CF9108951F920F920FB691
:102E90000F9211242F933F934F935F936F937F93E0
:102EA0008F939F93AF93BF93EF93FF93E0912C0188
:102EB000F0912D010995FF91EF91BF91AF919F91F5
:102EC0008F917F916F915F914F913F912F910F90D3
:102ED0000FBE0F901F9018951F920F920FB60F9272
:102EE00011242F933F934F935F936F937F938F930F
:102EF0009F93AF93BF93EF93FF93E0912A01F091DB
:102F00002B010995FF91EF91BF91AF919F918F9107
:102F10007F916F915F914F913F912F910F900FBED5
:102F20000F901F9018951F920F920FB60F921124B9
:102F30002F933F934F935F936F937F938F939F93C1
:102F4000AF93BF93EF93FF93E0912801F091290194
:102F50000995FF91EF91BF91AF919F918F917F91D3
:102F60006F915F914F913F912F910F900FBE0F90F6
:102F70001F9018951F920F920FB60F9211242F9346
:102F80003F934F935F936F937F938F939F93AF93F1
:102F9000BF93EF93FF93E0912601F09127010995EC
:102FA000FF91EF91BF91AF919F918F917F916F9121
:102FB0005F914F913F912F910F900FBE0F901F90F7
:102FC00018951F920F920FB60F9211242F933F93D3
:102FD0004F935F936F937F938F939F93AF93BF9321
:102FE000EF93FF93E0912401F09125010995FF9162
:102FF000EF91BF91AF919F918F917F916F915F9171
:103000004F913F912F910F900FBE0F901F901895E9
:103010001F920F920FB60F9211248F939F9380915E
:10302000E1009091E100937F9093E10083FF0FC056
:103030001092E90091E09093EB001092EC0092E383
:103040009093ED001092B50898E09093F00082FF05
:1030500020C093E09093E9009091F200992319F039
:103060009AE39093E8009091A105992339F090910B
:10307000A10591509093A105992389F19091B408ED
:10308000992339F09091B40891509093B408992302
:1030900041F184FF10C08091E2008E7E81608093B8
:1030A000E2008091E1008F7E8093E1008091A5088D
:1030B0008E7E806111C080FF16C08091E2008E7EFE
:1030C00080618093E2008091E1008E7E8093E10038
:1030D0008091A5088E7E81608093A50804C05D9ACA
:1030E000CDCF289AD6CF9F918F910F900FBE0F9082
:1030F0001F9018951F920F920FB60F921124CF9226
:10310000DF92EF92FF920F931F932F933F934F9372
:103110005F936F937F938F939F93AF93BF93EF933F
:10312000FF93CF93DF93CDB7DEB76C97DEBFCDBFF4
:103130001092E9008091E80083FFFBC168E0CE01B6
:1031400045960E94331582EF8093E8008D8987FFB2
:1031500005C09091E80090FFFCCF03C09EEF9093D4
:10316000E800982F907609F0C6C09E894F89588D47
:103170002F89F88C91110CC0803829F48091A60811
:103180008093F10002C01092F1001092F10045C14D
:10319000913051F4811141C14130510509F03DC1D7
:1031A0008091A6088D7F0BC0933061F4811135C1E9
:1031B0004130510509F031C18091A60882608093A9
:1031C000A6082BC1953049F48091E80080FFFCCF20
:1031D000822F80688093E30020C1963009F05EC0A2
:1031E0000B8D1C8D22E01092E90010929F05109229
:1031F0009E05F21232C010929D0510929C050E940D
:103200006B1699E0BE016F5F7F4FDB01E92F1D92C6
:10321000EA95E9F79983FA8291E09E8390EA98878C
:103220009AEF998720919E0530919F05275F3F4F28
:103230003C832B838D831092E90010929F0510929E
:103240009E0510939D0500939C0549E050E080E0A9
:103250000E940C150E946B16E0C010939D05009310
:103260009C050E948629DC0112960D911C911397F2
:103270000115110509F4BBC0D801ED91FC91048042
:10328000F581E02DBE016B5E7F4FC8010995009767
:1032900009F0C7C0F80100851185EACF973009F41D
:1032A00045C1983021F481E08093F100B6C0993097
:1032B00009F0B3C0837009F039C1E2E5F1E081E0C3
:1032C00031E096E32081211109C08EE78093EA0066
:1032D0001092EA008F898093B5089FC08093E9001F
:1032E0003093EB0021912093EC009093ED008F5FE1
:1032F000873041F7EACF8B8D9C8D1092E9001092B8
:103300009F0510929E0590939D0580939C05898D45
:10331000811153C08E899D89913A49F4813209F017
:1033200005C147E050E06DE071E080E0BBC0913244
:1033300009F0FCC0833269F48F89988DA0E0B0E079
:103340008093090190930A01A0930B01B0930C01A3
:1033500064C0803269F48091E80082FFFCCF67E0AE
:103360008DE091E00E9433158BEF8093E80055C00B
:10337000823209F052C08F8980931401EEEFFFE78B
:10338000859194918B3F9C4D19F0E0E0F8E002C0EC
:10339000EEEFFAE080910D0190910E01A0910F01E6
:1033A000B0911001803B9440A105B10509F09EC089
:1033B0008091140180FF79C099C00E948629FC0188
:1033C000028113810115110509F4B0C0D801ED91F6
:1033D000FC910190F081E02DBE016B5E7F4FC80132
:1033E000099581111AC0F80100851185EBCFF1E034
:1033F000FF1609F44EC0F3E0FF1298C08F898823AE
:1034000009F44AC0823089F440E860E184EA91E03E
:103410000E94D714882309F489C08EEF8093E800B6
:1034200088C018161906CCF381C0813029F440E811
:103430006BE088E991E0ECCF833009F077C00E941F
:103440008629DC011296ED90FC9013978E010F5F98
:103450001F4F6801E114F10479F0D701ED91FC915F
:103460000680F781E02DB801C7010995080F111DED
:10347000F701E084F184EECFD8011C92F6010190AF
:103480000020E9F73197BF016C197D0940E0C601C2
:10349000BFCF66E871E002C062E871E0FB014491D1
:1034A00050E080E80E940C15B8CFEE3F2AE0F2070A
:1034B00051F0808191818737A7E79A0721F0909397
:1034C000FF0A8093FE0A87E797E7918380838091C4
:1034D00060008093A0059BE088E10FB6F894A89562
:1034E000809360000FBE9093600097CF80819181A0
:1034F0008737974709F091CFA89580916000886140
:10350000809360008091A00580936000EE3FBAE058
:10351000FB0739F08091FE0A9091FF0A9183808326
:103520007CCF1092FF0A1092FE0A77CF81E280933F
:10353000EB006C960FB6F894DEBF0FBECDBFDF91E7
:10354000CF91FF91EF91BF91AF919F918F917F911B
:103550006F915F914F913F912F911F910F91FF902C
:10356000EF90DF90CF900F900FBE0F901F901895A7
:10357000DC01ED91FC910190F081E02D0994611541
:10358000710579F0FB0101900020E9F73197AF0157
:10359000461B570BDC01ED91FC910280F381E02D7D
:1035A000099480E090E008958F929F92AF92BF922D
:1035B000EF92FF920F931F93CF93DF93CDB7DEB7B8
:1035C000A1970FB6F894DEBF0FBECDBF7C01FA0104
:1035D000CB0119A2223008F42AE08E010F5D1F4FA3
:1035E000822E912CA12CB12CBF01A50194010E9427
:1035F0006C32F901CA01015011096A3014F4605D9E
:1036000001C0695CD8016C93232B242B252B61F717
:10361000B801C7010E94BF1AA1960FB6F894DEBF89
:103620000FBECDBFDF91CF911F910F91FF90EF9013
:10363000BF90AF909F908F9008957F928F929F92AE
:10364000AF92BF92CF92DF92EF92FF920F931F93B0
:10365000CF93DF938C016A017B01722E9A01AB013B
:10366000C701B6010E94DB34882319F064E874E0D6
:1036700027C046015701E894B7F82FEF3FEF4FE717
:103680005FE7C501B4010E94DB3481110DC02FEF4B
:103690003FEF4FE75FE7C501B4010E940A331816F8
:1036A0001CF468E874E00CC02FEF3FEF4FE75FE4D5
:1036B000C701B6010E946934181694F46CE874E0EE
:1036C000C801DF91CF911F910F91FF90EF90DF9094
:1036D000CF90BF90AF909F908F907F900C94BF1A27
:1036E0002FEF3FEF4FE75FECC701B6010E940A33AF
:1036F00087FDE4CF20E030E0A901C701B6010E94B8
:103700000A3387FF0AC06DE2C8010E94B81AEC01B3
:10371000F7FAF094F7F8F09402C0C0E0D0E0B12CD2
:1037200060E070E080E09FE37B1441F020E030E057
:1037300040E251E40E940F33B394F6CFA701960103
:103740000E949E326B017C010E9488334B015C0118
:103750002AE0AB01BC01C8010E94D41AC80FD91FCE
:103760007720C1F1C501B4010E94B7339B01AC01C0
:10377000C701B6010E949D326B017C016EE2C80157
:103780000E94B81AC80FD91F20E030E040E251E48F
:10379000C701B6010E946E344B015C010E94883360
:1037A0006B01E12CF12C2AE0B701A601C8010E94AF
:1037B000D41AC80FD91FC701B6010E94B7339B01A5
:1037C000AC01C501B4010E949D326B017C017A9469
:1037D0007110DACFCE01DF91CF911F910F91FF9041
:1037E000EF90DF90CF90BF90AF909F908F907F90A1
:1037F00008951F920F920FB60F9211242F933F93AB
:103800004F935F936F937F938F939F93AF93BF93E8
:10381000EF93FF9383E296E00E94B115FF91EF9141
:10382000BF91AF919F918F917F916F915F914F91D8
:103830003F912F910F900FBE0F901F9018951F92E0
:103840000F920FB60F9211242F938F939F93EF93A4
:10385000FF93E0913306F09134068081E0913906C0
:10386000F0913A0682FD12C0908180913C068F5FF4
:103870008F7320913D06821751F0E0913C06F0E0F5
:10388000ED5DF94F958F80933C0601C08081FF91DB
:10389000EF919F918F912F910F900FBE0F901F90DE
:1038A0001895FC018485958597FD0BC09FB7F8940A
:1038B00082E08093E9008091F2009FBF90E0019642
:1038C00008959FB7F89482E08093E9008091F20018
:1038D0009FBF90E0089585ED8093BC008091BC006F
:1038E00084FDFCCF1092FD0508954091D905262F47
:1038F00030E0240F311D21323105DCF42091FD052B
:103900002430C9F4FC0180E090E0861758F430912F
:10391000D9052191DC01A754BA4FA30FB11D2C93F7
:103920000196F3CF8091D905680F6093D90580E0A7
:10393000089581E0089582E0089508958FEF9FEF44
:1039400008958FEF9FEF08958091B80590E09195CD
:10395000819591090895CF93DF93CB01EA01642FFC
:103960000E94751CCE01DF91CF910895CF93DF9314
:103970001F92CDB7DEB7698361E0CE0101960E9448
:10398000751C81E090E00F90DF91CF9108950F9327
:103990001F93CF93DF931F92CDB7DEB78C01FC014D
:1039A0008485958597FF0EC0CE0101960E94472918
:1039B000019719F4898190E002C08FEF9FEFF80121
:1039C00095878487F801848595850F90DF91CF9145
:1039D0001F910F91089582E00E949A29019779F42E
:1039E00081E08093B5058091A2059091A305A091F7
:1039F000A405B091A5050197A109B1090DC01092C8
:103A0000B5058091A2059091A305A091A405B09160
:103A1000A5050196A11DB11D8093A2059093A30554
:103A2000A093A405B093A50581E08093A605089511
:103A30008F929F92AF92BF92CF92DF92EF92FF92BE
:103A40000F931F930E94F2250091B1051091B205CA
:103A50002091B3053091B405C090AD05D090AE056E
:103A6000E090AF05F090B00546015701801A910A29
:103A7000A20AB30A95018401060F171F281F391FD8
:103A80000093AD051093AE052093AF053093B005BC
:103A90006093B1057093B2058093B3059093B4051C
:103AA0008091A9059091AA05A091AB05B091AC05B4
:103AB0000196A11DB11D8093A9059093AA05A0931D
:103AC000AB05B093AC051F910F91FF90EF90DF9085
:103AD000CF90BF90AF909F908F9008951F920F92BC
:103AE0000FB60F9211242F933F934F935F936F93D1
:103AF0007F938F939F93AF93BF93EF93FF938091A7
:103B0000B900887F803609F49CC068F5883209F4D2
:103B10005BC090F4803109F454C038F4882309F470
:103B2000F2C0883009F44DC0F2C0883109F44CC0AD
:103B3000803209F45DC0EBC0803409F468C048F4F9
:103B4000803309F455C0883309F0E1C08093FC0547
:103B5000D4C0803509F44FC0883509F45DC088347D
:103B600009F0D5C0D2C0883909F4C3C0A8F4883799
:103B700009F467C038F4883609F463C0803709F463
:103B800060C0C5C0883809F4B4C0803909F45FC08A
:103B9000803809F0BCC05BC0803B09F484C038F4B5
:103BA000803A09F466C0883A09F47DC0B0C0803C10
:103BB00009F4A3C0883C09F4A0C0883B09F486C07E
:103BC000A6C08091220610C0909121068091200607
:103BD000981770F5E091210681E08E0F8093210601
:103BE000F0E0E050FA4F80818093BB0085EC82C00A
:103BF0008093FC058AC0E091210681E08E0F8093BE
:103C000021068091BB00F0E0E050FA4F8083909154
:103C10002106809120066AC0E091210681E08E0F86
:103C2000809321068091BB00F0E0E050FA4F808342
:103C30008091FF05811169C081E08093FE0584EACF
:103C40005DC083E08093FD051092FB05CFCF80918E
:103C5000FB05803208F04DC0E091FB0581E08E0F3E
:103C60008093FB058091BB00F0E0E552FA4F808322
:103C7000BDCF85EC8093BC001092FD058091FB05C3
:103C8000803230F4E091FB05F0E0E552FA4F10820B
:103C90006091FB0570E08BED95E0E0E0F0E00995C8
:103CA0001092FB0534C084E08093FD051092DA0584
:103CB0001092D905E0E0F0E009958091D9058111D5
:103CC00005C081E08093D9051092B905E091DA052D
:103CD00081E08E0F8093DA05F0E0E754FA4F80819F
:103CE0008093BB009091DA058091D905981708F46C
:103CF0007DCF85E88093BC000AC085EC8093BC0032
:103D00001092FD0504C01092FC050E946B1CFF91EF
:103D1000EF91BF91AF919F918F917F916F915F9143
:103D20004F913F912F910F900FBE0F901F901895BC
:103D3000DC0180E0615098F02D91982F9227E92FB7
:103D4000EF70F0E0EB54FE4F249192959F70E92FB5
:103D5000F0E0EB53FE4FE491822F8E27EBCF0895D6
:103D6000FC0190810180F281E02DF8948181892B02
:103D700081832281892F809528232283A7E0B0E0C8
:103D80001197F1F7218182238183A3E2B0E011979B
:103D9000F1F780817894EFECF0E03197F1F7982318
:103DA00081E009F480E00895FC0190810180F281B6
:103DB000E02D892F809560FF12C0F8942281822324
:103DC00082838181892B8183A3E2B0E01197F1F78F
:103DD0008281982B9283789487ED90E011C0F894BB
:103DE0002281822382838181892B8183AFEFB0E09E
:103DF0001197F1F78281982B928378948FE090E06D
:103E00000197F1F70895DF92EF92FF920F931F93BE
:103E1000CF93DF93EC01D62EE42E08E010E0FF24D0
:103E2000F39461E08D2D8F2109F460E0CE010E94B2
:103E3000D41EFF0C01501109A1F7E11010C0F89435
:103E4000E981FA8191818881809589238183E98143
:103E5000FA81928188818095892382837894DF9189
:103E6000CF911F910F91FF90EF90DF900895DC01AB
:103E70002C911196ED91FC911297F8948181922FDB
:103E800090958923818378948DE743E050E08150B9
:103E900021F1DA011197F1F730813223C1F3F8945F
:103EA0008281892382838181822B81837894ABE70D
:103EB000B7E01197F1F7F89481819823918383E11A
:103EC00091E00197F1F78081282381E009F080E0FB
:103ED0007894E3E6F6E03197F1F708958F929F9298
:103EE000AF92BF92CF92DF92EF92FF920F931F9308
:103EF000CF93DF93EC018E819F810E94371F40E0BA
:103F00006CEC8E819F810E94031F488164E48E8146
:103F10009F810E94031F8A81882309F442C0E9819E
:103F2000E950E33040F4F0E0EE0FFF1FE75AFE4F98
:103F30000081118102C00EEE12E08B818823F9F01E
:103F4000888181111CC00E9417264B015C01680109
:103F5000110FEE08FF088E819F810E94B01E8130F4
:103F600001F10E941726DC01CB018C199D09AE09D5
:103F7000BF0988159905AA05BB0568F312C0B801E9
:103F8000110F880B990BDF91CF911F910F91FF902B
:103F9000EF90DF90CF90BF90AF909F908F900C9458
:103FA0002E2ADF91CF911F910F91FF90EF90DF901C
:103FB000CF90BF90AF909F908F9008951F920F92D7
:103FC0000FB60F9211242F933F934F935F936F93EC
:103FD0007F938F939F93AF93BF93EF93FF938091C2
:103FE000B70587FF05C010928500109284001BC0A2
:103FF0002091B705022E000C330B8091340790E01E
:104000002817390784F48091B705082E000C990B06
:10401000FC01EE0FFF1F8E0F9F1FFC01E05FF84FAA
:10402000808186FD15C08091B7058F5F8093B705AD
:104030002091B705022E000C330B8091340790E0DD
:1040400028173907C4F48091B7058C3064F113C088
:104050008091B705082E000C990BFC01EE0FFF1F95
:104060008E0F9F1FFC01E05FF84F808160E08F732F
:104070000E94C329D8CF8091840090918500049636
:1040800080349C4918F480E49CE905C08091840048
:1040900090918500049690938900809388008FEF1B
:1040A0008093B7053BC020918400309185008091BA
:1040B000B705082E000C990BFC01EE0FFF1F8E0FA9
:1040C0009F1FFC01E05FF84F81819281820F931F57
:1040D00090938900809388008091B705082E000C8A
:1040E000990BFC01EE0FFF1F8E0F9F1FFC01E05F7D
:1040F000F84F808186FF12C08091B705082E000C12
:10410000990BFC01EE0FFF1F8E0F9F1FFC01E05F5C
:10411000F84F808161E08F730E94C329FF91EF9176
:10412000BF91AF919F918F917F916F915F914F91CF
:104130003F912F910F900FBE0F901F901895CF9326
:10414000DF93EC018A859B85AC85BD858E839F833B
:10415000A887B9870E9417266A837B838C839D83F7
:1041600081E089838883DF91CF910895CF93DF9396
:10417000EC018E819F81A885B9858A839B83AC835E
:10418000BD830E9417266A877B878C879D8781E085
:1041900089838883DF91CF9108952F923F924F9228
:1041A0005F926F927F928F929F92AF92BF92CF92C7
:1041B000DF92EF92FF920F931F93CF93DF93D82F4D
:1041C000C92F8B010E94073224E630E040E050E026
:1041D0000E946C3249015A019B01AC0160E876E90A
:1041E00088E990E00E94E0346B017C01F801918243
:1041F0008082ED2FFC2F2191822F022E000C990B33
:10420000C0970A97C0F32E3239F51F0180E8882E37
:1042100086E9982E88E9A82EB12C9AE0492E512CD7
:10422000612C712CF101C1911F010C2E000CDD0BD2
:10423000E097CA30D10580F4C501B401A301920111
:104240000E946C3249015A01DE010E946432C60E9E
:10425000D71EE81EF91EE6CFA5E0B0E0A701960143
:104260000E9459326F5F7F4F8F4F9F4F23E030E0A6
:1042700040E050E00E946C32F80122833383448393
:1042800055831682DF91CF911F910F91FF90EF9090
:10429000DF90CF90BF90AF909F908F907F906F9066
:1042A0005F904F903F902F900895FF920F931F9330
:1042B000CF93DF93EC01F8802DE2F21201C021963A
:1042C000CE010E9407329B01AC01A4E6B0E00E943F
:1042D0005932FE014991242F042E000C330B205338
:1042E00031092A303105A8F34E3241F52181022EE1
:1042F000000C330B205331092A303105F8F44AE021
:10430000429F8001439F100D1124012E000C220BAF
:10431000330B600F711F821F931F0281002E000C50
:10432000110B005311090A30110540F4012E000C45
:10433000220B330B600F711F821F931F2DE2F212AD
:1043400007C090958095709561957F4F8F4F9F4FD7
:10435000DF91CF911F910F91FF90089583E296E036
:104360000E949B15892B39F083E296E00E94791513
:104370000E94AA26F3CF8091BB07882379F3089582
:104380000C944B320C94433280913301609135018F
:104390007091360181110EC0072E000C880B990B0D
:1043A0000E94B9332BE734E14EEC5FE30E946E3498
:1043B0000E948133CB016AE070E00E94FC3470936C
:1043C0003F0760933E0780913E0790913F076AE068
:1043D00070E00E94FC3470933D0760933C0790931B
:1043E0003B0780933A07860F971F97FF03C081E032
:1043F00092E008C06A3071051CF487E193E002C0C6
:1044000088E193E00E947E2380913C0790913D07D4
:1044100097FF07C091958195910990933D078093EF
:104420003C0780913C0790913D070E94B72384E0B0
:1044300092E00E947E2380913A0790913B0797FF7C
:1044400007C091958195910990933B0780933A0716
:1044500080913A0790913B070E94B72380913301E6
:10446000882319F086E092E002C08BE092E00C9481
:104470007E230F931F93CF938C0101960E94C2213C
:10448000C82FC8010E94C2212C2F30E0A901582B4F
:10449000CA01CF911F910F9108951F93CF93DF937E
:1044A000EC01162F672F0E94C021612FCE010196CB
:1044B000DF91CF911F910C94C021109215011092A1
:1044C000A8050C945901CF938091A605882391F1FA
:1044D0008091A2059091A305A091A405B091A50596
:1044E000181619061A061B0664F41092A2051092FB
:1044F000A3051092A4051092A5051092A60581E0CF
:1045000065C08091A2059091A305A091A405B091EA
:10451000A505B7FF0CC01092A2051092A30510923A
:10452000A4051092A5051092A60582E04FC0109236
:10453000A6054BC084E00E949A29C091B605892B3C
:10454000E9F4CF5FC093B60568EC70E080E090E0DE
:104550000E942E2AC830C0F11092B6050E947A231C
:1045600084E10E943B2460E070E080E090E00E94E3
:10457000272486E994E00E947E231DC0CC2329F1E4
:104580001092B6050E947A2384E10E943B2460E0E9
:1045900070E080E090E00E94272480E994E00E948F
:1045A0007E2364EF71E080E090E00E942E2A0E945A
:1045B0007A2384E00BC084E00E949A29892BD9F3E6
:1045C0000E947A2388E002C002C080E190E0CF918F
:1045D00008958F929F92AF92BF92CF92DF92EF9207
:1045E000FF928090AD059090AE05A090AF05B09081
:1045F000B0056091A9057091AA058091AB059091D5
:10460000AC051092AD051092AE051092AF05109258
:10461000B0051092A9051092AA051092AB05109250
:10462000AC050E94B73320E03BE147EB5AE40E941F
:104630006E346B017C01C501B4010E94B7339B014C
:10464000AC01C701B6010E940F336B017C01609180
:10465000340170E080E090E00E94B9339B01AC012E
:10466000C701B6010E940F330E9481339B01AC0148
:10467000AAE0B0E00E945932CB01FF90EF90DF90AA
:10468000CF90BF90AF909F908F90089561E0809100
:1046900077070E94F22961E0809178070E94F22951
:1046A00061E0809179070E94F22961E080917907A9
:1046B0000E94C32960E0809177070E94C32960E0CF
:1046C000809178070E94C32980917A07882319F086
:1046D00060E00C94F2290895CF93DF93EC01699187
:1046E000662329F088E697E00E94B02AF8CFDF9190
:1046F000CF9108958BE994E00C946C23CF93DF93D2
:10470000EC018EE994E00E946C23BE0188E697E0FC
:104710000E94BF1A60E088E697E0DF91CF910C9489
:10472000B02ACF93C82F8EE994E00E946C236C2F9F
:1047300088E697E00E94B81A60E088E697E0CF919B
:104740000C94B02ACF93C82F8EE994E00E946C237A
:104750004C2F50E060E070E02AE088E697E00E948D
:10476000D41A60E088E697E0CF910C94B02ACF92FB
:10477000DF92EF92FF926C018EE994E00E946C232D
:104780000D2C000CEE08FF08F7FE0EC06DE288E667
:1047900097E00E94B81A44275527BA014C195D09C1
:1047A0006E097F092AE003C02AE0B701A60188E666
:1047B00097E00E94D41A60E088E697E0FF90EF90BF
:1047C000DF90CF900C94B02ACF92DF92EF92FF92BD
:1047D0006B017C018EE994E00E946C2322E0B7011A
:1047E000A60188E697E00E941D1B60E088E697E03E
:1047F000FF90EF90DF90CF900C94B02ACF93DF938F
:10480000D82FC62F81EA94E00E946C236D2F88E692
:1048100097E00E94B02A6C2F88E697E0DF91CF9155
:104820000C94B02ACF93DF938F3F910510F4682F3B
:1048300008C0EC016FEF88E697E00E94B02A6C2F69
:104840006F5F88E697E0DF91CF910C94B02A0F93C9
:104850001F93CF93DF938C01EB0185EA94E00E94D4
:104860006C23C8010E941224CE01DF91CF911F91C9
:104870000F910C941224CF93C82F88EA94E00E94E1
:104880006C236C2F88E697E0CF910C94B02ABC0182
:10489000909137079C3098F58091380728E830E0F0
:1048A000281B310987FD3395220F331F220F331F39
:1048B000621773078CF08091390748E552E0481B76
:1048C000510987FD5395440F551F440F551F9B01F8
:1048D000461757070CF49A0122503109220F331F53
:1048E0004FB7F894892F90E0FC01EE0FFF1F8E0F59
:1048F0009F1FFC01E05FF84F328321834FBF089573
:104900004F925F926F927F928F929F92AF92BF92DF
:10491000CF92DF92EF92FF920F931F93CF93DF938B
:10492000CDB7DEB761970FB6F894DEBF0FBECDBF2F
:10493000DC011696ED91FC91179713861586148667
:10494000DF011B9633961E92EA17FB07E1F7FC0185
:1049500006811781D8011D962C91211169C07C0117
:10496000C8010E94371F811105C0F8011386158602
:10497000148681C040E060EFC8010E94031FBB2481
:10498000B394A12C912CCC24C394C8010E94B01ED6
:10499000D82EC8010E94B01EF1E0DF1203C08130A2
:1049A000D1F439C02A2D30E0D8121FC0D8011B968F
:1049B0008C91C81638F4F801E20FF31F83818B2124
:1049C00051F402C08C1539F0D12CB8E0BC1560F060
:1049D000F801C48609C0F801EA0DF11D83818B2915
:1049E0008383DD24D39409C09C2CF801E20FF31FCC
:1049F00093818B2D8095892383836D2DC8010E941F
:104A0000D41EC394BB0C19F4A394BB24B394F7E055
:104A1000FA1508F0BACF20E42C1550F4D8011B96F3
:104A20009C921B9791100EC081E01D968C930AC03A
:104A3000D8011B961C921B971D961C921D971C96C5
:104A40001C9219C0F8018381882391F333966E017B
:104A50002AE0C20ED11C055F1F4FD601560181917D
:104A60008D93E017F107D9F767E0C6010E94981E01
:104A70009989891729F060E070E08EEF92EC99C077
:104A8000D70116968D919C9117970E94371F882306
:104A900009F48CC0F7010681178140E065E5C80183
:104AA0000E94031F4E01F2E18F0E911CD6016D9101
:104AB0006D0140E0C8010E94031F8C149D04B1F7F2
:104AC00040E06EEBF701868197810E94031F8E0103
:104AD0000F5F1F4F2801D70116968D909C90179756
:104AE00078E0672E712CD12CCC24C394C4010E9491
:104AF000B01E8111DC28CC0CB1E06B1A7108B1F743
:104B0000F801D1928F01AE16BF0629F7D70116968C
:104B10008D919C9117970E94371F813009F046C0F4
:104B200068E0C2010E94981E998589133FC02A81BE
:104B300030E0C901982F8827990F990F990F698143
:104B4000B8E06B9FB00111249C01262B372B8A857E
:104B50008031C9F4688570E08F81FB01E81BF109A1
:104B6000CF019695982F8827979587950E94FC34BA
:104B700060517109207F53E0220F331F5A95E1F7EE
:104B8000620F731F01C0B9016138F4EE7F070CF4A6
:104B900072CF072E000C880B990B0E94B93320E0CE
:104BA00030E040E05CE30E946E3403C060E874EEE5
:104BB000EBCF61960FB6F894DEBF0FBECDBFDF918D
:104BC000CF911F910F91FF90EF90DF90CF90BF900A
:104BD000AF909F908F907F906F905F904F900895CF
:104BE0000E942A353FB7F8948091B0089091B1089F
:104BF000A091B208B091B30826B5A89B05C02F3F7D
:104C000019F00196A11DB11D3FBFBA2FA92F982FF2
:104C10008827820F911DA11DB11DBC01CD0142E06D
:104C2000660F771F881F991F4A95D1F708952FB7F0
:104C3000F8946091AC087091AD088091AE089091A5
:104C4000AF082FBF08951F920F920FB60F92112435
:104C50002F933F938F939F93AF93BF938091AC0813
:104C60009091AD08A091AE08B091AF083091AB081B
:104C700023E0230F2D3720F40196A11DB11D05C09F
:104C800026E8230F0296A11DB11D2093AB08809347
:104C9000AC089093AD08A093AE08B093AF08809194
:104CA000B0089091B108A091B208B091B3080196F4
:104CB000A11DB11D8093B0089093B108A093B208D4
:104CC000B093B308BF91AF919F918F913F912F9176
:104CD0000F900FBE0F901F90189590E0FC01319738
:104CE000EF30F105B0F5EE59FF4F0C94103580917F
:104CF00080008F7703C0809180008F7D809380003B
:104D0000089580918000877FF9CF84B58F7702C0A6
:104D100084B58F7D84BD0895809190008F7707C002
:104D2000809190008F7D03C080919000877F809359
:104D3000900008958091C0008F7703C08091C000DB
:104D40008F7D8093C00008958091C200877F8093FB
:104D5000C20008950F931F93CF93DF93982F409134
:104D6000190850911A0860911B0870911C084F5F38
:104D70005F4F6F4F7F4F4093190850931A0860930D
:104D80001B0870931C08843209F459C2E09113087F
:104D9000853234F48A3071F08D3009F05EC20AC079
:104DA0008A3241F08C3209F058C28091000889277C
:104DB00080930008092FEF3008F030C2F0E0EE5F7A
:104DC000F74F108280910108882309F41DC12091BA
:104DD00002083FEB320F822F022E000C990B363067
:104DE00010F4C79707C02156263018F4875591094B
:104DF00001C0C097282F2295207F309103084FEBE8
:104E0000430F832F032E000C990B463010F4C797E5
:104E100007C03156363018F48755910901C0C09744
:104E2000820F909100088913DBC080912508909132
:104E30002608A0912708B09128080196A11DB11D50
:104E40008093250890932608A0932708B0932808FC
:104E500080911408882399F080911D0890911E0874
:104E6000A0911F08B09120080196A11DB11D80934B
:104E70001D0890931E08A0931F08B093200810915E
:104E800011081123B9F1113009F084C08EE997E0BF
:104E90000E94B6208CEA97E00E94B6208091140808
:104EA000882309F477C087E0ECE8F7E0AEE7B7E0E5
:104EB00001900D928A95E1F787E0E3E9F7E0A5E834
:104EC000B7E001900D928A95E1F70E941726609352
:104ED0009A0770939B0780939C0790939D0710936C
:104EE0007D0710937C078AEB97E00E949F2088EC57
:104EF00097E04EC08CEA97E00E94B620809114089B
:104F0000882329F187E0ECE8F7E0AEE7B7E001900D
:104F10000D928A95E1F787E0E3E9F7E0A5E8B7E0CD
:104F200001900D928A95E1F70E94172660939A07E7
:104F300070939B0780939C0790939D0781E08093DB
:104F40007D0780937C0786ED97E00E949F208091EB
:104F5000EE079091EF07A091F007B091F1078093D1
:104F6000EA079093EB07A093EC07B093ED070E943C
:104F700017266093E6077093E7078093E8079093FE
:104F8000E90781E08093E5078093E40782EF97E0EB
:104F90000E949F20C0911708D091180811E0209717
:104FA00009F43EC1E0911708F091180866A177A1B5
:104FB0008EA19FA10E942F35892B09F031C1BE011E
:104FC000CE0140960E9438350E94172668A379A327
:104FD0008AA39BA31DA31CA30AA4DBA5C02DDFCF1E
:104FE0008091210890912208A0912308B091240873
:104FF0000196A11DB11D8093210890932208A093D2
:105000002308B09324080AC190911208911142C05C
:105010006FE475E082E098E00E942F35892B41F023
:1050200065E575E082E098E00E942F35892B11F448
:1050300081E014C06BE575E082E098E00E942F35B6
:10504000892B41F061E675E082E098E00E942F35FF
:10505000892B19F41092110803C082E08093110883
:10506000809115089091160890931808809317085E
:10507000C0911708D0911808209709F4CFC062E0BA
:1050800078E08EA19FA10E942F3597FFC1C08AA50D
:105090009BA5EACFE0911108E23009F491C080911C
:1050A0000208882309F48CC020E2E29FF001112459
:1050B000E92B3197E932F10508F082C0EF58FF4F34
:1050C0000C94103582E098E00E9455216093B2075D
:1050D0007093B3078093B4079093B50771C091E0C4
:1050E000813409F043C043C06CE877E009C091E027
:1050F000833509F090E09093920762C063E977E00E
:1051000082E098E00E94CD205BC091E0873509F0F5
:1051100090E09093990754C082E098E00E94552156
:105120006093C4077093C5078093C6079093C70721
:1051300047C082E098E00E9455216093D2077093A7
:10514000D3078093D4079093D5073AC082E098E0C4
:105150000E9407326093A4077093A5078093A60767
:105160009093A7072DC091E081330CF490E09093C9
:10517000140826C082E098E00E9407326093EE0790
:105180007093EF078093F0079093F10719C082E0C6
:1051900098E00E9455216093FC077093FD0780936F
:1051A000FE079093FF070CC082E098E00E94552113
:1051B0006093E0077093E1078093E2079093E30721
:1051C000C0911708D0911808209741F1E091170875
:1051D000F091180866A177A18EA19FA10E942F359A
:1051E000892BE1F428A539A58091120890E0821757
:1051F0009307A4F02817390739F440E150E062E042
:1052000078E0CE010E943F350AA4DBA5C02DDCCF9B
:10521000892B21F0109218081092170880E001C025
:1052200081E0909112089F5F9093120810921308EA
:1052300091E00A3209F090E09093010823C01092A7
:105240001308109212081092000882E0809311084F
:10525000109201081092140814C0EE3040F481E05E
:105260008E0F80931308F0E0EE5FF74F90838091EC
:105270000108811106C02091000892279093000830
:1052800001C080E0DF91CF911F910F91089520918F
:10529000B508211103C08FEF9FEF08955FB7F89411
:1052A00022E02093E9002091F20030E0121613066C
:1052B00014F421E030E0422FFC0184E6415038F044
:1052C00028988093B4089091F1009193F7CF21151D
:1052D000310521F08091F200882319F05FBFC901E8
:1052E00008958BE68093E800F9CF2FB7F89483E018
:1052F0008093E9009091E800892F807295FF04C0A7
:105300009091F20080E4891B2FBF08958091BA0824
:1053100081110DC082E08093B60884E08093B708C5
:105320001092B9081092B80881E08093BA0886EB11
:1053300098E00895CF93DF93282F30E0F901E35CE4
:10534000FD4F8491F901E25EFD4FD491F901E150E6
:10535000FE4FC491CC2391F081110E946D26EC2F59
:10536000F0E0EE0FFF1FEF50FE4FA591B491EC91CE
:10537000ED2381E090E021F480E002C080E090E045
:10538000DF91CF9108951F93CF93DF93282F30E0C3
:10539000F901E35CFD4F8491F901E25EFD4FD49188
:1053A000F901E150FE4FC491CC23C1F0162F8111B9
:1053B0000E946D26EC2FF0E0EE0FFF1FED51FE4F27
:1053C000A591B4919FB7F894111104C08C91D09518
:1053D000D82302C0EC91DE2BDC939FBFDF91CF91ED
:1053E0001F910895CF93DF9390E0FC01E25EFD4FA3
:1053F0002491FC01E150FE4F8491882361F190E0FB
:10540000880F991FFC01EB52FE4FC591D491FC010E
:10541000ED51FE4FA591B491611109C09FB7F89469
:105420008881209582238883EC912E230BC06230E3
:1054300061F49FB7F8948881322F30958323888355
:10544000EC912E2B2C939FBF06C08FB7F894E88168
:105450002E2B28838FBFDF91CF9108958F929F923B
:10546000AF92BF92CF92DF92EF92FF926B017C01DD
:105470000E94F2254B015C01C114D104E104F10446
:10548000F1F00E94F225DC01CB0188199909AA09E3
:10549000BB09883E9340A105B10570F321E0C21A13
:1054A000D108E108F10888EE880E83E0981EA11C5F
:1054B000B11CC114D104E104F10419F7DDCFFF9050
:1054C000EF90DF90CF90BF90AF909F908F90089516
:1054D000089580E090E00895FF920F931F93CF937B
:1054E000DF93EC0161E089890E94C32961E0898929
:1054F0000E94C3298A890E949A29892BD9F360E0E6
:1055000089890E94C32960E089890E94C32960E0DB
:1055100089890E94C32998E0F92E00E010E0000F6D
:10552000111F61E08F850E94C3298A890E949A29F0
:10553000892B09F0016060E08F850E94C329FA94ED
:10554000F110EDCF61E089890E94C329C801DF9184
:10555000CF911F910F91FF90089504970C946C2A9E
:10556000CF92DF92EF92FF920F931F93CF93DF932F
:10557000EC01E62E60E089890E94C32960E08989F8
:105580000E94C32960E089890E94C329DF84C888FA
:1055900007E010E0F12CB701002E02C07595679569
:1055A0000A94E2F761708C2D0E94C32961E08D2D71
:1055B0000E94C32960E08D2D0E94C329015011096A
:1055C00050F761E089890E94C32981E090E0DF9172
:1055D000CF911F910F91FF90EF90DF90CF900895A2
:1055E0001F93CF93DF93EC01162F60E0812F0E9471
:1055F000F229612F70E0FB01E25EFD4FE491E88348
:10560000FB01E150FE4FE491F0E0EE0FFF1FEF5081
:10561000FE4F859194919A8389831B861D861C86F3
:10562000FE013B9623961292EC17FD07E1F7DF91FE
:10563000CF911F9108954F925F926F927F928F92B8
:105640009F92AF92BF92CF92DF92EF92FF92CF9351
:10565000109226061092250688EE93E0A0E0B0E0B6
:105660008093270690932806A0932906B0932A06D4
:1056700023E631E030932406209323062DEC30E01E
:105680003093300620932F062CEC30E03093320616
:105690002093310628EC30E0309334062093330613
:1056A00029EC30E030933606209335062AEC30E0C2
:1056B00030933806209337062EEC30E030933A06CC
:1056C0002093390610923C0610923D0610923E0639
:1056D00010923F061092C3061092C2068093C40631
:1056E0009093C506A093C606B093C70625E731E0A0
:1056F0003093C1062093C0062FEF3FEF3093CD06C5
:105700002093CC061092800810927F088093810825
:1057100090938208A0938308B093840887E891E06F
:1057200090937E0880937D08409020015090210145
:1057300060902201709023014092790850927A087B
:1057400060927B0870927C0880901C0190901D01F3
:10575000A0901E01B0901F0180927508909276086B
:10576000A0927708B0927808C0901801D0901901E3
:10577000E0901A01F0901B01C0927108D09272085B
:10578000E0927308F09274088DE298E090935408C8
:105790008093530881E398E09093520880935108D6
:1057A00089E298E0909356088093550810926F080C
:1057B00010926708109268081092690810926A089F
:1057C00080E090E0AFE7B3E480936B0890936C08BF
:1057D000A0936D08B0936E0884E690E0A0E0B0E07E
:1057E0008093630890936408A0936508B09366085B
:1057F00081E090E090934E0880934D0820E030E0E7
:10580000A901C301B2010E940A3387FD6DC020E0E7
:1058100030E0A901C501B4010E940A3387FD64C0CC
:1058200020E030E0A901C701B6010E940A3387FDDC
:105830005BC01092500810924F081092700840926E
:105840003508509236086092370870923808809276
:10585000390890923A08A0923B08B0923C08C09256
:105860003D08D0923E08E0923F08F0924008A30124
:10587000920160E070E0CB010E949D32609341088C
:105880007093420880934308909344082DEC3CECBD
:105890004CEC5DE3C501B4010E946E349B01AC0188
:1058A00060E070E0CB010E949D32609345087093E8
:1058B000460880934708909348082DEC3CEC4CEC4C
:1058C0005DE3C701B6010E940F339B01AC0160E0AC
:1058D00070E0CB010E949D326093490870934A08A2
:1058E00080934B0890934C080E941726C090630841
:1058F000D0906408E0906508F0906608DC01CB0168
:105900008C199D09AE09BF098093570890935808D8
:10591000A0935908B0935A0810927C0710927D0703
:1059200010927F0710927E071092800710928107D5
:1059300010928207109283071092840710928607B4
:105940001092850710928707109288071092890796
:1059500010928A0710928B0710928D0710928C0775
:1059600010928E0710928F07109290071092910755
:105970001092920710929407109293071092950735
:105980001092960710929707109298071092990715
:1059900010929E0710929F071092A0071092A107E5
:1059A0001092A2071092A3071092AC071092AD07B5
:1059B0001092AE071092AF071092B0071092B10785
:1059C0001092BA071092BB071092C0071092C1073D
:1059D0001092C2071092C3071092C8071092C9070D
:1059E0001092CE071092CF071092D0071092D107D5
:1059F0001092D6071092D7071092DC071092DD079D
:105A00001092DE071092DF071092E4071092E5076C
:105A10001092EA071092EB071092EC071092ED0734
:105A20001092F2071092F3071092F8071092F907FC
:105A30001092FA071092FB071092000810920108CA
:105A400082E08093110810921208109213081092AD
:105A50001408109216081092150810921808109247
:105A600017081092190810921A0810921B08109229
:105A70001C0810921D0810921E0810921F08109208
:105A800020081092210810922208109223081092E8
:105A900024081092250810922608109227081092C8
:105AA00028081092020810926B0710926A0789E981
:105AB00091E0909369078093680789EA91E0909359
:105AC0006D0780936C0788E080937707C9E0C093E7
:105AD00078078AE08093790710927A070E9446231C
