:100000000C942F010C94C0160C9499160C94721633
:100010000C944B160C9457010C9457010C94241615
:100020000C9457010C9457010C94E7160C94591733
:100030000C9457010C9457010C9457010C945701E0
:100040000C9457010C94BD1E0C9457010C9457014D
:100050000C9457010C9457010C9457010C94E22511
:100060000C9457010C94FE1A0C94D81A0C94570156
:100070000C9457010C9457010C9457010C945701A0
:100080000C9457010C9457010C9457010C94570190
:100090000C944D1C0C9457010C9457010C9457016F
:1000A0000C9457010C9457010C9457018009330AA2
:1000B000E60A5F0BFF0B160E7B0EDB0E390FC20F2D
:1000C000B710D7114426472636263A2640266826FA
:1000D000682668264B264F26532659265D26682615
:1000E00063262128332836283D2844287228792879
:1000F000862893289F289F289F289F289F289F28ED
:100100009F289F289F289F289F289F289F289F28B7
:100110009F289F289F289F289F289F289F289F28A7
:100120009F2821282E28332836283D2844284B286C
:1001300058286528070605040100080A0B0C0D095C
:10014000080B000202020100090400000102020083
:100150000005240010010524010101042402060504
:100160002406000107058103100040090401000274
:100170000A00000007050202400000070583024054
:1001800000000403090412010002EF0201404123B0
:10019000368000010102030141726475696E6F20AF
:1001A0004C4C430041726475696E6F204C656F6EF4
:1001B0006172646F00005EBCE2613FDD83C29C7EC1
:1001C00020A3FD1F41009D23BE46DB65F88C11AFC7
:1001D00032CA57E97400000000240027002A002DCD
:1001E00000300000000000250028002B002E003108
:1001F00000000000002300260029002C002F00042E
:1002000004040404030405020202020403020202BD
:100210000206060606060604040202020404040896
:1002200002011040804010204080408008020401FC
:10023000804020100201108010204040200000006B
:100240000200090F0000030401000C000000000080
:10025000000000000000000000000000DA2A112465
:100260001FBECFEFDAE0DEBFCDBF15E0A0E0B1E00A
:10027000E8E0F9E602C005900D92A236B107D9F781
:1002800028E0A2E6B5E001C01D92AD3AB207E1F761
:1002900011E0CFE2D1E004C02197FE010E94443476
:1002A000CE32D107C9F70E941C2D0C9482340C94D5
:1002B00000002F923F924F925F926F927F928F92A7
:1002C0009F92AF92BF92CF92DF92EF92FF920F93E5
:1002D0001F93CF93DF93CDB7DEB7A7970FB6F894F0
:1002E000DEBF0FBECDBF80919205882339F060E05C
:1002F0008DE00E9482291092920507C061E08DE096
:100300000E94822981E0809392050E948D20809135
:100310000D018823A1F00E94392364E670E080E09B
:1003200090E00E94ED29E0909208F090930882EB13
:1003300091E00E942B23C70199270E94D12380912D
:10034000B1078823E1F11092B2076091B70770916D
:10035000B8078091B9079091BA070E94ED322EEB51
:100360003CE443E95FE30E94A23320E030E048EC44
:1003700052E40E94433220E030E048EC52E40E9414
:10038000A2330E94B532709395086093940810923E
:10039000C0076091C5077091C6078091C70790910B
:1003A000C8070E94ED3220E030E048EC52E40E94A1
:1003B00043320E94B53270939105609390050E947C
:1003C000D625C0908C05D0908D05E0908E05F090DC
:1003D0008F05C616D706E806F90608F0AAC00E94DF
:1003E000D625DC01CB0188579C4EAF4FBF4F809381
:1003F0008C0590938D05A0938E05B0938F0581E0B9
:100400008093620554E3E52E51E0F52E809162055C
:100410008330C8F5F701849190917B0083FB00271E
:1004200000F910E0980145E0220F331F4A95E1F7EB
:100430009F7D292B20937B008770806480937C00B4
:1004400080917A00806480937A0080917A0086FDA2
:10045000FCCF609178008091790070E0782B072EB6
:10046000000C880B990B0E94ED3260936905709324
:100470006A0580936B0590936C05809162058F5F90
:1004800080936205C3CF2DEC3CEC4CE052E46091CC
:10049000690570916A0580916B0590916C050E94C9
:1004A00043326093690570936A0580936B0590935E
:1004B0006C0587E397E00E944D1E87E397E00E945A
:1004C0003F240E94BC3260936705613819F4109292
:1004D00067050FC08091330181110BC0F9E06F9F58
:1004E000C001112465E070E00E943034605E6093CA
:1004F00067058BE497E00E944D1E8BE497E00E9415
:100500003F240E94BC3260936805613819F4109250
:1005100068050FC08091330181110BC029E0629FF3
:10052000C001112465E070E00E943034605E609389
:1005300068050E94D62500918805109189052091B3
:100540008A0530918B05061717072807390708F029
:1005500066C00E94D625DC01CB0188519C4FAF4F6D
:10056000BF4F8093880590938905A0938A05B09327
:100570008B0580919005909191059C01275131093F
:100580002D32310530F42EE42093800525E42093AC
:1005900081059C01245431092D32310530F425E4C4
:1005A0002093800520E2209381059C012157310989
:1005B0002D32310530F423E52093800525E4209386
:1005C00081059C012E5931092D32310530F423E586
:1005D0002093800520E2209381059C012B5C31094A
:1005E0002D32310530F423E52093800527E5209353
:1005F00081059C01285F31092D32310530F427E552
:100600002093800520E220938105855291408D97AB
:1006100030F48EE48093800587E5809381052091F6
:100620002C0730912D0780913401909135012817C6
:10063000390709F075C00E94D62500917B051091FD
:100640007C0520917D0530917E0506171707280748
:10065000390708F065C00E94D625DC01CB01805324
:10066000984FAF4FBF4F80937B0590937C05A0932D
:100670007D05B0937E0582E10E94FA2360E070E080
:1006800080E090E00E94E62385EB91E00E943D230C
:1006900061E070E080E090E00E94E62388EC91E069
:1006A0000E943D230E948D208091B107882321F173
:1006B0001092B2076091B7077091B8078091B9079F
:1006C0009091BA070E94ED322EEB3CE443E95FE3E0
:1006D0000E94A23320E030E048EC52E40E94433212
:1006E00020E030E048EC52E40E94A2330E94B53290
:1006F000709395086093940860E070E080E090E06B
:100700000E94E62381E093E00E943D2361E070E0D7
:1007100080E090E00E94E62381E093E00E943D2388
:1007200080917A05811109C080911B0190911C0173
:1007300090932D0780932C073BC2813019F41092BF
:10074000790503C081E080937905209128083091D4
:10075000290840912A0850912B0860912008709137
:10076000210880912208909123080E94D131AB0189
:10077000BC014093630550936405609365057093D5
:10078000660522E087EB96E00E94FC1980917905CE
:10079000882309F47FC08090630590906405A09041
:1007A0006505B090660520E030E04AEF53E4C501EE
:1007B000B4010E949D3387FD26C080910401811100
:1007C0000C94611381E080930401E0902501F09086
:1007D00026010091270110912801209121013091DB
:1007E0002201409123015091240160911D017091DB
:1007F0001E0180911F0190912001C12CD12C0E94DB
:100800004B220C94611320E030E0A901C501B40132
:100810000E943E321816CCF0809104018823A9F082
:1008200010920401E0900001F0900101009102019A
:1008300010910301CC24C394D12C20E030E040E897
:100840005EE3CA01B9010E944B2260919408709145
:100850009508072E000C880B990B0E94ED326093CF
:1008600028087093290880932A0890932B08609198
:100870003A0170913B01072E000C880B990B0E94E6
:10088000ED326093200870932108809322089093A2
:10089000230838C00E94C821BC01990F880B990B0E
:1008A0000E94ED32609328087093290880932A08EB
:1008B00090932B0860910B0170910C01072E000C96
:1008C000880B990B0E94ED326093200870932108E9
:1008D0008093220890932308109200011092010146
:1008E0001092020110920301CC24C394D12CE12C6C
:1008F000F12C870120E030E040E85EE3CA01B90155
:100900000E944B2280916608882309F443C10E940B
:10091000D6256F8F78A389A39AA380914E089091D2
:100920004F08A0915008B09151084F8D58A169A16E
:100930007AA1481B590B6A0B7B0B80915A08909146
:100940005B08A0915C08B0915D08481759076A07D9
:100950007B0708F41FC1E0914808F09149088081A5
:100960009181A281B3818B8F9C8FAD8FBE8FE091DF
:100970004C08F0914D089C01AD016081718182812C
:1009800093810E94D1314B015C0120915608309136
:10099000570840915808509159086B8D7C8D8D8D6A
:1009A0009E8D0E94D1316B017C0120913C083091D9
:1009B0003D0840913E0850913F08C501B4010E9496
:1009C000A23320915208309153084091540850911D
:1009D00055080E94D2312B013C016093520870935C
:1009E00053088093540890935508909167089BA3EF
:1009F00091111AC0209138083091390840913A0875
:100A000050913B08C701B6010E94A2339B01AC0183
:100A1000C301B2010E94D131609352087093530810
:100A20008093540890935508409052085090530872
:100A30006090540870905508109162080091630806
:100A40003090640820906508212F302F432D522DBF
:100A5000C301B2010E949D3318162CF4812F902FF0
:100A6000A32DB22D18C080915E0890915F08A091CF
:100A70006008B09161088CA39DA3AEA3BFA39C01A5
:100A8000AD01C301B2010E943E3287FF0CC08CA1B0
:100A90009DA1AEA1BFA18093520890935308A0934B
:100AA0005408B09355089BA1992379F020913808F8
:100AB0003091390840913A0850913B08C501B40182
:100AC0000E94A2334B015C0103C0812C912C540184
:100AD00020914008309141084091420850914308CC
:100AE000C701B6010E94A2339B01AC01609152087C
:100AF0007091530880915408909155080E94D1310B
:100B0000A50194010E94D2316B017C019B01AC01D3
:100B1000612F702F832D922D0E943E3287FD16C0CB
:100B200010915E0800915F08309060082090610885
:100B3000212F302F432D522DB601C7010E943E3286
:100B400087FD04C01C2D0D2D3E2C2F2CE0914A0852
:100B5000F0914B08812F902FA32DB22D808391838C
:100B6000A283B3838B8D9C8DAD8DBE8D80935608F3
:100B700090935708A0935808B09359088F8D98A167
:100B8000A9A1BAA180934E0890934F08A093500852
:100B9000B09351086091240870912508809126082F
:100BA000909127080E94B53270932D0760932C070F
:100BB00080912C0790912D070E94062480913A0184
:100BC00090913B012AE030E0B9010E9430347093EB
:100BD0003607609335078091940890919508B90184
:100BE0000E943034709378056093770580913801C6
:100BF000811112C0072E000C880B990B0E94ED3258
:100C00002BE734E14EEC5FE30E94A2330E94B53241
:100C100070937805609377051092A407C090A5079C
:100C2000D090A607E090A707F090A807C701B601EB
:100C300020E432E44FE050E00E94A0318091360180
:100C400090913701820F911D9C012C50310937FD85
:100C500005C0309376052093750505C00C969093DA
:100C6000760580937505809175059091760589319B
:100C700091052CF048979093760580937505C701F0
:100C8000B60120E137E240E050E00E94A031B4E636
:100C90008B2E912CA12CB12CCA01B901A501940174
:100CA0000E94A0317093740560937305C701B6016B
:100CB000A50194010E94A031CA01B901A5019401C6
:100CC0000E94A03170937205609371050E94D62531
:100CD00000916D0510916E0520916F0530917005A2
:100CE000061717072807390708F044C00E94D625C1
:100CF000DC01CB018C509E4FAF4FBF4F80936D05F1
:100D000090936E05A0936F05B09370050091340128
:100D10001091350180912C0790912D07B801681B27
:100D2000790B072E000C880B990B0E94ED326B019A
:100D30007C0180911B0190911C01B801681B790B0B
:100D4000072E000C880B990B0E94ED329B01AC0121
:100D5000C701B6010E94433220E030E048EC52E483
:100D60000E94A233609305017093060180930701EE
:100D7000909308018091380160913A0170913B0194
:100D800081110EC0072E000C880B990B0E94ED32CA
:100D90002BE734E14EEC5FE30E94A2330E94B532B0
:100DA000CB016AE070E00E943034709336076093A4
:100DB000350780913507909136076AE070E00E9410
:100DC00030347B018C017093340760933307909328
:100DD0003207809331078AE00E94FA2361E070E0D5
:100DE00080E090E00E94E623809175059091760561
:100DF0000E94762388EE91E00E943D238091730546
:100E0000909174050A9724F480E094E00E943D23B9
:100E100080917305909174050E94762388EE91E08D
:100E20000E943D2380917105909172050A9724F4E8
:100E300080E094E00E943D238091710590917205BD
:100E40000E94762381E193E00E943D238AE00E9484
:100E5000FA2363E070E082E190E00E94E6236EEF07
:100E600082E00E94BD238BED91E00E943D2364E06F
:100E700070E082E190E00E94E6236DEF82E00E9444
:100E8000BD2380913801882319F08FED91E002C0D5
:100E900083EE91E00E943D2360E070E080E090E00E
:100EA0000E94E62387EE91E00E943D2360910501B8
:100EB0007091060180910701909108010E94B5325E
:100EC000CB010E94762388E395E00E943D23809128
:100ED0000401882319F08FEC94E002C08AEE91E0BF
:100EE0000E943D2382E10E94FA2360E070E086E0E8
:100EF00090E00E94E62380917A05811104C08EEE75
:100F000091E00E943D2380917A05813071F482E165
:100F100093E00E943D2380910B0190910C010E946F
:100F2000762387EF91E00E943D2380917A058230FD
:100F300009F049C00E0D1F1D17FF03C08BEF91E094
:100F40000BC080913307909134070A971CF481E11C
:100F500093E002C082E193E00E943D238091330739
:100F60009091340797FF07C09195819591099093CF
:100F700034078093330780913307909134070E94A0
:100F800076238EEF91E00E943D238091310790916E
:100F9000320797FF07C09195819591099093320789
:100FA0008093310780913107909132070E94762318
:100FB00080913801882319F080E092E002C085E03A
:100FC00092E00E943D238AE00E94FA2362E070E0F2
:100FD00080E090E00E94E6238AE092E00E943D23B8
:100FE0006091690570916A0580916B0590916C051F
:100FF0000E94A32381E193E00E943D238AE00E94A6
:10100000FA2363E070E080E090E00E94E6238DE048
:1010100092E00E943D23809180050E9450238091A0
:1010200081050E94502364E070E080E090E00E941F
:10103000E62382E192E00E943D23809168050E94B0
:10104000612380913301882319F087E192E002C087
:1010500083EF91E00E943D2365E070E080E090E046
:101060000E94E6238BE192E00E943D238091670578
:101070000E94612380913301882319F087E192E077
:1010800002C083EF91E00E943D2366E070E080E0C3
:1010900090E00E94E62380E292E00E943D230E94BD
:1010A000C8210E9476238FE093E00E943D238BECC1
:1010B0000E94FA2360E070E080E090E00E94E62366
:1010C00066E18EE20E94BD238091770590917805BC
:1010D000843691051CF480E30E94502380917705AB
:1010E000909178050AE010E0B8010E943034CB01FD
:1010F0000E94762389EC0E94FA2360E070E080E091
:1011000090E00E94E6236BE28FE60E94BD2380916F
:10111000770590917805B8010E9430340E947623BB
:1011200080919D058823E9F180917A058230B9F498
:101130002091990530919A0540919B0550919C050D
:10114000AAE0B0E00E948D3120913A0130913B013C
:10115000620F731F70933B0160933A0118C0813096
:10116000B1F42091990530919A0540919B055091D9
:101170009C05AAE0B0E00E948D3120910B013091D6
:101180000C01620F731F70930C0160930B0110929E
:10119000990510929A0510929B0510929C05109249
:1011A0009D0584E00E94592920919F05892B21F4F7
:1011B0002F5F20939F050EC0222351F080917A0566
:1011C0008F5F833018F480937A0502C010927A05FD
:1011D00010929F0580919F05883010F40C945A134B
:1011E0000E94392384E10E94FA2360E070E080E0ED
:1011F00090E00E94E62364EF71E080E090E00E94BE
:10120000ED29A4E68A2E912CA12CB12C80919F056A
:10121000883010F40C945A1385E292E00E943D232A
:1012200064EF71E080E090E00E94ED2984E00E948C
:101230005929892BD9F38AE1ECE3F1E0DE0111961B
:1012400001900D928A95E1F7312CFE013196E30D64
:10125000F11DE30DF11D808191818853954011F0BE
:101260003394F3CF3A943B8E0E94392381E08093EC
:101270001A01F2E0FF2E10E000E0BB8D2B2E312C86
:101280000E94422182309105D1F024F4019769F047
:101290000C94CC128430910531F1089711F00C9424
:1012A000CC120E943C210C94CC1211110C94D3123C
:1012B000002311F40C94051301500C940B13802F90
:1012C00090E00596821593052CF4153019F40F5F04
:1012D000E2E0FE2E812F90E0059714F00C94CC12E2
:1012E0001F5F0C94D412E12FF0E0E00FF11DEC3001
:1012F000F10510F00C94CC12EA5AFF4F0C944434D0
:10130000809134019091350190932D0780932C07A3
:101310000E9439238AE00E94FA2360E070E080E0B6
:1013200090E00E94E6238FE292E00E943D2361E07C
:1013300070E080E090E00E94E6238DE392E00E945E
:101340003D2362E070E080E090E00E94E62381E5CA
:1013500092E00E943D2364E070E080E090E00E9413
:10136000E62387E692E00E943D238091340190912C
:1013700035010E9476238FE093E00E943D2366E0D2
:1013800070E080E090E00E94E62382E792E00E9415
:101390003D237EE9E72E77E0F72E80912C07909190
:1013A0002D070E9406240E94422182309105E1F01F
:1013B0001CF4019751F0F1CF8430910509F448C035
:1013C000089759F70E943C21E8CF80913401909111
:1013D00035018E39E7E09E072CF0F0923501E0925E
:1013E000340119C00A9613C08091340190913501DF
:1013F00020911B0130911C01281739073CF0265F12
:101400003F4F309335012093340105C00A979093E4
:1014100035018093340164E070E080E090E00E9448
:10142000E62387E692E00E943D238091340190916B
:1014300035010E9476238FE093E00E943D23809146
:1014400034019091350190932D0780932C07A5CFFF
:1014500080913401909135016AE070E00E9430344F
:1014600084E190E0A3C480911B0190911C019093B2
:101470002D0780932C070E9439238AE00E94FA23CB
:1014800060E070E080E090E00E94E62388E892E06F
:101490000E943D2361E070E080E090E00E94E6233E
:1014A00086E992E00E943D2362E070E080E090E0F7
:1014B0000E94E62389EA92E00E943D2364E070E006
:1014C00080E090E00E94E62387E692E00E943D23C0
:1014D00080911B0190911C010E9476238FE093E084
:1014E0000E943D2366E070E080E090E00E94E623E9
:1014F00082E792E00E943D2366EBE62E63E0F62E43
:1015000080912C0790912D070E9406240E94422171
:101510008230910509F11CF4019751F0F1CF84302C
:10152000910509F448C0089759F70E943C21E8CF7B
:1015300080911B0190911C01209134013091350163
:10154000821793073CF02A50310930931C012093F5
:101550001B0114C00A960EC080911B0190911C01C2
:10156000873BF3E09F072CF4F0921C01E0921B01F3
:1015700005C00A9790931C0180931B0164E070E002
:1015800080E090E00E94E62387E692E00E943D23FF
:1015900080911B0190911C010E9476238FE093E0C3
:1015A0000E943D2380911B0190911C0190932D0777
:1015B00080932C07A5CF80911B0190911C016AE0BC
:1015C00070E00E94303485E190E0F0C380911B010F
:1015D00090911C0190932D0780932C070E94392332
:1015E0008AE00E94FA2360E070E080E090E00E94D0
:1015F000E6238EEB92E00E943D2366E070E080E0FF
:1016000090E00E94E62382E792E00E943D23EE24D0
:10161000EA94FE2C5AE0D52E61E070E080E090E084
:101620000E94E62380ED92E00E943D2380912C07EA
:1016300090912D070E94762382ED92E00E943D2337
:1016400064E670E080E090E00E94ED2980912C0734
:1016500090912D0720911B0130911C01281739070B
:1016600034F021E030E030930A0120930901209109
:101670003401309135018217930724F0F0920A016A
:10168000E09209014091090150910A01D49E900114
:10169000D59E300D1124820F931F90932D078093B8
:1016A0002C070E9406240E9442218430910509F4EF
:1016B000B2C7089709F0B0CF0E943C21ADCF0E947D
:1016C00039238AE00E94FA2360E070E080E090E035
:1016D0000E94E62389ED92E00E943D2361E070E0E4
:1016E00080E090E00E94E623809139010E9461230E
:1016F00080913901813051F462E070E080E090E047
:101700000E94E6238BEE92E00E943D2366E070E0AB
:1017100080E090E00E94E62382E792E00E943D2371
:10172000FF24F39428E0E22E34E0D32E0E944221DD
:1017300082309105B9F11CF4019751F0F7CF843054
:10174000910509F457C0089789F70E943C21EECF14
:1017500061E070E080E090E00E94E6238091390132
:10176000813021F4D092390184E029C0883060F4BE
:101770008E5F809339010E94612362E070E080E017
:1017800090E00E94E623D2CFE092390188E00E94E7
:10179000612362E070E080E090E00E94E62384E153
:1017A00093E025C061E070E080E090E00E94E623D5
:1017B00080913901853070F08250809339010E9408
:1017C000612362E070E080E090E00E94E6238EEF0B
:1017D00092E00DC0F092390181E00E94612362E045
:1017E00070E080E090E00E94E6238BEE92E00E94A1
:1017F0003D239CCF609139018BE090E0D7C28AE114
:1018000096E00E9458140E9469261092A407C09086
:10181000A507D090A607E090A707F090A807C701FA
:10182000B60120E432E44FE050E00E94A031809104
:10183000360190913701820F911D0C979093760598
:1018400080937505C701B60120E137E240E050E022
:101850000E94A031CA01B901A50194010E94A031E2
:101860007093740560937305C701B601A5019401D7
:101870000E94A031CA01B901A50194010E94A031C2
:1018800070937205609371050E9439238AE00E946B
:10189000FA2360E070E080E090E00E94E62382E2BC
:1018A00093E00E943D2361E070E080E090E00E94C0
:1018B000E62380917505909176050E94762388EE47
:1018C00091E00E943D2380917305909174050A97E1
:1018D00024F480E094E00E943D2380917305909170
:1018E00074050E94762388EE91E00E943D2380914A
:1018F0007105909172050A9724F480E094E00E94AB
:101900003D2380917105909172050E94762380E1BC
:1019100093E00E943D2363E070E080E090E00E944D
:10192000E62380913601909137010C970E9476232F
:1019300080E193E00E943D2366E070E080E090E06B
:101940000E94E62382E792E00E943D238AE196E02E
:101950000E9458140E9469261092A407C090A507FF
:10196000D090A607E090A707F090A807C701B6019E
:1019700020E432E44FE050E00E94A0318091360133
:1019800090913701820F911D0C979093760580936B
:101990007505C701B60120E137E240E050E00E9442
:1019A000A031CA01B901A50194010E94A031709330
:1019B000740560937305C701B601A50194010E94E7
:1019C000A031CA01B901A50194010E94A031709310
:1019D00072056093710561E070E080E090E00E9424
:1019E000E62362E370E080E090E00E94ED290E942F
:1019F00042218230910509F469C01CF4019759F025
:101A0000C1C08430910509F4B5C0089709F0BAC087
:101A10000E943C21B7C080913601909137018831F6
:101A2000910514F4019602C088E190E0909337018B
:101A3000809336011092A4074090A5075090A60706
:101A40006090A7077090A807C301B20120E432E4B8
:101A50004FE050E00E94A031C0903601D090370195
:101A6000C20ED11C76019CE0E91AF108F0927605CD
:101A7000E0927505C301B20120E137E240E050E099
:101A80000E94A031CA01B901A50194010E94A031B0
:101A90007093740560937305C301B201A5019401AD
:101AA0000E94A031CA01B901A50194010E94A03190
:101AB0007093720560937105F7FE3EC0ACE0CA0EEC
:101AC000D11CD0927605C092750536C08091360142
:101AD000909137011816190634F401979093370145
:101AE0008093360104C01092370110923601109293
:101AF000A4076091A5077091A6078091A707909110
:101B0000A80720E432E44FE050E00E94A031809129
:101B1000360190913701820F911D9C012C503109A3
:101B200037FD05C0309376052093750505C00C96EA
:101B30009093760580937505809175059091760553
:101B4000893191052CF0489790937605809375051F
:101B500063E070E080E090E00E94E623809136012F
:101B6000909137010C970E94762380E193E00E94C8
:101B70003D2308C06091360183E190E00E949F20E0
:101B8000F12C02C0FF24F3948091750590917605A5
:101B900097FF05C0489690937605809375058091D0
:101BA000750590917605893191052CF048979093B1
:101BB00076058093750561E070E080E090E00E941A
:101BC000E62380917505909176050E94762388EE34
:101BD00091E00E943D2380917305909174050A97CE
:101BE00024F480E094E00E943D238091730590915D
:101BF00074050E94762388EE91E00E943D23809137
:101C00007105909172050A9724F480E094E00E9497
:101C10003D2380917105909172050E94762380E1A9
:101C200093E00E943D23F11091CEF5C40E94392328
:101C30008AE00E94FA2360E070E080E090E00E9479
:101C4000E62384E393E00E943D2361E070E080E0BE
:101C500090E00E94E6230E94A32066E070E080E00E
:101C600090E00E94E62382E792E00E943D2398E8FC
:101C7000E92E93E1F92E0E9442218230910539F13B
:101C80001CF4019749F0F7CF8430910569F108976A
:101C900091F70E943C21EFCF80913A0190913B0156
:101CA0008838B3E19B072CF0F0923B01E0923A01B7
:101CB00005C00A9690933B0180933A0161E070E081
:101CC00080E090E00E94E6230E94A320D4CF809180
:101CD0003A0190913B01853FE1E09E071CF484EFBF
:101CE00091E0E8CF0A97E6CF60913A0170913B010D
:101CF0008EE190E059C30E9439238AE00E94FA23C2
:101D000060E070E080E090E00E94E62389E493E0E8
:101D10000E943D2361E070E080E090E00E94E623B5
:101D200080913801882319F080E092E002C085E0BC
:101D300092E00E943D2366E070E080E090E00E9427
:101D4000E62382E792E00E943D23FF24F3940E9461
:101D500042218230910561F01CF4019749F0F7CFE0
:101D600084309105E1F0089791F70E943C21EFCF74
:101D7000809138018F258093380161E070E080E028
:101D800090E00E94E62380913801882319F080E0DA
:101D900092E002C085E092E00E943D23D8CF80917E
:101DA0003801882331F061E082E190E00E949F20B9
:101DB00032C460E0F9CF0E9439238AE00E94FA23FE
:101DC00060E070E080E090E00E94E62389E593E027
:101DD0000E943D2361E070E080E090E00E94E623F5
:101DE00080913301882319F08CE693E002C089E7E3
:101DF00093E00E943D2366E070E080E090E00E9466
:101E0000E62382E792E00E943D23FF24F3940E94A0
:101E100042218230910561F01CF4019749F0F7CF1F
:101E200084309105E1F0089791F70E943C21EFCFB3
:101E3000809133018F258093330161E070E080E071
:101E400090E00E94E62380913301882319F084E812
:101E500093E002C089E793E00E943D23D8CF8091B0
:101E60003301882311F061E001C060E08DE190E072
:101E70009DCF0E9439238AE00E94FA2360E070E03F
:101E800080E090E00E94E62380E993E00E943D23F9
:101E900061E070E080E090E00E94E6238CE993E04E
:101EA0000E943D2364E070E080E090E00E94E62321
:101EB0008FEA93E00E943D238091920890919308CD
:101EC0000E94762366E070E080E090E00E94E623C6
:101ED00082E792E00E943D23E0909208F090930800
:101EE00082EB91E00E942B23C70199270E94D12306
:101EF0000E94422182309105E1F01CF4019749F0E3
:101F0000EBCF84309105C9F1089731F70E943C214D
:101F1000E3CF8091920890919308883291053CF02C
:101F2000A8E2B0E0B0939308A093920815C0019680
:101F30000FC08091920890919308853191053CF4EF
:101F4000E4E1F0E0F0939308E093920805C0019774
:101F5000909393088093920864E070E080E090E0B2
:101F60000E94E6238FEA93E00E943D23809192082D
:101F7000909193080E947623AFCF6091920881E2FE
:101F800090E014CF0E9439238AE00E94FA2360E097
:101F900070E080E090E00E94E6238AEB93E00E94EC
:101FA0003D2361E070E080E090E00E94E6238CEC4D
:101FB00093E00E943D2363E070E080E090E00E94A7
:101FC000E6238FED93E00E943D2360911D01709107
:101FD0001E0180911F01909120010E94A32366E0C1
:101FE00070E080E090E00E94E62382E792E00E94A9
:101FF0003D2320E030E048EC52E460911D017091F7
:102000001E0180911F01909120010E94A2330E9425
:10201000B5327B010E9442218230910509F445C00E
:102020001CF4019751F0F6CF8430910509F49BC060
:10203000089781F70E943C21EDCF63E070E080E0DB
:1020400090E00E94E6238FED93E00E943D2320E084
:1020500030E048EC52E460911D0170911E018091C6
:102060001F01909120010E94A2336B017C0120E0AE
:1020700030E048EC52E40E949D3387FD0DC080E0C3
:1020800090E0A8ECB2E480931D0190931E01A09310
:102090001F01B093200143C020E030E040E85FE33F
:1020A000C701B6010E94D23132C063E070E080E027
:1020B00090E00E94E6238FED93E00E943D2320E014
:1020C00030E048EC52E460911D0170911E01809156
:1020D0001F01909120010E94A2336B017C0120E03E
:1020E00030E0A9010E943E3218164CF010921D01FA
:1020F00010921E0110921F011092200110C020E0CA
:1021000030E040E85FE3C701B6010E94D13160933F
:102110001D0170931E0180931F0190932001409038
:102120001D0150901E0160901F0170902001C3019D
:10213000B2010E94B5327B0120E030E048EC52E46D
:10214000C301B2010E94433260931D0170931E01CE
:1021500080931F01909320010E94A32381E193E0CB
:102160000E943D2357CFB7018CE090E01DC10E9433
:1021700039238AE00E94FA2360E070E080E090E07A
:102180000E94E62386EE93E00E943D2361E070E02A
:1021900080E090E00E94E62384EF93E00E943D23DC
:1021A00063E070E080E090E00E94E6238FED93E032
:1021B0000E943D23609121017091220180912301B1
:1021C000909124010E94A32366E070E080E090E0FB
:1021D0000E94E62382E792E00E943D2320E030E067
:1021E00048EC52E460912101709122018091230119
:1021F000909124010E94A2330E94B5327B010E947B
:1022000042218230910509F46EC01CF4019751F00F
:10221000F6CF8430910509F4C4C0089781F70E9475
:102220003C21EDCF63E070E080E090E00E94E62387
:102230008FED93E00E943D2320E030E048EC52E433
:1022400060912101709122018091230190912401DC
:102250000E94A2336B017C0120E030E048EC52E4A4
:102260000E949D3387FD0DC080E090E0A8ECB2E4B1
:102270008093210190932201A0932301B093240124
:1022800010C020E030E040E85FE3C701B6010E94E3
:10229000D2316093210170932201809323019093A6
:1022A0002401409021015090220160902301709000
:1022B0002401C301B2010E94B5327B0120E030E06D
:1022C00048EC52E4C301B2010E9443326093210101
:1022D0007093220180932301909324010E94A323F1
:1022E00080E193E05BC063E070E080E090E00E94FA
:1022F000E6238FED93E00E943D2320E030E048ECA0
:1023000052E460912101709122018091230190910A
:1023100024010E94A2336B017C0120E030E0A9017E
:102320000E943E3218164CF01092210110922201A8
:10233000109223011092240110C020E030E040E808
:102340005FE3C701B6010E94D13160932101709310
:102350002201809323019093240140902101509009
:1023600022016090230170902401C301B2010E94F8
:10237000B5327B0120E030E048EC52E4C301B20109
:102380000E944332609321017093220180932301C4
:10239000909324010E94A3238EE093E00E943D23AA
:1023A0002ECFB7018EE090E00E942C2134C10E9414
:1023B00039238AE00E94FA2360E070E080E090E038
:1023C0000E94E62382E094E00E943D2361E070E0F9
:1023D00080E090E00E94E62382E194E00E943D23A9
:1023E00063E070E080E090E00E94E6238FED93E0F0
:1023F0000E943D2360912501709126018091270163
:10240000909128010E94A32366E070E080E090E0B4
:102410000E94E62382E792E00E943D2320E030E024
:1024200048EC52E4609125017091260180912701CA
:10243000909128010E94A2330E94B5327B010E9434
:1024400042218230910509F445C01CF4019751F0F6
:10245000F6CF8430910509F49BC0089781F70E945C
:102460003C21EDCF63E070E080E090E00E94E62345
:102470008FED93E00E943D2320E030E048EC52E4F1
:10248000609125017091260180912701909128018A
:102490000E94A2336B017C0120E030E048EC52E462
:1024A0000E949D3387FD0DC080E090E0A8ECB2E46F
:1024B0008093250190932601A0932701B0932801D2
:1024C00043C020E030E040E85FE3C701B6010E946E
:1024D000D23132C063E070E080E090E00E94E623F9
:1024E0008FED93E00E943D2320E030E048EC52E481
:1024F000609125017091260180912701909128011A
:102500000E94A2336B017C0120E030E0A9010E940F
:102510003E3218164CF010922501109226011092AE
:1025200027011092280110C020E030E040E85FE36E
:10253000C701B6010E94D131609325017093260135
:102540008093270190932801409025015090260107
:102550006090270170902801C301B2010E94B5323A
:102560007B0120E030E048EC52E4C301B2010E945C
:102570004332609325017093260180932701909345
:1025800028010E94A32381E193E00E943D2357CFBD
:10259000B70180E190E008CFF1E0FF1629F022E0DA
:1025A000F21281C038C011508B8D811708F4182F9A
:1025B000E12CF12C8AE00E94FA23B70180E090E040
:1025C0000E94E62382E193E00E943D23B70180E070
:1025D00090E00E94E62382E193E00E943D239FEF7A
:1025E000E91AF90AA6E0EA16F10421F78AE00E9446
:1025F000FA23612F70E080E090E00E94E62380E201
:1026000094E00E943D23F12C4EC091E0F91681F236
:10261000A2E0FA1248C00E943923BB8DB63020F4E4
:10262000712CC02ED12C1FC0FE0131967F01E00E0F
:10263000F11CE00EF11CC12CD12C8AE00E94FA237F
:10264000B60181E090E00E94E623D7018D919D9133
:102650007D010E943D23BFEFCB1ADB0AE6E0CE16D8
:10266000D10459F71EC0E72CF12C2E143F04CCF0F6
:102670008AE00E94FA23B70181E090E00E94E623FD
:10268000F601EE0DFF1DEE0FFF1F81E090E08C0FB5
:102690009D1FE80FF91F808191810E943D23739453
:1026A000E2CFFF24F39480911A0181110C94400928
:1026B0000C94060980910D01882381F010920D0180
:1026C0000DC020E030E0A901C501B4010E943E32F6
:1026D000181614F40C9425040C941004A7960FB645
:1026E000F894DEBF0FBECDBFDF91CF911F910F9148
:1026F000FF90EF90DF90CF90BF90AF909F908F9022
:102700007F906F905F904F903F902F900895089525
:10271000409195055091960520919305309194052F
:1027200042175307B4F49091E8009570E1F390914B
:10273000E80092FD19C08093F10080919505909179
:10274000960501968F739927892B19F48EEF809344
:10275000E8008091950590919605019690939605D5
:102760008093950581E0089580E00895DF92EF92CF
:10277000FF920F931F93CF93DF93D82EF92EE42E61
:10278000062F10E0C8010196880F0E94881383E08D
:102790000E948813CD2DDF2D0C0F1D1FC017D107F0
:1027A00089F0E7FE03C0FE01849101C088810E9488
:1027B0008813F82E80E00E9488138F2121968111C2
:1027C000EDCF01C081E0DF91CF911F910F91FF907C
:1027D000EF90DF900895DF92EF92FF920F931F9397
:1027E000CF93DF93D82E8A017B01E40EF51EEB0117
:1027F000CE15DF0571F0D7FE03C0FE01849101C044
:1028000088810E94881321968111F2CF8FEF9FEF6C
:1028100001C0C801DF91CF911F910F91FF90EF9000
:10282000DF900895615030F02091F100FC01208389
:102830000196F8CF289884E680939F080895CF9258
:10284000DF92EF92FF920F931F93CF93DF936C0170
:102850007A018B01C0E0D0E0CE15DF0581F0D80110
:102860006D918D01D601ED91FC910190F081E02DEB
:10287000C6010995892B11F02196EECF7E01C70183
:10288000DF91CF911F910F91FF90EF90DF90CF904C
:102890000895FC01538D448D252F30E0842F90E066
:1028A000821B930B541710F0CF960895019708954B
:1028B000FC01918D828D981761F0828DDF01A80F48
:1028C000B11D5D968C91928D9F5F9F73928F90E06A
:1028D00008958FEF9FEF0895FC01918D828D9817D9
:1028E00031F0828DE80FF11D858D90E008958FEF16
:1028F0009FEF0895FC01918D228D892F90E0805CDF
:102900009F4F821B91098F73992708958AE196E062
:102910000E947A1421E0892B09F420E0822F089587
:10292000FC01848DDF01A80FB11DA35ABF4F2C916C
:10293000848D90E001968F739927848FA689B7893B
:102940002C93A089B1898C9182748C93938D848D02
:10295000981306C00288F389E02D80818F7D8083E3
:102960000895EF92FF920F931F93CF93DF93EC01A3
:1029700081E0888F9B8D8C8D981305C0E889F9893B
:10298000808185FD26C0F62E0B8D10E00F5F1F4F56
:102990000F731127E02E8C8DE8120CC00FB607FCC8
:1029A000FACFE889F989808185FFF5CFCE010E94B1
:1029B0009014F1CF8B8DFE01E80FF11DE35AFF4F0C
:1029C000F0829FB7F8940B8FEA89FB89808180623F
:1029D00009C09FB7F894EE89FF896083E889F98977
:1029E0008081827480839FBF81E090E0DF91CF91EE
:1029F0001F910F91FF90EF900895CF93DF93EC011B
:102A0000888D8823C9F0EA89FB89808185FD05C00E
:102A1000A889B9898C9186FD0FC00FB607FCF5CF48
:102A2000808185FFF2CFA889B9898C9185FFEDCF90
:102A3000CE010E949014E7CFDF91CF91089580E0FE
:102A400090E0892B29F00E94861481110C940000DB
:102A50000895CF93DF931F92CDB7DEB76983DC0172
:102A6000ED91FC910280F381E02D41E050E0BE0148
:102A70006F5F7F4F09950F90DF91CF91089583E0AD
:102A80008093E9008091F200882319F08AE3809313
:102A9000E80008950F931F93CF93DF931F92CDB754
:102AA000DEB782E0898342E450E060E471E080E8D0
:102AB0000E94EB130E944529DC0112960D911C9196
:102AC00013970115110589F0D801ED91FC91028051
:102AD000F381E02DBE016F5F7F4FC801099597FD1F
:102AE00004C0F80100851185ECCF89810F90DF913A
:102AF000CF911F910F9108958F929F92AF92BF92A5
:102B0000CF92DF92EF92FF920F931F93CF93DF93B9
:102B10006C017B018A0180911901882309F45CC052
:102B20008091A008882309F457C08091900880FF05
:102B300005C08091E00082608093E000E801B12C44
:102B40008AEFA82E93E0892E2AE3922E209711F483
:102B5000BB20D9F10E94342981110AC0AA94AA206D
:102B6000D9F161E070E080E090E00E94ED29EECFC5
:102B7000282F30E0C217D3070CF48C2F9FB7F8949E
:102B80008092E9002091E80025FF1DC0282F30E049
:102B9000C21BD30BF701815020F041914093F1000B
:102BA000FACFE20EF31EBB2019F09092E8000AC0A3
:102BB0008091E80085FD07C09092E800BB24B394A3
:102BC000209709F0B12C9FBFC1CF5D9884E6809318
:102BD00098051016110644F081E090E0F601938309
:102BE000828380E090E001C0C801DF91CF911F9106
:102BF0000F91FF90EF90DF90CF90BF90AF909F909C
:102C00008F9008950E94342990E00895CF93DF9328
:102C10001F92CDB7DEB7FC018485958597FD05C071
:102C20002FEF3FEF358724870BC0CE0101960E941E
:102C30000629019719F4898190E002C08FEF9FEF78
:102C40000F90DF91CF9108951F920F920FB60F92C0
:102C500011242F933F934F935F936F937F938F93A1
:102C60009F93AF93BF93EF93FF93E0913101F09166
:102C700032010995FF91EF91BF91AF919F918F9193
:102C80007F916F915F914F913F912F910F900FBE68
:102C90000F901F9018951F920F920FB60F9211244C
:102CA0002F933F934F935F936F937F938F939F9354
:102CB000AF93BF93EF93FF93E0912F01F091300119
:102CC0000995FF91EF91BF91AF919F918F917F9166
:102CD0006F915F914F913F912F910F900FBE0F9089
:102CE0001F9018951F920F920FB60F9211242F93D9
:102CF0003F934F935F936F937F938F939F93AF9384
:102D0000BF93EF93FF93E0912D01F0912E01099570
:102D1000FF91EF91BF91AF919F918F917F916F91B3
:102D20005F914F913F912F910F900FBE0F901F9089
:102D300018951F920F920FB60F9211242F933F9365
:102D40004F935F936F937F938F939F93AF93BF93B3
:102D5000EF93FF93E0912B01F0912C010995FF91E6
:102D6000EF91BF91AF919F918F917F916F915F9103
:102D70004F913F912F910F900FBE0F901F9018957C
:102D80001F920F920FB60F9211242F933F934F93E0
:102D90005F936F937F938F939F93AF93BF93EF93C3
:102DA000FF93E0912901F0912A010995FF91EF919C
:102DB000BF91AF919F918F917F916F915F914F9153
:102DC0003F912F910F900FBE0F901F9018951F925B
:102DD0000F920FB60F9211248F939F938091E10071
:102DE0009091E100937F9093E10083FF0FC01092D8
:102DF000E90091E09093EB001092EC0092E3909345
:102E0000ED001092A00898E09093F00082FF20C09F
:102E100093E09093E9009091F200992319F09AE3DE
:102E20009093E80090919805992339F09091980536
:102E3000915090939805992389F190919F08992337
:102E400039F090919F08915090939F08992341F1F8
:102E500084FF10C08091E2008E7E81608093E2004A
:102E60008091E1008F7E8093E100809190088E7EBA
:102E7000806111C080FF16C08091E2008E7E80616B
:102E80008093E2008091E1008E7E8093E10080914A
:102E900090088E7E81608093900804C05D9ACDCFAB
:102EA000289AD6CF9F918F910F900FBE0F901F90B1
:102EB00018951F920F920FB60F921124CF92DF92A6
:102EC000EF92FF920F931F932F933F934F935F9334
:102ED0006F937F938F939F93AF93BF93EF93FF93E2
:102EE000CF93DF93CDB7DEB76C97DEBFCDBF109227
:102EF000E9008091E80083FFFBC168E0CE014596C0
:102F00000E94121482EF8093E8008D8987FF05C02C
:102F10009091E80090FFFCCF03C09EEF9093E800F3
:102F2000982F907609F0C6C09E894F89588D2F89B9
:102F3000F88C91110CC0803829F48091910880930D
:102F4000F10002C01092F1001092F10045C19130E1
:102F500051F4811141C14130510509F03DC18091C9
:102F600091088D7F0BC0933061F4811135C14130E0
:102F7000510509F031C180919108826080939108D8
:102F80002BC1953049F48091E80080FFFCCF822F5F
:102F900080688093E30020C1963009F05EC00B8DFD
:102FA0001C8D22E01092E900109296051092950572
:102FB000F21232C010929405109293050E944A15A5
:102FC00099E0BE016F5F7F4FDB01E92F1D92EA950B
:102FD000E9F79983FA8291E09E8390EA98879AEFC5
:102FE00099872091950530919605275F3F4F3C8347
:102FF0002B838D831092E90010929605109295050F
:10300000109394050093930549E050E080E00E94FE
:10301000EB130E944A15E0C01093940500939305AA
:103020000E944529DC0112960D911C911397011500
:10303000110509F4BBC0D801ED91FC910480F58124
:10304000E02DBE016B5E7F4FC8010995009709F026
:10305000C7C0F80100851185EACF973009F445C152
:10306000983021F481E08093F100B6C0993009F0E6
:10307000B3C0837009F039C1E7E5F1E081E031E0E8
:1030800096E32081211109C08EE78093EA00109217
:10309000EA008F898093A0089FC08093E900309355
:1030A000EB0021912093EC009093ED008F5F87302F
:1030B00041F7EACF8B8D9C8D1092E9001092960516
:1030C000109295059093940580939305898D8111B5
:1030D00053C08E899D89913A49F4813209F005C126
:1030E00047E050E062E171E080E0BBC0913209F05E
:1030F000FCC0833269F48F89988DA0E0B0E08093A2
:103100000E0190930F01A0931001B093110164C0C0
:10311000803269F48091E80082FFFCCF67E082E1B1
:1031200091E00E9412148BEF8093E80055C0823228
:1031300009F052C08F8980931901EEEFFFE7859166
:1031400094918B3F9C4D19F0E0E0F8E002C0EEEF67
:10315000FAE08091120190911301A0911401B091B5
:103160001501803B9440A105B10509F09EC08091F6
:10317000190180FF79C099C00E944529FC01028194
:1031800013810115110509F4B0C0D801ED91FC912E
:103190000190F081E02DBE016B5E7F4FC801099563
:1031A00081111AC0F80100851185EBCFF1E0FF16FF
:1031B00009F44EC0F3E0FF1298C08F89882309F408
:1031C0004AC0823089F440E860E184EA91E00E94DC
:1031D000B613882309F489C08EEF8093E80088C075
:1031E00018161906CCF381C0813029F440E86BE051
:1031F00088E991E0ECCF833009F077C00E9445293F
:10320000DC011296ED90FC9013978E010F5F1F4F1B
:103210006801E114F10479F0D701ED91FC91068089
:10322000F781E02DB801C7010995080F111DF701BD
:10323000E084F184EECFD8011C92F60101900020C9
:10324000E9F73197BF016C197D0940E0C601BFCF96
:1032500066E871E002C062E871E0FB01449150E071
:1032600080E80E94EB13B8CFEE3F2AE0F20751F05E
:10327000808191818737A7E79A0721F09093FF0A11
:103280008093FE0A87E797E79183808380916000AF
:10329000809397059BE088E10FB6F894A8958093FA
:1032A00060000FBE9093600097CF80819181873737
:1032B000974709F091CFA89580916000886180932D
:1032C00060008091970580936000EE3FBAE0FB07B5
:1032D00039F08091FE0A9091FF0A918380837CCF20
:1032E0001092FF0A1092FE0A77CF81E28093EB00E2
:1032F0006C960FB6F894DEBF0FBECDBFDF91CF91B5
:10330000FF91EF91BF91AF919F918F917F916F91BD
:103310005F914F913F912F911F910F91FF90EF90EF
:10332000DF90CF900F900FBE0F901F901895DC018B
:10333000ED91FC910190F081E02D099461157105EA
:1033400079F0FB0101900020E9F73197AF01461BAE
:10335000570BDC01ED91FC910280F381E02D099483
:1033600080E090E008958F929F92AF92BF92EF928B
:10337000FF920F931F93CF93DF93CDB7DEB7A19743
:103380000FB6F894DEBF0FBECDBF7C01FA01CB01B2
:1033900019A2223008F42AE08E010F5D1F4F822E01
:1033A000912CA12CB12CBF01A50194010E94A03148
:1033B000F901CA01015011096A3014F4605D01C0BD
:1033C000695CD8016C93232B242B252B61F7B80162
:1033D000C7010E949E19A1960FB6F894DEBF0FBEDA
:1033E000CDBFDF91CF911F910F91FF90EF90BF90D4
:1033F000AF909F908F9008957F928F929F92AF92FF
:10340000BF92CF92DF92EF92FF920F931F93CF93D1
:10341000DF938C016A017B01722E9A01AB01C70117
:10342000B6010E940F34882319F06EE774E027C0BC
:1034300046015701E894B7F82FEF3FEF4FE75FE7FA
:10344000C501B4010E940F3481110DC02FEF3FEF71
:103450004FE75FE7C501B4010E943E3218161CF425
:1034600062E874E00CC02FEF3FEF4FE75FE4C70165
:10347000B6010E949D33181694F466E874E0C80102
:10348000DF91CF911F910F91FF90EF90DF90CF9040
:10349000BF90AF909F908F907F900C949E192FEFCC
:1034A0003FEF4FE75FECC701B6010E943E3287FD58
:1034B000E4CF20E030E0A901C701B6010E943E320E
:1034C00087FF0AC06DE2C8010E949719EC01F7FA64
:1034D000F094F7F8F09402C0C0E0D0E0B12C60E0C6
:1034E00070E080E09FE37B1441F020E030E040E2B8
:1034F00051E40E944332B394F6CFA70196010E9493
:10350000D2316B017C010E94BC324B015C012AE08C
:10351000AB01BC01C8010E94B319C80FD91F7720A5
:10352000C1F1C501B4010E94EB329B01AC01C7019E
:10353000B6010E94D1316B017C016EE2C8010E948C
:103540009719C80FD91F20E030E040E251E4C701CD
:10355000B6010E94A2334B015C010E94BC326B0198
:10356000E12CF12C2AE0B701A601C8010E94B31991
:10357000C80FD91FC701B6010E94EB329B01AC01F5
:10358000C501B4010E94D1316B017C017A947110A4
:10359000DACFCE01DF91CF911F910F91FF90EF9085
:1035A000DF90CF90BF90AF909F908F907F900895C5
:1035B0001F920F920FB60F9211242F933F934F93A8
:1035C0005F936F937F938F939F93AF93BF93EF938B
:1035D000FF938AE196E00E949014FF91EF91BF91D2
:1035E000AF919F918F917F916F915F914F913F919B
:1035F0002F910F900FBE0F901F9018951F920F9252
:103600000FB60F9211242F938F939F93EF93FF93F5
:10361000E0912A06F0912B068081E0913006F0912E
:10362000310682FD12C09081809133068F5F8F73C7
:1036300020913406821751F0E0913306F0E0E65E07
:10364000F94F958F8093330601C08081FF91EF91F0
:103650009F918F912F910F900FBE0F901F901895F3
:10366000FC018485958597FD0BC09FB7F89482E097
:103670008093E9008091F2009FBF90E00196089549
:103680009FB7F89482E08093E9008091F2009FBF99
:1036900090E0089585ED8093BC008091BC0084FD8E
:1036A000FCCF1092F40508954091D005262F30E00C
:1036B000240F311D21323105DCF42091F405243032
:1036C000C9F4FC0180E090E0861758F43091D005F1
:1036D0002191DC01A055BA4FA30FB11D2C93019687
:1036E000F3CF8091D005680F6093D00580E00895F6
:1036F00081E0089582E0089508958FEF9FEF089587
:103700008FEF9FEF08958091AF0590E0919581959F
:1037100091090895CF93DF93CB01EA01642F0E94B2
:10372000541BCE01DF91CF910895CF93DF931F9269
:10373000CDB7DEB7698361E0CE0101960E94541BCC
:1037400081E090E00F90DF91CF9108950F931F9348
:10375000CF93DF931F92CDB7DEB78C01FC01848538
:10376000958597FF0EC0CE0101960E94062901970C
:1037700019F4898190E002C08FEF9FEFF8019587DF
:103780008487F801848595850F90DF91CF911F91F3
:103790000F91089582E00E945929019779F481E000
:1037A0008093AC058091990590919A05A0919B0515
:1037B000B0919C050197A109B1090DC01092AC050B
:1037C0008091990590919A05A0919B05B0919C05D7
:1037D0000196A11DB11D8093990590939A05A09320
:1037E0009B05B0939C0581E080939D0508958F9281
:1037F0009F92AF92BF92CF92DF92EF92FF920F9380
:103800001F930E94B1250091A8051091A905209150
:10381000AA053091AB05C090A405D090A505E09015
:10382000A605F090A70546015701801A910AA20A41
:10383000B30A95018401060F171F281F391F009333
:10384000A4051093A5052093A6053093A7056093C2
:10385000A8057093A9058093AA059093AB05809164
:10386000A0059091A105A091A205B091A305019694
:10387000A11DB11D8093A0059093A105A093A20561
:10388000B093A3051F910F91FF90EF90DF90CF9021
:10389000BF90AF909F908F9008951F920F920FB698
:1038A0000F9211242F933F934F935F936F937F93C6
:1038B0008F939F93AF93BF93EF93FF938091B90042
:1038C000887F803609F49CC068F5883209F45BC0B3
:1038D00090F4803109F454C038F4882309F4F2C01C
:1038E000883009F44DC0F2C0883109F44CC08032F0
:1038F00009F45DC0EBC0803409F468C048F480333B
:1039000009F455C0883309F0E1C08093F305D4C0B1
:10391000803509F44FC0883509F45DC0883409F05A
:10392000D5C0D2C0883909F4C3C0A8F4883709F4D7
:1039300067C038F4883609F463C0803709F460C082
:10394000C5C0883809F4B4C0803909F45FC0803834
:1039500009F0BCC05BC0803B09F484C038F4803AF5
:1039600009F466C0883A09F47DC0B0C0803C09F40F
:10397000A3C0883C09F4A0C0883B09F486C0A6C057
:103980008091190610C0909118068091170698171B
:1039900070F5E091180681E08E0F80931806F0E034
:1039A000E950FA4F80818093BB0085EC82C0809300
:1039B000F3058AC0E091180681E08E0F8093180607
:1039C0008091BB00F0E0E950FA4F80839091180697
:1039D000809117066AC0E091180681E08E0F8093EF
:1039E00018068091BB00F0E0E950FA4F8083809187
:1039F000F605811169C081E08093F50584EA5DC018
:103A000083E08093F4051092F205CFCF8091F20508
:103A1000803208F04DC0E091F20581E08E0F809376
:103A2000F2058091BB00F0E0EE52FA4F8083BDCFEB
:103A300085EC8093BC001092F4058091F2058032F1
:103A400030F4E091F205F0E0EE52FA4F108260910E
:103A5000F20570E082ED95E0E0E0F0E0099510926B
:103A6000F20534C084E08093F4051092D1051092E1
:103A7000D005E0E0F0E009958091D005811105C006
:103A800081E08093D0051092B005E091D10581E0EE
:103A90008E0F8093D105F0E0E055FA4F808180933E
:103AA000BB009091D1058091D005981708F47DCF87
:103AB00085E88093BC000AC085EC8093BC0010921E
:103AC000F40504C01092F3050E944A1BFF91EF9188
:103AD000BF91AF919F918F917F916F915F914F9126
:103AE0003F912F910F900FBE0F901F901895DC0102
:103AF00080E0615098F02D91982F9227E92FEF7078
:103B0000F0E0EB54FE4F249192959F70E92FF0E086
:103B1000EB53FE4FE491822F8E27EBCF0895FC01EB
:103B200090810180F281E02DF8948181892B81833D
:103B30002281892F809528232283A7E0B0E0119766
:103B4000F1F7218182238183A3E2B0E01197F1F79D
:103B500080817894EFECF0E03197F1F7982381E0E1
:103B600009F480E00895FC0190810180F281E02D4C
:103B7000892F809560FF12C0F8942281822382836E
:103B80008181892B8183A3E2B0E01197F1F78281D3
:103B9000982B9283789487ED90E011C0F89422815D
:103BA000822382838181892B8183AFEFB0E01197DB
:103BB000F1F78281982B928378948FE090E00197BF
:103BC000F1F70895DF92EF92FF920F931F93CF9337
:103BD000DF93EC01D62EE42E08E010E0FF24F394EE
:103BE00061E08D2D8F2109F460E0CE010E94B31DAC
:103BF000FF0C01501109A1F7E11010C0F894E98100
:103C0000FA8191818881809589238183E981FA8174
:103C1000928188818095892382837894DF91CF91E6
:103C20001F910F91FF90EF90DF900895DC012C9190
:103C30001196ED91FC911297F8948181922F9095B5
:103C40008923818378948DE743E050E0815021F10E
:103C5000DA011197F1F730813223C1F3F8948281B0
:103C6000892382838181822B81837894ABE7B7E0BB
:103C70001197F1F7F89481819823918383E191E082
:103C80000197F1F78081282381E009F080E07894A2
:103C9000E3E6F6E03197F1F708958F929F92AF92A5
:103CA000BF92CF92DF92EF92FF920F931F93CF9329
:103CB000DF93EC018E819F810E94161E40E06CEC28
:103CC0008E819F810E94E21D488164E48E819F81E4
:103CD0000E94E21D8A81882309F442C0E981E950EB
:103CE000E33040F4F0E0EE0FFF1FE25AFE4F008198
:103CF000118102C00EEE12E08B818823F9F08881D9
:103D000081111CC00E94D6254B015C016801110F76
:103D1000EE08FF088E819F810E948F1D813001F186
:103D20000E94D625DC01CB018C199D09AE09BF0983
:103D300088159905AA05BB0568F312C0B801110FD3
:103D4000880B990BDF91CF911F910F91FF90EF900E
:103D5000DF90CF90BF90AF909F908F900C94ED2903
:103D6000DF91CF911F910F91FF90EF90DF90CF9057
:103D7000BF90AF909F908F9008951F920F920FB6B3
:103D80000F9211242F933F934F935F936F937F93E1
:103D90008F939F93AF93BF93EF93FF938091AE0563
:103DA00087FF05C010928500109284001BC02091EF
:103DB000AE05022E000C330B80912B0790E02817E4
:103DC000390784F48091AE05082E000C990BFC0194
:103DD000EE0FFF1F8E0F9F1FFC01E95FF84F8081E0
:103DE00086FD15C08091AE058F5F8093AE05209152
:103DF000AE05022E000C330B80912B0790E02817A4
:103E00003907C4F48091AE058C3064F113C0809101
:103E1000AE05082E000C990BFC01EE0FFF1F8E0F54
:103E20009F1FFC01E95FF84F808160E08F730E9463
:103E30008229D8CF809184009091850004968034A7
:103E40009C4918F480E49CE905C08091840090911D
:103E50008500049690938900809388008FEF80936B
:103E6000AE053BC020918400309185008091AE0565
:103E7000082E000C990BFC01EE0FFF1F8E0F9F1FE9
:103E8000FC01E95FF84F81819281820F931F90932B
:103E90008900809388008091AE05082E000C990B54
:103EA000FC01EE0FFF1F8E0F9F1FFC01E95FF84F13
:103EB000808186FF12C08091AE05082E000C990B00
:103EC000FC01EE0FFF1F8E0F9F1FFC01E95FF84FF3
:103ED000808161E08F730E948229FF91EF91BF91F1
:103EE000AF919F918F917F916F915F914F913F9192
:103EF0002F910F900FBE0F901F901895CF93DF93C7
:103F0000EC018A859B85AC85BD858E839F83A887C0
:103F1000B9870E94D6256A837B838C839D8381E049
:103F200089838883DF91CF910895CF93DF93EC014C
:103F30008E819F81A885B9858A839B83AC83BD834D
:103F40000E94D6256A877B878C879D8781E089833D
:103F50008883DF91CF9108952F923F924F925F9285
:103F60006F927F928F929F92AF92BF92CF92DF9289
:103F7000EF92FF920F931F93CF93DF93D82FC92F08
:103F80008B010E943B3124E630E040E050E00E948B
:103F9000A03149015A019B01AC0160E876E988E94A
:103FA00090E00E9414346B017C01F80191828082C0
:103FB000ED2FFC2F2191822F022E000C990BC09720
:103FC0000A97C0F32E3239F51F0180E8882E86E962
:103FD000982E88E9A82EB12C9AE0492E512C612CFC
:103FE000712CF101C1911F010C2E000CDD0BE0972B
:103FF000CA30D10580F4C501B401A30192010E9429
:10400000A03149015A01DE010E949831C60ED71E27
:10401000E81EF91EE6CFA5E0B0E0A70196010E94D8
:104020008D316F5F7F4F8F4F9F4F23E030E040E037
:1040300050E00E94A031F8012283338344835583EA
:104040001682DF91CF911F910F91FF90EF90DF903B
:10405000CF90BF90AF909F908F907F906F905F9028
:104060004F903F902F900895FF920F931F93CF93FF
:10407000DF93EC01F8802DE2F21201C02196CE010F
:104080000E943B319B01AC01A4E6B0E00E948D315F
:10409000FE014991242F042E000C330B20533109CB
:1040A0002A303105A8F34E3241F52181022E000C51
:1040B000330B205331092A303105F8F44AE0429F8E
:1040C0008001439F100D1124012E000C220B330B95
:1040D000600F711F821F931F0281002E000C110BB5
:1040E000005311090A30110540F4012E000C220B77
:1040F000330B600F711F821F931F2DE2F21207C056
:1041000090958095709561957F4F8F4F9F4FDF9170
:10411000CF911F910F91FF9008958AE196E00E9440
:104120007A14892B39F08AE196E00E9458140E9493
:104130006926F3CF8091B207882379F308950C9410
:104140007F310C9477318091380160913A01709100
:104150003B0181110EC0072E000C880B990B0E94A9
:10416000ED322BE734E14EEC5FE30E94A2330E9474
:10417000B532CB016AE070E00E94303470933607AC
:104180006093350780913507909136076AE070E0BB
:104190000E94303470933407609333079093320752
:1041A00080933107860F971F97FF03C08BEF91E035
:1041B00008C06A3071051CF481E193E002C082E11D
:1041C00093E00E943D23809133079091340797FF3D
:1041D00007C0919581959109909334078093330797
:1041E00080913307909134070E9476238EEF91E0FF
:1041F0000E943D23809131079091320797FF07C0BD
:104200009195819591099093320780933107809120
:104210003107909132070E947623809138018823DC
:1042200019F080E092E002C085E092E00C943D231A
:104230000F931F93CF938C0101960E94A120C82F4A
:10424000C8010E94A1202C2F30E0A901582BCA01DF
:10425000CF911F910F9108951F93CF93DF93EC019E
:10426000162F672F0E949F20612FCE010196DF91AC
:10427000CF911F910C949F2010921A0110929F05CC
:104280000C945901CF9380919D05882391F18091E1
:10429000990590919A05A0919B05B0919C051816DF
:1042A00019061A061B0664F41092990510929A05D5
:1042B00010929B0510929C0510929D0581E065C0AF
:1042C0008091990590919A05A0919B05B0919C05CC
:1042D000B7FF0CC01092990510929A0510929B0599
:1042E00010929C0510929D0582E04FC010929D0592
:1042F0004BC084E00E945929C091AD05892BE9F497
:10430000CF5FC093AD0568EC70E080E090E00E9464
:10431000ED29C830C0F11092AD050E94392384E127
:104320000E94FA2360E070E080E090E00E94E623C3
:1043300080E994E00E943D231DC0CC2329F1109216
:10434000AD050E94392384E10E94FA2360E070E009
:1043500080E090E00E94E6238AE894E00E943D23FA
:1043600064EF71E080E090E00E94ED290E94392323
:1043700084E00BC084E00E945929892BD9F30E9464
:10438000392388E002C002C080E190E0CF91089517
:104390008F929F92AF92BF92CF92DF92EF92FF9255
:1043A0008090A4059090A505A090A605B090A705C3
:1043B0006091A0057091A1058091A2059091A3053F
:1043C0001092A4051092A5051092A6051092A705BB
:1043D0001092A0051092A1051092A2051092A305BB
:1043E0000E94EB3220E03BE147EB5AE40E94A2330B
:1043F0006B017C01C501B4010E94EB329B01AC0151
:10440000C701B6010E9443326B017C016091390102
:1044100070E080E090E00E94ED329B01AC01C701AA
:10442000B6010E9443320E94B5329B01AC01AAE062
:10443000B0E00E948D31CB01FF90EF90DF90CF90E4
:10444000BF90AF909F908F90089561E080916E072C
:104450000E94B12961E080916F070E94B12961E05B
:10446000809170070E94B12961E0809170070E94DD
:10447000822960E080916E070E94822960E080912D
:104480006F070E94822980917107882319F060E0EC
:104490000C94B12908954F925F926F927F928F9200
:1044A0009F92AF92BF92CF92DF92EF92FF920F93C3
:1044B0001F93CF93DF9300D000D0CDB7DEB74B0171
:1044C0005C0129013A01E982FA820B831C8320E016
:1044D00030E0A9010E943E3287FDA8C020E030E014
:1044E000A901C301B2010E943E3287FD9FC020E0B6
:1044F00030E0A901C801B7010E943E3287FD96C095
:10450000D0924708C092460881E0CA94CD2809F0AD
:1045100080E08093670880922C0890922D08A092EA
:104520002E08B0922F0840923008509231086092C5
:1045300032087092330889819A81AB81BC81809363
:10454000340890933508A0933608B09337086091EB
:104550005A0870915B0880915C0890915D080E94F8
:10456000EB3220E030E04AE754E40E9443326B0132
:104570007C018092380890923908A0923A08B09253
:104580003B089B01AC01C301B2010E94A2332B0185
:104590003C0160933C0870933D0880933E089093E3
:1045A0003F08A701960169817A818B819C810E94D5
:1045B00043326B017C016093400870934108809303
:1045C00042089093430880914408909145080197D0
:1045D00069F5A501940160E070E0CB010E94D13142
:1045E000609338087093390880933A0890933B0899
:1045F000A301920160E070E0CB010E94D131609391
:104600003C0870933D0880933E0890933F08A701B3
:10461000960160E070E0CB010E94D13160934008C8
:104620007093410880934208909343080F900F9035
:104630000F900F90DF91CF911F910F91FF90EF900E
:10464000DF90CF90BF90AF909F908F907F906F90B2
:104650005F904F900895CF93DF93EC0169916623AB
:1046600029F08FE597E00E946F2AF8CFDF91CF9174
:10467000089585E994E00C942B23CF93DF93EC010C
:1046800088E994E00E942B23BE018FE597E00E9409
:104690009E1960E08FE597E0DF91CF910C946F2A2F
:1046A000CF93C82F88E994E00E942B236C2F8FE5CD
:1046B00097E00E94971960E08FE597E0CF910C9406
:1046C0006F2ACF93C82F88E994E00E942B234C2FA8
:1046D00050E060E070E02AE08FE597E00E94B319B7
:1046E00060E08FE597E0CF910C946F2ACF92DF9234
:1046F000EF92FF926C0188E994E00E942B230D2C2D
:10470000000CEE08FF08F7FE0EC06DE28FE597E0A3
:104710000E94971944275527BA014C195D096E0963
:104720007F092AE003C02AE0B701A6018FE597E0E0
:104730000E94B31960E08FE597E0FF90EF90DF9063
:10474000CF900C946F2ACF92DF92EF92FF926B0181
:104750007C0188E994E00E942B2322E0B701A601A6
:104760008FE597E00E94FC1960E08FE597E0FF90ED
:10477000EF90DF90CF900C946F2ACF93DF93D82FD8
:10478000C62F8BE994E00E942B236D2F8FE597E0D5
:104790000E946F2A6C2F8FE597E0DF91CF910C94E8
:1047A0006F2ACF93DF938F3F910510F4682F08C0D5
:1047B000EC016FEF8FE597E00E946F2A6C2F6F5F1F
:1047C0008FE597E0DF91CF910C946F2A0F931F93A1
:1047D000CF93DF938C01EB018FE994E00E942B23B0
:1047E000C8010E94D123CE01DF91CF911F910F917B
:1047F0000C94D123CF93C82F82EA94E00E942B23FC
:104800006C2F8FE597E0CF910C946F2ABC019091AB
:104810002E079C3098F580912F0728E830E0281B60
:10482000310987FD3395220F331F220F331F621783
:1048300073078CF08091300748E552E0481B51091E
:1048400087FD5395440F551F440F551F9B01461775
:1048500057070CF49A0122503109220F331F4FB72A
:10486000F894892F90E0FC01EE0FFF1F8E0F9F1F21
:10487000FC01E95FF84F328321834FBF08954F92C7
:104880005F926F927F928F929F92AF92BF92CF92E0
:10489000DF92EF92FF920F931F93CF93DF93CDB7E9
:1048A000DEB761970FB6F894DEBF0FBECDBFDC0157
:1048B0001696ED91FC911797138615861486DF01E5
:1048C0001B9633961E92EA17FB07E1F7FC0106815F
:1048D0001781D8011D962C91211169C07C01C80156
:1048E0000E94161E811105C0F801138615861486D4
:1048F00081C040E060EFC8010E94E21DBB24B39478
:10490000A12C912CCC24C394C8010E948F1DD82EB9
:10491000C8010E948F1DF1E0DF1203C08130D1F485
:1049200039C02A2D30E0D8121FC0D8011B968C91B7
:10493000C81638F4F801E20FF31F83818B2151F47C
:1049400002C08C1539F0D12CB8E0BC1560F0F8012C
:10495000C48609C0F801EA0DF11D83818B29838388
:10496000DD24D39409C09C2CF801E20FF31F93813E
:104970008B2D8095892383836D2DC8010E94B31DE3
:10498000C394BB0C19F4A394BB24B394F7E0FA15B9
:1049900008F0BACF20E42C1550F4D8011B969C9255
:1049A0001B9791100EC081E01D968C930AC0D80110
:1049B0001B961C921B971D961C921D971C961C9271
:1049C00019C0F8018381882391F333966E012AE0A0
:1049D000C20ED11C055F1F4FD601560181918D93E8
:1049E000E017F107D9F767E0C6010E94771D9989A2
:1049F000891729F060E070E08EEF92EC99C0D70142
:104A000016968D919C9117970E94161E882309F483
:104A10008CC0F7010681178140E065E5C8010E945E
:104A2000E21D4E01F2E18F0E911CD6016D916D01D8
:104A300040E0C8010E94E21D8C149D04B1F740E0E3
:104A40006EEBF701868197810E94E21D8E010F5F58
:104A50001F4F2801D70116968D909C90179778E0EC
:104A6000672E712CD12CCC24C394C4010E948F1DBD
:104A70008111DC28CC0CB1E06B1A7108B1F7F80198
:104A8000D1928F01AE16BF0629F7D70116968D91E8
:104A90009C9117970E94161E813009F046C068E06D
:104AA000C2010E94771D998589133FC02A8130E099
:104AB000C901982F8827990F990F990F6981B8E03C
:104AC0006B9FB00111249C01262B372B8A858031E6
:104AD000C9F4688570E08F81FB01E81BF109CF0103
:104AE0009695982F8827979587950E943034605126
:104AF0007109207F53E0220F331F5A95E1F7620FAF
:104B0000731F01C0B9016138F4EE7F070CF472CF56
:104B1000072E000C880B990B0E94ED3220E030E04C
:104B200040E05CE30E94A23303C060E874EEEBCF88
:104B300061960FB6F894DEBF0FBECDBFDF91CF9167
:104B40001F910F91FF90EF90DF90CF90BF90AF90AB
:104B50009F908F907F906F905F904F9008950E94EC
:104B60005E343FB7F89480919B0890919C08A09187
:104B70009D08B0919E0826B5A89B05C02F3F19F04F
:104B80000196A11DB11D3FBFBA2FA92F982F8827CD
:104B9000820F911DA11DB11DBC01CD0142E0660F28
:104BA000771F881F991F4A95D1F708952FB7F8945A
:104BB00060919708709198088091990890919A084F
:104BC0002FBF08951F920F920FB60F9211242F93AB
:104BD0003F938F939F93AF93BF938091970890914A
:104BE0009808A0919908B0919A083091960823E00E
:104BF000230F2D3720F40196A11DB11D05C026E815
:104C0000230F0296A11DB11D20939608809397084B
:104C100090939808A0939908B0939A0880919B0864
:104C200090919C08A0919D08B0919E080196A11DAD
:104C3000B11D80939B0890939C08A0939D08B0930E
:104C40009E08BF91AF919F918F913F912F910F90AF
:104C50000FBE0F901F90189590E0FC013197EF3038
:104C6000F105B0F5EE59FF4F0C944434809180006B
:104C70008F7703C0809180008F7D8093800008959E
:104C800080918000877FF9CF84B58F7702C084B58B
:104C90008F7D84BD0895809190008F7707C08091AB
:104CA00090008F7D03C080919000877F809390005B
:104CB00008958091C0008F7703C08091C0008F7DE0
:104CC0008093C00008958091C200877F8093C200C6
:104CD00008950F931F93CF93DF93982F409110085F
:104CE0005091110860911208709113084F5F5F4F47
:104CF0006F4F7F4F40931008509311086093120834
:104D000070931308843209F459C2E0910A0885327D
:104D100034F48A3071F08D3009F05EC20AC08A32F4
:104D200041F08C3209F058C28091F70789278093AF
:104D3000F707092FEF3008F030C2F0E0E750F84FE6
:104D400010828091F807882309F41DC12091F9078A
:104D50003FEB320F822F022E000C990B363010F4ED
:104D6000C79707C02156263018F48755910901C00E
:104D7000C097282F2295207F3091FA074FEB430FE1
:104D8000832F032E000C990B463010F4C79707C0F1
:104D90003156363018F48755910901C0C097820FFB
:104DA0009091F7078913DBC080911C0890911D0832
:104DB000A0911E08B0911F080196A11DB11D8093FE
:104DC0001C0890931D08A0931E08B0931F088091A3
:104DD0000B08882399F08091140890911508A091F0
:104DE0001608B09117080196A11DB11D80931408F3
:104DF00090931508A0931608B0931708109108080F
:104E00001123B9F1113009F084C085E997E00E94BF
:104E1000951F83EA97E00E94951F80910B088823D5
:104E200009F477C087E0E3E8F7E0A5E7B7E0019091
:104E30000D928A95E1F787E0EAE8F7E0ACE7B7E0A2
:104E400001900D928A95E1F70E94D6256093910713
:104E5000709392078093930790939407109374072D
:104E60001093730781EB97E00E947E1F8FEB97E012
:104E70004EC083EA97E00E94951F80910B0888231B
:104E800029F187E0E3E8F7E0A5E7B7E001900D92AC
:104E90008A95E1F787E0EAE8F7E0ACE7B7E0019050
:104EA0000D928A95E1F70E94D62560939107709341
:104EB0009207809393079093940781E080937407FF
:104EC000809373078DEC97E00E947E1F8091E50729
:104ED0009091E607A091E707B091E8078093E1077A
:104EE0009093E207A093E307B093E4070E94D625CE
:104EF0006093DD077093DE078093DF079093E007F0
:104F000081E08093DC078093DB0789EE97E00E94C5
:104F10007E1FC0910E08D0910F0811E0209709F470
:104F20003EC1E0910E08F0910F0866A177A18EA115
:104F30009FA10E946334892B09F031C1BE01CE01CB
:104F400040960E946C340E94D62568A379A38AA358
:104F50009BA31DA31CA30AA4DBA5C02DDFCF8091BA
:104F6000180890911908A0911A08B0911B08019691
:104F7000A11DB11D8093180890931908A0931A08D9
:104F8000B0931B080AC190910908911142C069E4CD
:104F900075E089EF97E00E946334892B41F06FE45C
:104FA00075E089EF97E00E946334892B11F481E06A
:104FB00014C065E575E089EF97E00E946334892BA2
:104FC00041F06BE575E089EF97E00E946334892B2F
:104FD00019F41092080803C082E0809308088091B9
:104FE0000C0890910D0890930F0880930E08C091C3
:104FF0000E08D0910F08209709F4CFC069EF77E031
:105000008EA19FA10E94633497FFC1C08AA59BA572
:10501000EACFE0910808E23009F491C08091F907E5
:10502000882309F48CC020E2E29FF0011124E92BCF
:105030003197E932F10508F082C0EF58FF4F0C9428
:10504000443489EF97E00E9434206093A90770935D
:10505000AA078093AB079093AC0771C091E08134AD
:1050600009F043C043C063E877E009C091E08335AD
:1050700009F090E09093890762C06AE877E089EFD1
:1050800097E00E94AC1F5BC091E0873509F090E08B
:105090009093900754C089EF97E00E94342060936A
:1050A000BB077093BC078093BD079093BE0747C0B2
:1050B00089EF97E00E9434206093C9077093CA0774
:1050C0008093CB079093CC073AC089EF97E00E947A
:1050D0003B3160939B0770939C0780939D0790934F
:1050E0009E072DC091E081330CF490E090930B0863
:1050F00026C089EF97E00E943B316093E5077093EB
:10510000E6078093E7079093E80719C089EF97E0D7
:105110000E9434206093F3077093F4078093F5079F
:105120009093F6070CC089EF97E00E9434206093BB
:10513000D7077093D8078093D9079093DA07C09167
:105140000E08D0910F08209741F1E0910E08F091E0
:105150000F0866A177A18EA19FA10E946334892BBD
:10516000E1F428A539A58091090890E082179307FA
:10517000A4F02817390739F440E150E069EF77E0EF
:10518000CE010E9473340AA4DBA5C02DDCCF892B8D
:1051900021F010920F0810920E0880E001C081E00B
:1051A000909109089F5F9093090810920A0891E076
:1051B0000A3209F090E09093F80723C010920A0891
:1051C000109209081092F70782E080930808109265
:1051D000F80710920B0814C0EE3040F481E08E0FF7
:1051E00080930A08F0E0E750F84F90838091F80729
:1051F000811106C02091F70792279093F70701C00D
:1052000080E0DF91CF911F910F9108952091A00828
:10521000211103C08FEF9FEF08955FB7F89422E04C
:105220002093E9002091F20030E01216130614F4E6
:1052300021E030E0422FFC0184E6415038F028980C
:1052400080939F089091F1009193F7CF211531053C
:1052500021F08091F200882319F05FBFC901089501
:105260008BE68093E800F9CF2FB7F89483E0809322
:10527000E9009091E800892F807295FF04C0909119
:10528000F20080E4891B2FBF08958091A508811149
:105290000DC082E08093A10884E08093A208109260
:1052A000A4081092A30881E08093A50881EA98E001
:1052B0000895CF93DF93282F30E0F901E35CFD4F91
:1052C0008491F901E25EFD4FD491F901E150FE4F66
:1052D000C491CC2391F081110E942C26EC2FF0E098
:1052E000EE0FFF1FEF50FE4FA591B491EC91ED230F
:1052F00081E090E021F480E002C080E090E0DF9166
:10530000CF9108951F93CF93DF93282F30E0F901B9
:10531000E35CFD4F8491F901E25EFD4FD491F90108
:10532000E150FE4FC491CC23C1F0162F81110E9491
:105330002C26EC2FF0E0EE0FFF1FED51FE4FA59154
:10534000B4919FB7F894111104C08C91D095D823D3
:1053500002C0EC91DE2BDC939FBFDF91CF911F91B8
:105360000895CF93DF9390E0FC01E25EFD4F24911E
:10537000FC01E150FE4F8491882361F190E0880F99
:10538000991FFC01EB52FE4FC591D491FC01ED51E8
:10539000FE4FA591B491611109C09FB7F89488811F
:1053A000209582238883EC912E230BC0623061F418
:1053B0009FB7F8948881322F309583238883EC91AE
:1053C0002E2B2C939FBF06C08FB7F894E8812E2B0D
:1053D00028838FBFDF91CF9108958F929F92AF92D4
:1053E000BF92CF92DF92EF92FF926B017C010E94FD
:1053F000B1254B015C01C114D104E104F104F1F0C9
:105400000E94B125DC01CB0188199909AA09BB09C1
:10541000883E9340A105B10570F321E0C21AD1087E
:10542000E108F10888EE880E83E0981EA11CB11CEB
:10543000C114D104E104F10419F7DDCFFF90EF901E
:10544000DF90CF90BF90AF909F908F900895089578
:1054500080E090E00895FF920F931F93CF93DF9326
:10546000EC0161E089890E94822961E089890E94BA
:1054700082298A890E945929892BD9F360E0898978
:105480000E94822960E089890E94822960E08989DE
:105490000E94822998E0F92E00E010E0000F111F11
:1054A00061E08F850E9482298A890E945929892B6F
:1054B00009F0016060E08F850E948229FA94F11062
:1054C000EDCF61E089890E948229C801DF91CF91E7
:1054D0001F910F91FF90089504970C942B2ACF925F
:1054E000DF92EF92FF920F931F93CF93DF93EC0124
:1054F000E62E60E089890E94822960E089890E9405
:10550000822960E089890E948229DF84C88807E0B7
:1055100010E0F12CB701002E02C0759567950A9432
:10552000E2F761708C2D0E94822961E08D2D0E942E
:10553000822960E08D2D0E9482290150110950F7C7
:1055400061E089890E94822981E090E0DF91CF911A
:105550001F910F91FF90EF90DF90CF9008951F93D0
:10556000CF93DF93EC01162F60E0812F0E94B129C9
:10557000612F70E0FB01E25EFD4FE491E883FB01E7
:10558000E150FE4FE491F0E0EE0FFF1FEF50FE4FB1
:10559000859194919A8389831B861D861C86FE01C2
:1055A0003B9623961292EC17FD07E1F7DF91CF911E
:1055B0001F9108958F929F92AF92BF92CF92DF92E8
:1055C000EF92FF920F931F93CF9310921D061092AC
:1055D0001C0688EE93E0A0E0B0E080931E06909356
:1055E0001F06A0932006B093210628E631E03093F1
:1055F0001B0620931A062DEC30E0309327062093EB
:1056000026062CEC30E0309329062093280628EC5F
:1056100030E030932B0620932A0629EC30E03093BB
:105620002D0620932C062AEC30E030932F06209391
:105630002E062EEC30E03093310620933006109287
:1056400033061092340610923506109236061092E8
:10565000BA061092B9068093BB069093BC06A0933D
:10566000BD06B093BE062AE731E03093B80620931A
:10567000B7062FEF3FEF3093C4062093C306109276
:105680006B0810926A0880936C0890936D08A09341
:105690006E08B0936F088CE891E09093690880934E
:1056A0006808E0902501F0902601009127011091F3
:1056B0002801209121013091220140912301509134
:1056C000240160911D0170911E0180911F01909134
:1056D0002001E4E2F8E0F0934B08E0934A08E8E2A6
:1056E000F8E0F0934908E0934808E0E2F8E0F0932E
:1056F0004D08E0934C081092660810925E081092D4
:105700005F081092600810926108812C912CEFE7DD
:10571000AE2EE3E4BE2E8092620890926308A092BF
:105720006408B0926508F4E68F2E912CA12CB12C60
:1057300080925A0890925B08A0925C08B0925D0833
:10574000E1E0F0E0F0934508E0934408C12CD12C4F
:105750000E944B220E94D62500915A0810915B08A6
:1057600020915C0830915D08DC01CB01801B910B1E
:10577000A20BB30B80934E0890934F08A093500850
:10578000B093510810927307109274071092760725
:105790001092750710927707109278071092790788
:1057A00010927A0710927B0710927D0710927C0767
:1057B00010927E0710927F07109280071092810747
:1057C0001092820710928407109283071092850727
:1057D0001092860710928707109288071092890707
:1057E00010928B0710928A0710928C0710928D07E7
:1057F00010928E0710928F071092900710929507C3
:105800001092960710929707109298071092990796
:1058100010929A071092A3071092A4071092A5075E
:105820001092A6071092A7071092A8071092B1072E
:105830001092B2071092B7071092B8071092B907EA
:105840001092BA071092BF071092C0071092C507B6
:105850001092C6071092C7071092C8071092CD0782
:105860001092CE071092D3071092D4071092D5074A
:105870001092D6071092DB071092DC071092E10716
:105880001092E2071092E3071092E4071092E907E2
:105890001092EA071092EF071092F0071092F107AA
:1058A0001092F2071092F7071092F80782E08093A7
:1058B00008081092090810920A0810920B0810921A
:1058C0000D0810920C0810920F0810920E081092FA
:1058D00010081092110810921208109213081092DA
:1058E00014081092150810921608109217081092BA
:1058F00018081092190810921A0810921B0810929A
:105900001C0810921D0810921E0810921F08109279
:10591000F90710926207109261078EE991E0909367
:10592000600780935F078EEA91E09093640780930D
:10593000630788E080936E07C9E0C0936F078AE031
:1059400080937007109271070E9425226BE082E815
:1059500098E00E94AF2A6CE084E798E00E94AF2AAA
:1059600082E898E0909352078093510710924F0776
:105970001092500710924B07C0934C0781E0809320
:105980004D0780934E0710925E0710925D0724E743
:1059900038E030933E0720933D0710923B0710926A
:1059A0003C0710923707C0933807809339078093DC
:1059B0003A0710924A071092490780913507909153
:1059C00036076AE070E00E943034709334076093C9
:1059D0003307909332078093310780912B078C30E7
:1059E000A0F491E0980F90932B0780932E0790E0FE
:1059F000FC01EE0FFF1F8E0F9F1FFC01E95FF84FA8
:105A000088EB9BE09283818303C08FEF80932E0706
:105A100080911B0190911C0190932D0780932C077E
:105A2000CF911F910F91FF90EF90DF90CF90BF909B
:105A3000AF909F908F900895789484B5826084BDD4
:105A400084B5816084BD85B5826085BD85B5816082
:105A500085BD80916E00816080936E001092810000
:105A600080918100826080938100809181008160BB
:105A7000809381008091800081608093800080917C
:105A80009100826080939100809191008160809369
:105A90009100809190008160809390008091C1007E
:105AA00084608093C1008091C10082608093C100B6
:105AB0008091C10081608093C1008091C3008160AA
:105AC0008093C3008091C00082608093C000809169
:105AD000C20081608093C20080917A0084608093CC
