:100000000C942F010C94BD160C9496160C946F163C
:100010000C9448160C9457010C9457010C9421161B
:100020000C9457010C9457010C94E4160C94561739
:100030000C9457010C9457010C9457010C945701E0
:100040000C9457010C9475240C9457010C9457018F
:100050000C9457010C9457010C9457010C944C21AB
:100060000C9457010C94CF190C94A9190C945701B6
:100070000C9457010C9457010C9457010C945701A0
:100080000C9457010C9457010C9457010C94570190
:100090000C9475220C9457010C9457010C94570141
:1000A0000C9457010C9457010C9457014E09010A06
:1000B000B40A2D0BCD0BE40D490EA90E070F900FBE
:1000C0008510A511D61EE81EEB1EF21EF91E271F75
:1000D0002E1F3B1F481F541F541F541F541F541FD3
:1000E000541F541F541F541F541F541F541F541F78
:1000F000541F541F541F541F541F541F541F541F68
:10010000541F541FD61EE31EE81EEB1EF21EF91EDE
:10011000001F0D1F1A1F80208320722076207C2054
:10012000A420A420A42087208B208F209520992014
:10013000A4209F20070605040100080A0B0C0D09E6
:10014000080B000202020100090400000102020083
:100150000005240010010524010101042402060504
:100160002406000107058103100040090401000274
:100170000A00000007050202400000070583024054
:1001800000000403090412010002EF0201404123B0
:10019000368000010102030141726475696E6F20AF
:1001A0004C4C430041726475696E6F204C656F6EF4
:1001B0006172646F0000000000250028002B002EF3
:1001C000003100000000002300260029002C002F31
:1001D00000040404040403040502020202040302EE
:1001E00002020206060606060604040202020404CF
:1001F0000408020110408040102040804080080226
:100200000401804020100201108010204040200096
:1002100000000200090F0000030401000C000000B0
:1002200000000000000000000000000000000000CE
:100230000000240027002A002D003000005EBCE2F0
:10024000613FDD83C29C7E20A3FD1F41009D23BE34
:1002500046DB65F88C11AF32CA57E9746C2E112455
:100260001FBECFEFDAE0DEBFCDBF15E0A0E0B1E00A
:10027000E2E2F8E602C005900D92A436B107D9F784
:1002800028E0A4E6B5E001C01D92AD3AB207E1F75F
:1002900011E0CFE2D1E004C02197FE010E94D133EA
:1002A000CE32D107C9F70E94222A0C940F340C9445
:1002B00000002F923F924F925F926F927F928F92A7
:1002C0009F92AF92BF92CF92DF92EF92FF920F93E5
:1002D0001F93CF93DF93CDB7DEB7A7970FB6F894F0
:1002E000DEBF0FBECDBF80918E05882339F060E060
:1002F0008DE00E94372010928E0507C061E08DE0EE
:100300000E94372081E080938E050E9445268091CF
:100310000F018823A1F00E94F12864E670E080E0DC
:1003200090E00E940621E090A505F090A60583EBE1
:1003300091E00E94E328C70199270E94401B809109
:10034000CE078823E1F11092CF076091D407709116
:10035000D5078091D6079091D7070E947A322EEB6D
:100360003CE443E95FE30E942F3320E030E048ECB7
:1003700052E40E94D03120E030E048EC52E40E9488
:100380002F330E9442327093A8056093A705109204
:10039000DD076091E2077091E3078091E407909197
:1003A000E5070E947A3220E030E048EC52E40E94F7
:1003B000D0310E94423270938D0560938C050E946B
:1003C0004021C0908805D0908905E0908A05F09082
:1003D0008B05C616D706E806F90608F0AAC00E94E3
:1003E0004021DC01CB0188579C4EAF4FBF4F80931B
:1003F000880590938905A0938A05B0938B0581E0C9
:100400008093640554E3E52E51E0F52E8091640558
:100410008330C8F5F701849190917B0083FB00271E
:1004200000F910E0980145E0220F331F4A95E1F7EB
:100430009F7D292B20937B008770806480937C00B4
:1004400080917A00806480937A0080917A0086FDA2
:10045000FCCF609178008091790070E0782B072EB6
:10046000000C880B990B0E947A3260936705709399
:1004700068058093690590936A05809164058F5F94
:1004800080936405C3CF2DEC3CEC4CE052E46091CA
:100490006705709168058091690590916A050E94D1
:1004A000D0316093670570936805809369059093D8
:1004B0006A0584E597E00E94011A84E597E00E94AE
:1004C000AE1B0E94493260936505613819F41092A1
:1004D00065050FC08091260181110BC0F9E06F9F67
:1004E000C001112465E070E00E94BD33605E60933E
:1004F000650588E697E00E94011A88E697E00E9469
:10050000AE1B0E94493260936605613819F410925F
:1005100066050FC08091260181110BC029E0629F02
:10052000C001112465E070E00E94BD33605E6093FD
:1005300066050E9440210091840510918505209157
:10054000860530918705061717072807390708F031
:1005500066C00E944021DC01CB0188519C4FAF4F07
:10056000BF4F8093840590938505A0938605B09333
:10057000870580918C0590918D059C01275131094B
:100580002D32310530F42EE420937C0525E42093B0
:100590007D059C01245431092D32310530F425E4C8
:1005A00020937C0520E220937D059C012157310991
:1005B0002D32310530F423E520937C0525E420938A
:1005C0007D059C012E5931092D32310530F423E58A
:1005D00020937C0520E220937D059C012B5C310952
:1005E0002D32310530F423E520937C0527E5209357
:1005F0007D059C01285F31092D32310530F427E556
:1006000020937C0520E220937D05855291408D97B3
:1006100030F48EE480937C0587E580937D052091FE
:1006200045073091460780912701909128012817AE
:10063000390709F075C00E9440210091770510919B
:1006400078052091790530917A0506171707280754
:10065000390708F065C00E944021DC01CB018053BE
:10066000984FAF4FBF4F8093770590937805A09335
:100670007905B0937A0582E10E94691B60E070E021
:1006800080E090E00E94551B86EB91E00E94F528E7
:1006900061E070E080E090E00E94551B89EC91E001
:1006A0000E94F5280E9445268091CE07882321F1DB
:1006B0001092CF076091D4077091D5078091D6072B
:1006C0009091D7070E947A322EEB3CE443E95FE336
:1006D0000E942F3320E030E048EC52E40E94D031F9
:1006E00020E030E048EC52E40E942F330E94423276
:1006F0007093A8056093A70560E070E080E090E04B
:100700000E94551B84E093E00E94F52861E070E0B0
:1007100080E090E00E94551B84E093E00E94F52861
:1007200080910E01811109C08091300190913101B9
:10073000909346078093450716C2813019F41092B2
:100740000D0103C081E080930D0180910D0188238C
:1007500009F47BC0C0905007D0905107E090520739
:10076000F090530720E030E04AEF53E4C701B601B0
:100770000E942A3387FD22C080910401811140C06C
:1007800081E080930401E0903A01F0903B010091F8
:100790003C0110913D01209136013091370140918B
:1007A000380150913901609132017091330180918B
:1007B000340190913501C12CD12C20C020E030E0D3
:1007C000A901C701B6010E94CB311816CCF0809167
:1007D00004018823A9F010920401E0900001F09038
:1007E00001010091020110910301CC24C394D12C8A
:1007F00020E030E040E85EE3CA01B9010E9403282E
:100800006091A7057091A805072E000C880B990B25
:100810000E947A3260934508709346088093470897
:100820009093480860912D0170912E01072E000CC5
:10083000880B990B0E947A3260933D0870933E08B2
:1008400080933F089093400838C00E948027BC01E5
:10085000990F880B990B0E947A3260934508709328
:100860004608809347089093480860910B01709167
:100870000C01072E000C880B990B0E947A326093B2
:100880003D0870933E0880933F0890934008109273
:100890000001109201011092020110920301CC2478
:1008A000C394D12CE12CF12C870120E030E040E80A
:1008B0005EE3CA01B9010E9403288091830888235E
:1008C00009F443C10E9440216F8F78A389A39AA3A2
:1008D00080916B0890916C08A0916D08B0916E08A2
:1008E0004F8D58A169A17AA1481B590B6A0B7B0B4C
:1008F0008091770890917808A0917908B0917A0852
:10090000481759076A077B0708F41FC1E09165087B
:10091000F091660880819181A281B3818B8F9C8F39
:10092000AD8FBE8FE0916908F0916A089C01AD011E
:1009300060817181828193810E945E314B015C01F3
:100940002091730830917408409175085091760891
:100950006B8D7C8D8D8D9E8D0E945E316B017C0137
:100960002091590830915A0840915B0850915C08D9
:10097000C501B4010E942F3320916F083091700897
:1009800040917108509172080E945F312B013C0127
:1009900060936F0870937008809371089093720849
:1009A000909184089BA391111AC020915508309111
:1009B00056084091570850915808C701B6010E9447
:1009C0002F339B01AC01C301B2010E945E316093E1
:1009D0006F0870937008809371089093720840902C
:1009E0006F085090700860907108709072081091B4
:1009F0007F08009180083090810820908208212F84
:100A0000302F432D522DC301B2010E942A331816F4
:100A10002CF4812F902FA32DB22D18C080917B082C
:100A200090917C08A0917D08B0917E088CA39DA335
:100A3000AEA3BFA39C01AD01C301B2010E94CB31A3
:100A400087FF0CC08CA19DA1AEA1BFA180936F08B0
:100A500090937008A0937108B09372089BA199239A
:100A600079F02091550830915608409157085091DF
:100A70005808C501B4010E942F334B015C0103C02B
:100A8000812C912C540120915D0830915E08409199
:100A90005F0850916008C701B6010E942F339B0187
:100AA000AC0160916F08709170088091710890910D
:100AB00072080E945E31A50194010E945F316B01B2
:100AC0007C019B01AC01612F702F832D922D0E9420
:100AD000CB3187FD16C010917B0800917C083090C7
:100AE0007D0820907E08212F302F432D522DB601F6
:100AF000C7010E94CB3187FD04C01C2D0D2D3E2C5B
:100B00002F2CE0916708F0916808812F902FA32D7A
:100B1000B22D80839183A283B3838B8D9C8DAD8D09
:100B2000BE8D8093730890937408A0937508B0935A
:100B300076088F8D98A1A9A1BAA180936B08909394
:100B40006C08A0936D08B0936E0860914108709195
:100B5000420880914308909144080E944232709369
:100B600046076093450780914507909146070E948C
:100B7000751B80912D0190912E012AE030E0B90182
:100B80000E94BD3370934F0760934E078091A70575
:100B90009091A805B9010E94BD33709376056093CA
:100BA000750580912B01811112C0072E000C880B56
:100BB000990B0E947A322BE734E14EEC5FE30E94FE
:100BC0002F330E9442327093760560937505109220
:100BD000C107C090C207D090C307E090C407F0904F
:100BE000C507C701B60120E432E44FE050E00E949F
:100BF0002D318091290190912A01820F911D9C0134
:100C00002C50310937FD05C03093740520937305CE
:100C100005C00C96909374058093730580917305BD
:100C200090917405893191052CF048979093740543
:100C300080937305C701B60120E137E240E050E040
:100C40000E942D31B4E68B2E912CA12CB12CCA011F
:100C5000B901A50194010E942D3170937205609332
:100C60007105C701B601A50194010E942D31CA0189
:100C7000B901A50194010E942D3170937005609314
:100C80006F050E94402100916B0510916C05209129
:100C90006D0530916E05061717072807390708F00C
:100CA00044C00E944021DC01CB018C509E4FAF4FCD
:100CB000BF4F80936B0590936C05A0936D05B09327
:100CC0006E050091270110912801809145079091B0
:100CD0004607B801681B790B072E000C880B990B8F
:100CE0000E947A326B017C01809130019091310138
:100CF000B801681B790B072E000C880B990B0E941A
:100D00007A329B01AC01C701B6010E94D03120E0CC
:100D100030E048EC52E40E942F3360930501709359
:100D20000601809307019093080180912B01609147
:100D30002D0170912E0181110EC0072E000C880B21
:100D4000990B0E947A322BE734E14EEC5FE30E946C
:100D50002F330E944232CB016AE070E00E94BD3323
:100D600070934F0760934E0780914E0790914F0705
:100D70006AE070E00E94BD337B018C0170934D07E7
:100D800060934C0790934B0780934A078AE00E9438
:100D9000691B61E070E080E090E00E94551B80914B
:100DA0007305909174050E946F298CED91E00E946B
:100DB000F52880917105909172050A9724F483E0DB
:100DC00094E00E94F52880917105909172050E942F
:100DD0006F298CED91E00E94F52880916F0590912C
:100DE00070050A9724F483E094E00E94F52880912E
:100DF0006F05909170050E946F2984E193E00E9435
:100E0000F5288AE00E94691B63E070E082E190E0CF
:100E10000E94551B6EEF82E00E942C1B8EED91E02C
:100E20000E94F52864E070E082E190E00E94551B8A
:100E30006DEF82E00E942C1B80912B01882319F01A
:100E400082EE91E002C086EE91E00E94F52860E01B
:100E500070E080E090E00E94551B8AEE91E00E94D5
:100E6000F52860910501709106018091070190912C
:100E700008010E944232CB010E946F2984E193E075
:100E80000E94F52882E10E94691B60E070E086E024
:100E900090E00E94551B80910E01811104C081EFEA
:100EA00091E00E94F52880910E01813071F485E176
:100EB00093E00E94F52880910B0190910C010E9413
:100EC0006F298AEF91E00E94F52880910E0182300F
:100ED00009F049C00E0D1F1D17FF03C08EEF91E0F2
:100EE0000BC080914C0790914D070A971CF484E148
:100EF00093E002C085E193E00E94F52880914C07C1
:100F000090914D0797FF07C0919581959109909316
:100F10004D0780934C0780914C0790914D070E949C
:100F20006F2981E092E00E94F52880914A07909114
:100F30004B0797FF07C091958195910990934B07B7
:100F400080934A0780914A0790914B070E946F292E
:100F500080912B01882319F083E092E002C088E0A1
:100F600092E00E94F5288AE00E94691B62E070E02E
:100F700080E090E00E94551B8DE092E00E94F528F1
:100F800060916705709168058091690590916A0587
:100F90000E94711A84E193E00E94F5288AE00E9481
:100FA000691B63E070E080E090E00E94551B80E1E7
:100FB00092E00E94F52880917C050E94082980918A
:100FC0007D050E94082964E070E080E090E00E94C6
:100FD000551B85E192E00E94F528809166050E94EC
:100FE0005C2980912601882319F08AE192E002C0F1
:100FF00086EF91E00E94F52865E070E080E090E0E7
:101000000E94551B8EE192E00E94F52880916505B3
:101010000E945C2980912601882319F08AE192E0E0
:1010200002C086EF91E00E94F52866E070E080E063
:1010300090E00E94551B83E292E00E94F5280E94F6
:1010400080270E946F2982E193E00E94F5288BECB3
:101050000E94691B60E070E080E090E00E94551BF8
:1010600066E18EE20E942C1BE0907505F0907605FB
:1010700094E6E916F1041CF480E30E9408290AE0D2
:1010800010E0C701B8010E94BD33CB010E946F2957
:1010900089EC0E94691B60E070E080E090E00E94B3
:1010A000551B6BE28FE60E942C1B80917505909179
:1010B0007605B8010E94BD330E946F298091B60564
:1010C0008823E9F180910E018230B9F42091B205B4
:1010D0003091B3054091B4055091B505AAE0B0E058
:1010E0000E941A3120912D0130912E01620F731F41
:1010F00070932E0160932D0118C08130B1F42091BE
:10110000B2053091B3054091B4055091B505AAE000
:10111000B0E00E941A3120910B0130910C01620F56
:10112000731F70930C0160930B011092B205109223
:10113000B3051092B4051092B5051092B60584E07F
:101140000E940E202091B805892B21F42F5F209357
:10115000B8050EC0222351F080910E018F5F8330BD
:1011600018F480930E0102C010920E011092B8057F
:101170008091B805883010F40C9428130E94F1284F
:1011800084E10E94691B60E070E080E090E00E94D2
:10119000551B64EF71E080E090E00E940621A4E618
:1011A0008A2E912CA12CB12C8091B805883010F496
:1011B0000C94281388E292E00E94F52864EF71E015
:1011C00080E090E00E94062184E00E940E20892B9E
:1011D000D9F38AE1EEE3F1E0DE01119601900D9280
:1011E0008A95E1F7312CFE013196E30DF11DE30DF7
:1011F000F11D808191818554954011F03394F3CF96
:101200003A943B8E0E94F12881E080932F01F2E016
:10121000FF2E10E000E0BB8D2B2E312C0E94FA2611
:1012200082309105D1F024F4019769F00C949A1260
:101230008430910531F1089711F00C949A120E94B4
:10124000F4260C949A1211110C94A112002311F49B
:101250000C94D31201500C94D912802F90E0059673
:10126000821593052CF4153019F40F5FE2E0FE2E81
:10127000812F90E0059714F00C949A121F5F0C9444
:10128000A212E12FF0E0E00FF11DEC30F10510F0BB
:101290000C949A12EA5AFF4F0C94D1338091270193
:1012A0009091280190934607809345070E94F1286A
:1012B0008AE00E94691B60E070E080E090E00E949C
:1012C000551B82E392E00E94F52861E070E080E027
:1012D00090E00E94551B80E492E00E94F52862E0B5
:1012E00070E080E090E00E94551B84E592E00E944F
:1012F000F52864E070E080E090E00E94551B8AE6EB
:1013000092E00E94F52880912701909128010E9487
:101310006F2982E193E00E94F52866E070E080E0AA
:1013200090E00E94551B85E792E00E94F5287EE937
:10133000E72E77E0F72E80914507909146070E94AF
:10134000751B0E94FA2682309105E1F01CF401978A
:1013500051F0F1CF8430910509F448C0089759F74E
:101360000E94F426E8CF80912701909128018E39C0
:10137000E7E09E072CF0F0922801E092270119C0C7
:101380000A9613C080912701909128012091300185
:1013900030913101281739073CF0265F3F4F3093D9
:1013A00028012093270105C00A9790932801809374
:1013B000270164E070E080E090E00E94551B8AE61F
:1013C00092E00E94F52880912701909128010E94C7
:1013D0006F2982E193E00E94F52880912701909186
:1013E00028019093460780934507A5CF8091270158
:1013F000909128016AE070E00E94BD3384E190E0A2
:10140000A3C480913001909131019093460780935D
:1014100045070E94F1288AE00E94691B60E070E0A5
:1014200080E090E00E94551B8BE892E00E94F52836
:1014300061E070E080E090E00E94551B89E992E055
:101440000E94F52862E070E080E090E00E94551B69
:101450008CEA92E00E94F52864E070E080E090E081
:101460000E94551B8AE692E00E94F5288091300187
:10147000909131010E946F2982E193E00E94F5284A
:1014800066E070E080E090E00E94551B85E792E006
:101490000E94F52866EBE62E63E0F62E8091450764
:1014A000909146070E94751B0E94FA268230910592
:1014B00009F11CF4019751F0F1CF8430910509F442
:1014C00048C0089759F70E94F426E8CF8091300170
:1014D00090913101209127013091280182179307C3
:1014E0003CF02A503109309331012093300114C06F
:1014F0000A960EC08091300190913101873BF3E054
:101500009F072CF4F0923101E092300105C00A9758
:10151000909331018093300164E070E080E090E0CE
:101520000E94551B8AE692E00E94F52880913001C6
:10153000909131010E946F2982E193E00E94F52889
:101540008091300190913101909346078093450737
:10155000A5CF80913001909131016AE070E00E9446
:10156000BD3385E190E0F0C380913001909131016D
:1015700090934607809345070E94F1288AE00E94D5
:10158000691B60E070E080E090E00E94551B81ECF8
:1015900092E00E94F52866E070E080E090E00E9412
:1015A000551B85E792E00E94F528EE24EA94FE2C74
:1015B0005AE0D52E61E070E080E090E00E94551B7B
:1015C00083ED92E00E94F5288091450790914607AF
:1015D0000E946F2985ED92E00E94F52864E670E094
:1015E00080E090E00E940621809145079091460797
:1015F00020913001309131012817390734F021E072
:1016000030E030930A0120930901209127013091A5
:1016100028018217930724F0F0920A01E092090151
:101620004091090150910A01D49E9001D59E300D40
:101630001124820F931F90934607809345070E94C1
:10164000751B0E94FA268430910509F4B2C70897E9
:1016500009F0B0CF0E94F426ADCF0E94F1288AE0B5
:101660000E94691B60E070E080E090E00E94551BE2
:101670008CED92E00E94F52861E070E080E090E05F
:101680000E94551B80912C010E945C2980912C01A5
:10169000813051F462E070E080E090E00E94551BE0
:1016A0008EEE92E00E94F52866E070E080E090E027
:1016B0000E94551B85E792E00E94F528FF24F394D1
:1016C00028E0E22E34E0D32E0E94FA2682309105E3
:1016D000B9F11CF4019751F0F7CF8430910509F46A
:1016E00057C0089789F70E94F426EECF61E070E0BA
:1016F00080E090E00E94551B80912C01813021F404
:10170000D0922C0184E029C0883060F48E5F8093F1
:101710002C010E945C2962E070E080E090E00E9471
:10172000551BD2CFE0922C0188E00E945C2962E038
:1017300070E080E090E00E94551B87E193E025C0B7
:1017400061E070E080E090E00E94551B80912C01E8
:10175000853070F0825080932C010E945C2962E0F9
:1017600070E080E090E00E94551B81E093E00DC0A6
:10177000F0922C0181E00E945C2962E070E080E040
:1017800090E00E94551B8EEE92E00E94F5289CCFBF
:1017900060912C018BE090E0D7C283E396E00E9439
:1017A00017140E941E1D1092C107C090C207D0904E
:1017B000C307E090C407F090C507C701B60120E455
:1017C00032E44FE050E00E942D3180912901909148
:1017D0002A01820F911D0C979093740580937305D5
:1017E000C701B60120E137E240E050E00E942D3110
:1017F000CA01B901A50194010E942D3170937205AF
:1018000060937105C701B601A50194010E942D31B5
:10181000CA01B901A50194010E942D317093700590
:1018200060936F050E94F1288AE00E94691B60E0C6
:1018300070E080E090E00E94551B85E293E00E94FA
:10184000F52861E070E080E090E00E94551B8091F7
:101850007305909174050E946F298CED91E00E94B0
:10186000F52880917105909172050A9724F483E020
:1018700094E00E94F52880917105909172050E9474
:101880006F298CED91E00E94F52880916F05909171
:1018900070050A9724F483E094E00E94F528809173
:1018A0006F05909170050E946F2983E193E00E947B
:1018B000F52863E070E080E090E00E94551B809185
:1018C000290190912A010C970E946F2983E193E0EE
:1018D0000E94F52866E070E080E090E00E94551BD1
:1018E00085E792E00E94F52883E396E00E941714B2
:1018F0000E941E1D1092C107C090C207D090C3075E
:10190000E090C407F090C507C701B60120E432E4B7
:101910004FE050E00E942D318091290190912A01E1
:10192000820F911D0C979093740580937305C701E6
:10193000B60120E137E240E050E00E942D31CA01BB
:10194000B901A50194010E942D3170937205609335
:101950007105C701B601A50194010E942D31CA018C
:10196000B901A50194010E942D3170937005609317
:101970006F0561E070E080E090E00E94551B62E33B
:1019800070E080E090E00E9406210E94FA268230FA
:10199000910509F469C01CF4019759F0C1C0843065
:1019A000910509F4B5C0089709F0BAC00E94F42661
:1019B000B7C08091290190912A018831910514F4D2
:1019C000019602C088E190E090932A01809329015A
:1019D0001092C1074090C2075090C3076090C4079F
:1019E0007090C507C301B20120E432E44FE050E03B
:1019F0000E942D31C0902901D0902A01C20ED11C25
:101A000076019CE0E91AF108F0927405E092730502
:101A1000C301B20120E137E240E050E00E942D31E5
:101A2000CA01B901A50194010E942D31709372057C
:101A300060937105C301B201A50194010E942D318B
:101A4000CA01B901A50194010E942D31709370055E
:101A500060936F05F7FE3EC0ACE0CA0ED11CD09279
:101A60007405C092730536C08091290190912A01B6
:101A70001816190634F4019790932A0180932901CE
:101A800004C010922A01109229011092C10760919E
:101A9000C2077091C3078091C4079091C50720E4E5
:101AA00032E44FE050E00E942D3180912901909165
:101AB0002A01820F911D9C012C50310937FD05C070
:101AC000309374052093730505C00C9690937405AC
:101AD0008093730580917305909174058931910508
:101AE0002CF04897909374058093730563E070E041
:101AF00080E090E00E94551B8091290190912A017D
:101B00000C970E946F2983E193E00E94F52808C09A
:101B10006091290183E190E00E945726F12C02C0D8
:101B2000FF24F394809173059091740597FF05C08D
:101B300048969093740580937305809173059091F6
:101B40007405893191052CF0489790937405809322
:101B5000730561E070E080E090E00E94551B809189
:101B60007305909174050E946F298CED91E00E949D
:101B7000F52880917105909172050A9724F483E00D
:101B800094E00E94F52880917105909172050E9461
:101B90006F298CED91E00E94F52880916F0590915E
:101BA00070050A9724F483E094E00E94F528809160
:101BB0006F05909170050E946F2983E193E00E9468
:101BC000F528F11091CEF5C40E94F1288AE00E9418
:101BD000691B60E070E080E090E00E94551B87E3A5
:101BE00093E00E94F52861E070E080E090E00E94C0
:101BF000551B0E945B2666E070E080E090E00E944A
:101C0000551B85E792E00E94F52898E8E92E93E1BC
:101C1000F92E0E94FA268230910539F11CF40197C1
:101C200049F0F7CF8430910569F1089791F70E9448
:101C3000F426EFCF80912D0190912E018838B3E1E9
:101C40009B072CF0F0922E01E0922D0105C00A9620
:101C500090932E0180932D0161E070E080E090E090
:101C60000E94551B0E945B26D4CF80912D0190913C
:101C70002E01853FE1E09E071CF484EF91E0E8CF60
:101C80000A97E6CF60912D0170912E018EE190E0D0
:101C900059C30E94F1288AE00E94691B60E070E04D
:101CA00080E090E00E94551B8CE493E00E94F528B0
:101CB00061E070E080E090E00E94551B80912B0174
:101CC000882319F083E092E002C088E092E00E944D
:101CD000F52866E070E080E090E00E94551B85E703
:101CE00092E00E94F528FF24F3940E94FA268230A5
:101CF000910561F01CF4019749F0F7CF843091050C
:101D0000E1F0089791F70E94F426EFCF80912B0124
:101D10008F2580932B0161E070E080E090E00E94CD
:101D2000551B80912B01882319F083E092E002C0BB
:101D300088E092E00E94F528D8CF80912B0188237B
:101D400031F061E082E190E00E94572632C460E009
:101D5000F9CF0E94F1288AE00E94691B60E070E0E0
:101D600080E090E00E94551B8CE593E00E94F528EE
:101D700061E070E080E090E00E94551B80912601B8
:101D8000882319F08FE693E002C08CE793E00E946D
:101D9000F52866E070E080E090E00E94551B85E742
:101DA00092E00E94F528FF24F3940E94FA268230E4
:101DB000910561F01CF4019749F0F7CF843091054B
:101DC000E1F0089791F70E94F426EFCF8091260169
:101DD0008F258093260161E070E080E090E00E9412
:101DE000551B80912601882319F087E893E002C0F3
:101DF0008CE793E00E94F528D8CF809126018823B4
:101E000011F061E001C060E08DE190E09DCF0E94A3
:101E1000F1288AE00E94691B60E070E080E090E0B9
:101E20000E94551B83E993E00E94F52861E070E071
:101E300080E090E00E94551B8FE993E00E94F52816
:101E400064E070E080E090E00E94551B82EB93E03C
:101E50000E94F5288091A5059091A6050E946F2902
:101E600066E070E080E090E00E94551B85E792E01C
:101E70000E94F528E090A505F090A60583EB91E07F
:101E80000E94E328C70199270E94401B0E94FA265E
:101E900082309105E1F01CF4019749F0EBCF8430DA
:101EA0009105C9F1089731F70E94F426E3CF80919C
:101EB000A5059091A605883291053CF0A8E2B0E016
:101EC000B093A605A093A50515C001960FC08091FB
:101ED000A5059091A605853191053CF4E4E1F0E07B
:101EE000F093A605E093A50505C001979093A6057C
:101EF0008093A50564E070E080E090E00E94551BAF
:101F000082EB93E00E94F5288091A5059091A605AB
:101F10000E946F29AFCF6091A50581E290E014CFB8
:101F20000E94F1288AE00E94691B60E070E080E076
:101F300090E00E94551B8DEB93E00E94F52861E034
:101F400070E080E090E00E94551B8FEC93E00E94CF
:101F5000F52863E070E080E090E00E94551B82EE7F
:101F600093E00E94F52860913201709133018091D5
:101F70003401909135010E94711A66E070E080E0B2
:101F800090E00E94551B85E792E00E94F52820E032
:101F900030E048EC52E4609132017091330180915D
:101FA0003401909135010E942F330E9442327B010F
:101FB0000E94FA268230910509F445C01CF401976D
:101FC00051F0F6CF8430910509F49BC0089781F752
:101FD0000E94F426EDCF63E070E080E090E00E9484
:101FE000551B82EE93E00E94F52820E030E048EC9B
:101FF00052E46091320170913301809134019091EB
:1020000035010E942F336B017C0120E030E048EC69
:1020100052E40E942A3387FD0DC080E090E0A8ECD6
:10202000B2E48093320190933301A0933401B093D2
:10203000350143C020E030E040E85FE3C701B6016E
:102040000E945F3132C063E070E080E090E00E9467
:10205000551B82EE93E00E94F52820E030E048EC2A
:1020600052E460913201709133018091340190917A
:1020700035010E942F336B017C0120E030E0A90183
:102080000E94CB3118164CF010923201109233019D
:10209000109234011092350110C020E030E040E889
:1020A0005FE3C701B6010E945E3160933201709315
:1020B0003301809334019093350140903201509068
:1020C00033016090340170903501C301B2010E9468
:1020D00042327B0120E030E048EC52E4C301B2011F
:1020E0000E94D031609332017093330180933401A8
:1020F000909335010E94711A84E193E00E94F528C3
:1021000057CFB7018CE090E01DC10E94F1288AE012
:102110000E94691B60E070E080E090E00E94551B27
:1021200089EE93E00E94F52861E070E080E090E0A5
:102130000E94551B87EF93E00E94F52863E070E052
:1021400080E090E00E94551B82EE93E00E94F5280B
:102150006091360170913701809138019091390179
:102160000E94711A66E070E080E090E00E94551BCA
:1021700085E792E00E94F52820E030E048EC52E448
:102180006091360170913701809138019091390149
:102190000E942F330E9442327B010E94FA26823035
:1021A000910509F46EC01CF4019751F0F6CF84300C
:1021B000910509F4C4C0089781F70E94F426EDCF79
:1021C00063E070E080E090E00E94551B82EE93E0B7
:1021D0000E94F52820E030E048EC52E4609136019E
:1021E0007091370180913801909139010E942F330D
:1021F0006B017C0120E030E048EC52E40E942A337D
:1022000087FD0DC080E090E0A8ECB2E48093360139
:1022100090933701A0933801B093390110C020E0AA
:1022200030E040E85FE3C701B6010E945F31609390
:1022300036017093370180933801909339014090B3
:102240003601509037016090380170903901C30118
:10225000B2010E9442327B0120E030E048EC52E4BF
:10226000C301B2010E94D0316093360170933701EF
:1022700080933801909339010E94711A83E193E0B1
:102280005BC063E070E080E090E00E94551B82EE4E
:1022900093E00E94F52820E030E048EC52E46091A1
:1022A00036017091370180913801909139010E9477
:1022B0002F336B017C0120E030E0A9010E94CB317B
:1022C00018164CF010923601109237011092380116
:1022D0001092390110C020E030E040E85FE3C70110
:1022E000B6010E945E31609336017093370180938E
:1022F0003801909339014090360150903701609039
:10230000380170903901C301B2010E9442327B0151
:1023100020E030E048EC52E4C301B2010E94D03129
:10232000609336017093370180933801909339019F
:102330000E94711A81E193E00E94F5282ECFB70127
:102340008EE090E00E94E42634C10E94F1288AE0E9
:102350000E94691B60E070E080E090E00E94551BE5
:1023600085E094E00E94F52861E070E080E090E074
:102370000E94551B85E194E00E94F52863E070E01F
:1023800080E090E00E94551B82EE93E00E94F528C9
:1023900060913A0170913B0180913C0190913D0127
:1023A0000E94711A66E070E080E090E00E94551B88
:1023B00085E792E00E94F52820E030E048EC52E406
:1023C00060913A0170913B0180913C0190913D01F7
:1023D0000E942F330E9442327B010E94FA268230F3
:1023E000910509F445C01CF4019751F0F6CF8430F3
:1023F000910509F49BC0089781F70E94F426EDCF60
:1024000063E070E080E090E00E94551B82EE93E074
:102410000E94F52820E030E048EC52E460913A0157
:1024200070913B0180913C0190913D010E942F33BE
:102430006B017C0120E030E048EC52E40E942A333A
:1024400087FD0DC080E090E0A8ECB2E480933A01F3
:1024500090933B01A0933C01B0933D0143C020E029
:1024600030E040E85FE3C701B6010E945F3132C04F
:1024700063E070E080E090E00E94551B82EE93E004
:102480000E94F52820E030E048EC52E460913A01E7
:1024900070913B0180913C0190913D010E942F334E
:1024A0006B017C0120E030E0A9010E94CB311816BD
:1024B0004CF010923A0110923B0110923C011092A4
:1024C0003D0110C020E030E040E85FE3C701B60105
:1024D0000E945E3160933A0170933B0180933C010E
:1024E00090933D0140903A0150903B0160903C0137
:1024F00070903D01C301B2010E9442327B0120E095
:1025000030E048EC52E4C301B2010E94D031609344
:102510003A0170933B0180933C0190933D010E94EE
:10252000711A84E193E00E94F52857CFB70180E14A
:1025300090E008CFF1E0FF1629F022E0F21281C00E
:1025400038C011508B8D811708F4182FE12CF12C15
:102550008AE00E94691BB70180E090E00E94551B51
:1025600085E193E00E94F528B70180E090E00E94A9
:10257000551B85E193E00E94F5289FEFE91AF90ABF
:10258000A6E0EA16F10421F78AE00E94691B612F98
:1025900070E080E090E00E94551B83E294E00E948E
:1025A000F528F12C4EC091E0F91681F2A2E0FA1262
:1025B00048C00E94F128BB8DB63020F4712CC02E8B
:1025C000D12C1FC0FE0131967F01E00EF11CE00E00
:1025D000F11CC12CD12C8AE00E94691BB60181E05C
:1025E00090E00E94551BD7018D919D917D010E9425
:1025F000F528BFEFCB1ADB0AE6E0CE16D10459F777
:102600001EC0E72CF12C2E143F04CCF08AE00E946F
:10261000691BB70181E090E00E94551BF601EE0DA9
:10262000FF1DEE0FFF1F81E090E08C0F9D1FE80F54
:10263000F91F808191810E94F5287394E2CFFF24D5
:10264000F39480912F0181110C940E090C94D408FD
:1026500080910F01811110920F01A7960FB6F89487
:10266000DEBF0FBECDBFDF91CF911F910F91FF90C5
:10267000EF90DF90CF90BF90AF909F908F907F9022
:102680006F905F904F903F902F90089508954091E4
:1026900091055091920520918F0530919005421738
:1026A0005307B4F49091E8009570E1F39091E8003D
:1026B00092FD19C08093F10080919105909192054F
:1026C00001968F739927892B19F48EEF8093E80078
:1026D0008091910590919205019690939205809337
:1026E000910581E0089580E00895DF92EF92FF92D6
:1026F0000F931F93CF93DF93D82EF92EE42E062F3E
:1027000010E0C8010196880F0E94471383E00E94E1
:102710004713CD2DDF2D0C0F1D1FC017D10789F0DA
:10272000E7FE03C0FE01849101C088810E94471327
:10273000F82E80E00E9447138F2121968111EDCF62
:1027400001C081E0DF91CF911F910F91FF90EF9039
:10275000DF900895DF92EF92FF920F931F93CF9334
:10276000DF93D82E8A017B01E40EF51EEB01CE1516
:10277000DF0571F0D7FE03C0FE01849101C088819E
:102780000E94471321968111F2CF8FEF9FEF01C076
:10279000C801DF91CF911F910F91FF90EF90DF90D3
:1027A0000895615030F02091F100FC0120830196E2
:1027B000F8CF289884E6809395050895CF92DF920C
:1027C000EF92FF920F931F93CF93DF936C017A01E7
:1027D0008B01C0E0D0E0CE15DF0581F0D8016D910E
:1027E0008D01D601ED91FC910190F081E02DC601A3
:1027F0000995892B11F02196EECF7E01C701DF915B
:10280000CF911F910F91FF90EF90DF90CF9008959F
:10281000FC01538D448D252F30E0842F90E0821BE6
:10282000930B541710F0CF96089501970895FC016B
:10283000918D828D981761F0828DDF01A80FB11DF7
:102840005D968C91928D9F5F9F73928F90E008951B
:102850008FEF9FEF0895FC01918D828D981731F0D5
:10286000828DE80FF11D858D90E008958FEF9FEF29
:102870000895FC01918D228D892F90E0805C9F4FFF
:10288000821B91098F739927089583E396E00E9434
:10289000391421E0892B09F420E0822F0895FC01EE
:1028A000848DDF01A80FB11DA35ABF4F2C91848DD9
:1028B00090E001968F739927848FA689B7892C930E
:1028C000A089B1898C9182748C93938D848D981397
:1028D00006C00288F389E02D80818F7D8083089572
:1028E000EF92FF920F931F93CF93DF93EC0181E060
:1028F000888F9B8D8C8D981305C0E889F98980811C
:1029000085FD26C0F62E0B8D10E00F5F1F4F0F7355
:102910001127E02E8C8DE8120CC00FB607FCFACF01
:10292000E889F989808185FFF5CFCE010E944F1497
:10293000F1CF8B8DFE01E80FF11DE35AFF4FF082BE
:102940009FB7F8940B8FEA89FB898081806209C068
:102950009FB7F894EE89FF896083E889F9898081BF
:10296000827480839FBF81E090E0DF91CF911F91BF
:102970000F91FF90EF900895CF93DF93EC01888D36
:102980008823C9F0EA89FB89808185FD05C0A88973
:10299000B9898C9186FD0FC00FB607FCF5CF8081F9
:1029A00085FFF2CFA889B9898C9185FFEDCFCE0143
:1029B0000E944F14E7CFDF91CF91089580E090E01F
:1029C000892B29F00E94451481110C940000089570
:1029D000CF93DF931F92CDB7DEB76983DC01ED9112
:1029E000FC910280F381E02D41E050E0BE016F5F79
:1029F0007F4F09950F90DF91CF91089583E08093E9
:102A0000E9008091F200882319F08AE38093E800BE
:102A10000895FC018485958597FD0BC09FB7F894B8
:102A200082E08093E9008091F2009FBF90E00196E0
:102A300008959FB7F89482E08093E9008091F200B6
:102A40009FBF90E008950F931F93CF93DF931F9242
:102A5000CDB7DEB782E0898342E450E060E471E004
:102A600080E80E94AA130E94FA1FDC0112960D91C1
:102A70001C9113970115110589F0D801ED91FC9176
:102A80000280F381E02DBE016F5F7F4FC801099581
:102A900097FD04C0F80100851185ECCF89810F9066
:102AA000DF91CF911F910F9108958F929F92AF92D6
:102AB000BF92CF92DF92EF92FF920F931F93CF932B
:102AC000DF936C017B018A0180911B01882309F44B
:102AD0005CC080919605882309F457C08091A305B6
:102AE00080FF05C08091E00082608093E000E801F3
:102AF000B12C8AEFA82E93E0892E2AE3922E2097FC
:102B000011F4BB20D9F10E94E91F81110AC0AA94D7
:102B1000AA20D9F161E070E080E090E00E940621F7
:102B2000EECF282F30E0C217D3070CF48C2F9FB7BD
:102B3000F8948092E9002091E80025FF1DC0282F1D
:102B400030E0C21BD30BF701815020F0419140933C
:102B5000F100FACFE20EF31EBB2019F09092E800CC
:102B60000AC08091E80085FD07C09092E800BB2470
:102B7000B394209709F0B12C9FBFC1CF5D9884E634
:102B8000809394051016110644F081E090E0F60160
:102B90009383828380E090E001C0C801DF91CF91F0
:102BA0001F910F91FF90EF90DF90CF90BF90AF906B
:102BB0009F908F9008950E94E91F90E008950F93D1
:102BC0001F93CF93DF931F92CDB7DEB78C01FC012B
:102BD0008485958597FF0EC0CE0101960E94BB1F8C
:102BE000019719F4898190E002C08FEF9FEFF801FF
:102BF00095878487F801848595850F90DF91CF9123
:102C00001F910F910895CF93DF931F92CDB7DEB739
:102C1000FC018485958597FD05C02FEF3FEF358733
:102C200024870BC0CE0101960E94BB1F019719F4A7
:102C3000898190E002C08FEF9FEF0F90DF91CF91DD
:102C400008951F920F920FB60F9211242F933F9366
:102C50004F935F936F937F938F939F93AF93BF93A4
:102C6000EF93FF93E0912401F09125010995FF91E5
:102C7000EF91BF91AF919F918F917F916F915F91F4
:102C80004F913F912F910F900FBE0F901F9018956D
:102C90001F920F920FB60F9211242F933F934F93D1
:102CA0005F936F937F938F939F93AF93BF93EF93B4
:102CB000FF93E0912201F09123010995FF91EF919B
:102CC000BF91AF919F918F917F916F915F914F9144
:102CD0003F912F910F900FBE0F901F9018951F924C
:102CE0000F920FB60F9211242F933F934F935F9340
:102CF0006F937F938F939F93AF93BF93EF93FF93C4
:102D0000E0912001F09121010995FF91EF91BF9190
:102D1000AF919F918F917F916F915F914F913F9173
:102D20002F910F900FBE0F901F9018951F920F922A
:102D30000FB60F9211242F933F934F935F936F938E
:102D40007F938F939F93AF93BF93EF93FF93E09104
:102D50001E01F0911F010995FF91EF91BF91AF9175
:102D60009F918F917F916F915F914F913F912F91A3
:102D70000F900FBE0F901F9018951F920F920FB6D5
:102D80000F9211242F933F934F935F936F937F93F1
:102D90008F939F93AF93BF93EF93FF93E0911C01A9
:102DA000F0911D010995FF91EF91BF91AF919F9116
:102DB0008F917F916F915F914F913F912F910F90E4
:102DC0000FBE0F901F9018951F920F920FB60F9283
:102DD00011248F939F938091E1009091E100937F64
:102DE0009093E10083FF0FC01092E90091E090936F
:102DF000EB001092EC0092E39093ED001092960598
:102E000098E09093F00082FF20C093E09093E90057
:102E10009091F200992319F09AE39093E800909131
:102E20009405992339F090919405915090939405CD
:102E3000992389F190919505992339F09091950501
:102E4000915090939505992341F184FF10C0809192
:102E5000E2008E7E81608093E2008091E1008F7EAF
:102E60008093E1008091A3058E7E806111C080FF78
:102E700016C08091E2008E7E80618093E200809196
:102E8000E1008E7E8093E1008091A3058E7E8160BB
:102E90008093A30504C05D9ACDCF289AD6CF9F9189
:102EA0008F910F900FBE0F901F9018951F920F9249
:102EB0000FB60F921124CF92DF92EF92FF920F93F1
:102EC0001F932F933F934F935F936F937F938F93B2
:102ED0009F93AF93BF93EF93FF93CF93DF93CDB7C0
:102EE000DEB76C97DEBFCDBF1092E9008091E8009D
:102EF00083FFFBC168E0CE0145960E94D11382EFAB
:102F00008093E8008D8987FF05C09091E80090FFCD
:102F1000FCCF03C09EEF9093E800982F907609F0C5
:102F2000C6C09E894F89588D2F89F88C91110CC08D
:102F3000803829F48091A4058093F10002C010929A
:102F4000F1001092F10045C1913051F4811141C15D
:102F50004130510509F03DC18091A4058D7F0BC022
:102F6000933061F4811135C14130510509F031C10F
:102F70008091A40582608093A4052BC1953049F40B
:102F80008091E80080FFFCCF822F80688093E3006F
:102F900020C1963009F05EC00B8D1C8D22E010928E
:102FA000E9001092920510929105F21232C010922F
:102FB000900510928F050E94231599E0BE016F5F66
:102FC0007F4FDB01E92F1D92EA95E9F79983FA8299
:102FD00091E09E8390EA98879AEF998720919105D6
:102FE00030919205275F3F4F3C832B838D83109256
:102FF000E9001092920510929105109390050093AC
:103000008F0549E050E080E00E94AA130E9423153A
:10301000E0C01093900500938F050E94FA1FDC0119
:1030200012960D911C9113970115110509F4BBC05F
:10303000D801ED91FC910480F581E02DBE016B5E1D
:103040007F4FC8010995009709F0C7C0F8010085B6
:103050001185EACF973009F445C1983021F481E019
:103060008093F100B6C0993009F0B3C0837009F0C5
:1030700039C1EFE5F1E081E031E096E320812111F3
:1030800009C08EE78093EA001092EA008F8980934E
:1030900096059FC08093E9003093EB002191209327
:1030A000EC009093ED008F5F873041F7EACF8B8D76
:1030B0009C8D1092E90010929205109291059093C8
:1030C000900580938F05898D811153C08E899D89CC
:1030D000913A49F4813209F005C147E050E064E1DA
:1030E00071E080E0BBC0913209F0FCC0833269F42A
:1030F0008F89988DA0E0B0E080931001909311012A
:10310000A0931201B093130164C0803269F48091DE
:10311000E80082FFFCCF67E084E191E00E94D113D8
:103120008BEF8093E80055C0823209F052C08F893E
:1031300080931B01EEEFFFE7859194918B3F9C4DAF
:1031400019F0E0E0F8E002C0EEEFFAE0809114013F
:1031500090911501A0911601B0911701803B944008
:10316000A105B10509F09EC080911B0180FF79C0C7
:1031700099C00E94FA1FFC010281138101151105FB
:1031800009F4B0C0D801ED91FC910190F081E02DDF
:10319000BE016B5E7F4FC801099581111AC0F8010D
:1031A00000851185EBCFF1E0FF1609F44EC0F3E086
:1031B000FF1298C08F89882309F44AC0823089F4AD
:1031C00040E860E184EA91E00E947513882309F4E5
:1031D00089C08EEF8093E80088C018161906CCF3DA
:1031E00081C0813029F440E86BE088E991E0ECCFC0
:1031F000833009F077C00E94FA1FDC011296ED902F
:10320000FC9013978E010F5F1F4F6801E114F104CA
:1032100079F0D701ED91FC910680F781E02DB8019E
:10322000C7010995080F111DF701E084F184EECF65
:10323000D8011C92F60101900020E9F73197BF01F7
:103240006C197D0940E0C601BFCF66E871E002C09D
:1032500062E871E0FB01449150E080E80E94AA130B
:10326000B8CFEE3F2AE0F20751F080819181873795
:10327000A7E79A0721F09093FF0A8093FE0A87E759
:1032800097E79183808380916000809393059BE012
:1032900088E10FB6F894A895809360000FBE9093D4
:1032A000600097CF808191818737974709F091CF50
:1032B000A89580916000886180936000809193055B
:1032C00080936000EE3FBAE0FB0739F08091FE0A80
:1032D0009091FF0A918380837CCF1092FF0A109215
:1032E000FE0A77CF81E28093EB006C960FB6F894DC
:1032F000DEBF0FBECDBFDF91CF91FF91EF91BF91A8
:10330000AF919F918F917F916F915F914F913F917D
:103310002F911F910F91FF90EF90DF90CF900F9022
:103320000FBE0F901F9018956115710579F0FB0184
:1033300001900020E9F73197AF01461B570BDC01E4
:10334000ED91FC910280F381E02D099480E090E002
:1033500008951F920F920FB60F9211242F933F934F
:103360004F935F936F937F938F939F93AF93BF938D
:10337000EF93FF9383E396E00E944F14FF91EF9148
:10338000BF91AF919F918F917F916F915F914F917D
:103390003F912F910F900FBE0F901F9018951F9285
:1033A0000F920FB60F9211242F938F939F93EF9349
:1033B000FF93E0914306F09144068081E091490635
:1033C000F0914A0682FD12C0908180914C068F5F79
:1033D0008F7320914D06821751F0E0914C06F0E07A
:1033E000ED5CF94F958F80934C0601C08081FF9171
:1033F000EF919F918F912F910F900FBE0F901F9083
:1034000018958F929F92AF92BF92CF92DF92EF92D8
:10341000FF920F931F93CF93DF93EC018E819F81D7
:103420000E943E2440E06CEC8E819F810E940A2421
:10343000488164E48E819F810E940A248A818823C6
:1034400009F442C0E981E950E33040F4F0E0EE0FC6
:10345000FF1FE85AFE4F0081118102C00EEE12E0FC
:103460008B818823F9F0888181111CC00E94402142
:103470004B015C016801110FEE08FF088E819F81EE
:103480000E94B723813001F10E944021DC01CB0171
:103490008C199D09AE09BF0988159905AA05BB05B8
:1034A00068F312C0B801110F880B990BDF91CF910F
:1034B0001F910F91FF90EF90DF90CF90BF90AF9052
:1034C0009F908F900C940621DF91CF911F910F91C7
:1034D000FF90EF90DF90CF90BF90AF909F908F9034
:1034E00008958F929F92AF92BF92CF92DF92EF9208
:1034F000FF926B017C0181E894E00E94E328A70120
:103500009601C701B6010E949C33882319F064E834
:1035100074E01AC046015701E894B7F82FEF3FEF67
:103520004FE75FE7C501B4010E949C33811111C0D0
:103530002FEF3FEF4FE75FE7C501B4010E94CB31AA
:1035400018163CF468E874E08CE797E00E94941940
:1035500076C02FEF3FEF4FE75FE4C701B6010E944F
:103560002A3318161CF46CE874E0EECF2FEF3FEF0F
:103570004FE75FECC701B6010E94CB3187FDF3CF67
:1035800020E030E0A901C701B6010E94CB3187FFDE
:1035900009C06DE28CE797E00E94E229F7FAF09407
:1035A000F7F8F0942AE037ED43EA5BE3C701B60190
:1035B0000E945F314B015C010E9449326B017C012A
:1035C0000E9478329B01AC01C501B4010E945E31BA
:1035D0004B015C014AE0C701B6010E9419296EE265
:1035E0008CE797E00E94E22920E030E040E251E4DD
:1035F000C501B4010E942F334B015C010E94493286
:103600006B01E12CF12C4AE0C701B6010E94192997
:10361000C701B6010E9478329B01AC01C501B4011B
:103620000E945E3120E030E040E251E40E942F33FE
:103630000E94493280E090E04AE00E94192960E04F
:103640008CE797E0FF90EF90DF90CF90BF90AF9026
:103650009F908F900C94E229CF93DF93D82FC62FA1
:1036600080E994E00E94E3286D2F8CE797E00E94A8
:10367000E2296C2F8CE797E0DF91CF910C94E2293F
:10368000CF93DF938F3F910510F4682F08C0EC01B2
:103690006FEF8CE797E00E94E2296C2F6F5F8CE759
:1036A00097E0DF91CF910C94E2290F931F93CF9372
:1036B000DF938C01EB0184E994E00E94E328C801C8
:1036C0000E94401BCE01DF91CF911F910F910C946E
:1036D000401BCF93C82F87E994E00E94E3286C2F0A
:1036E0008CE797E0CF910C94E229BC0190914707B9
:1036F0009C3098F58091480728E830E0281B310974
:1037000087FD3395220F331F220F331F6217730774
:103710008CF08091490748E552E0481B510987FD2C
:103720005395440F551F440F551F9B0146175707CC
:103730000CF49A0122503109220F331F4FB7F8942D
:10374000892F90E0FC01EE0FFF1F8E0F9F1FFC01E1
:10375000E05EF84F328321834FBF08954F925F920E
:103760006F927F928F929F92AF92BF92CF92DF9291
:10377000EF92FF920F931F93CF93DF93CDB7DEB7F6
:1037800061970FB6F894DEBF0FBECDBFDC01169671
:10379000ED91FC911797138615861486DF011B9611
:1037A00033961E92EA17FB07E1F7FC0106811781A9
:1037B000D8011D962C91211169C07C01C8010E947D
:1037C0003E24811105C0F80113861586148681C038
:1037D00040E060EFC8010E940A24BB24B394A12CEE
:1037E000912CCC24C394C8010E94B723D82EC801C1
:1037F0000E94B723F1E0DF1203C08130D1F439C059
:103800002A2D30E0D8121FC0D8011B968C91C81603
:1038100038F4F801E20FF31F83818B2151F402C0C9
:103820008C1539F0D12CB8E0BC1560F0F801C486D5
:1038300009C0F801EA0DF11D83818B298383DD2402
:10384000D39409C09C2CF801E20FF31F93818B2DB8
:103850008095892383836D2DC8010E94DB23C39447
:10386000BB0C19F4A394BB24B394F7E0FA1508F049
:10387000BACF20E42C1550F4D8011B969C921B97CC
:1038800091100EC081E01D968C930AC0D8011B9642
:103890001C921B971D961C921D971C961C9219C07A
:1038A000F8018381882391F333966E012AE0C20EDA
:1038B000D11C055F1F4FD601560181918D93E017F2
:1038C000F107D9F767E0C6010E949F2399898917FC
:1038D00029F060E070E08EEF92EC99C0D701169667
:1038E0008D919C9117970E943E24882309F48CC0E7
:1038F000F7010681178140E065E5C8010E940A24AE
:103900004E01F2E18F0E911CD6016D916D0140E0E8
:10391000C8010E940A248C149D04B1F740E06EEBAC
:10392000F701868197810E940A248E010F5F1F4F45
:103930002801D70116968D909C90179778E0672EF6
:10394000712CD12CCC24C394C4010E94B7238111C3
:10395000DC28CC0CB1E06B1A7108B1F7F801D192F8
:103960008F01AE16BF0629F7D70116968D919C914F
:1039700017970E943E24813009F046C068E0C201DA
:103980000E949F23998589133FC02A8130E0C90195
:10399000982F8827990F990F990F6981B8E06B9F2D
:1039A000B00111249C01262B372B8A858031C9F464
:1039B000688570E08F81FB01E81BF109CF019695C6
:1039C000982F8827979587950E94BD33605171097C
:1039D000207F53E0220F331F5A95E1F7620F731FC8
:1039E00001C0B9016138F4EE7F070CF472CF072EE5
:1039F000000C880B990B0E947A3220E030E040E006
:103A00005CE30E942F3303C060E874EEEBCF619655
:103A10000FB6F894DEBF0FBECDBFDF91CF911F91DF
:103A20000F91FF90EF90DF90CF90BF90AF909F905D
:103A30008F907F906F905F904F9008950F931F939A
:103A4000CF93DF93982F40912D0850912E086091CD
:103A50002F08709130084F5F5F4F6F4F7F4F40933B
:103A60002D0850932E0860932F08709330088432ED
:103A700009F459C2E0912708853234F48A3071F094
:103A80008D3009F05EC20AC08A3241F08C3209F0F2
:103A900058C280911408892780931408092FEF30A9
:103AA00008F030C2F0E0EA5EF74F1082809115080E
:103AB000882309F41DC1209116083FEB320F822F95
:103AC000022E000C990B363010F4C79707C0215610
:103AD000263018F48755910901C0C097282F2295E8
:103AE000207F309117084FEB430F832F032E000CDC
:103AF000990B463010F4C79707C03156363018F48A
:103B00008755910901C0C097820F909114088913BD
:103B1000DBC08091390890913A08A0913B08B091A0
:103B20003C080196A11DB11D8093390890933A0875
:103B3000A0933B08B0933C0880912808882399F013
:103B40008091310890913208A0913308B0913408E7
:103B50000196A11DB11D8093310890933208A09366
:103B60003308B0933408109125081123B9F11130AE
:103B700009F084C082EB97E00E944D2580EC97E02D
:103B80000E944D2580912808882309F477C087E09A
:103B9000E0EAF7E0A2E9B7E001900D928A95E1F73B
:103BA00087E0E7EAF7E0A9E9B7E001900D928A958E
:103BB000E1F70E9440216093AE077093AF078093B6
:103BC000B0079093B10710939107109390078EEC74
:103BD00097E00E9436258CED97E04EC080EC97E090
:103BE0000E944D2580912808882329F187E0E0EA8A
:103BF000F7E0A2E9B7E001900D928A95E1F787E03E
:103C0000E7EAF7E0A9E9B7E001900D928A95E1F7BC
:103C10000E9440216093AE077093AF078093B00776
:103C20009093B10781E080939107809390078AEE8B
:103C300097E00E9436258091020890910308A09198
:103C40000408B09105088093FE079093FF07A093A6
:103C50000008B09301080E9440216093FA07709316
:103C6000FB078093FC079093FD0781E08093F907A1
:103C70008093F80786E098E00E943625C0912B08D3
:103C8000D0912C0811E0209709F43EC1E0912B0857
:103C9000F0912C0866A177A18EA19FA10E94F0331C
:103CA000892B09F031C1BE01CE0140960E94F93343
:103CB0000E94402168A379A38AA39BA31DA31CA3F0
:103CC0000AA4DBA5C02DDFCF80913508909136087E
:103CD000A0913708B09138080196A11DB11D8093BD
:103CE000350890933608A0933708B09338080AC176
:103CF00090912608911142C06AE974E086E198E04B
:103D00000E94F033892B41F060EA74E086E198E08C
:103D10000E94F033892B11F481E014C066EA74E04C
:103D200086E198E00E94F033892B41F06CEA74E060
:103D300086E198E00E94F033892B19F4109225084F
:103D400003C082E0809325088091290890912A0879
:103D500090932C0880932B08C0912B08D0912C08AD
:103D6000209709F4CFC066E178E08EA19FA10E9460
:103D7000F03397FFC1C08AA59BA5EACFE091250843
:103D8000E23009F491C080911608882309F48CC0B0
:103D900020E2E29FF0011124E92B3197E932F1058D
:103DA00008F082C0EE59FF4F0C94D13386E198E0C1
:103DB0000E94EC256093C6077093C7078093C807DD
:103DC0009093C90771C091E0813409F043C043C0AA
:103DD00060EA77E009C091E0833509F090E09093C4
:103DE000A60762C067EA77E086E198E00E94642552
:103DF0005BC091E0873509F090E09093AD0754C027
:103E000086E198E00E94EC256093D8077093D9076B
:103E10008093DA079093DB0747C086E198E00E9421
:103E2000EC256093E6077093E7078093E80790938B
:103E3000E9073AC086E198E00E94C8306093B8076D
:103E40007093B9078093BA079093BB072DC091E098
:103E500081330CF490E09093280826C086E198E026
:103E60000E94C8306093020870930308809304088E
:103E70009093050819C086E198E00E94EC256093B4
:103E800010087093110880931208909313080CC0C7
:103E900086E198E00E94EC256093F4077093F507A3
:103EA0008093F6079093F707C0912B08D0912C08C8
:103EB000209741F1E0912B08F0912C0866A177A1A1
:103EC0008EA19FA10E94F033892BE1F428A539A58A
:103ED0008091260890E082179307A4F028173907ED
:103EE00039F440E150E066E178E0CE010E94003410
:103EF0000AA4DBA5C02DDCCF892B21F010922C0861
:103F000010922B0880E001C081E0909126089F5F0D
:103F1000909326081092270891E00A3209F090E069
:103F20009093150823C0109227081092260810922B
:103F3000140882E080932508109215081092280832
:103F400014C0EE3040F481E08E0F80932708F0E03B
:103F5000EA5EF74F908380911508811106C0209189
:103F6000140892279093140801C080E0DF91CF914C
:103F70001F910F91089520919605211103C08FEF95
:103F80009FEF08955FB7F89422E02093E900209115
:103F9000F20030E01216130614F421E030E0422F54
:103FA000FC0184E6415038F0289880939505909163
:103FB000F1009193F7CF2115310521F08091F200A6
:103FC000882319F05FBFC90108958BE68093E8004C
:103FD000F9CF2FB7F89483E08093E9009091E8003F
:103FE000892F807295FF04C09091F20080E4891BB4
:103FF0002FBF089580919B0581110DC082E08093B1
:10400000970584E08093980510929A05109299057F
:1040100081E080939B0587E995E00895CF93DF9336
:10402000282F30E0F901E15FFD4F8491F901E05163
:10403000FE4FD491F901EF52FE4FC491CC2391F081
:1040400081110E946820EC2FF0E0EE0FFF1FED536E
:10405000FE4FA591B491EC91ED2381E090E021F425
:1040600080E002C080E090E0DF91CF9108951F933F
:10407000CF93DF93282F30E0F901E15FFD4F84916A
:10408000F901E051FE4FD491F901EF52FE4FC49176
:10409000CC23C1F0162F81110E946820EC2FF0E094
:1040A000EE0FFF1FEB54FE4FA591B4919FB7F8940C
:1040B000111104C08C91D095D82302C0EC91DE2B55
:1040C000DC939FBFDF91CF911F9108950E94EB3346
:1040D00090E0FC013197EF30F105B0F5E557FF4F67
:1040E0000C94D133809180008F7703C08091800041
:1040F0008F7D80938000089580918000877FF9CF25
:1041000084B58F7702C084B58F7D84BD089580917A
:1041100090008F7707C0809190008F7D03C08091C1
:104120009000877F8093900008958091C0008F77E2
:1041300003C08091C0008F7D8093C000089580915E
:10414000C200877F8093C2000895CF93DF9390E0F1
:10415000FC01E051FE4F2491FC01EF52FE4F84918F
:10416000882361F190E0880F991FFC01E25DFD4F0B
:10417000C591D491FC01EB54FE4FA591B49161110E
:1041800009C09FB7F8948881209582238883EC9199
:104190002E230BC0623061F49FB7F8948881322FD0
:1041A000309583238883EC912E2B2C939FBF06C0E0
:1041B0008FB7F894E8812E2B28838FBFDF91CF91A2
:1041C00008953FB7F8948091AE059091AF05A09106
:1041D000B005B091B10526B5A89B05C02F3F19F0D9
:1041E0000196A11DB11D3FBFBA2FA92F982F882777
:1041F000820F911DA11DB11DBC01CD0142E0660FD2
:10420000771F881F991F4A95D1F708958F929F9223
:10421000AF92BF92CF92DF92EF92FF926B017C013F
:104220000E94E1204B015C01C114D104E104F104BE
:10423000F1F00E94E120DC01CB0188199909AA095B
:10424000BB09883E9340A105B10570F321E0C21A75
:10425000D108E108F10888EE880E83E0981EA11CC1
:10426000B11CC114D104E104F10419F7DDCFFF90B2
:10427000EF90DF90CF90BF90AF909F908F90089578
:104280002FB7F8946091AA057091AB058091AC05A9
:104290009091AD052FBF08951F920F920FB60F9208
:1042A00011242F933F938F939F93AF93BF9380914C
:1042B000AA059091AB05A091AC05B091AD053091E8
:1042C000A90523E0230F2D3720F40196A11DB11D70
:1042D00005C026E8230F0296A11DB11D2093A90554
:1042E0008093AA059093AB05A093AC05B093AD0560
:1042F0008091AE059091AF05A091B005B091B10548
:104300000196A11DB11D8093AE059093AF05A093BA
:10431000B005B093B105BF91AF919F918F913F913F
:104320002F910F900FBE0F901F90189585ED8093E1
:10433000BC008091BC0084FDFCCF10920D06089556
:104340004091E905262F30E0240F311D213231053F
:10435000DCF420910D062430C9F4FC0180E090E0EB
:10436000861758F43091E9052191DC01A753BA4F23
:10437000A30FB11D2C930196F3CF8091E905680F2F
:104380006093E90580E0089581E0089582E0089552
:1043900008958FEF9FEF08958FEF9FEF089580911D
:1043A000C80590E09195819591090895CF93DF9389
:1043B000CB01EA01642F0E94A021CE01DF91CF91B1
:1043C0000895CF93DF931F92CDB7DEB7698361E085
:1043D000CE0101960E94A02181E090E00F90DF9134
:1043E000CF91089582E00E940E20019779F481E038
:1043F0008093C5058091B2059091B305A091B40555
:10440000B091B5050197A109B1090DC01092C5057C
:104410008091B2059091B305A091B405B091B50516
:104420000196A11DB11D8093B2059093B305A09391
:10443000B405B093B50581E08093B60508958F92D9
:104440009F92AF92BF92CF92DF92EF92FF920F9323
:104450001F930E94E1200091C1051091C205209197
:10446000C3053091C405C090BD05D090BE05E09055
:10447000BF05F090C00546015701801A910AA20AB3
:10448000B30A95018401060F171F281F391F0093D7
:10449000BD051093BE052093BF053093C005609302
:1044A000C1057093C2058093C3059093C4058091A4
:1044B000B9059091BA05A091BB05B091BC050196D4
:1044C000A11DB11D8093B9059093BA05A093BB05BA
:1044D000B093BC051F910F91FF90EF90DF90CF90AC
:1044E000BF90AF909F908F9008951F920F920FB63C
:1044F0000F9211242F933F934F935F936F937F936A
:104500008F939F93AF93BF93EF93FF938091B900E5
:10451000887F803609F49CC068F5883209F45BC056
:1045200090F4803109F454C038F4882309F4F2C0BF
:10453000883009F44DC0F2C0883109F44CC0803293
:1045400009F45DC0EBC0803409F468C048F48033DE
:1045500009F455C0883309F0E1C080930C06D4C03B
:10456000803509F44FC0883509F45DC0883409F0FE
:10457000D5C0D2C0883909F4C3C0A8F4883709F47B
:1045800067C038F4883609F463C0803709F460C026
:10459000C5C0883809F4B4C0803909F45FC08038D8
:1045A00009F0BCC05BC0803B09F484C038F4803A99
:1045B00009F466C0883A09F47DC0B0C0803C09F4B3
:1045C000A3C0883C09F4A0C0883B09F486C0A6C0FB
:1045D0008091320610C09091310680913006981774
:1045E00070F5E091310681E08E0F80933106F0E0A6
:1045F000E05FF94F80818093BB0085EC82C080939F
:104600000C068AC0E091310681E08E0F809331065E
:104610008091BB00F0E0E05FF94F8083909131061C
:10462000809130066AC0E091310681E08E0F809360
:1046300031068091BB00F0E0E05FF94F808380910C
:104640000F06811169C081E080930E0684EA5DC087
:1046500083E080930D0610920B06CFCF80910B065E
:10466000803208F04DC0E0910B0681E08E0F809300
:104670000B068091BB00F0E0E551FA4F8083BDCF7F
:1046800085EC8093BC0010920D0680910B06803261
:1046900030F4E0910B06F0E0E551FA4F10826091A2
:1046A0000B0670E08BEE95E0E0E0F0E009951092EB
:1046B0000B0634C084E080930D061092EA05109238
:1046C000E905E0E0F0E009958091E905811105C078
:1046D00081E08093E9051092C905E091EA0581E047
:1046E0008E0F8093EA05F0E0E753FA4F80818093C4
:1046F000BB009091EA058091E905981708F47DCFF9
:1047000085E88093BC000AC085EC8093BC001092C1
:104710000D0604C010920C060E949621FF91EF91A5
:10472000BF91AF919F918F917F916F915F914F91C9
:104730003F912F910F900FBE0F901F901895DC01A5
:1047400080E0615098F02D91982F9227E92FEF701B
:10475000F0E0E45CFD4F249192959F70E92FF0E02A
:10476000E45BFD4FE491822F8E27EBCF0895FC018F
:1047700090810180F281E02DF8948181892B8183E1
:104780002281892F809528232283A7E0B0E011970A
:10479000F1F7218182238183A3E2B0E01197F1F741
:1047A00080817894EFECF0E03197F1F7982381E085
:1047B00009F480E00895FC0190810180F281E02DF0
:1047C000892F809560FF12C0F89422818223828312
:1047D0008181892B8183A3E2B0E01197F1F7828177
:1047E000982B9283789487ED90E011C0F894228101
:1047F000822382838181892B8183AFEFB0E011977F
:10480000F1F78281982B928378948FE090E0019762
:10481000F1F70895DF92EF92FF920F931F93CF93DA
:10482000DF93EC01D62EE42E08E010E0FF24F39491
:1048300061E08D2D8F2109F460E0CE010E94DB2321
:10484000FF0C01501109A1F7E11010C0F894E981A3
:10485000FA8191818881809589238183E981FA8118
:10486000928188818095892382837894DF91CF918A
:104870001F910F91FF90EF90DF900895DC012C9134
:104880001196ED91FC911297F8948181922F909559
:104890008923818378948DE743E050E0815021F1B2
:1048A000DA011197F1F730813223C1F3F894828154
:1048B000892382838181822B81837894ABE7B7E05F
:1048C0001197F1F7F89481819823918383E191E026
:1048D0000197F1F78081282381E009F080E0789446
:1048E000E3E6F6E03197F1F708951F920F920FB6C5
:1048F0000F9211242F933F934F935F936F937F9366
:104900008F939F93AF93BF93EF93FF938091C705CE
:1049100087FF05C010928500109284001BC0209173
:10492000C705022E000C330B8091440790E0281736
:10493000390784F48091C705082E000C990BFC01FF
:10494000EE0FFF1F8E0F9F1FFC01E05EF84F80816E
:1049500086FD15C08091C7058F5F8093C7052091A4
:10496000C705022E000C330B8091440790E02817F6
:104970003907C4F48091C7058C3064F113C080916D
:10498000C705082E000C990BFC01EE0FFF1F8E0FC0
:104990009F1FFC01E05EF84F808160E08F730E94F2
:1049A0003720D8CF80918400909185000496803480
:1049B0009C4918F480E49CE905C0809184009091A2
:1049C0008500049690938900809388008FEF8093F0
:1049D000C7053BC020918400309185008091C705B8
:1049E000082E000C990BFC01EE0FFF1F8E0F9F1F6E
:1049F000FC01E05EF84F81819281820F931F9093BA
:104A00008900809388008091C705082E000C990BBF
:104A1000FC01EE0FFF1F8E0F9F1FFC01E05EF84FA1
:104A2000808186FF12C08091C705082E000C990B6B
:104A3000FC01EE0FFF1F8E0F9F1FFC01E05EF84F81
:104A4000808161E08F730E943720FF91EF91BF91C9
:104A5000AF919F918F917F916F915F914F913F9116
:104A60002F910F900FBE0F901F901895CF93DF934B
:104A7000EC018A859B85AC85BD858E839F83A88745
:104A8000B9870E9440216A837B838C839D8381E068
:104A900089838883DF91CF910895CF93DF93EC01D1
:104AA0008E819F81A885B9858A839B83AC83BD83D2
:104AB0000E9440216A877B878C879D8781E089835C
:104AC0008883DF91CF9108952F923F924F925F920A
:104AD0006F927F928F929F92AF92BF92CF92DF920E
:104AE000EF92FF920F931F93CF93DF93D82FC92F8D
:104AF0008B010E94C83024E630E040E050E00E9484
:104B00002D3149015A019B01AC0160E876E988E941
:104B100090E00E94A1336B017C01F80191828082B8
:104B2000ED2FFC2F2191822F022E000C990BC097A4
:104B30000A97C0F32E3239F51F0180E8882E86E9E6
:104B4000982E88E9A82EB12C9AE0492E512C612C80
:104B5000712CF101C1911F010C2E000CDD0BE097AF
:104B6000CA30D10580F4C501B401A30192010E94AD
:104B70002D3149015A01DE010E942531C60ED71E92
:104B8000E81EF91EE6CFA5E0B0E0A70196010E945D
:104B90001A316F5F7F4F8F4F9F4F23E030E040E02F
:104BA00050E00E942D31F8012283338344835583E2
:104BB0001682DF91CF911F910F91FF90EF90DF90C0
:104BC000CF90BF90AF909F908F907F906F905F90AD
:104BD0004F903F902F900895FF920F931F93CF9384
:104BE000DF93EC01F8802DE2F21201C02196CE0194
:104BF0000E94C8309B01AC01A4E6B0E00E941A31CB
:104C0000FE014991242F042E000C330B205331094F
:104C10002A303105A8F34E3241F52181022E000CD5
:104C2000330B205331092A303105F8F44AE0429F12
:104C30008001439F100D1124012E000C220B330B19
:104C4000600F711F821F931F0281002E000C110B39
:104C5000005311090A30110540F4012E000C220BFB
:104C6000330B600F711F821F931F2DE2F21207C0DA
:104C700090958095709561957F4F8F4F9F4FDF91F5
:104C8000CF911F910F91FF90089583E396E00E94CA
:104C90003914892B39F083E396E00E9417140E949F
:104CA0001E1DF3CF8091CF07882379F308950C94CC
:104CB0000C310C94043180912B0160912D01709185
:104CC0002E0181110EC0072E000C880B990B0E943B
:104CD0007A322BE734E14EEC5FE30E942F330E94DF
:104CE0004232CB016AE070E00E94BD3370934F07FF
:104CF00060934E0780914E0790914F076AE070E0F5
:104D00000E94BD3370934D0760934C0790934B07FF
:104D100080934A07860F971F97FF03C08EEF91E09D
:104D200008C06A3071051CF484E193E002C085E19B
:104D300093E00E94F52880914C0790914D0797FFD2
:104D400007C091958195910990934D0780934C07E9
:104D500080914C0790914D070E946F2981E092E06D
:104D60000E94F52880914A0790914B0797FF07C052
:104D700091958195910990934B0780934A07809173
:104D80004A0790914B070E946F2980912B0188233D
:104D900019F083E092E002C088E092E00C94F528DC
:104DA0000F931F93CF938C0101960E945926C82F11
:104DB000C8010E9459262C2F30E0A901582BCA01A6
:104DC000CF911F910F9108951F93CF93DF93EC0123
:104DD000162F672F0E945726612FCE010196DF9173
:104DE000CF911F910C94572610922F011092B80565
:104DF0000C945901CF938091B605882391F180914D
:104E0000B2059091B305A091B405B091B5051816FF
:104E100019061A061B0664F41092B2051092B30527
:104E20001092B4051092B5051092B60581E065C0E8
:104E30008091B2059091B305A091B405B091B505EC
:104E4000B7FF0CC01092B2051092B3051092B405D2
:104E50001092B5051092B60582E04FC01092B605CB
:104E60004BC084E00E940E20C091C605892BE9F456
:104E7000CF5FC093C60568EC70E080E090E00E94D0
:104E80000621C830C0F11092C6050E94F12884E1C5
:104E90000E94691B60E070E080E090E00E94551B7A
:104EA0008CE595E00E94F5281DC0CC2329F11092D5
:104EB000C6050E94F12884E10E94691B60E070E051
:104EC00080E090E00E94551B86E595E00E94F52861
:104ED00064EF71E080E090E00E9406210E94F128DA
:104EE00084E00BC084E00E940E20892BD9F30E943D
:104EF000F12888E002C002C080E190E0CF910895DF
:104F00008F929F92AF92BF92CF92DF92EF92FF92D9
:104F10008090BD059090BE05A090BF05B090C005E3
:104F20006091B9057091BA058091BB059091BC055F
:104F30001092BD051092BE051092BF051092C005DB
:104F40001092B9051092BA051092BB051092BC05DB
:104F50000E94783220E03BE147EB5AE40E942F3375
:104F60006B017C01C501B4010E9478329B01AC0148
:104F7000C701B6010E94D0316B017C0160912C0108
:104F800070E080E090E00E947A329B01AC01C701A2
:104F9000B6010E94D0310E9442329B01AC01AAE0CE
:104FA000B0E00E941A31CB01FF90EF90DF90CF90DC
:104FB000BF90AF909F908F90089561E080918B0794
:104FC0000E94A52061E080918C070E94A52061E0ED
:104FD00080918D070E94A52061E080918D070E943D
:104FE000372060E080918B070E94372060E080913D
:104FF0008C070E94372080918E07882319F060E08B
:105000000C94A52008954F925F926F927F928F9299
:105010009F92AF92BF92CF92DF92EF92FF920F9347
:105020001F93CF93DF9300D000D0CDB7DEB74B01F5
:105030005C0129013A01E982FA820B831C8320E09A
:1050400030E0A9010E94CB3187FDA8C020E030E00C
:10505000A901C301B2010E94CB3187FD9FC020E0AE
:1050600030E0A901C801B7010E94CB3187FD96C08D
:10507000D0926408C092630881E0CA94CD2809F0F8
:1050800080E0809384088092490890924A08A09218
:105090004B08B0924C0840924D0850924E086092D6
:1050A0004F087092500889819A81AB81BC818093AE
:1050B000510890935208A0935308B09354086091FC
:1050C0007708709178088091790890917A080E9409
:1050D000783220E030E04AE754E40E94D0316B019E
:1050E0007C018092550890925608A0925708B09281
:1050F00058089B01AC01C301B2010E942F332B0160
:105100003C016093590870935A0880935B08909310
:105110005C08A701960169817A818B819C810E943C
:10512000D0316B017C0160935D0870935E088093C1
:105130005F089093600880916108909162080197E0
:1051400069F5A501940160E070E0CB010E945E3139
:1051500060935508709356088093570890935808A9
:10516000A301920160E070E0CB010E945E31609388
:10517000590870935A0880935B0890935C08A701C4
:10518000960160E070E0CB010E945E3160935D08A3
:1051900070935E0880935F08909360080F900F9063
:1051A0000F900F90DF91CF911F910F91FF90EF9093
:1051B000DF90CF90BF90AF909F908F907F906F9037
:1051C0005F904F900895CF93DF93EC016991662330
:1051D00029F08CE797E00E94E229F8CFDF91CF9188
:1051E000089581E695E00C94E328CF93DF93EC01DA
:1051F00081E894E00E94E328BE018CE797E00E94DA
:10520000941960E08CE797E0DF91CF910C94E2294C
:10521000CF93C82F81E894E00E94E3286C2F8CE79D
:1052200097E00E94E22960E08CE797E0CF910C9430
:10523000E2298F929F92AF92BF920F931F93CF93C9
:10524000DF93CDB7DEB7A1970FB6F894DEBF0FBEE0
:10525000CDBF19A2423008F44AE08E010F5D1F4F06
:10526000842E912CA12CB12CA50194010E942D31EA
:10527000E62FB901CA0101501109EA3014F4E05DCA
:1052800001C0E95CD801EC93232B242B252B61F77B
:10529000B8018CE797E00E949419A1960FB6F89494
:1052A000DEBF0FBECDBFDF91CF911F910F91BF9099
:1052B000AF909F908F900895CF93C82F81E894E08E
:1052C0000E94E3286C2F70E080E090E04AE00E94AA
:1052D000192960E08CE797E0CF910C94E229CF92F6
:1052E000DF92EF92FF926C0181E894E00E94E32844
:1052F0000D2C000CEE08FF08F7FE0EC06DE28CE7E7
:1053000097E00E94E22966277727CB016C197D0977
:105310008E099F094AE003C04AE0C701B6010E9416
:10532000192960E08CE797E0FF90EF90DF90CF9035
:105330000C94E229089580E090E00895FF920F9385
:105340001F93CF93DF93EC0161E089890E9437209E
:1053500061E089890E9437208A890E940E20892B6A
:10536000D9F360E089890E94372060E089890E9432
:10537000372060E089890E94372098E0F92E00E00C
:1053800010E0000F111F61E08F850E9437208A898D
:105390000E940E20892B09F0016060E08F850E9439
:1053A0003720FA94F110EDCF61E089890E9437200F
:1053B000C801DF91CF911F910F91FF90089504973D
:1053C0000C949E29CF92DF92EF92FF920F931F933E
:1053D000CF93DF93EC01E62E60E089890E943720AD
:1053E00060E089890E94372060E089890E94372027
:1053F000DF84C88807E010E0F12CB701002E02C05E
:10540000759567950A94E2F761708C2D0E9437209C
:1054100061E08D2D0E94372060E08D2D0E943720A5
:105420000150110950F761E089890E94372081E01D
:1054300090E0DF91CF911F910F91FF90EF90DF905F
:10544000CF900895789484B5826084BD84B58160DE
:1054500084BD85B5826085BD85B5816085BD80913F
:105460006E00816080936E001092810080918100B7
:1054700082608093810080918100816080938100AF
:105480008091800081608093800080919100826093
:105490008093910080919100816080939100809130
:1054A00090008160809390008091C100846080931F
:1054B000C1008091C10082608093C1008091C100D1
:1054C00081608093C1008091C30081608093C3009C
:1054D0008091C00082608093C0008091C200816092
:1054E0008093C20080917A00846080937A008091DA
:1054F0007A00826080937A0080917A008160809344
:105500007A0080917A00806880937A0010929605E4
:105510001092A4051092A3058091D700816080931A
:10552000D70080EA8093D80089B5806189BD89B5AC
:10553000826089BD09B400FEFDCF61E070E080E0CB
:1055400090E00E9406218091D8008F7C806180933A
:10555000D8008091E000807F8093E0008091E1009E
:105560008E7E8093E1008DE08093E200559A209A30
:105570008FEF9FEF9093DD068093DC0664E670E08A
:1055800080E090E00E940621E0914306F0914406FD
:1055900082E08083E0913F06F09140061082E09126
:1055A0004106F09142068FEC808310924B06E09109
:1055B0004706F091480686E08083E0914506F09129
:1055C0004606808180618083E0914506F091460621
:1055D000808188608083E0914506F0914606808155
:1055E00080688083E0914506F091460680818F7D3A
:1055F000808368EB7BE080E090E00E9406210E94BF
:10560000DD270E94F12864E670E080E090E00E94CF
:1056100006218EE10E94691B61E070E080E090E06D
:105620000E94551B83E193E00E94F52864E670E038
:1056300080E090E00E94062182EB94E00E94F52831
:1056400062E070E080E090E00E94551B80E193E012
:105650000E94F52864E670E080E090E00E94062158
:105660008DEB94E00E94F52863E070E080E090E02C
:105670000E94551B83EC94E00E94F52860E070E0E6
:1056800080EA91E40E94711A68EB7BE080E090E090
:105690000E9406210E94F12864EF71E080E090E012
:1056A0000E94062188EC90E00E945926813009F47E
:1056B00061C08EE10E94691B62E070E080E090E0D2
:1056C0000E94551B8EEC94E00E94F52860ED77E077
:1056D00080E090E00E94062166E08BE090E00E946E
:1056E000572661E082E190E00E9457266CE083E15A
:1056F00090E00E94572663EC84E190E00E945726D8
:105700006FE585E190E00E94572660E086E190E039
:105710000E94572668E087E190E00E94572660E0EB
:1057200088E190E00E94572660E089E190E00E94C5
:10573000572661E08DE190E00E9457266AE08EE1F5
:1057400090E00E94572661E08FE190E00E9457268A
:105750006EE181E290E00E94572661E088EC90E0E3
:105760000E9457260E94F12864EF71E080E090E0EB
:105770000E94062189EC90E00E9459268130F1F1C7
:105780008EE10E94691B62E070E080E090E00E9480
:10579000551B80EE94E00E94F52868E873E180E0F4
:1057A00090E00E94062160E08CE090E00E94572685
:1057B00069E18DE090E00E94572660E08EE090E085
:1057C0000E94572662E38FE090E00E94572660E037
:1057D00080E190E00E94572665E081E190E00E9420
:1057E000572661E089EC90E00E9457260E94F1283C
:1057F00064EF71E080E090E00E9406218EE10E945B
:10580000691B61E070E080E090E00E94551B81EF31
:1058100094E00E94F52863E070E080E090E00E9450
:10582000551B82E095E00E94F52868EE73E080E069
:1058300090E00E94062160E082E00E94A52060E0E6
:1058400083E00E94A52062E084E00E94A52082EF10
:1058500091E290931D0180931C0180916900836007
:1058600080936900E89A8FE192E2909325018093FA
:10587000240180916A008F7C806180936A00EE9A97
:10588000809147078C3008F051C061E085E00E94AC
:10589000A52080914707E82FF0E09F01220F331FDA
:1058A000E20FF31FE05EF84F9081907C956090834B
:1058B00010924807109249076CE00E94B1339CE0B7
:1058C000899FB001112440E050E09B01240F351F57
:1058D000F901EE0FFF1F2E0F3F1FF901E05EF84F99
:1058E000908196FD16C04F5F5F4F4C30510569F7B0
:1058F00081110FC01092800082E08093810010928D
:10590000850010928400B19A80916F00826080932C
:105910006F00E0914707F0E0CF01880F991FE80F73
:10592000F91FE05EF84F8081806480836091A70555
:105930007091A805072E000C880B990B0E947A32F3
:1059400060934508709346088093470890934808F1
:1059500060912D0170912E01072E000C880B990B80
:105960000E947A3260933D0870933E0880933F080E
:105970009093400880918308811148C0E0916708A6
:10598000F0916808C080D180E280F380C0926F08F7
:10599000D0927008E0927108F0927208E091650868
:1059A000F091660880819181A281B3818093730810
:1059B00090937408A0937508B093760880907F0840
:1059C00090908008A0908108B0908208A501940171
:1059D000C701B6010E942A33181684F080907B0814
:1059E00090907C08A0907D08B0907E08A50194015D
:1059F000C701B6010E94CB3187FF08C080926F08B3
:105A000090927008A0927108B092720881E0809321
:105A100083088BE090E00E94592680932C018CE053
:105A200090E00E94D026BC0180E090E00E94783295
:105A300020E030E048EC52E40E94D0316093320123
:105A40007093330180933401909335018EE090E0A0
:105A50000E94D026BC0180E090E00E94783220E0D5
:105A600030E048EC52E40E94D031609336017093EC
:105A70003701809338019093390180E190E00E94D2
:105A8000D026BC0180E090E00E94783220E030E037
:105A900048EC52E40E94D03160933A0170933B018C
:105AA00080933C0190933D0182E190E00E94592651
:105AB00091E0811101C090E090932B0183E190E08F
:105AC0000E94592690E090932A018093290184E155
:105AD00090E00E9459269AE0899FE0011124D0931A
